{"contracts/src/ImprovedDistributedPayoutManager.sol":{"ImprovedDistributedPayoutManager":{"abi":[{"inputs":[{"internalType":"address","name":"_predictionMarket","type":"address"},{"internalType":"address","name":"_builderRewardPool","type":"address"},{"internalType":"address","name":"_bittensorRewardPool","type":"address"},{"internalType":"address","name":"_genesisNFT","type":"address"}],"stateMutability":"nonpayable","type":"constructor"},{"inputs":[],"name":"EnforcedPause","type":"error"},{"inputs":[],"name":"ExpectedPause","type":"error"},{"inputs":[],"name":"ReentrancyGuardReentrantCall","type":"error"},{"anonymous":false,"inputs":[{"indexed":true,"internalType":"address","name":"creator","type":"address"},{"indexed":false,"internalType":"uint256","name":"amount","type":"uint256"},{"indexed":false,"internalType":"uint256","name":"marketId","type":"uint256"}],"name":"CreatorRewarded","type":"event"},{"anonymous":false,"inputs":[{"indexed":true,"internalType":"uint256","name":"marketId","type":"uint256"},{"indexed":false,"internalType":"uint256","name":"genesisRewards","type":"uint256"},{"indexed":false,"internalType":"uint256","name":"oracleRewards","type":"uint256"},{"indexed":false,"internalType":"uint256","name":"nodeRewards","type":"uint256"},{"indexed":false,"internalType":"uint256","name":"creatorReward","type":"uint256"},{"indexed":false,"internalType":"uint256","name":"builderPoolDeposit","type":"uint256"},{"indexed":false,"internalType":"uint256","name":"bittensorPoolDeposit","type":"uint256"}],"name":"FeesDistributed","type":"event"},{"anonymous":false,"inputs":[{"indexed":true,"internalType":"address","name":"holder","type":"address"},{"indexed":false,"internalType":"uint256","name":"amount","type":"uint256"},{"indexed":false,"internalType":"uint256","name":"marketId","type":"uint256"}],"name":"GenesisHolderRewarded","type":"event"},{"anonymous":false,"inputs":[{"indexed":true,"internalType":"address","name":"node","type":"address"},{"indexed":false,"internalType":"uint256","name":"amount","type":"uint256"}],"name":"NodeRewarded","type":"event"},{"anonymous":false,"inputs":[{"indexed":true,"internalType":"address","name":"oracle","type":"address"},{"indexed":false,"internalType":"uint256","name":"amount","type":"uint256"},{"indexed":false,"internalType":"uint256","name":"marketId","type":"uint256"}],"name":"OracleRewarded","type":"event"},{"anonymous":false,"inputs":[{"indexed":false,"internalType":"address","name":"account","type":"address"}],"name":"Paused","type":"event"},{"anonymous":false,"inputs":[{"indexed":false,"internalType":"address","name":"account","type":"address"}],"name":"Unpaused","type":"event"},{"inputs":[],"name":"BITTENSOR_POOL_SHARE","outputs":[{"internalType":"uint16","name":"","type":"uint16"}],"stateMutability":"view","type":"function"},{"inputs":[],"name":"BUILDER_POOL_SHARE","outputs":[{"internalType":"uint16","name":"","type":"uint16"}],"stateMutability":"view","type":"function"},{"inputs":[],"name":"CREATOR_SHARE","outputs":[{"internalType":"uint16","name":"","type":"uint16"}],"stateMutability":"view","type":"function"},{"inputs":[],"name":"GENESIS_SHARE","outputs":[{"internalType":"uint16","name":"","type":"uint16"}],"stateMutability":"view","type":"function"},{"inputs":[],"name":"NODE_SHARE","outputs":[{"internalType":"uint16","name":"","type":"uint16"}],"stateMutability":"view","type":"function"},{"inputs":[],"name":"ORACLE_SHARE","outputs":[{"internalType":"uint16","name":"","type":"uint16"}],"stateMutability":"view","type":"function"},{"inputs":[],"name":"TOTAL_FEE","outputs":[{"internalType":"uint16","name":"","type":"uint16"}],"stateMutability":"view","type":"function"},{"inputs":[{"internalType":"uint256","name":"","type":"uint256"}],"name":"activeNodes","outputs":[{"internalType":"address","name":"","type":"address"}],"stateMutability":"view","type":"function"},{"inputs":[],"name":"bittensorRewardPool","outputs":[{"internalType":"contract IBittensorRewardPool","name":"","type":"address"}],"stateMutability":"view","type":"function"},{"inputs":[],"name":"builderRewardPool","outputs":[{"internalType":"contract IBuilderRewardPool","name":"","type":"address"}],"stateMutability":"view","type":"function"},{"inputs":[{"internalType":"uint256","name":"platformVolume","type":"uint256"},{"internalType":"uint256","name":"nftCount","type":"uint256"}],"name":"calculateGenesisEarnings","outputs":[{"internalType":"uint256","name":"","type":"uint256"}],"stateMutability":"view","type":"function"},{"inputs":[{"internalType":"uint256","name":"amount","type":"uint256"}],"name":"distributeFees","outputs":[],"stateMutability":"nonpayable","type":"function"},{"inputs":[],"name":"genesisNFT","outputs":[{"internalType":"contract IGenesisNFT","name":"","type":"address"}],"stateMutability":"view","type":"function"},{"inputs":[],"name":"getFeeBreakdown","outputs":[{"internalType":"uint256","name":"genesisPercent","type":"uint256"},{"internalType":"uint256","name":"oraclePercent","type":"uint256"},{"internalType":"uint256","name":"nodePercent","type":"uint256"},{"internalType":"uint256","name":"creatorPercent","type":"uint256"},{"internalType":"uint256","name":"builderPercent","type":"uint256"},{"internalType":"uint256","name":"bittensorPercent","type":"uint256"}],"stateMutability":"pure","type":"function"},{"inputs":[{"internalType":"uint256","name":"","type":"uint256"},{"internalType":"uint256","name":"","type":"uint256"}],"name":"marketOracles","outputs":[{"internalType":"address","name":"","type":"address"}],"stateMutability":"view","type":"function"},{"inputs":[{"internalType":"uint256","name":"","type":"uint256"},{"internalType":"uint256","name":"","type":"uint256"}],"name":"marketPayouts","outputs":[{"internalType":"address","name":"recipient","type":"address"},{"internalType":"uint256","name":"amount","type":"uint256"},{"internalType":"uint256","name":"marketId","type":"uint256"},{"internalType":"bool","name":"claimed","type":"bool"}],"stateMutability":"view","type":"function"},{"inputs":[{"internalType":"address","name":"","type":"address"}],"name":"nodeRewards","outputs":[{"internalType":"uint256","name":"","type":"uint256"}],"stateMutability":"view","type":"function"},{"inputs":[{"internalType":"uint256","name":"","type":"uint256"},{"internalType":"address","name":"","type":"address"}],"name":"oracleContributions","outputs":[{"internalType":"uint256","name":"","type":"uint256"}],"stateMutability":"view","type":"function"},{"inputs":[],"name":"paused","outputs":[{"internalType":"bool","name":"","type":"bool"}],"stateMutability":"view","type":"function"},{"inputs":[],"name":"predictionMarket","outputs":[{"internalType":"contract IPredictionMarket","name":"","type":"address"}],"stateMutability":"view","type":"function"},{"inputs":[{"internalType":"address","name":"","type":"address"}],"name":"unclaimedRewards","outputs":[{"internalType":"uint256","name":"","type":"uint256"}],"stateMutability":"view","type":"function"},{"stateMutability":"payable","type":"receive"}],"evm":{"bytecode":{"linkReferences":{},"object":"6080346100d557601f6109d438819003918201601f19168301916001600160401b038311848410176100da578084926080946040528339810103126100d557610047816100f0565b90610054602082016100f0565b9161006d6060610066604085016100f0565b93016100f0565b90600160005560015490610100600160a81b039060081b1690610100600160a81b0319161760015560018060a01b0380928160018060a01b0319951685600254161760025516836003541617600355169060045416176004556040516108cf90816101058239f35b600080fd5b634e487b7160e01b600052604160045260246000fd5b51906001600160a01b03821682036100d55756fe60406080815260049081361015610020575b5050361561001e57600080fd5b005b600090813560e01c9283631083b076146105cc57836316e2fc1d1461058e5783632cd4e6b6146105665783632ffb61fb146105615783635c975abb1461053e5783636029bf9f146103e557836363db7eae146103c9578363770ce3d81461039257836377cd91bf1461035457836381cdf676146102ed5783638dd4916b146102c757836390174c0614610119578363949813b81461029057836396f9d9831461023b578363cc0c303914610119578363dbe5acf3146101c1578363de50b59514610199578363de6360bc1461014d57508263def114b61461011e5750508063edb9821e146101195763f1c7000b14610119573880610011565b610619565b34610149578160031936011261014957600154905160089190911c6001600160a01b03168152602090f35b5080fd5b346101955781600319360112610195576024356001600160a01b03811691908290036101915792829160209435825260058552828220908252845220549051908152f35b8380fd5b8280fd5b503461014957816003193601126101495760035490516001600160a01b039091168152602090f35b8234610238576101d036610603565b9290600781029080820460071490151715610225576101f460646102bc9204610635565b04838102938185041490151715610212576020836064865191048152f35b634e487b7160e01b825260119052602490fd5b634e487b7160e01b835260118252602483fd5b80fd5b3461019557602036600319011261019557356008548110156101955760086020935260018060a01b03907ff3f7a9fe364faab93b216da50a3214154f22a0a2b415b23a84c8169e8b636ee30154169051908152f35b50346101495760203660031901126101495760209181906001600160a01b036102b76105ed565b168152600a845220549051908152f35b346101955782600319360112610195575490516001600160a01b03909116815260209150f35b5034610149576102fc36610603565b90835260096020528183208054821015610191578360209160809552209060021b019060018060a01b038254169160018101549160ff6003600284015493015416928151948552602085015283015215156060820152f35b50346101495761036336610603565b9290815260066020528181209283548110156101495760209382528360018060a01b0392200154169051908152f35b50346101495760203660031901126101495760209181906001600160a01b036103b96105ed565b1681526007845220549051908152f35b5034610149578160031936011261014957602090516102bc8152f35b829034610149576020366003190112610149578035600283541461052f576002835560ff600154166105205780156104dd5782937f9a2e6a5232893d8912bad8b33b7a32f790a3df0bd781a7fd8796faaa3b87f6d49260c0926102bc8061044b83610635565b04938161045784610635565b04908261046385610661565b04918361046f86610635565b04936104858161047e88610635565b0496610661565b049587151590816104c9575b506104bb575b815196875260208701528501526060840152608083015260a0820152a26001815580f35b6104c4876106af565b610497565b546001600160a01b0316151590508c610491565b835162461bcd60e51b8152602081840152601d60248201527f416d6f756e74206d7573742062652067726561746572207468616e20300000006044820152606490fd5b50825163d93c066560e01b8152fd5b508251633ee5aeb560e01b8152fd5b503461014957816003193601126101495760209060ff6001541690519015158152f35b6105cc565b503461014957816003193601126101495760025490516001600160a01b039091168152602090f35b503461014957816003193601126101495780600a60c092519160148352601460208401528201526014606082015260146080820152600a60a0820152f35b346105e85760003660031901126105e857602060405160468152f35b600080fd5b600435906001600160a01b03821682036105e857565b60409060031901126105e8576004359060243590565b346105e85760003660031901126105e8576020604051608c8152f35b90608c820291808304608c149015171561064b57565b634e487b7160e01b600052601160045260246000fd5b9060468202918083046046149015171561064b57565b90601f8019910116810190811067ffffffffffffffff82111761069957604052565b634e487b7160e01b600052604160045260246000fd5b60018060a01b03906004828154166040805193849263144613ff60e31b8452838560209586935afa94851561088e5760009561085f575b50841561085757849004600195865b86811115610707575050505050505050565b84828754168551918280926331a9108f60e11b8252858b83015260249384915afa6000928161081d575b5061075e575b505060001981146107495787016106f5565b601186634e487b7160e01b6000525260246000fd5b848483169283151580610814575b610778575b5050610737565b600080809381935af1903d1561080e573d9067ffffffffffffffff82116107fb57508651906107b0601f8201601f19168a0183610677565b81526000883d92013e5b6107c7575b808481610771565b7f682e67f2362bb04b61e784c278b2e6fac980cbec16efebc73594926e0e7cc358858051868152600089820152a2386107bf565b634e487b7160e01b600090815260418b52fd5b506107ba565b5081151561076c565b8881819593953d8311610850575b6108358183610677565b81010312610149575190858216820361023857509138610731565b503d61082b565b505050505050565b90948382813d8311610887575b6108768183610677565b8101031261023857505193386106e6565b503d61086c565b82513d6000823e3d90fdfea26469706673582212200ae300854ea2617a46df00b1658cbd77cfeb874a24e2d63ee2824ff15c9cd48964736f6c63430008140033","opcodes":"PUSH1 0x80 CALLVALUE PUSH2 0xD5 JUMPI PUSH1 0x1F PUSH2 0x9D4 CODESIZE DUP2 SWAP1 SUB SWAP2 DUP3 ADD PUSH1 0x1F NOT AND DUP4 ADD SWAP2 PUSH1 0x1 PUSH1 0x1 PUSH1 0x40 SHL SUB DUP4 GT DUP5 DUP5 LT OR PUSH2 0xDA JUMPI DUP1 DUP5 SWAP3 PUSH1 0x80 SWAP5 PUSH1 0x40 MSTORE DUP4 CODECOPY DUP2 ADD SUB SLT PUSH2 0xD5 JUMPI PUSH2 0x47 DUP2 PUSH2 0xF0 JUMP JUMPDEST SWAP1 PUSH2 0x54 PUSH1 0x20 DUP3 ADD PUSH2 0xF0 JUMP JUMPDEST SWAP2 PUSH2 0x6D PUSH1 0x60 PUSH2 0x66 PUSH1 0x40 DUP6 ADD PUSH2 0xF0 JUMP JUMPDEST SWAP4 ADD PUSH2 0xF0 JUMP JUMPDEST SWAP1 PUSH1 0x1 PUSH1 0x0 SSTORE PUSH1 0x1 SLOAD SWAP1 PUSH2 0x100 PUSH1 0x1 PUSH1 0xA8 SHL SUB SWAP1 PUSH1 0x8 SHL AND SWAP1 PUSH2 0x100 PUSH1 0x1 PUSH1 0xA8 SHL SUB NOT AND OR PUSH1 0x1 SSTORE PUSH1 0x1 DUP1 PUSH1 0xA0 SHL SUB DUP1 SWAP3 DUP2 PUSH1 0x1 DUP1 PUSH1 0xA0 SHL SUB NOT SWAP6 AND DUP6 PUSH1 0x2 SLOAD AND OR PUSH1 0x2 SSTORE AND DUP4 PUSH1 0x3 SLOAD AND OR PUSH1 0x3 SSTORE AND SWAP1 PUSH1 0x4 SLOAD AND OR PUSH1 0x4 SSTORE PUSH1 0x40 MLOAD PUSH2 0x8CF SWAP1 DUP2 PUSH2 0x105 DUP3 CODECOPY RETURN JUMPDEST PUSH1 0x0 DUP1 REVERT JUMPDEST PUSH4 0x4E487B71 PUSH1 0xE0 SHL PUSH1 0x0 MSTORE PUSH1 0x41 PUSH1 0x4 MSTORE PUSH1 0x24 PUSH1 0x0 REVERT JUMPDEST MLOAD SWAP1 PUSH1 0x1 PUSH1 0x1 PUSH1 0xA0 SHL SUB DUP3 AND DUP3 SUB PUSH2 0xD5 JUMPI JUMP INVALID PUSH1 0x40 PUSH1 0x80 DUP2 MSTORE PUSH1 0x4 SWAP1 DUP2 CALLDATASIZE LT ISZERO PUSH2 0x20 JUMPI JUMPDEST POP POP CALLDATASIZE ISZERO PUSH2 0x1E JUMPI PUSH1 0x0 DUP1 REVERT JUMPDEST STOP JUMPDEST PUSH1 0x0 SWAP1 DUP2 CALLDATALOAD PUSH1 0xE0 SHR SWAP3 DUP4 PUSH4 0x1083B076 EQ PUSH2 0x5CC JUMPI DUP4 PUSH4 0x16E2FC1D EQ PUSH2 0x58E JUMPI DUP4 PUSH4 0x2CD4E6B6 EQ PUSH2 0x566 JUMPI DUP4 PUSH4 0x2FFB61FB EQ PUSH2 0x561 JUMPI DUP4 PUSH4 0x5C975ABB EQ PUSH2 0x53E JUMPI DUP4 PUSH4 0x6029BF9F EQ PUSH2 0x3E5 JUMPI DUP4 PUSH4 0x63DB7EAE EQ PUSH2 0x3C9 JUMPI DUP4 PUSH4 0x770CE3D8 EQ PUSH2 0x392 JUMPI DUP4 PUSH4 0x77CD91BF EQ PUSH2 0x354 JUMPI DUP4 PUSH4 0x81CDF676 EQ PUSH2 0x2ED JUMPI DUP4 PUSH4 0x8DD4916B EQ PUSH2 0x2C7 JUMPI DUP4 PUSH4 0x90174C06 EQ PUSH2 0x119 JUMPI DUP4 PUSH4 0x949813B8 EQ PUSH2 0x290 JUMPI DUP4 PUSH4 0x96F9D983 EQ PUSH2 0x23B JUMPI DUP4 PUSH4 0xCC0C3039 EQ PUSH2 0x119 JUMPI DUP4 PUSH4 0xDBE5ACF3 EQ PUSH2 0x1C1 JUMPI DUP4 PUSH4 0xDE50B595 EQ PUSH2 0x199 JUMPI DUP4 PUSH4 0xDE6360BC EQ PUSH2 0x14D JUMPI POP DUP3 PUSH4 0xDEF114B6 EQ PUSH2 0x11E JUMPI POP POP DUP1 PUSH4 0xEDB9821E EQ PUSH2 0x119 JUMPI PUSH4 0xF1C7000B EQ PUSH2 0x119 JUMPI CODESIZE DUP1 PUSH2 0x11 JUMP JUMPDEST PUSH2 0x619 JUMP JUMPDEST CALLVALUE PUSH2 0x149 JUMPI DUP2 PUSH1 0x3 NOT CALLDATASIZE ADD SLT PUSH2 0x149 JUMPI PUSH1 0x1 SLOAD SWAP1 MLOAD PUSH1 0x8 SWAP2 SWAP1 SWAP2 SHR PUSH1 0x1 PUSH1 0x1 PUSH1 0xA0 SHL SUB AND DUP2 MSTORE PUSH1 0x20 SWAP1 RETURN JUMPDEST POP DUP1 REVERT JUMPDEST CALLVALUE PUSH2 0x195 JUMPI DUP2 PUSH1 0x3 NOT CALLDATASIZE ADD SLT PUSH2 0x195 JUMPI PUSH1 0x24 CALLDATALOAD PUSH1 0x1 PUSH1 0x1 PUSH1 0xA0 SHL SUB DUP2 AND SWAP2 SWAP1 DUP3 SWAP1 SUB PUSH2 0x191 JUMPI SWAP3 DUP3 SWAP2 PUSH1 0x20 SWAP5 CALLDATALOAD DUP3 MSTORE PUSH1 0x5 DUP6 MSTORE DUP3 DUP3 KECCAK256 SWAP1 DUP3 MSTORE DUP5 MSTORE KECCAK256 SLOAD SWAP1 MLOAD SWAP1 DUP2 MSTORE RETURN JUMPDEST DUP4 DUP1 REVERT JUMPDEST DUP3 DUP1 REVERT JUMPDEST POP CALLVALUE PUSH2 0x149 JUMPI DUP2 PUSH1 0x3 NOT CALLDATASIZE ADD SLT PUSH2 0x149 JUMPI PUSH1 0x3 SLOAD SWAP1 MLOAD PUSH1 0x1 PUSH1 0x1 PUSH1 0xA0 SHL SUB SWAP1 SWAP2 AND DUP2 MSTORE PUSH1 0x20 SWAP1 RETURN JUMPDEST DUP3 CALLVALUE PUSH2 0x238 JUMPI PUSH2 0x1D0 CALLDATASIZE PUSH2 0x603 JUMP JUMPDEST SWAP3 SWAP1 PUSH1 0x7 DUP2 MUL SWAP1 DUP1 DUP3 DIV PUSH1 0x7 EQ SWAP1 ISZERO OR ISZERO PUSH2 0x225 JUMPI PUSH2 0x1F4 PUSH1 0x64 PUSH2 0x2BC SWAP3 DIV PUSH2 0x635 JUMP JUMPDEST DIV DUP4 DUP2 MUL SWAP4 DUP2 DUP6 DIV EQ SWAP1 ISZERO OR ISZERO PUSH2 0x212 JUMPI PUSH1 0x20 DUP4 PUSH1 0x64 DUP7 MLOAD SWAP2 DIV DUP2 MSTORE RETURN JUMPDEST PUSH4 0x4E487B71 PUSH1 0xE0 SHL DUP3 MSTORE PUSH1 0x11 SWAP1 MSTORE PUSH1 0x24 SWAP1 REVERT JUMPDEST PUSH4 0x4E487B71 PUSH1 0xE0 SHL DUP4 MSTORE PUSH1 0x11 DUP3 MSTORE PUSH1 0x24 DUP4 REVERT JUMPDEST DUP1 REVERT JUMPDEST CALLVALUE PUSH2 0x195 JUMPI PUSH1 0x20 CALLDATASIZE PUSH1 0x3 NOT ADD SLT PUSH2 0x195 JUMPI CALLDATALOAD PUSH1 0x8 SLOAD DUP2 LT ISZERO PUSH2 0x195 JUMPI PUSH1 0x8 PUSH1 0x20 SWAP4 MSTORE PUSH1 0x1 DUP1 PUSH1 0xA0 SHL SUB SWAP1 PUSH32 0xF3F7A9FE364FAAB93B216DA50A3214154F22A0A2B415B23A84C8169E8B636EE3 ADD SLOAD AND SWAP1 MLOAD SWAP1 DUP2 MSTORE RETURN JUMPDEST POP CALLVALUE PUSH2 0x149 JUMPI PUSH1 0x20 CALLDATASIZE PUSH1 0x3 NOT ADD SLT PUSH2 0x149 JUMPI PUSH1 0x20 SWAP2 DUP2 SWAP1 PUSH1 0x1 PUSH1 0x1 PUSH1 0xA0 SHL SUB PUSH2 0x2B7 PUSH2 0x5ED JUMP JUMPDEST AND DUP2 MSTORE PUSH1 0xA DUP5 MSTORE KECCAK256 SLOAD SWAP1 MLOAD SWAP1 DUP2 MSTORE RETURN JUMPDEST CALLVALUE PUSH2 0x195 JUMPI DUP3 PUSH1 0x3 NOT CALLDATASIZE ADD SLT PUSH2 0x195 JUMPI SLOAD SWAP1 MLOAD PUSH1 0x1 PUSH1 0x1 PUSH1 0xA0 SHL SUB SWAP1 SWAP2 AND DUP2 MSTORE PUSH1 0x20 SWAP2 POP RETURN JUMPDEST POP CALLVALUE PUSH2 0x149 JUMPI PUSH2 0x2FC CALLDATASIZE PUSH2 0x603 JUMP JUMPDEST SWAP1 DUP4 MSTORE PUSH1 0x9 PUSH1 0x20 MSTORE DUP2 DUP4 KECCAK256 DUP1 SLOAD DUP3 LT ISZERO PUSH2 0x191 JUMPI DUP4 PUSH1 0x20 SWAP2 PUSH1 0x80 SWAP6 MSTORE KECCAK256 SWAP1 PUSH1 0x2 SHL ADD SWAP1 PUSH1 0x1 DUP1 PUSH1 0xA0 SHL SUB DUP3 SLOAD AND SWAP2 PUSH1 0x1 DUP2 ADD SLOAD SWAP2 PUSH1 0xFF PUSH1 0x3 PUSH1 0x2 DUP5 ADD SLOAD SWAP4 ADD SLOAD AND SWAP3 DUP2 MLOAD SWAP5 DUP6 MSTORE PUSH1 0x20 DUP6 ADD MSTORE DUP4 ADD MSTORE ISZERO ISZERO PUSH1 0x60 DUP3 ADD MSTORE RETURN JUMPDEST POP CALLVALUE PUSH2 0x149 JUMPI PUSH2 0x363 CALLDATASIZE PUSH2 0x603 JUMP JUMPDEST SWAP3 SWAP1 DUP2 MSTORE PUSH1 0x6 PUSH1 0x20 MSTORE DUP2 DUP2 KECCAK256 SWAP3 DUP4 SLOAD DUP2 LT ISZERO PUSH2 0x149 JUMPI PUSH1 0x20 SWAP4 DUP3 MSTORE DUP4 PUSH1 0x1 DUP1 PUSH1 0xA0 SHL SUB SWAP3 KECCAK256 ADD SLOAD AND SWAP1 MLOAD SWAP1 DUP2 MSTORE RETURN JUMPDEST POP CALLVALUE PUSH2 0x149 JUMPI PUSH1 0x20 CALLDATASIZE PUSH1 0x3 NOT ADD SLT PUSH2 0x149 JUMPI PUSH1 0x20 SWAP2 DUP2 SWAP1 PUSH1 0x1 PUSH1 0x1 PUSH1 0xA0 SHL SUB PUSH2 0x3B9 PUSH2 0x5ED JUMP JUMPDEST AND DUP2 MSTORE PUSH1 0x7 DUP5 MSTORE KECCAK256 SLOAD SWAP1 MLOAD SWAP1 DUP2 MSTORE RETURN JUMPDEST POP CALLVALUE PUSH2 0x149 JUMPI DUP2 PUSH1 0x3 NOT CALLDATASIZE ADD SLT PUSH2 0x149 JUMPI PUSH1 0x20 SWAP1 MLOAD PUSH2 0x2BC DUP2 MSTORE RETURN JUMPDEST DUP3 SWAP1 CALLVALUE PUSH2 0x149 JUMPI PUSH1 0x20 CALLDATASIZE PUSH1 0x3 NOT ADD SLT PUSH2 0x149 JUMPI DUP1 CALLDATALOAD PUSH1 0x2 DUP4 SLOAD EQ PUSH2 0x52F JUMPI PUSH1 0x2 DUP4 SSTORE PUSH1 0xFF PUSH1 0x1 SLOAD AND PUSH2 0x520 JUMPI DUP1 ISZERO PUSH2 0x4DD JUMPI DUP3 SWAP4 PUSH32 0x9A2E6A5232893D8912BAD8B33B7A32F790A3DF0BD781A7FD8796FAAA3B87F6D4 SWAP3 PUSH1 0xC0 SWAP3 PUSH2 0x2BC DUP1 PUSH2 0x44B DUP4 PUSH2 0x635 JUMP JUMPDEST DIV SWAP4 DUP2 PUSH2 0x457 DUP5 PUSH2 0x635 JUMP JUMPDEST DIV SWAP1 DUP3 PUSH2 0x463 DUP6 PUSH2 0x661 JUMP JUMPDEST DIV SWAP2 DUP4 PUSH2 0x46F DUP7 PUSH2 0x635 JUMP JUMPDEST DIV SWAP4 PUSH2 0x485 DUP2 PUSH2 0x47E DUP9 PUSH2 0x635 JUMP JUMPDEST DIV SWAP7 PUSH2 0x661 JUMP JUMPDEST DIV SWAP6 DUP8 ISZERO ISZERO SWAP1 DUP2 PUSH2 0x4C9 JUMPI JUMPDEST POP PUSH2 0x4BB JUMPI JUMPDEST DUP2 MLOAD SWAP7 DUP8 MSTORE PUSH1 0x20 DUP8 ADD MSTORE DUP6 ADD MSTORE PUSH1 0x60 DUP5 ADD MSTORE PUSH1 0x80 DUP4 ADD MSTORE PUSH1 0xA0 DUP3 ADD MSTORE LOG2 PUSH1 0x1 DUP2 SSTORE DUP1 RETURN JUMPDEST PUSH2 0x4C4 DUP8 PUSH2 0x6AF JUMP JUMPDEST PUSH2 0x497 JUMP JUMPDEST SLOAD PUSH1 0x1 PUSH1 0x1 PUSH1 0xA0 SHL SUB AND ISZERO ISZERO SWAP1 POP DUP13 PUSH2 0x491 JUMP JUMPDEST DUP4 MLOAD PUSH3 0x461BCD PUSH1 0xE5 SHL DUP2 MSTORE PUSH1 0x20 DUP2 DUP5 ADD MSTORE PUSH1 0x1D PUSH1 0x24 DUP3 ADD MSTORE PUSH32 0x416D6F756E74206D7573742062652067726561746572207468616E2030000000 PUSH1 0x44 DUP3 ADD MSTORE PUSH1 0x64 SWAP1 REVERT JUMPDEST POP DUP3 MLOAD PUSH4 0xD93C0665 PUSH1 0xE0 SHL DUP2 MSTORE REVERT JUMPDEST POP DUP3 MLOAD PUSH4 0x3EE5AEB5 PUSH1 0xE0 SHL DUP2 MSTORE REVERT JUMPDEST POP CALLVALUE PUSH2 0x149 JUMPI DUP2 PUSH1 0x3 NOT CALLDATASIZE ADD SLT PUSH2 0x149 JUMPI PUSH1 0x20 SWAP1 PUSH1 0xFF PUSH1 0x1 SLOAD AND SWAP1 MLOAD SWAP1 ISZERO ISZERO DUP2 MSTORE RETURN JUMPDEST PUSH2 0x5CC JUMP JUMPDEST POP CALLVALUE PUSH2 0x149 JUMPI DUP2 PUSH1 0x3 NOT CALLDATASIZE ADD SLT PUSH2 0x149 JUMPI PUSH1 0x2 SLOAD SWAP1 MLOAD PUSH1 0x1 PUSH1 0x1 PUSH1 0xA0 SHL SUB SWAP1 SWAP2 AND DUP2 MSTORE PUSH1 0x20 SWAP1 RETURN JUMPDEST POP CALLVALUE PUSH2 0x149 JUMPI DUP2 PUSH1 0x3 NOT CALLDATASIZE ADD SLT PUSH2 0x149 JUMPI DUP1 PUSH1 0xA PUSH1 0xC0 SWAP3 MLOAD SWAP2 PUSH1 0x14 DUP4 MSTORE PUSH1 0x14 PUSH1 0x20 DUP5 ADD MSTORE DUP3 ADD MSTORE PUSH1 0x14 PUSH1 0x60 DUP3 ADD MSTORE PUSH1 0x14 PUSH1 0x80 DUP3 ADD MSTORE PUSH1 0xA PUSH1 0xA0 DUP3 ADD MSTORE RETURN JUMPDEST CALLVALUE PUSH2 0x5E8 JUMPI PUSH1 0x0 CALLDATASIZE PUSH1 0x3 NOT ADD SLT PUSH2 0x5E8 JUMPI PUSH1 0x20 PUSH1 0x40 MLOAD PUSH1 0x46 DUP2 MSTORE RETURN JUMPDEST PUSH1 0x0 DUP1 REVERT JUMPDEST PUSH1 0x4 CALLDATALOAD SWAP1 PUSH1 0x1 PUSH1 0x1 PUSH1 0xA0 SHL SUB DUP3 AND DUP3 SUB PUSH2 0x5E8 JUMPI JUMP JUMPDEST PUSH1 0x40 SWAP1 PUSH1 0x3 NOT ADD SLT PUSH2 0x5E8 JUMPI PUSH1 0x4 CALLDATALOAD SWAP1 PUSH1 0x24 CALLDATALOAD SWAP1 JUMP JUMPDEST CALLVALUE PUSH2 0x5E8 JUMPI PUSH1 0x0 CALLDATASIZE PUSH1 0x3 NOT ADD SLT PUSH2 0x5E8 JUMPI PUSH1 0x20 PUSH1 0x40 MLOAD PUSH1 0x8C DUP2 MSTORE RETURN JUMPDEST SWAP1 PUSH1 0x8C DUP3 MUL SWAP2 DUP1 DUP4 DIV PUSH1 0x8C EQ SWAP1 ISZERO OR ISZERO PUSH2 0x64B JUMPI JUMP JUMPDEST PUSH4 0x4E487B71 PUSH1 0xE0 SHL PUSH1 0x0 MSTORE PUSH1 0x11 PUSH1 0x4 MSTORE PUSH1 0x24 PUSH1 0x0 REVERT JUMPDEST SWAP1 PUSH1 0x46 DUP3 MUL SWAP2 DUP1 DUP4 DIV PUSH1 0x46 EQ SWAP1 ISZERO OR ISZERO PUSH2 0x64B JUMPI JUMP JUMPDEST SWAP1 PUSH1 0x1F DUP1 NOT SWAP2 ADD AND DUP2 ADD SWAP1 DUP2 LT PUSH8 0xFFFFFFFFFFFFFFFF DUP3 GT OR PUSH2 0x699 JUMPI PUSH1 0x40 MSTORE JUMP JUMPDEST PUSH4 0x4E487B71 PUSH1 0xE0 SHL PUSH1 0x0 MSTORE PUSH1 0x41 PUSH1 0x4 MSTORE PUSH1 0x24 PUSH1 0x0 REVERT JUMPDEST PUSH1 0x1 DUP1 PUSH1 0xA0 SHL SUB SWAP1 PUSH1 0x4 DUP3 DUP2 SLOAD AND PUSH1 0x40 DUP1 MLOAD SWAP4 DUP5 SWAP3 PUSH4 0x144613FF PUSH1 0xE3 SHL DUP5 MSTORE DUP4 DUP6 PUSH1 0x20 SWAP6 DUP7 SWAP4 GAS STATICCALL SWAP5 DUP6 ISZERO PUSH2 0x88E JUMPI PUSH1 0x0 SWAP6 PUSH2 0x85F JUMPI JUMPDEST POP DUP5 ISZERO PUSH2 0x857 JUMPI DUP5 SWAP1 DIV PUSH1 0x1 SWAP6 DUP7 JUMPDEST DUP7 DUP2 GT ISZERO PUSH2 0x707 JUMPI POP POP POP POP POP POP POP POP JUMP JUMPDEST DUP5 DUP3 DUP8 SLOAD AND DUP6 MLOAD SWAP2 DUP3 DUP1 SWAP3 PUSH4 0x31A9108F PUSH1 0xE1 SHL DUP3 MSTORE DUP6 DUP12 DUP4 ADD MSTORE PUSH1 0x24 SWAP4 DUP5 SWAP2 GAS STATICCALL PUSH1 0x0 SWAP3 DUP2 PUSH2 0x81D JUMPI JUMPDEST POP PUSH2 0x75E JUMPI JUMPDEST POP POP PUSH1 0x0 NOT DUP2 EQ PUSH2 0x749 JUMPI DUP8 ADD PUSH2 0x6F5 JUMP JUMPDEST PUSH1 0x11 DUP7 PUSH4 0x4E487B71 PUSH1 0xE0 SHL PUSH1 0x0 MSTORE MSTORE PUSH1 0x24 PUSH1 0x0 REVERT JUMPDEST DUP5 DUP5 DUP4 AND SWAP3 DUP4 ISZERO ISZERO DUP1 PUSH2 0x814 JUMPI JUMPDEST PUSH2 0x778 JUMPI JUMPDEST POP POP PUSH2 0x737 JUMP JUMPDEST PUSH1 0x0 DUP1 DUP1 SWAP4 DUP2 SWAP4 GAS CALL SWAP1 RETURNDATASIZE ISZERO PUSH2 0x80E JUMPI RETURNDATASIZE SWAP1 PUSH8 0xFFFFFFFFFFFFFFFF DUP3 GT PUSH2 0x7FB JUMPI POP DUP7 MLOAD SWAP1 PUSH2 0x7B0 PUSH1 0x1F DUP3 ADD PUSH1 0x1F NOT AND DUP11 ADD DUP4 PUSH2 0x677 JUMP JUMPDEST DUP2 MSTORE PUSH1 0x0 DUP9 RETURNDATASIZE SWAP3 ADD RETURNDATACOPY JUMPDEST PUSH2 0x7C7 JUMPI JUMPDEST DUP1 DUP5 DUP2 PUSH2 0x771 JUMP JUMPDEST PUSH32 0x682E67F2362BB04B61E784C278B2E6FAC980CBEC16EFEBC73594926E0E7CC358 DUP6 DUP1 MLOAD DUP7 DUP2 MSTORE PUSH1 0x0 DUP10 DUP3 ADD MSTORE LOG2 CODESIZE PUSH2 0x7BF JUMP JUMPDEST PUSH4 0x4E487B71 PUSH1 0xE0 SHL PUSH1 0x0 SWAP1 DUP2 MSTORE PUSH1 0x41 DUP12 MSTORE REVERT JUMPDEST POP PUSH2 0x7BA JUMP JUMPDEST POP DUP2 ISZERO ISZERO PUSH2 0x76C JUMP JUMPDEST DUP9 DUP2 DUP2 SWAP6 SWAP4 SWAP6 RETURNDATASIZE DUP4 GT PUSH2 0x850 JUMPI JUMPDEST PUSH2 0x835 DUP2 DUP4 PUSH2 0x677 JUMP JUMPDEST DUP2 ADD SUB SLT PUSH2 0x149 JUMPI MLOAD SWAP1 DUP6 DUP3 AND DUP3 SUB PUSH2 0x238 JUMPI POP SWAP2 CODESIZE PUSH2 0x731 JUMP JUMPDEST POP RETURNDATASIZE PUSH2 0x82B JUMP JUMPDEST POP POP POP POP POP POP JUMP JUMPDEST SWAP1 SWAP5 DUP4 DUP3 DUP2 RETURNDATASIZE DUP4 GT PUSH2 0x887 JUMPI JUMPDEST PUSH2 0x876 DUP2 DUP4 PUSH2 0x677 JUMP JUMPDEST DUP2 ADD SUB SLT PUSH2 0x238 JUMPI POP MLOAD SWAP4 CODESIZE PUSH2 0x6E6 JUMP JUMPDEST POP RETURNDATASIZE PUSH2 0x86C JUMP JUMPDEST DUP3 MLOAD RETURNDATASIZE PUSH1 0x0 DUP3 RETURNDATACOPY RETURNDATASIZE SWAP1 REVERT INVALID LOG2 PUSH5 0x6970667358 0x22 SLT KECCAK256 EXP 0xE3 STOP DUP6 0x4E LOG2 PUSH2 0x7A46 0xDF STOP 0xB1 PUSH6 0x8CBD77CFEB87 0x4A 0x24 0xE2 0xD6 RETURNDATACOPY 0xE2 DUP3 0x4F CALL 0x5C SWAP13 0xD4 DUP10 PUSH5 0x736F6C6343 STOP ADDMOD EQ STOP CALLER "},"methodIdentifiers":{"BITTENSOR_POOL_SHARE()":"1083b076","BUILDER_POOL_SHARE()":"f1c7000b","CREATOR_SHARE()":"cc0c3039","GENESIS_SHARE()":"edb9821e","NODE_SHARE()":"2ffb61fb","ORACLE_SHARE()":"90174c06","TOTAL_FEE()":"63db7eae","activeNodes(uint256)":"96f9d983","bittensorRewardPool()":"de50b595","builderRewardPool()":"2cd4e6b6","calculateGenesisEarnings(uint256,uint256)":"dbe5acf3","distributeFees(uint256)":"6029bf9f","genesisNFT()":"8dd4916b","getFeeBreakdown()":"16e2fc1d","marketOracles(uint256,uint256)":"77cd91bf","marketPayouts(uint256,uint256)":"81cdf676","nodeRewards(address)":"770ce3d8","oracleContributions(uint256,address)":"de6360bc","paused()":"5c975abb","predictionMarket()":"def114b6","unclaimedRewards(address)":"949813b8"}}}}}