{"contracts/src/ClockchainOracle.sol":{"ClockchainOracle":{"abi":[{"inputs":[{"internalType":"address payable","name":"_predictionMarket","type":"address"}],"stateMutability":"nonpayable","type":"constructor"},{"inputs":[],"name":"AccessControlBadConfirmation","type":"error"},{"inputs":[{"internalType":"address","name":"account","type":"address"},{"internalType":"bytes32","name":"neededRole","type":"bytes32"}],"name":"AccessControlUnauthorizedAccount","type":"error"},{"inputs":[],"name":"ReentrancyGuardReentrantCall","type":"error"},{"anonymous":false,"inputs":[{"indexed":true,"internalType":"uint256","name":"marketId","type":"uint256"},{"indexed":false,"internalType":"uint256","name":"winningSubmissionId","type":"uint256"}],"name":"MarketResolved","type":"event"},{"anonymous":false,"inputs":[{"indexed":true,"internalType":"uint256","name":"submissionId","type":"uint256"},{"indexed":true,"internalType":"uint256","name":"marketId","type":"uint256"},{"indexed":true,"internalType":"address","name":"oracle","type":"address"}],"name":"OracleSubmissionCreated","type":"event"},{"anonymous":false,"inputs":[{"indexed":true,"internalType":"uint256","name":"submissionId","type":"uint256"},{"indexed":true,"internalType":"address","name":"voter","type":"address"},{"indexed":false,"internalType":"bool","name":"support","type":"bool"}],"name":"OracleVoteCast","type":"event"},{"anonymous":false,"inputs":[{"indexed":true,"internalType":"bytes32","name":"role","type":"bytes32"},{"indexed":true,"internalType":"bytes32","name":"previousAdminRole","type":"bytes32"},{"indexed":true,"internalType":"bytes32","name":"newAdminRole","type":"bytes32"}],"name":"RoleAdminChanged","type":"event"},{"anonymous":false,"inputs":[{"indexed":true,"internalType":"bytes32","name":"role","type":"bytes32"},{"indexed":true,"internalType":"address","name":"account","type":"address"},{"indexed":true,"internalType":"address","name":"sender","type":"address"}],"name":"RoleGranted","type":"event"},{"anonymous":false,"inputs":[{"indexed":true,"internalType":"bytes32","name":"role","type":"bytes32"},{"indexed":true,"internalType":"address","name":"account","type":"address"},{"indexed":true,"internalType":"address","name":"sender","type":"address"}],"name":"RoleRevoked","type":"event"},{"anonymous":false,"inputs":[{"indexed":true,"internalType":"uint256","name":"submissionId","type":"uint256"},{"indexed":false,"internalType":"bytes32","name":"screenshotHash","type":"bytes32"}],"name":"ScreenshotStored","type":"event"},{"inputs":[],"name":"ADMIN_ROLE","outputs":[{"internalType":"bytes32","name":"","type":"bytes32"}],"stateMutability":"view","type":"function"},{"inputs":[],"name":"DEFAULT_ADMIN_ROLE","outputs":[{"internalType":"bytes32","name":"","type":"bytes32"}],"stateMutability":"view","type":"function"},{"inputs":[],"name":"ORACLE_ROLE","outputs":[{"internalType":"bytes32","name":"","type":"bytes32"}],"stateMutability":"view","type":"function"},{"inputs":[{"internalType":"address","name":"_oracle","type":"address"}],"name":"addOracle","outputs":[],"stateMutability":"nonpayable","type":"function"},{"inputs":[{"internalType":"string","name":"_s1","type":"string"},{"internalType":"string","name":"_s2","type":"string"}],"name":"calculateLevenshteinDistance","outputs":[{"internalType":"uint256","name":"","type":"uint256"}],"stateMutability":"pure","type":"function"},{"inputs":[],"name":"consensusThreshold","outputs":[{"internalType":"uint256","name":"","type":"uint256"}],"stateMutability":"view","type":"function"},{"inputs":[{"internalType":"uint256","name":"_marketId","type":"uint256"}],"name":"getMarketOracleSubmissions","outputs":[{"internalType":"uint256[]","name":"","type":"uint256[]"}],"stateMutability":"view","type":"function"},{"inputs":[{"internalType":"bytes32","name":"role","type":"bytes32"}],"name":"getRoleAdmin","outputs":[{"internalType":"bytes32","name":"","type":"bytes32"}],"stateMutability":"view","type":"function"},{"inputs":[{"internalType":"bytes32","name":"role","type":"bytes32"},{"internalType":"address","name":"account","type":"address"}],"name":"grantRole","outputs":[],"stateMutability":"nonpayable","type":"function"},{"inputs":[{"internalType":"bytes32","name":"role","type":"bytes32"},{"internalType":"address","name":"account","type":"address"}],"name":"hasRole","outputs":[{"internalType":"bool","name":"","type":"bool"}],"stateMutability":"view","type":"function"},{"inputs":[{"internalType":"uint256","name":"","type":"uint256"},{"internalType":"uint256","name":"","type":"uint256"}],"name":"marketOracleSubmissions","outputs":[{"internalType":"uint256","name":"","type":"uint256"}],"stateMutability":"view","type":"function"},{"inputs":[{"internalType":"uint256","name":"","type":"uint256"}],"name":"marketResolutions","outputs":[{"internalType":"uint256","name":"marketId","type":"uint256"},{"internalType":"uint256","name":"winningSubmissionId","type":"uint256"},{"internalType":"bool","name":"resolved","type":"bool"},{"internalType":"uint256","name":"timestamp","type":"uint256"}],"stateMutability":"view","type":"function"},{"inputs":[],"name":"minimumOracles","outputs":[{"internalType":"uint256","name":"","type":"uint256"}],"stateMutability":"view","type":"function"},{"inputs":[{"internalType":"address","name":"","type":"address"}],"name":"oracleReputation","outputs":[{"internalType":"uint256","name":"","type":"uint256"}],"stateMutability":"view","type":"function"},{"inputs":[{"internalType":"uint256","name":"","type":"uint256"}],"name":"oracleSubmissions","outputs":[{"internalType":"uint256","name":"marketId","type":"uint256"},{"internalType":"address","name":"oracle","type":"address"},{"internalType":"string","name":"actualText","type":"string"},{"internalType":"string","name":"tweetId","type":"string"},{"internalType":"string","name":"screenshotBase64","type":"string"},{"internalType":"uint256","name":"timestamp","type":"uint256"},{"internalType":"uint256","name":"votesFor","type":"uint256"},{"internalType":"uint256","name":"votesAgainst","type":"uint256"},{"internalType":"bool","name":"verified","type":"bool"}],"stateMutability":"view","type":"function"},{"inputs":[],"name":"predictionMarket","outputs":[{"internalType":"contract PredictionMarket","name":"","type":"address"}],"stateMutability":"view","type":"function"},{"inputs":[{"internalType":"address","name":"_oracle","type":"address"}],"name":"removeOracle","outputs":[],"stateMutability":"nonpayable","type":"function"},{"inputs":[{"internalType":"bytes32","name":"role","type":"bytes32"},{"internalType":"address","name":"callerConfirmation","type":"address"}],"name":"renounceRole","outputs":[],"stateMutability":"nonpayable","type":"function"},{"inputs":[{"internalType":"bytes32","name":"role","type":"bytes32"},{"internalType":"address","name":"account","type":"address"}],"name":"revokeRole","outputs":[],"stateMutability":"nonpayable","type":"function"},{"inputs":[],"name":"submissionCount","outputs":[{"internalType":"uint256","name":"","type":"uint256"}],"stateMutability":"view","type":"function"},{"inputs":[],"name":"submissionWindow","outputs":[{"internalType":"uint256","name":"","type":"uint256"}],"stateMutability":"view","type":"function"},{"inputs":[{"internalType":"uint256","name":"_marketId","type":"uint256"},{"internalType":"string","name":"_actualText","type":"string"},{"internalType":"string","name":"_tweetId","type":"string"},{"internalType":"string","name":"_screenshotBase64","type":"string"}],"name":"submitOracleData","outputs":[{"internalType":"uint256","name":"","type":"uint256"}],"stateMutability":"nonpayable","type":"function"},{"inputs":[{"internalType":"bytes4","name":"interfaceId","type":"bytes4"}],"name":"supportsInterface","outputs":[{"internalType":"bool","name":"","type":"bool"}],"stateMutability":"view","type":"function"},{"inputs":[{"internalType":"uint256","name":"_minimumOracles","type":"uint256"},{"internalType":"uint256","name":"_consensusThreshold","type":"uint256"},{"internalType":"uint256","name":"_submissionWindow","type":"uint256"}],"name":"updateConsensusParameters","outputs":[],"stateMutability":"nonpayable","type":"function"},{"inputs":[{"internalType":"uint256","name":"_submissionId","type":"uint256"},{"internalType":"bool","name":"_support","type":"bool"}],"name":"voteOnSubmission","outputs":[],"stateMutability":"nonpayable","type":"function"}],"evm":{"bytecode":{"linkReferences":{},"object":"608034620000a657601f62001e8138819003918201601f19168301916001600160401b03831184841017620000ab57808492602094604052833981010312620000a657516001600160a01b03811690819003620000a6576001805560036004556042600555611c20600655600280546001600160a01b0319169190911790556200008933620000c1565b50620000953362000141565b50604051611c7d9081620001e48239f35b600080fd5b634e487b7160e01b600052604160045260246000fd5b6001600160a01b031660008181527fad3228b676f7d3cd4284a5443f17f1962b36e491b30a40b2405849e597ba5fb5602052604081205490919060ff166200013d57818052816020526040822081835260205260408220600160ff19825416179055339160008051602062001e618339815191528180a4600190565b5090565b6001600160a01b031660008181527f7d7ffb7a348e1c6a02869081a26547b49160dd3df72d1d75a570eb9b698292ec60205260408120549091907fa49807205ce4d355092ef5a8a18f56e8913cf4a201fbe287825b095693c217759060ff16620001de57808352826020526040832082845260205260408320600160ff1982541617905560008051602062001e61833981519152339380a4600190565b50509056fe608080604052600436101561001357600080fd5b60003560e01c90816301ffc9a7146114445750806307e2cea51461141b578063248a9ca3146113ec5780632f2ff15d146113ad57806336568abe146113665780634249d3ba14610e025780635402656814610dbb5780635c8de39e14610d9d57806360d10f38146106be5780636ec02be9146106a05780637160552a146105ce57806374bfa42f1461059457806375b238fc1461055957806383907ce81461050657806391d14854146104b9578063a217fddf1461049d578063a8ecc0bd1461043d578063b613505014610397578063d547741f14610358578063def114b61461032f578063df5dd1a514610272578063df6091a314610213578063e621dbc7146101f5578063f9b0b5b9146101d75763fdc85fc41461013257600080fd5b346101d25760203660031901126101d2576101d061014e6114ad565b3360009081527f7d7ffb7a348e1c6a02869081a26547b49160dd3df72d1d75a570eb9b698292ec60205260409020546101899060ff16611be2565b600080516020611c2883398151915260009081526020527fa629f6981c2f6895a67dc766e8e03ff72d04a413d0d8773a3ca56e9e474032c2546101cb9061169e565b6117fb565b005b600080fd5b346101d25760003660031901126101d2576020600554604051908152f35b346101d25760003660031901126101d2576020600654604051908152f35b346101d25760403660031901126101d25767ffffffffffffffff6004358181116101d25761024590369060040161152f565b906024359081116101d25760209161026461026a92369060040161152f565b90611a5d565b604051908152f35b346101d25760203660031901126101d25761028b6114ad565b3360009081527f7d7ffb7a348e1c6a02869081a26547b49160dd3df72d1d75a570eb9b698292ec60205260409020546102c69060ff16611be2565b600080516020611c2883398151915260009081526020527fa629f6981c2f6895a67dc766e8e03ff72d04a413d0d8773a3ca56e9e474032c2546103089061169e565b610311816116e2565b506001600160a01b03166000908152600a6020526040902060649055005b346101d25760003660031901126101d2576002546040516001600160a01b039091168152602090f35b346101d25760403660031901126101d2576101d0600435610377611497565b9080600052600060205261039260016040600020015461169e565b611894565b346101d2576020806003193601126101d25760043560005260098152604060002060405190818382549182815201908192600052846000209060005b868282106104295786866103e9828803836114f1565b604051928392818401908285525180915260408401929160005b82811061041257505050500390f35b835185528695509381019392810192600101610403565b8354855290930192600192830192016103d3565b346101d25760603660031901126101d2573360009081527f7d7ffb7a348e1c6a02869081a26547b49160dd3df72d1d75a570eb9b698292ec60205260409020546104899060ff16611be2565b600480359055602435600555604435600655005b346101d25760003660031901126101d257602060405160008152f35b346101d25760403660031901126101d2576104d2611497565b600435600052600060205260406000209060018060a01b0316600052602052602060ff604060002054166040519015158152f35b346101d25760203660031901126101d257600435600052600860205260806040600020805490600181015490600460ff600383015416910154916040519384526020840152151560408301526060820152f35b346101d25760003660031901126101d25760206040517fa49807205ce4d355092ef5a8a18f56e8913cf4a201fbe287825b095693c217758152f35b346101d25760203660031901126101d2576001600160a01b036105b56114ad565b16600052600a6020526020604060002054604051908152f35b346101d25760203660031901126101d2576004356000908152600760205260409020805460018201546001600160a01b03169161060d600282016115b0565b610619600383016115b0565b91610626600482016115b0565b9261068460058301549461067660068501549361066860ff6008600789015498015416976040519b8c9b8c5260208c01526101208060408d01528b0190611679565b9089820360608b0152611679565b908782036080890152611679565b9360a086015260c085015260e084015215156101008301520390f35b346101d25760003660031901126101d2576020600354604051908152f35b346101d25760803660031901126101d25767ffffffffffffffff602460043581358381116101d2576106f490369060040161152f565b916044358481116101d25761070d90369060040161152f565b936064358181116101d25761072690369060040161152f565b91600080516020611c2883398151915260005260209560008752604060002033600052875261075c60ff60406000205416611909565b60025460405163b1283e7760e01b815260048101879052906000908290859082906001600160a01b03165afa908115610d915760008091600093610cf2575b50804210610cae576006546107af916119bb565b4211610c6a57610c265715610bd7576003928354966107cd886119c8565b85558760005260078952604060002091878355600193848401336bffffffffffffffffffffffff60a01b825416179055600284018351838111610b2457808d6108168454611576565b96601f97888111610ba9575b5081888411600114610b445750600092610b39575b5050600019828b1b1c191690871b1790555b805184880191838211610b24578c82916108638554611576565b878111610af6575b5081878411600114610a915750600092610a86575b5050600019828a1b1c191690861b1790555b60048301918751918211610a715781906108ac8454611576565b8c828211610a38575b50508b9082116001146109d7576000916109cc575b5060001982881b1c191690841b1790555b426005820155816006820155600060078201556009600882019160ff199283815416905533600052018852816040600020918254161790558460005260098752604060002090815492600160401b8410156109b8575092610966837fc30d3ad6f05aaa235b41df783d8544179bea684ea7c954db901ca7f62f01253396938a968a99960181556114c3565b81929154911b9087821b91600019901b1916179055604051913390867fda485f99b3f07e05497aef9217a3b8dc611a4263fddb349f6a31976203280d09600080a48281519101208152a2604051908152f35b634e487b7160e01b60009081526041600452fd5b90508701518b6108ca565b60008481528c81208794509190601f198416908e5b8c838310610a22575050508311610a0a575b5050811b0190556108db565b890151600019838a1b60f8161c191690558b806109fe565b840151855589969094019392830192018e6109ec565b610a61918660005283826000209181870160051c8301938710610a68575b0160051c01906119d7565b8c8c6108b5565b92508192610a56565b85634e487b7160e01b60005260416004526000fd5b015190508d80610880565b9190899450601f1984168660005283600020936000905b828210610add5750508411610ac5575b505050811b019055610892565b0151600019838c1b60f8161c191690558d8080610ab8565b8484015186558c97909501949384019390810190610aa8565b610b1e9086600052836000208980870160051c820192868810610a68570160051c01906119d7565b8f61086b565b87634e487b7160e01b60005260416004526000fd5b015190508e80610837565b91908a9450601f1984168660005283600020936000905b828210610b905750508411610b78575b505050811b019055610849565b0151600019838d1b60f8161c191690558e8080610b6b565b8484015186558d97909501949384019390810190610b5b565b610bd19086600052836000208a80870160051c820192868810610a68570160051c01906119d7565b38610822565b60405162461bcd60e51b8152600481018890526022818401527f4d61726b657420726571756972657320582e636f6d207665726966696361746960448201526137b760f11b6064820152608490fd5b60405162461bcd60e51b8152600481018990526017818501527f4d61726b657420616c7265616479207265736f6c7665640000000000000000006044820152606490fd5b60405162461bcd60e51b8152600481018a9052601f818601527f4f7261636c65207375626d697373696f6e2077696e646f7720636c6f736564006044820152606490fd5b60405162461bcd60e51b8152600481018b90526018818701527f4d61726b657420686173206e6f7420656e6465642079657400000000000000006044820152606490fd5b925050503d806000833e610d0681836114f1565b810190610160818303126101d25780518581116101d25782610d29918301611955565b50610d3589820161199a565b50606081015190610d48608082016119ae565b9260e08201518781116101d25781610d61918401611955565b50610100820151918783116101d257610d8261012092610d89948301611955565b50016119ae565b91908a61079b565b6040513d6000823e3d90fd5b346101d25760003660031901126101d2576020600454604051908152f35b346101d25760403660031901126101d2576024356004356000526009602052604060002080548210156101d257602091610df4916114c3565b90546040519160031b1c8152f35b346101d25760403660031901126101d257600435602435801515908181036101d2573360009081527fa629f6981c2f6895a67dc766e8e03ff72d04a413d0d8773a3ca56e9e474032c16020526040902054610e5f9060ff16611909565b8260005260076020526040600020916009830191336000528260205260ff6040600020541661133157600884019260ff8454166112ec57336000526020526040600020600160ff198254161790556000146112d75760068301610ec281546119c8565b90555b604051908152837fb763457308821bd5ae18e4bfa8a065b9d24fa270bbf3d42c64ff2a18ad5889d160203393a36006820154610f056007840154826119bb565b906004548210159182611297575b5050610f1b57005b805460ff19166001179055546000918252600760205260408083206002549151632417667f60e21b815260048101849052939092916001600160a01b03169084602481845afa938415610d9157600094611203575b5060009260001992845b865181101561107657610f8d8188611a38565b51604051906356b99a4f60e11b82526004820152600081602481885afa8015610d9157600090610ffa575b610fc99150610264600286016115b0565b858110610fe0575b50610fdb906119c8565b610f7a565b9095509350610fdb610ff28688611a38565b519590610fd1565b503d806000833e61100b81836114f1565b8101610120828203126101d2576110246020830161199a565b5060408201519167ffffffffffffffff928381116101d25782611048918301611955565b9161105560c083016119ae565b5060e08201519384116101d257610fc9936110709201611955565b50610fb8565b509392509350506040516020810167ffffffffffffffff90828110828211176111ed57604052600082526040519160a08301838110838211176111ed57604052848352602083019184835260408401918252606084019160018352608085019342855287600052600860205260406000209551865551600186015560028501905180519283116111ed57600160401b83116111ed5760209082548484558085106111d0575b500190600052602060002060005b8381106111bc57505050509160047f6dfc24f0f2fb42e49fb4fa3ffa8abb148cab908a1fb8335b3f128a08b2594af19492602094600384019051151560ff8019835416911617905551910155604051908152a26001808060a01b0391015416600052600a6020526040600020805490600a82018092116111a65755005b634e487b7160e01b600052601160045260246000fd5b600190602084519401938184015501611129565b6111e79084600052858460002091820191016119d7565b8a61111b565b634e487b7160e01b600052604160045260246000fd5b9093503d806000833e61121681836114f1565b8101906020818303126101d25780519067ffffffffffffffff82116101d257019080601f830112156101d257815161124d816119ee565b9261125b60405194856114f1565b81845260208085019260051b8201019283116101d257602001905b828210611287575050509284610f70565b8151815260209182019101611276565b9091506064820291808304606414901517156111a65780156112c157600554910410158480610f13565b634e487b7160e01b600052601260045260246000fd5b600783016112e581546119c8565b9055610ec5565b60405162461bcd60e51b815260206004820152601b60248201527f5375626d697373696f6e20616c726561647920766572696669656400000000006044820152606490fd5b60405162461bcd60e51b815260206004820152600d60248201526c105b1c9958591e481d9bdd1959609a1b6044820152606490fd5b346101d25760403660031901126101d25761137f611497565b336001600160a01b0382160361139b576101d090600435611894565b60405163334bd91960e11b8152600490fd5b346101d25760403660031901126101d2576101d06004356113cc611497565b908060005260006020526113e760016040600020015461169e565b611782565b346101d25760203660031901126101d25760043560005260006020526020600160406000200154604051908152f35b346101d25760003660031901126101d2576020604051600080516020611c288339815191528152f35b346101d25760203660031901126101d2576004359063ffffffff60e01b82168092036101d257602091637965db0b60e01b8114908115611486575b5015158152f35b6301ffc9a760e01b1490508361147f565b602435906001600160a01b03821682036101d257565b600435906001600160a01b03821682036101d257565b80548210156114db5760005260206000200190600090565b634e487b7160e01b600052603260045260246000fd5b90601f8019910116810190811067ffffffffffffffff8211176111ed57604052565b67ffffffffffffffff81116111ed57601f01601f191660200190565b81601f820112156101d25780359061154682611513565b9261155460405194856114f1565b828452602083830101116101d257816000926020809301838601378301015290565b90600182811c921680156115a6575b602083101461159057565b634e487b7160e01b600052602260045260246000fd5b91607f1691611585565b90604051918260008254926115c484611576565b90818452600194858116908160001461163357506001146115f0575b50506115ee925003836114f1565b565b9093915060005260209081600020936000915b81831061161b5750506115ee935082010138806115e0565b85548884018501529485019487945091830191611603565b9150506115ee94506020925060ff191682840152151560051b82010138806115e0565b60005b8381106116695750506000910152565b8181015183820152602001611659565b9060209161169281518092818552858086019101611656565b601f01601f1916010190565b80600052600060205260406000203360005260205260ff60406000205416156116c45750565b6044906040519063e2517d3f60e01b82523360048301526024820152fd5b6001600160a01b031660008181527fa629f6981c2f6895a67dc766e8e03ff72d04a413d0d8773a3ca56e9e474032c16020526040812054909190600080516020611c288339815191529060ff1661177d57808352826020526040832082845260205260408320600160ff198254161790557f2f8788117e7eff1d82e926ec794901d17c78024a50270940304540a733656f0d339380a4600190565b505090565b9060009180835282602052604083209160018060a01b03169182845260205260ff6040842054161560001461177d57808352826020526040832082845260205260408320600160ff198254161790557f2f8788117e7eff1d82e926ec794901d17c78024a50270940304540a733656f0d339380a4600190565b6001600160a01b031660008181527fa629f6981c2f6895a67dc766e8e03ff72d04a413d0d8773a3ca56e9e474032c16020526040812054909190600080516020611c288339815191529060ff161561177d5780835282602052604083208284526020526040832060ff1981541690557ff6391f5c32d9c69d2a47ea670b442974b53935d1edc7fd64eb21e047a839171b339380a4600190565b9060009180835282602052604083209160018060a01b03169182845260205260ff60408420541660001461177d5780835282602052604083208284526020526040832060ff1981541690557ff6391f5c32d9c69d2a47ea670b442974b53935d1edc7fd64eb21e047a839171b339380a4600190565b1561191057565b60405162461bcd60e51b815260206004820152601760248201527f43616c6c6572206973206e6f7420616e206f7261636c650000000000000000006044820152606490fd5b81601f820112156101d257805161196b81611513565b9261197960405194856114f1565b818452602082840101116101d2576119979160208085019101611656565b90565b51906001600160a01b03821682036101d257565b519081151582036101d257565b919082018092116111a657565b60001981146111a65760010190565b8181106119e2575050565b600081556001016119d7565b67ffffffffffffffff81116111ed5760051b60200190565b90611a10826119ee565b611a1d60405191826114f1565b8281528092611a2e601f19916119ee565b0190602036910137565b80518210156114db5760209160051b010190565b9081518110156114db570160200190565b91909180518351918115611bdb578215611bd5576001808401958685116111a657611a93611a8d88959498611a06565b94611a06565b9660005b86811115611bba575082975b84891115611abf575050505050611abb929350611a38565b5190565b8095949551156114db57886020820152835b87811115611aec5750611ae490986119c8565b979493611aa3565b6000198a810191908b83116111a6576001600160f81b0319928390611b119087611a4c565b5116908201928284116111a657611b288488611a4c565b511603611bb45760005b611b3c8385611a38565b51928784018094116111a657611b52838a611a38565b51908882018092116111a657611b8060ff611ba096611b8694808210600014611bac5750945b16918b611a38565b516119bb565b80821015611ba557505b611b9a8285611a38565b526119c8565b611ad1565b9050611b90565b905094611b78565b85611b32565b8080611b9a611bcc93899c9899611a38565b97949397611a97565b50925050565b5090925050565b15611be957565b60405162461bcd60e51b815260206004820152601660248201527521b0b63632b91034b9903737ba1030b71030b236b4b760511b6044820152606490fdfe68e79a7bf1e0bc45d0a330c573bc367f9cf464fd326078812f301165fbda4ef1a26469706673582212206f29cfb549da95997e68e406ab625c8d690b1460d015e6124d3a0bc619dbcbc464736f6c634300081400332f8788117e7eff1d82e926ec794901d17c78024a50270940304540a733656f0d","opcodes":"PUSH1 0x80 CALLVALUE PUSH3 0xA6 JUMPI PUSH1 0x1F PUSH3 0x1E81 CODESIZE DUP2 SWAP1 SUB SWAP2 DUP3 ADD PUSH1 0x1F NOT AND DUP4 ADD SWAP2 PUSH1 0x1 PUSH1 0x1 PUSH1 0x40 SHL SUB DUP4 GT DUP5 DUP5 LT OR PUSH3 0xAB JUMPI DUP1 DUP5 SWAP3 PUSH1 0x20 SWAP5 PUSH1 0x40 MSTORE DUP4 CODECOPY DUP2 ADD SUB SLT PUSH3 0xA6 JUMPI MLOAD PUSH1 0x1 PUSH1 0x1 PUSH1 0xA0 SHL SUB DUP2 AND SWAP1 DUP2 SWAP1 SUB PUSH3 0xA6 JUMPI PUSH1 0x1 DUP1 SSTORE PUSH1 0x3 PUSH1 0x4 SSTORE PUSH1 0x42 PUSH1 0x5 SSTORE PUSH2 0x1C20 PUSH1 0x6 SSTORE PUSH1 0x2 DUP1 SLOAD PUSH1 0x1 PUSH1 0x1 PUSH1 0xA0 SHL SUB NOT AND SWAP2 SWAP1 SWAP2 OR SWAP1 SSTORE PUSH3 0x89 CALLER PUSH3 0xC1 JUMP JUMPDEST POP PUSH3 0x95 CALLER PUSH3 0x141 JUMP JUMPDEST POP PUSH1 0x40 MLOAD PUSH2 0x1C7D SWAP1 DUP2 PUSH3 0x1E4 DUP3 CODECOPY RETURN JUMPDEST PUSH1 0x0 DUP1 REVERT JUMPDEST PUSH4 0x4E487B71 PUSH1 0xE0 SHL PUSH1 0x0 MSTORE PUSH1 0x41 PUSH1 0x4 MSTORE PUSH1 0x24 PUSH1 0x0 REVERT JUMPDEST PUSH1 0x1 PUSH1 0x1 PUSH1 0xA0 SHL SUB AND PUSH1 0x0 DUP2 DUP2 MSTORE PUSH32 0xAD3228B676F7D3CD4284A5443F17F1962B36E491B30A40B2405849E597BA5FB5 PUSH1 0x20 MSTORE PUSH1 0x40 DUP2 KECCAK256 SLOAD SWAP1 SWAP2 SWAP1 PUSH1 0xFF AND PUSH3 0x13D JUMPI DUP2 DUP1 MSTORE DUP2 PUSH1 0x20 MSTORE PUSH1 0x40 DUP3 KECCAK256 DUP2 DUP4 MSTORE PUSH1 0x20 MSTORE PUSH1 0x40 DUP3 KECCAK256 PUSH1 0x1 PUSH1 0xFF NOT DUP3 SLOAD AND OR SWAP1 SSTORE CALLER SWAP2 PUSH1 0x0 DUP1 MLOAD PUSH1 0x20 PUSH3 0x1E61 DUP4 CODECOPY DUP2 MLOAD SWAP2 MSTORE DUP2 DUP1 LOG4 PUSH1 0x1 SWAP1 JUMP JUMPDEST POP SWAP1 JUMP JUMPDEST PUSH1 0x1 PUSH1 0x1 PUSH1 0xA0 SHL SUB AND PUSH1 0x0 DUP2 DUP2 MSTORE PUSH32 0x7D7FFB7A348E1C6A02869081A26547B49160DD3DF72D1D75A570EB9B698292EC PUSH1 0x20 MSTORE PUSH1 0x40 DUP2 KECCAK256 SLOAD SWAP1 SWAP2 SWAP1 PUSH32 0xA49807205CE4D355092EF5A8A18F56E8913CF4A201FBE287825B095693C21775 SWAP1 PUSH1 0xFF AND PUSH3 0x1DE JUMPI DUP1 DUP4 MSTORE DUP3 PUSH1 0x20 MSTORE PUSH1 0x40 DUP4 KECCAK256 DUP3 DUP5 MSTORE PUSH1 0x20 MSTORE PUSH1 0x40 DUP4 KECCAK256 PUSH1 0x1 PUSH1 0xFF NOT DUP3 SLOAD AND OR SWAP1 SSTORE PUSH1 0x0 DUP1 MLOAD PUSH1 0x20 PUSH3 0x1E61 DUP4 CODECOPY DUP2 MLOAD SWAP2 MSTORE CALLER SWAP4 DUP1 LOG4 PUSH1 0x1 SWAP1 JUMP JUMPDEST POP POP SWAP1 JUMP INVALID PUSH1 0x80 DUP1 PUSH1 0x40 MSTORE PUSH1 0x4 CALLDATASIZE LT ISZERO PUSH2 0x13 JUMPI PUSH1 0x0 DUP1 REVERT JUMPDEST PUSH1 0x0 CALLDATALOAD PUSH1 0xE0 SHR SWAP1 DUP2 PUSH4 0x1FFC9A7 EQ PUSH2 0x1444 JUMPI POP DUP1 PUSH4 0x7E2CEA5 EQ PUSH2 0x141B JUMPI DUP1 PUSH4 0x248A9CA3 EQ PUSH2 0x13EC JUMPI DUP1 PUSH4 0x2F2FF15D EQ PUSH2 0x13AD JUMPI DUP1 PUSH4 0x36568ABE EQ PUSH2 0x1366 JUMPI DUP1 PUSH4 0x4249D3BA EQ PUSH2 0xE02 JUMPI DUP1 PUSH4 0x54026568 EQ PUSH2 0xDBB JUMPI DUP1 PUSH4 0x5C8DE39E EQ PUSH2 0xD9D JUMPI DUP1 PUSH4 0x60D10F38 EQ PUSH2 0x6BE JUMPI DUP1 PUSH4 0x6EC02BE9 EQ PUSH2 0x6A0 JUMPI DUP1 PUSH4 0x7160552A EQ PUSH2 0x5CE JUMPI DUP1 PUSH4 0x74BFA42F EQ PUSH2 0x594 JUMPI DUP1 PUSH4 0x75B238FC EQ PUSH2 0x559 JUMPI DUP1 PUSH4 0x83907CE8 EQ PUSH2 0x506 JUMPI DUP1 PUSH4 0x91D14854 EQ PUSH2 0x4B9 JUMPI DUP1 PUSH4 0xA217FDDF EQ PUSH2 0x49D JUMPI DUP1 PUSH4 0xA8ECC0BD EQ PUSH2 0x43D JUMPI DUP1 PUSH4 0xB6135050 EQ PUSH2 0x397 JUMPI DUP1 PUSH4 0xD547741F EQ PUSH2 0x358 JUMPI DUP1 PUSH4 0xDEF114B6 EQ PUSH2 0x32F JUMPI DUP1 PUSH4 0xDF5DD1A5 EQ PUSH2 0x272 JUMPI DUP1 PUSH4 0xDF6091A3 EQ PUSH2 0x213 JUMPI DUP1 PUSH4 0xE621DBC7 EQ PUSH2 0x1F5 JUMPI DUP1 PUSH4 0xF9B0B5B9 EQ PUSH2 0x1D7 JUMPI PUSH4 0xFDC85FC4 EQ PUSH2 0x132 JUMPI PUSH1 0x0 DUP1 REVERT JUMPDEST CALLVALUE PUSH2 0x1D2 JUMPI PUSH1 0x20 CALLDATASIZE PUSH1 0x3 NOT ADD SLT PUSH2 0x1D2 JUMPI PUSH2 0x1D0 PUSH2 0x14E PUSH2 0x14AD JUMP JUMPDEST CALLER PUSH1 0x0 SWAP1 DUP2 MSTORE PUSH32 0x7D7FFB7A348E1C6A02869081A26547B49160DD3DF72D1D75A570EB9B698292EC PUSH1 0x20 MSTORE PUSH1 0x40 SWAP1 KECCAK256 SLOAD PUSH2 0x189 SWAP1 PUSH1 0xFF AND PUSH2 0x1BE2 JUMP JUMPDEST PUSH1 0x0 DUP1 MLOAD PUSH1 0x20 PUSH2 0x1C28 DUP4 CODECOPY DUP2 MLOAD SWAP2 MSTORE PUSH1 0x0 SWAP1 DUP2 MSTORE PUSH1 0x20 MSTORE PUSH32 0xA629F6981C2F6895A67DC766E8E03FF72D04A413D0D8773A3CA56E9E474032C2 SLOAD PUSH2 0x1CB SWAP1 PUSH2 0x169E JUMP JUMPDEST PUSH2 0x17FB JUMP JUMPDEST STOP JUMPDEST PUSH1 0x0 DUP1 REVERT JUMPDEST CALLVALUE PUSH2 0x1D2 JUMPI PUSH1 0x0 CALLDATASIZE PUSH1 0x3 NOT ADD SLT PUSH2 0x1D2 JUMPI PUSH1 0x20 PUSH1 0x5 SLOAD PUSH1 0x40 MLOAD SWAP1 DUP2 MSTORE RETURN JUMPDEST CALLVALUE PUSH2 0x1D2 JUMPI PUSH1 0x0 CALLDATASIZE PUSH1 0x3 NOT ADD SLT PUSH2 0x1D2 JUMPI PUSH1 0x20 PUSH1 0x6 SLOAD PUSH1 0x40 MLOAD SWAP1 DUP2 MSTORE RETURN JUMPDEST CALLVALUE PUSH2 0x1D2 JUMPI PUSH1 0x40 CALLDATASIZE PUSH1 0x3 NOT ADD SLT PUSH2 0x1D2 JUMPI PUSH8 0xFFFFFFFFFFFFFFFF PUSH1 0x4 CALLDATALOAD DUP2 DUP2 GT PUSH2 0x1D2 JUMPI PUSH2 0x245 SWAP1 CALLDATASIZE SWAP1 PUSH1 0x4 ADD PUSH2 0x152F JUMP JUMPDEST SWAP1 PUSH1 0x24 CALLDATALOAD SWAP1 DUP2 GT PUSH2 0x1D2 JUMPI PUSH1 0x20 SWAP2 PUSH2 0x264 PUSH2 0x26A SWAP3 CALLDATASIZE SWAP1 PUSH1 0x4 ADD PUSH2 0x152F JUMP JUMPDEST SWAP1 PUSH2 0x1A5D JUMP JUMPDEST PUSH1 0x40 MLOAD SWAP1 DUP2 MSTORE RETURN JUMPDEST CALLVALUE PUSH2 0x1D2 JUMPI PUSH1 0x20 CALLDATASIZE PUSH1 0x3 NOT ADD SLT PUSH2 0x1D2 JUMPI PUSH2 0x28B PUSH2 0x14AD JUMP JUMPDEST CALLER PUSH1 0x0 SWAP1 DUP2 MSTORE PUSH32 0x7D7FFB7A348E1C6A02869081A26547B49160DD3DF72D1D75A570EB9B698292EC PUSH1 0x20 MSTORE PUSH1 0x40 SWAP1 KECCAK256 SLOAD PUSH2 0x2C6 SWAP1 PUSH1 0xFF AND PUSH2 0x1BE2 JUMP JUMPDEST PUSH1 0x0 DUP1 MLOAD PUSH1 0x20 PUSH2 0x1C28 DUP4 CODECOPY DUP2 MLOAD SWAP2 MSTORE PUSH1 0x0 SWAP1 DUP2 MSTORE PUSH1 0x20 MSTORE PUSH32 0xA629F6981C2F6895A67DC766E8E03FF72D04A413D0D8773A3CA56E9E474032C2 SLOAD PUSH2 0x308 SWAP1 PUSH2 0x169E JUMP JUMPDEST PUSH2 0x311 DUP2 PUSH2 0x16E2 JUMP JUMPDEST POP PUSH1 0x1 PUSH1 0x1 PUSH1 0xA0 SHL SUB AND PUSH1 0x0 SWAP1 DUP2 MSTORE PUSH1 0xA PUSH1 0x20 MSTORE PUSH1 0x40 SWAP1 KECCAK256 PUSH1 0x64 SWAP1 SSTORE STOP JUMPDEST CALLVALUE PUSH2 0x1D2 JUMPI PUSH1 0x0 CALLDATASIZE PUSH1 0x3 NOT ADD SLT PUSH2 0x1D2 JUMPI PUSH1 0x2 SLOAD PUSH1 0x40 MLOAD PUSH1 0x1 PUSH1 0x1 PUSH1 0xA0 SHL SUB SWAP1 SWAP2 AND DUP2 MSTORE PUSH1 0x20 SWAP1 RETURN JUMPDEST CALLVALUE PUSH2 0x1D2 JUMPI PUSH1 0x40 CALLDATASIZE PUSH1 0x3 NOT ADD SLT PUSH2 0x1D2 JUMPI PUSH2 0x1D0 PUSH1 0x4 CALLDATALOAD PUSH2 0x377 PUSH2 0x1497 JUMP JUMPDEST SWAP1 DUP1 PUSH1 0x0 MSTORE PUSH1 0x0 PUSH1 0x20 MSTORE PUSH2 0x392 PUSH1 0x1 PUSH1 0x40 PUSH1 0x0 KECCAK256 ADD SLOAD PUSH2 0x169E JUMP JUMPDEST PUSH2 0x1894 JUMP JUMPDEST CALLVALUE PUSH2 0x1D2 JUMPI PUSH1 0x20 DUP1 PUSH1 0x3 NOT CALLDATASIZE ADD SLT PUSH2 0x1D2 JUMPI PUSH1 0x4 CALLDATALOAD PUSH1 0x0 MSTORE PUSH1 0x9 DUP2 MSTORE PUSH1 0x40 PUSH1 0x0 KECCAK256 PUSH1 0x40 MLOAD SWAP1 DUP2 DUP4 DUP3 SLOAD SWAP2 DUP3 DUP2 MSTORE ADD SWAP1 DUP2 SWAP3 PUSH1 0x0 MSTORE DUP5 PUSH1 0x0 KECCAK256 SWAP1 PUSH1 0x0 JUMPDEST DUP7 DUP3 DUP3 LT PUSH2 0x429 JUMPI DUP7 DUP7 PUSH2 0x3E9 DUP3 DUP9 SUB DUP4 PUSH2 0x14F1 JUMP JUMPDEST PUSH1 0x40 MLOAD SWAP3 DUP4 SWAP3 DUP2 DUP5 ADD SWAP1 DUP3 DUP6 MSTORE MLOAD DUP1 SWAP2 MSTORE PUSH1 0x40 DUP5 ADD SWAP3 SWAP2 PUSH1 0x0 JUMPDEST DUP3 DUP2 LT PUSH2 0x412 JUMPI POP POP POP POP SUB SWAP1 RETURN JUMPDEST DUP4 MLOAD DUP6 MSTORE DUP7 SWAP6 POP SWAP4 DUP2 ADD SWAP4 SWAP3 DUP2 ADD SWAP3 PUSH1 0x1 ADD PUSH2 0x403 JUMP JUMPDEST DUP4 SLOAD DUP6 MSTORE SWAP1 SWAP4 ADD SWAP3 PUSH1 0x1 SWAP3 DUP4 ADD SWAP3 ADD PUSH2 0x3D3 JUMP JUMPDEST CALLVALUE PUSH2 0x1D2 JUMPI PUSH1 0x60 CALLDATASIZE PUSH1 0x3 NOT ADD SLT PUSH2 0x1D2 JUMPI CALLER PUSH1 0x0 SWAP1 DUP2 MSTORE PUSH32 0x7D7FFB7A348E1C6A02869081A26547B49160DD3DF72D1D75A570EB9B698292EC PUSH1 0x20 MSTORE PUSH1 0x40 SWAP1 KECCAK256 SLOAD PUSH2 0x489 SWAP1 PUSH1 0xFF AND PUSH2 0x1BE2 JUMP JUMPDEST PUSH1 0x4 DUP1 CALLDATALOAD SWAP1 SSTORE PUSH1 0x24 CALLDATALOAD PUSH1 0x5 SSTORE PUSH1 0x44 CALLDATALOAD PUSH1 0x6 SSTORE STOP JUMPDEST CALLVALUE PUSH2 0x1D2 JUMPI PUSH1 0x0 CALLDATASIZE PUSH1 0x3 NOT ADD SLT PUSH2 0x1D2 JUMPI PUSH1 0x20 PUSH1 0x40 MLOAD PUSH1 0x0 DUP2 MSTORE RETURN JUMPDEST CALLVALUE PUSH2 0x1D2 JUMPI PUSH1 0x40 CALLDATASIZE PUSH1 0x3 NOT ADD SLT PUSH2 0x1D2 JUMPI PUSH2 0x4D2 PUSH2 0x1497 JUMP JUMPDEST PUSH1 0x4 CALLDATALOAD PUSH1 0x0 MSTORE PUSH1 0x0 PUSH1 0x20 MSTORE PUSH1 0x40 PUSH1 0x0 KECCAK256 SWAP1 PUSH1 0x1 DUP1 PUSH1 0xA0 SHL SUB AND PUSH1 0x0 MSTORE PUSH1 0x20 MSTORE PUSH1 0x20 PUSH1 0xFF PUSH1 0x40 PUSH1 0x0 KECCAK256 SLOAD AND PUSH1 0x40 MLOAD SWAP1 ISZERO ISZERO DUP2 MSTORE RETURN JUMPDEST CALLVALUE PUSH2 0x1D2 JUMPI PUSH1 0x20 CALLDATASIZE PUSH1 0x3 NOT ADD SLT PUSH2 0x1D2 JUMPI PUSH1 0x4 CALLDATALOAD PUSH1 0x0 MSTORE PUSH1 0x8 PUSH1 0x20 MSTORE PUSH1 0x80 PUSH1 0x40 PUSH1 0x0 KECCAK256 DUP1 SLOAD SWAP1 PUSH1 0x1 DUP2 ADD SLOAD SWAP1 PUSH1 0x4 PUSH1 0xFF PUSH1 0x3 DUP4 ADD SLOAD AND SWAP2 ADD SLOAD SWAP2 PUSH1 0x40 MLOAD SWAP4 DUP5 MSTORE PUSH1 0x20 DUP5 ADD MSTORE ISZERO ISZERO PUSH1 0x40 DUP4 ADD MSTORE PUSH1 0x60 DUP3 ADD MSTORE RETURN JUMPDEST CALLVALUE PUSH2 0x1D2 JUMPI PUSH1 0x0 CALLDATASIZE PUSH1 0x3 NOT ADD SLT PUSH2 0x1D2 JUMPI PUSH1 0x20 PUSH1 0x40 MLOAD PUSH32 0xA49807205CE4D355092EF5A8A18F56E8913CF4A201FBE287825B095693C21775 DUP2 MSTORE RETURN JUMPDEST CALLVALUE PUSH2 0x1D2 JUMPI PUSH1 0x20 CALLDATASIZE PUSH1 0x3 NOT ADD SLT PUSH2 0x1D2 JUMPI PUSH1 0x1 PUSH1 0x1 PUSH1 0xA0 SHL SUB PUSH2 0x5B5 PUSH2 0x14AD JUMP JUMPDEST AND PUSH1 0x0 MSTORE PUSH1 0xA PUSH1 0x20 MSTORE PUSH1 0x20 PUSH1 0x40 PUSH1 0x0 KECCAK256 SLOAD PUSH1 0x40 MLOAD SWAP1 DUP2 MSTORE RETURN JUMPDEST CALLVALUE PUSH2 0x1D2 JUMPI PUSH1 0x20 CALLDATASIZE PUSH1 0x3 NOT ADD SLT PUSH2 0x1D2 JUMPI PUSH1 0x4 CALLDATALOAD PUSH1 0x0 SWAP1 DUP2 MSTORE PUSH1 0x7 PUSH1 0x20 MSTORE PUSH1 0x40 SWAP1 KECCAK256 DUP1 SLOAD PUSH1 0x1 DUP3 ADD SLOAD PUSH1 0x1 PUSH1 0x1 PUSH1 0xA0 SHL SUB AND SWAP2 PUSH2 0x60D PUSH1 0x2 DUP3 ADD PUSH2 0x15B0 JUMP JUMPDEST PUSH2 0x619 PUSH1 0x3 DUP4 ADD PUSH2 0x15B0 JUMP JUMPDEST SWAP2 PUSH2 0x626 PUSH1 0x4 DUP3 ADD PUSH2 0x15B0 JUMP JUMPDEST SWAP3 PUSH2 0x684 PUSH1 0x5 DUP4 ADD SLOAD SWAP5 PUSH2 0x676 PUSH1 0x6 DUP6 ADD SLOAD SWAP4 PUSH2 0x668 PUSH1 0xFF PUSH1 0x8 PUSH1 0x7 DUP10 ADD SLOAD SWAP9 ADD SLOAD AND SWAP8 PUSH1 0x40 MLOAD SWAP12 DUP13 SWAP12 DUP13 MSTORE PUSH1 0x20 DUP13 ADD MSTORE PUSH2 0x120 DUP1 PUSH1 0x40 DUP14 ADD MSTORE DUP12 ADD SWAP1 PUSH2 0x1679 JUMP JUMPDEST SWAP1 DUP10 DUP3 SUB PUSH1 0x60 DUP12 ADD MSTORE PUSH2 0x1679 JUMP JUMPDEST SWAP1 DUP8 DUP3 SUB PUSH1 0x80 DUP10 ADD MSTORE PUSH2 0x1679 JUMP JUMPDEST SWAP4 PUSH1 0xA0 DUP7 ADD MSTORE PUSH1 0xC0 DUP6 ADD MSTORE PUSH1 0xE0 DUP5 ADD MSTORE ISZERO ISZERO PUSH2 0x100 DUP4 ADD MSTORE SUB SWAP1 RETURN JUMPDEST CALLVALUE PUSH2 0x1D2 JUMPI PUSH1 0x0 CALLDATASIZE PUSH1 0x3 NOT ADD SLT PUSH2 0x1D2 JUMPI PUSH1 0x20 PUSH1 0x3 SLOAD PUSH1 0x40 MLOAD SWAP1 DUP2 MSTORE RETURN JUMPDEST CALLVALUE PUSH2 0x1D2 JUMPI PUSH1 0x80 CALLDATASIZE PUSH1 0x3 NOT ADD SLT PUSH2 0x1D2 JUMPI PUSH8 0xFFFFFFFFFFFFFFFF PUSH1 0x24 PUSH1 0x4 CALLDATALOAD DUP2 CALLDATALOAD DUP4 DUP2 GT PUSH2 0x1D2 JUMPI PUSH2 0x6F4 SWAP1 CALLDATASIZE SWAP1 PUSH1 0x4 ADD PUSH2 0x152F JUMP JUMPDEST SWAP2 PUSH1 0x44 CALLDATALOAD DUP5 DUP2 GT PUSH2 0x1D2 JUMPI PUSH2 0x70D SWAP1 CALLDATASIZE SWAP1 PUSH1 0x4 ADD PUSH2 0x152F JUMP JUMPDEST SWAP4 PUSH1 0x64 CALLDATALOAD DUP2 DUP2 GT PUSH2 0x1D2 JUMPI PUSH2 0x726 SWAP1 CALLDATASIZE SWAP1 PUSH1 0x4 ADD PUSH2 0x152F JUMP JUMPDEST SWAP2 PUSH1 0x0 DUP1 MLOAD PUSH1 0x20 PUSH2 0x1C28 DUP4 CODECOPY DUP2 MLOAD SWAP2 MSTORE PUSH1 0x0 MSTORE PUSH1 0x20 SWAP6 PUSH1 0x0 DUP8 MSTORE PUSH1 0x40 PUSH1 0x0 KECCAK256 CALLER PUSH1 0x0 MSTORE DUP8 MSTORE PUSH2 0x75C PUSH1 0xFF PUSH1 0x40 PUSH1 0x0 KECCAK256 SLOAD AND PUSH2 0x1909 JUMP JUMPDEST PUSH1 0x2 SLOAD PUSH1 0x40 MLOAD PUSH4 0xB1283E77 PUSH1 0xE0 SHL DUP2 MSTORE PUSH1 0x4 DUP2 ADD DUP8 SWAP1 MSTORE SWAP1 PUSH1 0x0 SWAP1 DUP3 SWAP1 DUP6 SWAP1 DUP3 SWAP1 PUSH1 0x1 PUSH1 0x1 PUSH1 0xA0 SHL SUB AND GAS STATICCALL SWAP1 DUP2 ISZERO PUSH2 0xD91 JUMPI PUSH1 0x0 DUP1 SWAP2 PUSH1 0x0 SWAP4 PUSH2 0xCF2 JUMPI JUMPDEST POP DUP1 TIMESTAMP LT PUSH2 0xCAE JUMPI PUSH1 0x6 SLOAD PUSH2 0x7AF SWAP2 PUSH2 0x19BB JUMP JUMPDEST TIMESTAMP GT PUSH2 0xC6A JUMPI PUSH2 0xC26 JUMPI ISZERO PUSH2 0xBD7 JUMPI PUSH1 0x3 SWAP3 DUP4 SLOAD SWAP7 PUSH2 0x7CD DUP9 PUSH2 0x19C8 JUMP JUMPDEST DUP6 SSTORE DUP8 PUSH1 0x0 MSTORE PUSH1 0x7 DUP10 MSTORE PUSH1 0x40 PUSH1 0x0 KECCAK256 SWAP2 DUP8 DUP4 SSTORE PUSH1 0x1 SWAP4 DUP5 DUP5 ADD CALLER PUSH12 0xFFFFFFFFFFFFFFFFFFFFFFFF PUSH1 0xA0 SHL DUP3 SLOAD AND OR SWAP1 SSTORE PUSH1 0x2 DUP5 ADD DUP4 MLOAD DUP4 DUP2 GT PUSH2 0xB24 JUMPI DUP1 DUP14 PUSH2 0x816 DUP5 SLOAD PUSH2 0x1576 JUMP JUMPDEST SWAP7 PUSH1 0x1F SWAP8 DUP9 DUP2 GT PUSH2 0xBA9 JUMPI JUMPDEST POP DUP2 DUP9 DUP5 GT PUSH1 0x1 EQ PUSH2 0xB44 JUMPI POP PUSH1 0x0 SWAP3 PUSH2 0xB39 JUMPI JUMPDEST POP POP PUSH1 0x0 NOT DUP3 DUP12 SHL SHR NOT AND SWAP1 DUP8 SHL OR SWAP1 SSTORE JUMPDEST DUP1 MLOAD DUP5 DUP9 ADD SWAP2 DUP4 DUP3 GT PUSH2 0xB24 JUMPI DUP13 DUP3 SWAP2 PUSH2 0x863 DUP6 SLOAD PUSH2 0x1576 JUMP JUMPDEST DUP8 DUP2 GT PUSH2 0xAF6 JUMPI JUMPDEST POP DUP2 DUP8 DUP5 GT PUSH1 0x1 EQ PUSH2 0xA91 JUMPI POP PUSH1 0x0 SWAP3 PUSH2 0xA86 JUMPI JUMPDEST POP POP PUSH1 0x0 NOT DUP3 DUP11 SHL SHR NOT AND SWAP1 DUP7 SHL OR SWAP1 SSTORE JUMPDEST PUSH1 0x4 DUP4 ADD SWAP2 DUP8 MLOAD SWAP2 DUP3 GT PUSH2 0xA71 JUMPI DUP2 SWAP1 PUSH2 0x8AC DUP5 SLOAD PUSH2 0x1576 JUMP JUMPDEST DUP13 DUP3 DUP3 GT PUSH2 0xA38 JUMPI JUMPDEST POP POP DUP12 SWAP1 DUP3 GT PUSH1 0x1 EQ PUSH2 0x9D7 JUMPI PUSH1 0x0 SWAP2 PUSH2 0x9CC JUMPI JUMPDEST POP PUSH1 0x0 NOT DUP3 DUP9 SHL SHR NOT AND SWAP1 DUP5 SHL OR SWAP1 SSTORE JUMPDEST TIMESTAMP PUSH1 0x5 DUP3 ADD SSTORE DUP2 PUSH1 0x6 DUP3 ADD SSTORE PUSH1 0x0 PUSH1 0x7 DUP3 ADD SSTORE PUSH1 0x9 PUSH1 0x8 DUP3 ADD SWAP2 PUSH1 0xFF NOT SWAP3 DUP4 DUP2 SLOAD AND SWAP1 SSTORE CALLER PUSH1 0x0 MSTORE ADD DUP9 MSTORE DUP2 PUSH1 0x40 PUSH1 0x0 KECCAK256 SWAP2 DUP3 SLOAD AND OR SWAP1 SSTORE DUP5 PUSH1 0x0 MSTORE PUSH1 0x9 DUP8 MSTORE PUSH1 0x40 PUSH1 0x0 KECCAK256 SWAP1 DUP2 SLOAD SWAP3 PUSH1 0x1 PUSH1 0x40 SHL DUP5 LT ISZERO PUSH2 0x9B8 JUMPI POP SWAP3 PUSH2 0x966 DUP4 PUSH32 0xC30D3AD6F05AAA235B41DF783D8544179BEA684EA7C954DB901CA7F62F012533 SWAP7 SWAP4 DUP11 SWAP7 DUP11 SWAP10 SWAP7 ADD DUP2 SSTORE PUSH2 0x14C3 JUMP JUMPDEST DUP2 SWAP3 SWAP2 SLOAD SWAP2 SHL SWAP1 DUP8 DUP3 SHL SWAP2 PUSH1 0x0 NOT SWAP1 SHL NOT AND OR SWAP1 SSTORE PUSH1 0x40 MLOAD SWAP2 CALLER SWAP1 DUP7 PUSH32 0xDA485F99B3F07E05497AEF9217A3B8DC611A4263FDDB349F6A31976203280D09 PUSH1 0x0 DUP1 LOG4 DUP3 DUP2 MLOAD SWAP2 ADD KECCAK256 DUP2 MSTORE LOG2 PUSH1 0x40 MLOAD SWAP1 DUP2 MSTORE RETURN JUMPDEST PUSH4 0x4E487B71 PUSH1 0xE0 SHL PUSH1 0x0 SWAP1 DUP2 MSTORE PUSH1 0x41 PUSH1 0x4 MSTORE REVERT JUMPDEST SWAP1 POP DUP8 ADD MLOAD DUP12 PUSH2 0x8CA JUMP JUMPDEST PUSH1 0x0 DUP5 DUP2 MSTORE DUP13 DUP2 KECCAK256 DUP8 SWAP5 POP SWAP2 SWAP1 PUSH1 0x1F NOT DUP5 AND SWAP1 DUP15 JUMPDEST DUP13 DUP4 DUP4 LT PUSH2 0xA22 JUMPI POP POP POP DUP4 GT PUSH2 0xA0A JUMPI JUMPDEST POP POP DUP2 SHL ADD SWAP1 SSTORE PUSH2 0x8DB JUMP JUMPDEST DUP10 ADD MLOAD PUSH1 0x0 NOT DUP4 DUP11 SHL PUSH1 0xF8 AND SHR NOT AND SWAP1 SSTORE DUP12 DUP1 PUSH2 0x9FE JUMP JUMPDEST DUP5 ADD MLOAD DUP6 SSTORE DUP10 SWAP7 SWAP1 SWAP5 ADD SWAP4 SWAP3 DUP4 ADD SWAP3 ADD DUP15 PUSH2 0x9EC JUMP JUMPDEST PUSH2 0xA61 SWAP2 DUP7 PUSH1 0x0 MSTORE DUP4 DUP3 PUSH1 0x0 KECCAK256 SWAP2 DUP2 DUP8 ADD PUSH1 0x5 SHR DUP4 ADD SWAP4 DUP8 LT PUSH2 0xA68 JUMPI JUMPDEST ADD PUSH1 0x5 SHR ADD SWAP1 PUSH2 0x19D7 JUMP JUMPDEST DUP13 DUP13 PUSH2 0x8B5 JUMP JUMPDEST SWAP3 POP DUP2 SWAP3 PUSH2 0xA56 JUMP JUMPDEST DUP6 PUSH4 0x4E487B71 PUSH1 0xE0 SHL PUSH1 0x0 MSTORE PUSH1 0x41 PUSH1 0x4 MSTORE PUSH1 0x0 REVERT JUMPDEST ADD MLOAD SWAP1 POP DUP14 DUP1 PUSH2 0x880 JUMP JUMPDEST SWAP2 SWAP1 DUP10 SWAP5 POP PUSH1 0x1F NOT DUP5 AND DUP7 PUSH1 0x0 MSTORE DUP4 PUSH1 0x0 KECCAK256 SWAP4 PUSH1 0x0 SWAP1 JUMPDEST DUP3 DUP3 LT PUSH2 0xADD JUMPI POP POP DUP5 GT PUSH2 0xAC5 JUMPI JUMPDEST POP POP POP DUP2 SHL ADD SWAP1 SSTORE PUSH2 0x892 JUMP JUMPDEST ADD MLOAD PUSH1 0x0 NOT DUP4 DUP13 SHL PUSH1 0xF8 AND SHR NOT AND SWAP1 SSTORE DUP14 DUP1 DUP1 PUSH2 0xAB8 JUMP JUMPDEST DUP5 DUP5 ADD MLOAD DUP7 SSTORE DUP13 SWAP8 SWAP1 SWAP6 ADD SWAP5 SWAP4 DUP5 ADD SWAP4 SWAP1 DUP2 ADD SWAP1 PUSH2 0xAA8 JUMP JUMPDEST PUSH2 0xB1E SWAP1 DUP7 PUSH1 0x0 MSTORE DUP4 PUSH1 0x0 KECCAK256 DUP10 DUP1 DUP8 ADD PUSH1 0x5 SHR DUP3 ADD SWAP3 DUP7 DUP9 LT PUSH2 0xA68 JUMPI ADD PUSH1 0x5 SHR ADD SWAP1 PUSH2 0x19D7 JUMP JUMPDEST DUP16 PUSH2 0x86B JUMP JUMPDEST DUP8 PUSH4 0x4E487B71 PUSH1 0xE0 SHL PUSH1 0x0 MSTORE PUSH1 0x41 PUSH1 0x4 MSTORE PUSH1 0x0 REVERT JUMPDEST ADD MLOAD SWAP1 POP DUP15 DUP1 PUSH2 0x837 JUMP JUMPDEST SWAP2 SWAP1 DUP11 SWAP5 POP PUSH1 0x1F NOT DUP5 AND DUP7 PUSH1 0x0 MSTORE DUP4 PUSH1 0x0 KECCAK256 SWAP4 PUSH1 0x0 SWAP1 JUMPDEST DUP3 DUP3 LT PUSH2 0xB90 JUMPI POP POP DUP5 GT PUSH2 0xB78 JUMPI JUMPDEST POP POP POP DUP2 SHL ADD SWAP1 SSTORE PUSH2 0x849 JUMP JUMPDEST ADD MLOAD PUSH1 0x0 NOT DUP4 DUP14 SHL PUSH1 0xF8 AND SHR NOT AND SWAP1 SSTORE DUP15 DUP1 DUP1 PUSH2 0xB6B JUMP JUMPDEST DUP5 DUP5 ADD MLOAD DUP7 SSTORE DUP14 SWAP8 SWAP1 SWAP6 ADD SWAP5 SWAP4 DUP5 ADD SWAP4 SWAP1 DUP2 ADD SWAP1 PUSH2 0xB5B JUMP JUMPDEST PUSH2 0xBD1 SWAP1 DUP7 PUSH1 0x0 MSTORE DUP4 PUSH1 0x0 KECCAK256 DUP11 DUP1 DUP8 ADD PUSH1 0x5 SHR DUP3 ADD SWAP3 DUP7 DUP9 LT PUSH2 0xA68 JUMPI ADD PUSH1 0x5 SHR ADD SWAP1 PUSH2 0x19D7 JUMP JUMPDEST CODESIZE PUSH2 0x822 JUMP JUMPDEST PUSH1 0x40 MLOAD PUSH3 0x461BCD PUSH1 0xE5 SHL DUP2 MSTORE PUSH1 0x4 DUP2 ADD DUP9 SWAP1 MSTORE PUSH1 0x22 DUP2 DUP5 ADD MSTORE PUSH32 0x4D61726B657420726571756972657320582E636F6D2076657269666963617469 PUSH1 0x44 DUP3 ADD MSTORE PUSH2 0x37B7 PUSH1 0xF1 SHL PUSH1 0x64 DUP3 ADD MSTORE PUSH1 0x84 SWAP1 REVERT JUMPDEST PUSH1 0x40 MLOAD PUSH3 0x461BCD PUSH1 0xE5 SHL DUP2 MSTORE PUSH1 0x4 DUP2 ADD DUP10 SWAP1 MSTORE PUSH1 0x17 DUP2 DUP6 ADD MSTORE PUSH32 0x4D61726B657420616C7265616479207265736F6C766564000000000000000000 PUSH1 0x44 DUP3 ADD MSTORE PUSH1 0x64 SWAP1 REVERT JUMPDEST PUSH1 0x40 MLOAD PUSH3 0x461BCD PUSH1 0xE5 SHL DUP2 MSTORE PUSH1 0x4 DUP2 ADD DUP11 SWAP1 MSTORE PUSH1 0x1F DUP2 DUP7 ADD MSTORE PUSH32 0x4F7261636C65207375626D697373696F6E2077696E646F7720636C6F73656400 PUSH1 0x44 DUP3 ADD MSTORE PUSH1 0x64 SWAP1 REVERT JUMPDEST PUSH1 0x40 MLOAD PUSH3 0x461BCD PUSH1 0xE5 SHL DUP2 MSTORE PUSH1 0x4 DUP2 ADD DUP12 SWAP1 MSTORE PUSH1 0x18 DUP2 DUP8 ADD MSTORE PUSH32 0x4D61726B657420686173206E6F7420656E646564207965740000000000000000 PUSH1 0x44 DUP3 ADD MSTORE PUSH1 0x64 SWAP1 REVERT JUMPDEST SWAP3 POP POP POP RETURNDATASIZE DUP1 PUSH1 0x0 DUP4 RETURNDATACOPY PUSH2 0xD06 DUP2 DUP4 PUSH2 0x14F1 JUMP JUMPDEST DUP2 ADD SWAP1 PUSH2 0x160 DUP2 DUP4 SUB SLT PUSH2 0x1D2 JUMPI DUP1 MLOAD DUP6 DUP2 GT PUSH2 0x1D2 JUMPI DUP3 PUSH2 0xD29 SWAP2 DUP4 ADD PUSH2 0x1955 JUMP JUMPDEST POP PUSH2 0xD35 DUP10 DUP3 ADD PUSH2 0x199A JUMP JUMPDEST POP PUSH1 0x60 DUP2 ADD MLOAD SWAP1 PUSH2 0xD48 PUSH1 0x80 DUP3 ADD PUSH2 0x19AE JUMP JUMPDEST SWAP3 PUSH1 0xE0 DUP3 ADD MLOAD DUP8 DUP2 GT PUSH2 0x1D2 JUMPI DUP2 PUSH2 0xD61 SWAP2 DUP5 ADD PUSH2 0x1955 JUMP JUMPDEST POP PUSH2 0x100 DUP3 ADD MLOAD SWAP2 DUP8 DUP4 GT PUSH2 0x1D2 JUMPI PUSH2 0xD82 PUSH2 0x120 SWAP3 PUSH2 0xD89 SWAP5 DUP4 ADD PUSH2 0x1955 JUMP JUMPDEST POP ADD PUSH2 0x19AE JUMP JUMPDEST SWAP2 SWAP1 DUP11 PUSH2 0x79B JUMP JUMPDEST PUSH1 0x40 MLOAD RETURNDATASIZE PUSH1 0x0 DUP3 RETURNDATACOPY RETURNDATASIZE SWAP1 REVERT JUMPDEST CALLVALUE PUSH2 0x1D2 JUMPI PUSH1 0x0 CALLDATASIZE PUSH1 0x3 NOT ADD SLT PUSH2 0x1D2 JUMPI PUSH1 0x20 PUSH1 0x4 SLOAD PUSH1 0x40 MLOAD SWAP1 DUP2 MSTORE RETURN JUMPDEST CALLVALUE PUSH2 0x1D2 JUMPI PUSH1 0x40 CALLDATASIZE PUSH1 0x3 NOT ADD SLT PUSH2 0x1D2 JUMPI PUSH1 0x24 CALLDATALOAD PUSH1 0x4 CALLDATALOAD PUSH1 0x0 MSTORE PUSH1 0x9 PUSH1 0x20 MSTORE PUSH1 0x40 PUSH1 0x0 KECCAK256 DUP1 SLOAD DUP3 LT ISZERO PUSH2 0x1D2 JUMPI PUSH1 0x20 SWAP2 PUSH2 0xDF4 SWAP2 PUSH2 0x14C3 JUMP JUMPDEST SWAP1 SLOAD PUSH1 0x40 MLOAD SWAP2 PUSH1 0x3 SHL SHR DUP2 MSTORE RETURN JUMPDEST CALLVALUE PUSH2 0x1D2 JUMPI PUSH1 0x40 CALLDATASIZE PUSH1 0x3 NOT ADD SLT PUSH2 0x1D2 JUMPI PUSH1 0x4 CALLDATALOAD PUSH1 0x24 CALLDATALOAD DUP1 ISZERO ISZERO SWAP1 DUP2 DUP2 SUB PUSH2 0x1D2 JUMPI CALLER PUSH1 0x0 SWAP1 DUP2 MSTORE PUSH32 0xA629F6981C2F6895A67DC766E8E03FF72D04A413D0D8773A3CA56E9E474032C1 PUSH1 0x20 MSTORE PUSH1 0x40 SWAP1 KECCAK256 SLOAD PUSH2 0xE5F SWAP1 PUSH1 0xFF AND PUSH2 0x1909 JUMP JUMPDEST DUP3 PUSH1 0x0 MSTORE PUSH1 0x7 PUSH1 0x20 MSTORE PUSH1 0x40 PUSH1 0x0 KECCAK256 SWAP2 PUSH1 0x9 DUP4 ADD SWAP2 CALLER PUSH1 0x0 MSTORE DUP3 PUSH1 0x20 MSTORE PUSH1 0xFF PUSH1 0x40 PUSH1 0x0 KECCAK256 SLOAD AND PUSH2 0x1331 JUMPI PUSH1 0x8 DUP5 ADD SWAP3 PUSH1 0xFF DUP5 SLOAD AND PUSH2 0x12EC JUMPI CALLER PUSH1 0x0 MSTORE PUSH1 0x20 MSTORE PUSH1 0x40 PUSH1 0x0 KECCAK256 PUSH1 0x1 PUSH1 0xFF NOT DUP3 SLOAD AND OR SWAP1 SSTORE PUSH1 0x0 EQ PUSH2 0x12D7 JUMPI PUSH1 0x6 DUP4 ADD PUSH2 0xEC2 DUP2 SLOAD PUSH2 0x19C8 JUMP JUMPDEST SWAP1 SSTORE JUMPDEST PUSH1 0x40 MLOAD SWAP1 DUP2 MSTORE DUP4 PUSH32 0xB763457308821BD5AE18E4BFA8A065B9D24FA270BBF3D42C64FF2A18AD5889D1 PUSH1 0x20 CALLER SWAP4 LOG3 PUSH1 0x6 DUP3 ADD SLOAD PUSH2 0xF05 PUSH1 0x7 DUP5 ADD SLOAD DUP3 PUSH2 0x19BB JUMP JUMPDEST SWAP1 PUSH1 0x4 SLOAD DUP3 LT ISZERO SWAP2 DUP3 PUSH2 0x1297 JUMPI JUMPDEST POP POP PUSH2 0xF1B JUMPI STOP JUMPDEST DUP1 SLOAD PUSH1 0xFF NOT AND PUSH1 0x1 OR SWAP1 SSTORE SLOAD PUSH1 0x0 SWAP2 DUP3 MSTORE PUSH1 0x7 PUSH1 0x20 MSTORE PUSH1 0x40 DUP1 DUP4 KECCAK256 PUSH1 0x2 SLOAD SWAP2 MLOAD PUSH4 0x2417667F PUSH1 0xE2 SHL DUP2 MSTORE PUSH1 0x4 DUP2 ADD DUP5 SWAP1 MSTORE SWAP4 SWAP1 SWAP3 SWAP2 PUSH1 0x1 PUSH1 0x1 PUSH1 0xA0 SHL SUB AND SWAP1 DUP5 PUSH1 0x24 DUP2 DUP5 GAS STATICCALL SWAP4 DUP5 ISZERO PUSH2 0xD91 JUMPI PUSH1 0x0 SWAP5 PUSH2 0x1203 JUMPI JUMPDEST POP PUSH1 0x0 SWAP3 PUSH1 0x0 NOT SWAP3 DUP5 JUMPDEST DUP7 MLOAD DUP2 LT ISZERO PUSH2 0x1076 JUMPI PUSH2 0xF8D DUP2 DUP9 PUSH2 0x1A38 JUMP JUMPDEST MLOAD PUSH1 0x40 MLOAD SWAP1 PUSH4 0x56B99A4F PUSH1 0xE1 SHL DUP3 MSTORE PUSH1 0x4 DUP3 ADD MSTORE PUSH1 0x0 DUP2 PUSH1 0x24 DUP2 DUP9 GAS STATICCALL DUP1 ISZERO PUSH2 0xD91 JUMPI PUSH1 0x0 SWAP1 PUSH2 0xFFA JUMPI JUMPDEST PUSH2 0xFC9 SWAP2 POP PUSH2 0x264 PUSH1 0x2 DUP7 ADD PUSH2 0x15B0 JUMP JUMPDEST DUP6 DUP2 LT PUSH2 0xFE0 JUMPI JUMPDEST POP PUSH2 0xFDB SWAP1 PUSH2 0x19C8 JUMP JUMPDEST PUSH2 0xF7A JUMP JUMPDEST SWAP1 SWAP6 POP SWAP4 POP PUSH2 0xFDB PUSH2 0xFF2 DUP7 DUP9 PUSH2 0x1A38 JUMP JUMPDEST MLOAD SWAP6 SWAP1 PUSH2 0xFD1 JUMP JUMPDEST POP RETURNDATASIZE DUP1 PUSH1 0x0 DUP4 RETURNDATACOPY PUSH2 0x100B DUP2 DUP4 PUSH2 0x14F1 JUMP JUMPDEST DUP2 ADD PUSH2 0x120 DUP3 DUP3 SUB SLT PUSH2 0x1D2 JUMPI PUSH2 0x1024 PUSH1 0x20 DUP4 ADD PUSH2 0x199A JUMP JUMPDEST POP PUSH1 0x40 DUP3 ADD MLOAD SWAP2 PUSH8 0xFFFFFFFFFFFFFFFF SWAP3 DUP4 DUP2 GT PUSH2 0x1D2 JUMPI DUP3 PUSH2 0x1048 SWAP2 DUP4 ADD PUSH2 0x1955 JUMP JUMPDEST SWAP2 PUSH2 0x1055 PUSH1 0xC0 DUP4 ADD PUSH2 0x19AE JUMP JUMPDEST POP PUSH1 0xE0 DUP3 ADD MLOAD SWAP4 DUP5 GT PUSH2 0x1D2 JUMPI PUSH2 0xFC9 SWAP4 PUSH2 0x1070 SWAP3 ADD PUSH2 0x1955 JUMP JUMPDEST POP PUSH2 0xFB8 JUMP JUMPDEST POP SWAP4 SWAP3 POP SWAP4 POP POP PUSH1 0x40 MLOAD PUSH1 0x20 DUP2 ADD PUSH8 0xFFFFFFFFFFFFFFFF SWAP1 DUP3 DUP2 LT DUP3 DUP3 GT OR PUSH2 0x11ED JUMPI PUSH1 0x40 MSTORE PUSH1 0x0 DUP3 MSTORE PUSH1 0x40 MLOAD SWAP2 PUSH1 0xA0 DUP4 ADD DUP4 DUP2 LT DUP4 DUP3 GT OR PUSH2 0x11ED JUMPI PUSH1 0x40 MSTORE DUP5 DUP4 MSTORE PUSH1 0x20 DUP4 ADD SWAP2 DUP5 DUP4 MSTORE PUSH1 0x40 DUP5 ADD SWAP2 DUP3 MSTORE PUSH1 0x60 DUP5 ADD SWAP2 PUSH1 0x1 DUP4 MSTORE PUSH1 0x80 DUP6 ADD SWAP4 TIMESTAMP DUP6 MSTORE DUP8 PUSH1 0x0 MSTORE PUSH1 0x8 PUSH1 0x20 MSTORE PUSH1 0x40 PUSH1 0x0 KECCAK256 SWAP6 MLOAD DUP7 SSTORE MLOAD PUSH1 0x1 DUP7 ADD SSTORE PUSH1 0x2 DUP6 ADD SWAP1 MLOAD DUP1 MLOAD SWAP3 DUP4 GT PUSH2 0x11ED JUMPI PUSH1 0x1 PUSH1 0x40 SHL DUP4 GT PUSH2 0x11ED JUMPI PUSH1 0x20 SWAP1 DUP3 SLOAD DUP5 DUP5 SSTORE DUP1 DUP6 LT PUSH2 0x11D0 JUMPI JUMPDEST POP ADD SWAP1 PUSH1 0x0 MSTORE PUSH1 0x20 PUSH1 0x0 KECCAK256 PUSH1 0x0 JUMPDEST DUP4 DUP2 LT PUSH2 0x11BC JUMPI POP POP POP POP SWAP2 PUSH1 0x4 PUSH32 0x6DFC24F0F2FB42E49FB4FA3FFA8ABB148CAB908A1FB8335B3F128A08B2594AF1 SWAP5 SWAP3 PUSH1 0x20 SWAP5 PUSH1 0x3 DUP5 ADD SWAP1 MLOAD ISZERO ISZERO PUSH1 0xFF DUP1 NOT DUP4 SLOAD AND SWAP2 AND OR SWAP1 SSTORE MLOAD SWAP2 ADD SSTORE PUSH1 0x40 MLOAD SWAP1 DUP2 MSTORE LOG2 PUSH1 0x1 DUP1 DUP1 PUSH1 0xA0 SHL SUB SWAP2 ADD SLOAD AND PUSH1 0x0 MSTORE PUSH1 0xA PUSH1 0x20 MSTORE PUSH1 0x40 PUSH1 0x0 KECCAK256 DUP1 SLOAD SWAP1 PUSH1 0xA DUP3 ADD DUP1 SWAP3 GT PUSH2 0x11A6 JUMPI SSTORE STOP JUMPDEST PUSH4 0x4E487B71 PUSH1 0xE0 SHL PUSH1 0x0 MSTORE PUSH1 0x11 PUSH1 0x4 MSTORE PUSH1 0x24 PUSH1 0x0 REVERT JUMPDEST PUSH1 0x1 SWAP1 PUSH1 0x20 DUP5 MLOAD SWAP5 ADD SWAP4 DUP2 DUP5 ADD SSTORE ADD PUSH2 0x1129 JUMP JUMPDEST PUSH2 0x11E7 SWAP1 DUP5 PUSH1 0x0 MSTORE DUP6 DUP5 PUSH1 0x0 KECCAK256 SWAP2 DUP3 ADD SWAP2 ADD PUSH2 0x19D7 JUMP JUMPDEST DUP11 PUSH2 0x111B JUMP JUMPDEST PUSH4 0x4E487B71 PUSH1 0xE0 SHL PUSH1 0x0 MSTORE PUSH1 0x41 PUSH1 0x4 MSTORE PUSH1 0x24 PUSH1 0x0 REVERT JUMPDEST SWAP1 SWAP4 POP RETURNDATASIZE DUP1 PUSH1 0x0 DUP4 RETURNDATACOPY PUSH2 0x1216 DUP2 DUP4 PUSH2 0x14F1 JUMP JUMPDEST DUP2 ADD SWAP1 PUSH1 0x20 DUP2 DUP4 SUB SLT PUSH2 0x1D2 JUMPI DUP1 MLOAD SWAP1 PUSH8 0xFFFFFFFFFFFFFFFF DUP3 GT PUSH2 0x1D2 JUMPI ADD SWAP1 DUP1 PUSH1 0x1F DUP4 ADD SLT ISZERO PUSH2 0x1D2 JUMPI DUP2 MLOAD PUSH2 0x124D DUP2 PUSH2 0x19EE JUMP JUMPDEST SWAP3 PUSH2 0x125B PUSH1 0x40 MLOAD SWAP5 DUP6 PUSH2 0x14F1 JUMP JUMPDEST DUP2 DUP5 MSTORE PUSH1 0x20 DUP1 DUP6 ADD SWAP3 PUSH1 0x5 SHL DUP3 ADD ADD SWAP3 DUP4 GT PUSH2 0x1D2 JUMPI PUSH1 0x20 ADD SWAP1 JUMPDEST DUP3 DUP3 LT PUSH2 0x1287 JUMPI POP POP POP SWAP3 DUP5 PUSH2 0xF70 JUMP JUMPDEST DUP2 MLOAD DUP2 MSTORE PUSH1 0x20 SWAP2 DUP3 ADD SWAP2 ADD PUSH2 0x1276 JUMP JUMPDEST SWAP1 SWAP2 POP PUSH1 0x64 DUP3 MUL SWAP2 DUP1 DUP4 DIV PUSH1 0x64 EQ SWAP1 ISZERO OR ISZERO PUSH2 0x11A6 JUMPI DUP1 ISZERO PUSH2 0x12C1 JUMPI PUSH1 0x5 SLOAD SWAP2 DIV LT ISZERO DUP5 DUP1 PUSH2 0xF13 JUMP JUMPDEST PUSH4 0x4E487B71 PUSH1 0xE0 SHL PUSH1 0x0 MSTORE PUSH1 0x12 PUSH1 0x4 MSTORE PUSH1 0x24 PUSH1 0x0 REVERT JUMPDEST PUSH1 0x7 DUP4 ADD PUSH2 0x12E5 DUP2 SLOAD PUSH2 0x19C8 JUMP JUMPDEST SWAP1 SSTORE PUSH2 0xEC5 JUMP JUMPDEST PUSH1 0x40 MLOAD PUSH3 0x461BCD PUSH1 0xE5 SHL DUP2 MSTORE PUSH1 0x20 PUSH1 0x4 DUP3 ADD MSTORE PUSH1 0x1B PUSH1 0x24 DUP3 ADD MSTORE PUSH32 0x5375626D697373696F6E20616C72656164792076657269666965640000000000 PUSH1 0x44 DUP3 ADD MSTORE PUSH1 0x64 SWAP1 REVERT JUMPDEST PUSH1 0x40 MLOAD PUSH3 0x461BCD PUSH1 0xE5 SHL DUP2 MSTORE PUSH1 0x20 PUSH1 0x4 DUP3 ADD MSTORE PUSH1 0xD PUSH1 0x24 DUP3 ADD MSTORE PUSH13 0x105B1C9958591E481D9BDD1959 PUSH1 0x9A SHL PUSH1 0x44 DUP3 ADD MSTORE PUSH1 0x64 SWAP1 REVERT JUMPDEST CALLVALUE PUSH2 0x1D2 JUMPI PUSH1 0x40 CALLDATASIZE PUSH1 0x3 NOT ADD SLT PUSH2 0x1D2 JUMPI PUSH2 0x137F PUSH2 0x1497 JUMP JUMPDEST CALLER PUSH1 0x1 PUSH1 0x1 PUSH1 0xA0 SHL SUB DUP3 AND SUB PUSH2 0x139B JUMPI PUSH2 0x1D0 SWAP1 PUSH1 0x4 CALLDATALOAD PUSH2 0x1894 JUMP JUMPDEST PUSH1 0x40 MLOAD PUSH4 0x334BD919 PUSH1 0xE1 SHL DUP2 MSTORE PUSH1 0x4 SWAP1 REVERT JUMPDEST CALLVALUE PUSH2 0x1D2 JUMPI PUSH1 0x40 CALLDATASIZE PUSH1 0x3 NOT ADD SLT PUSH2 0x1D2 JUMPI PUSH2 0x1D0 PUSH1 0x4 CALLDATALOAD PUSH2 0x13CC PUSH2 0x1497 JUMP JUMPDEST SWAP1 DUP1 PUSH1 0x0 MSTORE PUSH1 0x0 PUSH1 0x20 MSTORE PUSH2 0x13E7 PUSH1 0x1 PUSH1 0x40 PUSH1 0x0 KECCAK256 ADD SLOAD PUSH2 0x169E JUMP JUMPDEST PUSH2 0x1782 JUMP JUMPDEST CALLVALUE PUSH2 0x1D2 JUMPI PUSH1 0x20 CALLDATASIZE PUSH1 0x3 NOT ADD SLT PUSH2 0x1D2 JUMPI PUSH1 0x4 CALLDATALOAD PUSH1 0x0 MSTORE PUSH1 0x0 PUSH1 0x20 MSTORE PUSH1 0x20 PUSH1 0x1 PUSH1 0x40 PUSH1 0x0 KECCAK256 ADD SLOAD PUSH1 0x40 MLOAD SWAP1 DUP2 MSTORE RETURN JUMPDEST CALLVALUE PUSH2 0x1D2 JUMPI PUSH1 0x0 CALLDATASIZE PUSH1 0x3 NOT ADD SLT PUSH2 0x1D2 JUMPI PUSH1 0x20 PUSH1 0x40 MLOAD PUSH1 0x0 DUP1 MLOAD PUSH1 0x20 PUSH2 0x1C28 DUP4 CODECOPY DUP2 MLOAD SWAP2 MSTORE DUP2 MSTORE RETURN JUMPDEST CALLVALUE PUSH2 0x1D2 JUMPI PUSH1 0x20 CALLDATASIZE PUSH1 0x3 NOT ADD SLT PUSH2 0x1D2 JUMPI PUSH1 0x4 CALLDATALOAD SWAP1 PUSH4 0xFFFFFFFF PUSH1 0xE0 SHL DUP3 AND DUP1 SWAP3 SUB PUSH2 0x1D2 JUMPI PUSH1 0x20 SWAP2 PUSH4 0x7965DB0B PUSH1 0xE0 SHL DUP2 EQ SWAP1 DUP2 ISZERO PUSH2 0x1486 JUMPI JUMPDEST POP ISZERO ISZERO DUP2 MSTORE RETURN JUMPDEST PUSH4 0x1FFC9A7 PUSH1 0xE0 SHL EQ SWAP1 POP DUP4 PUSH2 0x147F JUMP JUMPDEST PUSH1 0x24 CALLDATALOAD SWAP1 PUSH1 0x1 PUSH1 0x1 PUSH1 0xA0 SHL SUB DUP3 AND DUP3 SUB PUSH2 0x1D2 JUMPI JUMP JUMPDEST PUSH1 0x4 CALLDATALOAD SWAP1 PUSH1 0x1 PUSH1 0x1 PUSH1 0xA0 SHL SUB DUP3 AND DUP3 SUB PUSH2 0x1D2 JUMPI JUMP JUMPDEST DUP1 SLOAD DUP3 LT ISZERO PUSH2 0x14DB JUMPI PUSH1 0x0 MSTORE PUSH1 0x20 PUSH1 0x0 KECCAK256 ADD SWAP1 PUSH1 0x0 SWAP1 JUMP JUMPDEST PUSH4 0x4E487B71 PUSH1 0xE0 SHL PUSH1 0x0 MSTORE PUSH1 0x32 PUSH1 0x4 MSTORE PUSH1 0x24 PUSH1 0x0 REVERT JUMPDEST SWAP1 PUSH1 0x1F DUP1 NOT SWAP2 ADD AND DUP2 ADD SWAP1 DUP2 LT PUSH8 0xFFFFFFFFFFFFFFFF DUP3 GT OR PUSH2 0x11ED JUMPI PUSH1 0x40 MSTORE JUMP JUMPDEST PUSH8 0xFFFFFFFFFFFFFFFF DUP2 GT PUSH2 0x11ED JUMPI PUSH1 0x1F ADD PUSH1 0x1F NOT AND PUSH1 0x20 ADD SWAP1 JUMP JUMPDEST DUP2 PUSH1 0x1F DUP3 ADD SLT ISZERO PUSH2 0x1D2 JUMPI DUP1 CALLDATALOAD SWAP1 PUSH2 0x1546 DUP3 PUSH2 0x1513 JUMP JUMPDEST SWAP3 PUSH2 0x1554 PUSH1 0x40 MLOAD SWAP5 DUP6 PUSH2 0x14F1 JUMP JUMPDEST DUP3 DUP5 MSTORE PUSH1 0x20 DUP4 DUP4 ADD ADD GT PUSH2 0x1D2 JUMPI DUP2 PUSH1 0x0 SWAP3 PUSH1 0x20 DUP1 SWAP4 ADD DUP4 DUP7 ADD CALLDATACOPY DUP4 ADD ADD MSTORE SWAP1 JUMP JUMPDEST SWAP1 PUSH1 0x1 DUP3 DUP2 SHR SWAP3 AND DUP1 ISZERO PUSH2 0x15A6 JUMPI JUMPDEST PUSH1 0x20 DUP4 LT EQ PUSH2 0x1590 JUMPI JUMP JUMPDEST PUSH4 0x4E487B71 PUSH1 0xE0 SHL PUSH1 0x0 MSTORE PUSH1 0x22 PUSH1 0x4 MSTORE PUSH1 0x24 PUSH1 0x0 REVERT JUMPDEST SWAP2 PUSH1 0x7F AND SWAP2 PUSH2 0x1585 JUMP JUMPDEST SWAP1 PUSH1 0x40 MLOAD SWAP2 DUP3 PUSH1 0x0 DUP3 SLOAD SWAP3 PUSH2 0x15C4 DUP5 PUSH2 0x1576 JUMP JUMPDEST SWAP1 DUP2 DUP5 MSTORE PUSH1 0x1 SWAP5 DUP6 DUP2 AND SWAP1 DUP2 PUSH1 0x0 EQ PUSH2 0x1633 JUMPI POP PUSH1 0x1 EQ PUSH2 0x15F0 JUMPI JUMPDEST POP POP PUSH2 0x15EE SWAP3 POP SUB DUP4 PUSH2 0x14F1 JUMP JUMPDEST JUMP JUMPDEST SWAP1 SWAP4 SWAP2 POP PUSH1 0x0 MSTORE PUSH1 0x20 SWAP1 DUP2 PUSH1 0x0 KECCAK256 SWAP4 PUSH1 0x0 SWAP2 JUMPDEST DUP2 DUP4 LT PUSH2 0x161B JUMPI POP POP PUSH2 0x15EE SWAP4 POP DUP3 ADD ADD CODESIZE DUP1 PUSH2 0x15E0 JUMP JUMPDEST DUP6 SLOAD DUP9 DUP5 ADD DUP6 ADD MSTORE SWAP5 DUP6 ADD SWAP5 DUP8 SWAP5 POP SWAP2 DUP4 ADD SWAP2 PUSH2 0x1603 JUMP JUMPDEST SWAP2 POP POP PUSH2 0x15EE SWAP5 POP PUSH1 0x20 SWAP3 POP PUSH1 0xFF NOT AND DUP3 DUP5 ADD MSTORE ISZERO ISZERO PUSH1 0x5 SHL DUP3 ADD ADD CODESIZE DUP1 PUSH2 0x15E0 JUMP JUMPDEST PUSH1 0x0 JUMPDEST DUP4 DUP2 LT PUSH2 0x1669 JUMPI POP POP PUSH1 0x0 SWAP2 ADD MSTORE JUMP JUMPDEST DUP2 DUP2 ADD MLOAD DUP4 DUP3 ADD MSTORE PUSH1 0x20 ADD PUSH2 0x1659 JUMP JUMPDEST SWAP1 PUSH1 0x20 SWAP2 PUSH2 0x1692 DUP2 MLOAD DUP1 SWAP3 DUP2 DUP6 MSTORE DUP6 DUP1 DUP7 ADD SWAP2 ADD PUSH2 0x1656 JUMP JUMPDEST PUSH1 0x1F ADD PUSH1 0x1F NOT AND ADD ADD SWAP1 JUMP JUMPDEST DUP1 PUSH1 0x0 MSTORE PUSH1 0x0 PUSH1 0x20 MSTORE PUSH1 0x40 PUSH1 0x0 KECCAK256 CALLER PUSH1 0x0 MSTORE PUSH1 0x20 MSTORE PUSH1 0xFF PUSH1 0x40 PUSH1 0x0 KECCAK256 SLOAD AND ISZERO PUSH2 0x16C4 JUMPI POP JUMP JUMPDEST PUSH1 0x44 SWAP1 PUSH1 0x40 MLOAD SWAP1 PUSH4 0xE2517D3F PUSH1 0xE0 SHL DUP3 MSTORE CALLER PUSH1 0x4 DUP4 ADD MSTORE PUSH1 0x24 DUP3 ADD MSTORE REVERT JUMPDEST PUSH1 0x1 PUSH1 0x1 PUSH1 0xA0 SHL SUB AND PUSH1 0x0 DUP2 DUP2 MSTORE PUSH32 0xA629F6981C2F6895A67DC766E8E03FF72D04A413D0D8773A3CA56E9E474032C1 PUSH1 0x20 MSTORE PUSH1 0x40 DUP2 KECCAK256 SLOAD SWAP1 SWAP2 SWAP1 PUSH1 0x0 DUP1 MLOAD PUSH1 0x20 PUSH2 0x1C28 DUP4 CODECOPY DUP2 MLOAD SWAP2 MSTORE SWAP1 PUSH1 0xFF AND PUSH2 0x177D JUMPI DUP1 DUP4 MSTORE DUP3 PUSH1 0x20 MSTORE PUSH1 0x40 DUP4 KECCAK256 DUP3 DUP5 MSTORE PUSH1 0x20 MSTORE PUSH1 0x40 DUP4 KECCAK256 PUSH1 0x1 PUSH1 0xFF NOT DUP3 SLOAD AND OR SWAP1 SSTORE PUSH32 0x2F8788117E7EFF1D82E926EC794901D17C78024A50270940304540A733656F0D CALLER SWAP4 DUP1 LOG4 PUSH1 0x1 SWAP1 JUMP JUMPDEST POP POP SWAP1 JUMP JUMPDEST SWAP1 PUSH1 0x0 SWAP2 DUP1 DUP4 MSTORE DUP3 PUSH1 0x20 MSTORE PUSH1 0x40 DUP4 KECCAK256 SWAP2 PUSH1 0x1 DUP1 PUSH1 0xA0 SHL SUB AND SWAP2 DUP3 DUP5 MSTORE PUSH1 0x20 MSTORE PUSH1 0xFF PUSH1 0x40 DUP5 KECCAK256 SLOAD AND ISZERO PUSH1 0x0 EQ PUSH2 0x177D JUMPI DUP1 DUP4 MSTORE DUP3 PUSH1 0x20 MSTORE PUSH1 0x40 DUP4 KECCAK256 DUP3 DUP5 MSTORE PUSH1 0x20 MSTORE PUSH1 0x40 DUP4 KECCAK256 PUSH1 0x1 PUSH1 0xFF NOT DUP3 SLOAD AND OR SWAP1 SSTORE PUSH32 0x2F8788117E7EFF1D82E926EC794901D17C78024A50270940304540A733656F0D CALLER SWAP4 DUP1 LOG4 PUSH1 0x1 SWAP1 JUMP JUMPDEST PUSH1 0x1 PUSH1 0x1 PUSH1 0xA0 SHL SUB AND PUSH1 0x0 DUP2 DUP2 MSTORE PUSH32 0xA629F6981C2F6895A67DC766E8E03FF72D04A413D0D8773A3CA56E9E474032C1 PUSH1 0x20 MSTORE PUSH1 0x40 DUP2 KECCAK256 SLOAD SWAP1 SWAP2 SWAP1 PUSH1 0x0 DUP1 MLOAD PUSH1 0x20 PUSH2 0x1C28 DUP4 CODECOPY DUP2 MLOAD SWAP2 MSTORE SWAP1 PUSH1 0xFF AND ISZERO PUSH2 0x177D JUMPI DUP1 DUP4 MSTORE DUP3 PUSH1 0x20 MSTORE PUSH1 0x40 DUP4 KECCAK256 DUP3 DUP5 MSTORE PUSH1 0x20 MSTORE PUSH1 0x40 DUP4 KECCAK256 PUSH1 0xFF NOT DUP2 SLOAD AND SWAP1 SSTORE PUSH32 0xF6391F5C32D9C69D2A47EA670B442974B53935D1EDC7FD64EB21E047A839171B CALLER SWAP4 DUP1 LOG4 PUSH1 0x1 SWAP1 JUMP JUMPDEST SWAP1 PUSH1 0x0 SWAP2 DUP1 DUP4 MSTORE DUP3 PUSH1 0x20 MSTORE PUSH1 0x40 DUP4 KECCAK256 SWAP2 PUSH1 0x1 DUP1 PUSH1 0xA0 SHL SUB AND SWAP2 DUP3 DUP5 MSTORE PUSH1 0x20 MSTORE PUSH1 0xFF PUSH1 0x40 DUP5 KECCAK256 SLOAD AND PUSH1 0x0 EQ PUSH2 0x177D JUMPI DUP1 DUP4 MSTORE DUP3 PUSH1 0x20 MSTORE PUSH1 0x40 DUP4 KECCAK256 DUP3 DUP5 MSTORE PUSH1 0x20 MSTORE PUSH1 0x40 DUP4 KECCAK256 PUSH1 0xFF NOT DUP2 SLOAD AND SWAP1 SSTORE PUSH32 0xF6391F5C32D9C69D2A47EA670B442974B53935D1EDC7FD64EB21E047A839171B CALLER SWAP4 DUP1 LOG4 PUSH1 0x1 SWAP1 JUMP JUMPDEST ISZERO PUSH2 0x1910 JUMPI JUMP JUMPDEST PUSH1 0x40 MLOAD PUSH3 0x461BCD PUSH1 0xE5 SHL DUP2 MSTORE PUSH1 0x20 PUSH1 0x4 DUP3 ADD MSTORE PUSH1 0x17 PUSH1 0x24 DUP3 ADD MSTORE PUSH32 0x43616C6C6572206973206E6F7420616E206F7261636C65000000000000000000 PUSH1 0x44 DUP3 ADD MSTORE PUSH1 0x64 SWAP1 REVERT JUMPDEST DUP2 PUSH1 0x1F DUP3 ADD SLT ISZERO PUSH2 0x1D2 JUMPI DUP1 MLOAD PUSH2 0x196B DUP2 PUSH2 0x1513 JUMP JUMPDEST SWAP3 PUSH2 0x1979 PUSH1 0x40 MLOAD SWAP5 DUP6 PUSH2 0x14F1 JUMP JUMPDEST DUP2 DUP5 MSTORE PUSH1 0x20 DUP3 DUP5 ADD ADD GT PUSH2 0x1D2 JUMPI PUSH2 0x1997 SWAP2 PUSH1 0x20 DUP1 DUP6 ADD SWAP2 ADD PUSH2 0x1656 JUMP JUMPDEST SWAP1 JUMP JUMPDEST MLOAD SWAP1 PUSH1 0x1 PUSH1 0x1 PUSH1 0xA0 SHL SUB DUP3 AND DUP3 SUB PUSH2 0x1D2 JUMPI JUMP JUMPDEST MLOAD SWAP1 DUP2 ISZERO ISZERO DUP3 SUB PUSH2 0x1D2 JUMPI JUMP JUMPDEST SWAP2 SWAP1 DUP3 ADD DUP1 SWAP3 GT PUSH2 0x11A6 JUMPI JUMP JUMPDEST PUSH1 0x0 NOT DUP2 EQ PUSH2 0x11A6 JUMPI PUSH1 0x1 ADD SWAP1 JUMP JUMPDEST DUP2 DUP2 LT PUSH2 0x19E2 JUMPI POP POP JUMP JUMPDEST PUSH1 0x0 DUP2 SSTORE PUSH1 0x1 ADD PUSH2 0x19D7 JUMP JUMPDEST PUSH8 0xFFFFFFFFFFFFFFFF DUP2 GT PUSH2 0x11ED JUMPI PUSH1 0x5 SHL PUSH1 0x20 ADD SWAP1 JUMP JUMPDEST SWAP1 PUSH2 0x1A10 DUP3 PUSH2 0x19EE JUMP JUMPDEST PUSH2 0x1A1D PUSH1 0x40 MLOAD SWAP2 DUP3 PUSH2 0x14F1 JUMP JUMPDEST DUP3 DUP2 MSTORE DUP1 SWAP3 PUSH2 0x1A2E PUSH1 0x1F NOT SWAP2 PUSH2 0x19EE JUMP JUMPDEST ADD SWAP1 PUSH1 0x20 CALLDATASIZE SWAP2 ADD CALLDATACOPY JUMP JUMPDEST DUP1 MLOAD DUP3 LT ISZERO PUSH2 0x14DB JUMPI PUSH1 0x20 SWAP2 PUSH1 0x5 SHL ADD ADD SWAP1 JUMP JUMPDEST SWAP1 DUP2 MLOAD DUP2 LT ISZERO PUSH2 0x14DB JUMPI ADD PUSH1 0x20 ADD SWAP1 JUMP JUMPDEST SWAP2 SWAP1 SWAP2 DUP1 MLOAD DUP4 MLOAD SWAP2 DUP2 ISZERO PUSH2 0x1BDB JUMPI DUP3 ISZERO PUSH2 0x1BD5 JUMPI PUSH1 0x1 DUP1 DUP5 ADD SWAP6 DUP7 DUP6 GT PUSH2 0x11A6 JUMPI PUSH2 0x1A93 PUSH2 0x1A8D DUP9 SWAP6 SWAP5 SWAP9 PUSH2 0x1A06 JUMP JUMPDEST SWAP5 PUSH2 0x1A06 JUMP JUMPDEST SWAP7 PUSH1 0x0 JUMPDEST DUP7 DUP2 GT ISZERO PUSH2 0x1BBA JUMPI POP DUP3 SWAP8 JUMPDEST DUP5 DUP10 GT ISZERO PUSH2 0x1ABF JUMPI POP POP POP POP POP PUSH2 0x1ABB SWAP3 SWAP4 POP PUSH2 0x1A38 JUMP JUMPDEST MLOAD SWAP1 JUMP JUMPDEST DUP1 SWAP6 SWAP5 SWAP6 MLOAD ISZERO PUSH2 0x14DB JUMPI DUP9 PUSH1 0x20 DUP3 ADD MSTORE DUP4 JUMPDEST DUP8 DUP2 GT ISZERO PUSH2 0x1AEC JUMPI POP PUSH2 0x1AE4 SWAP1 SWAP9 PUSH2 0x19C8 JUMP JUMPDEST SWAP8 SWAP5 SWAP4 PUSH2 0x1AA3 JUMP JUMPDEST PUSH1 0x0 NOT DUP11 DUP2 ADD SWAP2 SWAP1 DUP12 DUP4 GT PUSH2 0x11A6 JUMPI PUSH1 0x1 PUSH1 0x1 PUSH1 0xF8 SHL SUB NOT SWAP3 DUP4 SWAP1 PUSH2 0x1B11 SWAP1 DUP8 PUSH2 0x1A4C JUMP JUMPDEST MLOAD AND SWAP1 DUP3 ADD SWAP3 DUP3 DUP5 GT PUSH2 0x11A6 JUMPI PUSH2 0x1B28 DUP5 DUP9 PUSH2 0x1A4C JUMP JUMPDEST MLOAD AND SUB PUSH2 0x1BB4 JUMPI PUSH1 0x0 JUMPDEST PUSH2 0x1B3C DUP4 DUP6 PUSH2 0x1A38 JUMP JUMPDEST MLOAD SWAP3 DUP8 DUP5 ADD DUP1 SWAP5 GT PUSH2 0x11A6 JUMPI PUSH2 0x1B52 DUP4 DUP11 PUSH2 0x1A38 JUMP JUMPDEST MLOAD SWAP1 DUP9 DUP3 ADD DUP1 SWAP3 GT PUSH2 0x11A6 JUMPI PUSH2 0x1B80 PUSH1 0xFF PUSH2 0x1BA0 SWAP7 PUSH2 0x1B86 SWAP5 DUP1 DUP3 LT PUSH1 0x0 EQ PUSH2 0x1BAC JUMPI POP SWAP5 JUMPDEST AND SWAP2 DUP12 PUSH2 0x1A38 JUMP JUMPDEST MLOAD PUSH2 0x19BB JUMP JUMPDEST DUP1 DUP3 LT ISZERO PUSH2 0x1BA5 JUMPI POP JUMPDEST PUSH2 0x1B9A DUP3 DUP6 PUSH2 0x1A38 JUMP JUMPDEST MSTORE PUSH2 0x19C8 JUMP JUMPDEST PUSH2 0x1AD1 JUMP JUMPDEST SWAP1 POP PUSH2 0x1B90 JUMP JUMPDEST SWAP1 POP SWAP5 PUSH2 0x1B78 JUMP JUMPDEST DUP6 PUSH2 0x1B32 JUMP JUMPDEST DUP1 DUP1 PUSH2 0x1B9A PUSH2 0x1BCC SWAP4 DUP10 SWAP13 SWAP9 SWAP10 PUSH2 0x1A38 JUMP JUMPDEST SWAP8 SWAP5 SWAP4 SWAP8 PUSH2 0x1A97 JUMP JUMPDEST POP SWAP3 POP POP JUMP JUMPDEST POP SWAP1 SWAP3 POP POP JUMP JUMPDEST ISZERO PUSH2 0x1BE9 JUMPI JUMP JUMPDEST PUSH1 0x40 MLOAD PUSH3 0x461BCD PUSH1 0xE5 SHL DUP2 MSTORE PUSH1 0x20 PUSH1 0x4 DUP3 ADD MSTORE PUSH1 0x16 PUSH1 0x24 DUP3 ADD MSTORE PUSH22 0x21B0B63632B91034B9903737BA1030B71030B236B4B7 PUSH1 0x51 SHL PUSH1 0x44 DUP3 ADD MSTORE PUSH1 0x64 SWAP1 REVERT INVALID PUSH9 0xE79A7BF1E0BC45D0A3 ADDRESS 0xC5 PUSH20 0xBC367F9CF464FD326078812F301165FBDA4EF1A2 PUSH5 0x6970667358 0x22 SLT KECCAK256 PUSH16 0x29CFB549DA95997E68E406AB625C8D69 SIGNEXTEND EQ PUSH1 0xD0 ISZERO 0xE6 SLT 0x4D GASPRICE SIGNEXTEND 0xC6 NOT 0xDB 0xCB 0xC4 PUSH5 0x736F6C6343 STOP ADDMOD EQ STOP CALLER 0x2F DUP8 DUP9 GT PUSH31 0x7EFF1D82E926EC794901D17C78024A50270940304540A733656F0D00000000 "},"methodIdentifiers":{"ADMIN_ROLE()":"75b238fc","DEFAULT_ADMIN_ROLE()":"a217fddf","ORACLE_ROLE()":"07e2cea5","addOracle(address)":"df5dd1a5","calculateLevenshteinDistance(string,string)":"df6091a3","consensusThreshold()":"f9b0b5b9","getMarketOracleSubmissions(uint256)":"b6135050","getRoleAdmin(bytes32)":"248a9ca3","grantRole(bytes32,address)":"2f2ff15d","hasRole(bytes32,address)":"91d14854","marketOracleSubmissions(uint256,uint256)":"54026568","marketResolutions(uint256)":"83907ce8","minimumOracles()":"5c8de39e","oracleReputation(address)":"74bfa42f","oracleSubmissions(uint256)":"7160552a","predictionMarket()":"def114b6","removeOracle(address)":"fdc85fc4","renounceRole(bytes32,address)":"36568abe","revokeRole(bytes32,address)":"d547741f","submissionCount()":"6ec02be9","submissionWindow()":"e621dbc7","submitOracleData(uint256,string,string,string)":"60d10f38","supportsInterface(bytes4)":"01ffc9a7","updateConsensusParameters(uint256,uint256,uint256)":"a8ecc0bd","voteOnSubmission(uint256,bool)":"4249d3ba"}}}}}