{"contracts/src/PayoutManager.sol":{"PayoutManager":{"abi":[{"inputs":[{"internalType":"address payable","name":"_predictionMarket","type":"address"},{"internalType":"address","name":"_oracle","type":"address"}],"stateMutability":"nonpayable","type":"constructor"},{"inputs":[{"internalType":"address","name":"owner","type":"address"}],"name":"OwnableInvalidOwner","type":"error"},{"inputs":[{"internalType":"address","name":"account","type":"address"}],"name":"OwnableUnauthorizedAccount","type":"error"},{"inputs":[],"name":"ReentrancyGuardReentrantCall","type":"error"},{"anonymous":false,"inputs":[{"indexed":true,"internalType":"address","name":"recipient","type":"address"},{"indexed":false,"internalType":"uint256","name":"amount","type":"uint256"}],"name":"EmergencyWithdrawal","type":"event"},{"anonymous":false,"inputs":[{"indexed":true,"internalType":"address","name":"previousOwner","type":"address"},{"indexed":true,"internalType":"address","name":"newOwner","type":"address"}],"name":"OwnershipTransferred","type":"event"},{"anonymous":false,"inputs":[{"indexed":true,"internalType":"uint256","name":"marketId","type":"uint256"},{"indexed":false,"internalType":"uint256","name":"totalPool","type":"uint256"},{"indexed":false,"internalType":"uint256","name":"winnerPool","type":"uint256"}],"name":"PayoutCalculated","type":"event"},{"anonymous":false,"inputs":[{"indexed":true,"internalType":"address","name":"recipient","type":"address"},{"indexed":false,"internalType":"uint256","name":"amount","type":"uint256"},{"indexed":false,"internalType":"uint256","name":"marketId","type":"uint256"}],"name":"PayoutClaimed","type":"event"},{"anonymous":false,"inputs":[{"indexed":true,"internalType":"address","name":"recipient","type":"address"},{"indexed":false,"internalType":"uint256","name":"amount","type":"uint256"}],"name":"PlatformFeeWithdrawn","type":"event"},{"inputs":[{"internalType":"uint256","name":"_marketId","type":"uint256"}],"name":"calculatePayouts","outputs":[],"stateMutability":"nonpayable","type":"function"},{"inputs":[],"name":"claimAllPayouts","outputs":[],"stateMutability":"nonpayable","type":"function"},{"inputs":[{"internalType":"uint256","name":"_marketId","type":"uint256"}],"name":"claimPayout","outputs":[],"stateMutability":"nonpayable","type":"function"},{"inputs":[],"name":"emergencyWithdraw","outputs":[],"stateMutability":"nonpayable","type":"function"},{"inputs":[{"internalType":"address","name":"_user","type":"address"},{"internalType":"uint256","name":"_marketId","type":"uint256"}],"name":"getUserMarketPayout","outputs":[{"internalType":"uint256","name":"","type":"uint256"}],"stateMutability":"view","type":"function"},{"inputs":[{"internalType":"address","name":"_user","type":"address"}],"name":"getUserUnclaimedPayouts","outputs":[{"internalType":"uint256","name":"","type":"uint256"}],"stateMutability":"view","type":"function"},{"inputs":[{"internalType":"uint256","name":"","type":"uint256"}],"name":"marketPayouts","outputs":[{"internalType":"uint256","name":"totalPool","type":"uint256"},{"internalType":"uint256","name":"winnerPool","type":"uint256"},{"internalType":"uint256","name":"platformFees","type":"uint256"},{"internalType":"uint256","name":"totalPayouts","type":"uint256"},{"internalType":"bool","name":"processed","type":"bool"}],"stateMutability":"view","type":"function"},{"inputs":[],"name":"oracle","outputs":[{"internalType":"contract ClockchainOracle","name":"","type":"address"}],"stateMutability":"view","type":"function"},{"inputs":[],"name":"owner","outputs":[{"internalType":"address","name":"","type":"address"}],"stateMutability":"view","type":"function"},{"inputs":[],"name":"payoutCount","outputs":[{"internalType":"uint256","name":"","type":"uint256"}],"stateMutability":"view","type":"function"},{"inputs":[{"internalType":"uint256","name":"","type":"uint256"}],"name":"payouts","outputs":[{"internalType":"address","name":"recipient","type":"address"},{"internalType":"uint256","name":"amount","type":"uint256"},{"internalType":"uint256","name":"marketId","type":"uint256"},{"internalType":"uint256","name":"submissionId","type":"uint256"},{"internalType":"bool","name":"claimed","type":"bool"},{"internalType":"uint256","name":"timestamp","type":"uint256"}],"stateMutability":"view","type":"function"},{"inputs":[],"name":"platformFeesCollected","outputs":[{"internalType":"uint256","name":"","type":"uint256"}],"stateMutability":"view","type":"function"},{"inputs":[],"name":"predictionMarket","outputs":[{"internalType":"contract PredictionMarket","name":"","type":"address"}],"stateMutability":"view","type":"function"},{"inputs":[],"name":"renounceOwnership","outputs":[],"stateMutability":"nonpayable","type":"function"},{"inputs":[],"name":"totalDistributed","outputs":[{"internalType":"uint256","name":"","type":"uint256"}],"stateMutability":"view","type":"function"},{"inputs":[{"internalType":"address","name":"newOwner","type":"address"}],"name":"transferOwnership","outputs":[],"stateMutability":"nonpayable","type":"function"},{"inputs":[{"internalType":"address","name":"","type":"address"},{"internalType":"uint256","name":"","type":"uint256"}],"name":"userPayouts","outputs":[{"internalType":"uint256","name":"","type":"uint256"}],"stateMutability":"view","type":"function"},{"inputs":[{"internalType":"address","name":"","type":"address"}],"name":"userTotalWinnings","outputs":[{"internalType":"uint256","name":"","type":"uint256"}],"stateMutability":"view","type":"function"},{"inputs":[],"name":"withdrawPlatformFees","outputs":[],"stateMutability":"nonpayable","type":"function"},{"stateMutability":"payable","type":"receive"}],"evm":{"bytecode":{"linkReferences":{},"object":"6080346100e857601f6115fe38819003918201601f19168301916001600160401b038311848410176100ed5780849260409485528339810103126100e85780516001600160a01b0391828216918290036100e85760200151908282168092036100e857600160005533156100cf57600180546001600160a01b0319808216339081179093556040519590939291167f8be0079c531659141344cd1fd0a4f28419497f9722a3daafe3b4186f6b6457e0600080a381600254161760025560035416176003556114fa90816101048239f35b604051631e4fbdf760e01b815260006004820152602490fd5b600080fd5b634e487b7160e01b600052604160045260246000fdfe608080604052600436101561001d575b50361561001b57600080fd5b005b60003560e01c908163088574421461116c57508063239e820814610fc157806329652e8614610f515780633d08f85c14610f065780635783180914610ee85780636249f88f14610e8b578063715018a614610e2e5780637dc0d1d014610e055780638a69614e14610c545780638da5cb5b14610c2b578063b36ffca614610c0d578063c5e6013614610b1b578063ce08c0d114610ac3578063d0b7830b14610a16578063db2e21bc1461096f578063def114b614610946578063e5a4e941146101a7578063efca2eed146101895763f2fde38b146100fb573861000f565b34610184576020366003190112610184576101146111a2565b61011c6111e6565b6001600160a01b0390811690811561016b57600154826001600160601b0360a01b821617600155167f8be0079c531659141344cd1fd0a4f28419497f9722a3daafe3b4186f6b6457e0600080a3005b604051631e4fbdf760e01b815260006004820152602490fd5b600080fd5b34610184576000366003190112610184576020600554604051908152f35b346101845760203660031901126101845760025460405163b1283e7760e01b80825260048035908301526001600160a01b039092169190600081602481865afa90811561032257600091610920575b50156108e5576004356000526008602052604060002091600483015460ff81166108a0576040519283526004356004840152600083602481855afa80156103225760009060009460009161086b575b50604051632417667f60e21b8152600480359082015295600087602481885afa968715610322576000976107a9575b506000938492835b895185101561032e5761028f858b611398565b5190604051916356b99a4f60e11b835260048301526000826024818c5afa918215610322576000926102f4575b50866102c8878d611398565b51036102df57506102d99094611389565b9361027c565b94966102d9916102ee91611427565b96611389565b6103129192503d806000833e61030a818361122e565b8101906113ac565b505050509350505050908b6102bc565b6040513d6000823e3d90fd5b8387878585808e038e811161079357610363926001918755878288015582600288015560ff1916176004860155600654611427565b600655836103a9575b826001815491015460405191825260208201527fae5e75dfca51b0e8dff8f3244f8f5b11586dfafb4ca34d5f5961f7b92eb9609a604060043592a2005b60043560005260086020526040600020916004602060018060a01b03600254166040519283809263cf09449760e01b82525afa90811561032257600091610761575b5060005b8181106105985750506002546040516356b99a4f60e11b815260048101849052949590600090869060249082906001600160a01b03165afa91821561032257600095600093610552575b50926104618361045b61053f946104566003986105489a98611434565b611447565b90611427565b9560018060a01b031680600052600584016020526040600020610485888254611427565b90556004549161049483611389565b6004556005604051916104a683611212565b83835261052960208401918b8352604085019060043582526060860190815260808601916000835260a087019442865289600052600760205260406000209760018060a01b039051166001600160601b0360a01b895416178855516001880155516002870155518a860155511515600485019060ff801983541691151516179055565b5191015560005260096020526040600020611467565b01918254611427565b905580828061036c565b61045696506105489593506003949161045b61053f9461057f610461943d806000833e61030a818361122e565b50505050509c9250509a97995050945050919450610439565b600254604051631157807d60e11b8152600481018390529190608090839060249082906001600160a01b03165afa8015610322576000908660008092610715575b6105eb9550146105f0575b5050611389565b6103ef565b6106058161045b8c6104568a61070c96611434565b9160018060a01b038116600052600589016020526040600020610629848254611427565b905561070260045461063a81611389565b6004556040519261064a84611212565b60018060a01b038116845285602085015260043560408501528a60608501526000608085015260a08401428152826000526007602052600560406000209160018060a01b038751166001600160601b0360a01b84541617835560208701516001840155604087015160028401556106e260806060890151986003998a87015501511515600485019060ff801983541691151516179055565b519101556001600160a01b03166000908152600960205260409020611467565b8801918254611427565b905588806105e4565b505050506080823d608011610759575b816107326080938361122e565b8101031261018457816107476105eb936112c1565b866040602084015193015191926105d9565b3d9150610725565b90506020813d60201161078b575b8161077c6020938361122e565b810103126101845751866103eb565b3d915061076f565b634e487b7160e01b600052601160045260246000fd5b9096503d806000833e6107bc818361122e565b8101906020818303126101845780519167ffffffffffffffff928381116101845781601f8285010112156101845780830151938411610855578360051b6040519461080a602083018761122e565b855260208501926020828487010101116101845783820160200192915b602082828701010184106108415750505050509587610274565b602080809486518152019401939250610827565b634e487b7160e01b600052604160045260246000fd5b91505061088c9193503d806000833e610884818361122e565b8101906112e2565b9b9950505050945092505050909386610245565b60405162461bcd60e51b815260206004820152601a60248201527f5061796f75747320616c72656164792063616c63756c617465640000000000006044820152606490fd5b60405162461bcd60e51b815260206004820152601360248201527213585c9ad95d081b9bdd081c995cdbdb1d9959606a1b6044820152606490fd5b61093591503d806000833e610884818361122e565b5050505050509350505050836101f6565b34610184576000366003190112610184576002546040516001600160a01b039091168152602090f35b34610184576000366003190112610184576109886111e6565b4780156109da5760018060a01b03600080808085856001541682f1156103225760207f23d6711a1d031134a36921253c75aa59e967d38e369ac625992824315e204f20916001541692604051908152a2005b60405162461bcd60e51b81526020600482015260146024820152734e6f2066756e647320746f20776974686472617760601b6044820152606490fd5b3461018457600036600319011261018457610a2f6111e6565b6006548015610a8857600060065560018060a01b03600080808085856001541682f1156103225760207fd116803f8b8538a601b6096e8d1196e3ce3ef43dec6dbbe4cd4e5c69dd171d8b916001541692604051908152a2005b60405162461bcd60e51b81526020600482015260136024820152724e6f206665657320746f20776974686472617760681b6044820152606490fd5b3461018457604036600319011261018457610adc6111a2565b6001600160a01b031660009081526009602052604090208054602435919082101561018457602091610b0d916111b8565b90546040519160031b1c8152f35b3461018457602080600319360112610184576001600160a01b0380610b3e6111a2565b168060005260098352604060002091604051808486829654938481520190600052866000209260005b88828210610bf757505050610b7e9250038461122e565b60009060005b8451811015610bed57610b978186611398565b5160005260078652604060002060ff6004820154161580610be1575b610bc7575b50610bc290611389565b610b84565b610bc291936001610bda92015490611427565b9290610bb8565b50848382541614610bb3565b8583604051908152f35b8554845260019586019589955093019201610b67565b34610184576000366003190112610184576020600654604051908152f35b34610184576000366003190112610184576001546040516001600160a01b039091168152602090f35b346101845760208060031936011261018457600435610c716114a1565b806000526008825260406000209160ff60048401541615610dc85760068301923360005283825260ff60406000205416610d91576005013360005280825260406000205415610d56573360005281526040600020549281526040600020600160ff19825416179055600a81526040600020610ced848254611427565b9055610cfb83600554611427565b6005558260008115610d4d575b600080809381933390f115610322576040519283528201527f0408e6e0b73daf4c873106e95fd067260fbff8bf9d1b499cad563d4480d45bac60403392a26001600055005b506108fc610d08565b60405162461bcd60e51b81526004810183905260136024820152724e6f207061796f757420617661696c61626c6560681b6044820152606490fd5b60405162461bcd60e51b815260048101839052600f60248201526e105b1c9958591e4818db185a5b5959608a1b6044820152606490fd5b6064906040519062461bcd60e51b82526004820152601660248201527514185e5bdd5d1cc81b9bdd0818d85b18dd5b185d195960521b6044820152fd5b34610184576000366003190112610184576003546040516001600160a01b039091168152602090f35b3461018457600036600319011261018457610e476111e6565b600180546001600160a01b031981169091556000906001600160a01b03167f8be0079c531659141344cd1fd0a4f28419497f9722a3daafe3b4186f6b6457e08280a3005b3461018457602036600319011261018457600435600052600860205260a06040600020805490600181015490600281015460ff60046003840154930154169260405194855260208501526040840152606083015215156080820152f35b34610184576000366003190112610184576020600454604051908152f35b3461018457604036600319011261018457610f1f6111a2565b602435600052600860205260056040600020019060018060a01b03166000526020526020604060002054604051908152f35b3461018457602036600319011261018457600435600052600760205260c0604060002060018060a01b03815416906001810154906002810154600382015490600560ff600485015416930154936040519586526020860152604085015260608401521515608083015260a0820152f35b3461018457600036600319011261018457610fda6114a1565b33600052602060098152604060002090604051808383829554938481520190600052836000209260005b858282106111565750505061101b9250038361122e565b6000805b83518210156110d8576110328285611398565b51600052600783526040600020916004830180549060ff821615806110c5575b61106a575b5050611064919250611389565b9061101f565b61108a61106494926002926001809260ff19161790558601548093611427565b940154604051918252858201527f0408e6e0b73daf4c873106e95fd067260fbff8bf9d1b499cad563d4480d45bac60403392a2829186611057565b5084546001600160a01b03163314611052565b82811561111b576000808093600a829433845252604082206110fb828254611427565b905561110981600554611427565b6005553382f115610322576001600055005b6064906040519062461bcd60e51b8252600482015260146024820152734e6f20756e636c61696d6564207061796f75747360601b6044820152fd5b8554845260019586019588955093019201611004565b34610184576020366003190112610184576020906001600160a01b036111906111a2565b16600052600a82526040600020548152f35b600435906001600160a01b038216820361018457565b80548210156111d05760005260206000200190600090565b634e487b7160e01b600052603260045260246000fd5b6001546001600160a01b031633036111fa57565b60405163118cdaa760e01b8152336004820152602490fd5b60c0810190811067ffffffffffffffff82111761085557604052565b90601f8019910116810190811067ffffffffffffffff82111761085557604052565b919080601f840112156101845782519067ffffffffffffffff82116108555760405191602091611289601f8301601f191684018561122e565b8184528282870101116101845760005b8181106112ae57508260009394955001015290565b8581018301518482018401528201611299565b51906001600160a01b038216820361018457565b5190811515820361018457565b90610160828203126101845781519067ffffffffffffffff91828111610184578161130e918501611250565b9361131b602085016112c1565b93604081015193606082015193611334608084016112d5565b9360a08401519360c08101519360e08201518181116101845784611359918401611250565b9361010083015191821161018457611372918301611250565b9161014061138361012084016112d5565b92015190565b60001981146107935760010190565b80518210156111d05760209160051b010190565b919061012083820312610184578251926113c8602082016112c1565b9260408201519267ffffffffffffffff9384811161018457816113ec918501611250565b9360608401519360808101519360a08201519361140b60c084016112d5565b9360e08401519081116101845761010091611383918501611250565b9190820180921161079357565b8181029291811591840414171561079357565b8115611451570490565b634e487b7160e01b600052601260045260246000fd5b80546801000000000000000081101561085557611489916001820181556111b8565b819291549060031b91821b91600019901b1916179055565b6002600054146114b2576002600055565b604051633ee5aeb560e01b8152600490fdfea2646970667358221220e4fa366329c0bd5bbab516c898962e72d7b78832d6c2950488c2121dd7f19ac664736f6c63430008140033","opcodes":"PUSH1 0x80 CALLVALUE PUSH2 0xE8 JUMPI PUSH1 0x1F PUSH2 0x15FE CODESIZE DUP2 SWAP1 SUB SWAP2 DUP3 ADD PUSH1 0x1F NOT AND DUP4 ADD SWAP2 PUSH1 0x1 PUSH1 0x1 PUSH1 0x40 SHL SUB DUP4 GT DUP5 DUP5 LT OR PUSH2 0xED JUMPI DUP1 DUP5 SWAP3 PUSH1 0x40 SWAP5 DUP6 MSTORE DUP4 CODECOPY DUP2 ADD SUB SLT PUSH2 0xE8 JUMPI DUP1 MLOAD PUSH1 0x1 PUSH1 0x1 PUSH1 0xA0 SHL SUB SWAP2 DUP3 DUP3 AND SWAP2 DUP3 SWAP1 SUB PUSH2 0xE8 JUMPI PUSH1 0x20 ADD MLOAD SWAP1 DUP3 DUP3 AND DUP1 SWAP3 SUB PUSH2 0xE8 JUMPI PUSH1 0x1 PUSH1 0x0 SSTORE CALLER ISZERO PUSH2 0xCF JUMPI PUSH1 0x1 DUP1 SLOAD PUSH1 0x1 PUSH1 0x1 PUSH1 0xA0 SHL SUB NOT DUP1 DUP3 AND CALLER SWAP1 DUP2 OR SWAP1 SWAP4 SSTORE PUSH1 0x40 MLOAD SWAP6 SWAP1 SWAP4 SWAP3 SWAP2 AND PUSH32 0x8BE0079C531659141344CD1FD0A4F28419497F9722A3DAAFE3B4186F6B6457E0 PUSH1 0x0 DUP1 LOG3 DUP2 PUSH1 0x2 SLOAD AND OR PUSH1 0x2 SSTORE PUSH1 0x3 SLOAD AND OR PUSH1 0x3 SSTORE PUSH2 0x14FA SWAP1 DUP2 PUSH2 0x104 DUP3 CODECOPY RETURN JUMPDEST PUSH1 0x40 MLOAD PUSH4 0x1E4FBDF7 PUSH1 0xE0 SHL DUP2 MSTORE PUSH1 0x0 PUSH1 0x4 DUP3 ADD MSTORE PUSH1 0x24 SWAP1 REVERT JUMPDEST PUSH1 0x0 DUP1 REVERT JUMPDEST PUSH4 0x4E487B71 PUSH1 0xE0 SHL PUSH1 0x0 MSTORE PUSH1 0x41 PUSH1 0x4 MSTORE PUSH1 0x24 PUSH1 0x0 REVERT INVALID PUSH1 0x80 DUP1 PUSH1 0x40 MSTORE PUSH1 0x4 CALLDATASIZE LT ISZERO PUSH2 0x1D JUMPI JUMPDEST POP CALLDATASIZE ISZERO PUSH2 0x1B JUMPI PUSH1 0x0 DUP1 REVERT JUMPDEST STOP JUMPDEST PUSH1 0x0 CALLDATALOAD PUSH1 0xE0 SHR SWAP1 DUP2 PUSH4 0x8857442 EQ PUSH2 0x116C JUMPI POP DUP1 PUSH4 0x239E8208 EQ PUSH2 0xFC1 JUMPI DUP1 PUSH4 0x29652E86 EQ PUSH2 0xF51 JUMPI DUP1 PUSH4 0x3D08F85C EQ PUSH2 0xF06 JUMPI DUP1 PUSH4 0x57831809 EQ PUSH2 0xEE8 JUMPI DUP1 PUSH4 0x6249F88F EQ PUSH2 0xE8B JUMPI DUP1 PUSH4 0x715018A6 EQ PUSH2 0xE2E JUMPI DUP1 PUSH4 0x7DC0D1D0 EQ PUSH2 0xE05 JUMPI DUP1 PUSH4 0x8A69614E EQ PUSH2 0xC54 JUMPI DUP1 PUSH4 0x8DA5CB5B EQ PUSH2 0xC2B JUMPI DUP1 PUSH4 0xB36FFCA6 EQ PUSH2 0xC0D JUMPI DUP1 PUSH4 0xC5E60136 EQ PUSH2 0xB1B JUMPI DUP1 PUSH4 0xCE08C0D1 EQ PUSH2 0xAC3 JUMPI DUP1 PUSH4 0xD0B7830B EQ PUSH2 0xA16 JUMPI DUP1 PUSH4 0xDB2E21BC EQ PUSH2 0x96F JUMPI DUP1 PUSH4 0xDEF114B6 EQ PUSH2 0x946 JUMPI DUP1 PUSH4 0xE5A4E941 EQ PUSH2 0x1A7 JUMPI DUP1 PUSH4 0xEFCA2EED EQ PUSH2 0x189 JUMPI PUSH4 0xF2FDE38B EQ PUSH2 0xFB JUMPI CODESIZE PUSH2 0xF JUMP JUMPDEST CALLVALUE PUSH2 0x184 JUMPI PUSH1 0x20 CALLDATASIZE PUSH1 0x3 NOT ADD SLT PUSH2 0x184 JUMPI PUSH2 0x114 PUSH2 0x11A2 JUMP JUMPDEST PUSH2 0x11C PUSH2 0x11E6 JUMP JUMPDEST PUSH1 0x1 PUSH1 0x1 PUSH1 0xA0 SHL SUB SWAP1 DUP2 AND SWAP1 DUP2 ISZERO PUSH2 0x16B JUMPI PUSH1 0x1 SLOAD DUP3 PUSH1 0x1 PUSH1 0x1 PUSH1 0x60 SHL SUB PUSH1 0xA0 SHL DUP3 AND OR PUSH1 0x1 SSTORE AND PUSH32 0x8BE0079C531659141344CD1FD0A4F28419497F9722A3DAAFE3B4186F6B6457E0 PUSH1 0x0 DUP1 LOG3 STOP JUMPDEST PUSH1 0x40 MLOAD PUSH4 0x1E4FBDF7 PUSH1 0xE0 SHL DUP2 MSTORE PUSH1 0x0 PUSH1 0x4 DUP3 ADD MSTORE PUSH1 0x24 SWAP1 REVERT JUMPDEST PUSH1 0x0 DUP1 REVERT JUMPDEST CALLVALUE PUSH2 0x184 JUMPI PUSH1 0x0 CALLDATASIZE PUSH1 0x3 NOT ADD SLT PUSH2 0x184 JUMPI PUSH1 0x20 PUSH1 0x5 SLOAD PUSH1 0x40 MLOAD SWAP1 DUP2 MSTORE RETURN JUMPDEST CALLVALUE PUSH2 0x184 JUMPI PUSH1 0x20 CALLDATASIZE PUSH1 0x3 NOT ADD SLT PUSH2 0x184 JUMPI PUSH1 0x2 SLOAD PUSH1 0x40 MLOAD PUSH4 0xB1283E77 PUSH1 0xE0 SHL DUP1 DUP3 MSTORE PUSH1 0x4 DUP1 CALLDATALOAD SWAP1 DUP4 ADD MSTORE PUSH1 0x1 PUSH1 0x1 PUSH1 0xA0 SHL SUB SWAP1 SWAP3 AND SWAP2 SWAP1 PUSH1 0x0 DUP2 PUSH1 0x24 DUP2 DUP7 GAS STATICCALL SWAP1 DUP2 ISZERO PUSH2 0x322 JUMPI PUSH1 0x0 SWAP2 PUSH2 0x920 JUMPI JUMPDEST POP ISZERO PUSH2 0x8E5 JUMPI PUSH1 0x4 CALLDATALOAD PUSH1 0x0 MSTORE PUSH1 0x8 PUSH1 0x20 MSTORE PUSH1 0x40 PUSH1 0x0 KECCAK256 SWAP2 PUSH1 0x4 DUP4 ADD SLOAD PUSH1 0xFF DUP2 AND PUSH2 0x8A0 JUMPI PUSH1 0x40 MLOAD SWAP3 DUP4 MSTORE PUSH1 0x4 CALLDATALOAD PUSH1 0x4 DUP5 ADD MSTORE PUSH1 0x0 DUP4 PUSH1 0x24 DUP2 DUP6 GAS STATICCALL DUP1 ISZERO PUSH2 0x322 JUMPI PUSH1 0x0 SWAP1 PUSH1 0x0 SWAP5 PUSH1 0x0 SWAP2 PUSH2 0x86B JUMPI JUMPDEST POP PUSH1 0x40 MLOAD PUSH4 0x2417667F PUSH1 0xE2 SHL DUP2 MSTORE PUSH1 0x4 DUP1 CALLDATALOAD SWAP1 DUP3 ADD MSTORE SWAP6 PUSH1 0x0 DUP8 PUSH1 0x24 DUP2 DUP9 GAS STATICCALL SWAP7 DUP8 ISZERO PUSH2 0x322 JUMPI PUSH1 0x0 SWAP8 PUSH2 0x7A9 JUMPI JUMPDEST POP PUSH1 0x0 SWAP4 DUP5 SWAP3 DUP4 JUMPDEST DUP10 MLOAD DUP6 LT ISZERO PUSH2 0x32E JUMPI PUSH2 0x28F DUP6 DUP12 PUSH2 0x1398 JUMP JUMPDEST MLOAD SWAP1 PUSH1 0x40 MLOAD SWAP2 PUSH4 0x56B99A4F PUSH1 0xE1 SHL DUP4 MSTORE PUSH1 0x4 DUP4 ADD MSTORE PUSH1 0x0 DUP3 PUSH1 0x24 DUP2 DUP13 GAS STATICCALL SWAP2 DUP3 ISZERO PUSH2 0x322 JUMPI PUSH1 0x0 SWAP3 PUSH2 0x2F4 JUMPI JUMPDEST POP DUP7 PUSH2 0x2C8 DUP8 DUP14 PUSH2 0x1398 JUMP JUMPDEST MLOAD SUB PUSH2 0x2DF JUMPI POP PUSH2 0x2D9 SWAP1 SWAP5 PUSH2 0x1389 JUMP JUMPDEST SWAP4 PUSH2 0x27C JUMP JUMPDEST SWAP5 SWAP7 PUSH2 0x2D9 SWAP2 PUSH2 0x2EE SWAP2 PUSH2 0x1427 JUMP JUMPDEST SWAP7 PUSH2 0x1389 JUMP JUMPDEST PUSH2 0x312 SWAP2 SWAP3 POP RETURNDATASIZE DUP1 PUSH1 0x0 DUP4 RETURNDATACOPY PUSH2 0x30A DUP2 DUP4 PUSH2 0x122E JUMP JUMPDEST DUP2 ADD SWAP1 PUSH2 0x13AC JUMP JUMPDEST POP POP POP POP SWAP4 POP POP POP POP SWAP1 DUP12 PUSH2 0x2BC JUMP JUMPDEST PUSH1 0x40 MLOAD RETURNDATASIZE PUSH1 0x0 DUP3 RETURNDATACOPY RETURNDATASIZE SWAP1 REVERT JUMPDEST DUP4 DUP8 DUP8 DUP6 DUP6 DUP1 DUP15 SUB DUP15 DUP2 GT PUSH2 0x793 JUMPI PUSH2 0x363 SWAP3 PUSH1 0x1 SWAP2 DUP8 SSTORE DUP8 DUP3 DUP9 ADD SSTORE DUP3 PUSH1 0x2 DUP9 ADD SSTORE PUSH1 0xFF NOT AND OR PUSH1 0x4 DUP7 ADD SSTORE PUSH1 0x6 SLOAD PUSH2 0x1427 JUMP JUMPDEST PUSH1 0x6 SSTORE DUP4 PUSH2 0x3A9 JUMPI JUMPDEST DUP3 PUSH1 0x1 DUP2 SLOAD SWAP2 ADD SLOAD PUSH1 0x40 MLOAD SWAP2 DUP3 MSTORE PUSH1 0x20 DUP3 ADD MSTORE PUSH32 0xAE5E75DFCA51B0E8DFF8F3244F8F5B11586DFAFB4CA34D5F5961F7B92EB9609A PUSH1 0x40 PUSH1 0x4 CALLDATALOAD SWAP3 LOG2 STOP JUMPDEST PUSH1 0x4 CALLDATALOAD PUSH1 0x0 MSTORE PUSH1 0x8 PUSH1 0x20 MSTORE PUSH1 0x40 PUSH1 0x0 KECCAK256 SWAP2 PUSH1 0x4 PUSH1 0x20 PUSH1 0x1 DUP1 PUSH1 0xA0 SHL SUB PUSH1 0x2 SLOAD AND PUSH1 0x40 MLOAD SWAP3 DUP4 DUP1 SWAP3 PUSH4 0xCF094497 PUSH1 0xE0 SHL DUP3 MSTORE GAS STATICCALL SWAP1 DUP2 ISZERO PUSH2 0x322 JUMPI PUSH1 0x0 SWAP2 PUSH2 0x761 JUMPI JUMPDEST POP PUSH1 0x0 JUMPDEST DUP2 DUP2 LT PUSH2 0x598 JUMPI POP POP PUSH1 0x2 SLOAD PUSH1 0x40 MLOAD PUSH4 0x56B99A4F PUSH1 0xE1 SHL DUP2 MSTORE PUSH1 0x4 DUP2 ADD DUP5 SWAP1 MSTORE SWAP5 SWAP6 SWAP1 PUSH1 0x0 SWAP1 DUP7 SWAP1 PUSH1 0x24 SWAP1 DUP3 SWAP1 PUSH1 0x1 PUSH1 0x1 PUSH1 0xA0 SHL SUB AND GAS STATICCALL SWAP2 DUP3 ISZERO PUSH2 0x322 JUMPI PUSH1 0x0 SWAP6 PUSH1 0x0 SWAP4 PUSH2 0x552 JUMPI JUMPDEST POP SWAP3 PUSH2 0x461 DUP4 PUSH2 0x45B PUSH2 0x53F SWAP5 PUSH2 0x456 PUSH1 0x3 SWAP9 PUSH2 0x548 SWAP11 SWAP9 PUSH2 0x1434 JUMP JUMPDEST PUSH2 0x1447 JUMP JUMPDEST SWAP1 PUSH2 0x1427 JUMP JUMPDEST SWAP6 PUSH1 0x1 DUP1 PUSH1 0xA0 SHL SUB AND DUP1 PUSH1 0x0 MSTORE PUSH1 0x5 DUP5 ADD PUSH1 0x20 MSTORE PUSH1 0x40 PUSH1 0x0 KECCAK256 PUSH2 0x485 DUP9 DUP3 SLOAD PUSH2 0x1427 JUMP JUMPDEST SWAP1 SSTORE PUSH1 0x4 SLOAD SWAP2 PUSH2 0x494 DUP4 PUSH2 0x1389 JUMP JUMPDEST PUSH1 0x4 SSTORE PUSH1 0x5 PUSH1 0x40 MLOAD SWAP2 PUSH2 0x4A6 DUP4 PUSH2 0x1212 JUMP JUMPDEST DUP4 DUP4 MSTORE PUSH2 0x529 PUSH1 0x20 DUP5 ADD SWAP2 DUP12 DUP4 MSTORE PUSH1 0x40 DUP6 ADD SWAP1 PUSH1 0x4 CALLDATALOAD DUP3 MSTORE PUSH1 0x60 DUP7 ADD SWAP1 DUP2 MSTORE PUSH1 0x80 DUP7 ADD SWAP2 PUSH1 0x0 DUP4 MSTORE PUSH1 0xA0 DUP8 ADD SWAP5 TIMESTAMP DUP7 MSTORE DUP10 PUSH1 0x0 MSTORE PUSH1 0x7 PUSH1 0x20 MSTORE PUSH1 0x40 PUSH1 0x0 KECCAK256 SWAP8 PUSH1 0x1 DUP1 PUSH1 0xA0 SHL SUB SWAP1 MLOAD AND PUSH1 0x1 PUSH1 0x1 PUSH1 0x60 SHL SUB PUSH1 0xA0 SHL DUP10 SLOAD AND OR DUP9 SSTORE MLOAD PUSH1 0x1 DUP9 ADD SSTORE MLOAD PUSH1 0x2 DUP8 ADD SSTORE MLOAD DUP11 DUP7 ADD SSTORE MLOAD ISZERO ISZERO PUSH1 0x4 DUP6 ADD SWAP1 PUSH1 0xFF DUP1 NOT DUP4 SLOAD AND SWAP2 ISZERO ISZERO AND OR SWAP1 SSTORE JUMP JUMPDEST MLOAD SWAP2 ADD SSTORE PUSH1 0x0 MSTORE PUSH1 0x9 PUSH1 0x20 MSTORE PUSH1 0x40 PUSH1 0x0 KECCAK256 PUSH2 0x1467 JUMP JUMPDEST ADD SWAP2 DUP3 SLOAD PUSH2 0x1427 JUMP JUMPDEST SWAP1 SSTORE DUP1 DUP3 DUP1 PUSH2 0x36C JUMP JUMPDEST PUSH2 0x456 SWAP7 POP PUSH2 0x548 SWAP6 SWAP4 POP PUSH1 0x3 SWAP5 SWAP2 PUSH2 0x45B PUSH2 0x53F SWAP5 PUSH2 0x57F PUSH2 0x461 SWAP5 RETURNDATASIZE DUP1 PUSH1 0x0 DUP4 RETURNDATACOPY PUSH2 0x30A DUP2 DUP4 PUSH2 0x122E JUMP JUMPDEST POP POP POP POP POP SWAP13 SWAP3 POP POP SWAP11 SWAP8 SWAP10 POP POP SWAP5 POP POP SWAP2 SWAP5 POP PUSH2 0x439 JUMP JUMPDEST PUSH1 0x2 SLOAD PUSH1 0x40 MLOAD PUSH4 0x1157807D PUSH1 0xE1 SHL DUP2 MSTORE PUSH1 0x4 DUP2 ADD DUP4 SWAP1 MSTORE SWAP2 SWAP1 PUSH1 0x80 SWAP1 DUP4 SWAP1 PUSH1 0x24 SWAP1 DUP3 SWAP1 PUSH1 0x1 PUSH1 0x1 PUSH1 0xA0 SHL SUB AND GAS STATICCALL DUP1 ISZERO PUSH2 0x322 JUMPI PUSH1 0x0 SWAP1 DUP7 PUSH1 0x0 DUP1 SWAP3 PUSH2 0x715 JUMPI JUMPDEST PUSH2 0x5EB SWAP6 POP EQ PUSH2 0x5F0 JUMPI JUMPDEST POP POP PUSH2 0x1389 JUMP JUMPDEST PUSH2 0x3EF JUMP JUMPDEST PUSH2 0x605 DUP2 PUSH2 0x45B DUP13 PUSH2 0x456 DUP11 PUSH2 0x70C SWAP7 PUSH2 0x1434 JUMP JUMPDEST SWAP2 PUSH1 0x1 DUP1 PUSH1 0xA0 SHL SUB DUP2 AND PUSH1 0x0 MSTORE PUSH1 0x5 DUP10 ADD PUSH1 0x20 MSTORE PUSH1 0x40 PUSH1 0x0 KECCAK256 PUSH2 0x629 DUP5 DUP3 SLOAD PUSH2 0x1427 JUMP JUMPDEST SWAP1 SSTORE PUSH2 0x702 PUSH1 0x4 SLOAD PUSH2 0x63A DUP2 PUSH2 0x1389 JUMP JUMPDEST PUSH1 0x4 SSTORE PUSH1 0x40 MLOAD SWAP3 PUSH2 0x64A DUP5 PUSH2 0x1212 JUMP JUMPDEST PUSH1 0x1 DUP1 PUSH1 0xA0 SHL SUB DUP2 AND DUP5 MSTORE DUP6 PUSH1 0x20 DUP6 ADD MSTORE PUSH1 0x4 CALLDATALOAD PUSH1 0x40 DUP6 ADD MSTORE DUP11 PUSH1 0x60 DUP6 ADD MSTORE PUSH1 0x0 PUSH1 0x80 DUP6 ADD MSTORE PUSH1 0xA0 DUP5 ADD TIMESTAMP DUP2 MSTORE DUP3 PUSH1 0x0 MSTORE PUSH1 0x7 PUSH1 0x20 MSTORE PUSH1 0x5 PUSH1 0x40 PUSH1 0x0 KECCAK256 SWAP2 PUSH1 0x1 DUP1 PUSH1 0xA0 SHL SUB DUP8 MLOAD AND PUSH1 0x1 PUSH1 0x1 PUSH1 0x60 SHL SUB PUSH1 0xA0 SHL DUP5 SLOAD AND OR DUP4 SSTORE PUSH1 0x20 DUP8 ADD MLOAD PUSH1 0x1 DUP5 ADD SSTORE PUSH1 0x40 DUP8 ADD MLOAD PUSH1 0x2 DUP5 ADD SSTORE PUSH2 0x6E2 PUSH1 0x80 PUSH1 0x60 DUP10 ADD MLOAD SWAP9 PUSH1 0x3 SWAP10 DUP11 DUP8 ADD SSTORE ADD MLOAD ISZERO ISZERO PUSH1 0x4 DUP6 ADD SWAP1 PUSH1 0xFF DUP1 NOT DUP4 SLOAD AND SWAP2 ISZERO ISZERO AND OR SWAP1 SSTORE JUMP JUMPDEST MLOAD SWAP2 ADD SSTORE PUSH1 0x1 PUSH1 0x1 PUSH1 0xA0 SHL SUB AND PUSH1 0x0 SWAP1 DUP2 MSTORE PUSH1 0x9 PUSH1 0x20 MSTORE PUSH1 0x40 SWAP1 KECCAK256 PUSH2 0x1467 JUMP JUMPDEST DUP9 ADD SWAP2 DUP3 SLOAD PUSH2 0x1427 JUMP JUMPDEST SWAP1 SSTORE DUP9 DUP1 PUSH2 0x5E4 JUMP JUMPDEST POP POP POP POP PUSH1 0x80 DUP3 RETURNDATASIZE PUSH1 0x80 GT PUSH2 0x759 JUMPI JUMPDEST DUP2 PUSH2 0x732 PUSH1 0x80 SWAP4 DUP4 PUSH2 0x122E JUMP JUMPDEST DUP2 ADD SUB SLT PUSH2 0x184 JUMPI DUP2 PUSH2 0x747 PUSH2 0x5EB SWAP4 PUSH2 0x12C1 JUMP JUMPDEST DUP7 PUSH1 0x40 PUSH1 0x20 DUP5 ADD MLOAD SWAP4 ADD MLOAD SWAP2 SWAP3 PUSH2 0x5D9 JUMP JUMPDEST RETURNDATASIZE SWAP2 POP PUSH2 0x725 JUMP JUMPDEST SWAP1 POP PUSH1 0x20 DUP2 RETURNDATASIZE PUSH1 0x20 GT PUSH2 0x78B JUMPI JUMPDEST DUP2 PUSH2 0x77C PUSH1 0x20 SWAP4 DUP4 PUSH2 0x122E JUMP JUMPDEST DUP2 ADD SUB SLT PUSH2 0x184 JUMPI MLOAD DUP7 PUSH2 0x3EB JUMP JUMPDEST RETURNDATASIZE SWAP2 POP PUSH2 0x76F JUMP JUMPDEST PUSH4 0x4E487B71 PUSH1 0xE0 SHL PUSH1 0x0 MSTORE PUSH1 0x11 PUSH1 0x4 MSTORE PUSH1 0x24 PUSH1 0x0 REVERT JUMPDEST SWAP1 SWAP7 POP RETURNDATASIZE DUP1 PUSH1 0x0 DUP4 RETURNDATACOPY PUSH2 0x7BC DUP2 DUP4 PUSH2 0x122E JUMP JUMPDEST DUP2 ADD SWAP1 PUSH1 0x20 DUP2 DUP4 SUB SLT PUSH2 0x184 JUMPI DUP1 MLOAD SWAP2 PUSH8 0xFFFFFFFFFFFFFFFF SWAP3 DUP4 DUP2 GT PUSH2 0x184 JUMPI DUP2 PUSH1 0x1F DUP3 DUP6 ADD ADD SLT ISZERO PUSH2 0x184 JUMPI DUP1 DUP4 ADD MLOAD SWAP4 DUP5 GT PUSH2 0x855 JUMPI DUP4 PUSH1 0x5 SHL PUSH1 0x40 MLOAD SWAP5 PUSH2 0x80A PUSH1 0x20 DUP4 ADD DUP8 PUSH2 0x122E JUMP JUMPDEST DUP6 MSTORE PUSH1 0x20 DUP6 ADD SWAP3 PUSH1 0x20 DUP3 DUP5 DUP8 ADD ADD ADD GT PUSH2 0x184 JUMPI DUP4 DUP3 ADD PUSH1 0x20 ADD SWAP3 SWAP2 JUMPDEST PUSH1 0x20 DUP3 DUP3 DUP8 ADD ADD ADD DUP5 LT PUSH2 0x841 JUMPI POP POP POP POP POP SWAP6 DUP8 PUSH2 0x274 JUMP JUMPDEST PUSH1 0x20 DUP1 DUP1 SWAP5 DUP7 MLOAD DUP2 MSTORE ADD SWAP5 ADD SWAP4 SWAP3 POP PUSH2 0x827 JUMP JUMPDEST PUSH4 0x4E487B71 PUSH1 0xE0 SHL PUSH1 0x0 MSTORE PUSH1 0x41 PUSH1 0x4 MSTORE PUSH1 0x24 PUSH1 0x0 REVERT JUMPDEST SWAP2 POP POP PUSH2 0x88C SWAP2 SWAP4 POP RETURNDATASIZE DUP1 PUSH1 0x0 DUP4 RETURNDATACOPY PUSH2 0x884 DUP2 DUP4 PUSH2 0x122E JUMP JUMPDEST DUP2 ADD SWAP1 PUSH2 0x12E2 JUMP JUMPDEST SWAP12 SWAP10 POP POP POP POP SWAP5 POP SWAP3 POP POP POP SWAP1 SWAP4 DUP7 PUSH2 0x245 JUMP JUMPDEST PUSH1 0x40 MLOAD PUSH3 0x461BCD PUSH1 0xE5 SHL DUP2 MSTORE PUSH1 0x20 PUSH1 0x4 DUP3 ADD MSTORE PUSH1 0x1A PUSH1 0x24 DUP3 ADD MSTORE PUSH32 0x5061796F75747320616C72656164792063616C63756C61746564000000000000 PUSH1 0x44 DUP3 ADD MSTORE PUSH1 0x64 SWAP1 REVERT JUMPDEST PUSH1 0x40 MLOAD PUSH3 0x461BCD PUSH1 0xE5 SHL DUP2 MSTORE PUSH1 0x20 PUSH1 0x4 DUP3 ADD MSTORE PUSH1 0x13 PUSH1 0x24 DUP3 ADD MSTORE PUSH19 0x13585C9AD95D081B9BDD081C995CDBDB1D9959 PUSH1 0x6A SHL PUSH1 0x44 DUP3 ADD MSTORE PUSH1 0x64 SWAP1 REVERT JUMPDEST PUSH2 0x935 SWAP2 POP RETURNDATASIZE DUP1 PUSH1 0x0 DUP4 RETURNDATACOPY PUSH2 0x884 DUP2 DUP4 PUSH2 0x122E JUMP JUMPDEST POP POP POP POP POP POP SWAP4 POP POP POP POP DUP4 PUSH2 0x1F6 JUMP JUMPDEST CALLVALUE PUSH2 0x184 JUMPI PUSH1 0x0 CALLDATASIZE PUSH1 0x3 NOT ADD SLT PUSH2 0x184 JUMPI PUSH1 0x2 SLOAD PUSH1 0x40 MLOAD PUSH1 0x1 PUSH1 0x1 PUSH1 0xA0 SHL SUB SWAP1 SWAP2 AND DUP2 MSTORE PUSH1 0x20 SWAP1 RETURN JUMPDEST CALLVALUE PUSH2 0x184 JUMPI PUSH1 0x0 CALLDATASIZE PUSH1 0x3 NOT ADD SLT PUSH2 0x184 JUMPI PUSH2 0x988 PUSH2 0x11E6 JUMP JUMPDEST SELFBALANCE DUP1 ISZERO PUSH2 0x9DA JUMPI PUSH1 0x1 DUP1 PUSH1 0xA0 SHL SUB PUSH1 0x0 DUP1 DUP1 DUP1 DUP6 DUP6 PUSH1 0x1 SLOAD AND DUP3 CALL ISZERO PUSH2 0x322 JUMPI PUSH1 0x20 PUSH32 0x23D6711A1D031134A36921253C75AA59E967D38E369AC625992824315E204F20 SWAP2 PUSH1 0x1 SLOAD AND SWAP3 PUSH1 0x40 MLOAD SWAP1 DUP2 MSTORE LOG2 STOP JUMPDEST PUSH1 0x40 MLOAD PUSH3 0x461BCD PUSH1 0xE5 SHL DUP2 MSTORE PUSH1 0x20 PUSH1 0x4 DUP3 ADD MSTORE PUSH1 0x14 PUSH1 0x24 DUP3 ADD MSTORE PUSH20 0x4E6F2066756E647320746F207769746864726177 PUSH1 0x60 SHL PUSH1 0x44 DUP3 ADD MSTORE PUSH1 0x64 SWAP1 REVERT JUMPDEST CALLVALUE PUSH2 0x184 JUMPI PUSH1 0x0 CALLDATASIZE PUSH1 0x3 NOT ADD SLT PUSH2 0x184 JUMPI PUSH2 0xA2F PUSH2 0x11E6 JUMP JUMPDEST PUSH1 0x6 SLOAD DUP1 ISZERO PUSH2 0xA88 JUMPI PUSH1 0x0 PUSH1 0x6 SSTORE PUSH1 0x1 DUP1 PUSH1 0xA0 SHL SUB PUSH1 0x0 DUP1 DUP1 DUP1 DUP6 DUP6 PUSH1 0x1 SLOAD AND DUP3 CALL ISZERO PUSH2 0x322 JUMPI PUSH1 0x20 PUSH32 0xD116803F8B8538A601B6096E8D1196E3CE3EF43DEC6DBBE4CD4E5C69DD171D8B SWAP2 PUSH1 0x1 SLOAD AND SWAP3 PUSH1 0x40 MLOAD SWAP1 DUP2 MSTORE LOG2 STOP JUMPDEST PUSH1 0x40 MLOAD PUSH3 0x461BCD PUSH1 0xE5 SHL DUP2 MSTORE PUSH1 0x20 PUSH1 0x4 DUP3 ADD MSTORE PUSH1 0x13 PUSH1 0x24 DUP3 ADD MSTORE PUSH19 0x4E6F206665657320746F207769746864726177 PUSH1 0x68 SHL PUSH1 0x44 DUP3 ADD MSTORE PUSH1 0x64 SWAP1 REVERT JUMPDEST CALLVALUE PUSH2 0x184 JUMPI PUSH1 0x40 CALLDATASIZE PUSH1 0x3 NOT ADD SLT PUSH2 0x184 JUMPI PUSH2 0xADC PUSH2 0x11A2 JUMP JUMPDEST PUSH1 0x1 PUSH1 0x1 PUSH1 0xA0 SHL SUB AND PUSH1 0x0 SWAP1 DUP2 MSTORE PUSH1 0x9 PUSH1 0x20 MSTORE PUSH1 0x40 SWAP1 KECCAK256 DUP1 SLOAD PUSH1 0x24 CALLDATALOAD SWAP2 SWAP1 DUP3 LT ISZERO PUSH2 0x184 JUMPI PUSH1 0x20 SWAP2 PUSH2 0xB0D SWAP2 PUSH2 0x11B8 JUMP JUMPDEST SWAP1 SLOAD PUSH1 0x40 MLOAD SWAP2 PUSH1 0x3 SHL SHR DUP2 MSTORE RETURN JUMPDEST CALLVALUE PUSH2 0x184 JUMPI PUSH1 0x20 DUP1 PUSH1 0x3 NOT CALLDATASIZE ADD SLT PUSH2 0x184 JUMPI PUSH1 0x1 PUSH1 0x1 PUSH1 0xA0 SHL SUB DUP1 PUSH2 0xB3E PUSH2 0x11A2 JUMP JUMPDEST AND DUP1 PUSH1 0x0 MSTORE PUSH1 0x9 DUP4 MSTORE PUSH1 0x40 PUSH1 0x0 KECCAK256 SWAP2 PUSH1 0x40 MLOAD DUP1 DUP5 DUP7 DUP3 SWAP7 SLOAD SWAP4 DUP5 DUP2 MSTORE ADD SWAP1 PUSH1 0x0 MSTORE DUP7 PUSH1 0x0 KECCAK256 SWAP3 PUSH1 0x0 JUMPDEST DUP9 DUP3 DUP3 LT PUSH2 0xBF7 JUMPI POP POP POP PUSH2 0xB7E SWAP3 POP SUB DUP5 PUSH2 0x122E JUMP JUMPDEST PUSH1 0x0 SWAP1 PUSH1 0x0 JUMPDEST DUP5 MLOAD DUP2 LT ISZERO PUSH2 0xBED JUMPI PUSH2 0xB97 DUP2 DUP7 PUSH2 0x1398 JUMP JUMPDEST MLOAD PUSH1 0x0 MSTORE PUSH1 0x7 DUP7 MSTORE PUSH1 0x40 PUSH1 0x0 KECCAK256 PUSH1 0xFF PUSH1 0x4 DUP3 ADD SLOAD AND ISZERO DUP1 PUSH2 0xBE1 JUMPI JUMPDEST PUSH2 0xBC7 JUMPI JUMPDEST POP PUSH2 0xBC2 SWAP1 PUSH2 0x1389 JUMP JUMPDEST PUSH2 0xB84 JUMP JUMPDEST PUSH2 0xBC2 SWAP2 SWAP4 PUSH1 0x1 PUSH2 0xBDA SWAP3 ADD SLOAD SWAP1 PUSH2 0x1427 JUMP JUMPDEST SWAP3 SWAP1 PUSH2 0xBB8 JUMP JUMPDEST POP DUP5 DUP4 DUP3 SLOAD AND EQ PUSH2 0xBB3 JUMP JUMPDEST DUP6 DUP4 PUSH1 0x40 MLOAD SWAP1 DUP2 MSTORE RETURN JUMPDEST DUP6 SLOAD DUP5 MSTORE PUSH1 0x1 SWAP6 DUP7 ADD SWAP6 DUP10 SWAP6 POP SWAP4 ADD SWAP3 ADD PUSH2 0xB67 JUMP JUMPDEST CALLVALUE PUSH2 0x184 JUMPI PUSH1 0x0 CALLDATASIZE PUSH1 0x3 NOT ADD SLT PUSH2 0x184 JUMPI PUSH1 0x20 PUSH1 0x6 SLOAD PUSH1 0x40 MLOAD SWAP1 DUP2 MSTORE RETURN JUMPDEST CALLVALUE PUSH2 0x184 JUMPI PUSH1 0x0 CALLDATASIZE PUSH1 0x3 NOT ADD SLT PUSH2 0x184 JUMPI PUSH1 0x1 SLOAD PUSH1 0x40 MLOAD PUSH1 0x1 PUSH1 0x1 PUSH1 0xA0 SHL SUB SWAP1 SWAP2 AND DUP2 MSTORE PUSH1 0x20 SWAP1 RETURN JUMPDEST CALLVALUE PUSH2 0x184 JUMPI PUSH1 0x20 DUP1 PUSH1 0x3 NOT CALLDATASIZE ADD SLT PUSH2 0x184 JUMPI PUSH1 0x4 CALLDATALOAD PUSH2 0xC71 PUSH2 0x14A1 JUMP JUMPDEST DUP1 PUSH1 0x0 MSTORE PUSH1 0x8 DUP3 MSTORE PUSH1 0x40 PUSH1 0x0 KECCAK256 SWAP2 PUSH1 0xFF PUSH1 0x4 DUP5 ADD SLOAD AND ISZERO PUSH2 0xDC8 JUMPI PUSH1 0x6 DUP4 ADD SWAP3 CALLER PUSH1 0x0 MSTORE DUP4 DUP3 MSTORE PUSH1 0xFF PUSH1 0x40 PUSH1 0x0 KECCAK256 SLOAD AND PUSH2 0xD91 JUMPI PUSH1 0x5 ADD CALLER PUSH1 0x0 MSTORE DUP1 DUP3 MSTORE PUSH1 0x40 PUSH1 0x0 KECCAK256 SLOAD ISZERO PUSH2 0xD56 JUMPI CALLER PUSH1 0x0 MSTORE DUP2 MSTORE PUSH1 0x40 PUSH1 0x0 KECCAK256 SLOAD SWAP3 DUP2 MSTORE PUSH1 0x40 PUSH1 0x0 KECCAK256 PUSH1 0x1 PUSH1 0xFF NOT DUP3 SLOAD AND OR SWAP1 SSTORE PUSH1 0xA DUP2 MSTORE PUSH1 0x40 PUSH1 0x0 KECCAK256 PUSH2 0xCED DUP5 DUP3 SLOAD PUSH2 0x1427 JUMP JUMPDEST SWAP1 SSTORE PUSH2 0xCFB DUP4 PUSH1 0x5 SLOAD PUSH2 0x1427 JUMP JUMPDEST PUSH1 0x5 SSTORE DUP3 PUSH1 0x0 DUP2 ISZERO PUSH2 0xD4D JUMPI JUMPDEST PUSH1 0x0 DUP1 DUP1 SWAP4 DUP2 SWAP4 CALLER SWAP1 CALL ISZERO PUSH2 0x322 JUMPI PUSH1 0x40 MLOAD SWAP3 DUP4 MSTORE DUP3 ADD MSTORE PUSH32 0x408E6E0B73DAF4C873106E95FD067260FBFF8BF9D1B499CAD563D4480D45BAC PUSH1 0x40 CALLER SWAP3 LOG2 PUSH1 0x1 PUSH1 0x0 SSTORE STOP JUMPDEST POP PUSH2 0x8FC PUSH2 0xD08 JUMP JUMPDEST PUSH1 0x40 MLOAD PUSH3 0x461BCD PUSH1 0xE5 SHL DUP2 MSTORE PUSH1 0x4 DUP2 ADD DUP4 SWAP1 MSTORE PUSH1 0x13 PUSH1 0x24 DUP3 ADD MSTORE PUSH19 0x4E6F207061796F757420617661696C61626C65 PUSH1 0x68 SHL PUSH1 0x44 DUP3 ADD MSTORE PUSH1 0x64 SWAP1 REVERT JUMPDEST PUSH1 0x40 MLOAD PUSH3 0x461BCD PUSH1 0xE5 SHL DUP2 MSTORE PUSH1 0x4 DUP2 ADD DUP4 SWAP1 MSTORE PUSH1 0xF PUSH1 0x24 DUP3 ADD MSTORE PUSH15 0x105B1C9958591E4818DB185A5B5959 PUSH1 0x8A SHL PUSH1 0x44 DUP3 ADD MSTORE PUSH1 0x64 SWAP1 REVERT JUMPDEST PUSH1 0x64 SWAP1 PUSH1 0x40 MLOAD SWAP1 PUSH3 0x461BCD PUSH1 0xE5 SHL DUP3 MSTORE PUSH1 0x4 DUP3 ADD MSTORE PUSH1 0x16 PUSH1 0x24 DUP3 ADD MSTORE PUSH22 0x14185E5BDD5D1CC81B9BDD0818D85B18DD5B185D1959 PUSH1 0x52 SHL PUSH1 0x44 DUP3 ADD MSTORE REVERT JUMPDEST CALLVALUE PUSH2 0x184 JUMPI PUSH1 0x0 CALLDATASIZE PUSH1 0x3 NOT ADD SLT PUSH2 0x184 JUMPI PUSH1 0x3 SLOAD PUSH1 0x40 MLOAD PUSH1 0x1 PUSH1 0x1 PUSH1 0xA0 SHL SUB SWAP1 SWAP2 AND DUP2 MSTORE PUSH1 0x20 SWAP1 RETURN JUMPDEST CALLVALUE PUSH2 0x184 JUMPI PUSH1 0x0 CALLDATASIZE PUSH1 0x3 NOT ADD SLT PUSH2 0x184 JUMPI PUSH2 0xE47 PUSH2 0x11E6 JUMP JUMPDEST PUSH1 0x1 DUP1 SLOAD PUSH1 0x1 PUSH1 0x1 PUSH1 0xA0 SHL SUB NOT DUP2 AND SWAP1 SWAP2 SSTORE PUSH1 0x0 SWAP1 PUSH1 0x1 PUSH1 0x1 PUSH1 0xA0 SHL SUB AND PUSH32 0x8BE0079C531659141344CD1FD0A4F28419497F9722A3DAAFE3B4186F6B6457E0 DUP3 DUP1 LOG3 STOP JUMPDEST CALLVALUE PUSH2 0x184 JUMPI PUSH1 0x20 CALLDATASIZE PUSH1 0x3 NOT ADD SLT PUSH2 0x184 JUMPI PUSH1 0x4 CALLDATALOAD PUSH1 0x0 MSTORE PUSH1 0x8 PUSH1 0x20 MSTORE PUSH1 0xA0 PUSH1 0x40 PUSH1 0x0 KECCAK256 DUP1 SLOAD SWAP1 PUSH1 0x1 DUP2 ADD SLOAD SWAP1 PUSH1 0x2 DUP2 ADD SLOAD PUSH1 0xFF PUSH1 0x4 PUSH1 0x3 DUP5 ADD SLOAD SWAP4 ADD SLOAD AND SWAP3 PUSH1 0x40 MLOAD SWAP5 DUP6 MSTORE PUSH1 0x20 DUP6 ADD MSTORE PUSH1 0x40 DUP5 ADD MSTORE PUSH1 0x60 DUP4 ADD MSTORE ISZERO ISZERO PUSH1 0x80 DUP3 ADD MSTORE RETURN JUMPDEST CALLVALUE PUSH2 0x184 JUMPI PUSH1 0x0 CALLDATASIZE PUSH1 0x3 NOT ADD SLT PUSH2 0x184 JUMPI PUSH1 0x20 PUSH1 0x4 SLOAD PUSH1 0x40 MLOAD SWAP1 DUP2 MSTORE RETURN JUMPDEST CALLVALUE PUSH2 0x184 JUMPI PUSH1 0x40 CALLDATASIZE PUSH1 0x3 NOT ADD SLT PUSH2 0x184 JUMPI PUSH2 0xF1F PUSH2 0x11A2 JUMP JUMPDEST PUSH1 0x24 CALLDATALOAD PUSH1 0x0 MSTORE PUSH1 0x8 PUSH1 0x20 MSTORE PUSH1 0x5 PUSH1 0x40 PUSH1 0x0 KECCAK256 ADD SWAP1 PUSH1 0x1 DUP1 PUSH1 0xA0 SHL SUB AND PUSH1 0x0 MSTORE PUSH1 0x20 MSTORE PUSH1 0x20 PUSH1 0x40 PUSH1 0x0 KECCAK256 SLOAD PUSH1 0x40 MLOAD SWAP1 DUP2 MSTORE RETURN JUMPDEST CALLVALUE PUSH2 0x184 JUMPI PUSH1 0x20 CALLDATASIZE PUSH1 0x3 NOT ADD SLT PUSH2 0x184 JUMPI PUSH1 0x4 CALLDATALOAD PUSH1 0x0 MSTORE PUSH1 0x7 PUSH1 0x20 MSTORE PUSH1 0xC0 PUSH1 0x40 PUSH1 0x0 KECCAK256 PUSH1 0x1 DUP1 PUSH1 0xA0 SHL SUB DUP2 SLOAD AND SWAP1 PUSH1 0x1 DUP2 ADD SLOAD SWAP1 PUSH1 0x2 DUP2 ADD SLOAD PUSH1 0x3 DUP3 ADD SLOAD SWAP1 PUSH1 0x5 PUSH1 0xFF PUSH1 0x4 DUP6 ADD SLOAD AND SWAP4 ADD SLOAD SWAP4 PUSH1 0x40 MLOAD SWAP6 DUP7 MSTORE PUSH1 0x20 DUP7 ADD MSTORE PUSH1 0x40 DUP6 ADD MSTORE PUSH1 0x60 DUP5 ADD MSTORE ISZERO ISZERO PUSH1 0x80 DUP4 ADD MSTORE PUSH1 0xA0 DUP3 ADD MSTORE RETURN JUMPDEST CALLVALUE PUSH2 0x184 JUMPI PUSH1 0x0 CALLDATASIZE PUSH1 0x3 NOT ADD SLT PUSH2 0x184 JUMPI PUSH2 0xFDA PUSH2 0x14A1 JUMP JUMPDEST CALLER PUSH1 0x0 MSTORE PUSH1 0x20 PUSH1 0x9 DUP2 MSTORE PUSH1 0x40 PUSH1 0x0 KECCAK256 SWAP1 PUSH1 0x40 MLOAD DUP1 DUP4 DUP4 DUP3 SWAP6 SLOAD SWAP4 DUP5 DUP2 MSTORE ADD SWAP1 PUSH1 0x0 MSTORE DUP4 PUSH1 0x0 KECCAK256 SWAP3 PUSH1 0x0 JUMPDEST DUP6 DUP3 DUP3 LT PUSH2 0x1156 JUMPI POP POP POP PUSH2 0x101B SWAP3 POP SUB DUP4 PUSH2 0x122E JUMP JUMPDEST PUSH1 0x0 DUP1 JUMPDEST DUP4 MLOAD DUP3 LT ISZERO PUSH2 0x10D8 JUMPI PUSH2 0x1032 DUP3 DUP6 PUSH2 0x1398 JUMP JUMPDEST MLOAD PUSH1 0x0 MSTORE PUSH1 0x7 DUP4 MSTORE PUSH1 0x40 PUSH1 0x0 KECCAK256 SWAP2 PUSH1 0x4 DUP4 ADD DUP1 SLOAD SWAP1 PUSH1 0xFF DUP3 AND ISZERO DUP1 PUSH2 0x10C5 JUMPI JUMPDEST PUSH2 0x106A JUMPI JUMPDEST POP POP PUSH2 0x1064 SWAP2 SWAP3 POP PUSH2 0x1389 JUMP JUMPDEST SWAP1 PUSH2 0x101F JUMP JUMPDEST PUSH2 0x108A PUSH2 0x1064 SWAP5 SWAP3 PUSH1 0x2 SWAP3 PUSH1 0x1 DUP1 SWAP3 PUSH1 0xFF NOT AND OR SWAP1 SSTORE DUP7 ADD SLOAD DUP1 SWAP4 PUSH2 0x1427 JUMP JUMPDEST SWAP5 ADD SLOAD PUSH1 0x40 MLOAD SWAP2 DUP3 MSTORE DUP6 DUP3 ADD MSTORE PUSH32 0x408E6E0B73DAF4C873106E95FD067260FBFF8BF9D1B499CAD563D4480D45BAC PUSH1 0x40 CALLER SWAP3 LOG2 DUP3 SWAP2 DUP7 PUSH2 0x1057 JUMP JUMPDEST POP DUP5 SLOAD PUSH1 0x1 PUSH1 0x1 PUSH1 0xA0 SHL SUB AND CALLER EQ PUSH2 0x1052 JUMP JUMPDEST DUP3 DUP2 ISZERO PUSH2 0x111B JUMPI PUSH1 0x0 DUP1 DUP1 SWAP4 PUSH1 0xA DUP3 SWAP5 CALLER DUP5 MSTORE MSTORE PUSH1 0x40 DUP3 KECCAK256 PUSH2 0x10FB DUP3 DUP3 SLOAD PUSH2 0x1427 JUMP JUMPDEST SWAP1 SSTORE PUSH2 0x1109 DUP2 PUSH1 0x5 SLOAD PUSH2 0x1427 JUMP JUMPDEST PUSH1 0x5 SSTORE CALLER DUP3 CALL ISZERO PUSH2 0x322 JUMPI PUSH1 0x1 PUSH1 0x0 SSTORE STOP JUMPDEST PUSH1 0x64 SWAP1 PUSH1 0x40 MLOAD SWAP1 PUSH3 0x461BCD PUSH1 0xE5 SHL DUP3 MSTORE PUSH1 0x4 DUP3 ADD MSTORE PUSH1 0x14 PUSH1 0x24 DUP3 ADD MSTORE PUSH20 0x4E6F20756E636C61696D6564207061796F757473 PUSH1 0x60 SHL PUSH1 0x44 DUP3 ADD MSTORE REVERT JUMPDEST DUP6 SLOAD DUP5 MSTORE PUSH1 0x1 SWAP6 DUP7 ADD SWAP6 DUP9 SWAP6 POP SWAP4 ADD SWAP3 ADD PUSH2 0x1004 JUMP JUMPDEST CALLVALUE PUSH2 0x184 JUMPI PUSH1 0x20 CALLDATASIZE PUSH1 0x3 NOT ADD SLT PUSH2 0x184 JUMPI PUSH1 0x20 SWAP1 PUSH1 0x1 PUSH1 0x1 PUSH1 0xA0 SHL SUB PUSH2 0x1190 PUSH2 0x11A2 JUMP JUMPDEST AND PUSH1 0x0 MSTORE PUSH1 0xA DUP3 MSTORE PUSH1 0x40 PUSH1 0x0 KECCAK256 SLOAD DUP2 MSTORE RETURN JUMPDEST PUSH1 0x4 CALLDATALOAD SWAP1 PUSH1 0x1 PUSH1 0x1 PUSH1 0xA0 SHL SUB DUP3 AND DUP3 SUB PUSH2 0x184 JUMPI JUMP JUMPDEST DUP1 SLOAD DUP3 LT ISZERO PUSH2 0x11D0 JUMPI PUSH1 0x0 MSTORE PUSH1 0x20 PUSH1 0x0 KECCAK256 ADD SWAP1 PUSH1 0x0 SWAP1 JUMP JUMPDEST PUSH4 0x4E487B71 PUSH1 0xE0 SHL PUSH1 0x0 MSTORE PUSH1 0x32 PUSH1 0x4 MSTORE PUSH1 0x24 PUSH1 0x0 REVERT JUMPDEST PUSH1 0x1 SLOAD PUSH1 0x1 PUSH1 0x1 PUSH1 0xA0 SHL SUB AND CALLER SUB PUSH2 0x11FA JUMPI JUMP JUMPDEST PUSH1 0x40 MLOAD PUSH4 0x118CDAA7 PUSH1 0xE0 SHL DUP2 MSTORE CALLER PUSH1 0x4 DUP3 ADD MSTORE PUSH1 0x24 SWAP1 REVERT JUMPDEST PUSH1 0xC0 DUP2 ADD SWAP1 DUP2 LT PUSH8 0xFFFFFFFFFFFFFFFF DUP3 GT OR PUSH2 0x855 JUMPI PUSH1 0x40 MSTORE JUMP JUMPDEST SWAP1 PUSH1 0x1F DUP1 NOT SWAP2 ADD AND DUP2 ADD SWAP1 DUP2 LT PUSH8 0xFFFFFFFFFFFFFFFF DUP3 GT OR PUSH2 0x855 JUMPI PUSH1 0x40 MSTORE JUMP JUMPDEST SWAP2 SWAP1 DUP1 PUSH1 0x1F DUP5 ADD SLT ISZERO PUSH2 0x184 JUMPI DUP3 MLOAD SWAP1 PUSH8 0xFFFFFFFFFFFFFFFF DUP3 GT PUSH2 0x855 JUMPI PUSH1 0x40 MLOAD SWAP2 PUSH1 0x20 SWAP2 PUSH2 0x1289 PUSH1 0x1F DUP4 ADD PUSH1 0x1F NOT AND DUP5 ADD DUP6 PUSH2 0x122E JUMP JUMPDEST DUP2 DUP5 MSTORE DUP3 DUP3 DUP8 ADD ADD GT PUSH2 0x184 JUMPI PUSH1 0x0 JUMPDEST DUP2 DUP2 LT PUSH2 0x12AE JUMPI POP DUP3 PUSH1 0x0 SWAP4 SWAP5 SWAP6 POP ADD ADD MSTORE SWAP1 JUMP JUMPDEST DUP6 DUP2 ADD DUP4 ADD MLOAD DUP5 DUP3 ADD DUP5 ADD MSTORE DUP3 ADD PUSH2 0x1299 JUMP JUMPDEST MLOAD SWAP1 PUSH1 0x1 PUSH1 0x1 PUSH1 0xA0 SHL SUB DUP3 AND DUP3 SUB PUSH2 0x184 JUMPI JUMP JUMPDEST MLOAD SWAP1 DUP2 ISZERO ISZERO DUP3 SUB PUSH2 0x184 JUMPI JUMP JUMPDEST SWAP1 PUSH2 0x160 DUP3 DUP3 SUB SLT PUSH2 0x184 JUMPI DUP2 MLOAD SWAP1 PUSH8 0xFFFFFFFFFFFFFFFF SWAP2 DUP3 DUP2 GT PUSH2 0x184 JUMPI DUP2 PUSH2 0x130E SWAP2 DUP6 ADD PUSH2 0x1250 JUMP JUMPDEST SWAP4 PUSH2 0x131B PUSH1 0x20 DUP6 ADD PUSH2 0x12C1 JUMP JUMPDEST SWAP4 PUSH1 0x40 DUP2 ADD MLOAD SWAP4 PUSH1 0x60 DUP3 ADD MLOAD SWAP4 PUSH2 0x1334 PUSH1 0x80 DUP5 ADD PUSH2 0x12D5 JUMP JUMPDEST SWAP4 PUSH1 0xA0 DUP5 ADD MLOAD SWAP4 PUSH1 0xC0 DUP2 ADD MLOAD SWAP4 PUSH1 0xE0 DUP3 ADD MLOAD DUP2 DUP2 GT PUSH2 0x184 JUMPI DUP5 PUSH2 0x1359 SWAP2 DUP5 ADD PUSH2 0x1250 JUMP JUMPDEST SWAP4 PUSH2 0x100 DUP4 ADD MLOAD SWAP2 DUP3 GT PUSH2 0x184 JUMPI PUSH2 0x1372 SWAP2 DUP4 ADD PUSH2 0x1250 JUMP JUMPDEST SWAP2 PUSH2 0x140 PUSH2 0x1383 PUSH2 0x120 DUP5 ADD PUSH2 0x12D5 JUMP JUMPDEST SWAP3 ADD MLOAD SWAP1 JUMP JUMPDEST PUSH1 0x0 NOT DUP2 EQ PUSH2 0x793 JUMPI PUSH1 0x1 ADD SWAP1 JUMP JUMPDEST DUP1 MLOAD DUP3 LT ISZERO PUSH2 0x11D0 JUMPI PUSH1 0x20 SWAP2 PUSH1 0x5 SHL ADD ADD SWAP1 JUMP JUMPDEST SWAP2 SWAP1 PUSH2 0x120 DUP4 DUP3 SUB SLT PUSH2 0x184 JUMPI DUP3 MLOAD SWAP3 PUSH2 0x13C8 PUSH1 0x20 DUP3 ADD PUSH2 0x12C1 JUMP JUMPDEST SWAP3 PUSH1 0x40 DUP3 ADD MLOAD SWAP3 PUSH8 0xFFFFFFFFFFFFFFFF SWAP4 DUP5 DUP2 GT PUSH2 0x184 JUMPI DUP2 PUSH2 0x13EC SWAP2 DUP6 ADD PUSH2 0x1250 JUMP JUMPDEST SWAP4 PUSH1 0x60 DUP5 ADD MLOAD SWAP4 PUSH1 0x80 DUP2 ADD MLOAD SWAP4 PUSH1 0xA0 DUP3 ADD MLOAD SWAP4 PUSH2 0x140B PUSH1 0xC0 DUP5 ADD PUSH2 0x12D5 JUMP JUMPDEST SWAP4 PUSH1 0xE0 DUP5 ADD MLOAD SWAP1 DUP2 GT PUSH2 0x184 JUMPI PUSH2 0x100 SWAP2 PUSH2 0x1383 SWAP2 DUP6 ADD PUSH2 0x1250 JUMP JUMPDEST SWAP2 SWAP1 DUP3 ADD DUP1 SWAP3 GT PUSH2 0x793 JUMPI JUMP JUMPDEST DUP2 DUP2 MUL SWAP3 SWAP2 DUP2 ISZERO SWAP2 DUP5 DIV EQ OR ISZERO PUSH2 0x793 JUMPI JUMP JUMPDEST DUP2 ISZERO PUSH2 0x1451 JUMPI DIV SWAP1 JUMP JUMPDEST PUSH4 0x4E487B71 PUSH1 0xE0 SHL PUSH1 0x0 MSTORE PUSH1 0x12 PUSH1 0x4 MSTORE PUSH1 0x24 PUSH1 0x0 REVERT JUMPDEST DUP1 SLOAD PUSH9 0x10000000000000000 DUP2 LT ISZERO PUSH2 0x855 JUMPI PUSH2 0x1489 SWAP2 PUSH1 0x1 DUP3 ADD DUP2 SSTORE PUSH2 0x11B8 JUMP JUMPDEST DUP2 SWAP3 SWAP2 SLOAD SWAP1 PUSH1 0x3 SHL SWAP2 DUP3 SHL SWAP2 PUSH1 0x0 NOT SWAP1 SHL NOT AND OR SWAP1 SSTORE JUMP JUMPDEST PUSH1 0x2 PUSH1 0x0 SLOAD EQ PUSH2 0x14B2 JUMPI PUSH1 0x2 PUSH1 0x0 SSTORE JUMP JUMPDEST PUSH1 0x40 MLOAD PUSH4 0x3EE5AEB5 PUSH1 0xE0 SHL DUP2 MSTORE PUSH1 0x4 SWAP1 REVERT INVALID LOG2 PUSH5 0x6970667358 0x22 SLT KECCAK256 0xE4 STATICCALL CALLDATASIZE PUSH4 0x29C0BD5B 0xBA 0xB5 AND 0xC8 SWAP9 SWAP7 0x2E PUSH19 0xD7B78832D6C2950488C2121DD7F19AC664736F PUSH13 0x63430008140033000000000000 "},"methodIdentifiers":{"calculatePayouts(uint256)":"e5a4e941","claimAllPayouts()":"239e8208","claimPayout(uint256)":"8a69614e","emergencyWithdraw()":"db2e21bc","getUserMarketPayout(address,uint256)":"3d08f85c","getUserUnclaimedPayouts(address)":"c5e60136","marketPayouts(uint256)":"6249f88f","oracle()":"7dc0d1d0","owner()":"8da5cb5b","payoutCount()":"57831809","payouts(uint256)":"29652e86","platformFeesCollected()":"b36ffca6","predictionMarket()":"def114b6","renounceOwnership()":"715018a6","totalDistributed()":"efca2eed","transferOwnership(address)":"f2fde38b","userPayouts(address,uint256)":"ce08c0d1","userTotalWinnings(address)":"08857442","withdrawPlatformFees()":"d0b7830b"}}}}}