{"contracts/src/PredictionMarket.sol":{"PredictionMarket":{"abi":[{"inputs":[],"stateMutability":"nonpayable","type":"constructor"},{"inputs":[{"internalType":"address","name":"owner","type":"address"}],"name":"OwnableInvalidOwner","type":"error"},{"inputs":[{"internalType":"address","name":"account","type":"address"}],"name":"OwnableUnauthorizedAccount","type":"error"},{"inputs":[],"name":"ReentrancyGuardReentrantCall","type":"error"},{"anonymous":false,"inputs":[{"indexed":true,"internalType":"uint256","name":"betId","type":"uint256"},{"indexed":true,"internalType":"uint256","name":"submissionId","type":"uint256"},{"indexed":true,"internalType":"address","name":"bettor","type":"address"},{"indexed":false,"internalType":"uint256","name":"amount","type":"uint256"}],"name":"BetPlaced","type":"event"},{"anonymous":false,"inputs":[{"indexed":true,"internalType":"uint256","name":"marketId","type":"uint256"},{"indexed":true,"internalType":"address","name":"creator","type":"address"},{"indexed":false,"internalType":"string","name":"question","type":"string"},{"indexed":false,"internalType":"uint256","name":"endTime","type":"uint256"}],"name":"MarketCreated","type":"event"},{"anonymous":false,"inputs":[{"indexed":true,"internalType":"uint256","name":"marketId","type":"uint256"},{"indexed":false,"internalType":"uint256","name":"winningSubmissionId","type":"uint256"}],"name":"MarketResolved","type":"event"},{"anonymous":false,"inputs":[{"indexed":true,"internalType":"address","name":"previousOwner","type":"address"},{"indexed":true,"internalType":"address","name":"newOwner","type":"address"}],"name":"OwnershipTransferred","type":"event"},{"anonymous":false,"inputs":[{"indexed":true,"internalType":"address","name":"recipient","type":"address"},{"indexed":false,"internalType":"uint256","name":"amount","type":"uint256"}],"name":"PayoutDistributed","type":"event"},{"anonymous":false,"inputs":[{"indexed":true,"internalType":"uint256","name":"submissionId","type":"uint256"},{"indexed":true,"internalType":"uint256","name":"marketId","type":"uint256"},{"indexed":true,"internalType":"address","name":"creator","type":"address"},{"indexed":false,"internalType":"string","name":"predictedText","type":"string"}],"name":"SubmissionCreated","type":"event"},{"inputs":[],"name":"PLATFORM_FEE","outputs":[{"internalType":"uint256","name":"","type":"uint256"}],"stateMutability":"view","type":"function"},{"inputs":[],"name":"betCount","outputs":[{"internalType":"uint256","name":"","type":"uint256"}],"stateMutability":"view","type":"function"},{"inputs":[{"internalType":"uint256","name":"","type":"uint256"}],"name":"bets","outputs":[{"internalType":"address","name":"bettor","type":"address"},{"internalType":"uint256","name":"submissionId","type":"uint256"},{"internalType":"uint256","name":"amount","type":"uint256"},{"internalType":"uint256","name":"timestamp","type":"uint256"}],"stateMutability":"view","type":"function"},{"inputs":[{"internalType":"string","name":"_question","type":"string"},{"internalType":"uint256","name":"_duration","type":"uint256"},{"internalType":"string","name":"_actorTwitterHandle","type":"string"},{"internalType":"bool","name":"_xcomOnly","type":"bool"}],"name":"createMarket","outputs":[{"internalType":"uint256","name":"","type":"uint256"}],"stateMutability":"payable","type":"function"},{"inputs":[{"internalType":"uint256","name":"_marketId","type":"uint256"},{"internalType":"string","name":"_predictedText","type":"string"},{"internalType":"string","name":"_screenshotIpfsHash","type":"string"}],"name":"createSubmission","outputs":[{"internalType":"uint256","name":"","type":"uint256"}],"stateMutability":"payable","type":"function"},{"inputs":[],"name":"emergencyWithdraw","outputs":[],"stateMutability":"nonpayable","type":"function"},{"inputs":[{"internalType":"uint256","name":"_marketId","type":"uint256"}],"name":"getMarketSubmissions","outputs":[{"internalType":"uint256[]","name":"","type":"uint256[]"}],"stateMutability":"view","type":"function"},{"inputs":[{"internalType":"address","name":"_user","type":"address"}],"name":"getUserBets","outputs":[{"internalType":"uint256[]","name":"","type":"uint256[]"}],"stateMutability":"view","type":"function"},{"inputs":[{"internalType":"address","name":"_user","type":"address"}],"name":"getUserSubmissions","outputs":[{"internalType":"uint256[]","name":"","type":"uint256[]"}],"stateMutability":"view","type":"function"},{"inputs":[],"name":"marketCount","outputs":[{"internalType":"uint256","name":"","type":"uint256"}],"stateMutability":"view","type":"function"},{"inputs":[{"internalType":"uint256","name":"","type":"uint256"},{"internalType":"uint256","name":"","type":"uint256"}],"name":"marketSubmissions","outputs":[{"internalType":"uint256","name":"","type":"uint256"}],"stateMutability":"view","type":"function"},{"inputs":[{"internalType":"uint256","name":"","type":"uint256"}],"name":"markets","outputs":[{"internalType":"string","name":"question","type":"string"},{"internalType":"address","name":"creator","type":"address"},{"internalType":"uint256","name":"startTime","type":"uint256"},{"internalType":"uint256","name":"endTime","type":"uint256"},{"internalType":"bool","name":"resolved","type":"bool"},{"internalType":"uint256","name":"winningSubmissionId","type":"uint256"},{"internalType":"uint256","name":"totalVolume","type":"uint256"},{"internalType":"string","name":"actorTwitterHandle","type":"string"},{"internalType":"string","name":"targetTweetId","type":"string"},{"internalType":"bool","name":"xcomOnly","type":"bool"},{"internalType":"uint256","name":"platformFeeCollected","type":"uint256"}],"stateMutability":"view","type":"function"},{"inputs":[],"name":"owner","outputs":[{"internalType":"address","name":"","type":"address"}],"stateMutability":"view","type":"function"},{"inputs":[{"internalType":"uint256","name":"_submissionId","type":"uint256"}],"name":"placeBet","outputs":[{"internalType":"uint256","name":"","type":"uint256"}],"stateMutability":"payable","type":"function"},{"inputs":[],"name":"renounceOwnership","outputs":[],"stateMutability":"nonpayable","type":"function"},{"inputs":[],"name":"submissionCount","outputs":[{"internalType":"uint256","name":"","type":"uint256"}],"stateMutability":"view","type":"function"},{"inputs":[{"internalType":"uint256","name":"","type":"uint256"}],"name":"submissions","outputs":[{"internalType":"uint256","name":"marketId","type":"uint256"},{"internalType":"address","name":"creator","type":"address"},{"internalType":"string","name":"predictedText","type":"string"},{"internalType":"uint256","name":"stake","type":"uint256"},{"internalType":"uint256","name":"totalBets","type":"uint256"},{"internalType":"uint256","name":"levenshteinDistance","type":"uint256"},{"internalType":"bool","name":"isWinner","type":"bool"},{"internalType":"string","name":"screenshotIpfsHash","type":"string"},{"internalType":"bytes32","name":"screenshotBase64Hash","type":"bytes32"}],"stateMutability":"view","type":"function"},{"inputs":[{"internalType":"address","name":"newOwner","type":"address"}],"name":"transferOwnership","outputs":[],"stateMutability":"nonpayable","type":"function"},{"inputs":[{"internalType":"address","name":"","type":"address"},{"internalType":"uint256","name":"","type":"uint256"}],"name":"userBets","outputs":[{"internalType":"uint256","name":"","type":"uint256"}],"stateMutability":"view","type":"function"},{"inputs":[{"internalType":"address","name":"","type":"address"},{"internalType":"uint256","name":"","type":"uint256"}],"name":"userSubmissions","outputs":[{"internalType":"uint256","name":"","type":"uint256"}],"stateMutability":"view","type":"function"},{"stateMutability":"payable","type":"receive"}],"evm":{"bytecode":{"linkReferences":{},"object":"6080806040523461008b57600090600182553315610077575060018054336001600160a01b0319821681179092556040519291906001600160a01b03167f8be0079c531659141344cd1fd0a4f28419497f9722a3daafe3b4186f6b6457e08380a3806002558060035560045561196490816100918239f35b602491631e4fbdf760e01b82526004820152fd5b600080fdfe608080604052600436101561001d575b50361561001b57600080fd5b005b60003560e01c90816310fe7c48146113c85750806322af00fa146113725780632d56657d146112fa57806334fbc9a1146112de5780636ec02be9146112c0578063715018a6146112635780638068aa68146112195780638cec0ba014610c595780638da5cb5b14610c30578063905d99fc14610bc65780639b7e018014610b7c578063a7b8614d14610af4578063ad73349e14610a36578063b1283e771461094a578063cf0944971461092c578063db2e21bc146108dc578063e1a3faae14610895578063ea24e579146101b2578063ec979082146101945763f2fde38b14610106573861000f565b3461018f57602036600319011261018f5761011f6115fe565b610127611814565b6001600160a01b0390811690811561017657600154826001600160601b0360a01b821617600155167f8be0079c531659141344cd1fd0a4f28419497f9722a3daafe3b4186f6b6457e0600080a3005b604051631e4fbdf760e01b815260006004820152602490fd5b600080fd5b3461018f57600036600319011261018f576020600254604051908152f35b608036600319011261018f576004356001600160401b03811161018f576101dd90369060040161169e565b6044356001600160401b03811161018f576101fc90369060040161169e565b9060643590811515820361018f5761012c6024351061083d576276a700602435116107ea578051156107a557662386f26fc100003410610754576002549161024383611840565b6002556102526024354261184f565b936040519461016086018681106001600160401b038211176105a757604052838652336020870152426040870152606086015260006080860152600060a08601523460c086015260e08501526040518060208101106001600160401b036020830111176105a757602081016040526000815261010085015215156101208401526000610140840152816000526005602052604060002083518051906001600160401b0382116105a757819061030784546116f4565b601f8111610704575b50602090601f83116001146106985760009261068d575b50508160011b916000199060031b1c19161781555b6001810160018060a01b036020860151166001600160601b0360a01b825416179055604084015160028201556060840151600382015561039160808501511515600483019060ff801983541691151516179055565b60a0840151600582015560c0840151600682015560e08401518051906001600160401b0382116105a75781906103ca60078501546116f4565b601f811161063a575b50602090601f83116001146105c8576000926105bd575b50508160011b916000199060031b1c19161760078201555b60088101936101008101519485516001600160401b0381116105a75761042882546116f4565b96601f881161055f575b602097508790601f83116001146104f25791806101409492600a96946000926104e7575b50508160011b916000199060031b1c19161790555b61048b6101208201511515600986019060ff801983541691151516179055565b0151910155817f03e783e31593f59fda73a59d05e2525d610a533995cce4d4750186c3b6bf80bb6104be6024354261184f565b926104d4604051916040835260408301906117d4565b93868201528033940390a3604051908152f35b015190508a80610456565b90601f1983169184600052896000209260005b8181106105485750926001928592600a989661014098961061052f575b505050811b01905561046b565b015160001960f88460031b161c191690558a8080610522565b92938b600181928786015181550195019301610505565b826000526020600020601f830160051c8101986020841061059d575b601f0160051c01975b8881106105915750610432565b60008155600101610584565b909850889061057b565b634e487b7160e01b600052604160045260246000fd5b0151905086806103ea565b9250600784016000526020600020906000935b601f198416851061061f576001945083601f19811610610606575b505050811b016007820155610402565b015160001960f88460031b161c191690558680806105f6565b818101518355602094850194600190930192909101906105db565b909150600784016000526020600020601f840160051c810160208510610686575b90849392915b601f830160051c820181106106775750506103d3565b60008155859450600101610661565b508061065b565b015190508680610327565b9250836000526020600020906000935b601f19841685106106e9576001945083601f198116106106d0575b505050811b01815561033c565b015160001960f88460031b161c191690558680806106c3565b818101518355602094850194600190930192909101906106a8565b909150836000526020600020601f840160051c81016020851061074d575b90849392915b601f830160051c8201811061073e575050610310565b60008155859450600101610728565b5080610722565b60405162461bcd60e51b8152602060048201526024808201527f4d696e696d756d206d61726b6574206372656174696f6e2066656520726571756044820152631a5c995960e21b6064820152608490fd5b60405162461bcd60e51b815260206004820152601860248201527f5175657374696f6e2063616e6e6f7420626520656d70747900000000000000006044820152606490fd5b60405162461bcd60e51b815260206004820152602560248201527f4d61726b6574206475726174696f6e2063616e6e6f7420657863656564203930604482015264206461797360d81b6064820152608490fd5b60405162461bcd60e51b815260206004820152602a60248201527f4d61726b6574206475726174696f6e206d757374206265206174206c656173746044820152692035206d696e7574657360b01b6064820152608490fd5b3461018f57604036600319011261018f5760243560043560005260086020526040600020805482101561018f576020916108ce9161164f565b90546040519160031b1c8152f35b3461018f57600036600319011261018f576108f5611814565b600080808060018060a01b03600154164790828215610923575bf11561091757005b6040513d6000823e3d90fd5b506108fc61090f565b3461018f57600036600319011261018f576020600454604051908152f35b3461018f57602036600319011261018f57600435600052600560205260206109e960406000206109798161172e565b610a2382610a1460018060a01b03600183015416936002830154600384015460ff6004860154166005860154906006870154926109b86007890161172e565b94600a60ff60096109cb60088d0161172e565b9b0154169c01549a6040519e8f9e8f99610160808c528b01906117d4565b98015260408d015260608c0152151560808b015260a08a015260c089015287820360e08901526117d4565b908582036101008701526117d4565b9115156101208401526101408301520390f35b3461018f57602036600319011261018f576004356000908152600660205260409020805460018201546001600160a01b031691610ae9610a786002830161172e565b916003810154906004810154600582015460ff60068401541691610ac56008610aa36007870161172e565b950154976040519a8b9a8b5260208b01526101208060408c01528a01906117d4565b946060890152608088015260a0870152151560c086015284820360e08601526117d4565b906101008301520390f35b3461018f5760208060031936011261018f576001600160a01b03610b166115fe565b1660005260098152604060002090604051908181845491828152019360005281600020916000905b828210610b6557610b6185610b558189038261167d565b60405191829182611614565b0390f35b835486529485019460019384019390910190610b3e565b3461018f57604036600319011261018f57610b956115fe565b6001600160a01b031660009081526009602052604090208054602435919082101561018f576020916108ce9161164f565b3461018f5760208060031936011261018f5760043560005260088152604060002090604051908181845491828152019360005281600020916000905b828210610c1957610b6185610b558189038261167d565b835486529485019460019384019390910190610c02565b3461018f57600036600319011261018f576001546040516001600160a01b039091168152602090f35b606036600319011261018f576024356001600160401b03811161018f57610c8490369060040161169e565b6044356001600160401b03811161018f57610ca390369060040161169e565b9060025460043510156111dc576004356000526005602052610cce600360406000200154421061185c565b6004356000526005602052610cee60ff600460406000200154161561189b565b66038d7ea4c68000341061118d578051156111485760035490610d1082611840565b600355600734023481046007143415171561113257610d3260648204346118e7565b8451602086012060405195866101208101106001600160401b03610120890111176105a757610120870160405260043587526020870192338452856040890152806060890152608088015260001960a0880152600060c088015260e087015261010086015283600052600660205260406000209085518255600182019060018060a01b039051166001600160601b0360a01b82541617905560408501518051906001600160401b0382116105a7578190610def60028501546116f4565b601f81116110df575b50602090601f831160011461106d57600092611062575b50508160011b916000199060031b1c19161760028201555b606085015160038201556080850151600482015560a08501516005820155610e6460c08601511515600683019060ff801983541691151516179055565b60e08501519485516001600160401b0381116105a757610e8760078401546116f4565b96601f881161101b575b602097508790601f8311600114610fa257928260089361010093610f15989796600092610f97575b50508160011b916000199060031b1c19161760078501555b015191015560043560005260058552600a6064610ef63460066040600020015461184f565b926004356000526005885260406000209360068501550491015461184f565b60043560005260058452600a6040600020015560088352610f3a8260406000206118f4565b3360005260098352610f508260406000206118f4565b60405190838252827f9d9ec53e54f6385ec09428208c029bd27eb96263fc7b5da62db98ecc7d3f015c339380610f8c60043595898301906117d4565b0390a4604051908152f35b015190508b80610eb9565b9060078501600052886000209160005b601f198516811061100457508361010093610f1598979693600193600897601f19811610610feb575b505050811b016007850155610ed1565b015160001960f88460031b161c191690558b8080610fdb565b91928a600181928685015181550194019201610fb2565b600784016000526020600020601f830160051c81016020841061105b575b601f8a0160051c8201811061104f575050610e91565b60008155600101611039565b5080611039565b015190508780610e0f565b9250600284016000526020600020906000935b601f19841685106110c4576001945083601f198116106110ab575b505050811b016002820155610e27565b015160001960f88460031b161c1916905587808061109b565b81810151835560209485019460019093019290910190611080565b909150600284016000526020600020601f840160051c81016020851061112b575b90849392915b601f830160051c8201811061111c575050610df8565b60008155859450600101611106565b5080611100565b634e487b7160e01b600052601160045260246000fd5b60405162461bcd60e51b815260206004820152601e60248201527f50726564696374656420746578742063616e6e6f7420626520656d70747900006044820152606490fd5b60405162461bcd60e51b815260206004820152602160248201527f4d696e696d756d207375626d697373696f6e207374616b6520726571756972656044820152601960fa1b6064820152608490fd5b60405162461bcd60e51b815260206004820152601560248201527413585c9ad95d08191bd95cc81b9bdd08195e1a5cdd605a1b6044820152606490fd5b3461018f57604036600319011261018f576112326115fe565b6001600160a01b03166000908152600a602052604090208054602435919082101561018f576020916108ce9161164f565b3461018f57600036600319011261018f5761127c611814565b600180546001600160a01b031981169091556000906001600160a01b03167f8be0079c531659141344cd1fd0a4f28419497f9722a3daafe3b4186f6b6457e08280a3005b3461018f57600036600319011261018f576020600354604051908152f35b3461018f57600036600319011261018f57602060405160078152f35b3461018f5760208060031936011261018f576001600160a01b0361131c6115fe565b16600052600a8152604060002090604051908181845491828152019360005281600020916000905b82821061135b57610b6185610b558189038261167d565b835486529485019460019384019390910190611344565b3461018f57602036600319011261018f5760043560005260076020526080604060002060018060a01b03815416906001810154906003600282015491015491604051938452602084015260408301526060820152f35b6020908160031936011261018f57600435906002600054146115ef575060026000556003548110156115aa57655af3107a4000341061156557806000526006825260406000209081546000526005835260406000209061142f60ff6004840154161561189b565b61143e6003830154421061185c565b6004549261144b84611840565b600455600734023481046007143415171561113257606490049061146f82346118e7565b9360405190608082018281106001600160401b038211176105a75761151493600a9360049260405233815260038a8a8d6007818601918d83526040870193845260608701944286526000525260406000209460018060a01b039051166001600160601b0360a01b86541617855551600185015551600284015551910155016114f887825461184f565b90556006810161150934825461184f565b90550191825461184f565b905533600052600a845261152c8360406000206118f4565b604051918252827ffdd8ed02332acacb3420e7345a9adadb30877075eade2bcde9fe778e8bb71e42853394a46001600055604051908152f35b60405162461bcd60e51b815260048101839052601b60248201527f4d696e696d756d2062657420616d6f756e7420726571756972656400000000006044820152606490fd5b60405162461bcd60e51b815260048101839052601960248201527f5375626d697373696f6e20646f6573206e6f74206578697374000000000000006044820152606490fd5b633ee5aeb560e01b8152600490fd5b600435906001600160a01b038216820361018f57565b6020908160408183019282815285518094520193019160005b82811061163b575050505090565b83518552938101939281019260010161162d565b80548210156116675760005260206000200190600090565b634e487b7160e01b600052603260045260246000fd5b90601f801991011681019081106001600160401b038211176105a757604052565b81601f8201121561018f578035906001600160401b0382116105a757604051926116d2601f8401601f19166020018561167d565b8284526020838301011161018f57816000926020809301838601378301015290565b90600182811c92168015611724575b602083101461170e57565b634e487b7160e01b600052602260045260246000fd5b91607f1691611703565b9060405191826000825492611742846116f4565b9081845260019485811690816000146117b1575060011461176e575b505061176c9250038361167d565b565b9093915060005260209081600020936000915b81831061179957505061176c9350820101388061175e565b85548884018501529485019487945091830191611781565b91505061176c94506020925060ff191682840152151560051b820101388061175e565b919082519283825260005b848110611800575050826000602080949584010152601f8019910116010190565b6020818301810151848301820152016117df565b6001546001600160a01b0316330361182857565b60405163118cdaa760e01b8152336004820152602490fd5b60001981146111325760010190565b9190820180921161113257565b1561186357565b60405162461bcd60e51b815260206004820152601060248201526f13585c9ad95d081a185cc8195b99195960821b6044820152606490fd5b156118a257565b60405162461bcd60e51b815260206004820152601760248201527f4d61726b657420616c7265616479207265736f6c7665640000000000000000006044820152606490fd5b9190820391821161113257565b8054680100000000000000008110156105a7576119169160018201815561164f565b819291549060031b91821b91600019901b191617905556fea26469706673582212204e5534698ab2d07762684c06d4cc8989b44eb839adc2fbbf9557e367de676d4164736f6c63430008140033","opcodes":"PUSH1 0x80 DUP1 PUSH1 0x40 MSTORE CALLVALUE PUSH2 0x8B JUMPI PUSH1 0x0 SWAP1 PUSH1 0x1 DUP3 SSTORE CALLER ISZERO PUSH2 0x77 JUMPI POP PUSH1 0x1 DUP1 SLOAD CALLER PUSH1 0x1 PUSH1 0x1 PUSH1 0xA0 SHL SUB NOT DUP3 AND DUP2 OR SWAP1 SWAP3 SSTORE PUSH1 0x40 MLOAD SWAP3 SWAP2 SWAP1 PUSH1 0x1 PUSH1 0x1 PUSH1 0xA0 SHL SUB AND PUSH32 0x8BE0079C531659141344CD1FD0A4F28419497F9722A3DAAFE3B4186F6B6457E0 DUP4 DUP1 LOG3 DUP1 PUSH1 0x2 SSTORE DUP1 PUSH1 0x3 SSTORE PUSH1 0x4 SSTORE PUSH2 0x1964 SWAP1 DUP2 PUSH2 0x91 DUP3 CODECOPY RETURN JUMPDEST PUSH1 0x24 SWAP2 PUSH4 0x1E4FBDF7 PUSH1 0xE0 SHL DUP3 MSTORE PUSH1 0x4 DUP3 ADD MSTORE REVERT JUMPDEST PUSH1 0x0 DUP1 REVERT INVALID PUSH1 0x80 DUP1 PUSH1 0x40 MSTORE PUSH1 0x4 CALLDATASIZE LT ISZERO PUSH2 0x1D JUMPI JUMPDEST POP CALLDATASIZE ISZERO PUSH2 0x1B JUMPI PUSH1 0x0 DUP1 REVERT JUMPDEST STOP JUMPDEST PUSH1 0x0 CALLDATALOAD PUSH1 0xE0 SHR SWAP1 DUP2 PUSH4 0x10FE7C48 EQ PUSH2 0x13C8 JUMPI POP DUP1 PUSH4 0x22AF00FA EQ PUSH2 0x1372 JUMPI DUP1 PUSH4 0x2D56657D EQ PUSH2 0x12FA JUMPI DUP1 PUSH4 0x34FBC9A1 EQ PUSH2 0x12DE JUMPI DUP1 PUSH4 0x6EC02BE9 EQ PUSH2 0x12C0 JUMPI DUP1 PUSH4 0x715018A6 EQ PUSH2 0x1263 JUMPI DUP1 PUSH4 0x8068AA68 EQ PUSH2 0x1219 JUMPI DUP1 PUSH4 0x8CEC0BA0 EQ PUSH2 0xC59 JUMPI DUP1 PUSH4 0x8DA5CB5B EQ PUSH2 0xC30 JUMPI DUP1 PUSH4 0x905D99FC EQ PUSH2 0xBC6 JUMPI DUP1 PUSH4 0x9B7E0180 EQ PUSH2 0xB7C JUMPI DUP1 PUSH4 0xA7B8614D EQ PUSH2 0xAF4 JUMPI DUP1 PUSH4 0xAD73349E EQ PUSH2 0xA36 JUMPI DUP1 PUSH4 0xB1283E77 EQ PUSH2 0x94A JUMPI DUP1 PUSH4 0xCF094497 EQ PUSH2 0x92C JUMPI DUP1 PUSH4 0xDB2E21BC EQ PUSH2 0x8DC JUMPI DUP1 PUSH4 0xE1A3FAAE EQ PUSH2 0x895 JUMPI DUP1 PUSH4 0xEA24E579 EQ PUSH2 0x1B2 JUMPI DUP1 PUSH4 0xEC979082 EQ PUSH2 0x194 JUMPI PUSH4 0xF2FDE38B EQ PUSH2 0x106 JUMPI CODESIZE PUSH2 0xF JUMP JUMPDEST CALLVALUE PUSH2 0x18F JUMPI PUSH1 0x20 CALLDATASIZE PUSH1 0x3 NOT ADD SLT PUSH2 0x18F JUMPI PUSH2 0x11F PUSH2 0x15FE JUMP JUMPDEST PUSH2 0x127 PUSH2 0x1814 JUMP JUMPDEST PUSH1 0x1 PUSH1 0x1 PUSH1 0xA0 SHL SUB SWAP1 DUP2 AND SWAP1 DUP2 ISZERO PUSH2 0x176 JUMPI PUSH1 0x1 SLOAD DUP3 PUSH1 0x1 PUSH1 0x1 PUSH1 0x60 SHL SUB PUSH1 0xA0 SHL DUP3 AND OR PUSH1 0x1 SSTORE AND PUSH32 0x8BE0079C531659141344CD1FD0A4F28419497F9722A3DAAFE3B4186F6B6457E0 PUSH1 0x0 DUP1 LOG3 STOP JUMPDEST PUSH1 0x40 MLOAD PUSH4 0x1E4FBDF7 PUSH1 0xE0 SHL DUP2 MSTORE PUSH1 0x0 PUSH1 0x4 DUP3 ADD MSTORE PUSH1 0x24 SWAP1 REVERT JUMPDEST PUSH1 0x0 DUP1 REVERT JUMPDEST CALLVALUE PUSH2 0x18F JUMPI PUSH1 0x0 CALLDATASIZE PUSH1 0x3 NOT ADD SLT PUSH2 0x18F JUMPI PUSH1 0x20 PUSH1 0x2 SLOAD PUSH1 0x40 MLOAD SWAP1 DUP2 MSTORE RETURN JUMPDEST PUSH1 0x80 CALLDATASIZE PUSH1 0x3 NOT ADD SLT PUSH2 0x18F JUMPI PUSH1 0x4 CALLDATALOAD PUSH1 0x1 PUSH1 0x1 PUSH1 0x40 SHL SUB DUP2 GT PUSH2 0x18F JUMPI PUSH2 0x1DD SWAP1 CALLDATASIZE SWAP1 PUSH1 0x4 ADD PUSH2 0x169E JUMP JUMPDEST PUSH1 0x44 CALLDATALOAD PUSH1 0x1 PUSH1 0x1 PUSH1 0x40 SHL SUB DUP2 GT PUSH2 0x18F JUMPI PUSH2 0x1FC SWAP1 CALLDATASIZE SWAP1 PUSH1 0x4 ADD PUSH2 0x169E JUMP JUMPDEST SWAP1 PUSH1 0x64 CALLDATALOAD SWAP1 DUP2 ISZERO ISZERO DUP3 SUB PUSH2 0x18F JUMPI PUSH2 0x12C PUSH1 0x24 CALLDATALOAD LT PUSH2 0x83D JUMPI PUSH3 0x76A700 PUSH1 0x24 CALLDATALOAD GT PUSH2 0x7EA JUMPI DUP1 MLOAD ISZERO PUSH2 0x7A5 JUMPI PUSH7 0x2386F26FC10000 CALLVALUE LT PUSH2 0x754 JUMPI PUSH1 0x2 SLOAD SWAP2 PUSH2 0x243 DUP4 PUSH2 0x1840 JUMP JUMPDEST PUSH1 0x2 SSTORE PUSH2 0x252 PUSH1 0x24 CALLDATALOAD TIMESTAMP PUSH2 0x184F JUMP JUMPDEST SWAP4 PUSH1 0x40 MLOAD SWAP5 PUSH2 0x160 DUP7 ADD DUP7 DUP2 LT PUSH1 0x1 PUSH1 0x1 PUSH1 0x40 SHL SUB DUP3 GT OR PUSH2 0x5A7 JUMPI PUSH1 0x40 MSTORE DUP4 DUP7 MSTORE CALLER PUSH1 0x20 DUP8 ADD MSTORE TIMESTAMP PUSH1 0x40 DUP8 ADD MSTORE PUSH1 0x60 DUP7 ADD MSTORE PUSH1 0x0 PUSH1 0x80 DUP7 ADD MSTORE PUSH1 0x0 PUSH1 0xA0 DUP7 ADD MSTORE CALLVALUE PUSH1 0xC0 DUP7 ADD MSTORE PUSH1 0xE0 DUP6 ADD MSTORE PUSH1 0x40 MLOAD DUP1 PUSH1 0x20 DUP2 ADD LT PUSH1 0x1 PUSH1 0x1 PUSH1 0x40 SHL SUB PUSH1 0x20 DUP4 ADD GT OR PUSH2 0x5A7 JUMPI PUSH1 0x20 DUP2 ADD PUSH1 0x40 MSTORE PUSH1 0x0 DUP2 MSTORE PUSH2 0x100 DUP6 ADD MSTORE ISZERO ISZERO PUSH2 0x120 DUP5 ADD MSTORE PUSH1 0x0 PUSH2 0x140 DUP5 ADD MSTORE DUP2 PUSH1 0x0 MSTORE PUSH1 0x5 PUSH1 0x20 MSTORE PUSH1 0x40 PUSH1 0x0 KECCAK256 DUP4 MLOAD DUP1 MLOAD SWAP1 PUSH1 0x1 PUSH1 0x1 PUSH1 0x40 SHL SUB DUP3 GT PUSH2 0x5A7 JUMPI DUP2 SWAP1 PUSH2 0x307 DUP5 SLOAD PUSH2 0x16F4 JUMP JUMPDEST PUSH1 0x1F DUP2 GT PUSH2 0x704 JUMPI JUMPDEST POP PUSH1 0x20 SWAP1 PUSH1 0x1F DUP4 GT PUSH1 0x1 EQ PUSH2 0x698 JUMPI PUSH1 0x0 SWAP3 PUSH2 0x68D JUMPI JUMPDEST POP POP DUP2 PUSH1 0x1 SHL SWAP2 PUSH1 0x0 NOT SWAP1 PUSH1 0x3 SHL SHR NOT AND OR DUP2 SSTORE JUMPDEST PUSH1 0x1 DUP2 ADD PUSH1 0x1 DUP1 PUSH1 0xA0 SHL SUB PUSH1 0x20 DUP7 ADD MLOAD AND PUSH1 0x1 PUSH1 0x1 PUSH1 0x60 SHL SUB PUSH1 0xA0 SHL DUP3 SLOAD AND OR SWAP1 SSTORE PUSH1 0x40 DUP5 ADD MLOAD PUSH1 0x2 DUP3 ADD SSTORE PUSH1 0x60 DUP5 ADD MLOAD PUSH1 0x3 DUP3 ADD SSTORE PUSH2 0x391 PUSH1 0x80 DUP6 ADD MLOAD ISZERO ISZERO PUSH1 0x4 DUP4 ADD SWAP1 PUSH1 0xFF DUP1 NOT DUP4 SLOAD AND SWAP2 ISZERO ISZERO AND OR SWAP1 SSTORE JUMP JUMPDEST PUSH1 0xA0 DUP5 ADD MLOAD PUSH1 0x5 DUP3 ADD SSTORE PUSH1 0xC0 DUP5 ADD MLOAD PUSH1 0x6 DUP3 ADD SSTORE PUSH1 0xE0 DUP5 ADD MLOAD DUP1 MLOAD SWAP1 PUSH1 0x1 PUSH1 0x1 PUSH1 0x40 SHL SUB DUP3 GT PUSH2 0x5A7 JUMPI DUP2 SWAP1 PUSH2 0x3CA PUSH1 0x7 DUP6 ADD SLOAD PUSH2 0x16F4 JUMP JUMPDEST PUSH1 0x1F DUP2 GT PUSH2 0x63A JUMPI JUMPDEST POP PUSH1 0x20 SWAP1 PUSH1 0x1F DUP4 GT PUSH1 0x1 EQ PUSH2 0x5C8 JUMPI PUSH1 0x0 SWAP3 PUSH2 0x5BD JUMPI JUMPDEST POP POP DUP2 PUSH1 0x1 SHL SWAP2 PUSH1 0x0 NOT SWAP1 PUSH1 0x3 SHL SHR NOT AND OR PUSH1 0x7 DUP3 ADD SSTORE JUMPDEST PUSH1 0x8 DUP2 ADD SWAP4 PUSH2 0x100 DUP2 ADD MLOAD SWAP5 DUP6 MLOAD PUSH1 0x1 PUSH1 0x1 PUSH1 0x40 SHL SUB DUP2 GT PUSH2 0x5A7 JUMPI PUSH2 0x428 DUP3 SLOAD PUSH2 0x16F4 JUMP JUMPDEST SWAP7 PUSH1 0x1F DUP9 GT PUSH2 0x55F JUMPI JUMPDEST PUSH1 0x20 SWAP8 POP DUP8 SWAP1 PUSH1 0x1F DUP4 GT PUSH1 0x1 EQ PUSH2 0x4F2 JUMPI SWAP2 DUP1 PUSH2 0x140 SWAP5 SWAP3 PUSH1 0xA SWAP7 SWAP5 PUSH1 0x0 SWAP3 PUSH2 0x4E7 JUMPI JUMPDEST POP POP DUP2 PUSH1 0x1 SHL SWAP2 PUSH1 0x0 NOT SWAP1 PUSH1 0x3 SHL SHR NOT AND OR SWAP1 SSTORE JUMPDEST PUSH2 0x48B PUSH2 0x120 DUP3 ADD MLOAD ISZERO ISZERO PUSH1 0x9 DUP7 ADD SWAP1 PUSH1 0xFF DUP1 NOT DUP4 SLOAD AND SWAP2 ISZERO ISZERO AND OR SWAP1 SSTORE JUMP JUMPDEST ADD MLOAD SWAP2 ADD SSTORE DUP2 PUSH32 0x3E783E31593F59FDA73A59D05E2525D610A533995CCE4D4750186C3B6BF80BB PUSH2 0x4BE PUSH1 0x24 CALLDATALOAD TIMESTAMP PUSH2 0x184F JUMP JUMPDEST SWAP3 PUSH2 0x4D4 PUSH1 0x40 MLOAD SWAP2 PUSH1 0x40 DUP4 MSTORE PUSH1 0x40 DUP4 ADD SWAP1 PUSH2 0x17D4 JUMP JUMPDEST SWAP4 DUP7 DUP3 ADD MSTORE DUP1 CALLER SWAP5 SUB SWAP1 LOG3 PUSH1 0x40 MLOAD SWAP1 DUP2 MSTORE RETURN JUMPDEST ADD MLOAD SWAP1 POP DUP11 DUP1 PUSH2 0x456 JUMP JUMPDEST SWAP1 PUSH1 0x1F NOT DUP4 AND SWAP2 DUP5 PUSH1 0x0 MSTORE DUP10 PUSH1 0x0 KECCAK256 SWAP3 PUSH1 0x0 JUMPDEST DUP2 DUP2 LT PUSH2 0x548 JUMPI POP SWAP3 PUSH1 0x1 SWAP3 DUP6 SWAP3 PUSH1 0xA SWAP9 SWAP7 PUSH2 0x140 SWAP9 SWAP7 LT PUSH2 0x52F JUMPI JUMPDEST POP POP POP DUP2 SHL ADD SWAP1 SSTORE PUSH2 0x46B JUMP JUMPDEST ADD MLOAD PUSH1 0x0 NOT PUSH1 0xF8 DUP5 PUSH1 0x3 SHL AND SHR NOT AND SWAP1 SSTORE DUP11 DUP1 DUP1 PUSH2 0x522 JUMP JUMPDEST SWAP3 SWAP4 DUP12 PUSH1 0x1 DUP2 SWAP3 DUP8 DUP7 ADD MLOAD DUP2 SSTORE ADD SWAP6 ADD SWAP4 ADD PUSH2 0x505 JUMP JUMPDEST DUP3 PUSH1 0x0 MSTORE PUSH1 0x20 PUSH1 0x0 KECCAK256 PUSH1 0x1F DUP4 ADD PUSH1 0x5 SHR DUP2 ADD SWAP9 PUSH1 0x20 DUP5 LT PUSH2 0x59D JUMPI JUMPDEST PUSH1 0x1F ADD PUSH1 0x5 SHR ADD SWAP8 JUMPDEST DUP9 DUP2 LT PUSH2 0x591 JUMPI POP PUSH2 0x432 JUMP JUMPDEST PUSH1 0x0 DUP2 SSTORE PUSH1 0x1 ADD PUSH2 0x584 JUMP JUMPDEST SWAP1 SWAP9 POP DUP9 SWAP1 PUSH2 0x57B JUMP JUMPDEST PUSH4 0x4E487B71 PUSH1 0xE0 SHL PUSH1 0x0 MSTORE PUSH1 0x41 PUSH1 0x4 MSTORE PUSH1 0x24 PUSH1 0x0 REVERT JUMPDEST ADD MLOAD SWAP1 POP DUP7 DUP1 PUSH2 0x3EA JUMP JUMPDEST SWAP3 POP PUSH1 0x7 DUP5 ADD PUSH1 0x0 MSTORE PUSH1 0x20 PUSH1 0x0 KECCAK256 SWAP1 PUSH1 0x0 SWAP4 JUMPDEST PUSH1 0x1F NOT DUP5 AND DUP6 LT PUSH2 0x61F JUMPI PUSH1 0x1 SWAP5 POP DUP4 PUSH1 0x1F NOT DUP2 AND LT PUSH2 0x606 JUMPI JUMPDEST POP POP POP DUP2 SHL ADD PUSH1 0x7 DUP3 ADD SSTORE PUSH2 0x402 JUMP JUMPDEST ADD MLOAD PUSH1 0x0 NOT PUSH1 0xF8 DUP5 PUSH1 0x3 SHL AND SHR NOT AND SWAP1 SSTORE DUP7 DUP1 DUP1 PUSH2 0x5F6 JUMP JUMPDEST DUP2 DUP2 ADD MLOAD DUP4 SSTORE PUSH1 0x20 SWAP5 DUP6 ADD SWAP5 PUSH1 0x1 SWAP1 SWAP4 ADD SWAP3 SWAP1 SWAP2 ADD SWAP1 PUSH2 0x5DB JUMP JUMPDEST SWAP1 SWAP2 POP PUSH1 0x7 DUP5 ADD PUSH1 0x0 MSTORE PUSH1 0x20 PUSH1 0x0 KECCAK256 PUSH1 0x1F DUP5 ADD PUSH1 0x5 SHR DUP2 ADD PUSH1 0x20 DUP6 LT PUSH2 0x686 JUMPI JUMPDEST SWAP1 DUP5 SWAP4 SWAP3 SWAP2 JUMPDEST PUSH1 0x1F DUP4 ADD PUSH1 0x5 SHR DUP3 ADD DUP2 LT PUSH2 0x677 JUMPI POP POP PUSH2 0x3D3 JUMP JUMPDEST PUSH1 0x0 DUP2 SSTORE DUP6 SWAP5 POP PUSH1 0x1 ADD PUSH2 0x661 JUMP JUMPDEST POP DUP1 PUSH2 0x65B JUMP JUMPDEST ADD MLOAD SWAP1 POP DUP7 DUP1 PUSH2 0x327 JUMP JUMPDEST SWAP3 POP DUP4 PUSH1 0x0 MSTORE PUSH1 0x20 PUSH1 0x0 KECCAK256 SWAP1 PUSH1 0x0 SWAP4 JUMPDEST PUSH1 0x1F NOT DUP5 AND DUP6 LT PUSH2 0x6E9 JUMPI PUSH1 0x1 SWAP5 POP DUP4 PUSH1 0x1F NOT DUP2 AND LT PUSH2 0x6D0 JUMPI JUMPDEST POP POP POP DUP2 SHL ADD DUP2 SSTORE PUSH2 0x33C JUMP JUMPDEST ADD MLOAD PUSH1 0x0 NOT PUSH1 0xF8 DUP5 PUSH1 0x3 SHL AND SHR NOT AND SWAP1 SSTORE DUP7 DUP1 DUP1 PUSH2 0x6C3 JUMP JUMPDEST DUP2 DUP2 ADD MLOAD DUP4 SSTORE PUSH1 0x20 SWAP5 DUP6 ADD SWAP5 PUSH1 0x1 SWAP1 SWAP4 ADD SWAP3 SWAP1 SWAP2 ADD SWAP1 PUSH2 0x6A8 JUMP JUMPDEST SWAP1 SWAP2 POP DUP4 PUSH1 0x0 MSTORE PUSH1 0x20 PUSH1 0x0 KECCAK256 PUSH1 0x1F DUP5 ADD PUSH1 0x5 SHR DUP2 ADD PUSH1 0x20 DUP6 LT PUSH2 0x74D JUMPI JUMPDEST SWAP1 DUP5 SWAP4 SWAP3 SWAP2 JUMPDEST PUSH1 0x1F DUP4 ADD PUSH1 0x5 SHR DUP3 ADD DUP2 LT PUSH2 0x73E JUMPI POP POP PUSH2 0x310 JUMP JUMPDEST PUSH1 0x0 DUP2 SSTORE DUP6 SWAP5 POP PUSH1 0x1 ADD PUSH2 0x728 JUMP JUMPDEST POP DUP1 PUSH2 0x722 JUMP JUMPDEST PUSH1 0x40 MLOAD PUSH3 0x461BCD PUSH1 0xE5 SHL DUP2 MSTORE PUSH1 0x20 PUSH1 0x4 DUP3 ADD MSTORE PUSH1 0x24 DUP1 DUP3 ADD MSTORE PUSH32 0x4D696E696D756D206D61726B6574206372656174696F6E206665652072657175 PUSH1 0x44 DUP3 ADD MSTORE PUSH4 0x1A5C9959 PUSH1 0xE2 SHL PUSH1 0x64 DUP3 ADD MSTORE PUSH1 0x84 SWAP1 REVERT JUMPDEST PUSH1 0x40 MLOAD PUSH3 0x461BCD PUSH1 0xE5 SHL DUP2 MSTORE PUSH1 0x20 PUSH1 0x4 DUP3 ADD MSTORE PUSH1 0x18 PUSH1 0x24 DUP3 ADD MSTORE PUSH32 0x5175657374696F6E2063616E6E6F7420626520656D7074790000000000000000 PUSH1 0x44 DUP3 ADD MSTORE PUSH1 0x64 SWAP1 REVERT JUMPDEST PUSH1 0x40 MLOAD PUSH3 0x461BCD PUSH1 0xE5 SHL DUP2 MSTORE PUSH1 0x20 PUSH1 0x4 DUP3 ADD MSTORE PUSH1 0x25 PUSH1 0x24 DUP3 ADD MSTORE PUSH32 0x4D61726B6574206475726174696F6E2063616E6E6F7420657863656564203930 PUSH1 0x44 DUP3 ADD MSTORE PUSH5 0x2064617973 PUSH1 0xD8 SHL PUSH1 0x64 DUP3 ADD MSTORE PUSH1 0x84 SWAP1 REVERT JUMPDEST PUSH1 0x40 MLOAD PUSH3 0x461BCD PUSH1 0xE5 SHL DUP2 MSTORE PUSH1 0x20 PUSH1 0x4 DUP3 ADD MSTORE PUSH1 0x2A PUSH1 0x24 DUP3 ADD MSTORE PUSH32 0x4D61726B6574206475726174696F6E206D757374206265206174206C65617374 PUSH1 0x44 DUP3 ADD MSTORE PUSH10 0x2035206D696E75746573 PUSH1 0xB0 SHL PUSH1 0x64 DUP3 ADD MSTORE PUSH1 0x84 SWAP1 REVERT JUMPDEST CALLVALUE PUSH2 0x18F JUMPI PUSH1 0x40 CALLDATASIZE PUSH1 0x3 NOT ADD SLT PUSH2 0x18F JUMPI PUSH1 0x24 CALLDATALOAD PUSH1 0x4 CALLDATALOAD PUSH1 0x0 MSTORE PUSH1 0x8 PUSH1 0x20 MSTORE PUSH1 0x40 PUSH1 0x0 KECCAK256 DUP1 SLOAD DUP3 LT ISZERO PUSH2 0x18F JUMPI PUSH1 0x20 SWAP2 PUSH2 0x8CE SWAP2 PUSH2 0x164F JUMP JUMPDEST SWAP1 SLOAD PUSH1 0x40 MLOAD SWAP2 PUSH1 0x3 SHL SHR DUP2 MSTORE RETURN JUMPDEST CALLVALUE PUSH2 0x18F JUMPI PUSH1 0x0 CALLDATASIZE PUSH1 0x3 NOT ADD SLT PUSH2 0x18F JUMPI PUSH2 0x8F5 PUSH2 0x1814 JUMP JUMPDEST PUSH1 0x0 DUP1 DUP1 DUP1 PUSH1 0x1 DUP1 PUSH1 0xA0 SHL SUB PUSH1 0x1 SLOAD AND SELFBALANCE SWAP1 DUP3 DUP3 ISZERO PUSH2 0x923 JUMPI JUMPDEST CALL ISZERO PUSH2 0x917 JUMPI STOP JUMPDEST PUSH1 0x40 MLOAD RETURNDATASIZE PUSH1 0x0 DUP3 RETURNDATACOPY RETURNDATASIZE SWAP1 REVERT JUMPDEST POP PUSH2 0x8FC PUSH2 0x90F JUMP JUMPDEST CALLVALUE PUSH2 0x18F JUMPI PUSH1 0x0 CALLDATASIZE PUSH1 0x3 NOT ADD SLT PUSH2 0x18F JUMPI PUSH1 0x20 PUSH1 0x4 SLOAD PUSH1 0x40 MLOAD SWAP1 DUP2 MSTORE RETURN JUMPDEST CALLVALUE PUSH2 0x18F JUMPI PUSH1 0x20 CALLDATASIZE PUSH1 0x3 NOT ADD SLT PUSH2 0x18F JUMPI PUSH1 0x4 CALLDATALOAD PUSH1 0x0 MSTORE PUSH1 0x5 PUSH1 0x20 MSTORE PUSH1 0x20 PUSH2 0x9E9 PUSH1 0x40 PUSH1 0x0 KECCAK256 PUSH2 0x979 DUP2 PUSH2 0x172E JUMP JUMPDEST PUSH2 0xA23 DUP3 PUSH2 0xA14 PUSH1 0x1 DUP1 PUSH1 0xA0 SHL SUB PUSH1 0x1 DUP4 ADD SLOAD AND SWAP4 PUSH1 0x2 DUP4 ADD SLOAD PUSH1 0x3 DUP5 ADD SLOAD PUSH1 0xFF PUSH1 0x4 DUP7 ADD SLOAD AND PUSH1 0x5 DUP7 ADD SLOAD SWAP1 PUSH1 0x6 DUP8 ADD SLOAD SWAP3 PUSH2 0x9B8 PUSH1 0x7 DUP10 ADD PUSH2 0x172E JUMP JUMPDEST SWAP5 PUSH1 0xA PUSH1 0xFF PUSH1 0x9 PUSH2 0x9CB PUSH1 0x8 DUP14 ADD PUSH2 0x172E JUMP JUMPDEST SWAP12 ADD SLOAD AND SWAP13 ADD SLOAD SWAP11 PUSH1 0x40 MLOAD SWAP15 DUP16 SWAP15 DUP16 SWAP10 PUSH2 0x160 DUP1 DUP13 MSTORE DUP12 ADD SWAP1 PUSH2 0x17D4 JUMP JUMPDEST SWAP9 ADD MSTORE PUSH1 0x40 DUP14 ADD MSTORE PUSH1 0x60 DUP13 ADD MSTORE ISZERO ISZERO PUSH1 0x80 DUP12 ADD MSTORE PUSH1 0xA0 DUP11 ADD MSTORE PUSH1 0xC0 DUP10 ADD MSTORE DUP8 DUP3 SUB PUSH1 0xE0 DUP10 ADD MSTORE PUSH2 0x17D4 JUMP JUMPDEST SWAP1 DUP6 DUP3 SUB PUSH2 0x100 DUP8 ADD MSTORE PUSH2 0x17D4 JUMP JUMPDEST SWAP2 ISZERO ISZERO PUSH2 0x120 DUP5 ADD MSTORE PUSH2 0x140 DUP4 ADD MSTORE SUB SWAP1 RETURN JUMPDEST CALLVALUE PUSH2 0x18F JUMPI PUSH1 0x20 CALLDATASIZE PUSH1 0x3 NOT ADD SLT PUSH2 0x18F JUMPI PUSH1 0x4 CALLDATALOAD PUSH1 0x0 SWAP1 DUP2 MSTORE PUSH1 0x6 PUSH1 0x20 MSTORE PUSH1 0x40 SWAP1 KECCAK256 DUP1 SLOAD PUSH1 0x1 DUP3 ADD SLOAD PUSH1 0x1 PUSH1 0x1 PUSH1 0xA0 SHL SUB AND SWAP2 PUSH2 0xAE9 PUSH2 0xA78 PUSH1 0x2 DUP4 ADD PUSH2 0x172E JUMP JUMPDEST SWAP2 PUSH1 0x3 DUP2 ADD SLOAD SWAP1 PUSH1 0x4 DUP2 ADD SLOAD PUSH1 0x5 DUP3 ADD SLOAD PUSH1 0xFF PUSH1 0x6 DUP5 ADD SLOAD AND SWAP2 PUSH2 0xAC5 PUSH1 0x8 PUSH2 0xAA3 PUSH1 0x7 DUP8 ADD PUSH2 0x172E JUMP JUMPDEST SWAP6 ADD SLOAD SWAP8 PUSH1 0x40 MLOAD SWAP11 DUP12 SWAP11 DUP12 MSTORE PUSH1 0x20 DUP12 ADD MSTORE PUSH2 0x120 DUP1 PUSH1 0x40 DUP13 ADD MSTORE DUP11 ADD SWAP1 PUSH2 0x17D4 JUMP JUMPDEST SWAP5 PUSH1 0x60 DUP10 ADD MSTORE PUSH1 0x80 DUP9 ADD MSTORE PUSH1 0xA0 DUP8 ADD MSTORE ISZERO ISZERO PUSH1 0xC0 DUP7 ADD MSTORE DUP5 DUP3 SUB PUSH1 0xE0 DUP7 ADD MSTORE PUSH2 0x17D4 JUMP JUMPDEST SWAP1 PUSH2 0x100 DUP4 ADD MSTORE SUB SWAP1 RETURN JUMPDEST CALLVALUE PUSH2 0x18F JUMPI PUSH1 0x20 DUP1 PUSH1 0x3 NOT CALLDATASIZE ADD SLT PUSH2 0x18F JUMPI PUSH1 0x1 PUSH1 0x1 PUSH1 0xA0 SHL SUB PUSH2 0xB16 PUSH2 0x15FE JUMP JUMPDEST AND PUSH1 0x0 MSTORE PUSH1 0x9 DUP2 MSTORE PUSH1 0x40 PUSH1 0x0 KECCAK256 SWAP1 PUSH1 0x40 MLOAD SWAP1 DUP2 DUP2 DUP5 SLOAD SWAP2 DUP3 DUP2 MSTORE ADD SWAP4 PUSH1 0x0 MSTORE DUP2 PUSH1 0x0 KECCAK256 SWAP2 PUSH1 0x0 SWAP1 JUMPDEST DUP3 DUP3 LT PUSH2 0xB65 JUMPI PUSH2 0xB61 DUP6 PUSH2 0xB55 DUP2 DUP10 SUB DUP3 PUSH2 0x167D JUMP JUMPDEST PUSH1 0x40 MLOAD SWAP2 DUP3 SWAP2 DUP3 PUSH2 0x1614 JUMP JUMPDEST SUB SWAP1 RETURN JUMPDEST DUP4 SLOAD DUP7 MSTORE SWAP5 DUP6 ADD SWAP5 PUSH1 0x1 SWAP4 DUP5 ADD SWAP4 SWAP1 SWAP2 ADD SWAP1 PUSH2 0xB3E JUMP JUMPDEST CALLVALUE PUSH2 0x18F JUMPI PUSH1 0x40 CALLDATASIZE PUSH1 0x3 NOT ADD SLT PUSH2 0x18F JUMPI PUSH2 0xB95 PUSH2 0x15FE JUMP JUMPDEST PUSH1 0x1 PUSH1 0x1 PUSH1 0xA0 SHL SUB AND PUSH1 0x0 SWAP1 DUP2 MSTORE PUSH1 0x9 PUSH1 0x20 MSTORE PUSH1 0x40 SWAP1 KECCAK256 DUP1 SLOAD PUSH1 0x24 CALLDATALOAD SWAP2 SWAP1 DUP3 LT ISZERO PUSH2 0x18F JUMPI PUSH1 0x20 SWAP2 PUSH2 0x8CE SWAP2 PUSH2 0x164F JUMP JUMPDEST CALLVALUE PUSH2 0x18F JUMPI PUSH1 0x20 DUP1 PUSH1 0x3 NOT CALLDATASIZE ADD SLT PUSH2 0x18F JUMPI PUSH1 0x4 CALLDATALOAD PUSH1 0x0 MSTORE PUSH1 0x8 DUP2 MSTORE PUSH1 0x40 PUSH1 0x0 KECCAK256 SWAP1 PUSH1 0x40 MLOAD SWAP1 DUP2 DUP2 DUP5 SLOAD SWAP2 DUP3 DUP2 MSTORE ADD SWAP4 PUSH1 0x0 MSTORE DUP2 PUSH1 0x0 KECCAK256 SWAP2 PUSH1 0x0 SWAP1 JUMPDEST DUP3 DUP3 LT PUSH2 0xC19 JUMPI PUSH2 0xB61 DUP6 PUSH2 0xB55 DUP2 DUP10 SUB DUP3 PUSH2 0x167D JUMP JUMPDEST DUP4 SLOAD DUP7 MSTORE SWAP5 DUP6 ADD SWAP5 PUSH1 0x1 SWAP4 DUP5 ADD SWAP4 SWAP1 SWAP2 ADD SWAP1 PUSH2 0xC02 JUMP JUMPDEST CALLVALUE PUSH2 0x18F JUMPI PUSH1 0x0 CALLDATASIZE PUSH1 0x3 NOT ADD SLT PUSH2 0x18F JUMPI PUSH1 0x1 SLOAD PUSH1 0x40 MLOAD PUSH1 0x1 PUSH1 0x1 PUSH1 0xA0 SHL SUB SWAP1 SWAP2 AND DUP2 MSTORE PUSH1 0x20 SWAP1 RETURN JUMPDEST PUSH1 0x60 CALLDATASIZE PUSH1 0x3 NOT ADD SLT PUSH2 0x18F JUMPI PUSH1 0x24 CALLDATALOAD PUSH1 0x1 PUSH1 0x1 PUSH1 0x40 SHL SUB DUP2 GT PUSH2 0x18F JUMPI PUSH2 0xC84 SWAP1 CALLDATASIZE SWAP1 PUSH1 0x4 ADD PUSH2 0x169E JUMP JUMPDEST PUSH1 0x44 CALLDATALOAD PUSH1 0x1 PUSH1 0x1 PUSH1 0x40 SHL SUB DUP2 GT PUSH2 0x18F JUMPI PUSH2 0xCA3 SWAP1 CALLDATASIZE SWAP1 PUSH1 0x4 ADD PUSH2 0x169E JUMP JUMPDEST SWAP1 PUSH1 0x2 SLOAD PUSH1 0x4 CALLDATALOAD LT ISZERO PUSH2 0x11DC JUMPI PUSH1 0x4 CALLDATALOAD PUSH1 0x0 MSTORE PUSH1 0x5 PUSH1 0x20 MSTORE PUSH2 0xCCE PUSH1 0x3 PUSH1 0x40 PUSH1 0x0 KECCAK256 ADD SLOAD TIMESTAMP LT PUSH2 0x185C JUMP JUMPDEST PUSH1 0x4 CALLDATALOAD PUSH1 0x0 MSTORE PUSH1 0x5 PUSH1 0x20 MSTORE PUSH2 0xCEE PUSH1 0xFF PUSH1 0x4 PUSH1 0x40 PUSH1 0x0 KECCAK256 ADD SLOAD AND ISZERO PUSH2 0x189B JUMP JUMPDEST PUSH7 0x38D7EA4C68000 CALLVALUE LT PUSH2 0x118D JUMPI DUP1 MLOAD ISZERO PUSH2 0x1148 JUMPI PUSH1 0x3 SLOAD SWAP1 PUSH2 0xD10 DUP3 PUSH2 0x1840 JUMP JUMPDEST PUSH1 0x3 SSTORE PUSH1 0x7 CALLVALUE MUL CALLVALUE DUP2 DIV PUSH1 0x7 EQ CALLVALUE ISZERO OR ISZERO PUSH2 0x1132 JUMPI PUSH2 0xD32 PUSH1 0x64 DUP3 DIV CALLVALUE PUSH2 0x18E7 JUMP JUMPDEST DUP5 MLOAD PUSH1 0x20 DUP7 ADD KECCAK256 PUSH1 0x40 MLOAD SWAP6 DUP7 PUSH2 0x120 DUP2 ADD LT PUSH1 0x1 PUSH1 0x1 PUSH1 0x40 SHL SUB PUSH2 0x120 DUP10 ADD GT OR PUSH2 0x5A7 JUMPI PUSH2 0x120 DUP8 ADD PUSH1 0x40 MSTORE PUSH1 0x4 CALLDATALOAD DUP8 MSTORE PUSH1 0x20 DUP8 ADD SWAP3 CALLER DUP5 MSTORE DUP6 PUSH1 0x40 DUP10 ADD MSTORE DUP1 PUSH1 0x60 DUP10 ADD MSTORE PUSH1 0x80 DUP9 ADD MSTORE PUSH1 0x0 NOT PUSH1 0xA0 DUP9 ADD MSTORE PUSH1 0x0 PUSH1 0xC0 DUP9 ADD MSTORE PUSH1 0xE0 DUP8 ADD MSTORE PUSH2 0x100 DUP7 ADD MSTORE DUP4 PUSH1 0x0 MSTORE PUSH1 0x6 PUSH1 0x20 MSTORE PUSH1 0x40 PUSH1 0x0 KECCAK256 SWAP1 DUP6 MLOAD DUP3 SSTORE PUSH1 0x1 DUP3 ADD SWAP1 PUSH1 0x1 DUP1 PUSH1 0xA0 SHL SUB SWAP1 MLOAD AND PUSH1 0x1 PUSH1 0x1 PUSH1 0x60 SHL SUB PUSH1 0xA0 SHL DUP3 SLOAD AND OR SWAP1 SSTORE PUSH1 0x40 DUP6 ADD MLOAD DUP1 MLOAD SWAP1 PUSH1 0x1 PUSH1 0x1 PUSH1 0x40 SHL SUB DUP3 GT PUSH2 0x5A7 JUMPI DUP2 SWAP1 PUSH2 0xDEF PUSH1 0x2 DUP6 ADD SLOAD PUSH2 0x16F4 JUMP JUMPDEST PUSH1 0x1F DUP2 GT PUSH2 0x10DF JUMPI JUMPDEST POP PUSH1 0x20 SWAP1 PUSH1 0x1F DUP4 GT PUSH1 0x1 EQ PUSH2 0x106D JUMPI PUSH1 0x0 SWAP3 PUSH2 0x1062 JUMPI JUMPDEST POP POP DUP2 PUSH1 0x1 SHL SWAP2 PUSH1 0x0 NOT SWAP1 PUSH1 0x3 SHL SHR NOT AND OR PUSH1 0x2 DUP3 ADD SSTORE JUMPDEST PUSH1 0x60 DUP6 ADD MLOAD PUSH1 0x3 DUP3 ADD SSTORE PUSH1 0x80 DUP6 ADD MLOAD PUSH1 0x4 DUP3 ADD SSTORE PUSH1 0xA0 DUP6 ADD MLOAD PUSH1 0x5 DUP3 ADD SSTORE PUSH2 0xE64 PUSH1 0xC0 DUP7 ADD MLOAD ISZERO ISZERO PUSH1 0x6 DUP4 ADD SWAP1 PUSH1 0xFF DUP1 NOT DUP4 SLOAD AND SWAP2 ISZERO ISZERO AND OR SWAP1 SSTORE JUMP JUMPDEST PUSH1 0xE0 DUP6 ADD MLOAD SWAP5 DUP6 MLOAD PUSH1 0x1 PUSH1 0x1 PUSH1 0x40 SHL SUB DUP2 GT PUSH2 0x5A7 JUMPI PUSH2 0xE87 PUSH1 0x7 DUP5 ADD SLOAD PUSH2 0x16F4 JUMP JUMPDEST SWAP7 PUSH1 0x1F DUP9 GT PUSH2 0x101B JUMPI JUMPDEST PUSH1 0x20 SWAP8 POP DUP8 SWAP1 PUSH1 0x1F DUP4 GT PUSH1 0x1 EQ PUSH2 0xFA2 JUMPI SWAP3 DUP3 PUSH1 0x8 SWAP4 PUSH2 0x100 SWAP4 PUSH2 0xF15 SWAP9 SWAP8 SWAP7 PUSH1 0x0 SWAP3 PUSH2 0xF97 JUMPI JUMPDEST POP POP DUP2 PUSH1 0x1 SHL SWAP2 PUSH1 0x0 NOT SWAP1 PUSH1 0x3 SHL SHR NOT AND OR PUSH1 0x7 DUP6 ADD SSTORE JUMPDEST ADD MLOAD SWAP2 ADD SSTORE PUSH1 0x4 CALLDATALOAD PUSH1 0x0 MSTORE PUSH1 0x5 DUP6 MSTORE PUSH1 0xA PUSH1 0x64 PUSH2 0xEF6 CALLVALUE PUSH1 0x6 PUSH1 0x40 PUSH1 0x0 KECCAK256 ADD SLOAD PUSH2 0x184F JUMP JUMPDEST SWAP3 PUSH1 0x4 CALLDATALOAD PUSH1 0x0 MSTORE PUSH1 0x5 DUP9 MSTORE PUSH1 0x40 PUSH1 0x0 KECCAK256 SWAP4 PUSH1 0x6 DUP6 ADD SSTORE DIV SWAP2 ADD SLOAD PUSH2 0x184F JUMP JUMPDEST PUSH1 0x4 CALLDATALOAD PUSH1 0x0 MSTORE PUSH1 0x5 DUP5 MSTORE PUSH1 0xA PUSH1 0x40 PUSH1 0x0 KECCAK256 ADD SSTORE PUSH1 0x8 DUP4 MSTORE PUSH2 0xF3A DUP3 PUSH1 0x40 PUSH1 0x0 KECCAK256 PUSH2 0x18F4 JUMP JUMPDEST CALLER PUSH1 0x0 MSTORE PUSH1 0x9 DUP4 MSTORE PUSH2 0xF50 DUP3 PUSH1 0x40 PUSH1 0x0 KECCAK256 PUSH2 0x18F4 JUMP JUMPDEST PUSH1 0x40 MLOAD SWAP1 DUP4 DUP3 MSTORE DUP3 PUSH32 0x9D9EC53E54F6385EC09428208C029BD27EB96263FC7B5DA62DB98ECC7D3F015C CALLER SWAP4 DUP1 PUSH2 0xF8C PUSH1 0x4 CALLDATALOAD SWAP6 DUP10 DUP4 ADD SWAP1 PUSH2 0x17D4 JUMP JUMPDEST SUB SWAP1 LOG4 PUSH1 0x40 MLOAD SWAP1 DUP2 MSTORE RETURN JUMPDEST ADD MLOAD SWAP1 POP DUP12 DUP1 PUSH2 0xEB9 JUMP JUMPDEST SWAP1 PUSH1 0x7 DUP6 ADD PUSH1 0x0 MSTORE DUP9 PUSH1 0x0 KECCAK256 SWAP2 PUSH1 0x0 JUMPDEST PUSH1 0x1F NOT DUP6 AND DUP2 LT PUSH2 0x1004 JUMPI POP DUP4 PUSH2 0x100 SWAP4 PUSH2 0xF15 SWAP9 SWAP8 SWAP7 SWAP4 PUSH1 0x1 SWAP4 PUSH1 0x8 SWAP8 PUSH1 0x1F NOT DUP2 AND LT PUSH2 0xFEB JUMPI JUMPDEST POP POP POP DUP2 SHL ADD PUSH1 0x7 DUP6 ADD SSTORE PUSH2 0xED1 JUMP JUMPDEST ADD MLOAD PUSH1 0x0 NOT PUSH1 0xF8 DUP5 PUSH1 0x3 SHL AND SHR NOT AND SWAP1 SSTORE DUP12 DUP1 DUP1 PUSH2 0xFDB JUMP JUMPDEST SWAP2 SWAP3 DUP11 PUSH1 0x1 DUP2 SWAP3 DUP7 DUP6 ADD MLOAD DUP2 SSTORE ADD SWAP5 ADD SWAP3 ADD PUSH2 0xFB2 JUMP JUMPDEST PUSH1 0x7 DUP5 ADD PUSH1 0x0 MSTORE PUSH1 0x20 PUSH1 0x0 KECCAK256 PUSH1 0x1F DUP4 ADD PUSH1 0x5 SHR DUP2 ADD PUSH1 0x20 DUP5 LT PUSH2 0x105B JUMPI JUMPDEST PUSH1 0x1F DUP11 ADD PUSH1 0x5 SHR DUP3 ADD DUP2 LT PUSH2 0x104F JUMPI POP POP PUSH2 0xE91 JUMP JUMPDEST PUSH1 0x0 DUP2 SSTORE PUSH1 0x1 ADD PUSH2 0x1039 JUMP JUMPDEST POP DUP1 PUSH2 0x1039 JUMP JUMPDEST ADD MLOAD SWAP1 POP DUP8 DUP1 PUSH2 0xE0F JUMP JUMPDEST SWAP3 POP PUSH1 0x2 DUP5 ADD PUSH1 0x0 MSTORE PUSH1 0x20 PUSH1 0x0 KECCAK256 SWAP1 PUSH1 0x0 SWAP4 JUMPDEST PUSH1 0x1F NOT DUP5 AND DUP6 LT PUSH2 0x10C4 JUMPI PUSH1 0x1 SWAP5 POP DUP4 PUSH1 0x1F NOT DUP2 AND LT PUSH2 0x10AB JUMPI JUMPDEST POP POP POP DUP2 SHL ADD PUSH1 0x2 DUP3 ADD SSTORE PUSH2 0xE27 JUMP JUMPDEST ADD MLOAD PUSH1 0x0 NOT PUSH1 0xF8 DUP5 PUSH1 0x3 SHL AND SHR NOT AND SWAP1 SSTORE DUP8 DUP1 DUP1 PUSH2 0x109B JUMP JUMPDEST DUP2 DUP2 ADD MLOAD DUP4 SSTORE PUSH1 0x20 SWAP5 DUP6 ADD SWAP5 PUSH1 0x1 SWAP1 SWAP4 ADD SWAP3 SWAP1 SWAP2 ADD SWAP1 PUSH2 0x1080 JUMP JUMPDEST SWAP1 SWAP2 POP PUSH1 0x2 DUP5 ADD PUSH1 0x0 MSTORE PUSH1 0x20 PUSH1 0x0 KECCAK256 PUSH1 0x1F DUP5 ADD PUSH1 0x5 SHR DUP2 ADD PUSH1 0x20 DUP6 LT PUSH2 0x112B JUMPI JUMPDEST SWAP1 DUP5 SWAP4 SWAP3 SWAP2 JUMPDEST PUSH1 0x1F DUP4 ADD PUSH1 0x5 SHR DUP3 ADD DUP2 LT PUSH2 0x111C JUMPI POP POP PUSH2 0xDF8 JUMP JUMPDEST PUSH1 0x0 DUP2 SSTORE DUP6 SWAP5 POP PUSH1 0x1 ADD PUSH2 0x1106 JUMP JUMPDEST POP DUP1 PUSH2 0x1100 JUMP JUMPDEST PUSH4 0x4E487B71 PUSH1 0xE0 SHL PUSH1 0x0 MSTORE PUSH1 0x11 PUSH1 0x4 MSTORE PUSH1 0x24 PUSH1 0x0 REVERT JUMPDEST PUSH1 0x40 MLOAD PUSH3 0x461BCD PUSH1 0xE5 SHL DUP2 MSTORE PUSH1 0x20 PUSH1 0x4 DUP3 ADD MSTORE PUSH1 0x1E PUSH1 0x24 DUP3 ADD MSTORE PUSH32 0x50726564696374656420746578742063616E6E6F7420626520656D7074790000 PUSH1 0x44 DUP3 ADD MSTORE PUSH1 0x64 SWAP1 REVERT JUMPDEST PUSH1 0x40 MLOAD PUSH3 0x461BCD PUSH1 0xE5 SHL DUP2 MSTORE PUSH1 0x20 PUSH1 0x4 DUP3 ADD MSTORE PUSH1 0x21 PUSH1 0x24 DUP3 ADD MSTORE PUSH32 0x4D696E696D756D207375626D697373696F6E207374616B652072657175697265 PUSH1 0x44 DUP3 ADD MSTORE PUSH1 0x19 PUSH1 0xFA SHL PUSH1 0x64 DUP3 ADD MSTORE PUSH1 0x84 SWAP1 REVERT JUMPDEST PUSH1 0x40 MLOAD PUSH3 0x461BCD PUSH1 0xE5 SHL DUP2 MSTORE PUSH1 0x20 PUSH1 0x4 DUP3 ADD MSTORE PUSH1 0x15 PUSH1 0x24 DUP3 ADD MSTORE PUSH21 0x13585C9AD95D08191BD95CC81B9BDD08195E1A5CDD PUSH1 0x5A SHL PUSH1 0x44 DUP3 ADD MSTORE PUSH1 0x64 SWAP1 REVERT JUMPDEST CALLVALUE PUSH2 0x18F JUMPI PUSH1 0x40 CALLDATASIZE PUSH1 0x3 NOT ADD SLT PUSH2 0x18F JUMPI PUSH2 0x1232 PUSH2 0x15FE JUMP JUMPDEST PUSH1 0x1 PUSH1 0x1 PUSH1 0xA0 SHL SUB AND PUSH1 0x0 SWAP1 DUP2 MSTORE PUSH1 0xA PUSH1 0x20 MSTORE PUSH1 0x40 SWAP1 KECCAK256 DUP1 SLOAD PUSH1 0x24 CALLDATALOAD SWAP2 SWAP1 DUP3 LT ISZERO PUSH2 0x18F JUMPI PUSH1 0x20 SWAP2 PUSH2 0x8CE SWAP2 PUSH2 0x164F JUMP JUMPDEST CALLVALUE PUSH2 0x18F JUMPI PUSH1 0x0 CALLDATASIZE PUSH1 0x3 NOT ADD SLT PUSH2 0x18F JUMPI PUSH2 0x127C PUSH2 0x1814 JUMP JUMPDEST PUSH1 0x1 DUP1 SLOAD PUSH1 0x1 PUSH1 0x1 PUSH1 0xA0 SHL SUB NOT DUP2 AND SWAP1 SWAP2 SSTORE PUSH1 0x0 SWAP1 PUSH1 0x1 PUSH1 0x1 PUSH1 0xA0 SHL SUB AND PUSH32 0x8BE0079C531659141344CD1FD0A4F28419497F9722A3DAAFE3B4186F6B6457E0 DUP3 DUP1 LOG3 STOP JUMPDEST CALLVALUE PUSH2 0x18F JUMPI PUSH1 0x0 CALLDATASIZE PUSH1 0x3 NOT ADD SLT PUSH2 0x18F JUMPI PUSH1 0x20 PUSH1 0x3 SLOAD PUSH1 0x40 MLOAD SWAP1 DUP2 MSTORE RETURN JUMPDEST CALLVALUE PUSH2 0x18F JUMPI PUSH1 0x0 CALLDATASIZE PUSH1 0x3 NOT ADD SLT PUSH2 0x18F JUMPI PUSH1 0x20 PUSH1 0x40 MLOAD PUSH1 0x7 DUP2 MSTORE RETURN JUMPDEST CALLVALUE PUSH2 0x18F JUMPI PUSH1 0x20 DUP1 PUSH1 0x3 NOT CALLDATASIZE ADD SLT PUSH2 0x18F JUMPI PUSH1 0x1 PUSH1 0x1 PUSH1 0xA0 SHL SUB PUSH2 0x131C PUSH2 0x15FE JUMP JUMPDEST AND PUSH1 0x0 MSTORE PUSH1 0xA DUP2 MSTORE PUSH1 0x40 PUSH1 0x0 KECCAK256 SWAP1 PUSH1 0x40 MLOAD SWAP1 DUP2 DUP2 DUP5 SLOAD SWAP2 DUP3 DUP2 MSTORE ADD SWAP4 PUSH1 0x0 MSTORE DUP2 PUSH1 0x0 KECCAK256 SWAP2 PUSH1 0x0 SWAP1 JUMPDEST DUP3 DUP3 LT PUSH2 0x135B JUMPI PUSH2 0xB61 DUP6 PUSH2 0xB55 DUP2 DUP10 SUB DUP3 PUSH2 0x167D JUMP JUMPDEST DUP4 SLOAD DUP7 MSTORE SWAP5 DUP6 ADD SWAP5 PUSH1 0x1 SWAP4 DUP5 ADD SWAP4 SWAP1 SWAP2 ADD SWAP1 PUSH2 0x1344 JUMP JUMPDEST CALLVALUE PUSH2 0x18F JUMPI PUSH1 0x20 CALLDATASIZE PUSH1 0x3 NOT ADD SLT PUSH2 0x18F JUMPI PUSH1 0x4 CALLDATALOAD PUSH1 0x0 MSTORE PUSH1 0x7 PUSH1 0x20 MSTORE PUSH1 0x80 PUSH1 0x40 PUSH1 0x0 KECCAK256 PUSH1 0x1 DUP1 PUSH1 0xA0 SHL SUB DUP2 SLOAD AND SWAP1 PUSH1 0x1 DUP2 ADD SLOAD SWAP1 PUSH1 0x3 PUSH1 0x2 DUP3 ADD SLOAD SWAP2 ADD SLOAD SWAP2 PUSH1 0x40 MLOAD SWAP4 DUP5 MSTORE PUSH1 0x20 DUP5 ADD MSTORE PUSH1 0x40 DUP4 ADD MSTORE PUSH1 0x60 DUP3 ADD MSTORE RETURN JUMPDEST PUSH1 0x20 SWAP1 DUP2 PUSH1 0x3 NOT CALLDATASIZE ADD SLT PUSH2 0x18F JUMPI PUSH1 0x4 CALLDATALOAD SWAP1 PUSH1 0x2 PUSH1 0x0 SLOAD EQ PUSH2 0x15EF JUMPI POP PUSH1 0x2 PUSH1 0x0 SSTORE PUSH1 0x3 SLOAD DUP2 LT ISZERO PUSH2 0x15AA JUMPI PUSH6 0x5AF3107A4000 CALLVALUE LT PUSH2 0x1565 JUMPI DUP1 PUSH1 0x0 MSTORE PUSH1 0x6 DUP3 MSTORE PUSH1 0x40 PUSH1 0x0 KECCAK256 SWAP1 DUP2 SLOAD PUSH1 0x0 MSTORE PUSH1 0x5 DUP4 MSTORE PUSH1 0x40 PUSH1 0x0 KECCAK256 SWAP1 PUSH2 0x142F PUSH1 0xFF PUSH1 0x4 DUP5 ADD SLOAD AND ISZERO PUSH2 0x189B JUMP JUMPDEST PUSH2 0x143E PUSH1 0x3 DUP4 ADD SLOAD TIMESTAMP LT PUSH2 0x185C JUMP JUMPDEST PUSH1 0x4 SLOAD SWAP3 PUSH2 0x144B DUP5 PUSH2 0x1840 JUMP JUMPDEST PUSH1 0x4 SSTORE PUSH1 0x7 CALLVALUE MUL CALLVALUE DUP2 DIV PUSH1 0x7 EQ CALLVALUE ISZERO OR ISZERO PUSH2 0x1132 JUMPI PUSH1 0x64 SWAP1 DIV SWAP1 PUSH2 0x146F DUP3 CALLVALUE PUSH2 0x18E7 JUMP JUMPDEST SWAP4 PUSH1 0x40 MLOAD SWAP1 PUSH1 0x80 DUP3 ADD DUP3 DUP2 LT PUSH1 0x1 PUSH1 0x1 PUSH1 0x40 SHL SUB DUP3 GT OR PUSH2 0x5A7 JUMPI PUSH2 0x1514 SWAP4 PUSH1 0xA SWAP4 PUSH1 0x4 SWAP3 PUSH1 0x40 MSTORE CALLER DUP2 MSTORE PUSH1 0x3 DUP11 DUP11 DUP14 PUSH1 0x7 DUP2 DUP7 ADD SWAP2 DUP14 DUP4 MSTORE PUSH1 0x40 DUP8 ADD SWAP4 DUP5 MSTORE PUSH1 0x60 DUP8 ADD SWAP5 TIMESTAMP DUP7 MSTORE PUSH1 0x0 MSTORE MSTORE PUSH1 0x40 PUSH1 0x0 KECCAK256 SWAP5 PUSH1 0x1 DUP1 PUSH1 0xA0 SHL SUB SWAP1 MLOAD AND PUSH1 0x1 PUSH1 0x1 PUSH1 0x60 SHL SUB PUSH1 0xA0 SHL DUP7 SLOAD AND OR DUP6 SSTORE MLOAD PUSH1 0x1 DUP6 ADD SSTORE MLOAD PUSH1 0x2 DUP5 ADD SSTORE MLOAD SWAP2 ADD SSTORE ADD PUSH2 0x14F8 DUP8 DUP3 SLOAD PUSH2 0x184F JUMP JUMPDEST SWAP1 SSTORE PUSH1 0x6 DUP2 ADD PUSH2 0x1509 CALLVALUE DUP3 SLOAD PUSH2 0x184F JUMP JUMPDEST SWAP1 SSTORE ADD SWAP2 DUP3 SLOAD PUSH2 0x184F JUMP JUMPDEST SWAP1 SSTORE CALLER PUSH1 0x0 MSTORE PUSH1 0xA DUP5 MSTORE PUSH2 0x152C DUP4 PUSH1 0x40 PUSH1 0x0 KECCAK256 PUSH2 0x18F4 JUMP JUMPDEST PUSH1 0x40 MLOAD SWAP2 DUP3 MSTORE DUP3 PUSH32 0xFDD8ED02332ACACB3420E7345A9ADADB30877075EADE2BCDE9FE778E8BB71E42 DUP6 CALLER SWAP5 LOG4 PUSH1 0x1 PUSH1 0x0 SSTORE PUSH1 0x40 MLOAD SWAP1 DUP2 MSTORE RETURN JUMPDEST PUSH1 0x40 MLOAD PUSH3 0x461BCD PUSH1 0xE5 SHL DUP2 MSTORE PUSH1 0x4 DUP2 ADD DUP4 SWAP1 MSTORE PUSH1 0x1B PUSH1 0x24 DUP3 ADD MSTORE PUSH32 0x4D696E696D756D2062657420616D6F756E742072657175697265640000000000 PUSH1 0x44 DUP3 ADD MSTORE PUSH1 0x64 SWAP1 REVERT JUMPDEST PUSH1 0x40 MLOAD PUSH3 0x461BCD PUSH1 0xE5 SHL DUP2 MSTORE PUSH1 0x4 DUP2 ADD DUP4 SWAP1 MSTORE PUSH1 0x19 PUSH1 0x24 DUP3 ADD MSTORE PUSH32 0x5375626D697373696F6E20646F6573206E6F7420657869737400000000000000 PUSH1 0x44 DUP3 ADD MSTORE PUSH1 0x64 SWAP1 REVERT JUMPDEST PUSH4 0x3EE5AEB5 PUSH1 0xE0 SHL DUP2 MSTORE PUSH1 0x4 SWAP1 REVERT JUMPDEST PUSH1 0x4 CALLDATALOAD SWAP1 PUSH1 0x1 PUSH1 0x1 PUSH1 0xA0 SHL SUB DUP3 AND DUP3 SUB PUSH2 0x18F JUMPI JUMP JUMPDEST PUSH1 0x20 SWAP1 DUP2 PUSH1 0x40 DUP2 DUP4 ADD SWAP3 DUP3 DUP2 MSTORE DUP6 MLOAD DUP1 SWAP5 MSTORE ADD SWAP4 ADD SWAP2 PUSH1 0x0 JUMPDEST DUP3 DUP2 LT PUSH2 0x163B JUMPI POP POP POP POP SWAP1 JUMP JUMPDEST DUP4 MLOAD DUP6 MSTORE SWAP4 DUP2 ADD SWAP4 SWAP3 DUP2 ADD SWAP3 PUSH1 0x1 ADD PUSH2 0x162D JUMP JUMPDEST DUP1 SLOAD DUP3 LT ISZERO PUSH2 0x1667 JUMPI PUSH1 0x0 MSTORE PUSH1 0x20 PUSH1 0x0 KECCAK256 ADD SWAP1 PUSH1 0x0 SWAP1 JUMP JUMPDEST PUSH4 0x4E487B71 PUSH1 0xE0 SHL PUSH1 0x0 MSTORE PUSH1 0x32 PUSH1 0x4 MSTORE PUSH1 0x24 PUSH1 0x0 REVERT JUMPDEST SWAP1 PUSH1 0x1F DUP1 NOT SWAP2 ADD AND DUP2 ADD SWAP1 DUP2 LT PUSH1 0x1 PUSH1 0x1 PUSH1 0x40 SHL SUB DUP3 GT OR PUSH2 0x5A7 JUMPI PUSH1 0x40 MSTORE JUMP JUMPDEST DUP2 PUSH1 0x1F DUP3 ADD SLT ISZERO PUSH2 0x18F JUMPI DUP1 CALLDATALOAD SWAP1 PUSH1 0x1 PUSH1 0x1 PUSH1 0x40 SHL SUB DUP3 GT PUSH2 0x5A7 JUMPI PUSH1 0x40 MLOAD SWAP3 PUSH2 0x16D2 PUSH1 0x1F DUP5 ADD PUSH1 0x1F NOT AND PUSH1 0x20 ADD DUP6 PUSH2 0x167D JUMP JUMPDEST DUP3 DUP5 MSTORE PUSH1 0x20 DUP4 DUP4 ADD ADD GT PUSH2 0x18F JUMPI DUP2 PUSH1 0x0 SWAP3 PUSH1 0x20 DUP1 SWAP4 ADD DUP4 DUP7 ADD CALLDATACOPY DUP4 ADD ADD MSTORE SWAP1 JUMP JUMPDEST SWAP1 PUSH1 0x1 DUP3 DUP2 SHR SWAP3 AND DUP1 ISZERO PUSH2 0x1724 JUMPI JUMPDEST PUSH1 0x20 DUP4 LT EQ PUSH2 0x170E JUMPI JUMP JUMPDEST PUSH4 0x4E487B71 PUSH1 0xE0 SHL PUSH1 0x0 MSTORE PUSH1 0x22 PUSH1 0x4 MSTORE PUSH1 0x24 PUSH1 0x0 REVERT JUMPDEST SWAP2 PUSH1 0x7F AND SWAP2 PUSH2 0x1703 JUMP JUMPDEST SWAP1 PUSH1 0x40 MLOAD SWAP2 DUP3 PUSH1 0x0 DUP3 SLOAD SWAP3 PUSH2 0x1742 DUP5 PUSH2 0x16F4 JUMP JUMPDEST SWAP1 DUP2 DUP5 MSTORE PUSH1 0x1 SWAP5 DUP6 DUP2 AND SWAP1 DUP2 PUSH1 0x0 EQ PUSH2 0x17B1 JUMPI POP PUSH1 0x1 EQ PUSH2 0x176E JUMPI JUMPDEST POP POP PUSH2 0x176C SWAP3 POP SUB DUP4 PUSH2 0x167D JUMP JUMPDEST JUMP JUMPDEST SWAP1 SWAP4 SWAP2 POP PUSH1 0x0 MSTORE PUSH1 0x20 SWAP1 DUP2 PUSH1 0x0 KECCAK256 SWAP4 PUSH1 0x0 SWAP2 JUMPDEST DUP2 DUP4 LT PUSH2 0x1799 JUMPI POP POP PUSH2 0x176C SWAP4 POP DUP3 ADD ADD CODESIZE DUP1 PUSH2 0x175E JUMP JUMPDEST DUP6 SLOAD DUP9 DUP5 ADD DUP6 ADD MSTORE SWAP5 DUP6 ADD SWAP5 DUP8 SWAP5 POP SWAP2 DUP4 ADD SWAP2 PUSH2 0x1781 JUMP JUMPDEST SWAP2 POP POP PUSH2 0x176C SWAP5 POP PUSH1 0x20 SWAP3 POP PUSH1 0xFF NOT AND DUP3 DUP5 ADD MSTORE ISZERO ISZERO PUSH1 0x5 SHL DUP3 ADD ADD CODESIZE DUP1 PUSH2 0x175E JUMP JUMPDEST SWAP2 SWAP1 DUP3 MLOAD SWAP3 DUP4 DUP3 MSTORE PUSH1 0x0 JUMPDEST DUP5 DUP2 LT PUSH2 0x1800 JUMPI POP POP DUP3 PUSH1 0x0 PUSH1 0x20 DUP1 SWAP5 SWAP6 DUP5 ADD ADD MSTORE PUSH1 0x1F DUP1 NOT SWAP2 ADD AND ADD ADD SWAP1 JUMP JUMPDEST PUSH1 0x20 DUP2 DUP4 ADD DUP2 ADD MLOAD DUP5 DUP4 ADD DUP3 ADD MSTORE ADD PUSH2 0x17DF JUMP JUMPDEST PUSH1 0x1 SLOAD PUSH1 0x1 PUSH1 0x1 PUSH1 0xA0 SHL SUB AND CALLER SUB PUSH2 0x1828 JUMPI JUMP JUMPDEST PUSH1 0x40 MLOAD PUSH4 0x118CDAA7 PUSH1 0xE0 SHL DUP2 MSTORE CALLER PUSH1 0x4 DUP3 ADD MSTORE PUSH1 0x24 SWAP1 REVERT JUMPDEST PUSH1 0x0 NOT DUP2 EQ PUSH2 0x1132 JUMPI PUSH1 0x1 ADD SWAP1 JUMP JUMPDEST SWAP2 SWAP1 DUP3 ADD DUP1 SWAP3 GT PUSH2 0x1132 JUMPI JUMP JUMPDEST ISZERO PUSH2 0x1863 JUMPI JUMP JUMPDEST PUSH1 0x40 MLOAD PUSH3 0x461BCD PUSH1 0xE5 SHL DUP2 MSTORE PUSH1 0x20 PUSH1 0x4 DUP3 ADD MSTORE PUSH1 0x10 PUSH1 0x24 DUP3 ADD MSTORE PUSH16 0x13585C9AD95D081A185CC8195B991959 PUSH1 0x82 SHL PUSH1 0x44 DUP3 ADD MSTORE PUSH1 0x64 SWAP1 REVERT JUMPDEST ISZERO PUSH2 0x18A2 JUMPI JUMP JUMPDEST PUSH1 0x40 MLOAD PUSH3 0x461BCD PUSH1 0xE5 SHL DUP2 MSTORE PUSH1 0x20 PUSH1 0x4 DUP3 ADD MSTORE PUSH1 0x17 PUSH1 0x24 DUP3 ADD MSTORE PUSH32 0x4D61726B657420616C7265616479207265736F6C766564000000000000000000 PUSH1 0x44 DUP3 ADD MSTORE PUSH1 0x64 SWAP1 REVERT JUMPDEST SWAP2 SWAP1 DUP3 SUB SWAP2 DUP3 GT PUSH2 0x1132 JUMPI JUMP JUMPDEST DUP1 SLOAD PUSH9 0x10000000000000000 DUP2 LT ISZERO PUSH2 0x5A7 JUMPI PUSH2 0x1916 SWAP2 PUSH1 0x1 DUP3 ADD DUP2 SSTORE PUSH2 0x164F JUMP JUMPDEST DUP2 SWAP3 SWAP2 SLOAD SWAP1 PUSH1 0x3 SHL SWAP2 DUP3 SHL SWAP2 PUSH1 0x0 NOT SWAP1 SHL NOT AND OR SWAP1 SSTORE JUMP INVALID LOG2 PUSH5 0x6970667358 0x22 SLT KECCAK256 0x4E SSTORE CALLVALUE PUSH10 0x8AB2D07762684C06D4CC DUP10 DUP10 0xB4 0x4E 0xB8 CODECOPY 0xAD 0xC2 0xFB 0xBF SWAP6 JUMPI 0xE3 PUSH8 0xDE676D4164736F6C PUSH4 0x43000814 STOP CALLER "},"methodIdentifiers":{"PLATFORM_FEE()":"34fbc9a1","betCount()":"cf094497","bets(uint256)":"22af00fa","createMarket(string,uint256,string,bool)":"ea24e579","createSubmission(uint256,string,string)":"8cec0ba0","emergencyWithdraw()":"db2e21bc","getMarketSubmissions(uint256)":"905d99fc","getUserBets(address)":"2d56657d","getUserSubmissions(address)":"a7b8614d","marketCount()":"ec979082","marketSubmissions(uint256,uint256)":"e1a3faae","markets(uint256)":"b1283e77","owner()":"8da5cb5b","placeBet(uint256)":"10fe7c48","renounceOwnership()":"715018a6","submissionCount()":"6ec02be9","submissions(uint256)":"ad73349e","transferOwnership(address)":"f2fde38b","userBets(address,uint256)":"8068aa68","userSubmissions(address,uint256)":"9b7e0180"}}}}}