{"contracts/src/TestMarketWithPayouts.sol":{"TestMarketWithPayouts":{"abi":[{"inputs":[{"internalType":"address","name":"_payoutManager","type":"address"}],"stateMutability":"nonpayable","type":"constructor"},{"anonymous":false,"inputs":[{"indexed":true,"internalType":"uint256","name":"marketId","type":"uint256"},{"indexed":false,"internalType":"address","name":"creator","type":"address"},{"indexed":false,"internalType":"string","name":"prediction","type":"string"}],"name":"MarketCreated","type":"event"},{"anonymous":false,"inputs":[{"indexed":true,"internalType":"uint256","name":"marketId","type":"uint256"},{"indexed":false,"internalType":"string","name":"actualResult","type":"string"},{"indexed":false,"internalType":"uint256","name":"platformFee","type":"uint256"}],"name":"MarketResolved","type":"event"},{"anonymous":false,"inputs":[{"indexed":true,"internalType":"uint256","name":"marketId","type":"uint256"},{"indexed":false,"internalType":"uint256","name":"amount","type":"uint256"}],"name":"PayoutDistributed","type":"event"},{"inputs":[],"name":"PLATFORM_FEE_PERCENTAGE","outputs":[{"internalType":"uint256","name":"","type":"uint256"}],"stateMutability":"view","type":"function"},{"inputs":[{"internalType":"uint256","name":"marketId","type":"uint256"}],"name":"addVolume","outputs":[],"stateMutability":"payable","type":"function"},{"inputs":[{"internalType":"string","name":"prediction","type":"string"}],"name":"createAndFundMarket","outputs":[{"internalType":"uint256","name":"","type":"uint256"}],"stateMutability":"payable","type":"function"},{"inputs":[],"name":"emergencyWithdraw","outputs":[],"stateMutability":"nonpayable","type":"function"},{"inputs":[{"internalType":"uint256","name":"marketId","type":"uint256"}],"name":"getMarket","outputs":[{"internalType":"address","name":"creator","type":"address"},{"internalType":"uint256","name":"totalVolume","type":"uint256"},{"internalType":"uint256","name":"platformFee","type":"uint256"},{"internalType":"bool","name":"resolved","type":"bool"},{"internalType":"string","name":"prediction","type":"string"},{"internalType":"string","name":"actualResult","type":"string"}],"stateMutability":"view","type":"function"},{"inputs":[],"name":"marketCount","outputs":[{"internalType":"uint256","name":"","type":"uint256"}],"stateMutability":"view","type":"function"},{"inputs":[{"internalType":"uint256","name":"","type":"uint256"}],"name":"markets","outputs":[{"internalType":"address","name":"creator","type":"address"},{"internalType":"uint256","name":"totalVolume","type":"uint256"},{"internalType":"uint256","name":"platformFee","type":"uint256"},{"internalType":"bool","name":"resolved","type":"bool"},{"internalType":"string","name":"prediction","type":"string"},{"internalType":"string","name":"actualResult","type":"string"}],"stateMutability":"view","type":"function"},{"inputs":[],"name":"payoutManager","outputs":[{"internalType":"address","name":"","type":"address"}],"stateMutability":"view","type":"function"},{"inputs":[{"internalType":"uint256","name":"marketId","type":"uint256"},{"internalType":"string","name":"actualResult","type":"string"}],"name":"resolveMarket","outputs":[],"stateMutability":"nonpayable","type":"function"}],"evm":{"bytecode":{"linkReferences":{},"object":"60803461007457601f610e8d38819003918201601f19168301916001600160401b038311848410176100795780849260209460405283398101031261007457516001600160a01b0381169081900361007457600280546001600160a01b031916919091179055604051610dfd90816100908239f35b600080fd5b634e487b7160e01b600052604160045260246000fdfe608080604052600436101561001357600080fd5b600090813560e01c9081631554823214610add575080631cb4d561146107215780633083a8e3146106f857806385d21419146105ff578063b1283e771461059a578063c75bb724146101df578063db2e21bc1461014f578063eb44fdd3146100a45763ec9790821461008457600080fd5b346100a157806003193601126100a1576020600154604051908152f35b80fd5b50346100a15760203660031901126100a157604090600435815280602052206040516100cf81610af8565b61014b60018060a01b0391828454168152600184015492602082019384526002850154946040830195865260ff6003820154169160608401921515835261012b600561011d60048501610bee565b936080870194855201610bee565b938460a08201525116945195519151151590519160405196879687610cd4565b0390f35b50346100a157806003193601126100a157732b5fbac3caaf8937767b458ac6ed38cf0df6b6ef33036101a857808080804781811561019f575b3390f1156101935780f35b604051903d90823e3d90fd5b506108fc610188565b60405162461bcd60e51b815260206004820152600f60248201526e27b7363c903a32b9ba1037bbb732b960891b6044820152606490fd5b50346100a15760403660031901126100a15767ffffffffffffffff6024600435813583811161059657610216903690600401610b68565b8115158061058a575b61022890610d5a565b81855260209385855260ff60036040882001541661055357828652858552604086209260038401916001928360ff19825416179055600585018451828111610540576102748254610bb4565b601f81116104fa575b508089601f821160011461049d578b91610492575b50600019600383901b1c191690851b1790555b6002850193827f6f5d41f2a76d7bf6042360cc32e79d73794e0da4726370ae55bfc6470d6f17596102e6875493604051918291604083526040830190610c94565b858d8301520390a280610394575b50505082015490548082039180831161038157908693929103610315578280f35b9054829182918291906001600160a01b03165af1610331610d97565b501561033e578281808280f35b9060196064926040519262461bcd60e51b845260048401528201527f4661696c656420746f2073656e6420746f2063726561746f72000000000000006044820152fd5b634e487b7160e01b875260116004528487fd5b8880808060018060a01b039485600254165af16103af610d97565b50156104585790889160025416855490803b15610454578884926040519586938492636029bf9f60e01b845260048401525af1801561044957610422575b50507f2703ace359e89cb73a330208d4f9b64e82f078a6bebf4e8cc58a549fc64cfd21868454604051908152a23880806102f4565b8198929811610436576040529538806103ed565b634e487b7160e01b825260416004528582fd5b6040513d8b823e3d90fd5b8380fd5b60405162461bcd60e51b815260048101899052601381890152724661696c656420746f2073656e64206665657360681b6044820152606490fd5b905086015138610292565b838c528a8c2087935090601f1983168d5b8d8282106104e457505083116104cb575b5050811b0190556102a5565b88015160001960f88460031b161c1916905538806104bf565b838c015185558a969094019392830192016104ae565b828b52898b20601f830160051c8101918b8410610536575b601f0160051c019086905b82811061052b57505061027d565b8c815501869061051d565b9091508190610512565b634e487b7160e01b8a526041600452878afd5b60405162461bcd60e51b8152600481018690526010818601526f105b1c9958591e481c995cdbdb1d995960821b6044820152606490fd5b5060015482111561021f565b8480fd5b50346100a15760203660031901126100a1576040906004358152806020522060018060a01b0381541661014b60018301549260028101549060ff6003820154166105f260056105eb60048501610bee565b9301610bee565b9260405196879687610cd4565b5060203660031901126100a157600435801515806106ec575b61062190610d5a565b8082528160205260ff6003604084200154166106a757610642341515610d1e565b81528060205260408120600181018054903482018092116106935781905560078102908082046007149015171561067f5760646002910491015580f35b634e487b7160e01b83526011600452602483fd5b634e487b7160e01b84526011600452602484fd5b60405162461bcd60e51b815260206004820152601760248201527f4d61726b657420616c7265616479207265736f6c7665640000000000000000006044820152606490fd5b50600154811115610618565b50346100a157806003193601126100a1576002546040516001600160a01b039091168152602090f35b5060203660031901126100a15760043567ffffffffffffffff8111610ad95761074e903690600401610b68565b34159061075b8215610d1e565b600154916000198314610693576001830160015560073402903482046007141715610693576040519061078d82610af8565b3382526020820190348252606460408401910481526060830186815260808401918583526040516020810181811067ffffffffffffffff821117610ac55760405288815260a086015260018701885287602052604088209360018060a01b038651166bffffffffffffffffffffffff60a01b865416178555516001850155516002840155600383019051151560ff801983541691161790555180519067ffffffffffffffff8211610ab1576108456004840154610bb4565b601f8111610a6d575b50602090601f83116001146109fb57918060a094926005948a926109f0575b50508160011b916000199060031b1c19161760048201555b0191015180519067ffffffffffffffff82116109dc576108a58354610bb4565b601f8111610997575b50602095829187916001601f851114610935579261092a575b50508160011b916000199060031b1c19161790555b7fb143feb0c79e12e29a00674ccaf4e7e613c6fbc3b56b99a0e353faee3c0b8f786040513381526040858201528061091c60018601946040830190610c94565b0390a2600160405191018152f35b0151905038806108c7565b8581528881209350601f198516905b8181106109805750908460019594939210610967575b505050811b0190556108dc565b015160001960f88460031b161c1916905538808061095a565b929389600181928786015181550195019301610944565b83875260208720601f840160051c810191602085106109d2575b601f0160051c01905b8181106109c757506108ae565b8781556001016109ba565b90915081906109b1565b634e487b7160e01b86526041600452602486fd5b01519050388061086d565b906004840188526020882091885b601f1985168110610a5557509260a0949260019260059583601f19811610610a3c575b505050811b016004820155610885565b015160001960f88460031b161c19169055388080610a2c565b91926020600181928685015181550194019201610a09565b60048401885260208820601f840160051c810160208510610aaa575b601f830160051c82018110610a9f57505061084e565b898155600101610a89565b5080610a89565b634e487b7160e01b87526041600452602487fd5b634e487b7160e01b8a52604160045260248afd5b5080fd5b905034610ad95781600319360112610ad95780600760209252f35b60c0810190811067ffffffffffffffff821117610b1457604052565b634e487b7160e01b600052604160045260246000fd5b90601f8019910116810190811067ffffffffffffffff821117610b1457604052565b67ffffffffffffffff8111610b1457601f01601f191660200190565b81601f82011215610baf57803590610b7f82610b4c565b92610b8d6040519485610b2a565b82845260208383010111610baf57816000926020809301838601378301015290565b600080fd5b90600182811c92168015610be4575b6020831014610bce57565b634e487b7160e01b600052602260045260246000fd5b91607f1691610bc3565b9060405191826000825492610c0284610bb4565b908184526001948581169081600014610c715750600114610c2e575b5050610c2c92500383610b2a565b565b9093915060005260209081600020936000915b818310610c59575050610c2c93508201013880610c1e565b85548884018501529485019487945091830191610c41565b915050610c2c94506020925060ff191682840152151560051b8201013880610c1e565b919082519283825260005b848110610cc0575050826000602080949584010152601f8019910116010190565b602081830181015184830182015201610c9f565b949192610d0d93610d1b97959260018060a01b03168752602087015260408601521515606085015260c0608085015260c0840190610c94565b9160a0818403910152610c94565b90565b15610d2557565b60405162461bcd60e51b815260206004820152600d60248201526c09aeae6e840e6cadcc8408aa89609b1b6044820152606490fd5b15610d6157565b60405162461bcd60e51b815260206004820152600e60248201526d125b9d985b1a59081b585c9ad95d60921b6044820152606490fd5b3d15610dc2573d90610da882610b4c565b91610db66040519384610b2a565b82523d6000602084013e565b60609056fea2646970667358221220402d4196c777ec30b824f1ea5806144e668c66515c9f1f822d30c58f9473dc2e64736f6c63430008140033","opcodes":"PUSH1 0x80 CALLVALUE PUSH2 0x74 JUMPI PUSH1 0x1F PUSH2 0xE8D CODESIZE DUP2 SWAP1 SUB SWAP2 DUP3 ADD PUSH1 0x1F NOT AND DUP4 ADD SWAP2 PUSH1 0x1 PUSH1 0x1 PUSH1 0x40 SHL SUB DUP4 GT DUP5 DUP5 LT OR PUSH2 0x79 JUMPI DUP1 DUP5 SWAP3 PUSH1 0x20 SWAP5 PUSH1 0x40 MSTORE DUP4 CODECOPY DUP2 ADD SUB SLT PUSH2 0x74 JUMPI MLOAD PUSH1 0x1 PUSH1 0x1 PUSH1 0xA0 SHL SUB DUP2 AND SWAP1 DUP2 SWAP1 SUB PUSH2 0x74 JUMPI PUSH1 0x2 DUP1 SLOAD PUSH1 0x1 PUSH1 0x1 PUSH1 0xA0 SHL SUB NOT AND SWAP2 SWAP1 SWAP2 OR SWAP1 SSTORE PUSH1 0x40 MLOAD PUSH2 0xDFD SWAP1 DUP2 PUSH2 0x90 DUP3 CODECOPY RETURN JUMPDEST PUSH1 0x0 DUP1 REVERT JUMPDEST PUSH4 0x4E487B71 PUSH1 0xE0 SHL PUSH1 0x0 MSTORE PUSH1 0x41 PUSH1 0x4 MSTORE PUSH1 0x24 PUSH1 0x0 REVERT INVALID PUSH1 0x80 DUP1 PUSH1 0x40 MSTORE PUSH1 0x4 CALLDATASIZE LT ISZERO PUSH2 0x13 JUMPI PUSH1 0x0 DUP1 REVERT JUMPDEST PUSH1 0x0 SWAP1 DUP2 CALLDATALOAD PUSH1 0xE0 SHR SWAP1 DUP2 PUSH4 0x15548232 EQ PUSH2 0xADD JUMPI POP DUP1 PUSH4 0x1CB4D561 EQ PUSH2 0x721 JUMPI DUP1 PUSH4 0x3083A8E3 EQ PUSH2 0x6F8 JUMPI DUP1 PUSH4 0x85D21419 EQ PUSH2 0x5FF JUMPI DUP1 PUSH4 0xB1283E77 EQ PUSH2 0x59A JUMPI DUP1 PUSH4 0xC75BB724 EQ PUSH2 0x1DF JUMPI DUP1 PUSH4 0xDB2E21BC EQ PUSH2 0x14F JUMPI DUP1 PUSH4 0xEB44FDD3 EQ PUSH2 0xA4 JUMPI PUSH4 0xEC979082 EQ PUSH2 0x84 JUMPI PUSH1 0x0 DUP1 REVERT JUMPDEST CALLVALUE PUSH2 0xA1 JUMPI DUP1 PUSH1 0x3 NOT CALLDATASIZE ADD SLT PUSH2 0xA1 JUMPI PUSH1 0x20 PUSH1 0x1 SLOAD PUSH1 0x40 MLOAD SWAP1 DUP2 MSTORE RETURN JUMPDEST DUP1 REVERT JUMPDEST POP CALLVALUE PUSH2 0xA1 JUMPI PUSH1 0x20 CALLDATASIZE PUSH1 0x3 NOT ADD SLT PUSH2 0xA1 JUMPI PUSH1 0x40 SWAP1 PUSH1 0x4 CALLDATALOAD DUP2 MSTORE DUP1 PUSH1 0x20 MSTORE KECCAK256 PUSH1 0x40 MLOAD PUSH2 0xCF DUP2 PUSH2 0xAF8 JUMP JUMPDEST PUSH2 0x14B PUSH1 0x1 DUP1 PUSH1 0xA0 SHL SUB SWAP2 DUP3 DUP5 SLOAD AND DUP2 MSTORE PUSH1 0x1 DUP5 ADD SLOAD SWAP3 PUSH1 0x20 DUP3 ADD SWAP4 DUP5 MSTORE PUSH1 0x2 DUP6 ADD SLOAD SWAP5 PUSH1 0x40 DUP4 ADD SWAP6 DUP7 MSTORE PUSH1 0xFF PUSH1 0x3 DUP3 ADD SLOAD AND SWAP2 PUSH1 0x60 DUP5 ADD SWAP3 ISZERO ISZERO DUP4 MSTORE PUSH2 0x12B PUSH1 0x5 PUSH2 0x11D PUSH1 0x4 DUP6 ADD PUSH2 0xBEE JUMP JUMPDEST SWAP4 PUSH1 0x80 DUP8 ADD SWAP5 DUP6 MSTORE ADD PUSH2 0xBEE JUMP JUMPDEST SWAP4 DUP5 PUSH1 0xA0 DUP3 ADD MSTORE MLOAD AND SWAP5 MLOAD SWAP6 MLOAD SWAP2 MLOAD ISZERO ISZERO SWAP1 MLOAD SWAP2 PUSH1 0x40 MLOAD SWAP7 DUP8 SWAP7 DUP8 PUSH2 0xCD4 JUMP JUMPDEST SUB SWAP1 RETURN JUMPDEST POP CALLVALUE PUSH2 0xA1 JUMPI DUP1 PUSH1 0x3 NOT CALLDATASIZE ADD SLT PUSH2 0xA1 JUMPI PUSH20 0x2B5FBAC3CAAF8937767B458AC6ED38CF0DF6B6EF CALLER SUB PUSH2 0x1A8 JUMPI DUP1 DUP1 DUP1 DUP1 SELFBALANCE DUP2 DUP2 ISZERO PUSH2 0x19F JUMPI JUMPDEST CALLER SWAP1 CALL ISZERO PUSH2 0x193 JUMPI DUP1 RETURN JUMPDEST PUSH1 0x40 MLOAD SWAP1 RETURNDATASIZE SWAP1 DUP3 RETURNDATACOPY RETURNDATASIZE SWAP1 REVERT JUMPDEST POP PUSH2 0x8FC PUSH2 0x188 JUMP JUMPDEST PUSH1 0x40 MLOAD PUSH3 0x461BCD PUSH1 0xE5 SHL DUP2 MSTORE PUSH1 0x20 PUSH1 0x4 DUP3 ADD MSTORE PUSH1 0xF PUSH1 0x24 DUP3 ADD MSTORE PUSH15 0x27B7363C903A32B9BA1037BBB732B9 PUSH1 0x89 SHL PUSH1 0x44 DUP3 ADD MSTORE PUSH1 0x64 SWAP1 REVERT JUMPDEST POP CALLVALUE PUSH2 0xA1 JUMPI PUSH1 0x40 CALLDATASIZE PUSH1 0x3 NOT ADD SLT PUSH2 0xA1 JUMPI PUSH8 0xFFFFFFFFFFFFFFFF PUSH1 0x24 PUSH1 0x4 CALLDATALOAD DUP2 CALLDATALOAD DUP4 DUP2 GT PUSH2 0x596 JUMPI PUSH2 0x216 SWAP1 CALLDATASIZE SWAP1 PUSH1 0x4 ADD PUSH2 0xB68 JUMP JUMPDEST DUP2 ISZERO ISZERO DUP1 PUSH2 0x58A JUMPI JUMPDEST PUSH2 0x228 SWAP1 PUSH2 0xD5A JUMP JUMPDEST DUP2 DUP6 MSTORE PUSH1 0x20 SWAP4 DUP6 DUP6 MSTORE PUSH1 0xFF PUSH1 0x3 PUSH1 0x40 DUP9 KECCAK256 ADD SLOAD AND PUSH2 0x553 JUMPI DUP3 DUP7 MSTORE DUP6 DUP6 MSTORE PUSH1 0x40 DUP7 KECCAK256 SWAP3 PUSH1 0x3 DUP5 ADD SWAP2 PUSH1 0x1 SWAP3 DUP4 PUSH1 0xFF NOT DUP3 SLOAD AND OR SWAP1 SSTORE PUSH1 0x5 DUP6 ADD DUP5 MLOAD DUP3 DUP2 GT PUSH2 0x540 JUMPI PUSH2 0x274 DUP3 SLOAD PUSH2 0xBB4 JUMP JUMPDEST PUSH1 0x1F DUP2 GT PUSH2 0x4FA JUMPI JUMPDEST POP DUP1 DUP10 PUSH1 0x1F DUP3 GT PUSH1 0x1 EQ PUSH2 0x49D JUMPI DUP12 SWAP2 PUSH2 0x492 JUMPI JUMPDEST POP PUSH1 0x0 NOT PUSH1 0x3 DUP4 SWAP1 SHL SHR NOT AND SWAP1 DUP6 SHL OR SWAP1 SSTORE JUMPDEST PUSH1 0x2 DUP6 ADD SWAP4 DUP3 PUSH32 0x6F5D41F2A76D7BF6042360CC32E79D73794E0DA4726370AE55BFC6470D6F1759 PUSH2 0x2E6 DUP8 SLOAD SWAP4 PUSH1 0x40 MLOAD SWAP2 DUP3 SWAP2 PUSH1 0x40 DUP4 MSTORE PUSH1 0x40 DUP4 ADD SWAP1 PUSH2 0xC94 JUMP JUMPDEST DUP6 DUP14 DUP4 ADD MSTORE SUB SWAP1 LOG2 DUP1 PUSH2 0x394 JUMPI JUMPDEST POP POP POP DUP3 ADD SLOAD SWAP1 SLOAD DUP1 DUP3 SUB SWAP2 DUP1 DUP4 GT PUSH2 0x381 JUMPI SWAP1 DUP7 SWAP4 SWAP3 SWAP2 SUB PUSH2 0x315 JUMPI DUP3 DUP1 RETURN JUMPDEST SWAP1 SLOAD DUP3 SWAP2 DUP3 SWAP2 DUP3 SWAP2 SWAP1 PUSH1 0x1 PUSH1 0x1 PUSH1 0xA0 SHL SUB AND GAS CALL PUSH2 0x331 PUSH2 0xD97 JUMP JUMPDEST POP ISZERO PUSH2 0x33E JUMPI DUP3 DUP2 DUP1 DUP3 DUP1 RETURN JUMPDEST SWAP1 PUSH1 0x19 PUSH1 0x64 SWAP3 PUSH1 0x40 MLOAD SWAP3 PUSH3 0x461BCD PUSH1 0xE5 SHL DUP5 MSTORE PUSH1 0x4 DUP5 ADD MSTORE DUP3 ADD MSTORE PUSH32 0x4661696C656420746F2073656E6420746F2063726561746F7200000000000000 PUSH1 0x44 DUP3 ADD MSTORE REVERT JUMPDEST PUSH4 0x4E487B71 PUSH1 0xE0 SHL DUP8 MSTORE PUSH1 0x11 PUSH1 0x4 MSTORE DUP5 DUP8 REVERT JUMPDEST DUP9 DUP1 DUP1 DUP1 PUSH1 0x1 DUP1 PUSH1 0xA0 SHL SUB SWAP5 DUP6 PUSH1 0x2 SLOAD AND GAS CALL PUSH2 0x3AF PUSH2 0xD97 JUMP JUMPDEST POP ISZERO PUSH2 0x458 JUMPI SWAP1 DUP9 SWAP2 PUSH1 0x2 SLOAD AND DUP6 SLOAD SWAP1 DUP1 EXTCODESIZE ISZERO PUSH2 0x454 JUMPI DUP9 DUP5 SWAP3 PUSH1 0x40 MLOAD SWAP6 DUP7 SWAP4 DUP5 SWAP3 PUSH4 0x6029BF9F PUSH1 0xE0 SHL DUP5 MSTORE PUSH1 0x4 DUP5 ADD MSTORE GAS CALL DUP1 ISZERO PUSH2 0x449 JUMPI PUSH2 0x422 JUMPI JUMPDEST POP POP PUSH32 0x2703ACE359E89CB73A330208D4F9B64E82F078A6BEBF4E8CC58A549FC64CFD21 DUP7 DUP5 SLOAD PUSH1 0x40 MLOAD SWAP1 DUP2 MSTORE LOG2 CODESIZE DUP1 DUP1 PUSH2 0x2F4 JUMP JUMPDEST DUP2 SWAP9 SWAP3 SWAP9 GT PUSH2 0x436 JUMPI PUSH1 0x40 MSTORE SWAP6 CODESIZE DUP1 PUSH2 0x3ED JUMP JUMPDEST PUSH4 0x4E487B71 PUSH1 0xE0 SHL DUP3 MSTORE PUSH1 0x41 PUSH1 0x4 MSTORE DUP6 DUP3 REVERT JUMPDEST PUSH1 0x40 MLOAD RETURNDATASIZE DUP12 DUP3 RETURNDATACOPY RETURNDATASIZE SWAP1 REVERT JUMPDEST DUP4 DUP1 REVERT JUMPDEST PUSH1 0x40 MLOAD PUSH3 0x461BCD PUSH1 0xE5 SHL DUP2 MSTORE PUSH1 0x4 DUP2 ADD DUP10 SWAP1 MSTORE PUSH1 0x13 DUP2 DUP10 ADD MSTORE PUSH19 0x4661696C656420746F2073656E642066656573 PUSH1 0x68 SHL PUSH1 0x44 DUP3 ADD MSTORE PUSH1 0x64 SWAP1 REVERT JUMPDEST SWAP1 POP DUP7 ADD MLOAD CODESIZE PUSH2 0x292 JUMP JUMPDEST DUP4 DUP13 MSTORE DUP11 DUP13 KECCAK256 DUP8 SWAP4 POP SWAP1 PUSH1 0x1F NOT DUP4 AND DUP14 JUMPDEST DUP14 DUP3 DUP3 LT PUSH2 0x4E4 JUMPI POP POP DUP4 GT PUSH2 0x4CB JUMPI JUMPDEST POP POP DUP2 SHL ADD SWAP1 SSTORE PUSH2 0x2A5 JUMP JUMPDEST DUP9 ADD MLOAD PUSH1 0x0 NOT PUSH1 0xF8 DUP5 PUSH1 0x3 SHL AND SHR NOT AND SWAP1 SSTORE CODESIZE DUP1 PUSH2 0x4BF JUMP JUMPDEST DUP4 DUP13 ADD MLOAD DUP6 SSTORE DUP11 SWAP7 SWAP1 SWAP5 ADD SWAP4 SWAP3 DUP4 ADD SWAP3 ADD PUSH2 0x4AE JUMP JUMPDEST DUP3 DUP12 MSTORE DUP10 DUP12 KECCAK256 PUSH1 0x1F DUP4 ADD PUSH1 0x5 SHR DUP2 ADD SWAP2 DUP12 DUP5 LT PUSH2 0x536 JUMPI JUMPDEST PUSH1 0x1F ADD PUSH1 0x5 SHR ADD SWAP1 DUP7 SWAP1 JUMPDEST DUP3 DUP2 LT PUSH2 0x52B JUMPI POP POP PUSH2 0x27D JUMP JUMPDEST DUP13 DUP2 SSTORE ADD DUP7 SWAP1 PUSH2 0x51D JUMP JUMPDEST SWAP1 SWAP2 POP DUP2 SWAP1 PUSH2 0x512 JUMP JUMPDEST PUSH4 0x4E487B71 PUSH1 0xE0 SHL DUP11 MSTORE PUSH1 0x41 PUSH1 0x4 MSTORE DUP8 DUP11 REVERT JUMPDEST PUSH1 0x40 MLOAD PUSH3 0x461BCD PUSH1 0xE5 SHL DUP2 MSTORE PUSH1 0x4 DUP2 ADD DUP7 SWAP1 MSTORE PUSH1 0x10 DUP2 DUP7 ADD MSTORE PUSH16 0x105B1C9958591E481C995CDBDB1D9959 PUSH1 0x82 SHL PUSH1 0x44 DUP3 ADD MSTORE PUSH1 0x64 SWAP1 REVERT JUMPDEST POP PUSH1 0x1 SLOAD DUP3 GT ISZERO PUSH2 0x21F JUMP JUMPDEST DUP5 DUP1 REVERT JUMPDEST POP CALLVALUE PUSH2 0xA1 JUMPI PUSH1 0x20 CALLDATASIZE PUSH1 0x3 NOT ADD SLT PUSH2 0xA1 JUMPI PUSH1 0x40 SWAP1 PUSH1 0x4 CALLDATALOAD DUP2 MSTORE DUP1 PUSH1 0x20 MSTORE KECCAK256 PUSH1 0x1 DUP1 PUSH1 0xA0 SHL SUB DUP2 SLOAD AND PUSH2 0x14B PUSH1 0x1 DUP4 ADD SLOAD SWAP3 PUSH1 0x2 DUP2 ADD SLOAD SWAP1 PUSH1 0xFF PUSH1 0x3 DUP3 ADD SLOAD AND PUSH2 0x5F2 PUSH1 0x5 PUSH2 0x5EB PUSH1 0x4 DUP6 ADD PUSH2 0xBEE JUMP JUMPDEST SWAP4 ADD PUSH2 0xBEE JUMP JUMPDEST SWAP3 PUSH1 0x40 MLOAD SWAP7 DUP8 SWAP7 DUP8 PUSH2 0xCD4 JUMP JUMPDEST POP PUSH1 0x20 CALLDATASIZE PUSH1 0x3 NOT ADD SLT PUSH2 0xA1 JUMPI PUSH1 0x4 CALLDATALOAD DUP1 ISZERO ISZERO DUP1 PUSH2 0x6EC JUMPI JUMPDEST PUSH2 0x621 SWAP1 PUSH2 0xD5A JUMP JUMPDEST DUP1 DUP3 MSTORE DUP2 PUSH1 0x20 MSTORE PUSH1 0xFF PUSH1 0x3 PUSH1 0x40 DUP5 KECCAK256 ADD SLOAD AND PUSH2 0x6A7 JUMPI PUSH2 0x642 CALLVALUE ISZERO ISZERO PUSH2 0xD1E JUMP JUMPDEST DUP2 MSTORE DUP1 PUSH1 0x20 MSTORE PUSH1 0x40 DUP2 KECCAK256 PUSH1 0x1 DUP2 ADD DUP1 SLOAD SWAP1 CALLVALUE DUP3 ADD DUP1 SWAP3 GT PUSH2 0x693 JUMPI DUP2 SWAP1 SSTORE PUSH1 0x7 DUP2 MUL SWAP1 DUP1 DUP3 DIV PUSH1 0x7 EQ SWAP1 ISZERO OR ISZERO PUSH2 0x67F JUMPI PUSH1 0x64 PUSH1 0x2 SWAP2 DIV SWAP2 ADD SSTORE DUP1 RETURN JUMPDEST PUSH4 0x4E487B71 PUSH1 0xE0 SHL DUP4 MSTORE PUSH1 0x11 PUSH1 0x4 MSTORE PUSH1 0x24 DUP4 REVERT JUMPDEST PUSH4 0x4E487B71 PUSH1 0xE0 SHL DUP5 MSTORE PUSH1 0x11 PUSH1 0x4 MSTORE PUSH1 0x24 DUP5 REVERT JUMPDEST PUSH1 0x40 MLOAD PUSH3 0x461BCD PUSH1 0xE5 SHL DUP2 MSTORE PUSH1 0x20 PUSH1 0x4 DUP3 ADD MSTORE PUSH1 0x17 PUSH1 0x24 DUP3 ADD MSTORE PUSH32 0x4D61726B657420616C7265616479207265736F6C766564000000000000000000 PUSH1 0x44 DUP3 ADD MSTORE PUSH1 0x64 SWAP1 REVERT JUMPDEST POP PUSH1 0x1 SLOAD DUP2 GT ISZERO PUSH2 0x618 JUMP JUMPDEST POP CALLVALUE PUSH2 0xA1 JUMPI DUP1 PUSH1 0x3 NOT CALLDATASIZE ADD SLT PUSH2 0xA1 JUMPI PUSH1 0x2 SLOAD PUSH1 0x40 MLOAD PUSH1 0x1 PUSH1 0x1 PUSH1 0xA0 SHL SUB SWAP1 SWAP2 AND DUP2 MSTORE PUSH1 0x20 SWAP1 RETURN JUMPDEST POP PUSH1 0x20 CALLDATASIZE PUSH1 0x3 NOT ADD SLT PUSH2 0xA1 JUMPI PUSH1 0x4 CALLDATALOAD PUSH8 0xFFFFFFFFFFFFFFFF DUP2 GT PUSH2 0xAD9 JUMPI PUSH2 0x74E SWAP1 CALLDATASIZE SWAP1 PUSH1 0x4 ADD PUSH2 0xB68 JUMP JUMPDEST CALLVALUE ISZERO SWAP1 PUSH2 0x75B DUP3 ISZERO PUSH2 0xD1E JUMP JUMPDEST PUSH1 0x1 SLOAD SWAP2 PUSH1 0x0 NOT DUP4 EQ PUSH2 0x693 JUMPI PUSH1 0x1 DUP4 ADD PUSH1 0x1 SSTORE PUSH1 0x7 CALLVALUE MUL SWAP1 CALLVALUE DUP3 DIV PUSH1 0x7 EQ OR ISZERO PUSH2 0x693 JUMPI PUSH1 0x40 MLOAD SWAP1 PUSH2 0x78D DUP3 PUSH2 0xAF8 JUMP JUMPDEST CALLER DUP3 MSTORE PUSH1 0x20 DUP3 ADD SWAP1 CALLVALUE DUP3 MSTORE PUSH1 0x64 PUSH1 0x40 DUP5 ADD SWAP2 DIV DUP2 MSTORE PUSH1 0x60 DUP4 ADD DUP7 DUP2 MSTORE PUSH1 0x80 DUP5 ADD SWAP2 DUP6 DUP4 MSTORE PUSH1 0x40 MLOAD PUSH1 0x20 DUP2 ADD DUP2 DUP2 LT PUSH8 0xFFFFFFFFFFFFFFFF DUP3 GT OR PUSH2 0xAC5 JUMPI PUSH1 0x40 MSTORE DUP9 DUP2 MSTORE PUSH1 0xA0 DUP7 ADD MSTORE PUSH1 0x1 DUP8 ADD DUP9 MSTORE DUP8 PUSH1 0x20 MSTORE PUSH1 0x40 DUP9 KECCAK256 SWAP4 PUSH1 0x1 DUP1 PUSH1 0xA0 SHL SUB DUP7 MLOAD AND PUSH12 0xFFFFFFFFFFFFFFFFFFFFFFFF PUSH1 0xA0 SHL DUP7 SLOAD AND OR DUP6 SSTORE MLOAD PUSH1 0x1 DUP6 ADD SSTORE MLOAD PUSH1 0x2 DUP5 ADD SSTORE PUSH1 0x3 DUP4 ADD SWAP1 MLOAD ISZERO ISZERO PUSH1 0xFF DUP1 NOT DUP4 SLOAD AND SWAP2 AND OR SWAP1 SSTORE MLOAD DUP1 MLOAD SWAP1 PUSH8 0xFFFFFFFFFFFFFFFF DUP3 GT PUSH2 0xAB1 JUMPI PUSH2 0x845 PUSH1 0x4 DUP5 ADD SLOAD PUSH2 0xBB4 JUMP JUMPDEST PUSH1 0x1F DUP2 GT PUSH2 0xA6D JUMPI JUMPDEST POP PUSH1 0x20 SWAP1 PUSH1 0x1F DUP4 GT PUSH1 0x1 EQ PUSH2 0x9FB JUMPI SWAP2 DUP1 PUSH1 0xA0 SWAP5 SWAP3 PUSH1 0x5 SWAP5 DUP11 SWAP3 PUSH2 0x9F0 JUMPI JUMPDEST POP POP DUP2 PUSH1 0x1 SHL SWAP2 PUSH1 0x0 NOT SWAP1 PUSH1 0x3 SHL SHR NOT AND OR PUSH1 0x4 DUP3 ADD SSTORE JUMPDEST ADD SWAP2 ADD MLOAD DUP1 MLOAD SWAP1 PUSH8 0xFFFFFFFFFFFFFFFF DUP3 GT PUSH2 0x9DC JUMPI PUSH2 0x8A5 DUP4 SLOAD PUSH2 0xBB4 JUMP JUMPDEST PUSH1 0x1F DUP2 GT PUSH2 0x997 JUMPI JUMPDEST POP PUSH1 0x20 SWAP6 DUP3 SWAP2 DUP8 SWAP2 PUSH1 0x1 PUSH1 0x1F DUP6 GT EQ PUSH2 0x935 JUMPI SWAP3 PUSH2 0x92A JUMPI JUMPDEST POP POP DUP2 PUSH1 0x1 SHL SWAP2 PUSH1 0x0 NOT SWAP1 PUSH1 0x3 SHL SHR NOT AND OR SWAP1 SSTORE JUMPDEST PUSH32 0xB143FEB0C79E12E29A00674CCAF4E7E613C6FBC3B56B99A0E353FAEE3C0B8F78 PUSH1 0x40 MLOAD CALLER DUP2 MSTORE PUSH1 0x40 DUP6 DUP3 ADD MSTORE DUP1 PUSH2 0x91C PUSH1 0x1 DUP7 ADD SWAP5 PUSH1 0x40 DUP4 ADD SWAP1 PUSH2 0xC94 JUMP JUMPDEST SUB SWAP1 LOG2 PUSH1 0x1 PUSH1 0x40 MLOAD SWAP2 ADD DUP2 MSTORE RETURN JUMPDEST ADD MLOAD SWAP1 POP CODESIZE DUP1 PUSH2 0x8C7 JUMP JUMPDEST DUP6 DUP2 MSTORE DUP9 DUP2 KECCAK256 SWAP4 POP PUSH1 0x1F NOT DUP6 AND SWAP1 JUMPDEST DUP2 DUP2 LT PUSH2 0x980 JUMPI POP SWAP1 DUP5 PUSH1 0x1 SWAP6 SWAP5 SWAP4 SWAP3 LT PUSH2 0x967 JUMPI JUMPDEST POP POP POP DUP2 SHL ADD SWAP1 SSTORE PUSH2 0x8DC JUMP JUMPDEST ADD MLOAD PUSH1 0x0 NOT PUSH1 0xF8 DUP5 PUSH1 0x3 SHL AND SHR NOT AND SWAP1 SSTORE CODESIZE DUP1 DUP1 PUSH2 0x95A JUMP JUMPDEST SWAP3 SWAP4 DUP10 PUSH1 0x1 DUP2 SWAP3 DUP8 DUP7 ADD MLOAD DUP2 SSTORE ADD SWAP6 ADD SWAP4 ADD PUSH2 0x944 JUMP JUMPDEST DUP4 DUP8 MSTORE PUSH1 0x20 DUP8 KECCAK256 PUSH1 0x1F DUP5 ADD PUSH1 0x5 SHR DUP2 ADD SWAP2 PUSH1 0x20 DUP6 LT PUSH2 0x9D2 JUMPI JUMPDEST PUSH1 0x1F ADD PUSH1 0x5 SHR ADD SWAP1 JUMPDEST DUP2 DUP2 LT PUSH2 0x9C7 JUMPI POP PUSH2 0x8AE JUMP JUMPDEST DUP8 DUP2 SSTORE PUSH1 0x1 ADD PUSH2 0x9BA JUMP JUMPDEST SWAP1 SWAP2 POP DUP2 SWAP1 PUSH2 0x9B1 JUMP JUMPDEST PUSH4 0x4E487B71 PUSH1 0xE0 SHL DUP7 MSTORE PUSH1 0x41 PUSH1 0x4 MSTORE PUSH1 0x24 DUP7 REVERT JUMPDEST ADD MLOAD SWAP1 POP CODESIZE DUP1 PUSH2 0x86D JUMP JUMPDEST SWAP1 PUSH1 0x4 DUP5 ADD DUP9 MSTORE PUSH1 0x20 DUP9 KECCAK256 SWAP2 DUP9 JUMPDEST PUSH1 0x1F NOT DUP6 AND DUP2 LT PUSH2 0xA55 JUMPI POP SWAP3 PUSH1 0xA0 SWAP5 SWAP3 PUSH1 0x1 SWAP3 PUSH1 0x5 SWAP6 DUP4 PUSH1 0x1F NOT DUP2 AND LT PUSH2 0xA3C JUMPI JUMPDEST POP POP POP DUP2 SHL ADD PUSH1 0x4 DUP3 ADD SSTORE PUSH2 0x885 JUMP JUMPDEST ADD MLOAD PUSH1 0x0 NOT PUSH1 0xF8 DUP5 PUSH1 0x3 SHL AND SHR NOT AND SWAP1 SSTORE CODESIZE DUP1 DUP1 PUSH2 0xA2C JUMP JUMPDEST SWAP2 SWAP3 PUSH1 0x20 PUSH1 0x1 DUP2 SWAP3 DUP7 DUP6 ADD MLOAD DUP2 SSTORE ADD SWAP5 ADD SWAP3 ADD PUSH2 0xA09 JUMP JUMPDEST PUSH1 0x4 DUP5 ADD DUP9 MSTORE PUSH1 0x20 DUP9 KECCAK256 PUSH1 0x1F DUP5 ADD PUSH1 0x5 SHR DUP2 ADD PUSH1 0x20 DUP6 LT PUSH2 0xAAA JUMPI JUMPDEST PUSH1 0x1F DUP4 ADD PUSH1 0x5 SHR DUP3 ADD DUP2 LT PUSH2 0xA9F JUMPI POP POP PUSH2 0x84E JUMP JUMPDEST DUP10 DUP2 SSTORE PUSH1 0x1 ADD PUSH2 0xA89 JUMP JUMPDEST POP DUP1 PUSH2 0xA89 JUMP JUMPDEST PUSH4 0x4E487B71 PUSH1 0xE0 SHL DUP8 MSTORE PUSH1 0x41 PUSH1 0x4 MSTORE PUSH1 0x24 DUP8 REVERT JUMPDEST PUSH4 0x4E487B71 PUSH1 0xE0 SHL DUP11 MSTORE PUSH1 0x41 PUSH1 0x4 MSTORE PUSH1 0x24 DUP11 REVERT JUMPDEST POP DUP1 REVERT JUMPDEST SWAP1 POP CALLVALUE PUSH2 0xAD9 JUMPI DUP2 PUSH1 0x3 NOT CALLDATASIZE ADD SLT PUSH2 0xAD9 JUMPI DUP1 PUSH1 0x7 PUSH1 0x20 SWAP3 MSTORE RETURN JUMPDEST PUSH1 0xC0 DUP2 ADD SWAP1 DUP2 LT PUSH8 0xFFFFFFFFFFFFFFFF DUP3 GT OR PUSH2 0xB14 JUMPI PUSH1 0x40 MSTORE JUMP JUMPDEST PUSH4 0x4E487B71 PUSH1 0xE0 SHL PUSH1 0x0 MSTORE PUSH1 0x41 PUSH1 0x4 MSTORE PUSH1 0x24 PUSH1 0x0 REVERT JUMPDEST SWAP1 PUSH1 0x1F DUP1 NOT SWAP2 ADD AND DUP2 ADD SWAP1 DUP2 LT PUSH8 0xFFFFFFFFFFFFFFFF DUP3 GT OR PUSH2 0xB14 JUMPI PUSH1 0x40 MSTORE JUMP JUMPDEST PUSH8 0xFFFFFFFFFFFFFFFF DUP2 GT PUSH2 0xB14 JUMPI PUSH1 0x1F ADD PUSH1 0x1F NOT AND PUSH1 0x20 ADD SWAP1 JUMP JUMPDEST DUP2 PUSH1 0x1F DUP3 ADD SLT ISZERO PUSH2 0xBAF JUMPI DUP1 CALLDATALOAD SWAP1 PUSH2 0xB7F DUP3 PUSH2 0xB4C JUMP JUMPDEST SWAP3 PUSH2 0xB8D PUSH1 0x40 MLOAD SWAP5 DUP6 PUSH2 0xB2A JUMP JUMPDEST DUP3 DUP5 MSTORE PUSH1 0x20 DUP4 DUP4 ADD ADD GT PUSH2 0xBAF JUMPI DUP2 PUSH1 0x0 SWAP3 PUSH1 0x20 DUP1 SWAP4 ADD DUP4 DUP7 ADD CALLDATACOPY DUP4 ADD ADD MSTORE SWAP1 JUMP JUMPDEST PUSH1 0x0 DUP1 REVERT JUMPDEST SWAP1 PUSH1 0x1 DUP3 DUP2 SHR SWAP3 AND DUP1 ISZERO PUSH2 0xBE4 JUMPI JUMPDEST PUSH1 0x20 DUP4 LT EQ PUSH2 0xBCE JUMPI JUMP JUMPDEST PUSH4 0x4E487B71 PUSH1 0xE0 SHL PUSH1 0x0 MSTORE PUSH1 0x22 PUSH1 0x4 MSTORE PUSH1 0x24 PUSH1 0x0 REVERT JUMPDEST SWAP2 PUSH1 0x7F AND SWAP2 PUSH2 0xBC3 JUMP JUMPDEST SWAP1 PUSH1 0x40 MLOAD SWAP2 DUP3 PUSH1 0x0 DUP3 SLOAD SWAP3 PUSH2 0xC02 DUP5 PUSH2 0xBB4 JUMP JUMPDEST SWAP1 DUP2 DUP5 MSTORE PUSH1 0x1 SWAP5 DUP6 DUP2 AND SWAP1 DUP2 PUSH1 0x0 EQ PUSH2 0xC71 JUMPI POP PUSH1 0x1 EQ PUSH2 0xC2E JUMPI JUMPDEST POP POP PUSH2 0xC2C SWAP3 POP SUB DUP4 PUSH2 0xB2A JUMP JUMPDEST JUMP JUMPDEST SWAP1 SWAP4 SWAP2 POP PUSH1 0x0 MSTORE PUSH1 0x20 SWAP1 DUP2 PUSH1 0x0 KECCAK256 SWAP4 PUSH1 0x0 SWAP2 JUMPDEST DUP2 DUP4 LT PUSH2 0xC59 JUMPI POP POP PUSH2 0xC2C SWAP4 POP DUP3 ADD ADD CODESIZE DUP1 PUSH2 0xC1E JUMP JUMPDEST DUP6 SLOAD DUP9 DUP5 ADD DUP6 ADD MSTORE SWAP5 DUP6 ADD SWAP5 DUP8 SWAP5 POP SWAP2 DUP4 ADD SWAP2 PUSH2 0xC41 JUMP JUMPDEST SWAP2 POP POP PUSH2 0xC2C SWAP5 POP PUSH1 0x20 SWAP3 POP PUSH1 0xFF NOT AND DUP3 DUP5 ADD MSTORE ISZERO ISZERO PUSH1 0x5 SHL DUP3 ADD ADD CODESIZE DUP1 PUSH2 0xC1E JUMP JUMPDEST SWAP2 SWAP1 DUP3 MLOAD SWAP3 DUP4 DUP3 MSTORE PUSH1 0x0 JUMPDEST DUP5 DUP2 LT PUSH2 0xCC0 JUMPI POP POP DUP3 PUSH1 0x0 PUSH1 0x20 DUP1 SWAP5 SWAP6 DUP5 ADD ADD MSTORE PUSH1 0x1F DUP1 NOT SWAP2 ADD AND ADD ADD SWAP1 JUMP JUMPDEST PUSH1 0x20 DUP2 DUP4 ADD DUP2 ADD MLOAD DUP5 DUP4 ADD DUP3 ADD MSTORE ADD PUSH2 0xC9F JUMP JUMPDEST SWAP5 SWAP2 SWAP3 PUSH2 0xD0D SWAP4 PUSH2 0xD1B SWAP8 SWAP6 SWAP3 PUSH1 0x1 DUP1 PUSH1 0xA0 SHL SUB AND DUP8 MSTORE PUSH1 0x20 DUP8 ADD MSTORE PUSH1 0x40 DUP7 ADD MSTORE ISZERO ISZERO PUSH1 0x60 DUP6 ADD MSTORE PUSH1 0xC0 PUSH1 0x80 DUP6 ADD MSTORE PUSH1 0xC0 DUP5 ADD SWAP1 PUSH2 0xC94 JUMP JUMPDEST SWAP2 PUSH1 0xA0 DUP2 DUP5 SUB SWAP2 ADD MSTORE PUSH2 0xC94 JUMP JUMPDEST SWAP1 JUMP JUMPDEST ISZERO PUSH2 0xD25 JUMPI JUMP JUMPDEST PUSH1 0x40 MLOAD PUSH3 0x461BCD PUSH1 0xE5 SHL DUP2 MSTORE PUSH1 0x20 PUSH1 0x4 DUP3 ADD MSTORE PUSH1 0xD PUSH1 0x24 DUP3 ADD MSTORE PUSH13 0x9AEAE6E840E6CADCC8408AA89 PUSH1 0x9B SHL PUSH1 0x44 DUP3 ADD MSTORE PUSH1 0x64 SWAP1 REVERT JUMPDEST ISZERO PUSH2 0xD61 JUMPI JUMP JUMPDEST PUSH1 0x40 MLOAD PUSH3 0x461BCD PUSH1 0xE5 SHL DUP2 MSTORE PUSH1 0x20 PUSH1 0x4 DUP3 ADD MSTORE PUSH1 0xE PUSH1 0x24 DUP3 ADD MSTORE PUSH14 0x125B9D985B1A59081B585C9AD95D PUSH1 0x92 SHL PUSH1 0x44 DUP3 ADD MSTORE PUSH1 0x64 SWAP1 REVERT JUMPDEST RETURNDATASIZE ISZERO PUSH2 0xDC2 JUMPI RETURNDATASIZE SWAP1 PUSH2 0xDA8 DUP3 PUSH2 0xB4C JUMP JUMPDEST SWAP2 PUSH2 0xDB6 PUSH1 0x40 MLOAD SWAP4 DUP5 PUSH2 0xB2A JUMP JUMPDEST DUP3 MSTORE RETURNDATASIZE PUSH1 0x0 PUSH1 0x20 DUP5 ADD RETURNDATACOPY JUMP JUMPDEST PUSH1 0x60 SWAP1 JUMP INVALID LOG2 PUSH5 0x6970667358 0x22 SLT KECCAK256 BLOCKHASH 0x2D COINBASE SWAP7 0xC7 PUSH24 0xEC30B824F1EA5806144E668C66515C9F1F822D30C58F9473 0xDC 0x2E PUSH5 0x736F6C6343 STOP ADDMOD EQ STOP CALLER "},"methodIdentifiers":{"PLATFORM_FEE_PERCENTAGE()":"15548232","addVolume(uint256)":"85d21419","createAndFundMarket(string)":"1cb4d561","emergencyWithdraw()":"db2e21bc","getMarket(uint256)":"eb44fdd3","marketCount()":"ec979082","markets(uint256)":"b1283e77","payoutManager()":"3083a8e3","resolveMarket(uint256,string)":"c75bb724"}}}}}