{"contracts/src/DecentralizedOracle.sol":{"DecentralizedOracle":{"abi":[{"inputs":[{"internalType":"address","name":"_predictionMarket","type":"address"},{"internalType":"address","name":"_nodeRegistry","type":"address"}],"stateMutability":"nonpayable","type":"constructor"},{"inputs":[],"name":"ReentrancyGuardReentrantCall","type":"error"},{"anonymous":false,"inputs":[{"indexed":true,"internalType":"bytes32","name":"marketId","type":"bytes32"},{"indexed":true,"internalType":"bytes32","name":"submissionId","type":"bytes32"},{"indexed":false,"internalType":"uint256","name":"validatorCount","type":"uint256"}],"name":"ConsensusReached","type":"event"},{"anonymous":false,"inputs":[{"indexed":true,"internalType":"bytes32","name":"marketId","type":"bytes32"},{"indexed":true,"internalType":"bytes32","name":"winningSubmissionId","type":"bytes32"},{"indexed":false,"internalType":"uint256","name":"lowestDistance","type":"uint256"}],"name":"MarketAutoResolved","type":"event"},{"anonymous":false,"inputs":[{"indexed":true,"internalType":"bytes32","name":"marketId","type":"bytes32"},{"indexed":true,"internalType":"bytes32","name":"submissionId","type":"bytes32"},{"indexed":true,"internalType":"address","name":"oracle","type":"address"},{"indexed":false,"internalType":"string","name":"actualText","type":"string"},{"indexed":false,"internalType":"string","name":"screenshotIPFS","type":"string"},{"indexed":false,"internalType":"uint256","name":"levenshteinDistance","type":"uint256"}],"name":"OracleDataSubmitted","type":"event"},{"inputs":[],"name":"CONSENSUS_THRESHOLD","outputs":[{"internalType":"uint256","name":"","type":"uint256"}],"stateMutability":"view","type":"function"},{"inputs":[],"name":"MIN_VALIDATORS","outputs":[{"internalType":"uint256","name":"","type":"uint256"}],"stateMutability":"view","type":"function"},{"inputs":[{"internalType":"string","name":"a","type":"string"},{"internalType":"string","name":"b","type":"string"}],"name":"calculateLevenshteinDistance","outputs":[{"internalType":"uint256","name":"","type":"uint256"}],"stateMutability":"pure","type":"function"},{"inputs":[{"internalType":"bytes32","name":"marketId","type":"bytes32"},{"internalType":"bytes32","name":"submissionId","type":"bytes32"}],"name":"getOracleData","outputs":[{"internalType":"string","name":"actualText","type":"string"},{"internalType":"string","name":"screenshotIPFS","type":"string"},{"internalType":"uint256","name":"levenshteinDistance","type":"uint256"},{"internalType":"uint256","name":"validatorCount","type":"uint256"},{"internalType":"bool","name":"consensusReached","type":"bool"}],"stateMutability":"view","type":"function"},{"inputs":[{"internalType":"bytes32","name":"marketId","type":"bytes32"},{"internalType":"bytes32","name":"submissionId","type":"bytes32"},{"internalType":"address","name":"oracle","type":"address"}],"name":"hasOracleValidated","outputs":[{"internalType":"bool","name":"","type":"bool"}],"stateMutability":"view","type":"function"},{"inputs":[{"internalType":"bytes32","name":"","type":"bytes32"}],"name":"marketOracles","outputs":[{"internalType":"uint256","name":"totalValidations","type":"uint256"},{"internalType":"bool","name":"isResolved","type":"bool"}],"stateMutability":"view","type":"function"},{"inputs":[],"name":"nodeRegistry","outputs":[{"internalType":"contract INodeRegistry","name":"","type":"address"}],"stateMutability":"view","type":"function"},{"inputs":[],"name":"predictionMarket","outputs":[{"internalType":"contract IEnhancedPredictionMarket","name":"","type":"address"}],"stateMutability":"view","type":"function"},{"inputs":[{"internalType":"bytes32","name":"marketId","type":"bytes32"},{"internalType":"bytes32","name":"submissionId","type":"bytes32"},{"internalType":"string","name":"actualText","type":"string"},{"internalType":"string","name":"screenshotIPFS","type":"string"},{"internalType":"string","name":"predictedText","type":"string"}],"name":"submitOracleData","outputs":[],"stateMutability":"nonpayable","type":"function"}],"evm":{"bytecode":{"linkReferences":{},"object":"60803461009257601f6113ba38819003918201601f19168301916001600160401b0383118484101761009757808492604094855283398101031261009257610052602061004b836100ad565b92016100ad565b6001600081905580546001600160a01b039384166001600160a01b031991821617909155600280549290931691161790556040516112f890816100c28239f35b600080fd5b634e487b7160e01b600052604160045260246000fd5b51906001600160a01b03821682036100925756fe608080604052600436101561001357600080fd5b60003560e01c9081635044691114610b4a575080635ed1f96314610b2e578063bca125f014610b12578063cef45eb81461020a578063d33e996614610175578063d9b5c4a51461014c578063def114b614610123578063df6091a3146100c45763e5a5064b1461008257600080fd5b346100bf5760203660031901126100bf57600435600052600360205260408060002060ff6003600283015492015416825191825215156020820152f35b600080fd5b346100bf5760403660031901126100bf5767ffffffffffffffff6004358181116100bf576100f6903690600401610c7f565b906024359081116100bf5760209161011561011b923690600401610c7f565b90610da2565b604051908152f35b346100bf5760003660031901126100bf576001546040516001600160a01b039091168152602090f35b346100bf5760003660031901126100bf576002546040516001600160a01b039091168152602090f35b346100bf5760403660031901126100bf57600435600052600360205260406000206024356000526020526101e660406000206003810154600482015460ff600684015416906101f46101d260016101cb8761121c565b960161121c565b60405196879660a0885260a0880190610bd6565b908682036020880152610bd6565b9260408501526060840152151560808301520390f35b346100bf5760a03660031901126100bf5760443567ffffffffffffffff81116100bf5761023b903690600401610ba8565b60643567ffffffffffffffff81116100bf5761025b903690600401610ba8565b91909260843567ffffffffffffffff81116100bf5761027e903690600401610ba8565b949093600260005414610b005760026000819055546040516303a1e45b60e31b815233600482015290602090829060249082906001600160a01b03165afa908115610a7557600091610ac6575b5015610a815760015460405163c3c95c7b60e01b815260048035908201529060c090829060249082906001600160a01b03165afa908115610a7557600090600092610a21575b5080156109e4574211156109a65761096157600435600052600360205260406000209460243560005285602052604060002096336000526005880160205260ff6040600020541661090b576101156103769261036e368989610c38565b923691610c38565b946004870154156000146107665767ffffffffffffffff85116105dc5761039d8754610caa565b601f8111610722575b50846000601f82116001146106bd576000916106b2575b508560011b906000198760031b1c19161787555b67ffffffffffffffff82116105dc576103ed6001880154610caa565b601f811161066b575b50816000601f82116001146105fd576000916105f2575b508260011b906000198460031b1c19161760018801555b60405160208101908686833761044a602082898101600083820152038084520182610c16565b51902060028801558560038801556001810154600160401b8110156105dc5780600161047f9201600184015560018301610ce4565b81549060031b90602435821b91600019901b19161790555b600487015493600160401b8510156105dc57600261051b926104c8876001610529990160048d015560048c01610ce4565b81549060031b9033821b9160018060a01b03901b19161790553360005260058a016020526040600020600160ff19825416179055016105078154610d12565b905560405195606087526060870191610d37565b918483036020860152610d37565b91604082015233917fdf26e17d6dc2398699cb9538d059ed1af912fa8739dfbff9a7302fd6bf2fd0596024359280600435930390a46004810154906003821015806105cd575b61057b575b6001600055005b600601600160ff19825416179055604051908152602435907f7d106a5c37702184b49d989eaee4053250c131004f23deff2af8acdc5784f282602060043592a36105c6600435611060565b8080610574565b5060ff6006820154161561056f565b634e487b7160e01b600052604160045260246000fd5b90508301358861040d565b90506001880160005260206000209060005b601f1985168110610653575083601f19811610610639575b5050600182811b016001880155610424565b840135600019600385901b60f8161c191690558780610627565b9091602060018192858901358155019301910161060f565b600188016000526020600020601f840160051c8101602085106106ab575b601f830160051c8201811061069f5750506103f6565b60008155600101610689565b5080610689565b9050840135886103bd565b60008981526020812092505b601f198816811061070a575086601f198116106106f0575b5050600185811b0187556103d1565b850135600019600388901b60f8161c1916905587806106e1565b9091602060018192858a0135815501930191016106c9565b876000526020600020601f870160051c81016020881061075f575b601f830160051c820181106107535750506103a6565b6000815560010161073d565b508061073d565b60405160208101908686833761078c602082898101600083820152038084520182610c16565b5190206002880154036108b1576040516020810190838583376107bf602082868101600083820152038084520182610c16565b51902060405160018901548160006107d683610caa565b9260018116908115610893575060011461084f575b6107fe925003601f198101835282610c16565b60208151910120146104975760405162461bcd60e51b815260206004820152601d60248201527f53637265656e73686f7420495046532068617368206d69736d617463680000006044820152606490fd5b505060018a016000528160206000206000905b83821061087957505060206107fe928201016107eb565b602091925080600191548385880101520191018391610862565b602092506107fe94915060ff191682840152801515028201016107eb565b60405162461bcd60e51b815260206004820152602c60248201527f546578742068617368206d69736d6174636820776974682070726576696f757360448201526b207375626d697373696f6e7360a01b6064820152608490fd5b60405162461bcd60e51b815260206004820152602860248201527f4f7261636c6520616c72656164792076616c69646174656420746869732073756044820152673136b4b9b9b4b7b760c11b6064820152608490fd5b60405162461bcd60e51b815260206004820152601760248201527f4d61726b657420616c7265616479207265736f6c7665640000000000000000006044820152606490fd5b60405162461bcd60e51b815260206004820152601660248201527513585c9ad95d081b9bdd081e595d08195e1c1a5c995960521b6044820152606490fd5b60405162461bcd60e51b815260206004820152601560248201527413585c9ad95d08191bd95cc81b9bdd08195e1a5cdd605a1b6044820152606490fd5b91505060c0813d8211610a6d575b81610a3c60c09383610c16565b810103126100bf5780516001600160a01b038116036100bf57610a66606060408301519201610c9d565b9088610311565b3d9150610a2f565b6040513d6000823e3d90fd5b60405162461bcd60e51b815260206004820152601960248201527f4e6f7420616e20616374697665206f7261636c65206e6f6465000000000000006044820152606490fd5b90506020813d602011610af8575b81610ae160209383610c16565b810103126100bf57610af290610c9d565b876102cb565b3d9150610ad4565b604051633ee5aeb560e01b8152600490fd5b346100bf5760003660031901126100bf57602060405160428152f35b346100bf5760003660031901126100bf57602060405160038152f35b346100bf5760603660031901126100bf576044356001600160a01b03811691908290036100bf576020916004356000526003835260406000206024356000528352600560406000200190600052825260ff6040600020541615158152f35b9181601f840112156100bf5782359167ffffffffffffffff83116100bf57602083818601950101116100bf57565b919082519283825260005b848110610c02575050826000602080949584010152601f8019910116010190565b602081830181015184830182015201610be1565b90601f8019910116810190811067ffffffffffffffff8211176105dc57604052565b92919267ffffffffffffffff82116105dc5760405191610c62601f8201601f191660200184610c16565b8294818452818301116100bf578281602093846000960137010152565b9080601f830112156100bf57816020610c9a93359101610c38565b90565b519081151582036100bf57565b90600182811c92168015610cda575b6020831014610cc457565b634e487b7160e01b600052602260045260246000fd5b91607f1691610cb9565b8054821015610cfc5760005260206000200190600090565b634e487b7160e01b600052603260045260246000fd5b6000198114610d215760010190565b634e487b7160e01b600052601160045260246000fd5b908060209392818452848401376000828201840152601f01601f1916010190565b67ffffffffffffffff81116105dc5760051b60200190565b805115610cfc5760200190565b8051821015610cfc5760209160051b010190565b908151811015610cfc570160200190565b805190825192821561105a57831561105357610118808411159081611048575b5015610ff15760019081840192838511610d2157610ddf84610d58565b93610e00604091610df283519788610c16565b808752601f19918291610d58565b0160005b818110610fe0575050600090858901808a11925b89811115610f8e57505050505060005b85811115610f71575060005b86811115610f5a5750825b85811115610e635750505050610e5f9291610e5991610d7d565b51610d7d565b5190565b835b87811115610e7c5750610e7790610d12565b610e3f565b6000198281019190838311610d21576001600160f81b03199081610ea08588610d91565b511690830191838311610d2157610eb78389610d91565b511603610f53576000905b610ed083610e59868c610d7d565b5190888201809211610d2157610eea81610e59888d610d7d565b5194898601809611610d215760ff91610e59610f06928d610d7d565b5192168201809211610d2157610f3f9380821015610f4b5750905b80821015610f4457505b610f3982610e59868b610d7d565b52610d12565b610e65565b9050610f2b565b905090610f21565b8690610ec2565b8080610f39610f6c93610e5989610d70565b610e34565b8080610f39610f83610f899489610d7d565b51610d70565b610e28565b83610d2157610fdb90610fa083610d58565b610fac87519182610c16565b83815284610fb985610d58565b01366020830137610fca828c610d7d565b52610fd5818b610d7d565b50610d12565b610e18565b806060602080938b01015201610e04565b60405162461bcd60e51b815260206004820152602960248201527f537472696e677320746f6f206c6f6e6720666f72206f6e2d636861696e2063616044820152683631bab630ba34b7b760b91b6064820152608490fd5b905084111538610dc2565b5050905090565b50505090565b90600091808352600390602082815260409283862093818501805460ff9384821661121057600019948a80996001938293858301938454955b8681106111ab575b505050505050816111a1575b506110be575b505050505050509050565b60ff191660019081179091555487906001600160a01b0316803b1561119d57819060448451809481936303536e6360e41b83528a60048401528b60248401525af1801561119357611143575b507f50d45b923fd79ca96c6cecb390db4bd5218938f4168bca1b601c3016f4f01aa8939495965051908152a380388080808080806110b3565b67ffffffffffffffff811161117f57815294955085947f50d45b923fd79ca96c6cecb390db4bd5218938f4168bca1b601c3016f4f01aa861110a565b634e487b7160e01b88526041600452602488fd5b82513d8a823e3d90fd5b5080fd5b90501515386110ad565b8c856111b78389610ce4565b905490871b1c91828552528b832084600682015416156111fa578501548d81106111ec575b50506111e790610d12565b611099565b909f509b506111e7386111dc565b5050509495505050505090388080808e816110a1565b50505050505050509050565b906040519182600082549261123084610caa565b90818452600194858116908160001461129f575060011461125c575b505061125a92500383610c16565b565b9093915060005260209081600020936000915b81831061128757505061125a9350820101388061124c565b8554888401850152948501948794509183019161126f565b91505061125a94506020925060ff191682840152151560051b820101388061124c56fea264697066735822122061e79adfaceb88e058431908c1b2c14b14e78849719717fae6905de8cc0bfa0d64736f6c63430008140033","opcodes":"PUSH1 0x80 CALLVALUE PUSH2 0x92 JUMPI PUSH1 0x1F PUSH2 0x13BA CODESIZE DUP2 SWAP1 SUB SWAP2 DUP3 ADD PUSH1 0x1F NOT AND DUP4 ADD SWAP2 PUSH1 0x1 PUSH1 0x1 PUSH1 0x40 SHL SUB DUP4 GT DUP5 DUP5 LT OR PUSH2 0x97 JUMPI DUP1 DUP5 SWAP3 PUSH1 0x40 SWAP5 DUP6 MSTORE DUP4 CODECOPY DUP2 ADD SUB SLT PUSH2 0x92 JUMPI PUSH2 0x52 PUSH1 0x20 PUSH2 0x4B DUP4 PUSH2 0xAD JUMP JUMPDEST SWAP3 ADD PUSH2 0xAD JUMP JUMPDEST PUSH1 0x1 PUSH1 0x0 DUP2 SWAP1 SSTORE DUP1 SLOAD PUSH1 0x1 PUSH1 0x1 PUSH1 0xA0 SHL SUB SWAP4 DUP5 AND PUSH1 0x1 PUSH1 0x1 PUSH1 0xA0 SHL SUB NOT SWAP2 DUP3 AND OR SWAP1 SWAP2 SSTORE PUSH1 0x2 DUP1 SLOAD SWAP3 SWAP1 SWAP4 AND SWAP2 AND OR SWAP1 SSTORE PUSH1 0x40 MLOAD PUSH2 0x12F8 SWAP1 DUP2 PUSH2 0xC2 DUP3 CODECOPY RETURN JUMPDEST PUSH1 0x0 DUP1 REVERT JUMPDEST PUSH4 0x4E487B71 PUSH1 0xE0 SHL PUSH1 0x0 MSTORE PUSH1 0x41 PUSH1 0x4 MSTORE PUSH1 0x24 PUSH1 0x0 REVERT JUMPDEST MLOAD SWAP1 PUSH1 0x1 PUSH1 0x1 PUSH1 0xA0 SHL SUB DUP3 AND DUP3 SUB PUSH2 0x92 JUMPI JUMP INVALID PUSH1 0x80 DUP1 PUSH1 0x40 MSTORE PUSH1 0x4 CALLDATASIZE LT ISZERO PUSH2 0x13 JUMPI PUSH1 0x0 DUP1 REVERT JUMPDEST PUSH1 0x0 CALLDATALOAD PUSH1 0xE0 SHR SWAP1 DUP2 PUSH4 0x50446911 EQ PUSH2 0xB4A JUMPI POP DUP1 PUSH4 0x5ED1F963 EQ PUSH2 0xB2E JUMPI DUP1 PUSH4 0xBCA125F0 EQ PUSH2 0xB12 JUMPI DUP1 PUSH4 0xCEF45EB8 EQ PUSH2 0x20A JUMPI DUP1 PUSH4 0xD33E9966 EQ PUSH2 0x175 JUMPI DUP1 PUSH4 0xD9B5C4A5 EQ PUSH2 0x14C JUMPI DUP1 PUSH4 0xDEF114B6 EQ PUSH2 0x123 JUMPI DUP1 PUSH4 0xDF6091A3 EQ PUSH2 0xC4 JUMPI PUSH4 0xE5A5064B EQ PUSH2 0x82 JUMPI PUSH1 0x0 DUP1 REVERT JUMPDEST CALLVALUE PUSH2 0xBF JUMPI PUSH1 0x20 CALLDATASIZE PUSH1 0x3 NOT ADD SLT PUSH2 0xBF JUMPI PUSH1 0x4 CALLDATALOAD PUSH1 0x0 MSTORE PUSH1 0x3 PUSH1 0x20 MSTORE PUSH1 0x40 DUP1 PUSH1 0x0 KECCAK256 PUSH1 0xFF PUSH1 0x3 PUSH1 0x2 DUP4 ADD SLOAD SWAP3 ADD SLOAD AND DUP3 MLOAD SWAP2 DUP3 MSTORE ISZERO ISZERO PUSH1 0x20 DUP3 ADD MSTORE RETURN JUMPDEST PUSH1 0x0 DUP1 REVERT JUMPDEST CALLVALUE PUSH2 0xBF JUMPI PUSH1 0x40 CALLDATASIZE PUSH1 0x3 NOT ADD SLT PUSH2 0xBF JUMPI PUSH8 0xFFFFFFFFFFFFFFFF PUSH1 0x4 CALLDATALOAD DUP2 DUP2 GT PUSH2 0xBF JUMPI PUSH2 0xF6 SWAP1 CALLDATASIZE SWAP1 PUSH1 0x4 ADD PUSH2 0xC7F JUMP JUMPDEST SWAP1 PUSH1 0x24 CALLDATALOAD SWAP1 DUP2 GT PUSH2 0xBF JUMPI PUSH1 0x20 SWAP2 PUSH2 0x115 PUSH2 0x11B SWAP3 CALLDATASIZE SWAP1 PUSH1 0x4 ADD PUSH2 0xC7F JUMP JUMPDEST SWAP1 PUSH2 0xDA2 JUMP JUMPDEST PUSH1 0x40 MLOAD SWAP1 DUP2 MSTORE RETURN JUMPDEST CALLVALUE PUSH2 0xBF JUMPI PUSH1 0x0 CALLDATASIZE PUSH1 0x3 NOT ADD SLT PUSH2 0xBF JUMPI PUSH1 0x1 SLOAD PUSH1 0x40 MLOAD PUSH1 0x1 PUSH1 0x1 PUSH1 0xA0 SHL SUB SWAP1 SWAP2 AND DUP2 MSTORE PUSH1 0x20 SWAP1 RETURN JUMPDEST CALLVALUE PUSH2 0xBF JUMPI PUSH1 0x0 CALLDATASIZE PUSH1 0x3 NOT ADD SLT PUSH2 0xBF JUMPI PUSH1 0x2 SLOAD PUSH1 0x40 MLOAD PUSH1 0x1 PUSH1 0x1 PUSH1 0xA0 SHL SUB SWAP1 SWAP2 AND DUP2 MSTORE PUSH1 0x20 SWAP1 RETURN JUMPDEST CALLVALUE PUSH2 0xBF JUMPI PUSH1 0x40 CALLDATASIZE PUSH1 0x3 NOT ADD SLT PUSH2 0xBF JUMPI PUSH1 0x4 CALLDATALOAD PUSH1 0x0 MSTORE PUSH1 0x3 PUSH1 0x20 MSTORE PUSH1 0x40 PUSH1 0x0 KECCAK256 PUSH1 0x24 CALLDATALOAD PUSH1 0x0 MSTORE PUSH1 0x20 MSTORE PUSH2 0x1E6 PUSH1 0x40 PUSH1 0x0 KECCAK256 PUSH1 0x3 DUP2 ADD SLOAD PUSH1 0x4 DUP3 ADD SLOAD PUSH1 0xFF PUSH1 0x6 DUP5 ADD SLOAD AND SWAP1 PUSH2 0x1F4 PUSH2 0x1D2 PUSH1 0x1 PUSH2 0x1CB DUP8 PUSH2 0x121C JUMP JUMPDEST SWAP7 ADD PUSH2 0x121C JUMP JUMPDEST PUSH1 0x40 MLOAD SWAP7 DUP8 SWAP7 PUSH1 0xA0 DUP9 MSTORE PUSH1 0xA0 DUP9 ADD SWAP1 PUSH2 0xBD6 JUMP JUMPDEST SWAP1 DUP7 DUP3 SUB PUSH1 0x20 DUP9 ADD MSTORE PUSH2 0xBD6 JUMP JUMPDEST SWAP3 PUSH1 0x40 DUP6 ADD MSTORE PUSH1 0x60 DUP5 ADD MSTORE ISZERO ISZERO PUSH1 0x80 DUP4 ADD MSTORE SUB SWAP1 RETURN JUMPDEST CALLVALUE PUSH2 0xBF JUMPI PUSH1 0xA0 CALLDATASIZE PUSH1 0x3 NOT ADD SLT PUSH2 0xBF JUMPI PUSH1 0x44 CALLDATALOAD PUSH8 0xFFFFFFFFFFFFFFFF DUP2 GT PUSH2 0xBF JUMPI PUSH2 0x23B SWAP1 CALLDATASIZE SWAP1 PUSH1 0x4 ADD PUSH2 0xBA8 JUMP JUMPDEST PUSH1 0x64 CALLDATALOAD PUSH8 0xFFFFFFFFFFFFFFFF DUP2 GT PUSH2 0xBF JUMPI PUSH2 0x25B SWAP1 CALLDATASIZE SWAP1 PUSH1 0x4 ADD PUSH2 0xBA8 JUMP JUMPDEST SWAP2 SWAP1 SWAP3 PUSH1 0x84 CALLDATALOAD PUSH8 0xFFFFFFFFFFFFFFFF DUP2 GT PUSH2 0xBF JUMPI PUSH2 0x27E SWAP1 CALLDATASIZE SWAP1 PUSH1 0x4 ADD PUSH2 0xBA8 JUMP JUMPDEST SWAP5 SWAP1 SWAP4 PUSH1 0x2 PUSH1 0x0 SLOAD EQ PUSH2 0xB00 JUMPI PUSH1 0x2 PUSH1 0x0 DUP2 SWAP1 SSTORE SLOAD PUSH1 0x40 MLOAD PUSH4 0x3A1E45B PUSH1 0xE3 SHL DUP2 MSTORE CALLER PUSH1 0x4 DUP3 ADD MSTORE SWAP1 PUSH1 0x20 SWAP1 DUP3 SWAP1 PUSH1 0x24 SWAP1 DUP3 SWAP1 PUSH1 0x1 PUSH1 0x1 PUSH1 0xA0 SHL SUB AND GAS STATICCALL SWAP1 DUP2 ISZERO PUSH2 0xA75 JUMPI PUSH1 0x0 SWAP2 PUSH2 0xAC6 JUMPI JUMPDEST POP ISZERO PUSH2 0xA81 JUMPI PUSH1 0x1 SLOAD PUSH1 0x40 MLOAD PUSH4 0xC3C95C7B PUSH1 0xE0 SHL DUP2 MSTORE PUSH1 0x4 DUP1 CALLDATALOAD SWAP1 DUP3 ADD MSTORE SWAP1 PUSH1 0xC0 SWAP1 DUP3 SWAP1 PUSH1 0x24 SWAP1 DUP3 SWAP1 PUSH1 0x1 PUSH1 0x1 PUSH1 0xA0 SHL SUB AND GAS STATICCALL SWAP1 DUP2 ISZERO PUSH2 0xA75 JUMPI PUSH1 0x0 SWAP1 PUSH1 0x0 SWAP3 PUSH2 0xA21 JUMPI JUMPDEST POP DUP1 ISZERO PUSH2 0x9E4 JUMPI TIMESTAMP GT ISZERO PUSH2 0x9A6 JUMPI PUSH2 0x961 JUMPI PUSH1 0x4 CALLDATALOAD PUSH1 0x0 MSTORE PUSH1 0x3 PUSH1 0x20 MSTORE PUSH1 0x40 PUSH1 0x0 KECCAK256 SWAP5 PUSH1 0x24 CALLDATALOAD PUSH1 0x0 MSTORE DUP6 PUSH1 0x20 MSTORE PUSH1 0x40 PUSH1 0x0 KECCAK256 SWAP7 CALLER PUSH1 0x0 MSTORE PUSH1 0x5 DUP9 ADD PUSH1 0x20 MSTORE PUSH1 0xFF PUSH1 0x40 PUSH1 0x0 KECCAK256 SLOAD AND PUSH2 0x90B JUMPI PUSH2 0x115 PUSH2 0x376 SWAP3 PUSH2 0x36E CALLDATASIZE DUP10 DUP10 PUSH2 0xC38 JUMP JUMPDEST SWAP3 CALLDATASIZE SWAP2 PUSH2 0xC38 JUMP JUMPDEST SWAP5 PUSH1 0x4 DUP8 ADD SLOAD ISZERO PUSH1 0x0 EQ PUSH2 0x766 JUMPI PUSH8 0xFFFFFFFFFFFFFFFF DUP6 GT PUSH2 0x5DC JUMPI PUSH2 0x39D DUP8 SLOAD PUSH2 0xCAA JUMP JUMPDEST PUSH1 0x1F DUP2 GT PUSH2 0x722 JUMPI JUMPDEST POP DUP5 PUSH1 0x0 PUSH1 0x1F DUP3 GT PUSH1 0x1 EQ PUSH2 0x6BD JUMPI PUSH1 0x0 SWAP2 PUSH2 0x6B2 JUMPI JUMPDEST POP DUP6 PUSH1 0x1 SHL SWAP1 PUSH1 0x0 NOT DUP8 PUSH1 0x3 SHL SHR NOT AND OR DUP8 SSTORE JUMPDEST PUSH8 0xFFFFFFFFFFFFFFFF DUP3 GT PUSH2 0x5DC JUMPI PUSH2 0x3ED PUSH1 0x1 DUP9 ADD SLOAD PUSH2 0xCAA JUMP JUMPDEST PUSH1 0x1F DUP2 GT PUSH2 0x66B JUMPI JUMPDEST POP DUP2 PUSH1 0x0 PUSH1 0x1F DUP3 GT PUSH1 0x1 EQ PUSH2 0x5FD JUMPI PUSH1 0x0 SWAP2 PUSH2 0x5F2 JUMPI JUMPDEST POP DUP3 PUSH1 0x1 SHL SWAP1 PUSH1 0x0 NOT DUP5 PUSH1 0x3 SHL SHR NOT AND OR PUSH1 0x1 DUP9 ADD SSTORE JUMPDEST PUSH1 0x40 MLOAD PUSH1 0x20 DUP2 ADD SWAP1 DUP7 DUP7 DUP4 CALLDATACOPY PUSH2 0x44A PUSH1 0x20 DUP3 DUP10 DUP2 ADD PUSH1 0x0 DUP4 DUP3 ADD MSTORE SUB DUP1 DUP5 MSTORE ADD DUP3 PUSH2 0xC16 JUMP JUMPDEST MLOAD SWAP1 KECCAK256 PUSH1 0x2 DUP9 ADD SSTORE DUP6 PUSH1 0x3 DUP9 ADD SSTORE PUSH1 0x1 DUP2 ADD SLOAD PUSH1 0x1 PUSH1 0x40 SHL DUP2 LT ISZERO PUSH2 0x5DC JUMPI DUP1 PUSH1 0x1 PUSH2 0x47F SWAP3 ADD PUSH1 0x1 DUP5 ADD SSTORE PUSH1 0x1 DUP4 ADD PUSH2 0xCE4 JUMP JUMPDEST DUP2 SLOAD SWAP1 PUSH1 0x3 SHL SWAP1 PUSH1 0x24 CALLDATALOAD DUP3 SHL SWAP2 PUSH1 0x0 NOT SWAP1 SHL NOT AND OR SWAP1 SSTORE JUMPDEST PUSH1 0x4 DUP8 ADD SLOAD SWAP4 PUSH1 0x1 PUSH1 0x40 SHL DUP6 LT ISZERO PUSH2 0x5DC JUMPI PUSH1 0x2 PUSH2 0x51B SWAP3 PUSH2 0x4C8 DUP8 PUSH1 0x1 PUSH2 0x529 SWAP10 ADD PUSH1 0x4 DUP14 ADD SSTORE PUSH1 0x4 DUP13 ADD PUSH2 0xCE4 JUMP JUMPDEST DUP2 SLOAD SWAP1 PUSH1 0x3 SHL SWAP1 CALLER DUP3 SHL SWAP2 PUSH1 0x1 DUP1 PUSH1 0xA0 SHL SUB SWAP1 SHL NOT AND OR SWAP1 SSTORE CALLER PUSH1 0x0 MSTORE PUSH1 0x5 DUP11 ADD PUSH1 0x20 MSTORE PUSH1 0x40 PUSH1 0x0 KECCAK256 PUSH1 0x1 PUSH1 0xFF NOT DUP3 SLOAD AND OR SWAP1 SSTORE ADD PUSH2 0x507 DUP2 SLOAD PUSH2 0xD12 JUMP JUMPDEST SWAP1 SSTORE PUSH1 0x40 MLOAD SWAP6 PUSH1 0x60 DUP8 MSTORE PUSH1 0x60 DUP8 ADD SWAP2 PUSH2 0xD37 JUMP JUMPDEST SWAP2 DUP5 DUP4 SUB PUSH1 0x20 DUP7 ADD MSTORE PUSH2 0xD37 JUMP JUMPDEST SWAP2 PUSH1 0x40 DUP3 ADD MSTORE CALLER SWAP2 PUSH32 0xDF26E17D6DC2398699CB9538D059ED1AF912FA8739DFBFF9A7302FD6BF2FD059 PUSH1 0x24 CALLDATALOAD SWAP3 DUP1 PUSH1 0x4 CALLDATALOAD SWAP4 SUB SWAP1 LOG4 PUSH1 0x4 DUP2 ADD SLOAD SWAP1 PUSH1 0x3 DUP3 LT ISZERO DUP1 PUSH2 0x5CD JUMPI JUMPDEST PUSH2 0x57B JUMPI JUMPDEST PUSH1 0x1 PUSH1 0x0 SSTORE STOP JUMPDEST PUSH1 0x6 ADD PUSH1 0x1 PUSH1 0xFF NOT DUP3 SLOAD AND OR SWAP1 SSTORE PUSH1 0x40 MLOAD SWAP1 DUP2 MSTORE PUSH1 0x24 CALLDATALOAD SWAP1 PUSH32 0x7D106A5C37702184B49D989EAEE4053250C131004F23DEFF2AF8ACDC5784F282 PUSH1 0x20 PUSH1 0x4 CALLDATALOAD SWAP3 LOG3 PUSH2 0x5C6 PUSH1 0x4 CALLDATALOAD PUSH2 0x1060 JUMP JUMPDEST DUP1 DUP1 PUSH2 0x574 JUMP JUMPDEST POP PUSH1 0xFF PUSH1 0x6 DUP3 ADD SLOAD AND ISZERO PUSH2 0x56F JUMP JUMPDEST PUSH4 0x4E487B71 PUSH1 0xE0 SHL PUSH1 0x0 MSTORE PUSH1 0x41 PUSH1 0x4 MSTORE PUSH1 0x24 PUSH1 0x0 REVERT JUMPDEST SWAP1 POP DUP4 ADD CALLDATALOAD DUP9 PUSH2 0x40D JUMP JUMPDEST SWAP1 POP PUSH1 0x1 DUP9 ADD PUSH1 0x0 MSTORE PUSH1 0x20 PUSH1 0x0 KECCAK256 SWAP1 PUSH1 0x0 JUMPDEST PUSH1 0x1F NOT DUP6 AND DUP2 LT PUSH2 0x653 JUMPI POP DUP4 PUSH1 0x1F NOT DUP2 AND LT PUSH2 0x639 JUMPI JUMPDEST POP POP PUSH1 0x1 DUP3 DUP2 SHL ADD PUSH1 0x1 DUP9 ADD SSTORE PUSH2 0x424 JUMP JUMPDEST DUP5 ADD CALLDATALOAD PUSH1 0x0 NOT PUSH1 0x3 DUP6 SWAP1 SHL PUSH1 0xF8 AND SHR NOT AND SWAP1 SSTORE DUP8 DUP1 PUSH2 0x627 JUMP JUMPDEST SWAP1 SWAP2 PUSH1 0x20 PUSH1 0x1 DUP2 SWAP3 DUP6 DUP10 ADD CALLDATALOAD DUP2 SSTORE ADD SWAP4 ADD SWAP2 ADD PUSH2 0x60F JUMP JUMPDEST PUSH1 0x1 DUP9 ADD PUSH1 0x0 MSTORE PUSH1 0x20 PUSH1 0x0 KECCAK256 PUSH1 0x1F DUP5 ADD PUSH1 0x5 SHR DUP2 ADD PUSH1 0x20 DUP6 LT PUSH2 0x6AB JUMPI JUMPDEST PUSH1 0x1F DUP4 ADD PUSH1 0x5 SHR DUP3 ADD DUP2 LT PUSH2 0x69F JUMPI POP POP PUSH2 0x3F6 JUMP JUMPDEST PUSH1 0x0 DUP2 SSTORE PUSH1 0x1 ADD PUSH2 0x689 JUMP JUMPDEST POP DUP1 PUSH2 0x689 JUMP JUMPDEST SWAP1 POP DUP5 ADD CALLDATALOAD DUP9 PUSH2 0x3BD JUMP JUMPDEST PUSH1 0x0 DUP10 DUP2 MSTORE PUSH1 0x20 DUP2 KECCAK256 SWAP3 POP JUMPDEST PUSH1 0x1F NOT DUP9 AND DUP2 LT PUSH2 0x70A JUMPI POP DUP7 PUSH1 0x1F NOT DUP2 AND LT PUSH2 0x6F0 JUMPI JUMPDEST POP POP PUSH1 0x1 DUP6 DUP2 SHL ADD DUP8 SSTORE PUSH2 0x3D1 JUMP JUMPDEST DUP6 ADD CALLDATALOAD PUSH1 0x0 NOT PUSH1 0x3 DUP9 SWAP1 SHL PUSH1 0xF8 AND SHR NOT AND SWAP1 SSTORE DUP8 DUP1 PUSH2 0x6E1 JUMP JUMPDEST SWAP1 SWAP2 PUSH1 0x20 PUSH1 0x1 DUP2 SWAP3 DUP6 DUP11 ADD CALLDATALOAD DUP2 SSTORE ADD SWAP4 ADD SWAP2 ADD PUSH2 0x6C9 JUMP JUMPDEST DUP8 PUSH1 0x0 MSTORE PUSH1 0x20 PUSH1 0x0 KECCAK256 PUSH1 0x1F DUP8 ADD PUSH1 0x5 SHR DUP2 ADD PUSH1 0x20 DUP9 LT PUSH2 0x75F JUMPI JUMPDEST PUSH1 0x1F DUP4 ADD PUSH1 0x5 SHR DUP3 ADD DUP2 LT PUSH2 0x753 JUMPI POP POP PUSH2 0x3A6 JUMP JUMPDEST PUSH1 0x0 DUP2 SSTORE PUSH1 0x1 ADD PUSH2 0x73D JUMP JUMPDEST POP DUP1 PUSH2 0x73D JUMP JUMPDEST PUSH1 0x40 MLOAD PUSH1 0x20 DUP2 ADD SWAP1 DUP7 DUP7 DUP4 CALLDATACOPY PUSH2 0x78C PUSH1 0x20 DUP3 DUP10 DUP2 ADD PUSH1 0x0 DUP4 DUP3 ADD MSTORE SUB DUP1 DUP5 MSTORE ADD DUP3 PUSH2 0xC16 JUMP JUMPDEST MLOAD SWAP1 KECCAK256 PUSH1 0x2 DUP9 ADD SLOAD SUB PUSH2 0x8B1 JUMPI PUSH1 0x40 MLOAD PUSH1 0x20 DUP2 ADD SWAP1 DUP4 DUP6 DUP4 CALLDATACOPY PUSH2 0x7BF PUSH1 0x20 DUP3 DUP7 DUP2 ADD PUSH1 0x0 DUP4 DUP3 ADD MSTORE SUB DUP1 DUP5 MSTORE ADD DUP3 PUSH2 0xC16 JUMP JUMPDEST MLOAD SWAP1 KECCAK256 PUSH1 0x40 MLOAD PUSH1 0x1 DUP10 ADD SLOAD DUP2 PUSH1 0x0 PUSH2 0x7D6 DUP4 PUSH2 0xCAA JUMP JUMPDEST SWAP3 PUSH1 0x1 DUP2 AND SWAP1 DUP2 ISZERO PUSH2 0x893 JUMPI POP PUSH1 0x1 EQ PUSH2 0x84F JUMPI JUMPDEST PUSH2 0x7FE SWAP3 POP SUB PUSH1 0x1F NOT DUP2 ADD DUP4 MSTORE DUP3 PUSH2 0xC16 JUMP JUMPDEST PUSH1 0x20 DUP2 MLOAD SWAP2 ADD KECCAK256 EQ PUSH2 0x497 JUMPI PUSH1 0x40 MLOAD PUSH3 0x461BCD PUSH1 0xE5 SHL DUP2 MSTORE PUSH1 0x20 PUSH1 0x4 DUP3 ADD MSTORE PUSH1 0x1D PUSH1 0x24 DUP3 ADD MSTORE PUSH32 0x53637265656E73686F7420495046532068617368206D69736D61746368000000 PUSH1 0x44 DUP3 ADD MSTORE PUSH1 0x64 SWAP1 REVERT JUMPDEST POP POP PUSH1 0x1 DUP11 ADD PUSH1 0x0 MSTORE DUP2 PUSH1 0x20 PUSH1 0x0 KECCAK256 PUSH1 0x0 SWAP1 JUMPDEST DUP4 DUP3 LT PUSH2 0x879 JUMPI POP POP PUSH1 0x20 PUSH2 0x7FE SWAP3 DUP3 ADD ADD PUSH2 0x7EB JUMP JUMPDEST PUSH1 0x20 SWAP2 SWAP3 POP DUP1 PUSH1 0x1 SWAP2 SLOAD DUP4 DUP6 DUP9 ADD ADD MSTORE ADD SWAP2 ADD DUP4 SWAP2 PUSH2 0x862 JUMP JUMPDEST PUSH1 0x20 SWAP3 POP PUSH2 0x7FE SWAP5 SWAP2 POP PUSH1 0xFF NOT AND DUP3 DUP5 ADD MSTORE DUP1 ISZERO ISZERO MUL DUP3 ADD ADD PUSH2 0x7EB JUMP JUMPDEST PUSH1 0x40 MLOAD PUSH3 0x461BCD PUSH1 0xE5 SHL DUP2 MSTORE PUSH1 0x20 PUSH1 0x4 DUP3 ADD MSTORE PUSH1 0x2C PUSH1 0x24 DUP3 ADD MSTORE PUSH32 0x546578742068617368206D69736D6174636820776974682070726576696F7573 PUSH1 0x44 DUP3 ADD MSTORE PUSH12 0x207375626D697373696F6E73 PUSH1 0xA0 SHL PUSH1 0x64 DUP3 ADD MSTORE PUSH1 0x84 SWAP1 REVERT JUMPDEST PUSH1 0x40 MLOAD PUSH3 0x461BCD PUSH1 0xE5 SHL DUP2 MSTORE PUSH1 0x20 PUSH1 0x4 DUP3 ADD MSTORE PUSH1 0x28 PUSH1 0x24 DUP3 ADD MSTORE PUSH32 0x4F7261636C6520616C72656164792076616C6964617465642074686973207375 PUSH1 0x44 DUP3 ADD MSTORE PUSH8 0x3136B4B9B9B4B7B7 PUSH1 0xC1 SHL PUSH1 0x64 DUP3 ADD MSTORE PUSH1 0x84 SWAP1 REVERT JUMPDEST PUSH1 0x40 MLOAD PUSH3 0x461BCD PUSH1 0xE5 SHL DUP2 MSTORE PUSH1 0x20 PUSH1 0x4 DUP3 ADD MSTORE PUSH1 0x17 PUSH1 0x24 DUP3 ADD MSTORE PUSH32 0x4D61726B657420616C7265616479207265736F6C766564000000000000000000 PUSH1 0x44 DUP3 ADD MSTORE PUSH1 0x64 SWAP1 REVERT JUMPDEST PUSH1 0x40 MLOAD PUSH3 0x461BCD PUSH1 0xE5 SHL DUP2 MSTORE PUSH1 0x20 PUSH1 0x4 DUP3 ADD MSTORE PUSH1 0x16 PUSH1 0x24 DUP3 ADD MSTORE PUSH22 0x13585C9AD95D081B9BDD081E595D08195E1C1A5C9959 PUSH1 0x52 SHL PUSH1 0x44 DUP3 ADD MSTORE PUSH1 0x64 SWAP1 REVERT JUMPDEST PUSH1 0x40 MLOAD PUSH3 0x461BCD PUSH1 0xE5 SHL DUP2 MSTORE PUSH1 0x20 PUSH1 0x4 DUP3 ADD MSTORE PUSH1 0x15 PUSH1 0x24 DUP3 ADD MSTORE PUSH21 0x13585C9AD95D08191BD95CC81B9BDD08195E1A5CDD PUSH1 0x5A SHL PUSH1 0x44 DUP3 ADD MSTORE PUSH1 0x64 SWAP1 REVERT JUMPDEST SWAP2 POP POP PUSH1 0xC0 DUP2 RETURNDATASIZE DUP3 GT PUSH2 0xA6D JUMPI JUMPDEST DUP2 PUSH2 0xA3C PUSH1 0xC0 SWAP4 DUP4 PUSH2 0xC16 JUMP JUMPDEST DUP2 ADD SUB SLT PUSH2 0xBF JUMPI DUP1 MLOAD PUSH1 0x1 PUSH1 0x1 PUSH1 0xA0 SHL SUB DUP2 AND SUB PUSH2 0xBF JUMPI PUSH2 0xA66 PUSH1 0x60 PUSH1 0x40 DUP4 ADD MLOAD SWAP3 ADD PUSH2 0xC9D JUMP JUMPDEST SWAP1 DUP9 PUSH2 0x311 JUMP JUMPDEST RETURNDATASIZE SWAP2 POP PUSH2 0xA2F JUMP JUMPDEST PUSH1 0x40 MLOAD RETURNDATASIZE PUSH1 0x0 DUP3 RETURNDATACOPY RETURNDATASIZE SWAP1 REVERT JUMPDEST PUSH1 0x40 MLOAD PUSH3 0x461BCD PUSH1 0xE5 SHL DUP2 MSTORE PUSH1 0x20 PUSH1 0x4 DUP3 ADD MSTORE PUSH1 0x19 PUSH1 0x24 DUP3 ADD MSTORE PUSH32 0x4E6F7420616E20616374697665206F7261636C65206E6F646500000000000000 PUSH1 0x44 DUP3 ADD MSTORE PUSH1 0x64 SWAP1 REVERT JUMPDEST SWAP1 POP PUSH1 0x20 DUP2 RETURNDATASIZE PUSH1 0x20 GT PUSH2 0xAF8 JUMPI JUMPDEST DUP2 PUSH2 0xAE1 PUSH1 0x20 SWAP4 DUP4 PUSH2 0xC16 JUMP JUMPDEST DUP2 ADD SUB SLT PUSH2 0xBF JUMPI PUSH2 0xAF2 SWAP1 PUSH2 0xC9D JUMP JUMPDEST DUP8 PUSH2 0x2CB JUMP JUMPDEST RETURNDATASIZE SWAP2 POP PUSH2 0xAD4 JUMP JUMPDEST PUSH1 0x40 MLOAD PUSH4 0x3EE5AEB5 PUSH1 0xE0 SHL DUP2 MSTORE PUSH1 0x4 SWAP1 REVERT JUMPDEST CALLVALUE PUSH2 0xBF JUMPI PUSH1 0x0 CALLDATASIZE PUSH1 0x3 NOT ADD SLT PUSH2 0xBF JUMPI PUSH1 0x20 PUSH1 0x40 MLOAD PUSH1 0x42 DUP2 MSTORE RETURN JUMPDEST CALLVALUE PUSH2 0xBF JUMPI PUSH1 0x0 CALLDATASIZE PUSH1 0x3 NOT ADD SLT PUSH2 0xBF JUMPI PUSH1 0x20 PUSH1 0x40 MLOAD PUSH1 0x3 DUP2 MSTORE RETURN JUMPDEST CALLVALUE PUSH2 0xBF JUMPI PUSH1 0x60 CALLDATASIZE PUSH1 0x3 NOT ADD SLT PUSH2 0xBF JUMPI PUSH1 0x44 CALLDATALOAD PUSH1 0x1 PUSH1 0x1 PUSH1 0xA0 SHL SUB DUP2 AND SWAP2 SWAP1 DUP3 SWAP1 SUB PUSH2 0xBF JUMPI PUSH1 0x20 SWAP2 PUSH1 0x4 CALLDATALOAD PUSH1 0x0 MSTORE PUSH1 0x3 DUP4 MSTORE PUSH1 0x40 PUSH1 0x0 KECCAK256 PUSH1 0x24 CALLDATALOAD PUSH1 0x0 MSTORE DUP4 MSTORE PUSH1 0x5 PUSH1 0x40 PUSH1 0x0 KECCAK256 ADD SWAP1 PUSH1 0x0 MSTORE DUP3 MSTORE PUSH1 0xFF PUSH1 0x40 PUSH1 0x0 KECCAK256 SLOAD AND ISZERO ISZERO DUP2 MSTORE RETURN JUMPDEST SWAP2 DUP2 PUSH1 0x1F DUP5 ADD SLT ISZERO PUSH2 0xBF JUMPI DUP3 CALLDATALOAD SWAP2 PUSH8 0xFFFFFFFFFFFFFFFF DUP4 GT PUSH2 0xBF JUMPI PUSH1 0x20 DUP4 DUP2 DUP7 ADD SWAP6 ADD ADD GT PUSH2 0xBF JUMPI JUMP JUMPDEST SWAP2 SWAP1 DUP3 MLOAD SWAP3 DUP4 DUP3 MSTORE PUSH1 0x0 JUMPDEST DUP5 DUP2 LT PUSH2 0xC02 JUMPI POP POP DUP3 PUSH1 0x0 PUSH1 0x20 DUP1 SWAP5 SWAP6 DUP5 ADD ADD MSTORE PUSH1 0x1F DUP1 NOT SWAP2 ADD AND ADD ADD SWAP1 JUMP JUMPDEST PUSH1 0x20 DUP2 DUP4 ADD DUP2 ADD MLOAD DUP5 DUP4 ADD DUP3 ADD MSTORE ADD PUSH2 0xBE1 JUMP JUMPDEST SWAP1 PUSH1 0x1F DUP1 NOT SWAP2 ADD AND DUP2 ADD SWAP1 DUP2 LT PUSH8 0xFFFFFFFFFFFFFFFF DUP3 GT OR PUSH2 0x5DC JUMPI PUSH1 0x40 MSTORE JUMP JUMPDEST SWAP3 SWAP2 SWAP3 PUSH8 0xFFFFFFFFFFFFFFFF DUP3 GT PUSH2 0x5DC JUMPI PUSH1 0x40 MLOAD SWAP2 PUSH2 0xC62 PUSH1 0x1F DUP3 ADD PUSH1 0x1F NOT AND PUSH1 0x20 ADD DUP5 PUSH2 0xC16 JUMP JUMPDEST DUP3 SWAP5 DUP2 DUP5 MSTORE DUP2 DUP4 ADD GT PUSH2 0xBF JUMPI DUP3 DUP2 PUSH1 0x20 SWAP4 DUP5 PUSH1 0x0 SWAP7 ADD CALLDATACOPY ADD ADD MSTORE JUMP JUMPDEST SWAP1 DUP1 PUSH1 0x1F DUP4 ADD SLT ISZERO PUSH2 0xBF JUMPI DUP2 PUSH1 0x20 PUSH2 0xC9A SWAP4 CALLDATALOAD SWAP2 ADD PUSH2 0xC38 JUMP JUMPDEST SWAP1 JUMP JUMPDEST MLOAD SWAP1 DUP2 ISZERO ISZERO DUP3 SUB PUSH2 0xBF JUMPI JUMP JUMPDEST SWAP1 PUSH1 0x1 DUP3 DUP2 SHR SWAP3 AND DUP1 ISZERO PUSH2 0xCDA JUMPI JUMPDEST PUSH1 0x20 DUP4 LT EQ PUSH2 0xCC4 JUMPI JUMP JUMPDEST PUSH4 0x4E487B71 PUSH1 0xE0 SHL PUSH1 0x0 MSTORE PUSH1 0x22 PUSH1 0x4 MSTORE PUSH1 0x24 PUSH1 0x0 REVERT JUMPDEST SWAP2 PUSH1 0x7F AND SWAP2 PUSH2 0xCB9 JUMP JUMPDEST DUP1 SLOAD DUP3 LT ISZERO PUSH2 0xCFC JUMPI PUSH1 0x0 MSTORE PUSH1 0x20 PUSH1 0x0 KECCAK256 ADD SWAP1 PUSH1 0x0 SWAP1 JUMP JUMPDEST PUSH4 0x4E487B71 PUSH1 0xE0 SHL PUSH1 0x0 MSTORE PUSH1 0x32 PUSH1 0x4 MSTORE PUSH1 0x24 PUSH1 0x0 REVERT JUMPDEST PUSH1 0x0 NOT DUP2 EQ PUSH2 0xD21 JUMPI PUSH1 0x1 ADD SWAP1 JUMP JUMPDEST PUSH4 0x4E487B71 PUSH1 0xE0 SHL PUSH1 0x0 MSTORE PUSH1 0x11 PUSH1 0x4 MSTORE PUSH1 0x24 PUSH1 0x0 REVERT JUMPDEST SWAP1 DUP1 PUSH1 0x20 SWAP4 SWAP3 DUP2 DUP5 MSTORE DUP5 DUP5 ADD CALLDATACOPY PUSH1 0x0 DUP3 DUP3 ADD DUP5 ADD MSTORE PUSH1 0x1F ADD PUSH1 0x1F NOT AND ADD ADD SWAP1 JUMP JUMPDEST PUSH8 0xFFFFFFFFFFFFFFFF DUP2 GT PUSH2 0x5DC JUMPI PUSH1 0x5 SHL PUSH1 0x20 ADD SWAP1 JUMP JUMPDEST DUP1 MLOAD ISZERO PUSH2 0xCFC JUMPI PUSH1 0x20 ADD SWAP1 JUMP JUMPDEST DUP1 MLOAD DUP3 LT ISZERO PUSH2 0xCFC JUMPI PUSH1 0x20 SWAP2 PUSH1 0x5 SHL ADD ADD SWAP1 JUMP JUMPDEST SWAP1 DUP2 MLOAD DUP2 LT ISZERO PUSH2 0xCFC JUMPI ADD PUSH1 0x20 ADD SWAP1 JUMP JUMPDEST DUP1 MLOAD SWAP1 DUP3 MLOAD SWAP3 DUP3 ISZERO PUSH2 0x105A JUMPI DUP4 ISZERO PUSH2 0x1053 JUMPI PUSH2 0x118 DUP1 DUP5 GT ISZERO SWAP1 DUP2 PUSH2 0x1048 JUMPI JUMPDEST POP ISZERO PUSH2 0xFF1 JUMPI PUSH1 0x1 SWAP1 DUP2 DUP5 ADD SWAP3 DUP4 DUP6 GT PUSH2 0xD21 JUMPI PUSH2 0xDDF DUP5 PUSH2 0xD58 JUMP JUMPDEST SWAP4 PUSH2 0xE00 PUSH1 0x40 SWAP2 PUSH2 0xDF2 DUP4 MLOAD SWAP8 DUP9 PUSH2 0xC16 JUMP JUMPDEST DUP1 DUP8 MSTORE PUSH1 0x1F NOT SWAP2 DUP3 SWAP2 PUSH2 0xD58 JUMP JUMPDEST ADD PUSH1 0x0 JUMPDEST DUP2 DUP2 LT PUSH2 0xFE0 JUMPI POP POP PUSH1 0x0 SWAP1 DUP6 DUP10 ADD DUP1 DUP11 GT SWAP3 JUMPDEST DUP10 DUP2 GT ISZERO PUSH2 0xF8E JUMPI POP POP POP POP POP PUSH1 0x0 JUMPDEST DUP6 DUP2 GT ISZERO PUSH2 0xF71 JUMPI POP PUSH1 0x0 JUMPDEST DUP7 DUP2 GT ISZERO PUSH2 0xF5A JUMPI POP DUP3 JUMPDEST DUP6 DUP2 GT ISZERO PUSH2 0xE63 JUMPI POP POP POP POP PUSH2 0xE5F SWAP3 SWAP2 PUSH2 0xE59 SWAP2 PUSH2 0xD7D JUMP JUMPDEST MLOAD PUSH2 0xD7D JUMP JUMPDEST MLOAD SWAP1 JUMP JUMPDEST DUP4 JUMPDEST DUP8 DUP2 GT ISZERO PUSH2 0xE7C JUMPI POP PUSH2 0xE77 SWAP1 PUSH2 0xD12 JUMP JUMPDEST PUSH2 0xE3F JUMP JUMPDEST PUSH1 0x0 NOT DUP3 DUP2 ADD SWAP2 SWAP1 DUP4 DUP4 GT PUSH2 0xD21 JUMPI PUSH1 0x1 PUSH1 0x1 PUSH1 0xF8 SHL SUB NOT SWAP1 DUP2 PUSH2 0xEA0 DUP6 DUP9 PUSH2 0xD91 JUMP JUMPDEST MLOAD AND SWAP1 DUP4 ADD SWAP2 DUP4 DUP4 GT PUSH2 0xD21 JUMPI PUSH2 0xEB7 DUP4 DUP10 PUSH2 0xD91 JUMP JUMPDEST MLOAD AND SUB PUSH2 0xF53 JUMPI PUSH1 0x0 SWAP1 JUMPDEST PUSH2 0xED0 DUP4 PUSH2 0xE59 DUP7 DUP13 PUSH2 0xD7D JUMP JUMPDEST MLOAD SWAP1 DUP9 DUP3 ADD DUP1 SWAP3 GT PUSH2 0xD21 JUMPI PUSH2 0xEEA DUP2 PUSH2 0xE59 DUP9 DUP14 PUSH2 0xD7D JUMP JUMPDEST MLOAD SWAP5 DUP10 DUP7 ADD DUP1 SWAP7 GT PUSH2 0xD21 JUMPI PUSH1 0xFF SWAP2 PUSH2 0xE59 PUSH2 0xF06 SWAP3 DUP14 PUSH2 0xD7D JUMP JUMPDEST MLOAD SWAP3 AND DUP3 ADD DUP1 SWAP3 GT PUSH2 0xD21 JUMPI PUSH2 0xF3F SWAP4 DUP1 DUP3 LT ISZERO PUSH2 0xF4B JUMPI POP SWAP1 JUMPDEST DUP1 DUP3 LT ISZERO PUSH2 0xF44 JUMPI POP JUMPDEST PUSH2 0xF39 DUP3 PUSH2 0xE59 DUP7 DUP12 PUSH2 0xD7D JUMP JUMPDEST MSTORE PUSH2 0xD12 JUMP JUMPDEST PUSH2 0xE65 JUMP JUMPDEST SWAP1 POP PUSH2 0xF2B JUMP JUMPDEST SWAP1 POP SWAP1 PUSH2 0xF21 JUMP JUMPDEST DUP7 SWAP1 PUSH2 0xEC2 JUMP JUMPDEST DUP1 DUP1 PUSH2 0xF39 PUSH2 0xF6C SWAP4 PUSH2 0xE59 DUP10 PUSH2 0xD70 JUMP JUMPDEST PUSH2 0xE34 JUMP JUMPDEST DUP1 DUP1 PUSH2 0xF39 PUSH2 0xF83 PUSH2 0xF89 SWAP5 DUP10 PUSH2 0xD7D JUMP JUMPDEST MLOAD PUSH2 0xD70 JUMP JUMPDEST PUSH2 0xE28 JUMP JUMPDEST DUP4 PUSH2 0xD21 JUMPI PUSH2 0xFDB SWAP1 PUSH2 0xFA0 DUP4 PUSH2 0xD58 JUMP JUMPDEST PUSH2 0xFAC DUP8 MLOAD SWAP2 DUP3 PUSH2 0xC16 JUMP JUMPDEST DUP4 DUP2 MSTORE DUP5 PUSH2 0xFB9 DUP6 PUSH2 0xD58 JUMP JUMPDEST ADD CALLDATASIZE PUSH1 0x20 DUP4 ADD CALLDATACOPY PUSH2 0xFCA DUP3 DUP13 PUSH2 0xD7D JUMP JUMPDEST MSTORE PUSH2 0xFD5 DUP2 DUP12 PUSH2 0xD7D JUMP JUMPDEST POP PUSH2 0xD12 JUMP JUMPDEST PUSH2 0xE18 JUMP JUMPDEST DUP1 PUSH1 0x60 PUSH1 0x20 DUP1 SWAP4 DUP12 ADD ADD MSTORE ADD PUSH2 0xE04 JUMP JUMPDEST PUSH1 0x40 MLOAD PUSH3 0x461BCD PUSH1 0xE5 SHL DUP2 MSTORE PUSH1 0x20 PUSH1 0x4 DUP3 ADD MSTORE PUSH1 0x29 PUSH1 0x24 DUP3 ADD MSTORE PUSH32 0x537472696E677320746F6F206C6F6E6720666F72206F6E2D636861696E206361 PUSH1 0x44 DUP3 ADD MSTORE PUSH9 0x3631BAB630BA34B7B7 PUSH1 0xB9 SHL PUSH1 0x64 DUP3 ADD MSTORE PUSH1 0x84 SWAP1 REVERT JUMPDEST SWAP1 POP DUP5 GT ISZERO CODESIZE PUSH2 0xDC2 JUMP JUMPDEST POP POP SWAP1 POP SWAP1 JUMP JUMPDEST POP POP POP SWAP1 JUMP JUMPDEST SWAP1 PUSH1 0x0 SWAP2 DUP1 DUP4 MSTORE PUSH1 0x3 SWAP1 PUSH1 0x20 DUP3 DUP2 MSTORE PUSH1 0x40 SWAP3 DUP4 DUP7 KECCAK256 SWAP4 DUP2 DUP6 ADD DUP1 SLOAD PUSH1 0xFF SWAP4 DUP5 DUP3 AND PUSH2 0x1210 JUMPI PUSH1 0x0 NOT SWAP5 DUP11 DUP1 SWAP10 PUSH1 0x1 SWAP4 DUP3 SWAP4 DUP6 DUP4 ADD SWAP4 DUP5 SLOAD SWAP6 JUMPDEST DUP7 DUP2 LT PUSH2 0x11AB JUMPI JUMPDEST POP POP POP POP POP POP DUP2 PUSH2 0x11A1 JUMPI JUMPDEST POP PUSH2 0x10BE JUMPI JUMPDEST POP POP POP POP POP POP POP SWAP1 POP JUMP JUMPDEST PUSH1 0xFF NOT AND PUSH1 0x1 SWAP1 DUP2 OR SWAP1 SWAP2 SSTORE SLOAD DUP8 SWAP1 PUSH1 0x1 PUSH1 0x1 PUSH1 0xA0 SHL SUB AND DUP1 EXTCODESIZE ISZERO PUSH2 0x119D JUMPI DUP2 SWAP1 PUSH1 0x44 DUP5 MLOAD DUP1 SWAP5 DUP2 SWAP4 PUSH4 0x3536E63 PUSH1 0xE4 SHL DUP4 MSTORE DUP11 PUSH1 0x4 DUP5 ADD MSTORE DUP12 PUSH1 0x24 DUP5 ADD MSTORE GAS CALL DUP1 ISZERO PUSH2 0x1193 JUMPI PUSH2 0x1143 JUMPI JUMPDEST POP PUSH32 0x50D45B923FD79CA96C6CECB390DB4BD5218938F4168BCA1B601C3016F4F01AA8 SWAP4 SWAP5 SWAP6 SWAP7 POP MLOAD SWAP1 DUP2 MSTORE LOG3 DUP1 CODESIZE DUP1 DUP1 DUP1 DUP1 DUP1 DUP1 PUSH2 0x10B3 JUMP JUMPDEST PUSH8 0xFFFFFFFFFFFFFFFF DUP2 GT PUSH2 0x117F JUMPI DUP2 MSTORE SWAP5 SWAP6 POP DUP6 SWAP5 PUSH32 0x50D45B923FD79CA96C6CECB390DB4BD5218938F4168BCA1B601C3016F4F01AA8 PUSH2 0x110A JUMP JUMPDEST PUSH4 0x4E487B71 PUSH1 0xE0 SHL DUP9 MSTORE PUSH1 0x41 PUSH1 0x4 MSTORE PUSH1 0x24 DUP9 REVERT JUMPDEST DUP3 MLOAD RETURNDATASIZE DUP11 DUP3 RETURNDATACOPY RETURNDATASIZE SWAP1 REVERT JUMPDEST POP DUP1 REVERT JUMPDEST SWAP1 POP ISZERO ISZERO CODESIZE PUSH2 0x10AD JUMP JUMPDEST DUP13 DUP6 PUSH2 0x11B7 DUP4 DUP10 PUSH2 0xCE4 JUMP JUMPDEST SWAP1 SLOAD SWAP1 DUP8 SHL SHR SWAP2 DUP3 DUP6 MSTORE MSTORE DUP12 DUP4 KECCAK256 DUP5 PUSH1 0x6 DUP3 ADD SLOAD AND ISZERO PUSH2 0x11FA JUMPI DUP6 ADD SLOAD DUP14 DUP2 LT PUSH2 0x11EC JUMPI JUMPDEST POP POP PUSH2 0x11E7 SWAP1 PUSH2 0xD12 JUMP JUMPDEST PUSH2 0x1099 JUMP JUMPDEST SWAP1 SWAP16 POP SWAP12 POP PUSH2 0x11E7 CODESIZE PUSH2 0x11DC JUMP JUMPDEST POP POP POP SWAP5 SWAP6 POP POP POP POP POP SWAP1 CODESIZE DUP1 DUP1 DUP1 DUP15 DUP2 PUSH2 0x10A1 JUMP JUMPDEST POP POP POP POP POP POP POP POP SWAP1 POP JUMP JUMPDEST SWAP1 PUSH1 0x40 MLOAD SWAP2 DUP3 PUSH1 0x0 DUP3 SLOAD SWAP3 PUSH2 0x1230 DUP5 PUSH2 0xCAA JUMP JUMPDEST SWAP1 DUP2 DUP5 MSTORE PUSH1 0x1 SWAP5 DUP6 DUP2 AND SWAP1 DUP2 PUSH1 0x0 EQ PUSH2 0x129F JUMPI POP PUSH1 0x1 EQ PUSH2 0x125C JUMPI JUMPDEST POP POP PUSH2 0x125A SWAP3 POP SUB DUP4 PUSH2 0xC16 JUMP JUMPDEST JUMP JUMPDEST SWAP1 SWAP4 SWAP2 POP PUSH1 0x0 MSTORE PUSH1 0x20 SWAP1 DUP2 PUSH1 0x0 KECCAK256 SWAP4 PUSH1 0x0 SWAP2 JUMPDEST DUP2 DUP4 LT PUSH2 0x1287 JUMPI POP POP PUSH2 0x125A SWAP4 POP DUP3 ADD ADD CODESIZE DUP1 PUSH2 0x124C JUMP JUMPDEST DUP6 SLOAD DUP9 DUP5 ADD DUP6 ADD MSTORE SWAP5 DUP6 ADD SWAP5 DUP8 SWAP5 POP SWAP2 DUP4 ADD SWAP2 PUSH2 0x126F JUMP JUMPDEST SWAP2 POP POP PUSH2 0x125A SWAP5 POP PUSH1 0x20 SWAP3 POP PUSH1 0xFF NOT AND DUP3 DUP5 ADD MSTORE ISZERO ISZERO PUSH1 0x5 SHL DUP3 ADD ADD CODESIZE DUP1 PUSH2 0x124C JUMP INVALID LOG2 PUSH5 0x6970667358 0x22 SLT KECCAK256 PUSH2 0xE79A 0xDF 0xAC 0xEB DUP9 0xE0 PC NUMBER NOT ADDMOD 0xC1 0xB2 0xC1 0x4B EQ 0xE7 DUP9 0x49 PUSH18 0x9717FAE6905DE8CC0BFA0D64736F6C634300 ADDMOD EQ STOP CALLER "},"methodIdentifiers":{"CONSENSUS_THRESHOLD()":"bca125f0","MIN_VALIDATORS()":"5ed1f963","calculateLevenshteinDistance(string,string)":"df6091a3","getOracleData(bytes32,bytes32)":"d33e9966","hasOracleValidated(bytes32,bytes32,address)":"50446911","marketOracles(bytes32)":"e5a5064b","nodeRegistry()":"d9b5c4a5","predictionMarket()":"def114b6","submitOracleData(bytes32,bytes32,string,string,string)":"cef45eb8"}}}}}