{"contracts/src/SecurityAudit.sol":{"SecurityAudit":{"abi":[{"inputs":[],"stateMutability":"nonpayable","type":"constructor"},{"inputs":[],"name":"AccessControlBadConfirmation","type":"error"},{"inputs":[{"internalType":"address","name":"account","type":"address"},{"internalType":"bytes32","name":"neededRole","type":"bytes32"}],"name":"AccessControlUnauthorizedAccount","type":"error"},{"inputs":[],"name":"EnforcedPause","type":"error"},{"inputs":[],"name":"ExpectedPause","type":"error"},{"inputs":[],"name":"ReentrancyGuardReentrantCall","type":"error"},{"anonymous":false,"inputs":[{"indexed":true,"internalType":"address","name":"activator","type":"address"},{"indexed":false,"internalType":"string","name":"reason","type":"string"}],"name":"EmergencyModeActivated","type":"event"},{"anonymous":false,"inputs":[{"indexed":true,"internalType":"address","name":"deactivator","type":"address"}],"name":"EmergencyModeDeactivated","type":"event"},{"anonymous":false,"inputs":[{"indexed":false,"internalType":"address","name":"account","type":"address"}],"name":"Paused","type":"event"},{"anonymous":false,"inputs":[{"indexed":true,"internalType":"bytes32","name":"role","type":"bytes32"},{"indexed":true,"internalType":"bytes32","name":"previousAdminRole","type":"bytes32"},{"indexed":true,"internalType":"bytes32","name":"newAdminRole","type":"bytes32"}],"name":"RoleAdminChanged","type":"event"},{"anonymous":false,"inputs":[{"indexed":true,"internalType":"bytes32","name":"role","type":"bytes32"},{"indexed":true,"internalType":"address","name":"account","type":"address"},{"indexed":true,"internalType":"address","name":"sender","type":"address"}],"name":"RoleGranted","type":"event"},{"anonymous":false,"inputs":[{"indexed":true,"internalType":"bytes32","name":"role","type":"bytes32"},{"indexed":true,"internalType":"address","name":"account","type":"address"},{"indexed":true,"internalType":"address","name":"sender","type":"address"}],"name":"RoleRevoked","type":"event"},{"anonymous":false,"inputs":[{"indexed":false,"internalType":"string","name":"alertType","type":"string"},{"indexed":true,"internalType":"address","name":"user","type":"address"},{"indexed":false,"internalType":"uint256","name":"value","type":"uint256"}],"name":"SecurityAlert","type":"event"},{"anonymous":false,"inputs":[{"indexed":false,"internalType":"string","name":"thresholdType","type":"string"},{"indexed":false,"internalType":"uint256","name":"oldValue","type":"uint256"},{"indexed":false,"internalType":"uint256","name":"newValue","type":"uint256"}],"name":"SecurityThresholdUpdated","type":"event"},{"anonymous":false,"inputs":[{"indexed":false,"internalType":"address","name":"account","type":"address"}],"name":"Unpaused","type":"event"},{"anonymous":false,"inputs":[{"indexed":true,"internalType":"address","name":"user","type":"address"},{"indexed":false,"internalType":"string","name":"reason","type":"string"}],"name":"UserBlacklisted","type":"event"},{"anonymous":false,"inputs":[{"indexed":true,"internalType":"address","name":"user","type":"address"}],"name":"UserWhitelisted","type":"event"},{"inputs":[],"name":"DEFAULT_ADMIN_ROLE","outputs":[{"internalType":"bytes32","name":"","type":"bytes32"}],"stateMutability":"view","type":"function"},{"inputs":[],"name":"EMERGENCY_ROLE","outputs":[{"internalType":"bytes32","name":"","type":"bytes32"}],"stateMutability":"view","type":"function"},{"inputs":[],"name":"SECURITY_ADMIN_ROLE","outputs":[{"internalType":"bytes32","name":"","type":"bytes32"}],"stateMutability":"view","type":"function"},{"inputs":[{"internalType":"string","name":"reason","type":"string"}],"name":"activateEmergencyMode","outputs":[],"stateMutability":"nonpayable","type":"function"},{"inputs":[{"internalType":"address","name":"user","type":"address"},{"internalType":"string","name":"reason","type":"string"}],"name":"blacklistUser","outputs":[],"stateMutability":"nonpayable","type":"function"},{"inputs":[{"internalType":"address","name":"","type":"address"}],"name":"blacklisted","outputs":[{"internalType":"bool","name":"","type":"bool"}],"stateMutability":"view","type":"function"},{"inputs":[{"internalType":"address","name":"user","type":"address"},{"internalType":"uint256","name":"value","type":"uint256"}],"name":"checkTransactionSecurity","outputs":[{"internalType":"bool","name":"","type":"bool"}],"stateMutability":"nonpayable","type":"function"},{"inputs":[],"name":"dailyWithdrawLimit","outputs":[{"internalType":"uint256","name":"","type":"uint256"}],"stateMutability":"view","type":"function"},{"inputs":[{"internalType":"address","name":"","type":"address"}],"name":"dailyWithdrawn","outputs":[{"internalType":"uint256","name":"","type":"uint256"}],"stateMutability":"view","type":"function"},{"inputs":[],"name":"deactivateEmergencyMode","outputs":[],"stateMutability":"nonpayable","type":"function"},{"inputs":[],"name":"emergencyMode","outputs":[{"internalType":"bool","name":"","type":"bool"}],"stateMutability":"view","type":"function"},{"inputs":[],"name":"emergencyWithdraw","outputs":[],"stateMutability":"nonpayable","type":"function"},{"inputs":[],"name":"emergencyWithdrawAddress","outputs":[{"internalType":"address","name":"","type":"address"}],"stateMutability":"view","type":"function"},{"inputs":[{"internalType":"bytes32","name":"role","type":"bytes32"}],"name":"getRoleAdmin","outputs":[{"internalType":"bytes32","name":"","type":"bytes32"}],"stateMutability":"view","type":"function"},{"inputs":[{"internalType":"address","name":"user","type":"address"}],"name":"getUserSecurityStatus","outputs":[{"internalType":"bool","name":"isBlacklisted","type":"bool"},{"internalType":"uint256","name":"dailyWithdrawAmount","type":"uint256"},{"internalType":"uint256","name":"transactionCountToday","type":"uint256"},{"internalType":"uint256","name":"lastAction","type":"uint256"}],"stateMutability":"view","type":"function"},{"inputs":[{"internalType":"bytes32","name":"role","type":"bytes32"},{"internalType":"address","name":"account","type":"address"}],"name":"grantRole","outputs":[],"stateMutability":"nonpayable","type":"function"},{"inputs":[{"internalType":"bytes32","name":"role","type":"bytes32"},{"internalType":"address","name":"account","type":"address"}],"name":"hasRole","outputs":[{"internalType":"bool","name":"","type":"bool"}],"stateMutability":"view","type":"function"},{"inputs":[{"internalType":"address","name":"user","type":"address"}],"name":"isUserAllowed","outputs":[{"internalType":"bool","name":"","type":"bool"}],"stateMutability":"view","type":"function"},{"inputs":[{"internalType":"address","name":"","type":"address"}],"name":"lastActionTime","outputs":[{"internalType":"uint256","name":"","type":"uint256"}],"stateMutability":"view","type":"function"},{"inputs":[],"name":"maxTransactionValue","outputs":[{"internalType":"uint256","name":"","type":"uint256"}],"stateMutability":"view","type":"function"},{"inputs":[],"name":"pause","outputs":[],"stateMutability":"nonpayable","type":"function"},{"inputs":[],"name":"paused","outputs":[{"internalType":"bool","name":"","type":"bool"}],"stateMutability":"view","type":"function"},{"inputs":[{"internalType":"bytes32","name":"role","type":"bytes32"},{"internalType":"address","name":"callerConfirmation","type":"address"}],"name":"renounceRole","outputs":[],"stateMutability":"nonpayable","type":"function"},{"inputs":[{"internalType":"bytes32","name":"role","type":"bytes32"},{"internalType":"address","name":"account","type":"address"}],"name":"revokeRole","outputs":[],"stateMutability":"nonpayable","type":"function"},{"inputs":[{"internalType":"bytes4","name":"interfaceId","type":"bytes4"}],"name":"supportsInterface","outputs":[{"internalType":"bool","name":"","type":"bool"}],"stateMutability":"view","type":"function"},{"inputs":[],"name":"suspiciousActivityThreshold","outputs":[{"internalType":"uint256","name":"","type":"uint256"}],"stateMutability":"view","type":"function"},{"inputs":[{"internalType":"address","name":"","type":"address"}],"name":"transactionCount","outputs":[{"internalType":"uint256","name":"","type":"uint256"}],"stateMutability":"view","type":"function"},{"inputs":[],"name":"unpause","outputs":[],"stateMutability":"nonpayable","type":"function"},{"inputs":[{"internalType":"uint256","name":"newValue","type":"uint256"}],"name":"updateDailyWithdrawLimit","outputs":[],"stateMutability":"nonpayable","type":"function"},{"inputs":[{"internalType":"uint256","name":"newValue","type":"uint256"}],"name":"updateMaxTransactionValue","outputs":[],"stateMutability":"nonpayable","type":"function"},{"inputs":[{"internalType":"uint256","name":"newValue","type":"uint256"}],"name":"updateSuspiciousActivityThreshold","outputs":[],"stateMutability":"nonpayable","type":"function"},{"inputs":[{"internalType":"address","name":"user","type":"address"}],"name":"whitelistUser","outputs":[],"stateMutability":"nonpayable","type":"function"}],"evm":{"bytecode":{"linkReferences":{},"object":"60806040523461008557600160025568056bc75e2d63100000600355683635c9adc5dea00000600455603260055560ff19600a5416600a556100403361008a565b5061004a33610109565b50610054336101aa565b50600a8054610100600160a81b0319163360081b610100600160a81b031617905560405161121c9081620002478239f35b600080fd5b6001600160a01b031660008181527fad3228b676f7d3cd4284a5443f17f1962b36e491b30a40b2405849e597ba5fb5602052604081205490919060ff1661010557818052816020526040822081835260205260408220600160ff198254161790553391600080516020620014638339815191528180a4600190565b5090565b6001600160a01b031660008181527faf98f812aff7afa65a38f385cbfe2372f92503364ec36993ce9a374828fff18b60205260408120549091907ff6e67e455c1170019df813a9dcb568f910c16426a5a6faffb00d325d6f118b679060ff166101a557808352826020526040832082845260205260408320600160ff1982541617905560008051602062001463833981519152339380a4600190565b505090565b6001600160a01b031660008181527f3c1b1854ab1360abbb06c8d4c6b2672d4b8cedc5eff522ab19e51d5cb8fdbd4660205260408120549091907fbf233dd2aafeb4d50879c4aa5c81e96d92f6e6945c906a58f9f2d1c1631b4b269060ff166101a557808352826020526040832082845260205260408320600160ff1982541617905560008051602062001463833981519152339380a460019056fe608060408181526004918236101561001657600080fd5b600092833560e01c91826301ffc9a714610bb957508163072861d314610b815781630905f56014610b5d578163123da59114610add57816320df435914610aa2578163248a9ca314610a7857816327f0bfd614610a405781632cbb9631146109c95781632ee72e181461099c5781632f2ff15d1461097257816336568abe1461092c5781633f4ba83a146108c25781634a4c560d146108515781634d0970c6146107bb5781635175cef51461075857816356091d89146106dd5781635c975abb146106b95781637afa85e81461067e5781638456cb591461061257816391d14854146105cc57816399b20eaf1461053457816399be3375146104fc578163a217fddf146104e1578163a52ba4e81461047a578163a948ce651461045b578163aa91be951461043c578163ace687eb1461041e578163bc8bc153146103c6578163c124a247146102f6578163d547741f146102b7578163db2e21bc146101c5575063dbac26e91461018557600080fd5b346101c15760203660031901126101c15760209160ff9082906001600160a01b036101ae610c0c565b1681526009855220541690519015158152f35b5080fd5b919050346102b357826003193601126102b3576101e0610d4c565b600a5460ff811615610278578390819081908190479060081c6001600160a01b03165af13d15610273573d61021c61021782610c79565b610c3d565b9081528460203d92013e5b15610230578280f35b906020606492519162461bcd60e51b8352820152601960248201527f456d657267656e6379207769746864726177206661696c6564000000000000006044820152fd5b610227565b815162461bcd60e51b815260208185015260156024820152744e6f7420696e20656d657267656e6379206d6f646560581b6044820152606490fd5b8280fd5b919050346102b357806003193601126102b3576102f291356102ed60016102dc610c27565b938387528660205286200154610da8565b610e4c565b5080f35b919050346102b35760203660031901126102b357813567ffffffffffffffff81116103c2576103289036908401610c95565b91610331610d4c565b60ff1990600182600a541617600a556001549060ff82166103b457507fa8bfc00a82dac609a5575e0d4bf2d4f2284be6d96c469bef935e1f8319277f4b929160019116176001557f62e78cea01bee320cd4e420270b5ea74000d11b0c9f74754ebdbfc544b05a25860208251338152a151806103ae33948261119d565b0390a280f35b835163d93c066560e01b8152fd5b8380fd5b82843461041b578160031936011261041b57506103e1610c0c565b91600280541461040d57506103ff6020926002805560243590610ee4565b906001600255519015158152f35b9051633ee5aeb560e01b8152fd5b80fd5b9050346102b357826003193601126102b35760209250549051908152f35b5050346101c157816003193601126101c1576020906003549051908152f35b5050346101c157816003193601126101c1576020906005549051908152f35b5050346101c15760203660031901126101c15760209160ff9082906001600160a01b036104a5610c0c565b168152600985522054161590816104d3575b816104c5575b519015158152f35b600a5460ff161591506104bd565b60015460ff161591506104b7565b5050346101c157816003193601126101c15751908152602090f35b5050346101c15760203660031901126101c15760209181906001600160a01b03610524610c0c565b1681526008845220549051908152f35b9050346102b357826003193601126102b35761054e610cd2565b60ff199081600a5416600a556001549060ff8216156105be575016600155513381527f5db9ee0a495bf2e6ff9c91a7834c1ba4fdd244a5e8aa4e537bd38aeae4b073aa90602090a1337fbd95437b04432c9bbcf6d10c00e0e1cdc482151ffe5da10870858d456ee9fc238280a280f35b8351638dfc202b60e01b8152fd5b9050346102b357816003193601126102b3578160209360ff926105ed610c27565b903582528186528282206001600160a01b039091168252855220549151911615158152f35b9050346102b357826003193601126102b35761062c610cd2565b6001549060ff821661067057507f62e78cea01bee320cd4e420270b5ea74000d11b0c9f74754ebdbfc544b05a25891600160209260ff19161760015551338152a180f35b825163d93c066560e01b8152fd5b5050346101c157816003193601126101c157602090517ff6e67e455c1170019df813a9dcb568f910c16426a5a6faffb00d325d6f118b678152f35b5050346101c157816003193601126101c15760209060ff6001541690519015158152f35b9050346102b35760203660031901126102b3577f180243f61b8276dd82dc334417bdca6b213cd59de8769746737b5ee09536862c9160a0913561071e610cd2565b600354918160035580519260608452600f60608501526e26a0ac2faa2920a729a0a1aa24a7a760891b60808501526020840152820152a180f35b5050346101c1576020806003193601126102b3576080926001600160a01b0361077f610c0c565b1681526009825260ff83822054169260078352808220546008845281808420549360068652205493825195151586528501528301526060820152f35b9050346102b357816003193601126102b3576107d5610c0c565b906024359167ffffffffffffffff831161084d5761081a6103ae927fcc1cf21b75158e751a071cc4770b92cde8bb2bc34f9187eedd0592b874a5566994369101610c95565b90610823610cd2565b6001600160a01b03168086526009602052848620805460ff1916600117905593519182918261119d565b8480fd5b5050346101c15760203660031901126101c1578161086d610c0c565b610875610cd2565b6001600160a01b031680825260096020908152838320805460ff1916905560089052918120557f7409cb8e690bcd1487fd4fd27dad3fa92388d201ba6f953631d6d6b26299f8498280a280f35b9050346102b357826003193601126102b3576108dc610cd2565b6001549060ff82161561091e575060ff1916600155513381527f5db9ee0a495bf2e6ff9c91a7834c1ba4fdd244a5e8aa4e537bd38aeae4b073aa90602090a180f35b8251638dfc202b60e01b8152fd5b8383346101c157806003193601126101c157610946610c27565b90336001600160a01b0383160361096357506102f2919235610e4c565b5163334bd91960e11b81528390fd5b919050346102b357806003193601126102b3576102f2913561099760016102dc610c27565b610dce565b5050346101c157816003193601126101c157600a54905160089190911c6001600160a01b03168152602090f35b919050346102b35760203660031901126102b3578160a0917f180243f61b8276dd82dc334417bdca6b213cd59de8769746737b5ee09536862c933590610a0d610cd2565b818354935580519260608452600b60608501526a111052531657d31253525560aa1b60808501526020840152820152a180f35b5050346101c15760203660031901126101c15760209181906001600160a01b03610a68610c0c565b1681526006845220549051908152f35b9050346102b35760203660031901126102b357816020936001923581528085522001549051908152f35b5050346101c157816003193601126101c157602090517fbf233dd2aafeb4d50879c4aa5c81e96d92f6e6945c906a58f9f2d1c1631b4b268152f35b9050346102b35760203660031901126102b3577f180243f61b8276dd82dc334417bdca6b213cd59de8769746737b5ee09536862c9160a09135610b1e610cd2565b600554918160055580519260608452601460608501527314d554d41250d253d554d7d512149154d213d31160621b60808501526020840152820152a180f35b5050346101c157816003193601126101c15760209060ff600a541690519015158152f35b5050346101c15760203660031901126101c15760209181906001600160a01b03610ba9610c0c565b1681526007845220549051908152f35b8491346102b35760203660031901126102b3573563ffffffff60e01b81168091036102b35760209250637965db0b60e01b8114908115610bfb575b5015158152f35b6301ffc9a760e01b14905083610bf4565b600435906001600160a01b0382168203610c2257565b600080fd5b602435906001600160a01b0382168203610c2257565b6040519190601f01601f1916820167ffffffffffffffff811183821017610c6357604052565b634e487b7160e01b600052604160045260246000fd5b67ffffffffffffffff8111610c6357601f01601f191660200190565b81601f82011215610c2257803590610caf61021783610c79565b9282845260208383010111610c2257816000926020809301838601378301015290565b3360009081527faf98f812aff7afa65a38f385cbfe2372f92503364ec36993ce9a374828fff18b60205260409020547ff6e67e455c1170019df813a9dcb568f910c16426a5a6faffb00d325d6f118b679060ff1615610d2e5750565b6044906040519063e2517d3f60e01b82523360048301526024820152fd5b3360009081527f3c1b1854ab1360abbb06c8d4c6b2672d4b8cedc5eff522ab19e51d5cb8fdbd4660205260409020547fbf233dd2aafeb4d50879c4aa5c81e96d92f6e6945c906a58f9f2d1c1631b4b269060ff1615610d2e5750565b80600052600060205260406000203360005260205260ff6040600020541615610d2e5750565b9060009180835282602052604083209160018060a01b03169182845260205260ff60408420541615600014610e4757808352826020526040832082845260205260408320600160ff198254161790557f2f8788117e7eff1d82e926ec794901d17c78024a50270940304540a733656f0d339380a4600190565b505090565b9060009180835282602052604083209160018060a01b03169182845260205260ff604084205416600014610e475780835282602052604083208284526020526040832060ff1981541690557ff6391f5c32d9c69d2a47ea670b442974b53935d1edc7fd64eb21e047a839171b339380a4600190565b91908201809211610ece57565b634e487b7160e01b600052601160045260246000fd5b6001600160a01b031660008181526009602090815260408083205490939060ff166111635760ff6001541661112a5760ff600a54166110ee5760035485116110965780835260068252620151808085852054049042041161107f575b60078252610f518585852054610ec1565b6004541061102957808352600882528383208054600019811461101557600101905580835260088252838320546005548111610fab575050906007826006610fa495945242848420555220918254610ec1565b9055600190565b60099395507f6ac6f29cb533706676e94ff2d30d8f95dd3e0c525a0e07e44c1f7762360b48946080839287519088825260138983015272535553504943494f55535f414354495649545960681b606083015286820152a28452528120805460ff1916600117905590565b634e487b7160e01b85526011600452602485fd5b927f6ac6f29cb533706676e94ff2d30d8f95dd3e0c525a0e07e44c1f7762360b48949294608092601483519380855284015273111052531657d31253525517d15610d15151115160621b6060840152820152a290565b600782528284812055600882528284812055610f40565b927f6ac6f29cb533706676e94ff2d30d8f95dd3e0c525a0e07e44c1f7762360b489492946080926016835193808552840152752424a3a42fab20a62aa2afaa2920a729a0a1aa24a7a760511b6060840152820152a290565b835162461bcd60e51b8152600481018390526015602482015274456d657267656e6379206d6f64652061637469766560581b6044820152606490fd5b835162461bcd60e51b815260048101839052601260248201527110dbdb9d1c9858dd081a5cc81c185d5cd95960721b6044820152606490fd5b835162461bcd60e51b8152600481018390526013602482015272155cd95c881a5cc8189b1858dadb1a5cdd1959606a1b6044820152606490fd5b6020808252825181830181905290939260005b8281106111d257505060409293506000838284010152601f8019910116010190565b8181018601518482016040015285016111b056fea26469706673582212207f108c8c9ff7e92b2ed34e0ce20f8ffc824246328dc37f4f829840faef05cfa664736f6c634300081400332f8788117e7eff1d82e926ec794901d17c78024a50270940304540a733656f0d","opcodes":"PUSH1 0x80 PUSH1 0x40 MSTORE CALLVALUE PUSH2 0x85 JUMPI PUSH1 0x1 PUSH1 0x2 SSTORE PUSH9 0x56BC75E2D63100000 PUSH1 0x3 SSTORE PUSH9 0x3635C9ADC5DEA00000 PUSH1 0x4 SSTORE PUSH1 0x32 PUSH1 0x5 SSTORE PUSH1 0xFF NOT PUSH1 0xA SLOAD AND PUSH1 0xA SSTORE PUSH2 0x40 CALLER PUSH2 0x8A JUMP JUMPDEST POP PUSH2 0x4A CALLER PUSH2 0x109 JUMP JUMPDEST POP PUSH2 0x54 CALLER PUSH2 0x1AA JUMP JUMPDEST POP PUSH1 0xA DUP1 SLOAD PUSH2 0x100 PUSH1 0x1 PUSH1 0xA8 SHL SUB NOT AND CALLER PUSH1 0x8 SHL PUSH2 0x100 PUSH1 0x1 PUSH1 0xA8 SHL SUB AND OR SWAP1 SSTORE PUSH1 0x40 MLOAD PUSH2 0x121C SWAP1 DUP2 PUSH3 0x247 DUP3 CODECOPY RETURN JUMPDEST PUSH1 0x0 DUP1 REVERT JUMPDEST PUSH1 0x1 PUSH1 0x1 PUSH1 0xA0 SHL SUB AND PUSH1 0x0 DUP2 DUP2 MSTORE PUSH32 0xAD3228B676F7D3CD4284A5443F17F1962B36E491B30A40B2405849E597BA5FB5 PUSH1 0x20 MSTORE PUSH1 0x40 DUP2 KECCAK256 SLOAD SWAP1 SWAP2 SWAP1 PUSH1 0xFF AND PUSH2 0x105 JUMPI DUP2 DUP1 MSTORE DUP2 PUSH1 0x20 MSTORE PUSH1 0x40 DUP3 KECCAK256 DUP2 DUP4 MSTORE PUSH1 0x20 MSTORE PUSH1 0x40 DUP3 KECCAK256 PUSH1 0x1 PUSH1 0xFF NOT DUP3 SLOAD AND OR SWAP1 SSTORE CALLER SWAP2 PUSH1 0x0 DUP1 MLOAD PUSH1 0x20 PUSH3 0x1463 DUP4 CODECOPY DUP2 MLOAD SWAP2 MSTORE DUP2 DUP1 LOG4 PUSH1 0x1 SWAP1 JUMP JUMPDEST POP SWAP1 JUMP JUMPDEST PUSH1 0x1 PUSH1 0x1 PUSH1 0xA0 SHL SUB AND PUSH1 0x0 DUP2 DUP2 MSTORE PUSH32 0xAF98F812AFF7AFA65A38F385CBFE2372F92503364EC36993CE9A374828FFF18B PUSH1 0x20 MSTORE PUSH1 0x40 DUP2 KECCAK256 SLOAD SWAP1 SWAP2 SWAP1 PUSH32 0xF6E67E455C1170019DF813A9DCB568F910C16426A5A6FAFFB00D325D6F118B67 SWAP1 PUSH1 0xFF AND PUSH2 0x1A5 JUMPI DUP1 DUP4 MSTORE DUP3 PUSH1 0x20 MSTORE PUSH1 0x40 DUP4 KECCAK256 DUP3 DUP5 MSTORE PUSH1 0x20 MSTORE PUSH1 0x40 DUP4 KECCAK256 PUSH1 0x1 PUSH1 0xFF NOT DUP3 SLOAD AND OR SWAP1 SSTORE PUSH1 0x0 DUP1 MLOAD PUSH1 0x20 PUSH3 0x1463 DUP4 CODECOPY DUP2 MLOAD SWAP2 MSTORE CALLER SWAP4 DUP1 LOG4 PUSH1 0x1 SWAP1 JUMP JUMPDEST POP POP SWAP1 JUMP JUMPDEST PUSH1 0x1 PUSH1 0x1 PUSH1 0xA0 SHL SUB AND PUSH1 0x0 DUP2 DUP2 MSTORE PUSH32 0x3C1B1854AB1360ABBB06C8D4C6B2672D4B8CEDC5EFF522AB19E51D5CB8FDBD46 PUSH1 0x20 MSTORE PUSH1 0x40 DUP2 KECCAK256 SLOAD SWAP1 SWAP2 SWAP1 PUSH32 0xBF233DD2AAFEB4D50879C4AA5C81E96D92F6E6945C906A58F9F2D1C1631B4B26 SWAP1 PUSH1 0xFF AND PUSH2 0x1A5 JUMPI DUP1 DUP4 MSTORE DUP3 PUSH1 0x20 MSTORE PUSH1 0x40 DUP4 KECCAK256 DUP3 DUP5 MSTORE PUSH1 0x20 MSTORE PUSH1 0x40 DUP4 KECCAK256 PUSH1 0x1 PUSH1 0xFF NOT DUP3 SLOAD AND OR SWAP1 SSTORE PUSH1 0x0 DUP1 MLOAD PUSH1 0x20 PUSH3 0x1463 DUP4 CODECOPY DUP2 MLOAD SWAP2 MSTORE CALLER SWAP4 DUP1 LOG4 PUSH1 0x1 SWAP1 JUMP INVALID PUSH1 0x80 PUSH1 0x40 DUP2 DUP2 MSTORE PUSH1 0x4 SWAP2 DUP3 CALLDATASIZE LT ISZERO PUSH2 0x16 JUMPI PUSH1 0x0 DUP1 REVERT JUMPDEST PUSH1 0x0 SWAP3 DUP4 CALLDATALOAD PUSH1 0xE0 SHR SWAP2 DUP3 PUSH4 0x1FFC9A7 EQ PUSH2 0xBB9 JUMPI POP DUP2 PUSH4 0x72861D3 EQ PUSH2 0xB81 JUMPI DUP2 PUSH4 0x905F560 EQ PUSH2 0xB5D JUMPI DUP2 PUSH4 0x123DA591 EQ PUSH2 0xADD JUMPI DUP2 PUSH4 0x20DF4359 EQ PUSH2 0xAA2 JUMPI DUP2 PUSH4 0x248A9CA3 EQ PUSH2 0xA78 JUMPI DUP2 PUSH4 0x27F0BFD6 EQ PUSH2 0xA40 JUMPI DUP2 PUSH4 0x2CBB9631 EQ PUSH2 0x9C9 JUMPI DUP2 PUSH4 0x2EE72E18 EQ PUSH2 0x99C JUMPI DUP2 PUSH4 0x2F2FF15D EQ PUSH2 0x972 JUMPI DUP2 PUSH4 0x36568ABE EQ PUSH2 0x92C JUMPI DUP2 PUSH4 0x3F4BA83A EQ PUSH2 0x8C2 JUMPI DUP2 PUSH4 0x4A4C560D EQ PUSH2 0x851 JUMPI DUP2 PUSH4 0x4D0970C6 EQ PUSH2 0x7BB JUMPI DUP2 PUSH4 0x5175CEF5 EQ PUSH2 0x758 JUMPI DUP2 PUSH4 0x56091D89 EQ PUSH2 0x6DD JUMPI DUP2 PUSH4 0x5C975ABB EQ PUSH2 0x6B9 JUMPI DUP2 PUSH4 0x7AFA85E8 EQ PUSH2 0x67E JUMPI DUP2 PUSH4 0x8456CB59 EQ PUSH2 0x612 JUMPI DUP2 PUSH4 0x91D14854 EQ PUSH2 0x5CC JUMPI DUP2 PUSH4 0x99B20EAF EQ PUSH2 0x534 JUMPI DUP2 PUSH4 0x99BE3375 EQ PUSH2 0x4FC JUMPI DUP2 PUSH4 0xA217FDDF EQ PUSH2 0x4E1 JUMPI DUP2 PUSH4 0xA52BA4E8 EQ PUSH2 0x47A JUMPI DUP2 PUSH4 0xA948CE65 EQ PUSH2 0x45B JUMPI DUP2 PUSH4 0xAA91BE95 EQ PUSH2 0x43C JUMPI DUP2 PUSH4 0xACE687EB EQ PUSH2 0x41E JUMPI DUP2 PUSH4 0xBC8BC153 EQ PUSH2 0x3C6 JUMPI DUP2 PUSH4 0xC124A247 EQ PUSH2 0x2F6 JUMPI DUP2 PUSH4 0xD547741F EQ PUSH2 0x2B7 JUMPI DUP2 PUSH4 0xDB2E21BC EQ PUSH2 0x1C5 JUMPI POP PUSH4 0xDBAC26E9 EQ PUSH2 0x185 JUMPI PUSH1 0x0 DUP1 REVERT JUMPDEST CALLVALUE PUSH2 0x1C1 JUMPI PUSH1 0x20 CALLDATASIZE PUSH1 0x3 NOT ADD SLT PUSH2 0x1C1 JUMPI PUSH1 0x20 SWAP2 PUSH1 0xFF SWAP1 DUP3 SWAP1 PUSH1 0x1 PUSH1 0x1 PUSH1 0xA0 SHL SUB PUSH2 0x1AE PUSH2 0xC0C JUMP JUMPDEST AND DUP2 MSTORE PUSH1 0x9 DUP6 MSTORE KECCAK256 SLOAD AND SWAP1 MLOAD SWAP1 ISZERO ISZERO DUP2 MSTORE RETURN JUMPDEST POP DUP1 REVERT JUMPDEST SWAP2 SWAP1 POP CALLVALUE PUSH2 0x2B3 JUMPI DUP3 PUSH1 0x3 NOT CALLDATASIZE ADD SLT PUSH2 0x2B3 JUMPI PUSH2 0x1E0 PUSH2 0xD4C JUMP JUMPDEST PUSH1 0xA SLOAD PUSH1 0xFF DUP2 AND ISZERO PUSH2 0x278 JUMPI DUP4 SWAP1 DUP2 SWAP1 DUP2 SWAP1 DUP2 SWAP1 SELFBALANCE SWAP1 PUSH1 0x8 SHR PUSH1 0x1 PUSH1 0x1 PUSH1 0xA0 SHL SUB AND GAS CALL RETURNDATASIZE ISZERO PUSH2 0x273 JUMPI RETURNDATASIZE PUSH2 0x21C PUSH2 0x217 DUP3 PUSH2 0xC79 JUMP JUMPDEST PUSH2 0xC3D JUMP JUMPDEST SWAP1 DUP2 MSTORE DUP5 PUSH1 0x20 RETURNDATASIZE SWAP3 ADD RETURNDATACOPY JUMPDEST ISZERO PUSH2 0x230 JUMPI DUP3 DUP1 RETURN JUMPDEST SWAP1 PUSH1 0x20 PUSH1 0x64 SWAP3 MLOAD SWAP2 PUSH3 0x461BCD PUSH1 0xE5 SHL DUP4 MSTORE DUP3 ADD MSTORE PUSH1 0x19 PUSH1 0x24 DUP3 ADD MSTORE PUSH32 0x456D657267656E6379207769746864726177206661696C656400000000000000 PUSH1 0x44 DUP3 ADD MSTORE REVERT JUMPDEST PUSH2 0x227 JUMP JUMPDEST DUP2 MLOAD PUSH3 0x461BCD PUSH1 0xE5 SHL DUP2 MSTORE PUSH1 0x20 DUP2 DUP6 ADD MSTORE PUSH1 0x15 PUSH1 0x24 DUP3 ADD MSTORE PUSH21 0x4E6F7420696E20656D657267656E6379206D6F6465 PUSH1 0x58 SHL PUSH1 0x44 DUP3 ADD MSTORE PUSH1 0x64 SWAP1 REVERT JUMPDEST DUP3 DUP1 REVERT JUMPDEST SWAP2 SWAP1 POP CALLVALUE PUSH2 0x2B3 JUMPI DUP1 PUSH1 0x3 NOT CALLDATASIZE ADD SLT PUSH2 0x2B3 JUMPI PUSH2 0x2F2 SWAP2 CALLDATALOAD PUSH2 0x2ED PUSH1 0x1 PUSH2 0x2DC PUSH2 0xC27 JUMP JUMPDEST SWAP4 DUP4 DUP8 MSTORE DUP7 PUSH1 0x20 MSTORE DUP7 KECCAK256 ADD SLOAD PUSH2 0xDA8 JUMP JUMPDEST PUSH2 0xE4C JUMP JUMPDEST POP DUP1 RETURN JUMPDEST SWAP2 SWAP1 POP CALLVALUE PUSH2 0x2B3 JUMPI PUSH1 0x20 CALLDATASIZE PUSH1 0x3 NOT ADD SLT PUSH2 0x2B3 JUMPI DUP2 CALLDATALOAD PUSH8 0xFFFFFFFFFFFFFFFF DUP2 GT PUSH2 0x3C2 JUMPI PUSH2 0x328 SWAP1 CALLDATASIZE SWAP1 DUP5 ADD PUSH2 0xC95 JUMP JUMPDEST SWAP2 PUSH2 0x331 PUSH2 0xD4C JUMP JUMPDEST PUSH1 0xFF NOT SWAP1 PUSH1 0x1 DUP3 PUSH1 0xA SLOAD AND OR PUSH1 0xA SSTORE PUSH1 0x1 SLOAD SWAP1 PUSH1 0xFF DUP3 AND PUSH2 0x3B4 JUMPI POP PUSH32 0xA8BFC00A82DAC609A5575E0D4BF2D4F2284BE6D96C469BEF935E1F8319277F4B SWAP3 SWAP2 PUSH1 0x1 SWAP2 AND OR PUSH1 0x1 SSTORE PUSH32 0x62E78CEA01BEE320CD4E420270B5EA74000D11B0C9F74754EBDBFC544B05A258 PUSH1 0x20 DUP3 MLOAD CALLER DUP2 MSTORE LOG1 MLOAD DUP1 PUSH2 0x3AE CALLER SWAP5 DUP3 PUSH2 0x119D JUMP JUMPDEST SUB SWAP1 LOG2 DUP1 RETURN JUMPDEST DUP4 MLOAD PUSH4 0xD93C0665 PUSH1 0xE0 SHL DUP2 MSTORE REVERT JUMPDEST DUP4 DUP1 REVERT JUMPDEST DUP3 DUP5 CALLVALUE PUSH2 0x41B JUMPI DUP2 PUSH1 0x3 NOT CALLDATASIZE ADD SLT PUSH2 0x41B JUMPI POP PUSH2 0x3E1 PUSH2 0xC0C JUMP JUMPDEST SWAP2 PUSH1 0x2 DUP1 SLOAD EQ PUSH2 0x40D JUMPI POP PUSH2 0x3FF PUSH1 0x20 SWAP3 PUSH1 0x2 DUP1 SSTORE PUSH1 0x24 CALLDATALOAD SWAP1 PUSH2 0xEE4 JUMP JUMPDEST SWAP1 PUSH1 0x1 PUSH1 0x2 SSTORE MLOAD SWAP1 ISZERO ISZERO DUP2 MSTORE RETURN JUMPDEST SWAP1 MLOAD PUSH4 0x3EE5AEB5 PUSH1 0xE0 SHL DUP2 MSTORE REVERT JUMPDEST DUP1 REVERT JUMPDEST SWAP1 POP CALLVALUE PUSH2 0x2B3 JUMPI DUP3 PUSH1 0x3 NOT CALLDATASIZE ADD SLT PUSH2 0x2B3 JUMPI PUSH1 0x20 SWAP3 POP SLOAD SWAP1 MLOAD SWAP1 DUP2 MSTORE RETURN JUMPDEST POP POP CALLVALUE PUSH2 0x1C1 JUMPI DUP2 PUSH1 0x3 NOT CALLDATASIZE ADD SLT PUSH2 0x1C1 JUMPI PUSH1 0x20 SWAP1 PUSH1 0x3 SLOAD SWAP1 MLOAD SWAP1 DUP2 MSTORE RETURN JUMPDEST POP POP CALLVALUE PUSH2 0x1C1 JUMPI DUP2 PUSH1 0x3 NOT CALLDATASIZE ADD SLT PUSH2 0x1C1 JUMPI PUSH1 0x20 SWAP1 PUSH1 0x5 SLOAD SWAP1 MLOAD SWAP1 DUP2 MSTORE RETURN JUMPDEST POP POP CALLVALUE PUSH2 0x1C1 JUMPI PUSH1 0x20 CALLDATASIZE PUSH1 0x3 NOT ADD SLT PUSH2 0x1C1 JUMPI PUSH1 0x20 SWAP2 PUSH1 0xFF SWAP1 DUP3 SWAP1 PUSH1 0x1 PUSH1 0x1 PUSH1 0xA0 SHL SUB PUSH2 0x4A5 PUSH2 0xC0C JUMP JUMPDEST AND DUP2 MSTORE PUSH1 0x9 DUP6 MSTORE KECCAK256 SLOAD AND ISZERO SWAP1 DUP2 PUSH2 0x4D3 JUMPI JUMPDEST DUP2 PUSH2 0x4C5 JUMPI JUMPDEST MLOAD SWAP1 ISZERO ISZERO DUP2 MSTORE RETURN JUMPDEST PUSH1 0xA SLOAD PUSH1 0xFF AND ISZERO SWAP2 POP PUSH2 0x4BD JUMP JUMPDEST PUSH1 0x1 SLOAD PUSH1 0xFF AND ISZERO SWAP2 POP PUSH2 0x4B7 JUMP JUMPDEST POP POP CALLVALUE PUSH2 0x1C1 JUMPI DUP2 PUSH1 0x3 NOT CALLDATASIZE ADD SLT PUSH2 0x1C1 JUMPI MLOAD SWAP1 DUP2 MSTORE PUSH1 0x20 SWAP1 RETURN JUMPDEST POP POP CALLVALUE PUSH2 0x1C1 JUMPI PUSH1 0x20 CALLDATASIZE PUSH1 0x3 NOT ADD SLT PUSH2 0x1C1 JUMPI PUSH1 0x20 SWAP2 DUP2 SWAP1 PUSH1 0x1 PUSH1 0x1 PUSH1 0xA0 SHL SUB PUSH2 0x524 PUSH2 0xC0C JUMP JUMPDEST AND DUP2 MSTORE PUSH1 0x8 DUP5 MSTORE KECCAK256 SLOAD SWAP1 MLOAD SWAP1 DUP2 MSTORE RETURN JUMPDEST SWAP1 POP CALLVALUE PUSH2 0x2B3 JUMPI DUP3 PUSH1 0x3 NOT CALLDATASIZE ADD SLT PUSH2 0x2B3 JUMPI PUSH2 0x54E PUSH2 0xCD2 JUMP JUMPDEST PUSH1 0xFF NOT SWAP1 DUP2 PUSH1 0xA SLOAD AND PUSH1 0xA SSTORE PUSH1 0x1 SLOAD SWAP1 PUSH1 0xFF DUP3 AND ISZERO PUSH2 0x5BE JUMPI POP AND PUSH1 0x1 SSTORE MLOAD CALLER DUP2 MSTORE PUSH32 0x5DB9EE0A495BF2E6FF9C91A7834C1BA4FDD244A5E8AA4E537BD38AEAE4B073AA SWAP1 PUSH1 0x20 SWAP1 LOG1 CALLER PUSH32 0xBD95437B04432C9BBCF6D10C00E0E1CDC482151FFE5DA10870858D456EE9FC23 DUP3 DUP1 LOG2 DUP1 RETURN JUMPDEST DUP4 MLOAD PUSH4 0x8DFC202B PUSH1 0xE0 SHL DUP2 MSTORE REVERT JUMPDEST SWAP1 POP CALLVALUE PUSH2 0x2B3 JUMPI DUP2 PUSH1 0x3 NOT CALLDATASIZE ADD SLT PUSH2 0x2B3 JUMPI DUP2 PUSH1 0x20 SWAP4 PUSH1 0xFF SWAP3 PUSH2 0x5ED PUSH2 0xC27 JUMP JUMPDEST SWAP1 CALLDATALOAD DUP3 MSTORE DUP2 DUP7 MSTORE DUP3 DUP3 KECCAK256 PUSH1 0x1 PUSH1 0x1 PUSH1 0xA0 SHL SUB SWAP1 SWAP2 AND DUP3 MSTORE DUP6 MSTORE KECCAK256 SLOAD SWAP2 MLOAD SWAP2 AND ISZERO ISZERO DUP2 MSTORE RETURN JUMPDEST SWAP1 POP CALLVALUE PUSH2 0x2B3 JUMPI DUP3 PUSH1 0x3 NOT CALLDATASIZE ADD SLT PUSH2 0x2B3 JUMPI PUSH2 0x62C PUSH2 0xCD2 JUMP JUMPDEST PUSH1 0x1 SLOAD SWAP1 PUSH1 0xFF DUP3 AND PUSH2 0x670 JUMPI POP PUSH32 0x62E78CEA01BEE320CD4E420270B5EA74000D11B0C9F74754EBDBFC544B05A258 SWAP2 PUSH1 0x1 PUSH1 0x20 SWAP3 PUSH1 0xFF NOT AND OR PUSH1 0x1 SSTORE MLOAD CALLER DUP2 MSTORE LOG1 DUP1 RETURN JUMPDEST DUP3 MLOAD PUSH4 0xD93C0665 PUSH1 0xE0 SHL DUP2 MSTORE REVERT JUMPDEST POP POP CALLVALUE PUSH2 0x1C1 JUMPI DUP2 PUSH1 0x3 NOT CALLDATASIZE ADD SLT PUSH2 0x1C1 JUMPI PUSH1 0x20 SWAP1 MLOAD PUSH32 0xF6E67E455C1170019DF813A9DCB568F910C16426A5A6FAFFB00D325D6F118B67 DUP2 MSTORE RETURN JUMPDEST POP POP CALLVALUE PUSH2 0x1C1 JUMPI DUP2 PUSH1 0x3 NOT CALLDATASIZE ADD SLT PUSH2 0x1C1 JUMPI PUSH1 0x20 SWAP1 PUSH1 0xFF PUSH1 0x1 SLOAD AND SWAP1 MLOAD SWAP1 ISZERO ISZERO DUP2 MSTORE RETURN JUMPDEST SWAP1 POP CALLVALUE PUSH2 0x2B3 JUMPI PUSH1 0x20 CALLDATASIZE PUSH1 0x3 NOT ADD SLT PUSH2 0x2B3 JUMPI PUSH32 0x180243F61B8276DD82DC334417BDCA6B213CD59DE8769746737B5EE09536862C SWAP2 PUSH1 0xA0 SWAP2 CALLDATALOAD PUSH2 0x71E PUSH2 0xCD2 JUMP JUMPDEST PUSH1 0x3 SLOAD SWAP2 DUP2 PUSH1 0x3 SSTORE DUP1 MLOAD SWAP3 PUSH1 0x60 DUP5 MSTORE PUSH1 0xF PUSH1 0x60 DUP6 ADD MSTORE PUSH15 0x26A0AC2FAA2920A729A0A1AA24A7A7 PUSH1 0x89 SHL PUSH1 0x80 DUP6 ADD MSTORE PUSH1 0x20 DUP5 ADD MSTORE DUP3 ADD MSTORE LOG1 DUP1 RETURN JUMPDEST POP POP CALLVALUE PUSH2 0x1C1 JUMPI PUSH1 0x20 DUP1 PUSH1 0x3 NOT CALLDATASIZE ADD SLT PUSH2 0x2B3 JUMPI PUSH1 0x80 SWAP3 PUSH1 0x1 PUSH1 0x1 PUSH1 0xA0 SHL SUB PUSH2 0x77F PUSH2 0xC0C JUMP JUMPDEST AND DUP2 MSTORE PUSH1 0x9 DUP3 MSTORE PUSH1 0xFF DUP4 DUP3 KECCAK256 SLOAD AND SWAP3 PUSH1 0x7 DUP4 MSTORE DUP1 DUP3 KECCAK256 SLOAD PUSH1 0x8 DUP5 MSTORE DUP2 DUP1 DUP5 KECCAK256 SLOAD SWAP4 PUSH1 0x6 DUP7 MSTORE KECCAK256 SLOAD SWAP4 DUP3 MLOAD SWAP6 ISZERO ISZERO DUP7 MSTORE DUP6 ADD MSTORE DUP4 ADD MSTORE PUSH1 0x60 DUP3 ADD MSTORE RETURN JUMPDEST SWAP1 POP CALLVALUE PUSH2 0x2B3 JUMPI DUP2 PUSH1 0x3 NOT CALLDATASIZE ADD SLT PUSH2 0x2B3 JUMPI PUSH2 0x7D5 PUSH2 0xC0C JUMP JUMPDEST SWAP1 PUSH1 0x24 CALLDATALOAD SWAP2 PUSH8 0xFFFFFFFFFFFFFFFF DUP4 GT PUSH2 0x84D JUMPI PUSH2 0x81A PUSH2 0x3AE SWAP3 PUSH32 0xCC1CF21B75158E751A071CC4770B92CDE8BB2BC34F9187EEDD0592B874A55669 SWAP5 CALLDATASIZE SWAP2 ADD PUSH2 0xC95 JUMP JUMPDEST SWAP1 PUSH2 0x823 PUSH2 0xCD2 JUMP JUMPDEST PUSH1 0x1 PUSH1 0x1 PUSH1 0xA0 SHL SUB AND DUP1 DUP7 MSTORE PUSH1 0x9 PUSH1 0x20 MSTORE DUP5 DUP7 KECCAK256 DUP1 SLOAD PUSH1 0xFF NOT AND PUSH1 0x1 OR SWAP1 SSTORE SWAP4 MLOAD SWAP2 DUP3 SWAP2 DUP3 PUSH2 0x119D JUMP JUMPDEST DUP5 DUP1 REVERT JUMPDEST POP POP CALLVALUE PUSH2 0x1C1 JUMPI PUSH1 0x20 CALLDATASIZE PUSH1 0x3 NOT ADD SLT PUSH2 0x1C1 JUMPI DUP2 PUSH2 0x86D PUSH2 0xC0C JUMP JUMPDEST PUSH2 0x875 PUSH2 0xCD2 JUMP JUMPDEST PUSH1 0x1 PUSH1 0x1 PUSH1 0xA0 SHL SUB AND DUP1 DUP3 MSTORE PUSH1 0x9 PUSH1 0x20 SWAP1 DUP2 MSTORE DUP4 DUP4 KECCAK256 DUP1 SLOAD PUSH1 0xFF NOT AND SWAP1 SSTORE PUSH1 0x8 SWAP1 MSTORE SWAP2 DUP2 KECCAK256 SSTORE PUSH32 0x7409CB8E690BCD1487FD4FD27DAD3FA92388D201BA6F953631D6D6B26299F849 DUP3 DUP1 LOG2 DUP1 RETURN JUMPDEST SWAP1 POP CALLVALUE PUSH2 0x2B3 JUMPI DUP3 PUSH1 0x3 NOT CALLDATASIZE ADD SLT PUSH2 0x2B3 JUMPI PUSH2 0x8DC PUSH2 0xCD2 JUMP JUMPDEST PUSH1 0x1 SLOAD SWAP1 PUSH1 0xFF DUP3 AND ISZERO PUSH2 0x91E JUMPI POP PUSH1 0xFF NOT AND PUSH1 0x1 SSTORE MLOAD CALLER DUP2 MSTORE PUSH32 0x5DB9EE0A495BF2E6FF9C91A7834C1BA4FDD244A5E8AA4E537BD38AEAE4B073AA SWAP1 PUSH1 0x20 SWAP1 LOG1 DUP1 RETURN JUMPDEST DUP3 MLOAD PUSH4 0x8DFC202B PUSH1 0xE0 SHL DUP2 MSTORE REVERT JUMPDEST DUP4 DUP4 CALLVALUE PUSH2 0x1C1 JUMPI DUP1 PUSH1 0x3 NOT CALLDATASIZE ADD SLT PUSH2 0x1C1 JUMPI PUSH2 0x946 PUSH2 0xC27 JUMP JUMPDEST SWAP1 CALLER PUSH1 0x1 PUSH1 0x1 PUSH1 0xA0 SHL SUB DUP4 AND SUB PUSH2 0x963 JUMPI POP PUSH2 0x2F2 SWAP2 SWAP3 CALLDATALOAD PUSH2 0xE4C JUMP JUMPDEST MLOAD PUSH4 0x334BD919 PUSH1 0xE1 SHL DUP2 MSTORE DUP4 SWAP1 REVERT JUMPDEST SWAP2 SWAP1 POP CALLVALUE PUSH2 0x2B3 JUMPI DUP1 PUSH1 0x3 NOT CALLDATASIZE ADD SLT PUSH2 0x2B3 JUMPI PUSH2 0x2F2 SWAP2 CALLDATALOAD PUSH2 0x997 PUSH1 0x1 PUSH2 0x2DC PUSH2 0xC27 JUMP JUMPDEST PUSH2 0xDCE JUMP JUMPDEST POP POP CALLVALUE PUSH2 0x1C1 JUMPI DUP2 PUSH1 0x3 NOT CALLDATASIZE ADD SLT PUSH2 0x1C1 JUMPI PUSH1 0xA SLOAD SWAP1 MLOAD PUSH1 0x8 SWAP2 SWAP1 SWAP2 SHR PUSH1 0x1 PUSH1 0x1 PUSH1 0xA0 SHL SUB AND DUP2 MSTORE PUSH1 0x20 SWAP1 RETURN JUMPDEST SWAP2 SWAP1 POP CALLVALUE PUSH2 0x2B3 JUMPI PUSH1 0x20 CALLDATASIZE PUSH1 0x3 NOT ADD SLT PUSH2 0x2B3 JUMPI DUP2 PUSH1 0xA0 SWAP2 PUSH32 0x180243F61B8276DD82DC334417BDCA6B213CD59DE8769746737B5EE09536862C SWAP4 CALLDATALOAD SWAP1 PUSH2 0xA0D PUSH2 0xCD2 JUMP JUMPDEST DUP2 DUP4 SLOAD SWAP4 SSTORE DUP1 MLOAD SWAP3 PUSH1 0x60 DUP5 MSTORE PUSH1 0xB PUSH1 0x60 DUP6 ADD MSTORE PUSH11 0x111052531657D312535255 PUSH1 0xAA SHL PUSH1 0x80 DUP6 ADD MSTORE PUSH1 0x20 DUP5 ADD MSTORE DUP3 ADD MSTORE LOG1 DUP1 RETURN JUMPDEST POP POP CALLVALUE PUSH2 0x1C1 JUMPI PUSH1 0x20 CALLDATASIZE PUSH1 0x3 NOT ADD SLT PUSH2 0x1C1 JUMPI PUSH1 0x20 SWAP2 DUP2 SWAP1 PUSH1 0x1 PUSH1 0x1 PUSH1 0xA0 SHL SUB PUSH2 0xA68 PUSH2 0xC0C JUMP JUMPDEST AND DUP2 MSTORE PUSH1 0x6 DUP5 MSTORE KECCAK256 SLOAD SWAP1 MLOAD SWAP1 DUP2 MSTORE RETURN JUMPDEST SWAP1 POP CALLVALUE PUSH2 0x2B3 JUMPI PUSH1 0x20 CALLDATASIZE PUSH1 0x3 NOT ADD SLT PUSH2 0x2B3 JUMPI DUP2 PUSH1 0x20 SWAP4 PUSH1 0x1 SWAP3 CALLDATALOAD DUP2 MSTORE DUP1 DUP6 MSTORE KECCAK256 ADD SLOAD SWAP1 MLOAD SWAP1 DUP2 MSTORE RETURN JUMPDEST POP POP CALLVALUE PUSH2 0x1C1 JUMPI DUP2 PUSH1 0x3 NOT CALLDATASIZE ADD SLT PUSH2 0x1C1 JUMPI PUSH1 0x20 SWAP1 MLOAD PUSH32 0xBF233DD2AAFEB4D50879C4AA5C81E96D92F6E6945C906A58F9F2D1C1631B4B26 DUP2 MSTORE RETURN JUMPDEST SWAP1 POP CALLVALUE PUSH2 0x2B3 JUMPI PUSH1 0x20 CALLDATASIZE PUSH1 0x3 NOT ADD SLT PUSH2 0x2B3 JUMPI PUSH32 0x180243F61B8276DD82DC334417BDCA6B213CD59DE8769746737B5EE09536862C SWAP2 PUSH1 0xA0 SWAP2 CALLDATALOAD PUSH2 0xB1E PUSH2 0xCD2 JUMP JUMPDEST PUSH1 0x5 SLOAD SWAP2 DUP2 PUSH1 0x5 SSTORE DUP1 MLOAD SWAP3 PUSH1 0x60 DUP5 MSTORE PUSH1 0x14 PUSH1 0x60 DUP6 ADD MSTORE PUSH20 0x14D554D41250D253D554D7D512149154D213D311 PUSH1 0x62 SHL PUSH1 0x80 DUP6 ADD MSTORE PUSH1 0x20 DUP5 ADD MSTORE DUP3 ADD MSTORE LOG1 DUP1 RETURN JUMPDEST POP POP CALLVALUE PUSH2 0x1C1 JUMPI DUP2 PUSH1 0x3 NOT CALLDATASIZE ADD SLT PUSH2 0x1C1 JUMPI PUSH1 0x20 SWAP1 PUSH1 0xFF PUSH1 0xA SLOAD AND SWAP1 MLOAD SWAP1 ISZERO ISZERO DUP2 MSTORE RETURN JUMPDEST POP POP CALLVALUE PUSH2 0x1C1 JUMPI PUSH1 0x20 CALLDATASIZE PUSH1 0x3 NOT ADD SLT PUSH2 0x1C1 JUMPI PUSH1 0x20 SWAP2 DUP2 SWAP1 PUSH1 0x1 PUSH1 0x1 PUSH1 0xA0 SHL SUB PUSH2 0xBA9 PUSH2 0xC0C JUMP JUMPDEST AND DUP2 MSTORE PUSH1 0x7 DUP5 MSTORE KECCAK256 SLOAD SWAP1 MLOAD SWAP1 DUP2 MSTORE RETURN JUMPDEST DUP5 SWAP2 CALLVALUE PUSH2 0x2B3 JUMPI PUSH1 0x20 CALLDATASIZE PUSH1 0x3 NOT ADD SLT PUSH2 0x2B3 JUMPI CALLDATALOAD PUSH4 0xFFFFFFFF PUSH1 0xE0 SHL DUP2 AND DUP1 SWAP2 SUB PUSH2 0x2B3 JUMPI PUSH1 0x20 SWAP3 POP PUSH4 0x7965DB0B PUSH1 0xE0 SHL DUP2 EQ SWAP1 DUP2 ISZERO PUSH2 0xBFB JUMPI JUMPDEST POP ISZERO ISZERO DUP2 MSTORE RETURN JUMPDEST PUSH4 0x1FFC9A7 PUSH1 0xE0 SHL EQ SWAP1 POP DUP4 PUSH2 0xBF4 JUMP JUMPDEST PUSH1 0x4 CALLDATALOAD SWAP1 PUSH1 0x1 PUSH1 0x1 PUSH1 0xA0 SHL SUB DUP3 AND DUP3 SUB PUSH2 0xC22 JUMPI JUMP JUMPDEST PUSH1 0x0 DUP1 REVERT JUMPDEST PUSH1 0x24 CALLDATALOAD SWAP1 PUSH1 0x1 PUSH1 0x1 PUSH1 0xA0 SHL SUB DUP3 AND DUP3 SUB PUSH2 0xC22 JUMPI JUMP JUMPDEST PUSH1 0x40 MLOAD SWAP2 SWAP1 PUSH1 0x1F ADD PUSH1 0x1F NOT AND DUP3 ADD PUSH8 0xFFFFFFFFFFFFFFFF DUP2 GT DUP4 DUP3 LT OR PUSH2 0xC63 JUMPI PUSH1 0x40 MSTORE JUMP JUMPDEST PUSH4 0x4E487B71 PUSH1 0xE0 SHL PUSH1 0x0 MSTORE PUSH1 0x41 PUSH1 0x4 MSTORE PUSH1 0x24 PUSH1 0x0 REVERT JUMPDEST PUSH8 0xFFFFFFFFFFFFFFFF DUP2 GT PUSH2 0xC63 JUMPI PUSH1 0x1F ADD PUSH1 0x1F NOT AND PUSH1 0x20 ADD SWAP1 JUMP JUMPDEST DUP2 PUSH1 0x1F DUP3 ADD SLT ISZERO PUSH2 0xC22 JUMPI DUP1 CALLDATALOAD SWAP1 PUSH2 0xCAF PUSH2 0x217 DUP4 PUSH2 0xC79 JUMP JUMPDEST SWAP3 DUP3 DUP5 MSTORE PUSH1 0x20 DUP4 DUP4 ADD ADD GT PUSH2 0xC22 JUMPI DUP2 PUSH1 0x0 SWAP3 PUSH1 0x20 DUP1 SWAP4 ADD DUP4 DUP7 ADD CALLDATACOPY DUP4 ADD ADD MSTORE SWAP1 JUMP JUMPDEST CALLER PUSH1 0x0 SWAP1 DUP2 MSTORE PUSH32 0xAF98F812AFF7AFA65A38F385CBFE2372F92503364EC36993CE9A374828FFF18B PUSH1 0x20 MSTORE PUSH1 0x40 SWAP1 KECCAK256 SLOAD PUSH32 0xF6E67E455C1170019DF813A9DCB568F910C16426A5A6FAFFB00D325D6F118B67 SWAP1 PUSH1 0xFF AND ISZERO PUSH2 0xD2E JUMPI POP JUMP JUMPDEST PUSH1 0x44 SWAP1 PUSH1 0x40 MLOAD SWAP1 PUSH4 0xE2517D3F PUSH1 0xE0 SHL DUP3 MSTORE CALLER PUSH1 0x4 DUP4 ADD MSTORE PUSH1 0x24 DUP3 ADD MSTORE REVERT JUMPDEST CALLER PUSH1 0x0 SWAP1 DUP2 MSTORE PUSH32 0x3C1B1854AB1360ABBB06C8D4C6B2672D4B8CEDC5EFF522AB19E51D5CB8FDBD46 PUSH1 0x20 MSTORE PUSH1 0x40 SWAP1 KECCAK256 SLOAD PUSH32 0xBF233DD2AAFEB4D50879C4AA5C81E96D92F6E6945C906A58F9F2D1C1631B4B26 SWAP1 PUSH1 0xFF AND ISZERO PUSH2 0xD2E JUMPI POP JUMP JUMPDEST DUP1 PUSH1 0x0 MSTORE PUSH1 0x0 PUSH1 0x20 MSTORE PUSH1 0x40 PUSH1 0x0 KECCAK256 CALLER PUSH1 0x0 MSTORE PUSH1 0x20 MSTORE PUSH1 0xFF PUSH1 0x40 PUSH1 0x0 KECCAK256 SLOAD AND ISZERO PUSH2 0xD2E JUMPI POP JUMP JUMPDEST SWAP1 PUSH1 0x0 SWAP2 DUP1 DUP4 MSTORE DUP3 PUSH1 0x20 MSTORE PUSH1 0x40 DUP4 KECCAK256 SWAP2 PUSH1 0x1 DUP1 PUSH1 0xA0 SHL SUB AND SWAP2 DUP3 DUP5 MSTORE PUSH1 0x20 MSTORE PUSH1 0xFF PUSH1 0x40 DUP5 KECCAK256 SLOAD AND ISZERO PUSH1 0x0 EQ PUSH2 0xE47 JUMPI DUP1 DUP4 MSTORE DUP3 PUSH1 0x20 MSTORE PUSH1 0x40 DUP4 KECCAK256 DUP3 DUP5 MSTORE PUSH1 0x20 MSTORE PUSH1 0x40 DUP4 KECCAK256 PUSH1 0x1 PUSH1 0xFF NOT DUP3 SLOAD AND OR SWAP1 SSTORE PUSH32 0x2F8788117E7EFF1D82E926EC794901D17C78024A50270940304540A733656F0D CALLER SWAP4 DUP1 LOG4 PUSH1 0x1 SWAP1 JUMP JUMPDEST POP POP SWAP1 JUMP JUMPDEST SWAP1 PUSH1 0x0 SWAP2 DUP1 DUP4 MSTORE DUP3 PUSH1 0x20 MSTORE PUSH1 0x40 DUP4 KECCAK256 SWAP2 PUSH1 0x1 DUP1 PUSH1 0xA0 SHL SUB AND SWAP2 DUP3 DUP5 MSTORE PUSH1 0x20 MSTORE PUSH1 0xFF PUSH1 0x40 DUP5 KECCAK256 SLOAD AND PUSH1 0x0 EQ PUSH2 0xE47 JUMPI DUP1 DUP4 MSTORE DUP3 PUSH1 0x20 MSTORE PUSH1 0x40 DUP4 KECCAK256 DUP3 DUP5 MSTORE PUSH1 0x20 MSTORE PUSH1 0x40 DUP4 KECCAK256 PUSH1 0xFF NOT DUP2 SLOAD AND SWAP1 SSTORE PUSH32 0xF6391F5C32D9C69D2A47EA670B442974B53935D1EDC7FD64EB21E047A839171B CALLER SWAP4 DUP1 LOG4 PUSH1 0x1 SWAP1 JUMP JUMPDEST SWAP2 SWAP1 DUP3 ADD DUP1 SWAP3 GT PUSH2 0xECE JUMPI JUMP JUMPDEST PUSH4 0x4E487B71 PUSH1 0xE0 SHL PUSH1 0x0 MSTORE PUSH1 0x11 PUSH1 0x4 MSTORE PUSH1 0x24 PUSH1 0x0 REVERT JUMPDEST PUSH1 0x1 PUSH1 0x1 PUSH1 0xA0 SHL SUB AND PUSH1 0x0 DUP2 DUP2 MSTORE PUSH1 0x9 PUSH1 0x20 SWAP1 DUP2 MSTORE PUSH1 0x40 DUP1 DUP4 KECCAK256 SLOAD SWAP1 SWAP4 SWAP1 PUSH1 0xFF AND PUSH2 0x1163 JUMPI PUSH1 0xFF PUSH1 0x1 SLOAD AND PUSH2 0x112A JUMPI PUSH1 0xFF PUSH1 0xA SLOAD AND PUSH2 0x10EE JUMPI PUSH1 0x3 SLOAD DUP6 GT PUSH2 0x1096 JUMPI DUP1 DUP4 MSTORE PUSH1 0x6 DUP3 MSTORE PUSH3 0x15180 DUP1 DUP6 DUP6 KECCAK256 SLOAD DIV SWAP1 TIMESTAMP DIV GT PUSH2 0x107F JUMPI JUMPDEST PUSH1 0x7 DUP3 MSTORE PUSH2 0xF51 DUP6 DUP6 DUP6 KECCAK256 SLOAD PUSH2 0xEC1 JUMP JUMPDEST PUSH1 0x4 SLOAD LT PUSH2 0x1029 JUMPI DUP1 DUP4 MSTORE PUSH1 0x8 DUP3 MSTORE DUP4 DUP4 KECCAK256 DUP1 SLOAD PUSH1 0x0 NOT DUP2 EQ PUSH2 0x1015 JUMPI PUSH1 0x1 ADD SWAP1 SSTORE DUP1 DUP4 MSTORE PUSH1 0x8 DUP3 MSTORE DUP4 DUP4 KECCAK256 SLOAD PUSH1 0x5 SLOAD DUP2 GT PUSH2 0xFAB JUMPI POP POP SWAP1 PUSH1 0x7 DUP3 PUSH1 0x6 PUSH2 0xFA4 SWAP6 SWAP5 MSTORE TIMESTAMP DUP5 DUP5 KECCAK256 SSTORE MSTORE KECCAK256 SWAP2 DUP3 SLOAD PUSH2 0xEC1 JUMP JUMPDEST SWAP1 SSTORE PUSH1 0x1 SWAP1 JUMP JUMPDEST PUSH1 0x9 SWAP4 SWAP6 POP PUSH32 0x6AC6F29CB533706676E94FF2D30D8F95DD3E0C525A0E07E44C1F7762360B4894 PUSH1 0x80 DUP4 SWAP3 DUP8 MLOAD SWAP1 DUP9 DUP3 MSTORE PUSH1 0x13 DUP10 DUP4 ADD MSTORE PUSH19 0x535553504943494F55535F4143544956495459 PUSH1 0x68 SHL PUSH1 0x60 DUP4 ADD MSTORE DUP7 DUP3 ADD MSTORE LOG2 DUP5 MSTORE MSTORE DUP2 KECCAK256 DUP1 SLOAD PUSH1 0xFF NOT AND PUSH1 0x1 OR SWAP1 SSTORE SWAP1 JUMP JUMPDEST PUSH4 0x4E487B71 PUSH1 0xE0 SHL DUP6 MSTORE PUSH1 0x11 PUSH1 0x4 MSTORE PUSH1 0x24 DUP6 REVERT JUMPDEST SWAP3 PUSH32 0x6AC6F29CB533706676E94FF2D30D8F95DD3E0C525A0E07E44C1F7762360B4894 SWAP3 SWAP5 PUSH1 0x80 SWAP3 PUSH1 0x14 DUP4 MLOAD SWAP4 DUP1 DUP6 MSTORE DUP5 ADD MSTORE PUSH20 0x111052531657D31253525517D15610D151511151 PUSH1 0x62 SHL PUSH1 0x60 DUP5 ADD MSTORE DUP3 ADD MSTORE LOG2 SWAP1 JUMP JUMPDEST PUSH1 0x7 DUP3 MSTORE DUP3 DUP5 DUP2 KECCAK256 SSTORE PUSH1 0x8 DUP3 MSTORE DUP3 DUP5 DUP2 KECCAK256 SSTORE PUSH2 0xF40 JUMP JUMPDEST SWAP3 PUSH32 0x6AC6F29CB533706676E94FF2D30D8F95DD3E0C525A0E07E44C1F7762360B4894 SWAP3 SWAP5 PUSH1 0x80 SWAP3 PUSH1 0x16 DUP4 MLOAD SWAP4 DUP1 DUP6 MSTORE DUP5 ADD MSTORE PUSH22 0x2424A3A42FAB20A62AA2AFAA2920A729A0A1AA24A7A7 PUSH1 0x51 SHL PUSH1 0x60 DUP5 ADD MSTORE DUP3 ADD MSTORE LOG2 SWAP1 JUMP JUMPDEST DUP4 MLOAD PUSH3 0x461BCD PUSH1 0xE5 SHL DUP2 MSTORE PUSH1 0x4 DUP2 ADD DUP4 SWAP1 MSTORE PUSH1 0x15 PUSH1 0x24 DUP3 ADD MSTORE PUSH21 0x456D657267656E6379206D6F646520616374697665 PUSH1 0x58 SHL PUSH1 0x44 DUP3 ADD MSTORE PUSH1 0x64 SWAP1 REVERT JUMPDEST DUP4 MLOAD PUSH3 0x461BCD PUSH1 0xE5 SHL DUP2 MSTORE PUSH1 0x4 DUP2 ADD DUP4 SWAP1 MSTORE PUSH1 0x12 PUSH1 0x24 DUP3 ADD MSTORE PUSH18 0x10DBDB9D1C9858DD081A5CC81C185D5CD959 PUSH1 0x72 SHL PUSH1 0x44 DUP3 ADD MSTORE PUSH1 0x64 SWAP1 REVERT JUMPDEST DUP4 MLOAD PUSH3 0x461BCD PUSH1 0xE5 SHL DUP2 MSTORE PUSH1 0x4 DUP2 ADD DUP4 SWAP1 MSTORE PUSH1 0x13 PUSH1 0x24 DUP3 ADD MSTORE PUSH19 0x155CD95C881A5CC8189B1858DADB1A5CDD1959 PUSH1 0x6A SHL PUSH1 0x44 DUP3 ADD MSTORE PUSH1 0x64 SWAP1 REVERT JUMPDEST PUSH1 0x20 DUP1 DUP3 MSTORE DUP3 MLOAD DUP2 DUP4 ADD DUP2 SWAP1 MSTORE SWAP1 SWAP4 SWAP3 PUSH1 0x0 JUMPDEST DUP3 DUP2 LT PUSH2 0x11D2 JUMPI POP POP PUSH1 0x40 SWAP3 SWAP4 POP PUSH1 0x0 DUP4 DUP3 DUP5 ADD ADD MSTORE PUSH1 0x1F DUP1 NOT SWAP2 ADD AND ADD ADD SWAP1 JUMP JUMPDEST DUP2 DUP2 ADD DUP7 ADD MLOAD DUP5 DUP3 ADD PUSH1 0x40 ADD MSTORE DUP6 ADD PUSH2 0x11B0 JUMP INVALID LOG2 PUSH5 0x6970667358 0x22 SLT KECCAK256 PUSH32 0x108C8C9FF7E92B2ED34E0CE20F8FFC824246328DC37F4F829840FAEF05CFA664 PUSH20 0x6F6C634300081400332F8788117E7EFF1D82E926 0xEC PUSH26 0x4901D17C78024A50270940304540A733656F0D00000000000000 "},"methodIdentifiers":{"DEFAULT_ADMIN_ROLE()":"a217fddf","EMERGENCY_ROLE()":"20df4359","SECURITY_ADMIN_ROLE()":"7afa85e8","activateEmergencyMode(string)":"c124a247","blacklistUser(address,string)":"4d0970c6","blacklisted(address)":"dbac26e9","checkTransactionSecurity(address,uint256)":"bc8bc153","dailyWithdrawLimit()":"ace687eb","dailyWithdrawn(address)":"072861d3","deactivateEmergencyMode()":"99b20eaf","emergencyMode()":"0905f560","emergencyWithdraw()":"db2e21bc","emergencyWithdrawAddress()":"2ee72e18","getRoleAdmin(bytes32)":"248a9ca3","getUserSecurityStatus(address)":"5175cef5","grantRole(bytes32,address)":"2f2ff15d","hasRole(bytes32,address)":"91d14854","isUserAllowed(address)":"a52ba4e8","lastActionTime(address)":"27f0bfd6","maxTransactionValue()":"aa91be95","pause()":"8456cb59","paused()":"5c975abb","renounceRole(bytes32,address)":"36568abe","revokeRole(bytes32,address)":"d547741f","supportsInterface(bytes4)":"01ffc9a7","suspiciousActivityThreshold()":"a948ce65","transactionCount(address)":"99be3375","unpause()":"3f4ba83a","updateDailyWithdrawLimit(uint256)":"2cbb9631","updateMaxTransactionValue(uint256)":"56091d89","updateSuspiciousActivityThreshold(uint256)":"123da591","whitelistUser(address)":"4a4c560d"}}}}}