{"contracts/src/NodeRegistry.sol":{"NodeRegistry":{"abi":[{"inputs":[],"stateMutability":"nonpayable","type":"constructor"},{"inputs":[{"internalType":"address","name":"owner","type":"address"}],"name":"OwnableInvalidOwner","type":"error"},{"inputs":[{"internalType":"address","name":"account","type":"address"}],"name":"OwnableUnauthorizedAccount","type":"error"},{"inputs":[],"name":"ReentrancyGuardReentrantCall","type":"error"},{"anonymous":false,"inputs":[{"indexed":true,"internalType":"address","name":"operator","type":"address"}],"name":"NodeDeactivated","type":"event"},{"anonymous":false,"inputs":[{"indexed":true,"internalType":"address","name":"operator","type":"address"},{"indexed":false,"internalType":"uint256","name":"stake","type":"uint256"}],"name":"NodeRegistered","type":"event"},{"anonymous":false,"inputs":[{"indexed":true,"internalType":"address","name":"operator","type":"address"},{"indexed":false,"internalType":"uint256","name":"amount","type":"uint256"}],"name":"NodeSlashed","type":"event"},{"anonymous":false,"inputs":[{"indexed":true,"internalType":"address","name":"previousOwner","type":"address"},{"indexed":true,"internalType":"address","name":"newOwner","type":"address"}],"name":"OwnershipTransferred","type":"event"},{"anonymous":false,"inputs":[{"indexed":true,"internalType":"address","name":"node","type":"address"},{"indexed":false,"internalType":"uint256","name":"amount","type":"uint256"}],"name":"RewardDistributed","type":"event"},{"anonymous":false,"inputs":[{"indexed":true,"internalType":"address","name":"operator","type":"address"},{"indexed":false,"internalType":"uint256","name":"amount","type":"uint256"}],"name":"StakeWithdrawn","type":"event"},{"anonymous":false,"inputs":[{"indexed":true,"internalType":"uint256","name":"voteId","type":"uint256"},{"indexed":true,"internalType":"address","name":"voter","type":"address"},{"indexed":false,"internalType":"bool","name":"support","type":"bool"}],"name":"VoteCast","type":"event"},{"anonymous":false,"inputs":[{"indexed":true,"internalType":"uint256","name":"voteId","type":"uint256"},{"indexed":true,"internalType":"address","name":"subject","type":"address"}],"name":"VoteCreated","type":"event"},{"anonymous":false,"inputs":[{"indexed":true,"internalType":"uint256","name":"voteId","type":"uint256"},{"indexed":false,"internalType":"bool","name":"approved","type":"bool"}],"name":"VoteExecuted","type":"event"},{"inputs":[],"name":"INACTIVITY_PERIOD","outputs":[{"internalType":"uint256","name":"","type":"uint256"}],"stateMutability":"view","type":"function"},{"inputs":[],"name":"MINIMUM_STAKE","outputs":[{"internalType":"uint256","name":"","type":"uint256"}],"stateMutability":"view","type":"function"},{"inputs":[],"name":"QUORUM_PERCENTAGE","outputs":[{"internalType":"uint256","name":"","type":"uint256"}],"stateMutability":"view","type":"function"},{"inputs":[],"name":"SLASH_AMOUNT","outputs":[{"internalType":"uint256","name":"","type":"uint256"}],"stateMutability":"view","type":"function"},{"inputs":[],"name":"VOTING_PERIOD","outputs":[{"internalType":"uint256","name":"","type":"uint256"}],"stateMutability":"view","type":"function"},{"inputs":[],"name":"activeNodeCount","outputs":[{"internalType":"uint256","name":"","type":"uint256"}],"stateMutability":"view","type":"function"},{"inputs":[{"internalType":"uint256","name":"_voteId","type":"uint256"},{"internalType":"bool","name":"_support","type":"bool"}],"name":"castVote","outputs":[],"stateMutability":"nonpayable","type":"function"},{"inputs":[],"name":"checkInactiveNodes","outputs":[],"stateMutability":"nonpayable","type":"function"},{"inputs":[],"name":"distributeRewards","outputs":[],"stateMutability":"payable","type":"function"},{"inputs":[{"internalType":"uint256","name":"_voteId","type":"uint256"}],"name":"executeVote","outputs":[],"stateMutability":"nonpayable","type":"function"},{"inputs":[],"name":"getActiveNodes","outputs":[{"internalType":"address[]","name":"","type":"address[]"}],"stateMutability":"view","type":"function"},{"inputs":[{"internalType":"address","name":"_operator","type":"address"}],"name":"getNodeDetails","outputs":[{"internalType":"uint256","name":"stake","type":"uint256"},{"internalType":"uint256","name":"reputation","type":"uint256"},{"internalType":"bool","name":"active","type":"bool"},{"internalType":"string","name":"endpoint","type":"string"},{"internalType":"uint256","name":"totalRewards","type":"uint256"}],"stateMutability":"view","type":"function"},{"inputs":[],"name":"heartbeat","outputs":[],"stateMutability":"nonpayable","type":"function"},{"inputs":[{"internalType":"address","name":"","type":"address"}],"name":"isNode","outputs":[{"internalType":"bool","name":"","type":"bool"}],"stateMutability":"view","type":"function"},{"inputs":[],"name":"nodeCount","outputs":[{"internalType":"uint256","name":"","type":"uint256"}],"stateMutability":"view","type":"function"},{"inputs":[{"internalType":"uint256","name":"","type":"uint256"}],"name":"nodeList","outputs":[{"internalType":"address","name":"","type":"address"}],"stateMutability":"view","type":"function"},{"inputs":[{"internalType":"address","name":"","type":"address"}],"name":"nodes","outputs":[{"internalType":"address","name":"operator","type":"address"},{"internalType":"uint256","name":"stake","type":"uint256"},{"internalType":"uint256","name":"reputation","type":"uint256"},{"internalType":"bool","name":"active","type":"bool"},{"internalType":"uint256","name":"registrationTime","type":"uint256"},{"internalType":"uint256","name":"lastActiveTime","type":"uint256"},{"internalType":"string","name":"endpoint","type":"string"},{"internalType":"uint256","name":"totalRewards","type":"uint256"},{"internalType":"uint256","name":"slashCount","type":"uint256"}],"stateMutability":"view","type":"function"},{"inputs":[],"name":"owner","outputs":[{"internalType":"address","name":"","type":"address"}],"stateMutability":"view","type":"function"},{"inputs":[{"internalType":"address","name":"","type":"address"}],"name":"pendingWithdrawals","outputs":[{"internalType":"uint256","name":"","type":"uint256"}],"stateMutability":"view","type":"function"},{"inputs":[{"internalType":"string","name":"_endpoint","type":"string"}],"name":"registerNode","outputs":[],"stateMutability":"payable","type":"function"},{"inputs":[],"name":"renounceOwnership","outputs":[],"stateMutability":"nonpayable","type":"function"},{"inputs":[{"internalType":"address","name":"_operator","type":"address"}],"name":"slashNode","outputs":[],"stateMutability":"nonpayable","type":"function"},{"inputs":[],"name":"totalStaked","outputs":[{"internalType":"uint256","name":"","type":"uint256"}],"stateMutability":"view","type":"function"},{"inputs":[{"internalType":"address","name":"newOwner","type":"address"}],"name":"transferOwnership","outputs":[],"stateMutability":"nonpayable","type":"function"},{"inputs":[{"internalType":"string","name":"_endpoint","type":"string"}],"name":"updateEndpoint","outputs":[],"stateMutability":"nonpayable","type":"function"},{"inputs":[],"name":"voteCount","outputs":[{"internalType":"uint256","name":"","type":"uint256"}],"stateMutability":"view","type":"function"},{"inputs":[{"internalType":"uint256","name":"","type":"uint256"}],"name":"votes","outputs":[{"internalType":"uint256","name":"votesFor","type":"uint256"},{"internalType":"uint256","name":"votesAgainst","type":"uint256"},{"internalType":"uint256","name":"deadline","type":"uint256"},{"internalType":"bool","name":"executed","type":"bool"}],"stateMutability":"view","type":"function"},{"inputs":[],"name":"withdraw","outputs":[],"stateMutability":"nonpayable","type":"function"}],"evm":{"bytecode":{"linkReferences":{},"object":"6080806040523461007e5733156100685760008054336001600160a01b03198216811783556040519290916001600160a01b0316907f8be0079c531659141344cd1fd0a4f28419497f9722a3daafe3b4186f6b6457e09080a3600180556117bf90816100848239f35b631e4fbdf760e01b815260006004820152602490fd5b600080fdfe608060409080825260048036101561001657600080fd5b600091823560e01c908163017501521461130f5750806308dbbb03146112eb57806315373e3d14611109578063189a5a1714611055578063208f2a311461101357806327c6f43e14610c2d5780633772060614610c0a5780633ccfd60b14610b4e5780633defb96214610af65780635c019d2e1461098d5780635dca14f1146107cb5780635df813301461077b5780636b51e9191461064c5780636da49b831461062d5780636f4a2cd014610527578063715018a6146104ca57806375340815146104ab578063817b1cd21461048c5780638da5cb5b14610464578063b1610d7e14610446578063b18ada6714610428578063bafb35811461039f578063c5167d50146102ef578063c6384071146102d0578063ee8a7c15146102b4578063f2fde38b14610226578063f3f43703146101e75763f98a4eca1461015857600080fd5b346101e35760203660031901126101e3578035908183526008602052838320908082015442106101a057509061019860ff600561019d940154161561162d565b611671565b80f35b606490602086519162461bcd60e51b8352820152601760248201527f566f74696e6720706572696f64206e6f7420656e6465640000000000000000006044820152fd5b5080fd5b5082903461022257602036600319011261022257356001600160a01b0381169081900361022257828291602094526009845220549051908152f35b8280fd5b508234610222576020366003190112610222576001600160a01b038235818116939192908490036102b05761025961156b565b831561029a57505082546001600160a01b0319811683178455167f8be0079c531659141344cd1fd0a4f28419497f9722a3daafe3b4186f6b6457e08380a380f35b51631e4fbdf760e01b8152908101849052602490fd5b8480fd5b8284346101e357816003193601126101e3576020905160338152f35b8284346101e357816003193601126101e3576020906005549051908152f35b5091346101e357816003193601126101e357815b600a5481101561039b57610316816114a8565b9054600391821b1c6001600160a01b0316808552600660205283852091820154909160ff91909116908161036b575b5090610357929161035c575b50611597565b610303565b610365906116d0565b38610351565b60059150015462093a808101809111610388574211610357610345565b634e487b7160e01b855260118652602485fd5b8280f35b5082903461022257602036600319011261022257356001600160a01b0381169081900361022257918192815260066020522060018101549061041e60028201549360ff600384015416906103fa6006600786015495016113c2565b9181519687968752602087015215159085015260a0606085015260a0840190611468565b9060808301520390f35b8284346101e357816003193601126101e3576020905162093a808152f35b8284346101e357816003193601126101e35760209051620151808152f35b8284346101e357816003193601126101e357905490516001600160a01b039091168152602090f35b5082903461022257826003193601126102225760209250549051908152f35b8284346101e357816003193601126101e3576020906003549051908152f35b82346105245780600319360112610524576104e361156b565b80546001600160a01b03198116825581906001600160a01b03167f8be0079c531659141344cd1fd0a4f28419497f9722a3daafe3b4186f6b6457e08280a380f35b80fd5b5082826003193601126102225761053c61156b565b60039182549081156105f85750340492805b600a548110156105f45780610565610598926114a8565b905490861b1c6001600160a01b0316808452600660209081528585208088015490919060ff1661059d575b505050611597565b61054e565b60077fe34918ff1c7084970068b53fd71ad6d8b04e9f15d3886cbf006443e6cdc52ea692016105cd8a82546115bc565b9055828652600981528686206105e48a82546115bc565b90558651898152a2868080610590565b5080f35b606490602084519162461bcd60e51b8352820152600f60248201526e4e6f20616374697665206e6f64657360881b6044820152fd5b8284346101e357816003193601126101e3576020906002549051908152f35b5090346105245780600319360112610524579190600392835461068661067182611771565b9161067e8651938461138a565b808352611771565b6020958287019491601f1901368637838491600a54925b8381106106ed57505050505083519485948186019282875251809352850193925b8281106106cd57505050500390f35b83516001600160a01b0316855286955093810193928101926001016106be565b6106fc819a979698999a6114a8565b90546001600160a01b0391841b1c81168752600688528a872083015460ff16610735575b5061072a90611597565b98979694959861069d565b61073e826114a8565b905490841b1c1661074e84611597565b9389518110156107685760051b890188015261072a610720565b634e487b7160e01b885260328752602488fd5b5082903461022257602036600319011261022257816080938235815260086020522060028101549260ff600560038401549484015493015416928151948552602085015283015215156060820152f35b5091346101e3576020806003193601126102225783356001600160a01b038116928382036102b0576107fb61156b565b8385526007835260ff8186205416156109555783855260068352808520916001830192835490678ac7230489e800009485831061091257678ac7230489e7ffff1983019283116108c657908260029255600881016108598154611597565b9055018054600a8111156108d95760091981019081116108c6577f51cf713376ddb1e5f5828bb6aa39d99de812176d62c3d3550bdc4e0b5e86e1a5979899509068056bc75e2d631000009291905b55106108b7575b5051908152a280f35b6108c0906116d0565b386108ae565b634e487b7160e01b895260118a52602489fd5b508798509068056bc75e2d63100000917f51cf713376ddb1e5f5828bb6aa39d99de812176d62c3d3550bdc4e0b5e86e1a59798906108a7565b845162461bcd60e51b8152808b01889052601b60248201527f496e73756666696369656e74207374616b6520746f20736c61736800000000006044820152606490fd5b5162461bcd60e51b81528086018390526013602482015272139bd91948191bd95cc81b9bdd08195e1a5cdd606a1b6044820152606490fd5b5091346101e35761099d366114f5565b9233835260066020926007845260ff818620541680610ae3575b6109c0906115ec565b3385528184528420019184519167ffffffffffffffff8311610ad057506109e78354611350565b601f8111610a8d575b5080601f8311600114610a2b5750839482939492610a20575b50508160011b916000199060031b1c191617905580f35b015190503880610a09565b90601f198316958486528286209286905b888210610a7557505083600195969710610a5c575b505050811b01905580f35b015160001960f88460031b161c19169055388080610a51565b80600185968294968601518155019501930190610a3c565b838552818520601f840160051c810191838510610ac6575b601f0160051c01905b818110610abb57506109f0565b858155600101610aae565b9091508190610aa5565b634e487b7160e01b855260419052602484fd5b508184528085206003015460ff166109b7565b8284346101e357816003193601126101e357338252600760205260ff818320541680610b39575b610b26906115ec565b3382526006602052600542918320015580f35b5060066020528082206003015460ff16610b1d565b508234610222578260031936011261022257610b686115c9565b338352600960205280832054918215610bd257503383526009602052828181205582808080853382f115610bc757519081527f8108595eb6bad3acefa9da467d90cc2217686d5c5ac85460f8b7849c840645fc60203392a26001805580f35b51913d9150823e3d90fd5b6020606492519162461bcd60e51b835282015260136024820152724e6f7468696e6720746f20776974686472617760681b6044820152fd5b8284346101e357816003193601126101e35760209051678ac7230489e800008152f35b5091610c38366114f5565b610c406115c9565b33835260206007815260ff8385205416610fdc5768056bc75e2d631000003410610fa557815115610f6f57825167ffffffffffffffff9390610120810185811182821017610f5c578252338152828101348152828201956064875287606084018181526080850142815260a086019042825260c08701998a52610d1f60e0880193858552896101008a019680885233815260068d52209760018060a01b03809a51166bffffffffffffffffffffffff60a01b8a5416178955519c60019d8e8a0155516002890155511515600388019060ff801983541691151516179055565b518c860155519760059889860155600685019051938451908111610f4957610d478254611350565b601f8111610f03575b50888c601f8311600114610e93579060089683610e88575b5050600019600383901b1c1916908b1b1790555b51600784015551910155338652600783528186209060ff19918683825416179055600a5468010000000000000000811015610e75578087610dc09201600a556114a8565b819291549060031b9133831b921b1916179055610dde600254611597565b600255610dec3488546115bc565b8755835493610dfa85611597565b8155848752600884528287206201518042018042116108c6577ff773bca07d020a1bc1fdd45ea3db573da547dd27180143afaf075c158a8475949697989982015501908154169055519233907f4088952a7c4abd9c2939cca45f355d176f11397a90660c553110c209d212b2ad8780a33483523392a2805580f35b634e487b7160e01b885260418952602488fd5b015190503880610d68565b8c9291601f1983168583528c8320925b8d828210610ede575050978360089910610ec5575b505050811b019055610d7c565b015160001960f88460031b161c19169055388080610eb8565b9192958a9487849397999a9b9c015181550195019301908e9492989796959391610ea3565b828d52898d20601f83018c1c8101918b8410610f3f575b601f018c1c01908c908e5b838210610f3457505050610d50565b8155018c908e610f25565b9091508190610f1a565b634e487b7160e01b8c5260418d5260248cfd5b634e487b7160e01b875260418852602487fd5b8460649184519162461bcd60e51b83528201526011602482015270115b991c1bda5b9d081c995c5d5a5c9959607a1b6044820152fd5b8460649184519162461bcd60e51b83528201526012602482015271496e73756666696369656e74207374616b6560701b6044820152fd5b8460649184519162461bcd60e51b83528201526012602482015271105b1c9958591e481c9959da5cdd195c995960721b6044820152fd5b50829034610222576020366003190112610222573591600a54831015610524575061103f6020926114a8565b905491519160018060a01b039160031b1c168152f35b50919034610524576020366003190112610524576001600160a01b03908335828116908190036101e357908391815260066020522090815416916110f960018301549460028401549060ff600386015416908501546005860154916110bc600688016113c2565b93600860078901549801549680519a8b9a8b5260208b015289015215156060880152608087015260a08601526101208060c0870152850190611468565b9160e08401526101008301520390f35b5082903461022257816003193601126102225780359160243590811515908183036112e7573386526020906007825260ff8188205416806112d3575b61114e906115ec565b85875260088252808720938585015442101561129a5733885284835260ff82892054166112675784939287927fe71fcdac32df1877c1700e7bda2a03157e20993363a28fc35ac495cefc76e4d4926111b060ff600561120f9a0154161561162d565b338b52868352818b20600160ff198254161790556001870183526111e281838d209060ff801983541691151516179055565b1561125257600286016111f58154611597565b90555b519384523393a360036002820154910154906115bc565b906003549060338202918083046033149015171561123f5750606490041115611236575080f35b61019d90611671565b634e487b7160e01b855260119052602484fd5b600386016112608154611597565b90556111f8565b815162461bcd60e51b8152808701849052600d60248201526c105b1c9958591e481d9bdd1959609a1b6044820152606490fd5b815162461bcd60e51b81528087018490526013602482015272159bdd1a5b99c81c195c9a5bd908195b991959606a1b6044820152606490fd5b50600682528087206003015460ff16611145565b8580fd5b8284346101e357816003193601126101e3576020905168056bc75e2d631000008152f35b918491503461134c57602036600319011261134c57356001600160a01b0381169081900361134c5783526007602090815292205460ff1615158152f35b8380fd5b90600182811c92168015611380575b602083101461136a57565b634e487b7160e01b600052602260045260246000fd5b91607f169161135f565b90601f8019910116810190811067ffffffffffffffff8211176113ac57604052565b634e487b7160e01b600052604160045260246000fd5b90604051918260008254926113d684611350565b9081845260019485811690816000146114455750600114611402575b50506114009250038361138a565b565b9093915060005260209081600020936000915b81831061142d575050611400935082010138806113f2565b85548884018501529485019487945091830191611415565b91505061140094506020925060ff191682840152151560051b82010138806113f2565b919082519283825260005b848110611494575050826000602080949584010152601f8019910116010190565b602081830181015184830182015201611473565b600a548110156114df57600a6000527fc65a7bb8d6351c1cf70c95a316cc6a92839c986682d98bc35f958f4883f9d2a80190600090565b634e487b7160e01b600052603260045260246000fd5b60206003198201126115665767ffffffffffffffff60043581811161156657826023820112156115665780600401359182116113ac5760405192611543601f8401601f19166020018561138a565b828452602483830101116115665781600092602460209301838601378301015290565b600080fd5b6000546001600160a01b0316330361157f57565b60405163118cdaa760e01b8152336004820152602490fd5b60001981146115a65760010190565b634e487b7160e01b600052601160045260246000fd5b919082018092116115a657565b6002600154146115da576002600155565b604051633ee5aeb560e01b8152600490fd5b156115f357565b60405162461bcd60e51b81526020600482015260126024820152714e6f7420616e20616374697665206e6f646560701b6044820152606490fd5b1561163457565b60405162461bcd60e51b8152602060048201526015602482015274159bdd1948185b1c9958591e48195e1958dd5d1959605a1b6044820152606490fd5b8060005260086020527fcf40a1f621c94c9d8fd190570ee1606e7dedeb8fa422057b24f5ce1ea14111fc6020604060002060058101600160ff19825416179055600360028201549101546116c581836115bc565b5060405191118152a2565b6001600160a01b031660008181526006602052604081206003808201805460ff1916905554801561175d5760001901600355600101805483835260096020526040832080549091611720916115bc565b9055805460045490810390811161175d576004558190557fd9957750e6343405c319eb99a4ec67fa11cfd66969318cbc71aa2d45fa53a3499080a2565b634e487b7160e01b83526011600452602483fd5b67ffffffffffffffff81116113ac5760051b6020019056fea2646970667358221220bf0816a81c640cc05d28631851d1c6b41b81d422a3f350768191f5e61c83bf8e64736f6c63430008140033","opcodes":"PUSH1 0x80 DUP1 PUSH1 0x40 MSTORE CALLVALUE PUSH2 0x7E JUMPI CALLER ISZERO PUSH2 0x68 JUMPI PUSH1 0x0 DUP1 SLOAD CALLER PUSH1 0x1 PUSH1 0x1 PUSH1 0xA0 SHL SUB NOT DUP3 AND DUP2 OR DUP4 SSTORE PUSH1 0x40 MLOAD SWAP3 SWAP1 SWAP2 PUSH1 0x1 PUSH1 0x1 PUSH1 0xA0 SHL SUB AND SWAP1 PUSH32 0x8BE0079C531659141344CD1FD0A4F28419497F9722A3DAAFE3B4186F6B6457E0 SWAP1 DUP1 LOG3 PUSH1 0x1 DUP1 SSTORE PUSH2 0x17BF SWAP1 DUP2 PUSH2 0x84 DUP3 CODECOPY RETURN JUMPDEST PUSH4 0x1E4FBDF7 PUSH1 0xE0 SHL DUP2 MSTORE PUSH1 0x0 PUSH1 0x4 DUP3 ADD MSTORE PUSH1 0x24 SWAP1 REVERT JUMPDEST PUSH1 0x0 DUP1 REVERT INVALID PUSH1 0x80 PUSH1 0x40 SWAP1 DUP1 DUP3 MSTORE PUSH1 0x4 DUP1 CALLDATASIZE LT ISZERO PUSH2 0x16 JUMPI PUSH1 0x0 DUP1 REVERT JUMPDEST PUSH1 0x0 SWAP2 DUP3 CALLDATALOAD PUSH1 0xE0 SHR SWAP1 DUP2 PUSH4 0x1750152 EQ PUSH2 0x130F JUMPI POP DUP1 PUSH4 0x8DBBB03 EQ PUSH2 0x12EB JUMPI DUP1 PUSH4 0x15373E3D EQ PUSH2 0x1109 JUMPI DUP1 PUSH4 0x189A5A17 EQ PUSH2 0x1055 JUMPI DUP1 PUSH4 0x208F2A31 EQ PUSH2 0x1013 JUMPI DUP1 PUSH4 0x27C6F43E EQ PUSH2 0xC2D JUMPI DUP1 PUSH4 0x37720606 EQ PUSH2 0xC0A JUMPI DUP1 PUSH4 0x3CCFD60B EQ PUSH2 0xB4E JUMPI DUP1 PUSH4 0x3DEFB962 EQ PUSH2 0xAF6 JUMPI DUP1 PUSH4 0x5C019D2E EQ PUSH2 0x98D JUMPI DUP1 PUSH4 0x5DCA14F1 EQ PUSH2 0x7CB JUMPI DUP1 PUSH4 0x5DF81330 EQ PUSH2 0x77B JUMPI DUP1 PUSH4 0x6B51E919 EQ PUSH2 0x64C JUMPI DUP1 PUSH4 0x6DA49B83 EQ PUSH2 0x62D JUMPI DUP1 PUSH4 0x6F4A2CD0 EQ PUSH2 0x527 JUMPI DUP1 PUSH4 0x715018A6 EQ PUSH2 0x4CA JUMPI DUP1 PUSH4 0x75340815 EQ PUSH2 0x4AB JUMPI DUP1 PUSH4 0x817B1CD2 EQ PUSH2 0x48C JUMPI DUP1 PUSH4 0x8DA5CB5B EQ PUSH2 0x464 JUMPI DUP1 PUSH4 0xB1610D7E EQ PUSH2 0x446 JUMPI DUP1 PUSH4 0xB18ADA67 EQ PUSH2 0x428 JUMPI DUP1 PUSH4 0xBAFB3581 EQ PUSH2 0x39F JUMPI DUP1 PUSH4 0xC5167D50 EQ PUSH2 0x2EF JUMPI DUP1 PUSH4 0xC6384071 EQ PUSH2 0x2D0 JUMPI DUP1 PUSH4 0xEE8A7C15 EQ PUSH2 0x2B4 JUMPI DUP1 PUSH4 0xF2FDE38B EQ PUSH2 0x226 JUMPI DUP1 PUSH4 0xF3F43703 EQ PUSH2 0x1E7 JUMPI PUSH4 0xF98A4ECA EQ PUSH2 0x158 JUMPI PUSH1 0x0 DUP1 REVERT JUMPDEST CALLVALUE PUSH2 0x1E3 JUMPI PUSH1 0x20 CALLDATASIZE PUSH1 0x3 NOT ADD SLT PUSH2 0x1E3 JUMPI DUP1 CALLDATALOAD SWAP1 DUP2 DUP4 MSTORE PUSH1 0x8 PUSH1 0x20 MSTORE DUP4 DUP4 KECCAK256 SWAP1 DUP1 DUP3 ADD SLOAD TIMESTAMP LT PUSH2 0x1A0 JUMPI POP SWAP1 PUSH2 0x198 PUSH1 0xFF PUSH1 0x5 PUSH2 0x19D SWAP5 ADD SLOAD AND ISZERO PUSH2 0x162D JUMP JUMPDEST PUSH2 0x1671 JUMP JUMPDEST DUP1 RETURN JUMPDEST PUSH1 0x64 SWAP1 PUSH1 0x20 DUP7 MLOAD SWAP2 PUSH3 0x461BCD PUSH1 0xE5 SHL DUP4 MSTORE DUP3 ADD MSTORE PUSH1 0x17 PUSH1 0x24 DUP3 ADD MSTORE PUSH32 0x566F74696E6720706572696F64206E6F7420656E646564000000000000000000 PUSH1 0x44 DUP3 ADD MSTORE REVERT JUMPDEST POP DUP1 REVERT JUMPDEST POP DUP3 SWAP1 CALLVALUE PUSH2 0x222 JUMPI PUSH1 0x20 CALLDATASIZE PUSH1 0x3 NOT ADD SLT PUSH2 0x222 JUMPI CALLDATALOAD PUSH1 0x1 PUSH1 0x1 PUSH1 0xA0 SHL SUB DUP2 AND SWAP1 DUP2 SWAP1 SUB PUSH2 0x222 JUMPI DUP3 DUP3 SWAP2 PUSH1 0x20 SWAP5 MSTORE PUSH1 0x9 DUP5 MSTORE KECCAK256 SLOAD SWAP1 MLOAD SWAP1 DUP2 MSTORE RETURN JUMPDEST DUP3 DUP1 REVERT JUMPDEST POP DUP3 CALLVALUE PUSH2 0x222 JUMPI PUSH1 0x20 CALLDATASIZE PUSH1 0x3 NOT ADD SLT PUSH2 0x222 JUMPI PUSH1 0x1 PUSH1 0x1 PUSH1 0xA0 SHL SUB DUP3 CALLDATALOAD DUP2 DUP2 AND SWAP4 SWAP2 SWAP3 SWAP1 DUP5 SWAP1 SUB PUSH2 0x2B0 JUMPI PUSH2 0x259 PUSH2 0x156B JUMP JUMPDEST DUP4 ISZERO PUSH2 0x29A JUMPI POP POP DUP3 SLOAD PUSH1 0x1 PUSH1 0x1 PUSH1 0xA0 SHL SUB NOT DUP2 AND DUP4 OR DUP5 SSTORE AND PUSH32 0x8BE0079C531659141344CD1FD0A4F28419497F9722A3DAAFE3B4186F6B6457E0 DUP4 DUP1 LOG3 DUP1 RETURN JUMPDEST MLOAD PUSH4 0x1E4FBDF7 PUSH1 0xE0 SHL DUP2 MSTORE SWAP1 DUP2 ADD DUP5 SWAP1 MSTORE PUSH1 0x24 SWAP1 REVERT JUMPDEST DUP5 DUP1 REVERT JUMPDEST DUP3 DUP5 CALLVALUE PUSH2 0x1E3 JUMPI DUP2 PUSH1 0x3 NOT CALLDATASIZE ADD SLT PUSH2 0x1E3 JUMPI PUSH1 0x20 SWAP1 MLOAD PUSH1 0x33 DUP2 MSTORE RETURN JUMPDEST DUP3 DUP5 CALLVALUE PUSH2 0x1E3 JUMPI DUP2 PUSH1 0x3 NOT CALLDATASIZE ADD SLT PUSH2 0x1E3 JUMPI PUSH1 0x20 SWAP1 PUSH1 0x5 SLOAD SWAP1 MLOAD SWAP1 DUP2 MSTORE RETURN JUMPDEST POP SWAP2 CALLVALUE PUSH2 0x1E3 JUMPI DUP2 PUSH1 0x3 NOT CALLDATASIZE ADD SLT PUSH2 0x1E3 JUMPI DUP2 JUMPDEST PUSH1 0xA SLOAD DUP2 LT ISZERO PUSH2 0x39B JUMPI PUSH2 0x316 DUP2 PUSH2 0x14A8 JUMP JUMPDEST SWAP1 SLOAD PUSH1 0x3 SWAP2 DUP3 SHL SHR PUSH1 0x1 PUSH1 0x1 PUSH1 0xA0 SHL SUB AND DUP1 DUP6 MSTORE PUSH1 0x6 PUSH1 0x20 MSTORE DUP4 DUP6 KECCAK256 SWAP2 DUP3 ADD SLOAD SWAP1 SWAP2 PUSH1 0xFF SWAP2 SWAP1 SWAP2 AND SWAP1 DUP2 PUSH2 0x36B JUMPI JUMPDEST POP SWAP1 PUSH2 0x357 SWAP3 SWAP2 PUSH2 0x35C JUMPI JUMPDEST POP PUSH2 0x1597 JUMP JUMPDEST PUSH2 0x303 JUMP JUMPDEST PUSH2 0x365 SWAP1 PUSH2 0x16D0 JUMP JUMPDEST CODESIZE PUSH2 0x351 JUMP JUMPDEST PUSH1 0x5 SWAP2 POP ADD SLOAD PUSH3 0x93A80 DUP2 ADD DUP1 SWAP2 GT PUSH2 0x388 JUMPI TIMESTAMP GT PUSH2 0x357 PUSH2 0x345 JUMP JUMPDEST PUSH4 0x4E487B71 PUSH1 0xE0 SHL DUP6 MSTORE PUSH1 0x11 DUP7 MSTORE PUSH1 0x24 DUP6 REVERT JUMPDEST DUP3 DUP1 RETURN JUMPDEST POP DUP3 SWAP1 CALLVALUE PUSH2 0x222 JUMPI PUSH1 0x20 CALLDATASIZE PUSH1 0x3 NOT ADD SLT PUSH2 0x222 JUMPI CALLDATALOAD PUSH1 0x1 PUSH1 0x1 PUSH1 0xA0 SHL SUB DUP2 AND SWAP1 DUP2 SWAP1 SUB PUSH2 0x222 JUMPI SWAP2 DUP2 SWAP3 DUP2 MSTORE PUSH1 0x6 PUSH1 0x20 MSTORE KECCAK256 PUSH1 0x1 DUP2 ADD SLOAD SWAP1 PUSH2 0x41E PUSH1 0x2 DUP3 ADD SLOAD SWAP4 PUSH1 0xFF PUSH1 0x3 DUP5 ADD SLOAD AND SWAP1 PUSH2 0x3FA PUSH1 0x6 PUSH1 0x7 DUP7 ADD SLOAD SWAP6 ADD PUSH2 0x13C2 JUMP JUMPDEST SWAP2 DUP2 MLOAD SWAP7 DUP8 SWAP7 DUP8 MSTORE PUSH1 0x20 DUP8 ADD MSTORE ISZERO ISZERO SWAP1 DUP6 ADD MSTORE PUSH1 0xA0 PUSH1 0x60 DUP6 ADD MSTORE PUSH1 0xA0 DUP5 ADD SWAP1 PUSH2 0x1468 JUMP JUMPDEST SWAP1 PUSH1 0x80 DUP4 ADD MSTORE SUB SWAP1 RETURN JUMPDEST DUP3 DUP5 CALLVALUE PUSH2 0x1E3 JUMPI DUP2 PUSH1 0x3 NOT CALLDATASIZE ADD SLT PUSH2 0x1E3 JUMPI PUSH1 0x20 SWAP1 MLOAD PUSH3 0x93A80 DUP2 MSTORE RETURN JUMPDEST DUP3 DUP5 CALLVALUE PUSH2 0x1E3 JUMPI DUP2 PUSH1 0x3 NOT CALLDATASIZE ADD SLT PUSH2 0x1E3 JUMPI PUSH1 0x20 SWAP1 MLOAD PUSH3 0x15180 DUP2 MSTORE RETURN JUMPDEST DUP3 DUP5 CALLVALUE PUSH2 0x1E3 JUMPI DUP2 PUSH1 0x3 NOT CALLDATASIZE ADD SLT PUSH2 0x1E3 JUMPI SWAP1 SLOAD SWAP1 MLOAD PUSH1 0x1 PUSH1 0x1 PUSH1 0xA0 SHL SUB SWAP1 SWAP2 AND DUP2 MSTORE PUSH1 0x20 SWAP1 RETURN JUMPDEST POP DUP3 SWAP1 CALLVALUE PUSH2 0x222 JUMPI DUP3 PUSH1 0x3 NOT CALLDATASIZE ADD SLT PUSH2 0x222 JUMPI PUSH1 0x20 SWAP3 POP SLOAD SWAP1 MLOAD SWAP1 DUP2 MSTORE RETURN JUMPDEST DUP3 DUP5 CALLVALUE PUSH2 0x1E3 JUMPI DUP2 PUSH1 0x3 NOT CALLDATASIZE ADD SLT PUSH2 0x1E3 JUMPI PUSH1 0x20 SWAP1 PUSH1 0x3 SLOAD SWAP1 MLOAD SWAP1 DUP2 MSTORE RETURN JUMPDEST DUP3 CALLVALUE PUSH2 0x524 JUMPI DUP1 PUSH1 0x3 NOT CALLDATASIZE ADD SLT PUSH2 0x524 JUMPI PUSH2 0x4E3 PUSH2 0x156B JUMP JUMPDEST DUP1 SLOAD PUSH1 0x1 PUSH1 0x1 PUSH1 0xA0 SHL SUB NOT DUP2 AND DUP3 SSTORE DUP2 SWAP1 PUSH1 0x1 PUSH1 0x1 PUSH1 0xA0 SHL SUB AND PUSH32 0x8BE0079C531659141344CD1FD0A4F28419497F9722A3DAAFE3B4186F6B6457E0 DUP3 DUP1 LOG3 DUP1 RETURN JUMPDEST DUP1 REVERT JUMPDEST POP DUP3 DUP3 PUSH1 0x3 NOT CALLDATASIZE ADD SLT PUSH2 0x222 JUMPI PUSH2 0x53C PUSH2 0x156B JUMP JUMPDEST PUSH1 0x3 SWAP2 DUP3 SLOAD SWAP1 DUP2 ISZERO PUSH2 0x5F8 JUMPI POP CALLVALUE DIV SWAP3 DUP1 JUMPDEST PUSH1 0xA SLOAD DUP2 LT ISZERO PUSH2 0x5F4 JUMPI DUP1 PUSH2 0x565 PUSH2 0x598 SWAP3 PUSH2 0x14A8 JUMP JUMPDEST SWAP1 SLOAD SWAP1 DUP7 SHL SHR PUSH1 0x1 PUSH1 0x1 PUSH1 0xA0 SHL SUB AND DUP1 DUP5 MSTORE PUSH1 0x6 PUSH1 0x20 SWAP1 DUP2 MSTORE DUP6 DUP6 KECCAK256 DUP1 DUP9 ADD SLOAD SWAP1 SWAP2 SWAP1 PUSH1 0xFF AND PUSH2 0x59D JUMPI JUMPDEST POP POP POP PUSH2 0x1597 JUMP JUMPDEST PUSH2 0x54E JUMP JUMPDEST PUSH1 0x7 PUSH32 0xE34918FF1C7084970068B53FD71AD6D8B04E9F15D3886CBF006443E6CDC52EA6 SWAP3 ADD PUSH2 0x5CD DUP11 DUP3 SLOAD PUSH2 0x15BC JUMP JUMPDEST SWAP1 SSTORE DUP3 DUP7 MSTORE PUSH1 0x9 DUP2 MSTORE DUP7 DUP7 KECCAK256 PUSH2 0x5E4 DUP11 DUP3 SLOAD PUSH2 0x15BC JUMP JUMPDEST SWAP1 SSTORE DUP7 MLOAD DUP10 DUP2 MSTORE LOG2 DUP7 DUP1 DUP1 PUSH2 0x590 JUMP JUMPDEST POP DUP1 RETURN JUMPDEST PUSH1 0x64 SWAP1 PUSH1 0x20 DUP5 MLOAD SWAP2 PUSH3 0x461BCD PUSH1 0xE5 SHL DUP4 MSTORE DUP3 ADD MSTORE PUSH1 0xF PUSH1 0x24 DUP3 ADD MSTORE PUSH15 0x4E6F20616374697665206E6F646573 PUSH1 0x88 SHL PUSH1 0x44 DUP3 ADD MSTORE REVERT JUMPDEST DUP3 DUP5 CALLVALUE PUSH2 0x1E3 JUMPI DUP2 PUSH1 0x3 NOT CALLDATASIZE ADD SLT PUSH2 0x1E3 JUMPI PUSH1 0x20 SWAP1 PUSH1 0x2 SLOAD SWAP1 MLOAD SWAP1 DUP2 MSTORE RETURN JUMPDEST POP SWAP1 CALLVALUE PUSH2 0x524 JUMPI DUP1 PUSH1 0x3 NOT CALLDATASIZE ADD SLT PUSH2 0x524 JUMPI SWAP2 SWAP1 PUSH1 0x3 SWAP3 DUP4 SLOAD PUSH2 0x686 PUSH2 0x671 DUP3 PUSH2 0x1771 JUMP JUMPDEST SWAP2 PUSH2 0x67E DUP7 MLOAD SWAP4 DUP5 PUSH2 0x138A JUMP JUMPDEST DUP1 DUP4 MSTORE PUSH2 0x1771 JUMP JUMPDEST PUSH1 0x20 SWAP6 DUP3 DUP8 ADD SWAP5 SWAP2 PUSH1 0x1F NOT ADD CALLDATASIZE DUP7 CALLDATACOPY DUP4 DUP5 SWAP2 PUSH1 0xA SLOAD SWAP3 JUMPDEST DUP4 DUP2 LT PUSH2 0x6ED JUMPI POP POP POP POP POP DUP4 MLOAD SWAP5 DUP6 SWAP5 DUP2 DUP7 ADD SWAP3 DUP3 DUP8 MSTORE MLOAD DUP1 SWAP4 MSTORE DUP6 ADD SWAP4 SWAP3 JUMPDEST DUP3 DUP2 LT PUSH2 0x6CD JUMPI POP POP POP POP SUB SWAP1 RETURN JUMPDEST DUP4 MLOAD PUSH1 0x1 PUSH1 0x1 PUSH1 0xA0 SHL SUB AND DUP6 MSTORE DUP7 SWAP6 POP SWAP4 DUP2 ADD SWAP4 SWAP3 DUP2 ADD SWAP3 PUSH1 0x1 ADD PUSH2 0x6BE JUMP JUMPDEST PUSH2 0x6FC DUP2 SWAP11 SWAP8 SWAP7 SWAP9 SWAP10 SWAP11 PUSH2 0x14A8 JUMP JUMPDEST SWAP1 SLOAD PUSH1 0x1 PUSH1 0x1 PUSH1 0xA0 SHL SUB SWAP2 DUP5 SHL SHR DUP2 AND DUP8 MSTORE PUSH1 0x6 DUP9 MSTORE DUP11 DUP8 KECCAK256 DUP4 ADD SLOAD PUSH1 0xFF AND PUSH2 0x735 JUMPI JUMPDEST POP PUSH2 0x72A SWAP1 PUSH2 0x1597 JUMP JUMPDEST SWAP9 SWAP8 SWAP7 SWAP5 SWAP6 SWAP9 PUSH2 0x69D JUMP JUMPDEST PUSH2 0x73E DUP3 PUSH2 0x14A8 JUMP JUMPDEST SWAP1 SLOAD SWAP1 DUP5 SHL SHR AND PUSH2 0x74E DUP5 PUSH2 0x1597 JUMP JUMPDEST SWAP4 DUP10 MLOAD DUP2 LT ISZERO PUSH2 0x768 JUMPI PUSH1 0x5 SHL DUP10 ADD DUP9 ADD MSTORE PUSH2 0x72A PUSH2 0x720 JUMP JUMPDEST PUSH4 0x4E487B71 PUSH1 0xE0 SHL DUP9 MSTORE PUSH1 0x32 DUP8 MSTORE PUSH1 0x24 DUP9 REVERT JUMPDEST POP DUP3 SWAP1 CALLVALUE PUSH2 0x222 JUMPI PUSH1 0x20 CALLDATASIZE PUSH1 0x3 NOT ADD SLT PUSH2 0x222 JUMPI DUP2 PUSH1 0x80 SWAP4 DUP3 CALLDATALOAD DUP2 MSTORE PUSH1 0x8 PUSH1 0x20 MSTORE KECCAK256 PUSH1 0x2 DUP2 ADD SLOAD SWAP3 PUSH1 0xFF PUSH1 0x5 PUSH1 0x3 DUP5 ADD SLOAD SWAP5 DUP5 ADD SLOAD SWAP4 ADD SLOAD AND SWAP3 DUP2 MLOAD SWAP5 DUP6 MSTORE PUSH1 0x20 DUP6 ADD MSTORE DUP4 ADD MSTORE ISZERO ISZERO PUSH1 0x60 DUP3 ADD MSTORE RETURN JUMPDEST POP SWAP2 CALLVALUE PUSH2 0x1E3 JUMPI PUSH1 0x20 DUP1 PUSH1 0x3 NOT CALLDATASIZE ADD SLT PUSH2 0x222 JUMPI DUP4 CALLDATALOAD PUSH1 0x1 PUSH1 0x1 PUSH1 0xA0 SHL SUB DUP2 AND SWAP3 DUP4 DUP3 SUB PUSH2 0x2B0 JUMPI PUSH2 0x7FB PUSH2 0x156B JUMP JUMPDEST DUP4 DUP6 MSTORE PUSH1 0x7 DUP4 MSTORE PUSH1 0xFF DUP2 DUP7 KECCAK256 SLOAD AND ISZERO PUSH2 0x955 JUMPI DUP4 DUP6 MSTORE PUSH1 0x6 DUP4 MSTORE DUP1 DUP6 KECCAK256 SWAP2 PUSH1 0x1 DUP4 ADD SWAP3 DUP4 SLOAD SWAP1 PUSH8 0x8AC7230489E80000 SWAP5 DUP6 DUP4 LT PUSH2 0x912 JUMPI PUSH8 0x8AC7230489E7FFFF NOT DUP4 ADD SWAP3 DUP4 GT PUSH2 0x8C6 JUMPI SWAP1 DUP3 PUSH1 0x2 SWAP3 SSTORE PUSH1 0x8 DUP2 ADD PUSH2 0x859 DUP2 SLOAD PUSH2 0x1597 JUMP JUMPDEST SWAP1 SSTORE ADD DUP1 SLOAD PUSH1 0xA DUP2 GT ISZERO PUSH2 0x8D9 JUMPI PUSH1 0x9 NOT DUP2 ADD SWAP1 DUP2 GT PUSH2 0x8C6 JUMPI PUSH32 0x51CF713376DDB1E5F5828BB6AA39D99DE812176D62C3D3550BDC4E0B5E86E1A5 SWAP8 SWAP9 SWAP10 POP SWAP1 PUSH9 0x56BC75E2D63100000 SWAP3 SWAP2 SWAP1 JUMPDEST SSTORE LT PUSH2 0x8B7 JUMPI JUMPDEST POP MLOAD SWAP1 DUP2 MSTORE LOG2 DUP1 RETURN JUMPDEST PUSH2 0x8C0 SWAP1 PUSH2 0x16D0 JUMP JUMPDEST CODESIZE PUSH2 0x8AE JUMP JUMPDEST PUSH4 0x4E487B71 PUSH1 0xE0 SHL DUP10 MSTORE PUSH1 0x11 DUP11 MSTORE PUSH1 0x24 DUP10 REVERT JUMPDEST POP DUP8 SWAP9 POP SWAP1 PUSH9 0x56BC75E2D63100000 SWAP2 PUSH32 0x51CF713376DDB1E5F5828BB6AA39D99DE812176D62C3D3550BDC4E0B5E86E1A5 SWAP8 SWAP9 SWAP1 PUSH2 0x8A7 JUMP JUMPDEST DUP5 MLOAD PUSH3 0x461BCD PUSH1 0xE5 SHL DUP2 MSTORE DUP1 DUP12 ADD DUP9 SWAP1 MSTORE PUSH1 0x1B PUSH1 0x24 DUP3 ADD MSTORE PUSH32 0x496E73756666696369656E74207374616B6520746F20736C6173680000000000 PUSH1 0x44 DUP3 ADD MSTORE PUSH1 0x64 SWAP1 REVERT JUMPDEST MLOAD PUSH3 0x461BCD PUSH1 0xE5 SHL DUP2 MSTORE DUP1 DUP7 ADD DUP4 SWAP1 MSTORE PUSH1 0x13 PUSH1 0x24 DUP3 ADD MSTORE PUSH19 0x139BD91948191BD95CC81B9BDD08195E1A5CDD PUSH1 0x6A SHL PUSH1 0x44 DUP3 ADD MSTORE PUSH1 0x64 SWAP1 REVERT JUMPDEST POP SWAP2 CALLVALUE PUSH2 0x1E3 JUMPI PUSH2 0x99D CALLDATASIZE PUSH2 0x14F5 JUMP JUMPDEST SWAP3 CALLER DUP4 MSTORE PUSH1 0x6 PUSH1 0x20 SWAP3 PUSH1 0x7 DUP5 MSTORE PUSH1 0xFF DUP2 DUP7 KECCAK256 SLOAD AND DUP1 PUSH2 0xAE3 JUMPI JUMPDEST PUSH2 0x9C0 SWAP1 PUSH2 0x15EC JUMP JUMPDEST CALLER DUP6 MSTORE DUP2 DUP5 MSTORE DUP5 KECCAK256 ADD SWAP2 DUP5 MLOAD SWAP2 PUSH8 0xFFFFFFFFFFFFFFFF DUP4 GT PUSH2 0xAD0 JUMPI POP PUSH2 0x9E7 DUP4 SLOAD PUSH2 0x1350 JUMP JUMPDEST PUSH1 0x1F DUP2 GT PUSH2 0xA8D JUMPI JUMPDEST POP DUP1 PUSH1 0x1F DUP4 GT PUSH1 0x1 EQ PUSH2 0xA2B JUMPI POP DUP4 SWAP5 DUP3 SWAP4 SWAP5 SWAP3 PUSH2 0xA20 JUMPI JUMPDEST POP POP DUP2 PUSH1 0x1 SHL SWAP2 PUSH1 0x0 NOT SWAP1 PUSH1 0x3 SHL SHR NOT AND OR SWAP1 SSTORE DUP1 RETURN JUMPDEST ADD MLOAD SWAP1 POP CODESIZE DUP1 PUSH2 0xA09 JUMP JUMPDEST SWAP1 PUSH1 0x1F NOT DUP4 AND SWAP6 DUP5 DUP7 MSTORE DUP3 DUP7 KECCAK256 SWAP3 DUP7 SWAP1 JUMPDEST DUP9 DUP3 LT PUSH2 0xA75 JUMPI POP POP DUP4 PUSH1 0x1 SWAP6 SWAP7 SWAP8 LT PUSH2 0xA5C JUMPI JUMPDEST POP POP POP DUP2 SHL ADD SWAP1 SSTORE DUP1 RETURN JUMPDEST ADD MLOAD PUSH1 0x0 NOT PUSH1 0xF8 DUP5 PUSH1 0x3 SHL AND SHR NOT AND SWAP1 SSTORE CODESIZE DUP1 DUP1 PUSH2 0xA51 JUMP JUMPDEST DUP1 PUSH1 0x1 DUP6 SWAP7 DUP3 SWAP5 SWAP7 DUP7 ADD MLOAD DUP2 SSTORE ADD SWAP6 ADD SWAP4 ADD SWAP1 PUSH2 0xA3C JUMP JUMPDEST DUP4 DUP6 MSTORE DUP2 DUP6 KECCAK256 PUSH1 0x1F DUP5 ADD PUSH1 0x5 SHR DUP2 ADD SWAP2 DUP4 DUP6 LT PUSH2 0xAC6 JUMPI JUMPDEST PUSH1 0x1F ADD PUSH1 0x5 SHR ADD SWAP1 JUMPDEST DUP2 DUP2 LT PUSH2 0xABB JUMPI POP PUSH2 0x9F0 JUMP JUMPDEST DUP6 DUP2 SSTORE PUSH1 0x1 ADD PUSH2 0xAAE JUMP JUMPDEST SWAP1 SWAP2 POP DUP2 SWAP1 PUSH2 0xAA5 JUMP JUMPDEST PUSH4 0x4E487B71 PUSH1 0xE0 SHL DUP6 MSTORE PUSH1 0x41 SWAP1 MSTORE PUSH1 0x24 DUP5 REVERT JUMPDEST POP DUP2 DUP5 MSTORE DUP1 DUP6 KECCAK256 PUSH1 0x3 ADD SLOAD PUSH1 0xFF AND PUSH2 0x9B7 JUMP JUMPDEST DUP3 DUP5 CALLVALUE PUSH2 0x1E3 JUMPI DUP2 PUSH1 0x3 NOT CALLDATASIZE ADD SLT PUSH2 0x1E3 JUMPI CALLER DUP3 MSTORE PUSH1 0x7 PUSH1 0x20 MSTORE PUSH1 0xFF DUP2 DUP4 KECCAK256 SLOAD AND DUP1 PUSH2 0xB39 JUMPI JUMPDEST PUSH2 0xB26 SWAP1 PUSH2 0x15EC JUMP JUMPDEST CALLER DUP3 MSTORE PUSH1 0x6 PUSH1 0x20 MSTORE PUSH1 0x5 TIMESTAMP SWAP2 DUP4 KECCAK256 ADD SSTORE DUP1 RETURN JUMPDEST POP PUSH1 0x6 PUSH1 0x20 MSTORE DUP1 DUP3 KECCAK256 PUSH1 0x3 ADD SLOAD PUSH1 0xFF AND PUSH2 0xB1D JUMP JUMPDEST POP DUP3 CALLVALUE PUSH2 0x222 JUMPI DUP3 PUSH1 0x3 NOT CALLDATASIZE ADD SLT PUSH2 0x222 JUMPI PUSH2 0xB68 PUSH2 0x15C9 JUMP JUMPDEST CALLER DUP4 MSTORE PUSH1 0x9 PUSH1 0x20 MSTORE DUP1 DUP4 KECCAK256 SLOAD SWAP2 DUP3 ISZERO PUSH2 0xBD2 JUMPI POP CALLER DUP4 MSTORE PUSH1 0x9 PUSH1 0x20 MSTORE DUP3 DUP2 DUP2 KECCAK256 SSTORE DUP3 DUP1 DUP1 DUP1 DUP6 CALLER DUP3 CALL ISZERO PUSH2 0xBC7 JUMPI MLOAD SWAP1 DUP2 MSTORE PUSH32 0x8108595EB6BAD3ACEFA9DA467D90CC2217686D5C5AC85460F8B7849C840645FC PUSH1 0x20 CALLER SWAP3 LOG2 PUSH1 0x1 DUP1 SSTORE DUP1 RETURN JUMPDEST MLOAD SWAP2 RETURNDATASIZE SWAP2 POP DUP3 RETURNDATACOPY RETURNDATASIZE SWAP1 REVERT JUMPDEST PUSH1 0x20 PUSH1 0x64 SWAP3 MLOAD SWAP2 PUSH3 0x461BCD PUSH1 0xE5 SHL DUP4 MSTORE DUP3 ADD MSTORE PUSH1 0x13 PUSH1 0x24 DUP3 ADD MSTORE PUSH19 0x4E6F7468696E6720746F207769746864726177 PUSH1 0x68 SHL PUSH1 0x44 DUP3 ADD MSTORE REVERT JUMPDEST DUP3 DUP5 CALLVALUE PUSH2 0x1E3 JUMPI DUP2 PUSH1 0x3 NOT CALLDATASIZE ADD SLT PUSH2 0x1E3 JUMPI PUSH1 0x20 SWAP1 MLOAD PUSH8 0x8AC7230489E80000 DUP2 MSTORE RETURN JUMPDEST POP SWAP2 PUSH2 0xC38 CALLDATASIZE PUSH2 0x14F5 JUMP JUMPDEST PUSH2 0xC40 PUSH2 0x15C9 JUMP JUMPDEST CALLER DUP4 MSTORE PUSH1 0x20 PUSH1 0x7 DUP2 MSTORE PUSH1 0xFF DUP4 DUP6 KECCAK256 SLOAD AND PUSH2 0xFDC JUMPI PUSH9 0x56BC75E2D63100000 CALLVALUE LT PUSH2 0xFA5 JUMPI DUP2 MLOAD ISZERO PUSH2 0xF6F JUMPI DUP3 MLOAD PUSH8 0xFFFFFFFFFFFFFFFF SWAP4 SWAP1 PUSH2 0x120 DUP2 ADD DUP6 DUP2 GT DUP3 DUP3 LT OR PUSH2 0xF5C JUMPI DUP3 MSTORE CALLER DUP2 MSTORE DUP3 DUP2 ADD CALLVALUE DUP2 MSTORE DUP3 DUP3 ADD SWAP6 PUSH1 0x64 DUP8 MSTORE DUP8 PUSH1 0x60 DUP5 ADD DUP2 DUP2 MSTORE PUSH1 0x80 DUP6 ADD TIMESTAMP DUP2 MSTORE PUSH1 0xA0 DUP7 ADD SWAP1 TIMESTAMP DUP3 MSTORE PUSH1 0xC0 DUP8 ADD SWAP10 DUP11 MSTORE PUSH2 0xD1F PUSH1 0xE0 DUP9 ADD SWAP4 DUP6 DUP6 MSTORE DUP10 PUSH2 0x100 DUP11 ADD SWAP7 DUP1 DUP9 MSTORE CALLER DUP2 MSTORE PUSH1 0x6 DUP14 MSTORE KECCAK256 SWAP8 PUSH1 0x1 DUP1 PUSH1 0xA0 SHL SUB DUP1 SWAP11 MLOAD AND PUSH12 0xFFFFFFFFFFFFFFFFFFFFFFFF PUSH1 0xA0 SHL DUP11 SLOAD AND OR DUP10 SSTORE MLOAD SWAP13 PUSH1 0x1 SWAP14 DUP15 DUP11 ADD SSTORE MLOAD PUSH1 0x2 DUP10 ADD SSTORE MLOAD ISZERO ISZERO PUSH1 0x3 DUP9 ADD SWAP1 PUSH1 0xFF DUP1 NOT DUP4 SLOAD AND SWAP2 ISZERO ISZERO AND OR SWAP1 SSTORE JUMP JUMPDEST MLOAD DUP13 DUP7 ADD SSTORE MLOAD SWAP8 PUSH1 0x5 SWAP9 DUP10 DUP7 ADD SSTORE PUSH1 0x6 DUP6 ADD SWAP1 MLOAD SWAP4 DUP5 MLOAD SWAP1 DUP2 GT PUSH2 0xF49 JUMPI PUSH2 0xD47 DUP3 SLOAD PUSH2 0x1350 JUMP JUMPDEST PUSH1 0x1F DUP2 GT PUSH2 0xF03 JUMPI JUMPDEST POP DUP9 DUP13 PUSH1 0x1F DUP4 GT PUSH1 0x1 EQ PUSH2 0xE93 JUMPI SWAP1 PUSH1 0x8 SWAP7 DUP4 PUSH2 0xE88 JUMPI JUMPDEST POP POP PUSH1 0x0 NOT PUSH1 0x3 DUP4 SWAP1 SHL SHR NOT AND SWAP1 DUP12 SHL OR SWAP1 SSTORE JUMPDEST MLOAD PUSH1 0x7 DUP5 ADD SSTORE MLOAD SWAP2 ADD SSTORE CALLER DUP7 MSTORE PUSH1 0x7 DUP4 MSTORE DUP2 DUP7 KECCAK256 SWAP1 PUSH1 0xFF NOT SWAP2 DUP7 DUP4 DUP3 SLOAD AND OR SWAP1 SSTORE PUSH1 0xA SLOAD PUSH9 0x10000000000000000 DUP2 LT ISZERO PUSH2 0xE75 JUMPI DUP1 DUP8 PUSH2 0xDC0 SWAP3 ADD PUSH1 0xA SSTORE PUSH2 0x14A8 JUMP JUMPDEST DUP2 SWAP3 SWAP2 SLOAD SWAP1 PUSH1 0x3 SHL SWAP2 CALLER DUP4 SHL SWAP3 SHL NOT AND OR SWAP1 SSTORE PUSH2 0xDDE PUSH1 0x2 SLOAD PUSH2 0x1597 JUMP JUMPDEST PUSH1 0x2 SSTORE PUSH2 0xDEC CALLVALUE DUP9 SLOAD PUSH2 0x15BC JUMP JUMPDEST DUP8 SSTORE DUP4 SLOAD SWAP4 PUSH2 0xDFA DUP6 PUSH2 0x1597 JUMP JUMPDEST DUP2 SSTORE DUP5 DUP8 MSTORE PUSH1 0x8 DUP5 MSTORE DUP3 DUP8 KECCAK256 PUSH3 0x15180 TIMESTAMP ADD DUP1 TIMESTAMP GT PUSH2 0x8C6 JUMPI PUSH32 0xF773BCA07D020A1BC1FDD45EA3DB573DA547DD27180143AFAF075C158A847594 SWAP7 SWAP8 SWAP9 SWAP10 DUP3 ADD SSTORE ADD SWAP1 DUP2 SLOAD AND SWAP1 SSTORE MLOAD SWAP3 CALLER SWAP1 PUSH32 0x4088952A7C4ABD9C2939CCA45F355D176F11397A90660C553110C209D212B2AD DUP8 DUP1 LOG3 CALLVALUE DUP4 MSTORE CALLER SWAP3 LOG2 DUP1 SSTORE DUP1 RETURN JUMPDEST PUSH4 0x4E487B71 PUSH1 0xE0 SHL DUP9 MSTORE PUSH1 0x41 DUP10 MSTORE PUSH1 0x24 DUP9 REVERT JUMPDEST ADD MLOAD SWAP1 POP CODESIZE DUP1 PUSH2 0xD68 JUMP JUMPDEST DUP13 SWAP3 SWAP2 PUSH1 0x1F NOT DUP4 AND DUP6 DUP4 MSTORE DUP13 DUP4 KECCAK256 SWAP3 JUMPDEST DUP14 DUP3 DUP3 LT PUSH2 0xEDE JUMPI POP POP SWAP8 DUP4 PUSH1 0x8 SWAP10 LT PUSH2 0xEC5 JUMPI JUMPDEST POP POP POP DUP2 SHL ADD SWAP1 SSTORE PUSH2 0xD7C JUMP JUMPDEST ADD MLOAD PUSH1 0x0 NOT PUSH1 0xF8 DUP5 PUSH1 0x3 SHL AND SHR NOT AND SWAP1 SSTORE CODESIZE DUP1 DUP1 PUSH2 0xEB8 JUMP JUMPDEST SWAP2 SWAP3 SWAP6 DUP11 SWAP5 DUP8 DUP5 SWAP4 SWAP8 SWAP10 SWAP11 SWAP12 SWAP13 ADD MLOAD DUP2 SSTORE ADD SWAP6 ADD SWAP4 ADD SWAP1 DUP15 SWAP5 SWAP3 SWAP9 SWAP8 SWAP7 SWAP6 SWAP4 SWAP2 PUSH2 0xEA3 JUMP JUMPDEST DUP3 DUP14 MSTORE DUP10 DUP14 KECCAK256 PUSH1 0x1F DUP4 ADD DUP13 SHR DUP2 ADD SWAP2 DUP12 DUP5 LT PUSH2 0xF3F JUMPI JUMPDEST PUSH1 0x1F ADD DUP13 SHR ADD SWAP1 DUP13 SWAP1 DUP15 JUMPDEST DUP4 DUP3 LT PUSH2 0xF34 JUMPI POP POP POP PUSH2 0xD50 JUMP JUMPDEST DUP2 SSTORE ADD DUP13 SWAP1 DUP15 PUSH2 0xF25 JUMP JUMPDEST SWAP1 SWAP2 POP DUP2 SWAP1 PUSH2 0xF1A JUMP JUMPDEST PUSH4 0x4E487B71 PUSH1 0xE0 SHL DUP13 MSTORE PUSH1 0x41 DUP14 MSTORE PUSH1 0x24 DUP13 REVERT JUMPDEST PUSH4 0x4E487B71 PUSH1 0xE0 SHL DUP8 MSTORE PUSH1 0x41 DUP9 MSTORE PUSH1 0x24 DUP8 REVERT JUMPDEST DUP5 PUSH1 0x64 SWAP2 DUP5 MLOAD SWAP2 PUSH3 0x461BCD PUSH1 0xE5 SHL DUP4 MSTORE DUP3 ADD MSTORE PUSH1 0x11 PUSH1 0x24 DUP3 ADD MSTORE PUSH17 0x115B991C1BDA5B9D081C995C5D5A5C9959 PUSH1 0x7A SHL PUSH1 0x44 DUP3 ADD MSTORE REVERT JUMPDEST DUP5 PUSH1 0x64 SWAP2 DUP5 MLOAD SWAP2 PUSH3 0x461BCD PUSH1 0xE5 SHL DUP4 MSTORE DUP3 ADD MSTORE PUSH1 0x12 PUSH1 0x24 DUP3 ADD MSTORE PUSH18 0x496E73756666696369656E74207374616B65 PUSH1 0x70 SHL PUSH1 0x44 DUP3 ADD MSTORE REVERT JUMPDEST DUP5 PUSH1 0x64 SWAP2 DUP5 MLOAD SWAP2 PUSH3 0x461BCD PUSH1 0xE5 SHL DUP4 MSTORE DUP3 ADD MSTORE PUSH1 0x12 PUSH1 0x24 DUP3 ADD MSTORE PUSH18 0x105B1C9958591E481C9959DA5CDD195C9959 PUSH1 0x72 SHL PUSH1 0x44 DUP3 ADD MSTORE REVERT JUMPDEST POP DUP3 SWAP1 CALLVALUE PUSH2 0x222 JUMPI PUSH1 0x20 CALLDATASIZE PUSH1 0x3 NOT ADD SLT PUSH2 0x222 JUMPI CALLDATALOAD SWAP2 PUSH1 0xA SLOAD DUP4 LT ISZERO PUSH2 0x524 JUMPI POP PUSH2 0x103F PUSH1 0x20 SWAP3 PUSH2 0x14A8 JUMP JUMPDEST SWAP1 SLOAD SWAP2 MLOAD SWAP2 PUSH1 0x1 DUP1 PUSH1 0xA0 SHL SUB SWAP2 PUSH1 0x3 SHL SHR AND DUP2 MSTORE RETURN JUMPDEST POP SWAP2 SWAP1 CALLVALUE PUSH2 0x524 JUMPI PUSH1 0x20 CALLDATASIZE PUSH1 0x3 NOT ADD SLT PUSH2 0x524 JUMPI PUSH1 0x1 PUSH1 0x1 PUSH1 0xA0 SHL SUB SWAP1 DUP4 CALLDATALOAD DUP3 DUP2 AND SWAP1 DUP2 SWAP1 SUB PUSH2 0x1E3 JUMPI SWAP1 DUP4 SWAP2 DUP2 MSTORE PUSH1 0x6 PUSH1 0x20 MSTORE KECCAK256 SWAP1 DUP2 SLOAD AND SWAP2 PUSH2 0x10F9 PUSH1 0x1 DUP4 ADD SLOAD SWAP5 PUSH1 0x2 DUP5 ADD SLOAD SWAP1 PUSH1 0xFF PUSH1 0x3 DUP7 ADD SLOAD AND SWAP1 DUP6 ADD SLOAD PUSH1 0x5 DUP7 ADD SLOAD SWAP2 PUSH2 0x10BC PUSH1 0x6 DUP9 ADD PUSH2 0x13C2 JUMP JUMPDEST SWAP4 PUSH1 0x8 PUSH1 0x7 DUP10 ADD SLOAD SWAP9 ADD SLOAD SWAP7 DUP1 MLOAD SWAP11 DUP12 SWAP11 DUP12 MSTORE PUSH1 0x20 DUP12 ADD MSTORE DUP10 ADD MSTORE ISZERO ISZERO PUSH1 0x60 DUP9 ADD MSTORE PUSH1 0x80 DUP8 ADD MSTORE PUSH1 0xA0 DUP7 ADD MSTORE PUSH2 0x120 DUP1 PUSH1 0xC0 DUP8 ADD MSTORE DUP6 ADD SWAP1 PUSH2 0x1468 JUMP JUMPDEST SWAP2 PUSH1 0xE0 DUP5 ADD MSTORE PUSH2 0x100 DUP4 ADD MSTORE SUB SWAP1 RETURN JUMPDEST POP DUP3 SWAP1 CALLVALUE PUSH2 0x222 JUMPI DUP2 PUSH1 0x3 NOT CALLDATASIZE ADD SLT PUSH2 0x222 JUMPI DUP1 CALLDATALOAD SWAP2 PUSH1 0x24 CALLDATALOAD SWAP1 DUP2 ISZERO ISZERO SWAP1 DUP2 DUP4 SUB PUSH2 0x12E7 JUMPI CALLER DUP7 MSTORE PUSH1 0x20 SWAP1 PUSH1 0x7 DUP3 MSTORE PUSH1 0xFF DUP2 DUP9 KECCAK256 SLOAD AND DUP1 PUSH2 0x12D3 JUMPI JUMPDEST PUSH2 0x114E SWAP1 PUSH2 0x15EC JUMP JUMPDEST DUP6 DUP8 MSTORE PUSH1 0x8 DUP3 MSTORE DUP1 DUP8 KECCAK256 SWAP4 DUP6 DUP6 ADD SLOAD TIMESTAMP LT ISZERO PUSH2 0x129A JUMPI CALLER DUP9 MSTORE DUP5 DUP4 MSTORE PUSH1 0xFF DUP3 DUP10 KECCAK256 SLOAD AND PUSH2 0x1267 JUMPI DUP5 SWAP4 SWAP3 DUP8 SWAP3 PUSH32 0xE71FCDAC32DF1877C1700E7BDA2A03157E20993363A28FC35AC495CEFC76E4D4 SWAP3 PUSH2 0x11B0 PUSH1 0xFF PUSH1 0x5 PUSH2 0x120F SWAP11 ADD SLOAD AND ISZERO PUSH2 0x162D JUMP JUMPDEST CALLER DUP12 MSTORE DUP7 DUP4 MSTORE DUP2 DUP12 KECCAK256 PUSH1 0x1 PUSH1 0xFF NOT DUP3 SLOAD AND OR SWAP1 SSTORE PUSH1 0x1 DUP8 ADD DUP4 MSTORE PUSH2 0x11E2 DUP2 DUP4 DUP14 KECCAK256 SWAP1 PUSH1 0xFF DUP1 NOT DUP4 SLOAD AND SWAP2 ISZERO ISZERO AND OR SWAP1 SSTORE JUMP JUMPDEST ISZERO PUSH2 0x1252 JUMPI PUSH1 0x2 DUP7 ADD PUSH2 0x11F5 DUP2 SLOAD PUSH2 0x1597 JUMP JUMPDEST SWAP1 SSTORE JUMPDEST MLOAD SWAP4 DUP5 MSTORE CALLER SWAP4 LOG3 PUSH1 0x3 PUSH1 0x2 DUP3 ADD SLOAD SWAP2 ADD SLOAD SWAP1 PUSH2 0x15BC JUMP JUMPDEST SWAP1 PUSH1 0x3 SLOAD SWAP1 PUSH1 0x33 DUP3 MUL SWAP2 DUP1 DUP4 DIV PUSH1 0x33 EQ SWAP1 ISZERO OR ISZERO PUSH2 0x123F JUMPI POP PUSH1 0x64 SWAP1 DIV GT ISZERO PUSH2 0x1236 JUMPI POP DUP1 RETURN JUMPDEST PUSH2 0x19D SWAP1 PUSH2 0x1671 JUMP JUMPDEST PUSH4 0x4E487B71 PUSH1 0xE0 SHL DUP6 MSTORE PUSH1 0x11 SWAP1 MSTORE PUSH1 0x24 DUP5 REVERT JUMPDEST PUSH1 0x3 DUP7 ADD PUSH2 0x1260 DUP2 SLOAD PUSH2 0x1597 JUMP JUMPDEST SWAP1 SSTORE PUSH2 0x11F8 JUMP JUMPDEST DUP2 MLOAD PUSH3 0x461BCD PUSH1 0xE5 SHL DUP2 MSTORE DUP1 DUP8 ADD DUP5 SWAP1 MSTORE PUSH1 0xD PUSH1 0x24 DUP3 ADD MSTORE PUSH13 0x105B1C9958591E481D9BDD1959 PUSH1 0x9A SHL PUSH1 0x44 DUP3 ADD MSTORE PUSH1 0x64 SWAP1 REVERT JUMPDEST DUP2 MLOAD PUSH3 0x461BCD PUSH1 0xE5 SHL DUP2 MSTORE DUP1 DUP8 ADD DUP5 SWAP1 MSTORE PUSH1 0x13 PUSH1 0x24 DUP3 ADD MSTORE PUSH19 0x159BDD1A5B99C81C195C9A5BD908195B991959 PUSH1 0x6A SHL PUSH1 0x44 DUP3 ADD MSTORE PUSH1 0x64 SWAP1 REVERT JUMPDEST POP PUSH1 0x6 DUP3 MSTORE DUP1 DUP8 KECCAK256 PUSH1 0x3 ADD SLOAD PUSH1 0xFF AND PUSH2 0x1145 JUMP JUMPDEST DUP6 DUP1 REVERT JUMPDEST DUP3 DUP5 CALLVALUE PUSH2 0x1E3 JUMPI DUP2 PUSH1 0x3 NOT CALLDATASIZE ADD SLT PUSH2 0x1E3 JUMPI PUSH1 0x20 SWAP1 MLOAD PUSH9 0x56BC75E2D63100000 DUP2 MSTORE RETURN JUMPDEST SWAP2 DUP5 SWAP2 POP CALLVALUE PUSH2 0x134C JUMPI PUSH1 0x20 CALLDATASIZE PUSH1 0x3 NOT ADD SLT PUSH2 0x134C JUMPI CALLDATALOAD PUSH1 0x1 PUSH1 0x1 PUSH1 0xA0 SHL SUB DUP2 AND SWAP1 DUP2 SWAP1 SUB PUSH2 0x134C JUMPI DUP4 MSTORE PUSH1 0x7 PUSH1 0x20 SWAP1 DUP2 MSTORE SWAP3 KECCAK256 SLOAD PUSH1 0xFF AND ISZERO ISZERO DUP2 MSTORE RETURN JUMPDEST DUP4 DUP1 REVERT JUMPDEST SWAP1 PUSH1 0x1 DUP3 DUP2 SHR SWAP3 AND DUP1 ISZERO PUSH2 0x1380 JUMPI JUMPDEST PUSH1 0x20 DUP4 LT EQ PUSH2 0x136A JUMPI JUMP JUMPDEST PUSH4 0x4E487B71 PUSH1 0xE0 SHL PUSH1 0x0 MSTORE PUSH1 0x22 PUSH1 0x4 MSTORE PUSH1 0x24 PUSH1 0x0 REVERT JUMPDEST SWAP2 PUSH1 0x7F AND SWAP2 PUSH2 0x135F JUMP JUMPDEST SWAP1 PUSH1 0x1F DUP1 NOT SWAP2 ADD AND DUP2 ADD SWAP1 DUP2 LT PUSH8 0xFFFFFFFFFFFFFFFF DUP3 GT OR PUSH2 0x13AC JUMPI PUSH1 0x40 MSTORE JUMP JUMPDEST PUSH4 0x4E487B71 PUSH1 0xE0 SHL PUSH1 0x0 MSTORE PUSH1 0x41 PUSH1 0x4 MSTORE PUSH1 0x24 PUSH1 0x0 REVERT JUMPDEST SWAP1 PUSH1 0x40 MLOAD SWAP2 DUP3 PUSH1 0x0 DUP3 SLOAD SWAP3 PUSH2 0x13D6 DUP5 PUSH2 0x1350 JUMP JUMPDEST SWAP1 DUP2 DUP5 MSTORE PUSH1 0x1 SWAP5 DUP6 DUP2 AND SWAP1 DUP2 PUSH1 0x0 EQ PUSH2 0x1445 JUMPI POP PUSH1 0x1 EQ PUSH2 0x1402 JUMPI JUMPDEST POP POP PUSH2 0x1400 SWAP3 POP SUB DUP4 PUSH2 0x138A JUMP JUMPDEST JUMP JUMPDEST SWAP1 SWAP4 SWAP2 POP PUSH1 0x0 MSTORE PUSH1 0x20 SWAP1 DUP2 PUSH1 0x0 KECCAK256 SWAP4 PUSH1 0x0 SWAP2 JUMPDEST DUP2 DUP4 LT PUSH2 0x142D JUMPI POP POP PUSH2 0x1400 SWAP4 POP DUP3 ADD ADD CODESIZE DUP1 PUSH2 0x13F2 JUMP JUMPDEST DUP6 SLOAD DUP9 DUP5 ADD DUP6 ADD MSTORE SWAP5 DUP6 ADD SWAP5 DUP8 SWAP5 POP SWAP2 DUP4 ADD SWAP2 PUSH2 0x1415 JUMP JUMPDEST SWAP2 POP POP PUSH2 0x1400 SWAP5 POP PUSH1 0x20 SWAP3 POP PUSH1 0xFF NOT AND DUP3 DUP5 ADD MSTORE ISZERO ISZERO PUSH1 0x5 SHL DUP3 ADD ADD CODESIZE DUP1 PUSH2 0x13F2 JUMP JUMPDEST SWAP2 SWAP1 DUP3 MLOAD SWAP3 DUP4 DUP3 MSTORE PUSH1 0x0 JUMPDEST DUP5 DUP2 LT PUSH2 0x1494 JUMPI POP POP DUP3 PUSH1 0x0 PUSH1 0x20 DUP1 SWAP5 SWAP6 DUP5 ADD ADD MSTORE PUSH1 0x1F DUP1 NOT SWAP2 ADD AND ADD ADD SWAP1 JUMP JUMPDEST PUSH1 0x20 DUP2 DUP4 ADD DUP2 ADD MLOAD DUP5 DUP4 ADD DUP3 ADD MSTORE ADD PUSH2 0x1473 JUMP JUMPDEST PUSH1 0xA SLOAD DUP2 LT ISZERO PUSH2 0x14DF JUMPI PUSH1 0xA PUSH1 0x0 MSTORE PUSH32 0xC65A7BB8D6351C1CF70C95A316CC6A92839C986682D98BC35F958F4883F9D2A8 ADD SWAP1 PUSH1 0x0 SWAP1 JUMP JUMPDEST PUSH4 0x4E487B71 PUSH1 0xE0 SHL PUSH1 0x0 MSTORE PUSH1 0x32 PUSH1 0x4 MSTORE PUSH1 0x24 PUSH1 0x0 REVERT JUMPDEST PUSH1 0x20 PUSH1 0x3 NOT DUP3 ADD SLT PUSH2 0x1566 JUMPI PUSH8 0xFFFFFFFFFFFFFFFF PUSH1 0x4 CALLDATALOAD DUP2 DUP2 GT PUSH2 0x1566 JUMPI DUP3 PUSH1 0x23 DUP3 ADD SLT ISZERO PUSH2 0x1566 JUMPI DUP1 PUSH1 0x4 ADD CALLDATALOAD SWAP2 DUP3 GT PUSH2 0x13AC JUMPI PUSH1 0x40 MLOAD SWAP3 PUSH2 0x1543 PUSH1 0x1F DUP5 ADD PUSH1 0x1F NOT AND PUSH1 0x20 ADD DUP6 PUSH2 0x138A JUMP JUMPDEST DUP3 DUP5 MSTORE PUSH1 0x24 DUP4 DUP4 ADD ADD GT PUSH2 0x1566 JUMPI DUP2 PUSH1 0x0 SWAP3 PUSH1 0x24 PUSH1 0x20 SWAP4 ADD DUP4 DUP7 ADD CALLDATACOPY DUP4 ADD ADD MSTORE SWAP1 JUMP JUMPDEST PUSH1 0x0 DUP1 REVERT JUMPDEST PUSH1 0x0 SLOAD PUSH1 0x1 PUSH1 0x1 PUSH1 0xA0 SHL SUB AND CALLER SUB PUSH2 0x157F JUMPI JUMP JUMPDEST PUSH1 0x40 MLOAD PUSH4 0x118CDAA7 PUSH1 0xE0 SHL DUP2 MSTORE CALLER PUSH1 0x4 DUP3 ADD MSTORE PUSH1 0x24 SWAP1 REVERT JUMPDEST PUSH1 0x0 NOT DUP2 EQ PUSH2 0x15A6 JUMPI PUSH1 0x1 ADD SWAP1 JUMP JUMPDEST PUSH4 0x4E487B71 PUSH1 0xE0 SHL PUSH1 0x0 MSTORE PUSH1 0x11 PUSH1 0x4 MSTORE PUSH1 0x24 PUSH1 0x0 REVERT JUMPDEST SWAP2 SWAP1 DUP3 ADD DUP1 SWAP3 GT PUSH2 0x15A6 JUMPI JUMP JUMPDEST PUSH1 0x2 PUSH1 0x1 SLOAD EQ PUSH2 0x15DA JUMPI PUSH1 0x2 PUSH1 0x1 SSTORE JUMP JUMPDEST PUSH1 0x40 MLOAD PUSH4 0x3EE5AEB5 PUSH1 0xE0 SHL DUP2 MSTORE PUSH1 0x4 SWAP1 REVERT JUMPDEST ISZERO PUSH2 0x15F3 JUMPI JUMP JUMPDEST PUSH1 0x40 MLOAD PUSH3 0x461BCD PUSH1 0xE5 SHL DUP2 MSTORE PUSH1 0x20 PUSH1 0x4 DUP3 ADD MSTORE PUSH1 0x12 PUSH1 0x24 DUP3 ADD MSTORE PUSH18 0x4E6F7420616E20616374697665206E6F6465 PUSH1 0x70 SHL PUSH1 0x44 DUP3 ADD MSTORE PUSH1 0x64 SWAP1 REVERT JUMPDEST ISZERO PUSH2 0x1634 JUMPI JUMP JUMPDEST PUSH1 0x40 MLOAD PUSH3 0x461BCD PUSH1 0xE5 SHL DUP2 MSTORE PUSH1 0x20 PUSH1 0x4 DUP3 ADD MSTORE PUSH1 0x15 PUSH1 0x24 DUP3 ADD MSTORE PUSH21 0x159BDD1948185B1C9958591E48195E1958DD5D1959 PUSH1 0x5A SHL PUSH1 0x44 DUP3 ADD MSTORE PUSH1 0x64 SWAP1 REVERT JUMPDEST DUP1 PUSH1 0x0 MSTORE PUSH1 0x8 PUSH1 0x20 MSTORE PUSH32 0xCF40A1F621C94C9D8FD190570EE1606E7DEDEB8FA422057B24F5CE1EA14111FC PUSH1 0x20 PUSH1 0x40 PUSH1 0x0 KECCAK256 PUSH1 0x5 DUP2 ADD PUSH1 0x1 PUSH1 0xFF NOT DUP3 SLOAD AND OR SWAP1 SSTORE PUSH1 0x3 PUSH1 0x2 DUP3 ADD SLOAD SWAP2 ADD SLOAD PUSH2 0x16C5 DUP2 DUP4 PUSH2 0x15BC JUMP JUMPDEST POP PUSH1 0x40 MLOAD SWAP2 GT DUP2 MSTORE LOG2 JUMP JUMPDEST PUSH1 0x1 PUSH1 0x1 PUSH1 0xA0 SHL SUB AND PUSH1 0x0 DUP2 DUP2 MSTORE PUSH1 0x6 PUSH1 0x20 MSTORE PUSH1 0x40 DUP2 KECCAK256 PUSH1 0x3 DUP1 DUP3 ADD DUP1 SLOAD PUSH1 0xFF NOT AND SWAP1 SSTORE SLOAD DUP1 ISZERO PUSH2 0x175D JUMPI PUSH1 0x0 NOT ADD PUSH1 0x3 SSTORE PUSH1 0x1 ADD DUP1 SLOAD DUP4 DUP4 MSTORE PUSH1 0x9 PUSH1 0x20 MSTORE PUSH1 0x40 DUP4 KECCAK256 DUP1 SLOAD SWAP1 SWAP2 PUSH2 0x1720 SWAP2 PUSH2 0x15BC JUMP JUMPDEST SWAP1 SSTORE DUP1 SLOAD PUSH1 0x4 SLOAD SWAP1 DUP2 SUB SWAP1 DUP2 GT PUSH2 0x175D JUMPI PUSH1 0x4 SSTORE DUP2 SWAP1 SSTORE PUSH32 0xD9957750E6343405C319EB99A4EC67FA11CFD66969318CBC71AA2D45FA53A349 SWAP1 DUP1 LOG2 JUMP JUMPDEST PUSH4 0x4E487B71 PUSH1 0xE0 SHL DUP4 MSTORE PUSH1 0x11 PUSH1 0x4 MSTORE PUSH1 0x24 DUP4 REVERT JUMPDEST PUSH8 0xFFFFFFFFFFFFFFFF DUP2 GT PUSH2 0x13AC JUMPI PUSH1 0x5 SHL PUSH1 0x20 ADD SWAP1 JUMP INVALID LOG2 PUSH5 0x6970667358 0x22 SLT KECCAK256 0xBF ADDMOD AND 0xA8 SHR PUSH5 0xCC05D2863 XOR MLOAD 0xD1 0xC6 0xB4 SHL DUP2 0xD4 0x22 LOG3 RETURN POP PUSH23 0x8191F5E61C83BF8E64736F6C6343000814003300000000 "},"methodIdentifiers":{"INACTIVITY_PERIOD()":"b18ada67","MINIMUM_STAKE()":"08dbbb03","QUORUM_PERCENTAGE()":"ee8a7c15","SLASH_AMOUNT()":"37720606","VOTING_PERIOD()":"b1610d7e","activeNodeCount()":"75340815","castVote(uint256,bool)":"15373e3d","checkInactiveNodes()":"c5167d50","distributeRewards()":"6f4a2cd0","executeVote(uint256)":"f98a4eca","getActiveNodes()":"6b51e919","getNodeDetails(address)":"bafb3581","heartbeat()":"3defb962","isNode(address)":"01750152","nodeCount()":"6da49b83","nodeList(uint256)":"208f2a31","nodes(address)":"189a5a17","owner()":"8da5cb5b","pendingWithdrawals(address)":"f3f43703","registerNode(string)":"27c6f43e","renounceOwnership()":"715018a6","slashNode(address)":"5dca14f1","totalStaked()":"817b1cd2","transferOwnership(address)":"f2fde38b","updateEndpoint(string)":"5c019d2e","voteCount()":"c6384071","votes(uint256)":"5df81330","withdraw()":"3ccfd60b"}}}}}