{"contracts/src/AdvancedMarkets.sol":{"AdvancedMarkets":{"abi":[{"inputs":[{"internalType":"address","name":"_predictionMarket","type":"address"}],"stateMutability":"nonpayable","type":"constructor"},{"inputs":[],"name":"AccessControlBadConfirmation","type":"error"},{"inputs":[{"internalType":"address","name":"account","type":"address"},{"internalType":"bytes32","name":"neededRole","type":"bytes32"}],"name":"AccessControlUnauthorizedAccount","type":"error"},{"inputs":[],"name":"ReentrancyGuardReentrantCall","type":"error"},{"anonymous":false,"inputs":[{"indexed":true,"internalType":"bytes32","name":"marketId","type":"bytes32"},{"indexed":false,"internalType":"enum AdvancedMarkets.MarketType","name":"marketType","type":"uint8"},{"indexed":true,"internalType":"address","name":"creator","type":"address"},{"indexed":false,"internalType":"uint256","name":"timestamp","type":"uint256"}],"name":"AdvancedMarketCreated","type":"event"},{"anonymous":false,"inputs":[{"indexed":true,"internalType":"bytes32","name":"marketId","type":"bytes32"},{"indexed":true,"internalType":"bytes32","name":"dependsOnMarketId","type":"bytes32"}],"name":"ConditionalMarketLinked","type":"event"},{"anonymous":false,"inputs":[{"indexed":true,"internalType":"bytes32","name":"marketId","type":"bytes32"},{"indexed":false,"internalType":"bytes32","name":"optionId","type":"bytes32"},{"indexed":false,"internalType":"string","name":"optionText","type":"string"}],"name":"MultiChoiceOptionAdded","type":"event"},{"anonymous":false,"inputs":[{"indexed":true,"internalType":"bytes32","name":"marketId","type":"bytes32"},{"indexed":false,"internalType":"uint256","name":"minValue","type":"uint256"},{"indexed":false,"internalType":"uint256","name":"maxValue","type":"uint256"}],"name":"RangeMarketCreated","type":"event"},{"anonymous":false,"inputs":[{"indexed":true,"internalType":"address","name":"user","type":"address"},{"indexed":false,"internalType":"uint256","name":"oldReputation","type":"uint256"},{"indexed":false,"internalType":"uint256","name":"newReputation","type":"uint256"}],"name":"ReputationUpdated","type":"event"},{"anonymous":false,"inputs":[{"indexed":true,"internalType":"bytes32","name":"role","type":"bytes32"},{"indexed":true,"internalType":"bytes32","name":"previousAdminRole","type":"bytes32"},{"indexed":true,"internalType":"bytes32","name":"newAdminRole","type":"bytes32"}],"name":"RoleAdminChanged","type":"event"},{"anonymous":false,"inputs":[{"indexed":true,"internalType":"bytes32","name":"role","type":"bytes32"},{"indexed":true,"internalType":"address","name":"account","type":"address"},{"indexed":true,"internalType":"address","name":"sender","type":"address"}],"name":"RoleGranted","type":"event"},{"anonymous":false,"inputs":[{"indexed":true,"internalType":"bytes32","name":"role","type":"bytes32"},{"indexed":true,"internalType":"address","name":"account","type":"address"},{"indexed":true,"internalType":"address","name":"sender","type":"address"}],"name":"RoleRevoked","type":"event"},{"inputs":[],"name":"DEFAULT_ADMIN_ROLE","outputs":[{"internalType":"bytes32","name":"","type":"bytes32"}],"stateMutability":"view","type":"function"},{"inputs":[],"name":"MARKET_CREATOR_ROLE","outputs":[{"internalType":"bytes32","name":"","type":"bytes32"}],"stateMutability":"view","type":"function"},{"inputs":[{"internalType":"bytes32","name":"","type":"bytes32"}],"name":"advancedMarkets","outputs":[{"internalType":"bytes32","name":"marketId","type":"bytes32"},{"internalType":"enum AdvancedMarkets.MarketType","name":"marketType","type":"uint8"},{"internalType":"bytes32","name":"dependsOn","type":"bytes32"},{"internalType":"uint256","name":"minValue","type":"uint256"},{"internalType":"uint256","name":"maxValue","type":"uint256"}],"stateMutability":"view","type":"function"},{"inputs":[{"internalType":"bytes32","name":"marketId","type":"bytes32"},{"internalType":"bytes32","name":"optionId","type":"bytes32"}],"name":"betOnOption","outputs":[],"stateMutability":"payable","type":"function"},{"inputs":[{"internalType":"address","name":"user","type":"address"}],"name":"calculateReputation","outputs":[{"internalType":"uint256","name":"","type":"uint256"}],"stateMutability":"view","type":"function"},{"inputs":[{"internalType":"bytes32","name":"marketId","type":"bytes32"},{"internalType":"bytes32","name":"dependsOnMarketId","type":"bytes32"},{"internalType":"uint256","name":"endTime","type":"uint256"}],"name":"createConditionalMarket","outputs":[],"stateMutability":"nonpayable","type":"function"},{"inputs":[{"internalType":"bytes32","name":"marketId","type":"bytes32"},{"internalType":"string[]","name":"options","type":"string[]"},{"internalType":"uint256","name":"endTime","type":"uint256"}],"name":"createMultiChoiceMarket","outputs":[],"stateMutability":"nonpayable","type":"function"},{"inputs":[{"internalType":"bytes32","name":"marketId","type":"bytes32"},{"internalType":"uint256","name":"minValue","type":"uint256"},{"internalType":"uint256","name":"maxValue","type":"uint256"},{"internalType":"uint256","name":"endTime","type":"uint256"}],"name":"createRangeMarket","outputs":[],"stateMutability":"nonpayable","type":"function"},{"inputs":[{"internalType":"bytes32","name":"marketId","type":"bytes32"}],"name":"getAdvancedMarket","outputs":[{"internalType":"enum AdvancedMarkets.MarketType","name":"marketType","type":"uint8"},{"internalType":"uint256","name":"optionCount","type":"uint256"},{"internalType":"bytes32","name":"dependsOn","type":"bytes32"},{"internalType":"uint256","name":"minValue","type":"uint256"},{"internalType":"uint256","name":"maxValue","type":"uint256"}],"stateMutability":"view","type":"function"},{"inputs":[{"internalType":"bytes32","name":"marketId","type":"bytes32"},{"internalType":"bytes32","name":"optionId","type":"bytes32"}],"name":"getOptionStake","outputs":[{"internalType":"uint256","name":"","type":"uint256"}],"stateMutability":"view","type":"function"},{"inputs":[{"internalType":"bytes32","name":"role","type":"bytes32"}],"name":"getRoleAdmin","outputs":[{"internalType":"bytes32","name":"","type":"bytes32"}],"stateMutability":"view","type":"function"},{"inputs":[{"internalType":"bytes32","name":"marketId","type":"bytes32"},{"internalType":"address","name":"user","type":"address"},{"internalType":"bytes32","name":"optionId","type":"bytes32"}],"name":"getUserOptionBet","outputs":[{"internalType":"uint256","name":"","type":"uint256"}],"stateMutability":"view","type":"function"},{"inputs":[{"internalType":"bytes32","name":"role","type":"bytes32"},{"internalType":"address","name":"account","type":"address"}],"name":"grantRole","outputs":[],"stateMutability":"nonpayable","type":"function"},{"inputs":[{"internalType":"bytes32","name":"role","type":"bytes32"},{"internalType":"address","name":"account","type":"address"}],"name":"hasRole","outputs":[{"internalType":"bool","name":"","type":"bool"}],"stateMutability":"view","type":"function"},{"inputs":[{"internalType":"bytes32","name":"","type":"bytes32"}],"name":"marketExists","outputs":[{"internalType":"bool","name":"","type":"bool"}],"stateMutability":"view","type":"function"},{"inputs":[],"name":"predictionMarket","outputs":[{"internalType":"contract EnhancedPredictionMarket","name":"","type":"address"}],"stateMutability":"view","type":"function"},{"inputs":[{"internalType":"bytes32","name":"role","type":"bytes32"},{"internalType":"address","name":"callerConfirmation","type":"address"}],"name":"renounceRole","outputs":[],"stateMutability":"nonpayable","type":"function"},{"inputs":[{"internalType":"bytes32","name":"role","type":"bytes32"},{"internalType":"address","name":"account","type":"address"}],"name":"revokeRole","outputs":[],"stateMutability":"nonpayable","type":"function"},{"inputs":[{"internalType":"bytes4","name":"interfaceId","type":"bytes4"}],"name":"supportsInterface","outputs":[{"internalType":"bool","name":"","type":"bool"}],"stateMutability":"view","type":"function"},{"inputs":[{"internalType":"address","name":"","type":"address"}],"name":"userReputation","outputs":[{"internalType":"uint256","name":"","type":"uint256"}],"stateMutability":"view","type":"function"}],"evm":{"bytecode":{"linkReferences":{},"object":"60803461008c57601f61119538819003918201601f19168301916001600160401b038311848410176100915780849260209460405283398101031261008c57516001600160a01b0381169081900361008c5760018055600280546001600160a01b031916919091179055610072336100a7565b5061007c33610125565b50604051610faf90816101c68239f35b600080fd5b634e487b7160e01b600052604160045260246000fd5b6001600160a01b031660008181527fad3228b676f7d3cd4284a5443f17f1962b36e491b30a40b2405849e597ba5fb5602052604081205490919060ff1661012157818052816020526040822081835260205260408220600160ff1982541617905533916000805160206111758339815191528180a4600190565b5090565b6001600160a01b031660008181527f2412b2af58bf3b93d578a423d333d33fb94fb5093f9cda1aed2eaafb3215f92960205260408120549091907fd3065a24ad9e7725d223007135762d2902038999e3e5829146654498a58d97959060ff166101c057808352826020526040832082845260205260408320600160ff19825416179055600080516020611175833981519152339380a4600190565b50509056fe6080604081815260048036101561001557600080fd5b600092833560e01c90816301ffc9a714610c155750806309a22aa214610be6578063248a9ca314610bbd57806326ba5be314610b6057806327c06fd514610b395780632f2ff15d14610b1057806336568abe14610ac95780633ac16aac146109b45780633e19fefe14610765578063582fc525146107065780638f530c85146103d757806391d1485414610392578063a217fddf14610377578063a6e6599314610328578063a88ab6c314610209578063ae42820c146101ce578063d547741f14610190578063d8d0398914610164578063def114b6146101375763e503bb05146100ff57600080fd5b346101335760203660031901126101335760209282916001600160a01b03610125610ca7565b168252845220549051908152f35b8280fd5b50503461016057816003193601126101605760025490516001600160a01b039091168152602090f35b5080fd5b5034610133576020366003190112610133578160209360ff923581526005855220541690519015158152f35b5090346101335780600319360112610133576101ca91356101c560016101b4610cbd565b938387528660205286200154610d85565b610e29565b5080f35b505034610160578160031936011261016057602090517fd3065a24ad9e7725d223007135762d2902038999e3e5829146654498a58d97958152f35b509034610133576060366003190112610133578135906024359261022b610d0b565b8285526020906005825261024560ff848820541615610e9e565b8486526005825260ff8387205416156102e75750907f6fa8ac7c105c459efdfee6428419da0f54dcf1345f66badb256a6f5ae5f1e45d9183865260038152818620848155856003600183019260ff1993600285825416179055015560058252600183882091825416179055815194847f8a2ae5f895767f00b73dd65ca821ea078d63b585805751a439f2a3b1a35681ac8880a36002855242908501523393a380f35b915162461bcd60e51b815291820152601f60248201527f446570656e64656e74206d61726b657420646f6573206e6f74206578697374006044820152606490fd5b5034610133576060366003190112610133576020928291610347610cbd565b90358252600385528282206001600160a01b03909116825260080184528181206044358252845220549051908152f35b50503461016057816003193601126101605751908152602090f35b50346101335781600319360112610133578160209360ff926103b2610cbd565b903582528186528282206001600160a01b039091168252855220549151911615158152f35b509034610133576060908160031936011261070257823591602480359167ffffffffffffffff908184116106fe57366023850112156106fe5783870135938285116106ec578460051b86519360209661043288840187610cd3565b85528587860192840101923684116106e857868101925b84841061066d57505050505061045d610d0b565b8588526005845261047460ff868a20541615610e9e565b815160028110159081610661575b50156106285785885260038085528589208781556001808201805460ff199081168317909155959a9990989796959492916002018a8a5b610507575b8b8b8b7f6fa8ac7c105c459efdfee6428419da0f54dcf1345f66badb256a6f5ae5f1e45d8c8c8c848752600582528583882091825416179055815194855242908501523393a380f35b8451811015610623578981610553888c8c610544610525868d610f07565b51918351968794828601998a5285015282519283918686019101610f31565b8101038d810184520182610cd3565b51902082546801000000000000000081101561061157918b8d9e9f938c8c9d9e9f9b9c610604958c916105f28f888f8f6105b78f9a7ffca87d3a5e5a7eb6cc97303278d2def5adb14684215ce3d3f0fdf0ad2a03aa5c9b6105d19682018155610f54565b81929154911b9088821b91600019901b1916179055610f07565b51948051958694855281848601528051938480938701528686019101610f31565b601f01601f19168101030190a2610ee2565b909c9b9a999897966104b9565b634e487b7160e01b8e52604185528e8efd5b6104be565b845162461bcd60e51b815280880185905260148185015273125b9d985b1a59081bdc1d1a5bdb8818dbdd5b9d60621b6044820152606490fd5b600a9150111538610482565b83358381116106e4578201366043820112156106e45788810135918483116106d1578b518f6106a5601f8601601f19168e0183610cd3565b84825260443681878701011161016057858e968796928793018386013783010152815201930192610449565b50634e487b7160e01b8e5260418d52888efd5b8d80fd5b8b80fd5b634e487b7160e01b8952604188528389fd5b8780fd5b8380fd5b509034610133576020366003190112610133578060a0938335815260036020522060ff6001820154169260028201549260056003840154928401549301549361075182518097610c84565b602086015284015260608301526080820152f35b509161077036610c69565b929060019160028354146109a557600283558184526020916005835260ff82862054161561096a57845260039485835281852060ff858201541660058110156109575785036109145785968690600283018054925b8381106108dc575b50505050909192939495156108a8576008908287526007810185528387206107f6348254610f6c565b90553387520183528185209085528252808420610814348254610f6c565b905533845284825280842080549084820180921161089557553384528482528084205460001981019290831161088257907f5b88a2e3fc1a53234357ab78c104df11c33ccfa79886793654565ad70b8afb6e91863387528152818620549082519485528401523392a2805580f35b634e487b7160e01b855260118652602485fd5b634e487b7160e01b865260118752602486fd5b825162461bcd60e51b8152808801859052600e60248201526d24b73b30b634b21037b83a34b7b760911b6044820152606490fd5b856108e78284610f54565b905490851b1c14610900576108fb90610ee2565b6107c5565b5096985088965038915081905080806107cd565b825162461bcd60e51b8152808901859052601960248201527f4e6f742061206d756c74692d63686f696365206d61726b6574000000000000006044820152606490fd5b634e487b7160e01b875260218952602487fd5b815162461bcd60e51b8152808801849052601560248201527413585c9ad95d08191bd95cc81b9bdd08195e1a5cdd605a1b6044820152606490fd5b51633ee5aeb560e01b81528590fd5b509034610133576080366003190112610133578135906024356044356109d8610d0b565b838652602094600586526109f260ff858920541615610e9e565b82821115610a9657837f6fa8ac7c105c459efdfee6428419da0f54dcf1345f66badb256a6f5ae5f1e45d949386937f2bc905c6311a6eb2c21327f9ffaf269f1c630b255affdc6b60dbffa0ad7aec7093858b5260038a52816005858d2088815585600182019460ff1995600387825416179055820155015560058a526001848c2091825416179055825191825288820152a28051936003855242908501523393a380f35b835162461bcd60e51b8152908101869052600d60248201526c496e76616c69642072616e676560981b6044820152606490fd5b50919034610160578060031936011261016057610ae4610cbd565b90336001600160a01b03831603610b0157506101ca919235610e29565b5163334bd91960e11b81528390fd5b5090346101335780600319360112610133576101ca9135610b3460016101b4610cbd565b610dab565b50346101335760203660031901126101335760209282916001600160a01b03610125610ca7565b509034610133576020366003190112610133578060a0938335815260036020522080549260ff60018301541692610bae60056003850154938501549401549482519687526020870190610c84565b84015260608301526080820152f35b503461013357602036600319011261013357816020936001923581528085522001549051908152f35b5050346101605780602092610bfa36610c69565b90825260038552600783832001908252845220549051908152f35b92505034610133576020366003190112610133573563ffffffff60e01b81168091036101335760209250637965db0b60e01b8114908115610c58575b5015158152f35b6301ffc9a760e01b14905038610c51565b6040906003190112610c7f576004359060243590565b600080fd5b906005821015610c915752565b634e487b7160e01b600052602160045260246000fd5b600435906001600160a01b0382168203610c7f57565b602435906001600160a01b0382168203610c7f57565b90601f8019910116810190811067ffffffffffffffff821117610cf557604052565b634e487b7160e01b600052604160045260246000fd5b3360009081527f2412b2af58bf3b93d578a423d333d33fb94fb5093f9cda1aed2eaafb3215f92960205260409020547fd3065a24ad9e7725d223007135762d2902038999e3e5829146654498a58d97959060ff1615610d675750565b6044906040519063e2517d3f60e01b82523360048301526024820152fd5b80600052600060205260406000203360005260205260ff6040600020541615610d675750565b9060009180835282602052604083209160018060a01b03169182845260205260ff60408420541615600014610e2457808352826020526040832082845260205260408320600160ff198254161790557f2f8788117e7eff1d82e926ec794901d17c78024a50270940304540a733656f0d339380a4600190565b505090565b9060009180835282602052604083209160018060a01b03169182845260205260ff604084205416600014610e245780835282602052604083208284526020526040832060ff1981541690557ff6391f5c32d9c69d2a47ea670b442974b53935d1edc7fd64eb21e047a839171b339380a4600190565b15610ea557565b60405162461bcd60e51b81526020600482015260156024820152744d61726b657420616c72656164792065786973747360581b6044820152606490fd5b6000198114610ef15760010190565b634e487b7160e01b600052601160045260246000fd5b8051821015610f1b5760209160051b010190565b634e487b7160e01b600052603260045260246000fd5b60005b838110610f445750506000910152565b8181015183820152602001610f34565b8054821015610f1b5760005260206000200190600090565b91908201809211610ef15756fea26469706673582212203a3191461137b0bf6ecf57bbc980c1dd7468d59cd2fa1841191a8a44fee857b864736f6c634300081400332f8788117e7eff1d82e926ec794901d17c78024a50270940304540a733656f0d","opcodes":"PUSH1 0x80 CALLVALUE PUSH2 0x8C JUMPI PUSH1 0x1F PUSH2 0x1195 CODESIZE DUP2 SWAP1 SUB SWAP2 DUP3 ADD PUSH1 0x1F NOT AND DUP4 ADD SWAP2 PUSH1 0x1 PUSH1 0x1 PUSH1 0x40 SHL SUB DUP4 GT DUP5 DUP5 LT OR PUSH2 0x91 JUMPI DUP1 DUP5 SWAP3 PUSH1 0x20 SWAP5 PUSH1 0x40 MSTORE DUP4 CODECOPY DUP2 ADD SUB SLT PUSH2 0x8C JUMPI MLOAD PUSH1 0x1 PUSH1 0x1 PUSH1 0xA0 SHL SUB DUP2 AND SWAP1 DUP2 SWAP1 SUB PUSH2 0x8C JUMPI PUSH1 0x1 DUP1 SSTORE PUSH1 0x2 DUP1 SLOAD PUSH1 0x1 PUSH1 0x1 PUSH1 0xA0 SHL SUB NOT AND SWAP2 SWAP1 SWAP2 OR SWAP1 SSTORE PUSH2 0x72 CALLER PUSH2 0xA7 JUMP JUMPDEST POP PUSH2 0x7C CALLER PUSH2 0x125 JUMP JUMPDEST POP PUSH1 0x40 MLOAD PUSH2 0xFAF SWAP1 DUP2 PUSH2 0x1C6 DUP3 CODECOPY RETURN JUMPDEST PUSH1 0x0 DUP1 REVERT JUMPDEST PUSH4 0x4E487B71 PUSH1 0xE0 SHL PUSH1 0x0 MSTORE PUSH1 0x41 PUSH1 0x4 MSTORE PUSH1 0x24 PUSH1 0x0 REVERT JUMPDEST PUSH1 0x1 PUSH1 0x1 PUSH1 0xA0 SHL SUB AND PUSH1 0x0 DUP2 DUP2 MSTORE PUSH32 0xAD3228B676F7D3CD4284A5443F17F1962B36E491B30A40B2405849E597BA5FB5 PUSH1 0x20 MSTORE PUSH1 0x40 DUP2 KECCAK256 SLOAD SWAP1 SWAP2 SWAP1 PUSH1 0xFF AND PUSH2 0x121 JUMPI DUP2 DUP1 MSTORE DUP2 PUSH1 0x20 MSTORE PUSH1 0x40 DUP3 KECCAK256 DUP2 DUP4 MSTORE PUSH1 0x20 MSTORE PUSH1 0x40 DUP3 KECCAK256 PUSH1 0x1 PUSH1 0xFF NOT DUP3 SLOAD AND OR SWAP1 SSTORE CALLER SWAP2 PUSH1 0x0 DUP1 MLOAD PUSH1 0x20 PUSH2 0x1175 DUP4 CODECOPY DUP2 MLOAD SWAP2 MSTORE DUP2 DUP1 LOG4 PUSH1 0x1 SWAP1 JUMP JUMPDEST POP SWAP1 JUMP JUMPDEST PUSH1 0x1 PUSH1 0x1 PUSH1 0xA0 SHL SUB AND PUSH1 0x0 DUP2 DUP2 MSTORE PUSH32 0x2412B2AF58BF3B93D578A423D333D33FB94FB5093F9CDA1AED2EAAFB3215F929 PUSH1 0x20 MSTORE PUSH1 0x40 DUP2 KECCAK256 SLOAD SWAP1 SWAP2 SWAP1 PUSH32 0xD3065A24AD9E7725D223007135762D2902038999E3E5829146654498A58D9795 SWAP1 PUSH1 0xFF AND PUSH2 0x1C0 JUMPI DUP1 DUP4 MSTORE DUP3 PUSH1 0x20 MSTORE PUSH1 0x40 DUP4 KECCAK256 DUP3 DUP5 MSTORE PUSH1 0x20 MSTORE PUSH1 0x40 DUP4 KECCAK256 PUSH1 0x1 PUSH1 0xFF NOT DUP3 SLOAD AND OR SWAP1 SSTORE PUSH1 0x0 DUP1 MLOAD PUSH1 0x20 PUSH2 0x1175 DUP4 CODECOPY DUP2 MLOAD SWAP2 MSTORE CALLER SWAP4 DUP1 LOG4 PUSH1 0x1 SWAP1 JUMP JUMPDEST POP POP SWAP1 JUMP INVALID PUSH1 0x80 PUSH1 0x40 DUP2 DUP2 MSTORE PUSH1 0x4 DUP1 CALLDATASIZE LT ISZERO PUSH2 0x15 JUMPI PUSH1 0x0 DUP1 REVERT JUMPDEST PUSH1 0x0 SWAP3 DUP4 CALLDATALOAD PUSH1 0xE0 SHR SWAP1 DUP2 PUSH4 0x1FFC9A7 EQ PUSH2 0xC15 JUMPI POP DUP1 PUSH4 0x9A22AA2 EQ PUSH2 0xBE6 JUMPI DUP1 PUSH4 0x248A9CA3 EQ PUSH2 0xBBD JUMPI DUP1 PUSH4 0x26BA5BE3 EQ PUSH2 0xB60 JUMPI DUP1 PUSH4 0x27C06FD5 EQ PUSH2 0xB39 JUMPI DUP1 PUSH4 0x2F2FF15D EQ PUSH2 0xB10 JUMPI DUP1 PUSH4 0x36568ABE EQ PUSH2 0xAC9 JUMPI DUP1 PUSH4 0x3AC16AAC EQ PUSH2 0x9B4 JUMPI DUP1 PUSH4 0x3E19FEFE EQ PUSH2 0x765 JUMPI DUP1 PUSH4 0x582FC525 EQ PUSH2 0x706 JUMPI DUP1 PUSH4 0x8F530C85 EQ PUSH2 0x3D7 JUMPI DUP1 PUSH4 0x91D14854 EQ PUSH2 0x392 JUMPI DUP1 PUSH4 0xA217FDDF EQ PUSH2 0x377 JUMPI DUP1 PUSH4 0xA6E65993 EQ PUSH2 0x328 JUMPI DUP1 PUSH4 0xA88AB6C3 EQ PUSH2 0x209 JUMPI DUP1 PUSH4 0xAE42820C EQ PUSH2 0x1CE JUMPI DUP1 PUSH4 0xD547741F EQ PUSH2 0x190 JUMPI DUP1 PUSH4 0xD8D03989 EQ PUSH2 0x164 JUMPI DUP1 PUSH4 0xDEF114B6 EQ PUSH2 0x137 JUMPI PUSH4 0xE503BB05 EQ PUSH2 0xFF JUMPI PUSH1 0x0 DUP1 REVERT JUMPDEST CALLVALUE PUSH2 0x133 JUMPI PUSH1 0x20 CALLDATASIZE PUSH1 0x3 NOT ADD SLT PUSH2 0x133 JUMPI PUSH1 0x20 SWAP3 DUP3 SWAP2 PUSH1 0x1 PUSH1 0x1 PUSH1 0xA0 SHL SUB PUSH2 0x125 PUSH2 0xCA7 JUMP JUMPDEST AND DUP3 MSTORE DUP5 MSTORE KECCAK256 SLOAD SWAP1 MLOAD SWAP1 DUP2 MSTORE RETURN JUMPDEST DUP3 DUP1 REVERT JUMPDEST POP POP CALLVALUE PUSH2 0x160 JUMPI DUP2 PUSH1 0x3 NOT CALLDATASIZE ADD SLT PUSH2 0x160 JUMPI PUSH1 0x2 SLOAD SWAP1 MLOAD PUSH1 0x1 PUSH1 0x1 PUSH1 0xA0 SHL SUB SWAP1 SWAP2 AND DUP2 MSTORE PUSH1 0x20 SWAP1 RETURN JUMPDEST POP DUP1 REVERT JUMPDEST POP CALLVALUE PUSH2 0x133 JUMPI PUSH1 0x20 CALLDATASIZE PUSH1 0x3 NOT ADD SLT PUSH2 0x133 JUMPI DUP2 PUSH1 0x20 SWAP4 PUSH1 0xFF SWAP3 CALLDATALOAD DUP2 MSTORE PUSH1 0x5 DUP6 MSTORE KECCAK256 SLOAD AND SWAP1 MLOAD SWAP1 ISZERO ISZERO DUP2 MSTORE RETURN JUMPDEST POP SWAP1 CALLVALUE PUSH2 0x133 JUMPI DUP1 PUSH1 0x3 NOT CALLDATASIZE ADD SLT PUSH2 0x133 JUMPI PUSH2 0x1CA SWAP2 CALLDATALOAD PUSH2 0x1C5 PUSH1 0x1 PUSH2 0x1B4 PUSH2 0xCBD JUMP JUMPDEST SWAP4 DUP4 DUP8 MSTORE DUP7 PUSH1 0x20 MSTORE DUP7 KECCAK256 ADD SLOAD PUSH2 0xD85 JUMP JUMPDEST PUSH2 0xE29 JUMP JUMPDEST POP DUP1 RETURN JUMPDEST POP POP CALLVALUE PUSH2 0x160 JUMPI DUP2 PUSH1 0x3 NOT CALLDATASIZE ADD SLT PUSH2 0x160 JUMPI PUSH1 0x20 SWAP1 MLOAD PUSH32 0xD3065A24AD9E7725D223007135762D2902038999E3E5829146654498A58D9795 DUP2 MSTORE RETURN JUMPDEST POP SWAP1 CALLVALUE PUSH2 0x133 JUMPI PUSH1 0x60 CALLDATASIZE PUSH1 0x3 NOT ADD SLT PUSH2 0x133 JUMPI DUP2 CALLDATALOAD SWAP1 PUSH1 0x24 CALLDATALOAD SWAP3 PUSH2 0x22B PUSH2 0xD0B JUMP JUMPDEST DUP3 DUP6 MSTORE PUSH1 0x20 SWAP1 PUSH1 0x5 DUP3 MSTORE PUSH2 0x245 PUSH1 0xFF DUP5 DUP9 KECCAK256 SLOAD AND ISZERO PUSH2 0xE9E JUMP JUMPDEST DUP5 DUP7 MSTORE PUSH1 0x5 DUP3 MSTORE PUSH1 0xFF DUP4 DUP8 KECCAK256 SLOAD AND ISZERO PUSH2 0x2E7 JUMPI POP SWAP1 PUSH32 0x6FA8AC7C105C459EFDFEE6428419DA0F54DCF1345F66BADB256A6F5AE5F1E45D SWAP2 DUP4 DUP7 MSTORE PUSH1 0x3 DUP2 MSTORE DUP2 DUP7 KECCAK256 DUP5 DUP2 SSTORE DUP6 PUSH1 0x3 PUSH1 0x1 DUP4 ADD SWAP3 PUSH1 0xFF NOT SWAP4 PUSH1 0x2 DUP6 DUP3 SLOAD AND OR SWAP1 SSTORE ADD SSTORE PUSH1 0x5 DUP3 MSTORE PUSH1 0x1 DUP4 DUP9 KECCAK256 SWAP2 DUP3 SLOAD AND OR SWAP1 SSTORE DUP2 MLOAD SWAP5 DUP5 PUSH32 0x8A2AE5F895767F00B73DD65CA821EA078D63B585805751A439F2A3B1A35681AC DUP9 DUP1 LOG3 PUSH1 0x2 DUP6 MSTORE TIMESTAMP SWAP1 DUP6 ADD MSTORE CALLER SWAP4 LOG3 DUP1 RETURN JUMPDEST SWAP2 MLOAD PUSH3 0x461BCD PUSH1 0xE5 SHL DUP2 MSTORE SWAP2 DUP3 ADD MSTORE PUSH1 0x1F PUSH1 0x24 DUP3 ADD MSTORE PUSH32 0x446570656E64656E74206D61726B657420646F6573206E6F7420657869737400 PUSH1 0x44 DUP3 ADD MSTORE PUSH1 0x64 SWAP1 REVERT JUMPDEST POP CALLVALUE PUSH2 0x133 JUMPI PUSH1 0x60 CALLDATASIZE PUSH1 0x3 NOT ADD SLT PUSH2 0x133 JUMPI PUSH1 0x20 SWAP3 DUP3 SWAP2 PUSH2 0x347 PUSH2 0xCBD JUMP JUMPDEST SWAP1 CALLDATALOAD DUP3 MSTORE PUSH1 0x3 DUP6 MSTORE DUP3 DUP3 KECCAK256 PUSH1 0x1 PUSH1 0x1 PUSH1 0xA0 SHL SUB SWAP1 SWAP2 AND DUP3 MSTORE PUSH1 0x8 ADD DUP5 MSTORE DUP2 DUP2 KECCAK256 PUSH1 0x44 CALLDATALOAD DUP3 MSTORE DUP5 MSTORE KECCAK256 SLOAD SWAP1 MLOAD SWAP1 DUP2 MSTORE RETURN JUMPDEST POP POP CALLVALUE PUSH2 0x160 JUMPI DUP2 PUSH1 0x3 NOT CALLDATASIZE ADD SLT PUSH2 0x160 JUMPI MLOAD SWAP1 DUP2 MSTORE PUSH1 0x20 SWAP1 RETURN JUMPDEST POP CALLVALUE PUSH2 0x133 JUMPI DUP2 PUSH1 0x3 NOT CALLDATASIZE ADD SLT PUSH2 0x133 JUMPI DUP2 PUSH1 0x20 SWAP4 PUSH1 0xFF SWAP3 PUSH2 0x3B2 PUSH2 0xCBD JUMP JUMPDEST SWAP1 CALLDATALOAD DUP3 MSTORE DUP2 DUP7 MSTORE DUP3 DUP3 KECCAK256 PUSH1 0x1 PUSH1 0x1 PUSH1 0xA0 SHL SUB SWAP1 SWAP2 AND DUP3 MSTORE DUP6 MSTORE KECCAK256 SLOAD SWAP2 MLOAD SWAP2 AND ISZERO ISZERO DUP2 MSTORE RETURN JUMPDEST POP SWAP1 CALLVALUE PUSH2 0x133 JUMPI PUSH1 0x60 SWAP1 DUP2 PUSH1 0x3 NOT CALLDATASIZE ADD SLT PUSH2 0x702 JUMPI DUP3 CALLDATALOAD SWAP2 PUSH1 0x24 DUP1 CALLDATALOAD SWAP2 PUSH8 0xFFFFFFFFFFFFFFFF SWAP1 DUP2 DUP5 GT PUSH2 0x6FE JUMPI CALLDATASIZE PUSH1 0x23 DUP6 ADD SLT ISZERO PUSH2 0x6FE JUMPI DUP4 DUP8 ADD CALLDATALOAD SWAP4 DUP3 DUP6 GT PUSH2 0x6EC JUMPI DUP5 PUSH1 0x5 SHL DUP7 MLOAD SWAP4 PUSH1 0x20 SWAP7 PUSH2 0x432 DUP9 DUP5 ADD DUP8 PUSH2 0xCD3 JUMP JUMPDEST DUP6 MSTORE DUP6 DUP8 DUP7 ADD SWAP3 DUP5 ADD ADD SWAP3 CALLDATASIZE DUP5 GT PUSH2 0x6E8 JUMPI DUP7 DUP2 ADD SWAP3 JUMPDEST DUP5 DUP5 LT PUSH2 0x66D JUMPI POP POP POP POP POP PUSH2 0x45D PUSH2 0xD0B JUMP JUMPDEST DUP6 DUP9 MSTORE PUSH1 0x5 DUP5 MSTORE PUSH2 0x474 PUSH1 0xFF DUP7 DUP11 KECCAK256 SLOAD AND ISZERO PUSH2 0xE9E JUMP JUMPDEST DUP2 MLOAD PUSH1 0x2 DUP2 LT ISZERO SWAP1 DUP2 PUSH2 0x661 JUMPI JUMPDEST POP ISZERO PUSH2 0x628 JUMPI DUP6 DUP9 MSTORE PUSH1 0x3 DUP1 DUP6 MSTORE DUP6 DUP10 KECCAK256 DUP8 DUP2 SSTORE PUSH1 0x1 DUP1 DUP3 ADD DUP1 SLOAD PUSH1 0xFF NOT SWAP1 DUP2 AND DUP4 OR SWAP1 SWAP2 SSTORE SWAP6 SWAP11 SWAP10 SWAP1 SWAP9 SWAP8 SWAP7 SWAP6 SWAP5 SWAP3 SWAP2 PUSH1 0x2 ADD DUP11 DUP11 JUMPDEST PUSH2 0x507 JUMPI JUMPDEST DUP12 DUP12 DUP12 PUSH32 0x6FA8AC7C105C459EFDFEE6428419DA0F54DCF1345F66BADB256A6F5AE5F1E45D DUP13 DUP13 DUP13 DUP5 DUP8 MSTORE PUSH1 0x5 DUP3 MSTORE DUP6 DUP4 DUP9 KECCAK256 SWAP2 DUP3 SLOAD AND OR SWAP1 SSTORE DUP2 MLOAD SWAP5 DUP6 MSTORE TIMESTAMP SWAP1 DUP6 ADD MSTORE CALLER SWAP4 LOG3 DUP1 RETURN JUMPDEST DUP5 MLOAD DUP2 LT ISZERO PUSH2 0x623 JUMPI DUP10 DUP2 PUSH2 0x553 DUP9 DUP13 DUP13 PUSH2 0x544 PUSH2 0x525 DUP7 DUP14 PUSH2 0xF07 JUMP JUMPDEST MLOAD SWAP2 DUP4 MLOAD SWAP7 DUP8 SWAP5 DUP3 DUP7 ADD SWAP10 DUP11 MSTORE DUP6 ADD MSTORE DUP3 MLOAD SWAP3 DUP4 SWAP2 DUP7 DUP7 ADD SWAP2 ADD PUSH2 0xF31 JUMP JUMPDEST DUP2 ADD SUB DUP14 DUP2 ADD DUP5 MSTORE ADD DUP3 PUSH2 0xCD3 JUMP JUMPDEST MLOAD SWAP1 KECCAK256 DUP3 SLOAD PUSH9 0x10000000000000000 DUP2 LT ISZERO PUSH2 0x611 JUMPI SWAP2 DUP12 DUP14 SWAP15 SWAP16 SWAP4 DUP13 DUP13 SWAP14 SWAP15 SWAP16 SWAP12 SWAP13 PUSH2 0x604 SWAP6 DUP13 SWAP2 PUSH2 0x5F2 DUP16 DUP9 DUP16 DUP16 PUSH2 0x5B7 DUP16 SWAP11 PUSH32 0xFCA87D3A5E5A7EB6CC97303278D2DEF5ADB14684215CE3D3F0FDF0AD2A03AA5C SWAP12 PUSH2 0x5D1 SWAP7 DUP3 ADD DUP2 SSTORE PUSH2 0xF54 JUMP JUMPDEST DUP2 SWAP3 SWAP2 SLOAD SWAP2 SHL SWAP1 DUP9 DUP3 SHL SWAP2 PUSH1 0x0 NOT SWAP1 SHL NOT AND OR SWAP1 SSTORE PUSH2 0xF07 JUMP JUMPDEST MLOAD SWAP5 DUP1 MLOAD SWAP6 DUP7 SWAP5 DUP6 MSTORE DUP2 DUP5 DUP7 ADD MSTORE DUP1 MLOAD SWAP4 DUP5 DUP1 SWAP4 DUP8 ADD MSTORE DUP7 DUP7 ADD SWAP2 ADD PUSH2 0xF31 JUMP JUMPDEST PUSH1 0x1F ADD PUSH1 0x1F NOT AND DUP2 ADD SUB ADD SWAP1 LOG2 PUSH2 0xEE2 JUMP JUMPDEST SWAP1 SWAP13 SWAP12 SWAP11 SWAP10 SWAP9 SWAP8 SWAP7 PUSH2 0x4B9 JUMP JUMPDEST PUSH4 0x4E487B71 PUSH1 0xE0 SHL DUP15 MSTORE PUSH1 0x41 DUP6 MSTORE DUP15 DUP15 REVERT JUMPDEST PUSH2 0x4BE JUMP JUMPDEST DUP5 MLOAD PUSH3 0x461BCD PUSH1 0xE5 SHL DUP2 MSTORE DUP1 DUP9 ADD DUP6 SWAP1 MSTORE PUSH1 0x14 DUP2 DUP6 ADD MSTORE PUSH20 0x125B9D985B1A59081BDC1D1A5BDB8818DBDD5B9D PUSH1 0x62 SHL PUSH1 0x44 DUP3 ADD MSTORE PUSH1 0x64 SWAP1 REVERT JUMPDEST PUSH1 0xA SWAP2 POP GT ISZERO CODESIZE PUSH2 0x482 JUMP JUMPDEST DUP4 CALLDATALOAD DUP4 DUP2 GT PUSH2 0x6E4 JUMPI DUP3 ADD CALLDATASIZE PUSH1 0x43 DUP3 ADD SLT ISZERO PUSH2 0x6E4 JUMPI DUP9 DUP2 ADD CALLDATALOAD SWAP2 DUP5 DUP4 GT PUSH2 0x6D1 JUMPI DUP12 MLOAD DUP16 PUSH2 0x6A5 PUSH1 0x1F DUP7 ADD PUSH1 0x1F NOT AND DUP15 ADD DUP4 PUSH2 0xCD3 JUMP JUMPDEST DUP5 DUP3 MSTORE PUSH1 0x44 CALLDATASIZE DUP2 DUP8 DUP8 ADD ADD GT PUSH2 0x160 JUMPI DUP6 DUP15 SWAP7 DUP8 SWAP7 SWAP3 DUP8 SWAP4 ADD DUP4 DUP7 ADD CALLDATACOPY DUP4 ADD ADD MSTORE DUP2 MSTORE ADD SWAP4 ADD SWAP3 PUSH2 0x449 JUMP JUMPDEST POP PUSH4 0x4E487B71 PUSH1 0xE0 SHL DUP15 MSTORE PUSH1 0x41 DUP14 MSTORE DUP9 DUP15 REVERT JUMPDEST DUP14 DUP1 REVERT JUMPDEST DUP12 DUP1 REVERT JUMPDEST PUSH4 0x4E487B71 PUSH1 0xE0 SHL DUP10 MSTORE PUSH1 0x41 DUP9 MSTORE DUP4 DUP10 REVERT JUMPDEST DUP8 DUP1 REVERT JUMPDEST DUP4 DUP1 REVERT JUMPDEST POP SWAP1 CALLVALUE PUSH2 0x133 JUMPI PUSH1 0x20 CALLDATASIZE PUSH1 0x3 NOT ADD SLT PUSH2 0x133 JUMPI DUP1 PUSH1 0xA0 SWAP4 DUP4 CALLDATALOAD DUP2 MSTORE PUSH1 0x3 PUSH1 0x20 MSTORE KECCAK256 PUSH1 0xFF PUSH1 0x1 DUP3 ADD SLOAD AND SWAP3 PUSH1 0x2 DUP3 ADD SLOAD SWAP3 PUSH1 0x5 PUSH1 0x3 DUP5 ADD SLOAD SWAP3 DUP5 ADD SLOAD SWAP4 ADD SLOAD SWAP4 PUSH2 0x751 DUP3 MLOAD DUP1 SWAP8 PUSH2 0xC84 JUMP JUMPDEST PUSH1 0x20 DUP7 ADD MSTORE DUP5 ADD MSTORE PUSH1 0x60 DUP4 ADD MSTORE PUSH1 0x80 DUP3 ADD MSTORE RETURN JUMPDEST POP SWAP2 PUSH2 0x770 CALLDATASIZE PUSH2 0xC69 JUMP JUMPDEST SWAP3 SWAP1 PUSH1 0x1 SWAP2 PUSH1 0x2 DUP4 SLOAD EQ PUSH2 0x9A5 JUMPI PUSH1 0x2 DUP4 SSTORE DUP2 DUP5 MSTORE PUSH1 0x20 SWAP2 PUSH1 0x5 DUP4 MSTORE PUSH1 0xFF DUP3 DUP7 KECCAK256 SLOAD AND ISZERO PUSH2 0x96A JUMPI DUP5 MSTORE PUSH1 0x3 SWAP5 DUP6 DUP4 MSTORE DUP2 DUP6 KECCAK256 PUSH1 0xFF DUP6 DUP3 ADD SLOAD AND PUSH1 0x5 DUP2 LT ISZERO PUSH2 0x957 JUMPI DUP6 SUB PUSH2 0x914 JUMPI DUP6 SWAP7 DUP7 SWAP1 PUSH1 0x2 DUP4 ADD DUP1 SLOAD SWAP3 JUMPDEST DUP4 DUP2 LT PUSH2 0x8DC JUMPI JUMPDEST POP POP POP POP SWAP1 SWAP2 SWAP3 SWAP4 SWAP5 SWAP6 ISZERO PUSH2 0x8A8 JUMPI PUSH1 0x8 SWAP1 DUP3 DUP8 MSTORE PUSH1 0x7 DUP2 ADD DUP6 MSTORE DUP4 DUP8 KECCAK256 PUSH2 0x7F6 CALLVALUE DUP3 SLOAD PUSH2 0xF6C JUMP JUMPDEST SWAP1 SSTORE CALLER DUP8 MSTORE ADD DUP4 MSTORE DUP2 DUP6 KECCAK256 SWAP1 DUP6 MSTORE DUP3 MSTORE DUP1 DUP5 KECCAK256 PUSH2 0x814 CALLVALUE DUP3 SLOAD PUSH2 0xF6C JUMP JUMPDEST SWAP1 SSTORE CALLER DUP5 MSTORE DUP5 DUP3 MSTORE DUP1 DUP5 KECCAK256 DUP1 SLOAD SWAP1 DUP5 DUP3 ADD DUP1 SWAP3 GT PUSH2 0x895 JUMPI SSTORE CALLER DUP5 MSTORE DUP5 DUP3 MSTORE DUP1 DUP5 KECCAK256 SLOAD PUSH1 0x0 NOT DUP2 ADD SWAP3 SWAP1 DUP4 GT PUSH2 0x882 JUMPI SWAP1 PUSH32 0x5B88A2E3FC1A53234357AB78C104DF11C33CCFA79886793654565AD70B8AFB6E SWAP2 DUP7 CALLER DUP8 MSTORE DUP2 MSTORE DUP2 DUP7 KECCAK256 SLOAD SWAP1 DUP3 MLOAD SWAP5 DUP6 MSTORE DUP5 ADD MSTORE CALLER SWAP3 LOG2 DUP1 SSTORE DUP1 RETURN JUMPDEST PUSH4 0x4E487B71 PUSH1 0xE0 SHL DUP6 MSTORE PUSH1 0x11 DUP7 MSTORE PUSH1 0x24 DUP6 REVERT JUMPDEST PUSH4 0x4E487B71 PUSH1 0xE0 SHL DUP7 MSTORE PUSH1 0x11 DUP8 MSTORE PUSH1 0x24 DUP7 REVERT JUMPDEST DUP3 MLOAD PUSH3 0x461BCD PUSH1 0xE5 SHL DUP2 MSTORE DUP1 DUP9 ADD DUP6 SWAP1 MSTORE PUSH1 0xE PUSH1 0x24 DUP3 ADD MSTORE PUSH14 0x24B73B30B634B21037B83A34B7B7 PUSH1 0x91 SHL PUSH1 0x44 DUP3 ADD MSTORE PUSH1 0x64 SWAP1 REVERT JUMPDEST DUP6 PUSH2 0x8E7 DUP3 DUP5 PUSH2 0xF54 JUMP JUMPDEST SWAP1 SLOAD SWAP1 DUP6 SHL SHR EQ PUSH2 0x900 JUMPI PUSH2 0x8FB SWAP1 PUSH2 0xEE2 JUMP JUMPDEST PUSH2 0x7C5 JUMP JUMPDEST POP SWAP7 SWAP9 POP DUP9 SWAP7 POP CODESIZE SWAP2 POP DUP2 SWAP1 POP DUP1 DUP1 PUSH2 0x7CD JUMP JUMPDEST DUP3 MLOAD PUSH3 0x461BCD PUSH1 0xE5 SHL DUP2 MSTORE DUP1 DUP10 ADD DUP6 SWAP1 MSTORE PUSH1 0x19 PUSH1 0x24 DUP3 ADD MSTORE PUSH32 0x4E6F742061206D756C74692D63686F696365206D61726B657400000000000000 PUSH1 0x44 DUP3 ADD MSTORE PUSH1 0x64 SWAP1 REVERT JUMPDEST PUSH4 0x4E487B71 PUSH1 0xE0 SHL DUP8 MSTORE PUSH1 0x21 DUP10 MSTORE PUSH1 0x24 DUP8 REVERT JUMPDEST DUP2 MLOAD PUSH3 0x461BCD PUSH1 0xE5 SHL DUP2 MSTORE DUP1 DUP9 ADD DUP5 SWAP1 MSTORE PUSH1 0x15 PUSH1 0x24 DUP3 ADD MSTORE PUSH21 0x13585C9AD95D08191BD95CC81B9BDD08195E1A5CDD PUSH1 0x5A SHL PUSH1 0x44 DUP3 ADD MSTORE PUSH1 0x64 SWAP1 REVERT JUMPDEST MLOAD PUSH4 0x3EE5AEB5 PUSH1 0xE0 SHL DUP2 MSTORE DUP6 SWAP1 REVERT JUMPDEST POP SWAP1 CALLVALUE PUSH2 0x133 JUMPI PUSH1 0x80 CALLDATASIZE PUSH1 0x3 NOT ADD SLT PUSH2 0x133 JUMPI DUP2 CALLDATALOAD SWAP1 PUSH1 0x24 CALLDATALOAD PUSH1 0x44 CALLDATALOAD PUSH2 0x9D8 PUSH2 0xD0B JUMP JUMPDEST DUP4 DUP7 MSTORE PUSH1 0x20 SWAP5 PUSH1 0x5 DUP7 MSTORE PUSH2 0x9F2 PUSH1 0xFF DUP6 DUP10 KECCAK256 SLOAD AND ISZERO PUSH2 0xE9E JUMP JUMPDEST DUP3 DUP3 GT ISZERO PUSH2 0xA96 JUMPI DUP4 PUSH32 0x6FA8AC7C105C459EFDFEE6428419DA0F54DCF1345F66BADB256A6F5AE5F1E45D SWAP5 SWAP4 DUP7 SWAP4 PUSH32 0x2BC905C6311A6EB2C21327F9FFAF269F1C630B255AFFDC6B60DBFFA0AD7AEC70 SWAP4 DUP6 DUP12 MSTORE PUSH1 0x3 DUP11 MSTORE DUP2 PUSH1 0x5 DUP6 DUP14 KECCAK256 DUP9 DUP2 SSTORE DUP6 PUSH1 0x1 DUP3 ADD SWAP5 PUSH1 0xFF NOT SWAP6 PUSH1 0x3 DUP8 DUP3 SLOAD AND OR SWAP1 SSTORE DUP3 ADD SSTORE ADD SSTORE PUSH1 0x5 DUP11 MSTORE PUSH1 0x1 DUP5 DUP13 KECCAK256 SWAP2 DUP3 SLOAD AND OR SWAP1 SSTORE DUP3 MLOAD SWAP2 DUP3 MSTORE DUP9 DUP3 ADD MSTORE LOG2 DUP1 MLOAD SWAP4 PUSH1 0x3 DUP6 MSTORE TIMESTAMP SWAP1 DUP6 ADD MSTORE CALLER SWAP4 LOG3 DUP1 RETURN JUMPDEST DUP4 MLOAD PUSH3 0x461BCD PUSH1 0xE5 SHL DUP2 MSTORE SWAP1 DUP2 ADD DUP7 SWAP1 MSTORE PUSH1 0xD PUSH1 0x24 DUP3 ADD MSTORE PUSH13 0x496E76616C69642072616E6765 PUSH1 0x98 SHL PUSH1 0x44 DUP3 ADD MSTORE PUSH1 0x64 SWAP1 REVERT JUMPDEST POP SWAP2 SWAP1 CALLVALUE PUSH2 0x160 JUMPI DUP1 PUSH1 0x3 NOT CALLDATASIZE ADD SLT PUSH2 0x160 JUMPI PUSH2 0xAE4 PUSH2 0xCBD JUMP JUMPDEST SWAP1 CALLER PUSH1 0x1 PUSH1 0x1 PUSH1 0xA0 SHL SUB DUP4 AND SUB PUSH2 0xB01 JUMPI POP PUSH2 0x1CA SWAP2 SWAP3 CALLDATALOAD PUSH2 0xE29 JUMP JUMPDEST MLOAD PUSH4 0x334BD919 PUSH1 0xE1 SHL DUP2 MSTORE DUP4 SWAP1 REVERT JUMPDEST POP SWAP1 CALLVALUE PUSH2 0x133 JUMPI DUP1 PUSH1 0x3 NOT CALLDATASIZE ADD SLT PUSH2 0x133 JUMPI PUSH2 0x1CA SWAP2 CALLDATALOAD PUSH2 0xB34 PUSH1 0x1 PUSH2 0x1B4 PUSH2 0xCBD JUMP JUMPDEST PUSH2 0xDAB JUMP JUMPDEST POP CALLVALUE PUSH2 0x133 JUMPI PUSH1 0x20 CALLDATASIZE PUSH1 0x3 NOT ADD SLT PUSH2 0x133 JUMPI PUSH1 0x20 SWAP3 DUP3 SWAP2 PUSH1 0x1 PUSH1 0x1 PUSH1 0xA0 SHL SUB PUSH2 0x125 PUSH2 0xCA7 JUMP JUMPDEST POP SWAP1 CALLVALUE PUSH2 0x133 JUMPI PUSH1 0x20 CALLDATASIZE PUSH1 0x3 NOT ADD SLT PUSH2 0x133 JUMPI DUP1 PUSH1 0xA0 SWAP4 DUP4 CALLDATALOAD DUP2 MSTORE PUSH1 0x3 PUSH1 0x20 MSTORE KECCAK256 DUP1 SLOAD SWAP3 PUSH1 0xFF PUSH1 0x1 DUP4 ADD SLOAD AND SWAP3 PUSH2 0xBAE PUSH1 0x5 PUSH1 0x3 DUP6 ADD SLOAD SWAP4 DUP6 ADD SLOAD SWAP5 ADD SLOAD SWAP5 DUP3 MLOAD SWAP7 DUP8 MSTORE PUSH1 0x20 DUP8 ADD SWAP1 PUSH2 0xC84 JUMP JUMPDEST DUP5 ADD MSTORE PUSH1 0x60 DUP4 ADD MSTORE PUSH1 0x80 DUP3 ADD MSTORE RETURN JUMPDEST POP CALLVALUE PUSH2 0x133 JUMPI PUSH1 0x20 CALLDATASIZE PUSH1 0x3 NOT ADD SLT PUSH2 0x133 JUMPI DUP2 PUSH1 0x20 SWAP4 PUSH1 0x1 SWAP3 CALLDATALOAD DUP2 MSTORE DUP1 DUP6 MSTORE KECCAK256 ADD SLOAD SWAP1 MLOAD SWAP1 DUP2 MSTORE RETURN JUMPDEST POP POP CALLVALUE PUSH2 0x160 JUMPI DUP1 PUSH1 0x20 SWAP3 PUSH2 0xBFA CALLDATASIZE PUSH2 0xC69 JUMP JUMPDEST SWAP1 DUP3 MSTORE PUSH1 0x3 DUP6 MSTORE PUSH1 0x7 DUP4 DUP4 KECCAK256 ADD SWAP1 DUP3 MSTORE DUP5 MSTORE KECCAK256 SLOAD SWAP1 MLOAD SWAP1 DUP2 MSTORE RETURN JUMPDEST SWAP3 POP POP CALLVALUE PUSH2 0x133 JUMPI PUSH1 0x20 CALLDATASIZE PUSH1 0x3 NOT ADD SLT PUSH2 0x133 JUMPI CALLDATALOAD PUSH4 0xFFFFFFFF PUSH1 0xE0 SHL DUP2 AND DUP1 SWAP2 SUB PUSH2 0x133 JUMPI PUSH1 0x20 SWAP3 POP PUSH4 0x7965DB0B PUSH1 0xE0 SHL DUP2 EQ SWAP1 DUP2 ISZERO PUSH2 0xC58 JUMPI JUMPDEST POP ISZERO ISZERO DUP2 MSTORE RETURN JUMPDEST PUSH4 0x1FFC9A7 PUSH1 0xE0 SHL EQ SWAP1 POP CODESIZE PUSH2 0xC51 JUMP JUMPDEST PUSH1 0x40 SWAP1 PUSH1 0x3 NOT ADD SLT PUSH2 0xC7F JUMPI PUSH1 0x4 CALLDATALOAD SWAP1 PUSH1 0x24 CALLDATALOAD SWAP1 JUMP JUMPDEST PUSH1 0x0 DUP1 REVERT JUMPDEST SWAP1 PUSH1 0x5 DUP3 LT ISZERO PUSH2 0xC91 JUMPI MSTORE JUMP JUMPDEST PUSH4 0x4E487B71 PUSH1 0xE0 SHL PUSH1 0x0 MSTORE PUSH1 0x21 PUSH1 0x4 MSTORE PUSH1 0x24 PUSH1 0x0 REVERT JUMPDEST PUSH1 0x4 CALLDATALOAD SWAP1 PUSH1 0x1 PUSH1 0x1 PUSH1 0xA0 SHL SUB DUP3 AND DUP3 SUB PUSH2 0xC7F JUMPI JUMP JUMPDEST PUSH1 0x24 CALLDATALOAD SWAP1 PUSH1 0x1 PUSH1 0x1 PUSH1 0xA0 SHL SUB DUP3 AND DUP3 SUB PUSH2 0xC7F JUMPI JUMP JUMPDEST SWAP1 PUSH1 0x1F DUP1 NOT SWAP2 ADD AND DUP2 ADD SWAP1 DUP2 LT PUSH8 0xFFFFFFFFFFFFFFFF DUP3 GT OR PUSH2 0xCF5 JUMPI PUSH1 0x40 MSTORE JUMP JUMPDEST PUSH4 0x4E487B71 PUSH1 0xE0 SHL PUSH1 0x0 MSTORE PUSH1 0x41 PUSH1 0x4 MSTORE PUSH1 0x24 PUSH1 0x0 REVERT JUMPDEST CALLER PUSH1 0x0 SWAP1 DUP2 MSTORE PUSH32 0x2412B2AF58BF3B93D578A423D333D33FB94FB5093F9CDA1AED2EAAFB3215F929 PUSH1 0x20 MSTORE PUSH1 0x40 SWAP1 KECCAK256 SLOAD PUSH32 0xD3065A24AD9E7725D223007135762D2902038999E3E5829146654498A58D9795 SWAP1 PUSH1 0xFF AND ISZERO PUSH2 0xD67 JUMPI POP JUMP JUMPDEST PUSH1 0x44 SWAP1 PUSH1 0x40 MLOAD SWAP1 PUSH4 0xE2517D3F PUSH1 0xE0 SHL DUP3 MSTORE CALLER PUSH1 0x4 DUP4 ADD MSTORE PUSH1 0x24 DUP3 ADD MSTORE REVERT JUMPDEST DUP1 PUSH1 0x0 MSTORE PUSH1 0x0 PUSH1 0x20 MSTORE PUSH1 0x40 PUSH1 0x0 KECCAK256 CALLER PUSH1 0x0 MSTORE PUSH1 0x20 MSTORE PUSH1 0xFF PUSH1 0x40 PUSH1 0x0 KECCAK256 SLOAD AND ISZERO PUSH2 0xD67 JUMPI POP JUMP JUMPDEST SWAP1 PUSH1 0x0 SWAP2 DUP1 DUP4 MSTORE DUP3 PUSH1 0x20 MSTORE PUSH1 0x40 DUP4 KECCAK256 SWAP2 PUSH1 0x1 DUP1 PUSH1 0xA0 SHL SUB AND SWAP2 DUP3 DUP5 MSTORE PUSH1 0x20 MSTORE PUSH1 0xFF PUSH1 0x40 DUP5 KECCAK256 SLOAD AND ISZERO PUSH1 0x0 EQ PUSH2 0xE24 JUMPI DUP1 DUP4 MSTORE DUP3 PUSH1 0x20 MSTORE PUSH1 0x40 DUP4 KECCAK256 DUP3 DUP5 MSTORE PUSH1 0x20 MSTORE PUSH1 0x40 DUP4 KECCAK256 PUSH1 0x1 PUSH1 0xFF NOT DUP3 SLOAD AND OR SWAP1 SSTORE PUSH32 0x2F8788117E7EFF1D82E926EC794901D17C78024A50270940304540A733656F0D CALLER SWAP4 DUP1 LOG4 PUSH1 0x1 SWAP1 JUMP JUMPDEST POP POP SWAP1 JUMP JUMPDEST SWAP1 PUSH1 0x0 SWAP2 DUP1 DUP4 MSTORE DUP3 PUSH1 0x20 MSTORE PUSH1 0x40 DUP4 KECCAK256 SWAP2 PUSH1 0x1 DUP1 PUSH1 0xA0 SHL SUB AND SWAP2 DUP3 DUP5 MSTORE PUSH1 0x20 MSTORE PUSH1 0xFF PUSH1 0x40 DUP5 KECCAK256 SLOAD AND PUSH1 0x0 EQ PUSH2 0xE24 JUMPI DUP1 DUP4 MSTORE DUP3 PUSH1 0x20 MSTORE PUSH1 0x40 DUP4 KECCAK256 DUP3 DUP5 MSTORE PUSH1 0x20 MSTORE PUSH1 0x40 DUP4 KECCAK256 PUSH1 0xFF NOT DUP2 SLOAD AND SWAP1 SSTORE PUSH32 0xF6391F5C32D9C69D2A47EA670B442974B53935D1EDC7FD64EB21E047A839171B CALLER SWAP4 DUP1 LOG4 PUSH1 0x1 SWAP1 JUMP JUMPDEST ISZERO PUSH2 0xEA5 JUMPI JUMP JUMPDEST PUSH1 0x40 MLOAD PUSH3 0x461BCD PUSH1 0xE5 SHL DUP2 MSTORE PUSH1 0x20 PUSH1 0x4 DUP3 ADD MSTORE PUSH1 0x15 PUSH1 0x24 DUP3 ADD MSTORE PUSH21 0x4D61726B657420616C726561647920657869737473 PUSH1 0x58 SHL PUSH1 0x44 DUP3 ADD MSTORE PUSH1 0x64 SWAP1 REVERT JUMPDEST PUSH1 0x0 NOT DUP2 EQ PUSH2 0xEF1 JUMPI PUSH1 0x1 ADD SWAP1 JUMP JUMPDEST PUSH4 0x4E487B71 PUSH1 0xE0 SHL PUSH1 0x0 MSTORE PUSH1 0x11 PUSH1 0x4 MSTORE PUSH1 0x24 PUSH1 0x0 REVERT JUMPDEST DUP1 MLOAD DUP3 LT ISZERO PUSH2 0xF1B JUMPI PUSH1 0x20 SWAP2 PUSH1 0x5 SHL ADD ADD SWAP1 JUMP JUMPDEST PUSH4 0x4E487B71 PUSH1 0xE0 SHL PUSH1 0x0 MSTORE PUSH1 0x32 PUSH1 0x4 MSTORE PUSH1 0x24 PUSH1 0x0 REVERT JUMPDEST PUSH1 0x0 JUMPDEST DUP4 DUP2 LT PUSH2 0xF44 JUMPI POP POP PUSH1 0x0 SWAP2 ADD MSTORE JUMP JUMPDEST DUP2 DUP2 ADD MLOAD DUP4 DUP3 ADD MSTORE PUSH1 0x20 ADD PUSH2 0xF34 JUMP JUMPDEST DUP1 SLOAD DUP3 LT ISZERO PUSH2 0xF1B JUMPI PUSH1 0x0 MSTORE PUSH1 0x20 PUSH1 0x0 KECCAK256 ADD SWAP1 PUSH1 0x0 SWAP1 JUMP JUMPDEST SWAP2 SWAP1 DUP3 ADD DUP1 SWAP3 GT PUSH2 0xEF1 JUMPI JUMP INVALID LOG2 PUSH5 0x6970667358 0x22 SLT KECCAK256 GASPRICE BALANCE SWAP2 CHAINID GT CALLDATACOPY 0xB0 0xBF PUSH15 0xCF57BBC980C1DD7468D59CD2FA1841 NOT BYTE DUP11 PREVRANDAO INVALID 0xE8 JUMPI 0xB8 PUSH5 0x736F6C6343 STOP ADDMOD EQ STOP CALLER 0x2F DUP8 DUP9 GT PUSH31 0x7EFF1D82E926EC794901D17C78024A50270940304540A733656F0D00000000 "},"methodIdentifiers":{"DEFAULT_ADMIN_ROLE()":"a217fddf","MARKET_CREATOR_ROLE()":"ae42820c","advancedMarkets(bytes32)":"26ba5be3","betOnOption(bytes32,bytes32)":"3e19fefe","calculateReputation(address)":"27c06fd5","createConditionalMarket(bytes32,bytes32,uint256)":"a88ab6c3","createMultiChoiceMarket(bytes32,string[],uint256)":"8f530c85","createRangeMarket(bytes32,uint256,uint256,uint256)":"3ac16aac","getAdvancedMarket(bytes32)":"582fc525","getOptionStake(bytes32,bytes32)":"09a22aa2","getRoleAdmin(bytes32)":"248a9ca3","getUserOptionBet(bytes32,address,bytes32)":"a6e65993","grantRole(bytes32,address)":"2f2ff15d","hasRole(bytes32,address)":"91d14854","marketExists(bytes32)":"d8d03989","predictionMarket()":"def114b6","renounceRole(bytes32,address)":"36568abe","revokeRole(bytes32,address)":"d547741f","supportsInterface(bytes4)":"01ffc9a7","userReputation(address)":"e503bb05"}}}}}