{"contracts/src/ActorRegistry.sol":{"ActorRegistry":{"abi":[{"inputs":[{"internalType":"address","name":"_nodeRegistry","type":"address"}],"stateMutability":"nonpayable","type":"constructor"},{"inputs":[],"name":"AccessControlBadConfirmation","type":"error"},{"inputs":[{"internalType":"address","name":"account","type":"address"},{"internalType":"bytes32","name":"neededRole","type":"bytes32"}],"name":"AccessControlUnauthorizedAccount","type":"error"},{"inputs":[],"name":"ReentrancyGuardReentrantCall","type":"error"},{"anonymous":false,"inputs":[{"indexed":true,"internalType":"string","name":"xUsername","type":"string"},{"indexed":false,"internalType":"uint256","name":"approvalCount","type":"uint256"}],"name":"ActorActivated","type":"event"},{"anonymous":false,"inputs":[{"indexed":true,"internalType":"string","name":"xUsername","type":"string"},{"indexed":true,"internalType":"address","name":"approver","type":"address"}],"name":"ActorApproved","type":"event"},{"anonymous":false,"inputs":[{"indexed":true,"internalType":"string","name":"xUsername","type":"string"},{"indexed":true,"internalType":"address","name":"proposer","type":"address"}],"name":"ActorDeactivated","type":"event"},{"anonymous":false,"inputs":[{"indexed":true,"internalType":"string","name":"xUsername","type":"string"},{"indexed":true,"internalType":"address","name":"proposer","type":"address"},{"indexed":false,"internalType":"bytes32","name":"proposalId","type":"bytes32"}],"name":"ActorProposed","type":"event"},{"anonymous":false,"inputs":[{"indexed":true,"internalType":"string","name":"xUsername","type":"string"},{"indexed":true,"internalType":"address","name":"updater","type":"address"}],"name":"ActorUpdated","type":"event"},{"anonymous":false,"inputs":[{"indexed":true,"internalType":"bytes32","name":"proposalId","type":"bytes32"},{"indexed":false,"internalType":"bool","name":"approved","type":"bool"}],"name":"ProposalExecuted","type":"event"},{"anonymous":false,"inputs":[{"indexed":true,"internalType":"bytes32","name":"proposalId","type":"bytes32"},{"indexed":true,"internalType":"address","name":"voter","type":"address"},{"indexed":false,"internalType":"bool","name":"support","type":"bool"}],"name":"ProposalVoteCast","type":"event"},{"anonymous":false,"inputs":[{"indexed":true,"internalType":"bytes32","name":"role","type":"bytes32"},{"indexed":true,"internalType":"bytes32","name":"previousAdminRole","type":"bytes32"},{"indexed":true,"internalType":"bytes32","name":"newAdminRole","type":"bytes32"}],"name":"RoleAdminChanged","type":"event"},{"anonymous":false,"inputs":[{"indexed":true,"internalType":"bytes32","name":"role","type":"bytes32"},{"indexed":true,"internalType":"address","name":"account","type":"address"},{"indexed":true,"internalType":"address","name":"sender","type":"address"}],"name":"RoleGranted","type":"event"},{"anonymous":false,"inputs":[{"indexed":true,"internalType":"bytes32","name":"role","type":"bytes32"},{"indexed":true,"internalType":"address","name":"account","type":"address"},{"indexed":true,"internalType":"address","name":"sender","type":"address"}],"name":"RoleRevoked","type":"event"},{"inputs":[],"name":"ADMIN_ROLE","outputs":[{"internalType":"bytes32","name":"","type":"bytes32"}],"stateMutability":"view","type":"function"},{"inputs":[],"name":"APPROVAL_THRESHOLD","outputs":[{"internalType":"uint256","name":"","type":"uint256"}],"stateMutability":"view","type":"function"},{"inputs":[],"name":"DEFAULT_ADMIN_ROLE","outputs":[{"internalType":"bytes32","name":"","type":"bytes32"}],"stateMutability":"view","type":"function"},{"inputs":[],"name":"PROPOSER_ROLE","outputs":[{"internalType":"bytes32","name":"","type":"bytes32"}],"stateMutability":"view","type":"function"},{"inputs":[],"name":"SYNC_COOLDOWN","outputs":[{"internalType":"uint256","name":"","type":"uint256"}],"stateMutability":"view","type":"function"},{"inputs":[],"name":"VOTING_PERIOD","outputs":[{"internalType":"uint256","name":"","type":"uint256"}],"stateMutability":"view","type":"function"},{"inputs":[{"internalType":"string","name":"","type":"string"}],"name":"activeProposal","outputs":[{"internalType":"bytes32","name":"","type":"bytes32"}],"stateMutability":"view","type":"function"},{"inputs":[],"name":"actorCount","outputs":[{"internalType":"uint256","name":"","type":"uint256"}],"stateMutability":"view","type":"function"},{"inputs":[{"internalType":"string","name":"","type":"string"}],"name":"actorExists","outputs":[{"internalType":"bool","name":"","type":"bool"}],"stateMutability":"view","type":"function"},{"inputs":[{"internalType":"uint256","name":"","type":"uint256"}],"name":"actorList","outputs":[{"internalType":"string","name":"","type":"string"}],"stateMutability":"view","type":"function"},{"inputs":[{"internalType":"string","name":"","type":"string"}],"name":"actors","outputs":[{"internalType":"string","name":"xUsername","type":"string"},{"internalType":"string","name":"displayName","type":"string"},{"internalType":"string","name":"bio","type":"string"},{"internalType":"string","name":"profileImageUrl","type":"string"},{"internalType":"bool","name":"verified","type":"bool"},{"internalType":"uint256","name":"followerCount","type":"uint256"},{"internalType":"uint256","name":"approvalCount","type":"uint256"},{"internalType":"bool","name":"active","type":"bool"},{"internalType":"uint256","name":"registrationTime","type":"uint256"},{"internalType":"uint256","name":"lastSync","type":"uint256"},{"internalType":"address","name":"proposer","type":"address"},{"internalType":"bool","name":"isTestAccount","type":"bool"}],"stateMutability":"view","type":"function"},{"inputs":[{"internalType":"bytes32","name":"_proposalId","type":"bytes32"}],"name":"executeProposal","outputs":[],"stateMutability":"nonpayable","type":"function"},{"inputs":[],"name":"getActiveActors","outputs":[{"internalType":"string[]","name":"","type":"string[]"}],"stateMutability":"view","type":"function"},{"inputs":[{"internalType":"string","name":"_xUsername","type":"string"}],"name":"getActor","outputs":[{"internalType":"string","name":"displayName","type":"string"},{"internalType":"string","name":"bio","type":"string"},{"internalType":"bool","name":"verified","type":"bool"},{"internalType":"uint256","name":"followerCount","type":"uint256"},{"internalType":"bool","name":"active","type":"bool"},{"internalType":"uint256","name":"approvalCount","type":"uint256"},{"internalType":"uint256","name":"registrationTime","type":"uint256"},{"internalType":"bool","name":"isTestAccount","type":"bool"}],"stateMutability":"view","type":"function"},{"inputs":[{"internalType":"string","name":"_xUsername","type":"string"}],"name":"getActorApprovers","outputs":[{"internalType":"address[]","name":"","type":"address[]"}],"stateMutability":"view","type":"function"},{"inputs":[{"internalType":"bytes32","name":"role","type":"bytes32"}],"name":"getRoleAdmin","outputs":[{"internalType":"bytes32","name":"","type":"bytes32"}],"stateMutability":"view","type":"function"},{"inputs":[{"internalType":"address","name":"account","type":"address"}],"name":"grantProposerRole","outputs":[],"stateMutability":"nonpayable","type":"function"},{"inputs":[{"internalType":"bytes32","name":"role","type":"bytes32"},{"internalType":"address","name":"account","type":"address"}],"name":"grantRole","outputs":[],"stateMutability":"nonpayable","type":"function"},{"inputs":[{"internalType":"bytes32","name":"role","type":"bytes32"},{"internalType":"address","name":"account","type":"address"}],"name":"hasRole","outputs":[{"internalType":"bool","name":"","type":"bool"}],"stateMutability":"view","type":"function"},{"inputs":[{"internalType":"string","name":"_xUsername","type":"string"}],"name":"isActorActive","outputs":[{"internalType":"bool","name":"","type":"bool"}],"stateMutability":"view","type":"function"},{"inputs":[],"name":"nodeRegistry","outputs":[{"internalType":"contract NodeRegistry","name":"","type":"address"}],"stateMutability":"view","type":"function"},{"inputs":[],"name":"proposalCount","outputs":[{"internalType":"uint256","name":"","type":"uint256"}],"stateMutability":"view","type":"function"},{"inputs":[{"internalType":"bytes32","name":"","type":"bytes32"}],"name":"proposals","outputs":[{"internalType":"uint256","name":"votesFor","type":"uint256"},{"internalType":"uint256","name":"votesAgainst","type":"uint256"},{"internalType":"uint256","name":"deadline","type":"uint256"},{"internalType":"bool","name":"executed","type":"bool"},{"internalType":"string","name":"proposalType","type":"string"}],"stateMutability":"view","type":"function"},{"inputs":[{"internalType":"string","name":"_xUsername","type":"string"},{"internalType":"string","name":"_displayName","type":"string"},{"internalType":"string","name":"_bio","type":"string"},{"internalType":"string","name":"_profileImageUrl","type":"string"},{"internalType":"bool","name":"_verified","type":"bool"},{"internalType":"uint256","name":"_followerCount","type":"uint256"},{"internalType":"bool","name":"_isTestAccount","type":"bool"}],"name":"proposeActor","outputs":[{"internalType":"bytes32","name":"","type":"bytes32"}],"stateMutability":"nonpayable","type":"function"},{"inputs":[{"internalType":"string","name":"_xUsername","type":"string"}],"name":"proposeDeactivation","outputs":[{"internalType":"bytes32","name":"","type":"bytes32"}],"stateMutability":"nonpayable","type":"function"},{"inputs":[{"internalType":"bytes32","name":"role","type":"bytes32"},{"internalType":"address","name":"callerConfirmation","type":"address"}],"name":"renounceRole","outputs":[],"stateMutability":"nonpayable","type":"function"},{"inputs":[{"internalType":"address","name":"account","type":"address"}],"name":"revokeProposerRole","outputs":[],"stateMutability":"nonpayable","type":"function"},{"inputs":[{"internalType":"bytes32","name":"role","type":"bytes32"},{"internalType":"address","name":"account","type":"address"}],"name":"revokeRole","outputs":[],"stateMutability":"nonpayable","type":"function"},{"inputs":[{"internalType":"bytes4","name":"interfaceId","type":"bytes4"}],"name":"supportsInterface","outputs":[{"internalType":"bool","name":"","type":"bool"}],"stateMutability":"view","type":"function"},{"inputs":[{"internalType":"string","name":"_xUsername","type":"string"},{"internalType":"string","name":"_displayName","type":"string"},{"internalType":"string","name":"_bio","type":"string"},{"internalType":"string","name":"_profileImageUrl","type":"string"},{"internalType":"bool","name":"_verified","type":"bool"},{"internalType":"uint256","name":"_followerCount","type":"uint256"}],"name":"updateActor","outputs":[],"stateMutability":"nonpayable","type":"function"},{"inputs":[{"internalType":"bytes32","name":"_proposalId","type":"bytes32"},{"internalType":"bool","name":"_support","type":"bool"}],"name":"voteOnProposal","outputs":[],"stateMutability":"nonpayable","type":"function"}],"evm":{"bytecode":{"linkReferences":{},"object":"6080346200009657601f62002a0938819003918201601f19168301916001600160401b038311848410176200009b578084926020946040528339810103126200009657516001600160a01b03811690819003620000965760018055600280546001600160a01b0319169190911790556200007933620000b1565b50620000853362000131565b506040516128159081620001d48239f35b600080fd5b634e487b7160e01b600052604160045260246000fd5b6001600160a01b031660008181527fad3228b676f7d3cd4284a5443f17f1962b36e491b30a40b2405849e597ba5fb5602052604081205490919060ff166200012d57818052816020526040822081835260205260408220600160ff198254161790553391600080516020620029e98339815191528180a4600190565b5090565b6001600160a01b031660008181527f7d7ffb7a348e1c6a02869081a26547b49160dd3df72d1d75a570eb9b698292ec60205260408120549091907fa49807205ce4d355092ef5a8a18f56e8913cf4a201fbe287825b095693c217759060ff16620001ce57808352826020526040832082845260205260408320600160ff19825416179055600080516020620029e9833981519152339380a4600190565b50509056fe608060408181526004918236101561001657600080fd5b600092833560e01c91826301ffc9a714611c80575081630d44aa9914611c6357816315e30c9114611c3a5781632431bf4b146117b157816324544d3114611632578163248a9ca3146116085781632f2ff15d146115de5781632f3330591461131c57816332ed5b121461129f57816336568abe146112595781633ab342901461123d57816347b8fe5714610f615781635191697014610b51578163682ca16c14610af557816375b238fc14610aba5781637cf21f0f146109e657816389421f5e146109c75781638f61f4f51461099e57816391d1485414610958578163932e8fc6146108e4578163980ff6c614610635578163a217fddf1461061a578163a84eb7541461051b578163ab6cbf45146104b9578163b1610d7e1461049b578163d547741f14610460578163d9b5c4a514610437578163da35c66414610418578163e1375e7114610273578163fbe89890146101d0575063fe0ea3e61461017a57600080fd5b346101cc5760203660031901126101cc576101c8906101c3600161019c611cd3565b926101a5611f2c565b6000805160206127a083398151915286528560205285200154611fa6565b611fcc565b5080f35b5080fd5b9190503461026f57602036600319011261026f578135926001600160401b03841161026c575061020560209336908401611d71565b9160ff825185818651948288019561021e818489611dc7565b8201908152030190205416928361023a575b5050519015158152f35b829350846008926102579260ff9551938492839251928391611dc7565b81016003815203019020015416903880610230565b80fd5b8280fd5b82843461026c578060031936011261026c578081600754905b8181106103c7575061029d82612774565b916102aa85519384611d35565b8083526102b9601f1991612774565b01835b8181106103b657505082835b82811061032d57505050825191602080840190808552835180925280868601968360051b870101940192955b8287106103015785850386f35b90919293828061031d600193603f198a82030186528851611eba565b96019201960195929190926102f4565b60ff600861034b602061033f85611edf565b508a5192838092612545565b6003815203019020015416610369575b61036490612520565b6102c8565b906103ae6103649161038c61039361038086611edf565b508a5192838092611e24565b0382611d35565b61039d828861278b565b526103a8818761278b565b50612520565b91905061035b565b8060606020809387010152016102bc565b60ff60086103e560206103d985611edf565b50895192838092612545565b6003815203019020015416610403575b6103fe90612520565b61028c565b916104106103fe91612520565b9290506103f5565b5050346101cc57816003193601126101cc576020906009549051908152f35b5050346101cc57816003193601126101cc5760025490516001600160a01b039091168152602090f35b9190503461026f578060031936011261026f576101c891356104966001610485611cee565b938387528660205286200154611fa6565b61217e565b5050346101cc57816003193601126101cc5760209051620151808152f35b82843461026c57602036600319011261026c578235906001600160401b03821161026c5750610507602080946104f460ff9436908301611d71565b9082865194838680955193849201611dc7565b820190815203019020541690519015158152f35b9190503461026f57602036600319011261026f578135926001600160401b03841161026c575060ff8061056b60206105596105e09736908801611d71565b81865193828580945193849201611dc7565b81016003815203019020938401541691600584015482600886015416600786015490600987015492600b880154946105ee60026105cc83519b6105bd8d806105b68160018601611e24565b0390611d35565b61038c85518094819301611e24565b82519b8c9b8c6101008091528d0190611eba565b908b820360208d0152611eba565b9715159089015260608801521515608087015260a086015260c085015260a01c16151560e08301520390f35b5050346101cc57816003193601126101cc5751908152602090f35b8383346101cc5760208060031936011261026f57833591828452600582528084208581015442106108a15760058101805460ff811661086b576001918260ff198093161790558351907f8503b41ae6bc3c81c6fa6652ef11a964d3fe84420f61398c3faa65b1c9f5e77c6006926106b28161038c81878a01611e24565b8781519101206552454d4f564560d01b8888516106ce81611d04565b868152015214610714575b5050509081600360027fe511fe6d5db0bd906cf5790330cb96bfc7d86b06b565baaa537ce7a2659abbcb95940154910154109051908152a280f35b600284015490600391828601541061072d575b506106d9565b88845b61073b575b50610727565b60075481101561086657886107538961033f84611edf565b88815203019020541461076f5761076990612520565b84610730565b9293509061078f9161079661078385611edf565b50885194858092611e24565b0384611d35565b86519183516107a881858c8801611dc7565b83019081528289600894859303019020019081541690558054801561085357899a5061083f9388937fe511fe6d5db0bd906cf5790330cb96bfc7d86b06b565baaa537ce7a2659abbcb9a9b9693610832936000190190556108093391612500565b7fbdaff1cdaa1c7100467460606c57eafb1e4bdb14ccf5a5c799b533e4d284c87f8880a3611edf565b5090865193848093612545565b908152030190205585949387808080610735565b634e487b7160e01b8a5260118b5260248afd5b610735565b835162461bcd60e51b8152808901869052601060248201526f105b1c9958591e48195e1958dd5d195960821b6044820152606490fd5b815162461bcd60e51b8152808701849052601760248201527f566f74696e6720706572696f64206e6f7420656e6465640000000000000000006044820152606490fd5b9050823461026c57602036600319011261026c5781356007548110156101cc5761090d90611edf565b9290926109465783516109429085610930826109298189611e24565b0383611d35565b51918291602083526020830190611eba565b0390f35b634e487b7160e01b8252819052602490fd5b90503461026f578160031936011261026f578160209360ff92610979611cee565b903582528186528282206001600160a01b039091168252855220549151911615158152f35b5050346101cc57816003193601126101cc57602090516000805160206127a08339815191528152f35b5050346101cc57816003193601126101cc576020906008549051908152f35b9050823461026c57602091826003193601126101cc5780356001600160401b03811161026f57610a2184610559879594600694369101611d71565b8101600381520301902001908251808584549182815201908194845286842090845b818110610a9d5750505081610a59910382611d35565b83519485948186019282875251809352850193925b828110610a7d57505050500390f35b83516001600160a01b031685528695509381019392810192600101610a6e565b82546001600160a01b031684529288019260019283019201610a43565b5050346101cc57816003193601126101cc57602090517fa49807205ce4d355092ef5a8a18f56e8913cf4a201fbe287825b095693c217758152f35b82843461026c57602036600319011261026c578235906001600160401b03821161026c57506020610b2d8194610b3f93369101611d71565b81845193828580945193849201611dc7565b81016006815203019020549051908152f35b90503461026f578160031936011261026f578035602480359384151593848603610f5d57600254825162ba80a960e11b815233838201526020949189916001600160a01b039091169086818581855afa908115610f535790839291859491610f18575b50610bbe90612200565b855163189a5a1760e01b8152338682015292839182905afa908115610f0e5790610bef918a91610ee3575b506122ee565b848852600584528288209180830154421015610ead5760ff9182600585015416610e6b57338a5283865282858b205416610e39575050338852818452828820966001978860ff198254161790558783018552610c5981858b209060ff801983541691151516179055565b15610e115760028201610c6c8154612520565b90558251610c828161038c816006809701611e24565b8481519101207f9ea0cf9577cabd8688fb70d8a8c076ffb703a26054de703e8da063dc72300137845191610cb583611d04565b6210511160ea1b87600394858152015214610cec575b5050506000805160206127c0833981519152929394505b519384523393a380f35b88885b610cfa575b50610ccb565b60078054821015610e0b5787610d13886103d985611edf565b898152030190205414610d305750610d2a90612520565b88610cef565b8798995091819492610d6a610d598961033f6000805160206127c08339815191529c9896611edf565b8681520301902094339086016124b9565b8301610d768154612520565b809155610d8286611edf565b508c7f5d58ba53fdb73db8834537cd0623d3207e07f37769c3bd784c06d85353b914d1895180610db3813396612545565b0390209180a310159182610dfc575b5050610dd2575b93869582610cf4565b61038c610df0610de4610df594611edf565b50855192838092611e24565b61264c565b3884610dc9565b60080154161590503880610dc2565b50610cf4565b506000805160206127c083398151915293949550600301610e328154612520565b9055610ce2565b845162461bcd60e51b8152918201869052600d908201526c105b1c9958591e481d9bdd1959609a1b6044820152606490fd5b845162461bcd60e51b81529182018690526019908201527f50726f706f73616c20616c7265616479206578656375746564000000000000006044820152606490fd5b60136064928686519362461bcd60e51b855284015282015272159bdd1a5b99c81c195c9a5bd908195b991959606a1b6044820152fd5b610eff91503d808c833e610ef78183611d35565b810190612244565b50505050509250505038610be9565b84513d8b823e3d90fd5b809450888092503d8311610f4c575b610f318183611d35565b810103126101cc57610bbe610f4685946121f3565b90610bb4565b503d610f27565b86513d85823e3d90fd5b8680fd5b8383346101cc576020928360031936011261026f5780356001600160401b03811161123957610f939036908301611d71565b9060018060a01b0360025416835162ba80a960e11b815233838201528681602481855afa90811561122f5790869182916111eb575b5091610fd5602493612200565b855163189a5a1760e01b8152338582015292839182905afa9081156111e157906110059186916111be57506122ee565b82519061103160ff84519388818188019661102181838a611dc7565b81018681520301902054166125c7565b61105b60ff600886518981885161104981838b611dc7565b8101600381520301902001541661260a565b61108084518781865161106f818389611dc7565b81016006815203019020541561232f565b8351948686016552454d4f564560d01b968782526110c9605a8288516110aa81602684018b611dc7565b81014260268201523360601b604682015203603a810184520182611d35565b519020958682526005885285822092620151804201908142116111ab57600285611150958c956111609a99956001958e9a0155600c60068401916111166111108454611dea565b8461238b565b019055338152818652838b8083209260ff199383858254161790558285018952209182541617905501558651809381928751928391611dc7565b8101600681520301902055612500565b8151908382527f83c4ad2b7f024f600227eba39dc326d730f3d51e00e11228b85175c0d05bdd63853393a3805160018152826000805160206127c0833981519152853393a351908152f35b634e487b7160e01b845260119052602483fd5b6111d291503d8088833e610ef78183611d35565b50505050509250505087610be9565b84513d87823e3d90fd5b809250888092503d8311611228575b6112048183611d35565b8101031261122457602491610fd561121c88936121f3565b919350610fc8565b8580fd5b503d6111fa565b85513d88823e3d90fd5b8380fd5b5050346101cc57816003193601126101cc576020905160038152f35b8383346101cc57806003193601126101cc57611273611cee565b90336001600160a01b0383160361129057506101c891923561217e565b5163334bd91960e11b81528390fd5b82843461026c57602036600319011261026c576006826109429285358152600560205220600281015493600382015495820154906112f560ff600585015416936112ee83518097819301611e24565b0385611d35565b8051968796875260208701528501521515606084015260a0608084015260a0830190611eba565b9190503461026f5760c036600319011261026f576001600160401b039082358281116115da5761134f9036908501611d71565b92602435838111611224576113679036908301611d71565b92604435818111610f5d5761137f9036908401611d71565b90606435908111610f5d576113979036908401611d71565b906113a0611db8565b600254855162ba80a960e11b81523386820152919560209290918a906001600160a01b03168483602481845afa9283156115d0578293611595575b506113e7602493612200565b835163189a5a1760e01b8152338982015292839182905afa90811561158b57899291611419918c9161157757506122ee565b61144360ff8251858181875197019661143381838a611dc7565b81018b81520301902054166125c7565b61145c60ff60088b86855180925161104981838b611dc7565b600a815184818c5161146f818389611dc7565b810160038152030190200154610e10810180911161156457421061152b57926114c76114b36114ec989796946114d0948c6114d99851938492839251928391611dc7565b810160038152030190209860018a016123b5565b600288016123b5565b600386016123b5565b83019060ff801983541691151516179055565b60a4356005820155600a429101556115043391612500565b7fe0ab9519bddbc11e6367db862eca10c6561b4108db6f5a5853105d9d7674be468380a380f35b5162461bcd60e51b8152808601839052601460248201527353796e6320636f6f6c646f776e2061637469766560601b6044820152606490fd5b634e487b7160e01b8b526011875260248bfd5b610eff91503d808e833e610ef78183611d35565b82513d8c823e3d90fd5b92508483813d83116115c9575b6115ac8183611d35565b810103126101cc576113e76115c26024946121f3565b93506113db565b503d6115a2565b84513d84823e3d90fd5b8480fd5b9190503461026f578060031936011261026f576101c891356116036001610485611cee565b61206c565b90503461026f57602036600319011261026f57816020936001923581528085522001549051908152f35b82843461026c57602036600319011261026c578235906001600160401b03821161026c57506116649036908401611d71565b8151818180935160208193019161167a92611dc7565b81016003815203602001902091815191826116958186611e24565b036116a09084611d35565b805193846116b18160018401611e24565b036116bc9086611d35565b8151806116cc8160028501611e24565b036116d79082611d35565b825193846116e88160038601611e24565b036116f39086611d35565b82015460ff16936005830154600784015490600885015460ff1692600986015494600a87015496600b01549780519b8c9b8c6101808091528d0161173691611eba565b8c810360208e015261174791611eba565b908b8203908c015261175891611eba565b89810360608b015261176991611eba565b961515608089015260a088015260c0870152151560e0860152610100850152610120840152600160a01b60019003811661014084015260a01c60ff1615156101608301520390f35b9190503461026f5760e036600319011261026f576001600160401b039282358481116101cc576117e49036908501611d71565b90602494853581811161026f576117fe9036908701611d71565b94604435828111611239576118169036908301611d71565b916064359081116112395761182e9036908301611d71565b95611837611db8565b9760c43580151580910361122457600254885162ba80a960e11b8152338682015260209b916001600160a01b0316908c818681855afa908115611c305791899186938391611bee575b5061188a90612200565b8b5163189a5a1760e01b8152338982015292839182905afa908115611be4578c979695949392916118c1918a91610ee357506122ee565b895189518a89019860ff929182906118da81838e611dc7565b8101898152030190205416611bab57885115611b6957868a61194360548f8d9061190e85518281855161106f81838d611dc7565b845194859261192583850198899251928391611dc7565b83019142908301523360601b90820152036034810184520182611d35565b5190209a8b895260058d528a89209362015180420190814211611b585750938c99979387938f9a97938e8e988e9b86015560068501805461198390611dea565b61198d908261238b565b60066210511160ea1b0190555188518d9082906119ab81838f611dc7565b81016003815203019020976119c090896123b5565b60019687956119d1908a88016123b5565b6119de9060028a016123b5565b6119eb90600389016123b5565b84870190611a04919060ff801983541691151516179055565b60a43560058701554260098701819055600a870155600b860180546001600160a81b0319163360ff60a01b1981169190911760a09390931b60ff60a01b1692909217905560088601805460ff19908116909155958291611a6790600683016124b9565b60070199838b55338a52528b882082868254161790558d82820190528b88208286825416179055600201558b8a5180928b51611aa481848a611dc7565b8201908152030190209182541617905588875180809389518092611ac792611dc7565b810160068152030190205586611adc85612500565b865185815233927f83c4ad2b7f024f600227eba39dc326d730f3d51e00e11228b85175c0d05bdd6391a33390611b1185612500565b90807f5d58ba53fdb73db8834537cd0623d3207e07f37769c3bd784c06d85353b914d191a35460031115611b48575b505051908152f35b611b519161264c565b3882611b40565b634e487b7160e01b8b52601188528afd5b895162461bcd60e51b81528086018d90526018818501527f557365726e616d652063616e6e6f7420626520656d70747900000000000000006044820152606490fd5b895162461bcd60e51b81528086018d9052601481850152734163746f7220616c72656164792065786973747360601b6044820152606490fd5b8a513d8a823e3d90fd5b92505091508c81813d8311611c29575b611c088183611d35565b81010312611c2557849161188a611c1f8b936121f3565b90611880565b8880fd5b503d611bfe565b8b513d8b823e3d90fd5b5050346101cc5760203660031901126101cc576101c890611c5e600161019c611cd3565b6120e5565b5050346101cc57816003193601126101cc5760209051610e108152f35b84913461026f57602036600319011261026f573563ffffffff60e01b811680910361026f5760209250637965db0b60e01b8114908115611cc2575b5015158152f35b6301ffc9a760e01b14905083611cbb565b600435906001600160a01b0382168203611ce957565b600080fd5b602435906001600160a01b0382168203611ce957565b604081019081106001600160401b03821117611d1f57604052565b634e487b7160e01b600052604160045260246000fd5b90601f801991011681019081106001600160401b03821117611d1f57604052565b6001600160401b038111611d1f57601f01601f191660200190565b81601f82011215611ce957803590611d8882611d56565b92611d966040519485611d35565b82845260208383010111611ce957816000926020809301838601378301015290565b608435908115158203611ce957565b60005b838110611dda5750506000910152565b8181015183820152602001611dca565b90600182811c92168015611e1a575b6020831014611e0457565b634e487b7160e01b600052602260045260246000fd5b91607f1691611df9565b9060009291805491611e3583611dea565b918282526001938481169081600014611e975750600114611e57575b50505050565b90919394506000526020928360002092846000945b838610611e83575050505001019038808080611e51565b805485870183015294019385908201611e6c565b9294505050602093945060ff191683830152151560051b01019038808080611e51565b90602091611ed381518092818552858086019101611dc7565b601f01601f1916010190565b600754811015611f165760076000527fa66cc928b5edb82af9bd49922954155ab7b0942694bea4ce44661d9a8736c6880190600090565b634e487b7160e01b600052603260045260246000fd5b3360009081527f7d7ffb7a348e1c6a02869081a26547b49160dd3df72d1d75a570eb9b698292ec60205260409020547fa49807205ce4d355092ef5a8a18f56e8913cf4a201fbe287825b095693c217759060ff1615611f885750565b6044906040519063e2517d3f60e01b82523360048301526024820152fd5b80600052600060205260406000203360005260205260ff6040600020541615611f885750565b6001600160a01b031660008181527f3412d5605ac6cd444957cedb533e5dacad6378b4bc819ebe3652188a665066d560205260408120549091906000805160206127a08339815191529060ff1661206757808352826020526040832082845260205260408320600160ff198254161790557f2f8788117e7eff1d82e926ec794901d17c78024a50270940304540a733656f0d339380a4600190565b505090565b9060009180835282602052604083209160018060a01b03169182845260205260ff6040842054161560001461206757808352826020526040832082845260205260408320600160ff198254161790557f2f8788117e7eff1d82e926ec794901d17c78024a50270940304540a733656f0d339380a4600190565b6001600160a01b031660008181527f3412d5605ac6cd444957cedb533e5dacad6378b4bc819ebe3652188a665066d560205260408120549091906000805160206127a08339815191529060ff16156120675780835282602052604083208284526020526040832060ff1981541690557ff6391f5c32d9c69d2a47ea670b442974b53935d1edc7fd64eb21e047a839171b339380a4600190565b9060009180835282602052604083209160018060a01b03169182845260205260ff6040842054166000146120675780835282602052604083208284526020526040832060ff1981541690557ff6391f5c32d9c69d2a47ea670b442974b53935d1edc7fd64eb21e047a839171b339380a4600190565b51908115158203611ce957565b1561220757565b60405162461bcd60e51b81526020600482015260156024820152744e6f7420612072656769737465726564206e6f646560581b6044820152606490fd5b9061012082820312611ce95781516001600160a01b0381168103611ce9579260208301519260408101519261227b606083016121f3565b9260808301519260a08101519260c08201516001600160401b038111611ce957820181601f82011215611ce95780516122b381611d56565b926122c16040519485611d35565b81845260208284010111611ce9576122df9160208085019101611dc7565b9161010060e083015192015190565b156122f557565b60405162461bcd60e51b81526020600482015260126024820152714e6f6465206973206e6f742061637469766560701b6044820152606490fd5b1561233657565b60405162461bcd60e51b81526020600482015260166024820152754163746976652070726f706f73616c2065786973747360501b6044820152606490fd5b81811061237f575050565b60008155600101612374565b90601f8111612398575050565b6123b391600052601f6020600020910160051c810190612374565b565b91909182516001600160401b038111611d1f576123d28254611dea565b601f811161247c575b50602080601f831160011461241857508192939460009261240d575b50508160011b916000199060031b1c1916179055565b0151905038806123f7565b90601f198316958460005282600020926000905b8882106124645750508360019596971061244b575b505050811b019055565b015160001960f88460031b161c19169055388080612441565b8060018596829496860151815501950193019061242c565b6124a990836000526020600020601f840160051c810191602085106124af575b601f0160051c0190612374565b386123db565b909150819061249c565b805490600160401b821015611d1f5760018201808255821015611f16576000526020600020019060018060a01b03166bffffffffffffffffffffffff60a01b825416179055565b61251890602060405192828480945193849201611dc7565b810103902090565b600019811461252f5760010190565b634e487b7160e01b600052601160045260246000fd5b60009291815461255481611dea565b926001918083169081156125ac57506001146125705750505050565b90919293945060005260209081600020906000915b85831061259b5750505050019038808080611e51565b805485840152918301918101612585565b60ff1916845250505081151590910201915038808080611e51565b156125ce57565b60405162461bcd60e51b81526020600482015260146024820152731058dd1bdc88191bd95cc81b9bdd08195e1a5cdd60621b6044820152606490fd5b1561261157565b60405162461bcd60e51b81526020600482015260136024820152724163746f72206973206e6f742061637469766560681b6044820152606490fd5b604051815191602091828181840195612666818389611dc7565b81016003815203019020600881019360ff199460018682541617905561268d600854612520565b600855600754600160401b811015611d1f578060016126af9201600755611edf565b95909561275e5760077f48c7b81dabe0b8da67afa8a1ebc01baca706532b20780eebdd5ad967c33ffce693600061273988809661274c966127118b7fe511fe6d5db0bd906cf5790330cb96bfc7d86b06b565baaa537ce7a2659abbcb9e6123b5565b8d85526005835260016005604087200191825416179055604051809381928c51928391611dc7565b8101600681520301902055015493612500565b92604051908152a260405160018152a2565b634e487b7160e01b600052600060045260246000fd5b6001600160401b038111611d1f5760051b60200190565b8051821015611f165760209160051b01019056feb09aa5aeb3702cfd50b6b62bc4532604938f21248a27a1d5ca736082b6819cc1ad63a7b40426694fca689345a58692c303c64a39b0e18669212688f061ec6555a2646970667358221220814834aaf51625c8b2dccc29f2458ebc868c05a4ddd1f139b5e2ae4b081af92c64736f6c634300081400332f8788117e7eff1d82e926ec794901d17c78024a50270940304540a733656f0d","opcodes":"PUSH1 0x80 CALLVALUE PUSH3 0x96 JUMPI PUSH1 0x1F PUSH3 0x2A09 CODESIZE DUP2 SWAP1 SUB SWAP2 DUP3 ADD PUSH1 0x1F NOT AND DUP4 ADD SWAP2 PUSH1 0x1 PUSH1 0x1 PUSH1 0x40 SHL SUB DUP4 GT DUP5 DUP5 LT OR PUSH3 0x9B JUMPI DUP1 DUP5 SWAP3 PUSH1 0x20 SWAP5 PUSH1 0x40 MSTORE DUP4 CODECOPY DUP2 ADD SUB SLT PUSH3 0x96 JUMPI MLOAD PUSH1 0x1 PUSH1 0x1 PUSH1 0xA0 SHL SUB DUP2 AND SWAP1 DUP2 SWAP1 SUB PUSH3 0x96 JUMPI PUSH1 0x1 DUP1 SSTORE PUSH1 0x2 DUP1 SLOAD PUSH1 0x1 PUSH1 0x1 PUSH1 0xA0 SHL SUB NOT AND SWAP2 SWAP1 SWAP2 OR SWAP1 SSTORE PUSH3 0x79 CALLER PUSH3 0xB1 JUMP JUMPDEST POP PUSH3 0x85 CALLER PUSH3 0x131 JUMP JUMPDEST POP PUSH1 0x40 MLOAD PUSH2 0x2815 SWAP1 DUP2 PUSH3 0x1D4 DUP3 CODECOPY RETURN JUMPDEST PUSH1 0x0 DUP1 REVERT JUMPDEST PUSH4 0x4E487B71 PUSH1 0xE0 SHL PUSH1 0x0 MSTORE PUSH1 0x41 PUSH1 0x4 MSTORE PUSH1 0x24 PUSH1 0x0 REVERT JUMPDEST PUSH1 0x1 PUSH1 0x1 PUSH1 0xA0 SHL SUB AND PUSH1 0x0 DUP2 DUP2 MSTORE PUSH32 0xAD3228B676F7D3CD4284A5443F17F1962B36E491B30A40B2405849E597BA5FB5 PUSH1 0x20 MSTORE PUSH1 0x40 DUP2 KECCAK256 SLOAD SWAP1 SWAP2 SWAP1 PUSH1 0xFF AND PUSH3 0x12D JUMPI DUP2 DUP1 MSTORE DUP2 PUSH1 0x20 MSTORE PUSH1 0x40 DUP3 KECCAK256 DUP2 DUP4 MSTORE PUSH1 0x20 MSTORE PUSH1 0x40 DUP3 KECCAK256 PUSH1 0x1 PUSH1 0xFF NOT DUP3 SLOAD AND OR SWAP1 SSTORE CALLER SWAP2 PUSH1 0x0 DUP1 MLOAD PUSH1 0x20 PUSH3 0x29E9 DUP4 CODECOPY DUP2 MLOAD SWAP2 MSTORE DUP2 DUP1 LOG4 PUSH1 0x1 SWAP1 JUMP JUMPDEST POP SWAP1 JUMP JUMPDEST PUSH1 0x1 PUSH1 0x1 PUSH1 0xA0 SHL SUB AND PUSH1 0x0 DUP2 DUP2 MSTORE PUSH32 0x7D7FFB7A348E1C6A02869081A26547B49160DD3DF72D1D75A570EB9B698292EC PUSH1 0x20 MSTORE PUSH1 0x40 DUP2 KECCAK256 SLOAD SWAP1 SWAP2 SWAP1 PUSH32 0xA49807205CE4D355092EF5A8A18F56E8913CF4A201FBE287825B095693C21775 SWAP1 PUSH1 0xFF AND PUSH3 0x1CE JUMPI DUP1 DUP4 MSTORE DUP3 PUSH1 0x20 MSTORE PUSH1 0x40 DUP4 KECCAK256 DUP3 DUP5 MSTORE PUSH1 0x20 MSTORE PUSH1 0x40 DUP4 KECCAK256 PUSH1 0x1 PUSH1 0xFF NOT DUP3 SLOAD AND OR SWAP1 SSTORE PUSH1 0x0 DUP1 MLOAD PUSH1 0x20 PUSH3 0x29E9 DUP4 CODECOPY DUP2 MLOAD SWAP2 MSTORE CALLER SWAP4 DUP1 LOG4 PUSH1 0x1 SWAP1 JUMP JUMPDEST POP POP SWAP1 JUMP INVALID PUSH1 0x80 PUSH1 0x40 DUP2 DUP2 MSTORE PUSH1 0x4 SWAP2 DUP3 CALLDATASIZE LT ISZERO PUSH2 0x16 JUMPI PUSH1 0x0 DUP1 REVERT JUMPDEST PUSH1 0x0 SWAP3 DUP4 CALLDATALOAD PUSH1 0xE0 SHR SWAP2 DUP3 PUSH4 0x1FFC9A7 EQ PUSH2 0x1C80 JUMPI POP DUP2 PUSH4 0xD44AA99 EQ PUSH2 0x1C63 JUMPI DUP2 PUSH4 0x15E30C91 EQ PUSH2 0x1C3A JUMPI DUP2 PUSH4 0x2431BF4B EQ PUSH2 0x17B1 JUMPI DUP2 PUSH4 0x24544D31 EQ PUSH2 0x1632 JUMPI DUP2 PUSH4 0x248A9CA3 EQ PUSH2 0x1608 JUMPI DUP2 PUSH4 0x2F2FF15D EQ PUSH2 0x15DE JUMPI DUP2 PUSH4 0x2F333059 EQ PUSH2 0x131C JUMPI DUP2 PUSH4 0x32ED5B12 EQ PUSH2 0x129F JUMPI DUP2 PUSH4 0x36568ABE EQ PUSH2 0x1259 JUMPI DUP2 PUSH4 0x3AB34290 EQ PUSH2 0x123D JUMPI DUP2 PUSH4 0x47B8FE57 EQ PUSH2 0xF61 JUMPI DUP2 PUSH4 0x51916970 EQ PUSH2 0xB51 JUMPI DUP2 PUSH4 0x682CA16C EQ PUSH2 0xAF5 JUMPI DUP2 PUSH4 0x75B238FC EQ PUSH2 0xABA JUMPI DUP2 PUSH4 0x7CF21F0F EQ PUSH2 0x9E6 JUMPI DUP2 PUSH4 0x89421F5E EQ PUSH2 0x9C7 JUMPI DUP2 PUSH4 0x8F61F4F5 EQ PUSH2 0x99E JUMPI DUP2 PUSH4 0x91D14854 EQ PUSH2 0x958 JUMPI DUP2 PUSH4 0x932E8FC6 EQ PUSH2 0x8E4 JUMPI DUP2 PUSH4 0x980FF6C6 EQ PUSH2 0x635 JUMPI DUP2 PUSH4 0xA217FDDF EQ PUSH2 0x61A JUMPI DUP2 PUSH4 0xA84EB754 EQ PUSH2 0x51B JUMPI DUP2 PUSH4 0xAB6CBF45 EQ PUSH2 0x4B9 JUMPI DUP2 PUSH4 0xB1610D7E EQ PUSH2 0x49B JUMPI DUP2 PUSH4 0xD547741F EQ PUSH2 0x460 JUMPI DUP2 PUSH4 0xD9B5C4A5 EQ PUSH2 0x437 JUMPI DUP2 PUSH4 0xDA35C664 EQ PUSH2 0x418 JUMPI DUP2 PUSH4 0xE1375E71 EQ PUSH2 0x273 JUMPI DUP2 PUSH4 0xFBE89890 EQ PUSH2 0x1D0 JUMPI POP PUSH4 0xFE0EA3E6 EQ PUSH2 0x17A JUMPI PUSH1 0x0 DUP1 REVERT JUMPDEST CALLVALUE PUSH2 0x1CC JUMPI PUSH1 0x20 CALLDATASIZE PUSH1 0x3 NOT ADD SLT PUSH2 0x1CC JUMPI PUSH2 0x1C8 SWAP1 PUSH2 0x1C3 PUSH1 0x1 PUSH2 0x19C PUSH2 0x1CD3 JUMP JUMPDEST SWAP3 PUSH2 0x1A5 PUSH2 0x1F2C JUMP JUMPDEST PUSH1 0x0 DUP1 MLOAD PUSH1 0x20 PUSH2 0x27A0 DUP4 CODECOPY DUP2 MLOAD SWAP2 MSTORE DUP7 MSTORE DUP6 PUSH1 0x20 MSTORE DUP6 KECCAK256 ADD SLOAD PUSH2 0x1FA6 JUMP JUMPDEST PUSH2 0x1FCC JUMP JUMPDEST POP DUP1 RETURN JUMPDEST POP DUP1 REVERT JUMPDEST SWAP2 SWAP1 POP CALLVALUE PUSH2 0x26F JUMPI PUSH1 0x20 CALLDATASIZE PUSH1 0x3 NOT ADD SLT PUSH2 0x26F JUMPI DUP2 CALLDATALOAD SWAP3 PUSH1 0x1 PUSH1 0x1 PUSH1 0x40 SHL SUB DUP5 GT PUSH2 0x26C JUMPI POP PUSH2 0x205 PUSH1 0x20 SWAP4 CALLDATASIZE SWAP1 DUP5 ADD PUSH2 0x1D71 JUMP JUMPDEST SWAP2 PUSH1 0xFF DUP3 MLOAD DUP6 DUP2 DUP7 MLOAD SWAP5 DUP3 DUP9 ADD SWAP6 PUSH2 0x21E DUP2 DUP5 DUP10 PUSH2 0x1DC7 JUMP JUMPDEST DUP3 ADD SWAP1 DUP2 MSTORE SUB ADD SWAP1 KECCAK256 SLOAD AND SWAP3 DUP4 PUSH2 0x23A JUMPI JUMPDEST POP POP MLOAD SWAP1 ISZERO ISZERO DUP2 MSTORE RETURN JUMPDEST DUP3 SWAP4 POP DUP5 PUSH1 0x8 SWAP3 PUSH2 0x257 SWAP3 PUSH1 0xFF SWAP6 MLOAD SWAP4 DUP5 SWAP3 DUP4 SWAP3 MLOAD SWAP3 DUP4 SWAP2 PUSH2 0x1DC7 JUMP JUMPDEST DUP2 ADD PUSH1 0x3 DUP2 MSTORE SUB ADD SWAP1 KECCAK256 ADD SLOAD AND SWAP1 CODESIZE DUP1 PUSH2 0x230 JUMP JUMPDEST DUP1 REVERT JUMPDEST DUP3 DUP1 REVERT JUMPDEST DUP3 DUP5 CALLVALUE PUSH2 0x26C JUMPI DUP1 PUSH1 0x3 NOT CALLDATASIZE ADD SLT PUSH2 0x26C JUMPI DUP1 DUP2 PUSH1 0x7 SLOAD SWAP1 JUMPDEST DUP2 DUP2 LT PUSH2 0x3C7 JUMPI POP PUSH2 0x29D DUP3 PUSH2 0x2774 JUMP JUMPDEST SWAP2 PUSH2 0x2AA DUP6 MLOAD SWAP4 DUP5 PUSH2 0x1D35 JUMP JUMPDEST DUP1 DUP4 MSTORE PUSH2 0x2B9 PUSH1 0x1F NOT SWAP2 PUSH2 0x2774 JUMP JUMPDEST ADD DUP4 JUMPDEST DUP2 DUP2 LT PUSH2 0x3B6 JUMPI POP POP DUP3 DUP4 JUMPDEST DUP3 DUP2 LT PUSH2 0x32D JUMPI POP POP POP DUP3 MLOAD SWAP2 PUSH1 0x20 DUP1 DUP5 ADD SWAP1 DUP1 DUP6 MSTORE DUP4 MLOAD DUP1 SWAP3 MSTORE DUP1 DUP7 DUP7 ADD SWAP7 DUP4 PUSH1 0x5 SHL DUP8 ADD ADD SWAP5 ADD SWAP3 SWAP6 JUMPDEST DUP3 DUP8 LT PUSH2 0x301 JUMPI DUP6 DUP6 SUB DUP7 RETURN JUMPDEST SWAP1 SWAP2 SWAP3 SWAP4 DUP3 DUP1 PUSH2 0x31D PUSH1 0x1 SWAP4 PUSH1 0x3F NOT DUP11 DUP3 SUB ADD DUP7 MSTORE DUP9 MLOAD PUSH2 0x1EBA JUMP JUMPDEST SWAP7 ADD SWAP3 ADD SWAP7 ADD SWAP6 SWAP3 SWAP2 SWAP1 SWAP3 PUSH2 0x2F4 JUMP JUMPDEST PUSH1 0xFF PUSH1 0x8 PUSH2 0x34B PUSH1 0x20 PUSH2 0x33F DUP6 PUSH2 0x1EDF JUMP JUMPDEST POP DUP11 MLOAD SWAP3 DUP4 DUP1 SWAP3 PUSH2 0x2545 JUMP JUMPDEST PUSH1 0x3 DUP2 MSTORE SUB ADD SWAP1 KECCAK256 ADD SLOAD AND PUSH2 0x369 JUMPI JUMPDEST PUSH2 0x364 SWAP1 PUSH2 0x2520 JUMP JUMPDEST PUSH2 0x2C8 JUMP JUMPDEST SWAP1 PUSH2 0x3AE PUSH2 0x364 SWAP2 PUSH2 0x38C PUSH2 0x393 PUSH2 0x380 DUP7 PUSH2 0x1EDF JUMP JUMPDEST POP DUP11 MLOAD SWAP3 DUP4 DUP1 SWAP3 PUSH2 0x1E24 JUMP JUMPDEST SUB DUP3 PUSH2 0x1D35 JUMP JUMPDEST PUSH2 0x39D DUP3 DUP9 PUSH2 0x278B JUMP JUMPDEST MSTORE PUSH2 0x3A8 DUP2 DUP8 PUSH2 0x278B JUMP JUMPDEST POP PUSH2 0x2520 JUMP JUMPDEST SWAP2 SWAP1 POP PUSH2 0x35B JUMP JUMPDEST DUP1 PUSH1 0x60 PUSH1 0x20 DUP1 SWAP4 DUP8 ADD ADD MSTORE ADD PUSH2 0x2BC JUMP JUMPDEST PUSH1 0xFF PUSH1 0x8 PUSH2 0x3E5 PUSH1 0x20 PUSH2 0x3D9 DUP6 PUSH2 0x1EDF JUMP JUMPDEST POP DUP10 MLOAD SWAP3 DUP4 DUP1 SWAP3 PUSH2 0x2545 JUMP JUMPDEST PUSH1 0x3 DUP2 MSTORE SUB ADD SWAP1 KECCAK256 ADD SLOAD AND PUSH2 0x403 JUMPI JUMPDEST PUSH2 0x3FE SWAP1 PUSH2 0x2520 JUMP JUMPDEST PUSH2 0x28C JUMP JUMPDEST SWAP2 PUSH2 0x410 PUSH2 0x3FE SWAP2 PUSH2 0x2520 JUMP JUMPDEST SWAP3 SWAP1 POP PUSH2 0x3F5 JUMP JUMPDEST POP POP CALLVALUE PUSH2 0x1CC JUMPI DUP2 PUSH1 0x3 NOT CALLDATASIZE ADD SLT PUSH2 0x1CC JUMPI PUSH1 0x20 SWAP1 PUSH1 0x9 SLOAD SWAP1 MLOAD SWAP1 DUP2 MSTORE RETURN JUMPDEST POP POP CALLVALUE PUSH2 0x1CC JUMPI DUP2 PUSH1 0x3 NOT CALLDATASIZE ADD SLT PUSH2 0x1CC JUMPI PUSH1 0x2 SLOAD SWAP1 MLOAD PUSH1 0x1 PUSH1 0x1 PUSH1 0xA0 SHL SUB SWAP1 SWAP2 AND DUP2 MSTORE PUSH1 0x20 SWAP1 RETURN JUMPDEST SWAP2 SWAP1 POP CALLVALUE PUSH2 0x26F JUMPI DUP1 PUSH1 0x3 NOT CALLDATASIZE ADD SLT PUSH2 0x26F JUMPI PUSH2 0x1C8 SWAP2 CALLDATALOAD PUSH2 0x496 PUSH1 0x1 PUSH2 0x485 PUSH2 0x1CEE JUMP JUMPDEST SWAP4 DUP4 DUP8 MSTORE DUP7 PUSH1 0x20 MSTORE DUP7 KECCAK256 ADD SLOAD PUSH2 0x1FA6 JUMP JUMPDEST PUSH2 0x217E JUMP JUMPDEST POP POP CALLVALUE PUSH2 0x1CC JUMPI DUP2 PUSH1 0x3 NOT CALLDATASIZE ADD SLT PUSH2 0x1CC JUMPI PUSH1 0x20 SWAP1 MLOAD PUSH3 0x15180 DUP2 MSTORE RETURN JUMPDEST DUP3 DUP5 CALLVALUE PUSH2 0x26C JUMPI PUSH1 0x20 CALLDATASIZE PUSH1 0x3 NOT ADD SLT PUSH2 0x26C JUMPI DUP3 CALLDATALOAD SWAP1 PUSH1 0x1 PUSH1 0x1 PUSH1 0x40 SHL SUB DUP3 GT PUSH2 0x26C JUMPI POP PUSH2 0x507 PUSH1 0x20 DUP1 SWAP5 PUSH2 0x4F4 PUSH1 0xFF SWAP5 CALLDATASIZE SWAP1 DUP4 ADD PUSH2 0x1D71 JUMP JUMPDEST SWAP1 DUP3 DUP7 MLOAD SWAP5 DUP4 DUP7 DUP1 SWAP6 MLOAD SWAP4 DUP5 SWAP3 ADD PUSH2 0x1DC7 JUMP JUMPDEST DUP3 ADD SWAP1 DUP2 MSTORE SUB ADD SWAP1 KECCAK256 SLOAD AND SWAP1 MLOAD SWAP1 ISZERO ISZERO DUP2 MSTORE RETURN JUMPDEST SWAP2 SWAP1 POP CALLVALUE PUSH2 0x26F JUMPI PUSH1 0x20 CALLDATASIZE PUSH1 0x3 NOT ADD SLT PUSH2 0x26F JUMPI DUP2 CALLDATALOAD SWAP3 PUSH1 0x1 PUSH1 0x1 PUSH1 0x40 SHL SUB DUP5 GT PUSH2 0x26C JUMPI POP PUSH1 0xFF DUP1 PUSH2 0x56B PUSH1 0x20 PUSH2 0x559 PUSH2 0x5E0 SWAP8 CALLDATASIZE SWAP1 DUP9 ADD PUSH2 0x1D71 JUMP JUMPDEST DUP2 DUP7 MLOAD SWAP4 DUP3 DUP6 DUP1 SWAP5 MLOAD SWAP4 DUP5 SWAP3 ADD PUSH2 0x1DC7 JUMP JUMPDEST DUP2 ADD PUSH1 0x3 DUP2 MSTORE SUB ADD SWAP1 KECCAK256 SWAP4 DUP5 ADD SLOAD AND SWAP2 PUSH1 0x5 DUP5 ADD SLOAD DUP3 PUSH1 0x8 DUP7 ADD SLOAD AND PUSH1 0x7 DUP7 ADD SLOAD SWAP1 PUSH1 0x9 DUP8 ADD SLOAD SWAP3 PUSH1 0xB DUP9 ADD SLOAD SWAP5 PUSH2 0x5EE PUSH1 0x2 PUSH2 0x5CC DUP4 MLOAD SWAP12 PUSH2 0x5BD DUP14 DUP1 PUSH2 0x5B6 DUP2 PUSH1 0x1 DUP7 ADD PUSH2 0x1E24 JUMP JUMPDEST SUB SWAP1 PUSH2 0x1D35 JUMP JUMPDEST PUSH2 0x38C DUP6 MLOAD DUP1 SWAP5 DUP2 SWAP4 ADD PUSH2 0x1E24 JUMP JUMPDEST DUP3 MLOAD SWAP12 DUP13 SWAP12 DUP13 PUSH2 0x100 DUP1 SWAP2 MSTORE DUP14 ADD SWAP1 PUSH2 0x1EBA JUMP JUMPDEST SWAP1 DUP12 DUP3 SUB PUSH1 0x20 DUP14 ADD MSTORE PUSH2 0x1EBA JUMP JUMPDEST SWAP8 ISZERO ISZERO SWAP1 DUP10 ADD MSTORE PUSH1 0x60 DUP9 ADD MSTORE ISZERO ISZERO PUSH1 0x80 DUP8 ADD MSTORE PUSH1 0xA0 DUP7 ADD MSTORE PUSH1 0xC0 DUP6 ADD MSTORE PUSH1 0xA0 SHR AND ISZERO ISZERO PUSH1 0xE0 DUP4 ADD MSTORE SUB SWAP1 RETURN JUMPDEST POP POP CALLVALUE PUSH2 0x1CC JUMPI DUP2 PUSH1 0x3 NOT CALLDATASIZE ADD SLT PUSH2 0x1CC JUMPI MLOAD SWAP1 DUP2 MSTORE PUSH1 0x20 SWAP1 RETURN JUMPDEST DUP4 DUP4 CALLVALUE PUSH2 0x1CC JUMPI PUSH1 0x20 DUP1 PUSH1 0x3 NOT CALLDATASIZE ADD SLT PUSH2 0x26F JUMPI DUP4 CALLDATALOAD SWAP2 DUP3 DUP5 MSTORE PUSH1 0x5 DUP3 MSTORE DUP1 DUP5 KECCAK256 DUP6 DUP2 ADD SLOAD TIMESTAMP LT PUSH2 0x8A1 JUMPI PUSH1 0x5 DUP2 ADD DUP1 SLOAD PUSH1 0xFF DUP2 AND PUSH2 0x86B JUMPI PUSH1 0x1 SWAP2 DUP3 PUSH1 0xFF NOT DUP1 SWAP4 AND OR SWAP1 SSTORE DUP4 MLOAD SWAP1 PUSH32 0x8503B41AE6BC3C81C6FA6652EF11A964D3FE84420F61398C3FAA65B1C9F5E77C PUSH1 0x6 SWAP3 PUSH2 0x6B2 DUP2 PUSH2 0x38C DUP2 DUP8 DUP11 ADD PUSH2 0x1E24 JUMP JUMPDEST DUP8 DUP2 MLOAD SWAP2 ADD KECCAK256 PUSH6 0x52454D4F5645 PUSH1 0xD0 SHL DUP9 DUP9 MLOAD PUSH2 0x6CE DUP2 PUSH2 0x1D04 JUMP JUMPDEST DUP7 DUP2 MSTORE ADD MSTORE EQ PUSH2 0x714 JUMPI JUMPDEST POP POP POP SWAP1 DUP2 PUSH1 0x3 PUSH1 0x2 PUSH32 0xE511FE6D5DB0BD906CF5790330CB96BFC7D86B06B565BAAA537CE7A2659ABBCB SWAP6 SWAP5 ADD SLOAD SWAP2 ADD SLOAD LT SWAP1 MLOAD SWAP1 DUP2 MSTORE LOG2 DUP1 RETURN JUMPDEST PUSH1 0x2 DUP5 ADD SLOAD SWAP1 PUSH1 0x3 SWAP2 DUP3 DUP7 ADD SLOAD LT PUSH2 0x72D JUMPI JUMPDEST POP PUSH2 0x6D9 JUMP JUMPDEST DUP9 DUP5 JUMPDEST PUSH2 0x73B JUMPI JUMPDEST POP PUSH2 0x727 JUMP JUMPDEST PUSH1 0x7 SLOAD DUP2 LT ISZERO PUSH2 0x866 JUMPI DUP9 PUSH2 0x753 DUP10 PUSH2 0x33F DUP5 PUSH2 0x1EDF JUMP JUMPDEST DUP9 DUP2 MSTORE SUB ADD SWAP1 KECCAK256 SLOAD EQ PUSH2 0x76F JUMPI PUSH2 0x769 SWAP1 PUSH2 0x2520 JUMP JUMPDEST DUP5 PUSH2 0x730 JUMP JUMPDEST SWAP3 SWAP4 POP SWAP1 PUSH2 0x78F SWAP2 PUSH2 0x796 PUSH2 0x783 DUP6 PUSH2 0x1EDF JUMP JUMPDEST POP DUP9 MLOAD SWAP5 DUP6 DUP1 SWAP3 PUSH2 0x1E24 JUMP JUMPDEST SUB DUP5 PUSH2 0x1D35 JUMP JUMPDEST DUP7 MLOAD SWAP2 DUP4 MLOAD PUSH2 0x7A8 DUP2 DUP6 DUP13 DUP9 ADD PUSH2 0x1DC7 JUMP JUMPDEST DUP4 ADD SWAP1 DUP2 MSTORE DUP3 DUP10 PUSH1 0x8 SWAP5 DUP6 SWAP4 SUB ADD SWAP1 KECCAK256 ADD SWAP1 DUP2 SLOAD AND SWAP1 SSTORE DUP1 SLOAD DUP1 ISZERO PUSH2 0x853 JUMPI DUP10 SWAP11 POP PUSH2 0x83F SWAP4 DUP9 SWAP4 PUSH32 0xE511FE6D5DB0BD906CF5790330CB96BFC7D86B06B565BAAA537CE7A2659ABBCB SWAP11 SWAP12 SWAP7 SWAP4 PUSH2 0x832 SWAP4 PUSH1 0x0 NOT ADD SWAP1 SSTORE PUSH2 0x809 CALLER SWAP2 PUSH2 0x2500 JUMP JUMPDEST PUSH32 0xBDAFF1CDAA1C7100467460606C57EAFB1E4BDB14CCF5A5C799B533E4D284C87F DUP9 DUP1 LOG3 PUSH2 0x1EDF JUMP JUMPDEST POP SWAP1 DUP7 MLOAD SWAP4 DUP5 DUP1 SWAP4 PUSH2 0x2545 JUMP JUMPDEST SWAP1 DUP2 MSTORE SUB ADD SWAP1 KECCAK256 SSTORE DUP6 SWAP5 SWAP4 DUP8 DUP1 DUP1 DUP1 PUSH2 0x735 JUMP JUMPDEST PUSH4 0x4E487B71 PUSH1 0xE0 SHL DUP11 MSTORE PUSH1 0x11 DUP12 MSTORE PUSH1 0x24 DUP11 REVERT JUMPDEST PUSH2 0x735 JUMP JUMPDEST DUP4 MLOAD PUSH3 0x461BCD PUSH1 0xE5 SHL DUP2 MSTORE DUP1 DUP10 ADD DUP7 SWAP1 MSTORE PUSH1 0x10 PUSH1 0x24 DUP3 ADD MSTORE PUSH16 0x105B1C9958591E48195E1958DD5D1959 PUSH1 0x82 SHL PUSH1 0x44 DUP3 ADD MSTORE PUSH1 0x64 SWAP1 REVERT JUMPDEST DUP2 MLOAD PUSH3 0x461BCD PUSH1 0xE5 SHL DUP2 MSTORE DUP1 DUP8 ADD DUP5 SWAP1 MSTORE PUSH1 0x17 PUSH1 0x24 DUP3 ADD MSTORE PUSH32 0x566F74696E6720706572696F64206E6F7420656E646564000000000000000000 PUSH1 0x44 DUP3 ADD MSTORE PUSH1 0x64 SWAP1 REVERT JUMPDEST SWAP1 POP DUP3 CALLVALUE PUSH2 0x26C JUMPI PUSH1 0x20 CALLDATASIZE PUSH1 0x3 NOT ADD SLT PUSH2 0x26C JUMPI DUP2 CALLDATALOAD PUSH1 0x7 SLOAD DUP2 LT ISZERO PUSH2 0x1CC JUMPI PUSH2 0x90D SWAP1 PUSH2 0x1EDF JUMP JUMPDEST SWAP3 SWAP1 SWAP3 PUSH2 0x946 JUMPI DUP4 MLOAD PUSH2 0x942 SWAP1 DUP6 PUSH2 0x930 DUP3 PUSH2 0x929 DUP2 DUP10 PUSH2 0x1E24 JUMP JUMPDEST SUB DUP4 PUSH2 0x1D35 JUMP JUMPDEST MLOAD SWAP2 DUP3 SWAP2 PUSH1 0x20 DUP4 MSTORE PUSH1 0x20 DUP4 ADD SWAP1 PUSH2 0x1EBA JUMP JUMPDEST SUB SWAP1 RETURN JUMPDEST PUSH4 0x4E487B71 PUSH1 0xE0 SHL DUP3 MSTORE DUP2 SWAP1 MSTORE PUSH1 0x24 SWAP1 REVERT JUMPDEST SWAP1 POP CALLVALUE PUSH2 0x26F JUMPI DUP2 PUSH1 0x3 NOT CALLDATASIZE ADD SLT PUSH2 0x26F JUMPI DUP2 PUSH1 0x20 SWAP4 PUSH1 0xFF SWAP3 PUSH2 0x979 PUSH2 0x1CEE JUMP JUMPDEST SWAP1 CALLDATALOAD DUP3 MSTORE DUP2 DUP7 MSTORE DUP3 DUP3 KECCAK256 PUSH1 0x1 PUSH1 0x1 PUSH1 0xA0 SHL SUB SWAP1 SWAP2 AND DUP3 MSTORE DUP6 MSTORE KECCAK256 SLOAD SWAP2 MLOAD SWAP2 AND ISZERO ISZERO DUP2 MSTORE RETURN JUMPDEST POP POP CALLVALUE PUSH2 0x1CC JUMPI DUP2 PUSH1 0x3 NOT CALLDATASIZE ADD SLT PUSH2 0x1CC JUMPI PUSH1 0x20 SWAP1 MLOAD PUSH1 0x0 DUP1 MLOAD PUSH1 0x20 PUSH2 0x27A0 DUP4 CODECOPY DUP2 MLOAD SWAP2 MSTORE DUP2 MSTORE RETURN JUMPDEST POP POP CALLVALUE PUSH2 0x1CC JUMPI DUP2 PUSH1 0x3 NOT CALLDATASIZE ADD SLT PUSH2 0x1CC JUMPI PUSH1 0x20 SWAP1 PUSH1 0x8 SLOAD SWAP1 MLOAD SWAP1 DUP2 MSTORE RETURN JUMPDEST SWAP1 POP DUP3 CALLVALUE PUSH2 0x26C JUMPI PUSH1 0x20 SWAP2 DUP3 PUSH1 0x3 NOT CALLDATASIZE ADD SLT PUSH2 0x1CC JUMPI DUP1 CALLDATALOAD PUSH1 0x1 PUSH1 0x1 PUSH1 0x40 SHL SUB DUP2 GT PUSH2 0x26F JUMPI PUSH2 0xA21 DUP5 PUSH2 0x559 DUP8 SWAP6 SWAP5 PUSH1 0x6 SWAP5 CALLDATASIZE SWAP2 ADD PUSH2 0x1D71 JUMP JUMPDEST DUP2 ADD PUSH1 0x3 DUP2 MSTORE SUB ADD SWAP1 KECCAK256 ADD SWAP1 DUP3 MLOAD DUP1 DUP6 DUP5 SLOAD SWAP2 DUP3 DUP2 MSTORE ADD SWAP1 DUP2 SWAP5 DUP5 MSTORE DUP7 DUP5 KECCAK256 SWAP1 DUP5 JUMPDEST DUP2 DUP2 LT PUSH2 0xA9D JUMPI POP POP POP DUP2 PUSH2 0xA59 SWAP2 SUB DUP3 PUSH2 0x1D35 JUMP JUMPDEST DUP4 MLOAD SWAP5 DUP6 SWAP5 DUP2 DUP7 ADD SWAP3 DUP3 DUP8 MSTORE MLOAD DUP1 SWAP4 MSTORE DUP6 ADD SWAP4 SWAP3 JUMPDEST DUP3 DUP2 LT PUSH2 0xA7D JUMPI POP POP POP POP SUB SWAP1 RETURN JUMPDEST DUP4 MLOAD PUSH1 0x1 PUSH1 0x1 PUSH1 0xA0 SHL SUB AND DUP6 MSTORE DUP7 SWAP6 POP SWAP4 DUP2 ADD SWAP4 SWAP3 DUP2 ADD SWAP3 PUSH1 0x1 ADD PUSH2 0xA6E JUMP JUMPDEST DUP3 SLOAD PUSH1 0x1 PUSH1 0x1 PUSH1 0xA0 SHL SUB AND DUP5 MSTORE SWAP3 DUP9 ADD SWAP3 PUSH1 0x1 SWAP3 DUP4 ADD SWAP3 ADD PUSH2 0xA43 JUMP JUMPDEST POP POP CALLVALUE PUSH2 0x1CC JUMPI DUP2 PUSH1 0x3 NOT CALLDATASIZE ADD SLT PUSH2 0x1CC JUMPI PUSH1 0x20 SWAP1 MLOAD PUSH32 0xA49807205CE4D355092EF5A8A18F56E8913CF4A201FBE287825B095693C21775 DUP2 MSTORE RETURN JUMPDEST DUP3 DUP5 CALLVALUE PUSH2 0x26C JUMPI PUSH1 0x20 CALLDATASIZE PUSH1 0x3 NOT ADD SLT PUSH2 0x26C JUMPI DUP3 CALLDATALOAD SWAP1 PUSH1 0x1 PUSH1 0x1 PUSH1 0x40 SHL SUB DUP3 GT PUSH2 0x26C JUMPI POP PUSH1 0x20 PUSH2 0xB2D DUP2 SWAP5 PUSH2 0xB3F SWAP4 CALLDATASIZE SWAP2 ADD PUSH2 0x1D71 JUMP JUMPDEST DUP2 DUP5 MLOAD SWAP4 DUP3 DUP6 DUP1 SWAP5 MLOAD SWAP4 DUP5 SWAP3 ADD PUSH2 0x1DC7 JUMP JUMPDEST DUP2 ADD PUSH1 0x6 DUP2 MSTORE SUB ADD SWAP1 KECCAK256 SLOAD SWAP1 MLOAD SWAP1 DUP2 MSTORE RETURN JUMPDEST SWAP1 POP CALLVALUE PUSH2 0x26F JUMPI DUP2 PUSH1 0x3 NOT CALLDATASIZE ADD SLT PUSH2 0x26F JUMPI DUP1 CALLDATALOAD PUSH1 0x24 DUP1 CALLDATALOAD SWAP4 DUP5 ISZERO ISZERO SWAP4 DUP5 DUP7 SUB PUSH2 0xF5D JUMPI PUSH1 0x2 SLOAD DUP3 MLOAD PUSH3 0xBA80A9 PUSH1 0xE1 SHL DUP2 MSTORE CALLER DUP4 DUP3 ADD MSTORE PUSH1 0x20 SWAP5 SWAP2 DUP10 SWAP2 PUSH1 0x1 PUSH1 0x1 PUSH1 0xA0 SHL SUB SWAP1 SWAP2 AND SWAP1 DUP7 DUP2 DUP6 DUP2 DUP6 GAS STATICCALL SWAP1 DUP2 ISZERO PUSH2 0xF53 JUMPI SWAP1 DUP4 SWAP3 SWAP2 DUP6 SWAP5 SWAP2 PUSH2 0xF18 JUMPI JUMPDEST POP PUSH2 0xBBE SWAP1 PUSH2 0x2200 JUMP JUMPDEST DUP6 MLOAD PUSH4 0x189A5A17 PUSH1 0xE0 SHL DUP2 MSTORE CALLER DUP7 DUP3 ADD MSTORE SWAP3 DUP4 SWAP2 DUP3 SWAP1 GAS STATICCALL SWAP1 DUP2 ISZERO PUSH2 0xF0E JUMPI SWAP1 PUSH2 0xBEF SWAP2 DUP11 SWAP2 PUSH2 0xEE3 JUMPI JUMPDEST POP PUSH2 0x22EE JUMP JUMPDEST DUP5 DUP9 MSTORE PUSH1 0x5 DUP5 MSTORE DUP3 DUP9 KECCAK256 SWAP2 DUP1 DUP4 ADD SLOAD TIMESTAMP LT ISZERO PUSH2 0xEAD JUMPI PUSH1 0xFF SWAP2 DUP3 PUSH1 0x5 DUP6 ADD SLOAD AND PUSH2 0xE6B JUMPI CALLER DUP11 MSTORE DUP4 DUP7 MSTORE DUP3 DUP6 DUP12 KECCAK256 SLOAD AND PUSH2 0xE39 JUMPI POP POP CALLER DUP9 MSTORE DUP2 DUP5 MSTORE DUP3 DUP9 KECCAK256 SWAP7 PUSH1 0x1 SWAP8 DUP9 PUSH1 0xFF NOT DUP3 SLOAD AND OR SWAP1 SSTORE DUP8 DUP4 ADD DUP6 MSTORE PUSH2 0xC59 DUP2 DUP6 DUP12 KECCAK256 SWAP1 PUSH1 0xFF DUP1 NOT DUP4 SLOAD AND SWAP2 ISZERO ISZERO AND OR SWAP1 SSTORE JUMP JUMPDEST ISZERO PUSH2 0xE11 JUMPI PUSH1 0x2 DUP3 ADD PUSH2 0xC6C DUP2 SLOAD PUSH2 0x2520 JUMP JUMPDEST SWAP1 SSTORE DUP3 MLOAD PUSH2 0xC82 DUP2 PUSH2 0x38C DUP2 PUSH1 0x6 DUP1 SWAP8 ADD PUSH2 0x1E24 JUMP JUMPDEST DUP5 DUP2 MLOAD SWAP2 ADD KECCAK256 PUSH32 0x9EA0CF9577CABD8688FB70D8A8C076FFB703A26054DE703E8DA063DC72300137 DUP5 MLOAD SWAP2 PUSH2 0xCB5 DUP4 PUSH2 0x1D04 JUMP JUMPDEST PUSH3 0x105111 PUSH1 0xEA SHL DUP8 PUSH1 0x3 SWAP5 DUP6 DUP2 MSTORE ADD MSTORE EQ PUSH2 0xCEC JUMPI JUMPDEST POP POP POP PUSH1 0x0 DUP1 MLOAD PUSH1 0x20 PUSH2 0x27C0 DUP4 CODECOPY DUP2 MLOAD SWAP2 MSTORE SWAP3 SWAP4 SWAP5 POP JUMPDEST MLOAD SWAP4 DUP5 MSTORE CALLER SWAP4 LOG3 DUP1 RETURN JUMPDEST DUP9 DUP9 JUMPDEST PUSH2 0xCFA JUMPI JUMPDEST POP PUSH2 0xCCB JUMP JUMPDEST PUSH1 0x7 DUP1 SLOAD DUP3 LT ISZERO PUSH2 0xE0B JUMPI DUP8 PUSH2 0xD13 DUP9 PUSH2 0x3D9 DUP6 PUSH2 0x1EDF JUMP JUMPDEST DUP10 DUP2 MSTORE SUB ADD SWAP1 KECCAK256 SLOAD EQ PUSH2 0xD30 JUMPI POP PUSH2 0xD2A SWAP1 PUSH2 0x2520 JUMP JUMPDEST DUP9 PUSH2 0xCEF JUMP JUMPDEST DUP8 SWAP9 SWAP10 POP SWAP2 DUP2 SWAP5 SWAP3 PUSH2 0xD6A PUSH2 0xD59 DUP10 PUSH2 0x33F PUSH1 0x0 DUP1 MLOAD PUSH1 0x20 PUSH2 0x27C0 DUP4 CODECOPY DUP2 MLOAD SWAP2 MSTORE SWAP13 SWAP9 SWAP7 PUSH2 0x1EDF JUMP JUMPDEST DUP7 DUP2 MSTORE SUB ADD SWAP1 KECCAK256 SWAP5 CALLER SWAP1 DUP7 ADD PUSH2 0x24B9 JUMP JUMPDEST DUP4 ADD PUSH2 0xD76 DUP2 SLOAD PUSH2 0x2520 JUMP JUMPDEST DUP1 SWAP2 SSTORE PUSH2 0xD82 DUP7 PUSH2 0x1EDF JUMP JUMPDEST POP DUP13 PUSH32 0x5D58BA53FDB73DB8834537CD0623D3207E07F37769C3BD784C06D85353B914D1 DUP10 MLOAD DUP1 PUSH2 0xDB3 DUP2 CALLER SWAP7 PUSH2 0x2545 JUMP JUMPDEST SUB SWAP1 KECCAK256 SWAP2 DUP1 LOG3 LT ISZERO SWAP2 DUP3 PUSH2 0xDFC JUMPI JUMPDEST POP POP PUSH2 0xDD2 JUMPI JUMPDEST SWAP4 DUP7 SWAP6 DUP3 PUSH2 0xCF4 JUMP JUMPDEST PUSH2 0x38C PUSH2 0xDF0 PUSH2 0xDE4 PUSH2 0xDF5 SWAP5 PUSH2 0x1EDF JUMP JUMPDEST POP DUP6 MLOAD SWAP3 DUP4 DUP1 SWAP3 PUSH2 0x1E24 JUMP JUMPDEST PUSH2 0x264C JUMP JUMPDEST CODESIZE DUP5 PUSH2 0xDC9 JUMP JUMPDEST PUSH1 0x8 ADD SLOAD AND ISZERO SWAP1 POP CODESIZE DUP1 PUSH2 0xDC2 JUMP JUMPDEST POP PUSH2 0xCF4 JUMP JUMPDEST POP PUSH1 0x0 DUP1 MLOAD PUSH1 0x20 PUSH2 0x27C0 DUP4 CODECOPY DUP2 MLOAD SWAP2 MSTORE SWAP4 SWAP5 SWAP6 POP PUSH1 0x3 ADD PUSH2 0xE32 DUP2 SLOAD PUSH2 0x2520 JUMP JUMPDEST SWAP1 SSTORE PUSH2 0xCE2 JUMP JUMPDEST DUP5 MLOAD PUSH3 0x461BCD PUSH1 0xE5 SHL DUP2 MSTORE SWAP2 DUP3 ADD DUP7 SWAP1 MSTORE PUSH1 0xD SWAP1 DUP3 ADD MSTORE PUSH13 0x105B1C9958591E481D9BDD1959 PUSH1 0x9A SHL PUSH1 0x44 DUP3 ADD MSTORE PUSH1 0x64 SWAP1 REVERT JUMPDEST DUP5 MLOAD PUSH3 0x461BCD PUSH1 0xE5 SHL DUP2 MSTORE SWAP2 DUP3 ADD DUP7 SWAP1 MSTORE PUSH1 0x19 SWAP1 DUP3 ADD MSTORE PUSH32 0x50726F706F73616C20616C726561647920657865637574656400000000000000 PUSH1 0x44 DUP3 ADD MSTORE PUSH1 0x64 SWAP1 REVERT JUMPDEST PUSH1 0x13 PUSH1 0x64 SWAP3 DUP7 DUP7 MLOAD SWAP4 PUSH3 0x461BCD PUSH1 0xE5 SHL DUP6 MSTORE DUP5 ADD MSTORE DUP3 ADD MSTORE PUSH19 0x159BDD1A5B99C81C195C9A5BD908195B991959 PUSH1 0x6A SHL PUSH1 0x44 DUP3 ADD MSTORE REVERT JUMPDEST PUSH2 0xEFF SWAP2 POP RETURNDATASIZE DUP1 DUP13 DUP4 RETURNDATACOPY PUSH2 0xEF7 DUP2 DUP4 PUSH2 0x1D35 JUMP JUMPDEST DUP2 ADD SWAP1 PUSH2 0x2244 JUMP JUMPDEST POP POP POP POP POP SWAP3 POP POP POP CODESIZE PUSH2 0xBE9 JUMP JUMPDEST DUP5 MLOAD RETURNDATASIZE DUP12 DUP3 RETURNDATACOPY RETURNDATASIZE SWAP1 REVERT JUMPDEST DUP1 SWAP5 POP DUP9 DUP1 SWAP3 POP RETURNDATASIZE DUP4 GT PUSH2 0xF4C JUMPI JUMPDEST PUSH2 0xF31 DUP2 DUP4 PUSH2 0x1D35 JUMP JUMPDEST DUP2 ADD SUB SLT PUSH2 0x1CC JUMPI PUSH2 0xBBE PUSH2 0xF46 DUP6 SWAP5 PUSH2 0x21F3 JUMP JUMPDEST SWAP1 PUSH2 0xBB4 JUMP JUMPDEST POP RETURNDATASIZE PUSH2 0xF27 JUMP JUMPDEST DUP7 MLOAD RETURNDATASIZE DUP6 DUP3 RETURNDATACOPY RETURNDATASIZE SWAP1 REVERT JUMPDEST DUP7 DUP1 REVERT JUMPDEST DUP4 DUP4 CALLVALUE PUSH2 0x1CC JUMPI PUSH1 0x20 SWAP3 DUP4 PUSH1 0x3 NOT CALLDATASIZE ADD SLT PUSH2 0x26F JUMPI DUP1 CALLDATALOAD PUSH1 0x1 PUSH1 0x1 PUSH1 0x40 SHL SUB DUP2 GT PUSH2 0x1239 JUMPI PUSH2 0xF93 SWAP1 CALLDATASIZE SWAP1 DUP4 ADD PUSH2 0x1D71 JUMP JUMPDEST SWAP1 PUSH1 0x1 DUP1 PUSH1 0xA0 SHL SUB PUSH1 0x2 SLOAD AND DUP4 MLOAD PUSH3 0xBA80A9 PUSH1 0xE1 SHL DUP2 MSTORE CALLER DUP4 DUP3 ADD MSTORE DUP7 DUP2 PUSH1 0x24 DUP2 DUP6 GAS STATICCALL SWAP1 DUP2 ISZERO PUSH2 0x122F JUMPI SWAP1 DUP7 SWAP2 DUP3 SWAP2 PUSH2 0x11EB JUMPI JUMPDEST POP SWAP2 PUSH2 0xFD5 PUSH1 0x24 SWAP4 PUSH2 0x2200 JUMP JUMPDEST DUP6 MLOAD PUSH4 0x189A5A17 PUSH1 0xE0 SHL DUP2 MSTORE CALLER DUP6 DUP3 ADD MSTORE SWAP3 DUP4 SWAP2 DUP3 SWAP1 GAS STATICCALL SWAP1 DUP2 ISZERO PUSH2 0x11E1 JUMPI SWAP1 PUSH2 0x1005 SWAP2 DUP7 SWAP2 PUSH2 0x11BE JUMPI POP PUSH2 0x22EE JUMP JUMPDEST DUP3 MLOAD SWAP1 PUSH2 0x1031 PUSH1 0xFF DUP5 MLOAD SWAP4 DUP9 DUP2 DUP2 DUP9 ADD SWAP7 PUSH2 0x1021 DUP2 DUP4 DUP11 PUSH2 0x1DC7 JUMP JUMPDEST DUP2 ADD DUP7 DUP2 MSTORE SUB ADD SWAP1 KECCAK256 SLOAD AND PUSH2 0x25C7 JUMP JUMPDEST PUSH2 0x105B PUSH1 0xFF PUSH1 0x8 DUP7 MLOAD DUP10 DUP2 DUP9 MLOAD PUSH2 0x1049 DUP2 DUP4 DUP12 PUSH2 0x1DC7 JUMP JUMPDEST DUP2 ADD PUSH1 0x3 DUP2 MSTORE SUB ADD SWAP1 KECCAK256 ADD SLOAD AND PUSH2 0x260A JUMP JUMPDEST PUSH2 0x1080 DUP5 MLOAD DUP8 DUP2 DUP7 MLOAD PUSH2 0x106F DUP2 DUP4 DUP10 PUSH2 0x1DC7 JUMP JUMPDEST DUP2 ADD PUSH1 0x6 DUP2 MSTORE SUB ADD SWAP1 KECCAK256 SLOAD ISZERO PUSH2 0x232F JUMP JUMPDEST DUP4 MLOAD SWAP5 DUP7 DUP7 ADD PUSH6 0x52454D4F5645 PUSH1 0xD0 SHL SWAP7 DUP8 DUP3 MSTORE PUSH2 0x10C9 PUSH1 0x5A DUP3 DUP9 MLOAD PUSH2 0x10AA DUP2 PUSH1 0x26 DUP5 ADD DUP12 PUSH2 0x1DC7 JUMP JUMPDEST DUP2 ADD TIMESTAMP PUSH1 0x26 DUP3 ADD MSTORE CALLER PUSH1 0x60 SHL PUSH1 0x46 DUP3 ADD MSTORE SUB PUSH1 0x3A DUP2 ADD DUP5 MSTORE ADD DUP3 PUSH2 0x1D35 JUMP JUMPDEST MLOAD SWAP1 KECCAK256 SWAP6 DUP7 DUP3 MSTORE PUSH1 0x5 DUP9 MSTORE DUP6 DUP3 KECCAK256 SWAP3 PUSH3 0x15180 TIMESTAMP ADD SWAP1 DUP2 TIMESTAMP GT PUSH2 0x11AB JUMPI PUSH1 0x2 DUP6 PUSH2 0x1150 SWAP6 DUP13 SWAP6 PUSH2 0x1160 SWAP11 SWAP10 SWAP6 PUSH1 0x1 SWAP6 DUP15 SWAP11 ADD SSTORE PUSH1 0xC PUSH1 0x6 DUP5 ADD SWAP2 PUSH2 0x1116 PUSH2 0x1110 DUP5 SLOAD PUSH2 0x1DEA JUMP JUMPDEST DUP5 PUSH2 0x238B JUMP JUMPDEST ADD SWAP1 SSTORE CALLER DUP2 MSTORE DUP2 DUP7 MSTORE DUP4 DUP12 DUP1 DUP4 KECCAK256 SWAP3 PUSH1 0xFF NOT SWAP4 DUP4 DUP6 DUP3 SLOAD AND OR SWAP1 SSTORE DUP3 DUP6 ADD DUP10 MSTORE KECCAK256 SWAP2 DUP3 SLOAD AND OR SWAP1 SSTORE ADD SSTORE DUP7 MLOAD DUP1 SWAP4 DUP2 SWAP3 DUP8 MLOAD SWAP3 DUP4 SWAP2 PUSH2 0x1DC7 JUMP JUMPDEST DUP2 ADD PUSH1 0x6 DUP2 MSTORE SUB ADD SWAP1 KECCAK256 SSTORE PUSH2 0x2500 JUMP JUMPDEST DUP2 MLOAD SWAP1 DUP4 DUP3 MSTORE PUSH32 0x83C4AD2B7F024F600227EBA39DC326D730F3D51E00E11228B85175C0D05BDD63 DUP6 CALLER SWAP4 LOG3 DUP1 MLOAD PUSH1 0x1 DUP2 MSTORE DUP3 PUSH1 0x0 DUP1 MLOAD PUSH1 0x20 PUSH2 0x27C0 DUP4 CODECOPY DUP2 MLOAD SWAP2 MSTORE DUP6 CALLER SWAP4 LOG3 MLOAD SWAP1 DUP2 MSTORE RETURN JUMPDEST PUSH4 0x4E487B71 PUSH1 0xE0 SHL DUP5 MSTORE PUSH1 0x11 SWAP1 MSTORE PUSH1 0x24 DUP4 REVERT JUMPDEST PUSH2 0x11D2 SWAP2 POP RETURNDATASIZE DUP1 DUP9 DUP4 RETURNDATACOPY PUSH2 0xEF7 DUP2 DUP4 PUSH2 0x1D35 JUMP JUMPDEST POP POP POP POP POP SWAP3 POP POP POP DUP8 PUSH2 0xBE9 JUMP JUMPDEST DUP5 MLOAD RETURNDATASIZE DUP8 DUP3 RETURNDATACOPY RETURNDATASIZE SWAP1 REVERT JUMPDEST DUP1 SWAP3 POP DUP9 DUP1 SWAP3 POP RETURNDATASIZE DUP4 GT PUSH2 0x1228 JUMPI JUMPDEST PUSH2 0x1204 DUP2 DUP4 PUSH2 0x1D35 JUMP JUMPDEST DUP2 ADD SUB SLT PUSH2 0x1224 JUMPI PUSH1 0x24 SWAP2 PUSH2 0xFD5 PUSH2 0x121C DUP9 SWAP4 PUSH2 0x21F3 JUMP JUMPDEST SWAP2 SWAP4 POP PUSH2 0xFC8 JUMP JUMPDEST DUP6 DUP1 REVERT JUMPDEST POP RETURNDATASIZE PUSH2 0x11FA JUMP JUMPDEST DUP6 MLOAD RETURNDATASIZE DUP9 DUP3 RETURNDATACOPY RETURNDATASIZE SWAP1 REVERT JUMPDEST DUP4 DUP1 REVERT JUMPDEST POP POP CALLVALUE PUSH2 0x1CC JUMPI DUP2 PUSH1 0x3 NOT CALLDATASIZE ADD SLT PUSH2 0x1CC JUMPI PUSH1 0x20 SWAP1 MLOAD PUSH1 0x3 DUP2 MSTORE RETURN JUMPDEST DUP4 DUP4 CALLVALUE PUSH2 0x1CC JUMPI DUP1 PUSH1 0x3 NOT CALLDATASIZE ADD SLT PUSH2 0x1CC JUMPI PUSH2 0x1273 PUSH2 0x1CEE JUMP JUMPDEST SWAP1 CALLER PUSH1 0x1 PUSH1 0x1 PUSH1 0xA0 SHL SUB DUP4 AND SUB PUSH2 0x1290 JUMPI POP PUSH2 0x1C8 SWAP2 SWAP3 CALLDATALOAD PUSH2 0x217E JUMP JUMPDEST MLOAD PUSH4 0x334BD919 PUSH1 0xE1 SHL DUP2 MSTORE DUP4 SWAP1 REVERT JUMPDEST DUP3 DUP5 CALLVALUE PUSH2 0x26C JUMPI PUSH1 0x20 CALLDATASIZE PUSH1 0x3 NOT ADD SLT PUSH2 0x26C JUMPI PUSH1 0x6 DUP3 PUSH2 0x942 SWAP3 DUP6 CALLDATALOAD DUP2 MSTORE PUSH1 0x5 PUSH1 0x20 MSTORE KECCAK256 PUSH1 0x2 DUP2 ADD SLOAD SWAP4 PUSH1 0x3 DUP3 ADD SLOAD SWAP6 DUP3 ADD SLOAD SWAP1 PUSH2 0x12F5 PUSH1 0xFF PUSH1 0x5 DUP6 ADD SLOAD AND SWAP4 PUSH2 0x12EE DUP4 MLOAD DUP1 SWAP8 DUP2 SWAP4 ADD PUSH2 0x1E24 JUMP JUMPDEST SUB DUP6 PUSH2 0x1D35 JUMP JUMPDEST DUP1 MLOAD SWAP7 DUP8 SWAP7 DUP8 MSTORE PUSH1 0x20 DUP8 ADD MSTORE DUP6 ADD MSTORE ISZERO ISZERO PUSH1 0x60 DUP5 ADD MSTORE PUSH1 0xA0 PUSH1 0x80 DUP5 ADD MSTORE PUSH1 0xA0 DUP4 ADD SWAP1 PUSH2 0x1EBA JUMP JUMPDEST SWAP2 SWAP1 POP CALLVALUE PUSH2 0x26F JUMPI PUSH1 0xC0 CALLDATASIZE PUSH1 0x3 NOT ADD SLT PUSH2 0x26F JUMPI PUSH1 0x1 PUSH1 0x1 PUSH1 0x40 SHL SUB SWAP1 DUP3 CALLDATALOAD DUP3 DUP2 GT PUSH2 0x15DA JUMPI PUSH2 0x134F SWAP1 CALLDATASIZE SWAP1 DUP6 ADD PUSH2 0x1D71 JUMP JUMPDEST SWAP3 PUSH1 0x24 CALLDATALOAD DUP4 DUP2 GT PUSH2 0x1224 JUMPI PUSH2 0x1367 SWAP1 CALLDATASIZE SWAP1 DUP4 ADD PUSH2 0x1D71 JUMP JUMPDEST SWAP3 PUSH1 0x44 CALLDATALOAD DUP2 DUP2 GT PUSH2 0xF5D JUMPI PUSH2 0x137F SWAP1 CALLDATASIZE SWAP1 DUP5 ADD PUSH2 0x1D71 JUMP JUMPDEST SWAP1 PUSH1 0x64 CALLDATALOAD SWAP1 DUP2 GT PUSH2 0xF5D JUMPI PUSH2 0x1397 SWAP1 CALLDATASIZE SWAP1 DUP5 ADD PUSH2 0x1D71 JUMP JUMPDEST SWAP1 PUSH2 0x13A0 PUSH2 0x1DB8 JUMP JUMPDEST PUSH1 0x2 SLOAD DUP6 MLOAD PUSH3 0xBA80A9 PUSH1 0xE1 SHL DUP2 MSTORE CALLER DUP7 DUP3 ADD MSTORE SWAP2 SWAP6 PUSH1 0x20 SWAP3 SWAP1 SWAP2 DUP11 SWAP1 PUSH1 0x1 PUSH1 0x1 PUSH1 0xA0 SHL SUB AND DUP5 DUP4 PUSH1 0x24 DUP2 DUP5 GAS STATICCALL SWAP3 DUP4 ISZERO PUSH2 0x15D0 JUMPI DUP3 SWAP4 PUSH2 0x1595 JUMPI JUMPDEST POP PUSH2 0x13E7 PUSH1 0x24 SWAP4 PUSH2 0x2200 JUMP JUMPDEST DUP4 MLOAD PUSH4 0x189A5A17 PUSH1 0xE0 SHL DUP2 MSTORE CALLER DUP10 DUP3 ADD MSTORE SWAP3 DUP4 SWAP2 DUP3 SWAP1 GAS STATICCALL SWAP1 DUP2 ISZERO PUSH2 0x158B JUMPI DUP10 SWAP3 SWAP2 PUSH2 0x1419 SWAP2 DUP13 SWAP2 PUSH2 0x1577 JUMPI POP PUSH2 0x22EE JUMP JUMPDEST PUSH2 0x1443 PUSH1 0xFF DUP3 MLOAD DUP6 DUP2 DUP2 DUP8 MLOAD SWAP8 ADD SWAP7 PUSH2 0x1433 DUP2 DUP4 DUP11 PUSH2 0x1DC7 JUMP JUMPDEST DUP2 ADD DUP12 DUP2 MSTORE SUB ADD SWAP1 KECCAK256 SLOAD AND PUSH2 0x25C7 JUMP JUMPDEST PUSH2 0x145C PUSH1 0xFF PUSH1 0x8 DUP12 DUP7 DUP6 MLOAD DUP1 SWAP3 MLOAD PUSH2 0x1049 DUP2 DUP4 DUP12 PUSH2 0x1DC7 JUMP JUMPDEST PUSH1 0xA DUP2 MLOAD DUP5 DUP2 DUP13 MLOAD PUSH2 0x146F DUP2 DUP4 DUP10 PUSH2 0x1DC7 JUMP JUMPDEST DUP2 ADD PUSH1 0x3 DUP2 MSTORE SUB ADD SWAP1 KECCAK256 ADD SLOAD PUSH2 0xE10 DUP2 ADD DUP1 SWAP2 GT PUSH2 0x1564 JUMPI TIMESTAMP LT PUSH2 0x152B JUMPI SWAP3 PUSH2 0x14C7 PUSH2 0x14B3 PUSH2 0x14EC SWAP9 SWAP8 SWAP7 SWAP5 PUSH2 0x14D0 SWAP5 DUP13 PUSH2 0x14D9 SWAP9 MLOAD SWAP4 DUP5 SWAP3 DUP4 SWAP3 MLOAD SWAP3 DUP4 SWAP2 PUSH2 0x1DC7 JUMP JUMPDEST DUP2 ADD PUSH1 0x3 DUP2 MSTORE SUB ADD SWAP1 KECCAK256 SWAP9 PUSH1 0x1 DUP11 ADD PUSH2 0x23B5 JUMP JUMPDEST PUSH1 0x2 DUP9 ADD PUSH2 0x23B5 JUMP JUMPDEST PUSH1 0x3 DUP7 ADD PUSH2 0x23B5 JUMP JUMPDEST DUP4 ADD SWAP1 PUSH1 0xFF DUP1 NOT DUP4 SLOAD AND SWAP2 ISZERO ISZERO AND OR SWAP1 SSTORE JUMP JUMPDEST PUSH1 0xA4 CALLDATALOAD PUSH1 0x5 DUP3 ADD SSTORE PUSH1 0xA TIMESTAMP SWAP2 ADD SSTORE PUSH2 0x1504 CALLER SWAP2 PUSH2 0x2500 JUMP JUMPDEST PUSH32 0xE0AB9519BDDBC11E6367DB862ECA10C6561B4108DB6F5A5853105D9D7674BE46 DUP4 DUP1 LOG3 DUP1 RETURN JUMPDEST MLOAD PUSH3 0x461BCD PUSH1 0xE5 SHL DUP2 MSTORE DUP1 DUP7 ADD DUP4 SWAP1 MSTORE PUSH1 0x14 PUSH1 0x24 DUP3 ADD MSTORE PUSH20 0x53796E6320636F6F6C646F776E20616374697665 PUSH1 0x60 SHL PUSH1 0x44 DUP3 ADD MSTORE PUSH1 0x64 SWAP1 REVERT JUMPDEST PUSH4 0x4E487B71 PUSH1 0xE0 SHL DUP12 MSTORE PUSH1 0x11 DUP8 MSTORE PUSH1 0x24 DUP12 REVERT JUMPDEST PUSH2 0xEFF SWAP2 POP RETURNDATASIZE DUP1 DUP15 DUP4 RETURNDATACOPY PUSH2 0xEF7 DUP2 DUP4 PUSH2 0x1D35 JUMP JUMPDEST DUP3 MLOAD RETURNDATASIZE DUP13 DUP3 RETURNDATACOPY RETURNDATASIZE SWAP1 REVERT JUMPDEST SWAP3 POP DUP5 DUP4 DUP2 RETURNDATASIZE DUP4 GT PUSH2 0x15C9 JUMPI JUMPDEST PUSH2 0x15AC DUP2 DUP4 PUSH2 0x1D35 JUMP JUMPDEST DUP2 ADD SUB SLT PUSH2 0x1CC JUMPI PUSH2 0x13E7 PUSH2 0x15C2 PUSH1 0x24 SWAP5 PUSH2 0x21F3 JUMP JUMPDEST SWAP4 POP PUSH2 0x13DB JUMP JUMPDEST POP RETURNDATASIZE PUSH2 0x15A2 JUMP JUMPDEST DUP5 MLOAD RETURNDATASIZE DUP5 DUP3 RETURNDATACOPY RETURNDATASIZE SWAP1 REVERT JUMPDEST DUP5 DUP1 REVERT JUMPDEST SWAP2 SWAP1 POP CALLVALUE PUSH2 0x26F JUMPI DUP1 PUSH1 0x3 NOT CALLDATASIZE ADD SLT PUSH2 0x26F JUMPI PUSH2 0x1C8 SWAP2 CALLDATALOAD PUSH2 0x1603 PUSH1 0x1 PUSH2 0x485 PUSH2 0x1CEE JUMP JUMPDEST PUSH2 0x206C JUMP JUMPDEST SWAP1 POP CALLVALUE PUSH2 0x26F JUMPI PUSH1 0x20 CALLDATASIZE PUSH1 0x3 NOT ADD SLT PUSH2 0x26F JUMPI DUP2 PUSH1 0x20 SWAP4 PUSH1 0x1 SWAP3 CALLDATALOAD DUP2 MSTORE DUP1 DUP6 MSTORE KECCAK256 ADD SLOAD SWAP1 MLOAD SWAP1 DUP2 MSTORE RETURN JUMPDEST DUP3 DUP5 CALLVALUE PUSH2 0x26C JUMPI PUSH1 0x20 CALLDATASIZE PUSH1 0x3 NOT ADD SLT PUSH2 0x26C JUMPI DUP3 CALLDATALOAD SWAP1 PUSH1 0x1 PUSH1 0x1 PUSH1 0x40 SHL SUB DUP3 GT PUSH2 0x26C JUMPI POP PUSH2 0x1664 SWAP1 CALLDATASIZE SWAP1 DUP5 ADD PUSH2 0x1D71 JUMP JUMPDEST DUP2 MLOAD DUP2 DUP2 DUP1 SWAP4 MLOAD PUSH1 0x20 DUP2 SWAP4 ADD SWAP2 PUSH2 0x167A SWAP3 PUSH2 0x1DC7 JUMP JUMPDEST DUP2 ADD PUSH1 0x3 DUP2 MSTORE SUB PUSH1 0x20 ADD SWAP1 KECCAK256 SWAP2 DUP2 MLOAD SWAP2 DUP3 PUSH2 0x1695 DUP2 DUP7 PUSH2 0x1E24 JUMP JUMPDEST SUB PUSH2 0x16A0 SWAP1 DUP5 PUSH2 0x1D35 JUMP JUMPDEST DUP1 MLOAD SWAP4 DUP5 PUSH2 0x16B1 DUP2 PUSH1 0x1 DUP5 ADD PUSH2 0x1E24 JUMP JUMPDEST SUB PUSH2 0x16BC SWAP1 DUP7 PUSH2 0x1D35 JUMP JUMPDEST DUP2 MLOAD DUP1 PUSH2 0x16CC DUP2 PUSH1 0x2 DUP6 ADD PUSH2 0x1E24 JUMP JUMPDEST SUB PUSH2 0x16D7 SWAP1 DUP3 PUSH2 0x1D35 JUMP JUMPDEST DUP3 MLOAD SWAP4 DUP5 PUSH2 0x16E8 DUP2 PUSH1 0x3 DUP7 ADD PUSH2 0x1E24 JUMP JUMPDEST SUB PUSH2 0x16F3 SWAP1 DUP7 PUSH2 0x1D35 JUMP JUMPDEST DUP3 ADD SLOAD PUSH1 0xFF AND SWAP4 PUSH1 0x5 DUP4 ADD SLOAD PUSH1 0x7 DUP5 ADD SLOAD SWAP1 PUSH1 0x8 DUP6 ADD SLOAD PUSH1 0xFF AND SWAP3 PUSH1 0x9 DUP7 ADD SLOAD SWAP5 PUSH1 0xA DUP8 ADD SLOAD SWAP7 PUSH1 0xB ADD SLOAD SWAP8 DUP1 MLOAD SWAP12 DUP13 SWAP12 DUP13 PUSH2 0x180 DUP1 SWAP2 MSTORE DUP14 ADD PUSH2 0x1736 SWAP2 PUSH2 0x1EBA JUMP JUMPDEST DUP13 DUP2 SUB PUSH1 0x20 DUP15 ADD MSTORE PUSH2 0x1747 SWAP2 PUSH2 0x1EBA JUMP JUMPDEST SWAP1 DUP12 DUP3 SUB SWAP1 DUP13 ADD MSTORE PUSH2 0x1758 SWAP2 PUSH2 0x1EBA JUMP JUMPDEST DUP10 DUP2 SUB PUSH1 0x60 DUP12 ADD MSTORE PUSH2 0x1769 SWAP2 PUSH2 0x1EBA JUMP JUMPDEST SWAP7 ISZERO ISZERO PUSH1 0x80 DUP10 ADD MSTORE PUSH1 0xA0 DUP9 ADD MSTORE PUSH1 0xC0 DUP8 ADD MSTORE ISZERO ISZERO PUSH1 0xE0 DUP7 ADD MSTORE PUSH2 0x100 DUP6 ADD MSTORE PUSH2 0x120 DUP5 ADD MSTORE PUSH1 0x1 PUSH1 0xA0 SHL PUSH1 0x1 SWAP1 SUB DUP2 AND PUSH2 0x140 DUP5 ADD MSTORE PUSH1 0xA0 SHR PUSH1 0xFF AND ISZERO ISZERO PUSH2 0x160 DUP4 ADD MSTORE SUB SWAP1 RETURN JUMPDEST SWAP2 SWAP1 POP CALLVALUE PUSH2 0x26F JUMPI PUSH1 0xE0 CALLDATASIZE PUSH1 0x3 NOT ADD SLT PUSH2 0x26F JUMPI PUSH1 0x1 PUSH1 0x1 PUSH1 0x40 SHL SUB SWAP3 DUP3 CALLDATALOAD DUP5 DUP2 GT PUSH2 0x1CC JUMPI PUSH2 0x17E4 SWAP1 CALLDATASIZE SWAP1 DUP6 ADD PUSH2 0x1D71 JUMP JUMPDEST SWAP1 PUSH1 0x24 SWAP5 DUP6 CALLDATALOAD DUP2 DUP2 GT PUSH2 0x26F JUMPI PUSH2 0x17FE SWAP1 CALLDATASIZE SWAP1 DUP8 ADD PUSH2 0x1D71 JUMP JUMPDEST SWAP5 PUSH1 0x44 CALLDATALOAD DUP3 DUP2 GT PUSH2 0x1239 JUMPI PUSH2 0x1816 SWAP1 CALLDATASIZE SWAP1 DUP4 ADD PUSH2 0x1D71 JUMP JUMPDEST SWAP2 PUSH1 0x64 CALLDATALOAD SWAP1 DUP2 GT PUSH2 0x1239 JUMPI PUSH2 0x182E SWAP1 CALLDATASIZE SWAP1 DUP4 ADD PUSH2 0x1D71 JUMP JUMPDEST SWAP6 PUSH2 0x1837 PUSH2 0x1DB8 JUMP JUMPDEST SWAP8 PUSH1 0xC4 CALLDATALOAD DUP1 ISZERO ISZERO DUP1 SWAP2 SUB PUSH2 0x1224 JUMPI PUSH1 0x2 SLOAD DUP9 MLOAD PUSH3 0xBA80A9 PUSH1 0xE1 SHL DUP2 MSTORE CALLER DUP7 DUP3 ADD MSTORE PUSH1 0x20 SWAP12 SWAP2 PUSH1 0x1 PUSH1 0x1 PUSH1 0xA0 SHL SUB AND SWAP1 DUP13 DUP2 DUP7 DUP2 DUP6 GAS STATICCALL SWAP1 DUP2 ISZERO PUSH2 0x1C30 JUMPI SWAP2 DUP10 SWAP2 DUP7 SWAP4 DUP4 SWAP2 PUSH2 0x1BEE JUMPI JUMPDEST POP PUSH2 0x188A SWAP1 PUSH2 0x2200 JUMP JUMPDEST DUP12 MLOAD PUSH4 0x189A5A17 PUSH1 0xE0 SHL DUP2 MSTORE CALLER DUP10 DUP3 ADD MSTORE SWAP3 DUP4 SWAP2 DUP3 SWAP1 GAS STATICCALL SWAP1 DUP2 ISZERO PUSH2 0x1BE4 JUMPI DUP13 SWAP8 SWAP7 SWAP6 SWAP5 SWAP4 SWAP3 SWAP2 PUSH2 0x18C1 SWAP2 DUP11 SWAP2 PUSH2 0xEE3 JUMPI POP PUSH2 0x22EE JUMP JUMPDEST DUP10 MLOAD DUP10 MLOAD DUP11 DUP10 ADD SWAP9 PUSH1 0xFF SWAP3 SWAP2 DUP3 SWAP1 PUSH2 0x18DA DUP2 DUP4 DUP15 PUSH2 0x1DC7 JUMP JUMPDEST DUP2 ADD DUP10 DUP2 MSTORE SUB ADD SWAP1 KECCAK256 SLOAD AND PUSH2 0x1BAB JUMPI DUP9 MLOAD ISZERO PUSH2 0x1B69 JUMPI DUP7 DUP11 PUSH2 0x1943 PUSH1 0x54 DUP16 DUP14 SWAP1 PUSH2 0x190E DUP6 MLOAD DUP3 DUP2 DUP6 MLOAD PUSH2 0x106F DUP2 DUP4 DUP14 PUSH2 0x1DC7 JUMP JUMPDEST DUP5 MLOAD SWAP5 DUP6 SWAP3 PUSH2 0x1925 DUP4 DUP6 ADD SWAP9 DUP10 SWAP3 MLOAD SWAP3 DUP4 SWAP2 PUSH2 0x1DC7 JUMP JUMPDEST DUP4 ADD SWAP2 TIMESTAMP SWAP1 DUP4 ADD MSTORE CALLER PUSH1 0x60 SHL SWAP1 DUP3 ADD MSTORE SUB PUSH1 0x34 DUP2 ADD DUP5 MSTORE ADD DUP3 PUSH2 0x1D35 JUMP JUMPDEST MLOAD SWAP1 KECCAK256 SWAP11 DUP12 DUP10 MSTORE PUSH1 0x5 DUP14 MSTORE DUP11 DUP10 KECCAK256 SWAP4 PUSH3 0x15180 TIMESTAMP ADD SWAP1 DUP2 TIMESTAMP GT PUSH2 0x1B58 JUMPI POP SWAP4 DUP13 SWAP10 SWAP8 SWAP4 DUP8 SWAP4 DUP16 SWAP11 SWAP8 SWAP4 DUP15 DUP15 SWAP9 DUP15 SWAP12 DUP7 ADD SSTORE PUSH1 0x6 DUP6 ADD DUP1 SLOAD PUSH2 0x1983 SWAP1 PUSH2 0x1DEA JUMP JUMPDEST PUSH2 0x198D SWAP1 DUP3 PUSH2 0x238B JUMP JUMPDEST PUSH1 0x6 PUSH3 0x105111 PUSH1 0xEA SHL ADD SWAP1 SSTORE MLOAD DUP9 MLOAD DUP14 SWAP1 DUP3 SWAP1 PUSH2 0x19AB DUP2 DUP4 DUP16 PUSH2 0x1DC7 JUMP JUMPDEST DUP2 ADD PUSH1 0x3 DUP2 MSTORE SUB ADD SWAP1 KECCAK256 SWAP8 PUSH2 0x19C0 SWAP1 DUP10 PUSH2 0x23B5 JUMP JUMPDEST PUSH1 0x1 SWAP7 DUP8 SWAP6 PUSH2 0x19D1 SWAP1 DUP11 DUP9 ADD PUSH2 0x23B5 JUMP JUMPDEST PUSH2 0x19DE SWAP1 PUSH1 0x2 DUP11 ADD PUSH2 0x23B5 JUMP JUMPDEST PUSH2 0x19EB SWAP1 PUSH1 0x3 DUP10 ADD PUSH2 0x23B5 JUMP JUMPDEST DUP5 DUP8 ADD SWAP1 PUSH2 0x1A04 SWAP2 SWAP1 PUSH1 0xFF DUP1 NOT DUP4 SLOAD AND SWAP2 ISZERO ISZERO AND OR SWAP1 SSTORE JUMP JUMPDEST PUSH1 0xA4 CALLDATALOAD PUSH1 0x5 DUP8 ADD SSTORE TIMESTAMP PUSH1 0x9 DUP8 ADD DUP2 SWAP1 SSTORE PUSH1 0xA DUP8 ADD SSTORE PUSH1 0xB DUP7 ADD DUP1 SLOAD PUSH1 0x1 PUSH1 0x1 PUSH1 0xA8 SHL SUB NOT AND CALLER PUSH1 0xFF PUSH1 0xA0 SHL NOT DUP2 AND SWAP2 SWAP1 SWAP2 OR PUSH1 0xA0 SWAP4 SWAP1 SWAP4 SHL PUSH1 0xFF PUSH1 0xA0 SHL AND SWAP3 SWAP1 SWAP3 OR SWAP1 SSTORE PUSH1 0x8 DUP7 ADD DUP1 SLOAD PUSH1 0xFF NOT SWAP1 DUP2 AND SWAP1 SWAP2 SSTORE SWAP6 DUP3 SWAP2 PUSH2 0x1A67 SWAP1 PUSH1 0x6 DUP4 ADD PUSH2 0x24B9 JUMP JUMPDEST PUSH1 0x7 ADD SWAP10 DUP4 DUP12 SSTORE CALLER DUP11 MSTORE MSTORE DUP12 DUP9 KECCAK256 DUP3 DUP7 DUP3 SLOAD AND OR SWAP1 SSTORE DUP14 DUP3 DUP3 ADD SWAP1 MSTORE DUP12 DUP9 KECCAK256 DUP3 DUP7 DUP3 SLOAD AND OR SWAP1 SSTORE PUSH1 0x2 ADD SSTORE DUP12 DUP11 MLOAD DUP1 SWAP3 DUP12 MLOAD PUSH2 0x1AA4 DUP2 DUP5 DUP11 PUSH2 0x1DC7 JUMP JUMPDEST DUP3 ADD SWAP1 DUP2 MSTORE SUB ADD SWAP1 KECCAK256 SWAP2 DUP3 SLOAD AND OR SWAP1 SSTORE DUP9 DUP8 MLOAD DUP1 DUP1 SWAP4 DUP10 MLOAD DUP1 SWAP3 PUSH2 0x1AC7 SWAP3 PUSH2 0x1DC7 JUMP JUMPDEST DUP2 ADD PUSH1 0x6 DUP2 MSTORE SUB ADD SWAP1 KECCAK256 SSTORE DUP7 PUSH2 0x1ADC DUP6 PUSH2 0x2500 JUMP JUMPDEST DUP7 MLOAD DUP6 DUP2 MSTORE CALLER SWAP3 PUSH32 0x83C4AD2B7F024F600227EBA39DC326D730F3D51E00E11228B85175C0D05BDD63 SWAP2 LOG3 CALLER SWAP1 PUSH2 0x1B11 DUP6 PUSH2 0x2500 JUMP JUMPDEST SWAP1 DUP1 PUSH32 0x5D58BA53FDB73DB8834537CD0623D3207E07F37769C3BD784C06D85353B914D1 SWAP2 LOG3 SLOAD PUSH1 0x3 GT ISZERO PUSH2 0x1B48 JUMPI JUMPDEST POP POP MLOAD SWAP1 DUP2 MSTORE RETURN JUMPDEST PUSH2 0x1B51 SWAP2 PUSH2 0x264C JUMP JUMPDEST CODESIZE DUP3 PUSH2 0x1B40 JUMP JUMPDEST PUSH4 0x4E487B71 PUSH1 0xE0 SHL DUP12 MSTORE PUSH1 0x11 DUP9 MSTORE DUP11 REVERT JUMPDEST DUP10 MLOAD PUSH3 0x461BCD PUSH1 0xE5 SHL DUP2 MSTORE DUP1 DUP7 ADD DUP14 SWAP1 MSTORE PUSH1 0x18 DUP2 DUP6 ADD MSTORE PUSH32 0x557365726E616D652063616E6E6F7420626520656D7074790000000000000000 PUSH1 0x44 DUP3 ADD MSTORE PUSH1 0x64 SWAP1 REVERT JUMPDEST DUP10 MLOAD PUSH3 0x461BCD PUSH1 0xE5 SHL DUP2 MSTORE DUP1 DUP7 ADD DUP14 SWAP1 MSTORE PUSH1 0x14 DUP2 DUP6 ADD MSTORE PUSH20 0x4163746F7220616C726561647920657869737473 PUSH1 0x60 SHL PUSH1 0x44 DUP3 ADD MSTORE PUSH1 0x64 SWAP1 REVERT JUMPDEST DUP11 MLOAD RETURNDATASIZE DUP11 DUP3 RETURNDATACOPY RETURNDATASIZE SWAP1 REVERT JUMPDEST SWAP3 POP POP SWAP2 POP DUP13 DUP2 DUP2 RETURNDATASIZE DUP4 GT PUSH2 0x1C29 JUMPI JUMPDEST PUSH2 0x1C08 DUP2 DUP4 PUSH2 0x1D35 JUMP JUMPDEST DUP2 ADD SUB SLT PUSH2 0x1C25 JUMPI DUP5 SWAP2 PUSH2 0x188A PUSH2 0x1C1F DUP12 SWAP4 PUSH2 0x21F3 JUMP JUMPDEST SWAP1 PUSH2 0x1880 JUMP JUMPDEST DUP9 DUP1 REVERT JUMPDEST POP RETURNDATASIZE PUSH2 0x1BFE JUMP JUMPDEST DUP12 MLOAD RETURNDATASIZE DUP12 DUP3 RETURNDATACOPY RETURNDATASIZE SWAP1 REVERT JUMPDEST POP POP CALLVALUE PUSH2 0x1CC JUMPI PUSH1 0x20 CALLDATASIZE PUSH1 0x3 NOT ADD SLT PUSH2 0x1CC JUMPI PUSH2 0x1C8 SWAP1 PUSH2 0x1C5E PUSH1 0x1 PUSH2 0x19C PUSH2 0x1CD3 JUMP JUMPDEST PUSH2 0x20E5 JUMP JUMPDEST POP POP CALLVALUE PUSH2 0x1CC JUMPI DUP2 PUSH1 0x3 NOT CALLDATASIZE ADD SLT PUSH2 0x1CC JUMPI PUSH1 0x20 SWAP1 MLOAD PUSH2 0xE10 DUP2 MSTORE RETURN JUMPDEST DUP5 SWAP2 CALLVALUE PUSH2 0x26F JUMPI PUSH1 0x20 CALLDATASIZE PUSH1 0x3 NOT ADD SLT PUSH2 0x26F JUMPI CALLDATALOAD PUSH4 0xFFFFFFFF PUSH1 0xE0 SHL DUP2 AND DUP1 SWAP2 SUB PUSH2 0x26F JUMPI PUSH1 0x20 SWAP3 POP PUSH4 0x7965DB0B PUSH1 0xE0 SHL DUP2 EQ SWAP1 DUP2 ISZERO PUSH2 0x1CC2 JUMPI JUMPDEST POP ISZERO ISZERO DUP2 MSTORE RETURN JUMPDEST PUSH4 0x1FFC9A7 PUSH1 0xE0 SHL EQ SWAP1 POP DUP4 PUSH2 0x1CBB JUMP JUMPDEST PUSH1 0x4 CALLDATALOAD SWAP1 PUSH1 0x1 PUSH1 0x1 PUSH1 0xA0 SHL SUB DUP3 AND DUP3 SUB PUSH2 0x1CE9 JUMPI JUMP JUMPDEST PUSH1 0x0 DUP1 REVERT JUMPDEST PUSH1 0x24 CALLDATALOAD SWAP1 PUSH1 0x1 PUSH1 0x1 PUSH1 0xA0 SHL SUB DUP3 AND DUP3 SUB PUSH2 0x1CE9 JUMPI JUMP JUMPDEST PUSH1 0x40 DUP2 ADD SWAP1 DUP2 LT PUSH1 0x1 PUSH1 0x1 PUSH1 0x40 SHL SUB DUP3 GT OR PUSH2 0x1D1F JUMPI PUSH1 0x40 MSTORE JUMP JUMPDEST PUSH4 0x4E487B71 PUSH1 0xE0 SHL PUSH1 0x0 MSTORE PUSH1 0x41 PUSH1 0x4 MSTORE PUSH1 0x24 PUSH1 0x0 REVERT JUMPDEST SWAP1 PUSH1 0x1F DUP1 NOT SWAP2 ADD AND DUP2 ADD SWAP1 DUP2 LT PUSH1 0x1 PUSH1 0x1 PUSH1 0x40 SHL SUB DUP3 GT OR PUSH2 0x1D1F JUMPI PUSH1 0x40 MSTORE JUMP JUMPDEST PUSH1 0x1 PUSH1 0x1 PUSH1 0x40 SHL SUB DUP2 GT PUSH2 0x1D1F JUMPI PUSH1 0x1F ADD PUSH1 0x1F NOT AND PUSH1 0x20 ADD SWAP1 JUMP JUMPDEST DUP2 PUSH1 0x1F DUP3 ADD SLT ISZERO PUSH2 0x1CE9 JUMPI DUP1 CALLDATALOAD SWAP1 PUSH2 0x1D88 DUP3 PUSH2 0x1D56 JUMP JUMPDEST SWAP3 PUSH2 0x1D96 PUSH1 0x40 MLOAD SWAP5 DUP6 PUSH2 0x1D35 JUMP JUMPDEST DUP3 DUP5 MSTORE PUSH1 0x20 DUP4 DUP4 ADD ADD GT PUSH2 0x1CE9 JUMPI DUP2 PUSH1 0x0 SWAP3 PUSH1 0x20 DUP1 SWAP4 ADD DUP4 DUP7 ADD CALLDATACOPY DUP4 ADD ADD MSTORE SWAP1 JUMP JUMPDEST PUSH1 0x84 CALLDATALOAD SWAP1 DUP2 ISZERO ISZERO DUP3 SUB PUSH2 0x1CE9 JUMPI JUMP JUMPDEST PUSH1 0x0 JUMPDEST DUP4 DUP2 LT PUSH2 0x1DDA JUMPI POP POP PUSH1 0x0 SWAP2 ADD MSTORE JUMP JUMPDEST DUP2 DUP2 ADD MLOAD DUP4 DUP3 ADD MSTORE PUSH1 0x20 ADD PUSH2 0x1DCA JUMP JUMPDEST SWAP1 PUSH1 0x1 DUP3 DUP2 SHR SWAP3 AND DUP1 ISZERO PUSH2 0x1E1A JUMPI JUMPDEST PUSH1 0x20 DUP4 LT EQ PUSH2 0x1E04 JUMPI JUMP JUMPDEST PUSH4 0x4E487B71 PUSH1 0xE0 SHL PUSH1 0x0 MSTORE PUSH1 0x22 PUSH1 0x4 MSTORE PUSH1 0x24 PUSH1 0x0 REVERT JUMPDEST SWAP2 PUSH1 0x7F AND SWAP2 PUSH2 0x1DF9 JUMP JUMPDEST SWAP1 PUSH1 0x0 SWAP3 SWAP2 DUP1 SLOAD SWAP2 PUSH2 0x1E35 DUP4 PUSH2 0x1DEA JUMP JUMPDEST SWAP2 DUP3 DUP3 MSTORE PUSH1 0x1 SWAP4 DUP5 DUP2 AND SWAP1 DUP2 PUSH1 0x0 EQ PUSH2 0x1E97 JUMPI POP PUSH1 0x1 EQ PUSH2 0x1E57 JUMPI JUMPDEST POP POP POP POP JUMP JUMPDEST SWAP1 SWAP2 SWAP4 SWAP5 POP PUSH1 0x0 MSTORE PUSH1 0x20 SWAP3 DUP4 PUSH1 0x0 KECCAK256 SWAP3 DUP5 PUSH1 0x0 SWAP5 JUMPDEST DUP4 DUP7 LT PUSH2 0x1E83 JUMPI POP POP POP POP ADD ADD SWAP1 CODESIZE DUP1 DUP1 DUP1 PUSH2 0x1E51 JUMP JUMPDEST DUP1 SLOAD DUP6 DUP8 ADD DUP4 ADD MSTORE SWAP5 ADD SWAP4 DUP6 SWAP1 DUP3 ADD PUSH2 0x1E6C JUMP JUMPDEST SWAP3 SWAP5 POP POP POP PUSH1 0x20 SWAP4 SWAP5 POP PUSH1 0xFF NOT AND DUP4 DUP4 ADD MSTORE ISZERO ISZERO PUSH1 0x5 SHL ADD ADD SWAP1 CODESIZE DUP1 DUP1 DUP1 PUSH2 0x1E51 JUMP JUMPDEST SWAP1 PUSH1 0x20 SWAP2 PUSH2 0x1ED3 DUP2 MLOAD DUP1 SWAP3 DUP2 DUP6 MSTORE DUP6 DUP1 DUP7 ADD SWAP2 ADD PUSH2 0x1DC7 JUMP JUMPDEST PUSH1 0x1F ADD PUSH1 0x1F NOT AND ADD ADD SWAP1 JUMP JUMPDEST PUSH1 0x7 SLOAD DUP2 LT ISZERO PUSH2 0x1F16 JUMPI PUSH1 0x7 PUSH1 0x0 MSTORE PUSH32 0xA66CC928B5EDB82AF9BD49922954155AB7B0942694BEA4CE44661D9A8736C688 ADD SWAP1 PUSH1 0x0 SWAP1 JUMP JUMPDEST PUSH4 0x4E487B71 PUSH1 0xE0 SHL PUSH1 0x0 MSTORE PUSH1 0x32 PUSH1 0x4 MSTORE PUSH1 0x24 PUSH1 0x0 REVERT JUMPDEST CALLER PUSH1 0x0 SWAP1 DUP2 MSTORE PUSH32 0x7D7FFB7A348E1C6A02869081A26547B49160DD3DF72D1D75A570EB9B698292EC PUSH1 0x20 MSTORE PUSH1 0x40 SWAP1 KECCAK256 SLOAD PUSH32 0xA49807205CE4D355092EF5A8A18F56E8913CF4A201FBE287825B095693C21775 SWAP1 PUSH1 0xFF AND ISZERO PUSH2 0x1F88 JUMPI POP JUMP JUMPDEST PUSH1 0x44 SWAP1 PUSH1 0x40 MLOAD SWAP1 PUSH4 0xE2517D3F PUSH1 0xE0 SHL DUP3 MSTORE CALLER PUSH1 0x4 DUP4 ADD MSTORE PUSH1 0x24 DUP3 ADD MSTORE REVERT JUMPDEST DUP1 PUSH1 0x0 MSTORE PUSH1 0x0 PUSH1 0x20 MSTORE PUSH1 0x40 PUSH1 0x0 KECCAK256 CALLER PUSH1 0x0 MSTORE PUSH1 0x20 MSTORE PUSH1 0xFF PUSH1 0x40 PUSH1 0x0 KECCAK256 SLOAD AND ISZERO PUSH2 0x1F88 JUMPI POP JUMP JUMPDEST PUSH1 0x1 PUSH1 0x1 PUSH1 0xA0 SHL SUB AND PUSH1 0x0 DUP2 DUP2 MSTORE PUSH32 0x3412D5605AC6CD444957CEDB533E5DACAD6378B4BC819EBE3652188A665066D5 PUSH1 0x20 MSTORE PUSH1 0x40 DUP2 KECCAK256 SLOAD SWAP1 SWAP2 SWAP1 PUSH1 0x0 DUP1 MLOAD PUSH1 0x20 PUSH2 0x27A0 DUP4 CODECOPY DUP2 MLOAD SWAP2 MSTORE SWAP1 PUSH1 0xFF AND PUSH2 0x2067 JUMPI DUP1 DUP4 MSTORE DUP3 PUSH1 0x20 MSTORE PUSH1 0x40 DUP4 KECCAK256 DUP3 DUP5 MSTORE PUSH1 0x20 MSTORE PUSH1 0x40 DUP4 KECCAK256 PUSH1 0x1 PUSH1 0xFF NOT DUP3 SLOAD AND OR SWAP1 SSTORE PUSH32 0x2F8788117E7EFF1D82E926EC794901D17C78024A50270940304540A733656F0D CALLER SWAP4 DUP1 LOG4 PUSH1 0x1 SWAP1 JUMP JUMPDEST POP POP SWAP1 JUMP JUMPDEST SWAP1 PUSH1 0x0 SWAP2 DUP1 DUP4 MSTORE DUP3 PUSH1 0x20 MSTORE PUSH1 0x40 DUP4 KECCAK256 SWAP2 PUSH1 0x1 DUP1 PUSH1 0xA0 SHL SUB AND SWAP2 DUP3 DUP5 MSTORE PUSH1 0x20 MSTORE PUSH1 0xFF PUSH1 0x40 DUP5 KECCAK256 SLOAD AND ISZERO PUSH1 0x0 EQ PUSH2 0x2067 JUMPI DUP1 DUP4 MSTORE DUP3 PUSH1 0x20 MSTORE PUSH1 0x40 DUP4 KECCAK256 DUP3 DUP5 MSTORE PUSH1 0x20 MSTORE PUSH1 0x40 DUP4 KECCAK256 PUSH1 0x1 PUSH1 0xFF NOT DUP3 SLOAD AND OR SWAP1 SSTORE PUSH32 0x2F8788117E7EFF1D82E926EC794901D17C78024A50270940304540A733656F0D CALLER SWAP4 DUP1 LOG4 PUSH1 0x1 SWAP1 JUMP JUMPDEST PUSH1 0x1 PUSH1 0x1 PUSH1 0xA0 SHL SUB AND PUSH1 0x0 DUP2 DUP2 MSTORE PUSH32 0x3412D5605AC6CD444957CEDB533E5DACAD6378B4BC819EBE3652188A665066D5 PUSH1 0x20 MSTORE PUSH1 0x40 DUP2 KECCAK256 SLOAD SWAP1 SWAP2 SWAP1 PUSH1 0x0 DUP1 MLOAD PUSH1 0x20 PUSH2 0x27A0 DUP4 CODECOPY DUP2 MLOAD SWAP2 MSTORE SWAP1 PUSH1 0xFF AND ISZERO PUSH2 0x2067 JUMPI DUP1 DUP4 MSTORE DUP3 PUSH1 0x20 MSTORE PUSH1 0x40 DUP4 KECCAK256 DUP3 DUP5 MSTORE PUSH1 0x20 MSTORE PUSH1 0x40 DUP4 KECCAK256 PUSH1 0xFF NOT DUP2 SLOAD AND SWAP1 SSTORE PUSH32 0xF6391F5C32D9C69D2A47EA670B442974B53935D1EDC7FD64EB21E047A839171B CALLER SWAP4 DUP1 LOG4 PUSH1 0x1 SWAP1 JUMP JUMPDEST SWAP1 PUSH1 0x0 SWAP2 DUP1 DUP4 MSTORE DUP3 PUSH1 0x20 MSTORE PUSH1 0x40 DUP4 KECCAK256 SWAP2 PUSH1 0x1 DUP1 PUSH1 0xA0 SHL SUB AND SWAP2 DUP3 DUP5 MSTORE PUSH1 0x20 MSTORE PUSH1 0xFF PUSH1 0x40 DUP5 KECCAK256 SLOAD AND PUSH1 0x0 EQ PUSH2 0x2067 JUMPI DUP1 DUP4 MSTORE DUP3 PUSH1 0x20 MSTORE PUSH1 0x40 DUP4 KECCAK256 DUP3 DUP5 MSTORE PUSH1 0x20 MSTORE PUSH1 0x40 DUP4 KECCAK256 PUSH1 0xFF NOT DUP2 SLOAD AND SWAP1 SSTORE PUSH32 0xF6391F5C32D9C69D2A47EA670B442974B53935D1EDC7FD64EB21E047A839171B CALLER SWAP4 DUP1 LOG4 PUSH1 0x1 SWAP1 JUMP JUMPDEST MLOAD SWAP1 DUP2 ISZERO ISZERO DUP3 SUB PUSH2 0x1CE9 JUMPI JUMP JUMPDEST ISZERO PUSH2 0x2207 JUMPI JUMP JUMPDEST PUSH1 0x40 MLOAD PUSH3 0x461BCD PUSH1 0xE5 SHL DUP2 MSTORE PUSH1 0x20 PUSH1 0x4 DUP3 ADD MSTORE PUSH1 0x15 PUSH1 0x24 DUP3 ADD MSTORE PUSH21 0x4E6F7420612072656769737465726564206E6F6465 PUSH1 0x58 SHL PUSH1 0x44 DUP3 ADD MSTORE PUSH1 0x64 SWAP1 REVERT JUMPDEST SWAP1 PUSH2 0x120 DUP3 DUP3 SUB SLT PUSH2 0x1CE9 JUMPI DUP2 MLOAD PUSH1 0x1 PUSH1 0x1 PUSH1 0xA0 SHL SUB DUP2 AND DUP2 SUB PUSH2 0x1CE9 JUMPI SWAP3 PUSH1 0x20 DUP4 ADD MLOAD SWAP3 PUSH1 0x40 DUP2 ADD MLOAD SWAP3 PUSH2 0x227B PUSH1 0x60 DUP4 ADD PUSH2 0x21F3 JUMP JUMPDEST SWAP3 PUSH1 0x80 DUP4 ADD MLOAD SWAP3 PUSH1 0xA0 DUP2 ADD MLOAD SWAP3 PUSH1 0xC0 DUP3 ADD MLOAD PUSH1 0x1 PUSH1 0x1 PUSH1 0x40 SHL SUB DUP2 GT PUSH2 0x1CE9 JUMPI DUP3 ADD DUP2 PUSH1 0x1F DUP3 ADD SLT ISZERO PUSH2 0x1CE9 JUMPI DUP1 MLOAD PUSH2 0x22B3 DUP2 PUSH2 0x1D56 JUMP JUMPDEST SWAP3 PUSH2 0x22C1 PUSH1 0x40 MLOAD SWAP5 DUP6 PUSH2 0x1D35 JUMP JUMPDEST DUP2 DUP5 MSTORE PUSH1 0x20 DUP3 DUP5 ADD ADD GT PUSH2 0x1CE9 JUMPI PUSH2 0x22DF SWAP2 PUSH1 0x20 DUP1 DUP6 ADD SWAP2 ADD PUSH2 0x1DC7 JUMP JUMPDEST SWAP2 PUSH2 0x100 PUSH1 0xE0 DUP4 ADD MLOAD SWAP3 ADD MLOAD SWAP1 JUMP JUMPDEST ISZERO PUSH2 0x22F5 JUMPI JUMP JUMPDEST PUSH1 0x40 MLOAD PUSH3 0x461BCD PUSH1 0xE5 SHL DUP2 MSTORE PUSH1 0x20 PUSH1 0x4 DUP3 ADD MSTORE PUSH1 0x12 PUSH1 0x24 DUP3 ADD MSTORE PUSH18 0x4E6F6465206973206E6F7420616374697665 PUSH1 0x70 SHL PUSH1 0x44 DUP3 ADD MSTORE PUSH1 0x64 SWAP1 REVERT JUMPDEST ISZERO PUSH2 0x2336 JUMPI JUMP JUMPDEST PUSH1 0x40 MLOAD PUSH3 0x461BCD PUSH1 0xE5 SHL DUP2 MSTORE PUSH1 0x20 PUSH1 0x4 DUP3 ADD MSTORE PUSH1 0x16 PUSH1 0x24 DUP3 ADD MSTORE PUSH22 0x4163746976652070726F706F73616C20657869737473 PUSH1 0x50 SHL PUSH1 0x44 DUP3 ADD MSTORE PUSH1 0x64 SWAP1 REVERT JUMPDEST DUP2 DUP2 LT PUSH2 0x237F JUMPI POP POP JUMP JUMPDEST PUSH1 0x0 DUP2 SSTORE PUSH1 0x1 ADD PUSH2 0x2374 JUMP JUMPDEST SWAP1 PUSH1 0x1F DUP2 GT PUSH2 0x2398 JUMPI POP POP JUMP JUMPDEST PUSH2 0x23B3 SWAP2 PUSH1 0x0 MSTORE PUSH1 0x1F PUSH1 0x20 PUSH1 0x0 KECCAK256 SWAP2 ADD PUSH1 0x5 SHR DUP2 ADD SWAP1 PUSH2 0x2374 JUMP JUMPDEST JUMP JUMPDEST SWAP2 SWAP1 SWAP2 DUP3 MLOAD PUSH1 0x1 PUSH1 0x1 PUSH1 0x40 SHL SUB DUP2 GT PUSH2 0x1D1F JUMPI PUSH2 0x23D2 DUP3 SLOAD PUSH2 0x1DEA JUMP JUMPDEST PUSH1 0x1F DUP2 GT PUSH2 0x247C JUMPI JUMPDEST POP PUSH1 0x20 DUP1 PUSH1 0x1F DUP4 GT PUSH1 0x1 EQ PUSH2 0x2418 JUMPI POP DUP2 SWAP3 SWAP4 SWAP5 PUSH1 0x0 SWAP3 PUSH2 0x240D JUMPI JUMPDEST POP POP DUP2 PUSH1 0x1 SHL SWAP2 PUSH1 0x0 NOT SWAP1 PUSH1 0x3 SHL SHR NOT AND OR SWAP1 SSTORE JUMP JUMPDEST ADD MLOAD SWAP1 POP CODESIZE DUP1 PUSH2 0x23F7 JUMP JUMPDEST SWAP1 PUSH1 0x1F NOT DUP4 AND SWAP6 DUP5 PUSH1 0x0 MSTORE DUP3 PUSH1 0x0 KECCAK256 SWAP3 PUSH1 0x0 SWAP1 JUMPDEST DUP9 DUP3 LT PUSH2 0x2464 JUMPI POP POP DUP4 PUSH1 0x1 SWAP6 SWAP7 SWAP8 LT PUSH2 0x244B JUMPI JUMPDEST POP POP POP DUP2 SHL ADD SWAP1 SSTORE JUMP JUMPDEST ADD MLOAD PUSH1 0x0 NOT PUSH1 0xF8 DUP5 PUSH1 0x3 SHL AND SHR NOT AND SWAP1 SSTORE CODESIZE DUP1 DUP1 PUSH2 0x2441 JUMP JUMPDEST DUP1 PUSH1 0x1 DUP6 SWAP7 DUP3 SWAP5 SWAP7 DUP7 ADD MLOAD DUP2 SSTORE ADD SWAP6 ADD SWAP4 ADD SWAP1 PUSH2 0x242C JUMP JUMPDEST PUSH2 0x24A9 SWAP1 DUP4 PUSH1 0x0 MSTORE PUSH1 0x20 PUSH1 0x0 KECCAK256 PUSH1 0x1F DUP5 ADD PUSH1 0x5 SHR DUP2 ADD SWAP2 PUSH1 0x20 DUP6 LT PUSH2 0x24AF JUMPI JUMPDEST PUSH1 0x1F ADD PUSH1 0x5 SHR ADD SWAP1 PUSH2 0x2374 JUMP JUMPDEST CODESIZE PUSH2 0x23DB JUMP JUMPDEST SWAP1 SWAP2 POP DUP2 SWAP1 PUSH2 0x249C JUMP JUMPDEST DUP1 SLOAD SWAP1 PUSH1 0x1 PUSH1 0x40 SHL DUP3 LT ISZERO PUSH2 0x1D1F JUMPI PUSH1 0x1 DUP3 ADD DUP1 DUP3 SSTORE DUP3 LT ISZERO PUSH2 0x1F16 JUMPI PUSH1 0x0 MSTORE PUSH1 0x20 PUSH1 0x0 KECCAK256 ADD SWAP1 PUSH1 0x1 DUP1 PUSH1 0xA0 SHL SUB AND PUSH12 0xFFFFFFFFFFFFFFFFFFFFFFFF PUSH1 0xA0 SHL DUP3 SLOAD AND OR SWAP1 SSTORE JUMP JUMPDEST PUSH2 0x2518 SWAP1 PUSH1 0x20 PUSH1 0x40 MLOAD SWAP3 DUP3 DUP5 DUP1 SWAP5 MLOAD SWAP4 DUP5 SWAP3 ADD PUSH2 0x1DC7 JUMP JUMPDEST DUP2 ADD SUB SWAP1 KECCAK256 SWAP1 JUMP JUMPDEST PUSH1 0x0 NOT DUP2 EQ PUSH2 0x252F JUMPI PUSH1 0x1 ADD SWAP1 JUMP JUMPDEST PUSH4 0x4E487B71 PUSH1 0xE0 SHL PUSH1 0x0 MSTORE PUSH1 0x11 PUSH1 0x4 MSTORE PUSH1 0x24 PUSH1 0x0 REVERT JUMPDEST PUSH1 0x0 SWAP3 SWAP2 DUP2 SLOAD PUSH2 0x2554 DUP2 PUSH2 0x1DEA JUMP JUMPDEST SWAP3 PUSH1 0x1 SWAP2 DUP1 DUP4 AND SWAP1 DUP2 ISZERO PUSH2 0x25AC JUMPI POP PUSH1 0x1 EQ PUSH2 0x2570 JUMPI POP POP POP POP JUMP JUMPDEST SWAP1 SWAP2 SWAP3 SWAP4 SWAP5 POP PUSH1 0x0 MSTORE PUSH1 0x20 SWAP1 DUP2 PUSH1 0x0 KECCAK256 SWAP1 PUSH1 0x0 SWAP2 JUMPDEST DUP6 DUP4 LT PUSH2 0x259B JUMPI POP POP POP POP ADD SWAP1 CODESIZE DUP1 DUP1 DUP1 PUSH2 0x1E51 JUMP JUMPDEST DUP1 SLOAD DUP6 DUP5 ADD MSTORE SWAP2 DUP4 ADD SWAP2 DUP2 ADD PUSH2 0x2585 JUMP JUMPDEST PUSH1 0xFF NOT AND DUP5 MSTORE POP POP POP DUP2 ISZERO ISZERO SWAP1 SWAP2 MUL ADD SWAP2 POP CODESIZE DUP1 DUP1 DUP1 PUSH2 0x1E51 JUMP JUMPDEST ISZERO PUSH2 0x25CE JUMPI JUMP JUMPDEST PUSH1 0x40 MLOAD PUSH3 0x461BCD PUSH1 0xE5 SHL DUP2 MSTORE PUSH1 0x20 PUSH1 0x4 DUP3 ADD MSTORE PUSH1 0x14 PUSH1 0x24 DUP3 ADD MSTORE PUSH20 0x1058DD1BDC88191BD95CC81B9BDD08195E1A5CDD PUSH1 0x62 SHL PUSH1 0x44 DUP3 ADD MSTORE PUSH1 0x64 SWAP1 REVERT JUMPDEST ISZERO PUSH2 0x2611 JUMPI JUMP JUMPDEST PUSH1 0x40 MLOAD PUSH3 0x461BCD PUSH1 0xE5 SHL DUP2 MSTORE PUSH1 0x20 PUSH1 0x4 DUP3 ADD MSTORE PUSH1 0x13 PUSH1 0x24 DUP3 ADD MSTORE PUSH19 0x4163746F72206973206E6F7420616374697665 PUSH1 0x68 SHL PUSH1 0x44 DUP3 ADD MSTORE PUSH1 0x64 SWAP1 REVERT JUMPDEST PUSH1 0x40 MLOAD DUP2 MLOAD SWAP2 PUSH1 0x20 SWAP2 DUP3 DUP2 DUP2 DUP5 ADD SWAP6 PUSH2 0x2666 DUP2 DUP4 DUP10 PUSH2 0x1DC7 JUMP JUMPDEST DUP2 ADD PUSH1 0x3 DUP2 MSTORE SUB ADD SWAP1 KECCAK256 PUSH1 0x8 DUP2 ADD SWAP4 PUSH1 0xFF NOT SWAP5 PUSH1 0x1 DUP7 DUP3 SLOAD AND OR SWAP1 SSTORE PUSH2 0x268D PUSH1 0x8 SLOAD PUSH2 0x2520 JUMP JUMPDEST PUSH1 0x8 SSTORE PUSH1 0x7 SLOAD PUSH1 0x1 PUSH1 0x40 SHL DUP2 LT ISZERO PUSH2 0x1D1F JUMPI DUP1 PUSH1 0x1 PUSH2 0x26AF SWAP3 ADD PUSH1 0x7 SSTORE PUSH2 0x1EDF JUMP JUMPDEST SWAP6 SWAP1 SWAP6 PUSH2 0x275E JUMPI PUSH1 0x7 PUSH32 0x48C7B81DABE0B8DA67AFA8A1EBC01BACA706532B20780EEBDD5AD967C33FFCE6 SWAP4 PUSH1 0x0 PUSH2 0x2739 DUP9 DUP1 SWAP7 PUSH2 0x274C SWAP7 PUSH2 0x2711 DUP12 PUSH32 0xE511FE6D5DB0BD906CF5790330CB96BFC7D86B06B565BAAA537CE7A2659ABBCB SWAP15 PUSH2 0x23B5 JUMP JUMPDEST DUP14 DUP6 MSTORE PUSH1 0x5 DUP4 MSTORE PUSH1 0x1 PUSH1 0x5 PUSH1 0x40 DUP8 KECCAK256 ADD SWAP2 DUP3 SLOAD AND OR SWAP1 SSTORE PUSH1 0x40 MLOAD DUP1 SWAP4 DUP2 SWAP3 DUP13 MLOAD SWAP3 DUP4 SWAP2 PUSH2 0x1DC7 JUMP JUMPDEST DUP2 ADD PUSH1 0x6 DUP2 MSTORE SUB ADD SWAP1 KECCAK256 SSTORE ADD SLOAD SWAP4 PUSH2 0x2500 JUMP JUMPDEST SWAP3 PUSH1 0x40 MLOAD SWAP1 DUP2 MSTORE LOG2 PUSH1 0x40 MLOAD PUSH1 0x1 DUP2 MSTORE LOG2 JUMP JUMPDEST PUSH4 0x4E487B71 PUSH1 0xE0 SHL PUSH1 0x0 MSTORE PUSH1 0x0 PUSH1 0x4 MSTORE PUSH1 0x24 PUSH1 0x0 REVERT JUMPDEST PUSH1 0x1 PUSH1 0x1 PUSH1 0x40 SHL SUB DUP2 GT PUSH2 0x1D1F JUMPI PUSH1 0x5 SHL PUSH1 0x20 ADD SWAP1 JUMP JUMPDEST DUP1 MLOAD DUP3 LT ISZERO PUSH2 0x1F16 JUMPI PUSH1 0x20 SWAP2 PUSH1 0x5 SHL ADD ADD SWAP1 JUMP INVALID 0xB0 SWAP11 0xA5 0xAE 0xB3 PUSH17 0x2CFD50B6B62BC4532604938F21248A27A1 0xD5 0xCA PUSH20 0x6082B6819CC1AD63A7B40426694FCA689345A586 SWAP3 0xC3 SUB 0xC6 0x4A CODECOPY 0xB0 0xE1 DUP7 PUSH10 0x212688F061EC6555A264 PUSH10 0x70667358221220814834 0xAA CREATE2 AND 0x25 0xC8 0xB2 0xDC 0xCC 0x29 CALLCODE GASLIMIT DUP15 0xBC DUP7 DUP13 SDIV LOG4 0xDD 0xD1 CALL CODECOPY 0xB5 0xE2 0xAE 0x4B ADDMOD BYTE 0xF9 0x2C PUSH5 0x736F6C6343 STOP ADDMOD EQ STOP CALLER 0x2F DUP8 DUP9 GT PUSH31 0x7EFF1D82E926EC794901D17C78024A50270940304540A733656F0D00000000 "},"methodIdentifiers":{"ADMIN_ROLE()":"75b238fc","APPROVAL_THRESHOLD()":"3ab34290","DEFAULT_ADMIN_ROLE()":"a217fddf","PROPOSER_ROLE()":"8f61f4f5","SYNC_COOLDOWN()":"0d44aa99","VOTING_PERIOD()":"b1610d7e","activeProposal(string)":"682ca16c","actorCount()":"89421f5e","actorExists(string)":"ab6cbf45","actorList(uint256)":"932e8fc6","actors(string)":"24544d31","executeProposal(bytes32)":"980ff6c6","getActiveActors()":"e1375e71","getActor(string)":"a84eb754","getActorApprovers(string)":"7cf21f0f","getRoleAdmin(bytes32)":"248a9ca3","grantProposerRole(address)":"fe0ea3e6","grantRole(bytes32,address)":"2f2ff15d","hasRole(bytes32,address)":"91d14854","isActorActive(string)":"fbe89890","nodeRegistry()":"d9b5c4a5","proposalCount()":"da35c664","proposals(bytes32)":"32ed5b12","proposeActor(string,string,string,string,bool,uint256,bool)":"2431bf4b","proposeDeactivation(string)":"47b8fe57","renounceRole(bytes32,address)":"36568abe","revokeProposerRole(address)":"15e30c91","revokeRole(bytes32,address)":"d547741f","supportsInterface(bytes4)":"01ffc9a7","updateActor(string,string,string,string,bool,uint256)":"2f333059","voteOnProposal(bytes32,bool)":"51916970"}}}}}