{"contracts/src/BittensorRewardPool.sol":{"BittensorRewardPool":{"abi":[{"inputs":[],"stateMutability":"nonpayable","type":"constructor"},{"inputs":[{"internalType":"address","name":"owner","type":"address"}],"name":"OwnableInvalidOwner","type":"error"},{"inputs":[{"internalType":"address","name":"account","type":"address"}],"name":"OwnableUnauthorizedAccount","type":"error"},{"inputs":[],"name":"ReentrancyGuardReentrantCall","type":"error"},{"anonymous":false,"inputs":[{"indexed":true,"internalType":"address","name":"agent","type":"address"},{"indexed":false,"internalType":"string","name":"hotkey","type":"string"},{"indexed":false,"internalType":"uint256","name":"subnet","type":"uint256"}],"name":"AIAgentRegistered","type":"event"},{"anonymous":false,"inputs":[{"indexed":true,"internalType":"address","name":"agent","type":"address"},{"indexed":false,"internalType":"uint256","name":"taoStaked","type":"uint256"}],"name":"AIAgentVerified","type":"event"},{"anonymous":false,"inputs":[{"indexed":false,"internalType":"uint256","name":"epochNumber","type":"uint256"},{"indexed":false,"internalType":"uint256","name":"totalDistributed","type":"uint256"}],"name":"EpochCompleted","type":"event"},{"anonymous":false,"inputs":[{"indexed":true,"internalType":"address","name":"previousOwner","type":"address"},{"indexed":true,"internalType":"address","name":"newOwner","type":"address"}],"name":"OwnershipTransferred","type":"event"},{"anonymous":false,"inputs":[{"indexed":true,"internalType":"address","name":"agent","type":"address"},{"indexed":false,"internalType":"uint256","name":"marketId","type":"uint256"},{"indexed":false,"internalType":"bool","name":"wasCorrect","type":"bool"}],"name":"PredictionRecorded","type":"event"},{"anonymous":false,"inputs":[{"indexed":true,"internalType":"address","name":"agent","type":"address"},{"indexed":false,"internalType":"uint256","name":"amount","type":"uint256"},{"indexed":false,"internalType":"uint256","name":"epoch","type":"uint256"}],"name":"RewardDistributed","type":"event"},{"anonymous":false,"inputs":[{"indexed":true,"internalType":"address","name":"agent","type":"address"},{"indexed":false,"internalType":"uint256","name":"amount","type":"uint256"}],"name":"RewardsClaimed","type":"event"},{"anonymous":false,"inputs":[{"indexed":true,"internalType":"address","name":"agent","type":"address"},{"indexed":false,"internalType":"uint256","name":"bonus","type":"uint256"}],"name":"TransparencyBonusUpdated","type":"event"},{"inputs":[],"name":"MAX_TRANSPARENCY_BONUS","outputs":[{"internalType":"uint256","name":"","type":"uint256"}],"stateMutability":"view","type":"function"},{"inputs":[],"name":"MIN_TAO_STAKE","outputs":[{"internalType":"uint256","name":"","type":"uint256"}],"stateMutability":"view","type":"function"},{"inputs":[],"name":"PERFORMANCE_WEIGHT","outputs":[{"internalType":"uint256","name":"","type":"uint256"}],"stateMutability":"view","type":"function"},{"inputs":[],"name":"TAO_STAKE_WEIGHT","outputs":[{"internalType":"uint256","name":"","type":"uint256"}],"stateMutability":"view","type":"function"},{"inputs":[],"name":"TRANSPARENCY_WEIGHT","outputs":[{"internalType":"uint256","name":"","type":"uint256"}],"stateMutability":"view","type":"function"},{"inputs":[],"name":"YUMA_SCORE_WEIGHT","outputs":[{"internalType":"uint256","name":"","type":"uint256"}],"stateMutability":"view","type":"function"},{"inputs":[{"internalType":"address","name":"","type":"address"},{"internalType":"uint256","name":"","type":"uint256"}],"name":"agentPerformance","outputs":[{"internalType":"uint256","name":"marketId","type":"uint256"},{"internalType":"uint256","name":"submissionId","type":"uint256"},{"internalType":"bool","name":"wasCorrect","type":"bool"},{"internalType":"uint256","name":"levenshteinDistance","type":"uint256"},{"internalType":"uint256","name":"rewardEarned","type":"uint256"},{"internalType":"uint256","name":"timestamp","type":"uint256"}],"stateMutability":"view","type":"function"},{"inputs":[{"internalType":"address","name":"","type":"address"}],"name":"aiAgents","outputs":[{"internalType":"address","name":"walletAddress","type":"address"},{"internalType":"string","name":"hotkey","type":"string"},{"internalType":"string","name":"coldkey","type":"string"},{"internalType":"uint256","name":"subnet","type":"uint256"},{"internalType":"uint256","name":"taoStaked","type":"uint256"},{"internalType":"uint256","name":"yumaScore","type":"uint256"},{"internalType":"uint256","name":"totalPredictions","type":"uint256"},{"internalType":"uint256","name":"successfulPredictions","type":"uint256"},{"internalType":"uint256","name":"transparencyBonus","type":"uint256"},{"internalType":"uint256","name":"totalRewards","type":"uint256"},{"internalType":"uint256","name":"unclaimedRewards","type":"uint256"},{"internalType":"bool","name":"isRegistered","type":"bool"},{"internalType":"bool","name":"isVerified","type":"bool"}],"stateMutability":"view","type":"function"},{"inputs":[],"name":"claimRewards","outputs":[],"stateMutability":"nonpayable","type":"function"},{"inputs":[],"name":"deposit","outputs":[],"stateMutability":"payable","type":"function"},{"inputs":[],"name":"distributeEpochRewards","outputs":[],"stateMutability":"nonpayable","type":"function"},{"inputs":[],"name":"emergencyWithdraw","outputs":[],"stateMutability":"nonpayable","type":"function"},{"inputs":[],"name":"epochDuration","outputs":[{"internalType":"uint256","name":"","type":"uint256"}],"stateMutability":"view","type":"function"},{"inputs":[],"name":"epochNumber","outputs":[{"internalType":"uint256","name":"","type":"uint256"}],"stateMutability":"view","type":"function"},{"inputs":[{"internalType":"address","name":"_agent","type":"address"}],"name":"getAgentStats","outputs":[{"internalType":"uint256","name":"totalPredictions","type":"uint256"},{"internalType":"uint256","name":"successfulPredictions","type":"uint256"},{"internalType":"uint256","name":"successRate","type":"uint256"},{"internalType":"uint256","name":"totalRewards","type":"uint256"},{"internalType":"uint256","name":"unclaimedRewards","type":"uint256"},{"internalType":"uint256","name":"currentScore","type":"uint256"}],"stateMutability":"view","type":"function"},{"inputs":[{"internalType":"string","name":"","type":"string"}],"name":"hotkeyToAddress","outputs":[{"internalType":"address","name":"","type":"address"}],"stateMutability":"view","type":"function"},{"inputs":[],"name":"lastEpochTime","outputs":[{"internalType":"uint256","name":"","type":"uint256"}],"stateMutability":"view","type":"function"},{"inputs":[],"name":"owner","outputs":[{"internalType":"address","name":"","type":"address"}],"stateMutability":"view","type":"function"},{"inputs":[{"internalType":"address","name":"_agent","type":"address"},{"internalType":"uint256","name":"_marketId","type":"uint256"},{"internalType":"uint256","name":"_submissionId","type":"uint256"},{"internalType":"bool","name":"_wasCorrect","type":"bool"},{"internalType":"uint256","name":"_levenshteinDistance","type":"uint256"}],"name":"recordPrediction","outputs":[],"stateMutability":"nonpayable","type":"function"},{"inputs":[{"internalType":"string","name":"_hotkey","type":"string"},{"internalType":"string","name":"_coldkey","type":"string"},{"internalType":"uint256","name":"_subnet","type":"uint256"}],"name":"registerAIAgent","outputs":[],"stateMutability":"nonpayable","type":"function"},{"inputs":[{"internalType":"uint256","name":"","type":"uint256"}],"name":"registeredAgents","outputs":[{"internalType":"address","name":"","type":"address"}],"stateMutability":"view","type":"function"},{"inputs":[],"name":"renounceOwnership","outputs":[],"stateMutability":"nonpayable","type":"function"},{"inputs":[{"internalType":"uint256","name":"","type":"uint256"}],"name":"subnetRewardMultipliers","outputs":[{"internalType":"uint256","name":"","type":"uint256"}],"stateMutability":"view","type":"function"},{"inputs":[],"name":"totalDistributed","outputs":[{"internalType":"uint256","name":"","type":"uint256"}],"stateMutability":"view","type":"function"},{"inputs":[],"name":"totalPoolBalance","outputs":[{"internalType":"uint256","name":"","type":"uint256"}],"stateMutability":"view","type":"function"},{"inputs":[{"internalType":"address","name":"newOwner","type":"address"}],"name":"transferOwnership","outputs":[],"stateMutability":"nonpayable","type":"function"},{"inputs":[{"internalType":"uint256","name":"_duration","type":"uint256"}],"name":"updateEpochDuration","outputs":[],"stateMutability":"nonpayable","type":"function"},{"inputs":[{"internalType":"uint256","name":"_subnet","type":"uint256"},{"internalType":"uint256","name":"_multiplier","type":"uint256"}],"name":"updateSubnetMultiplier","outputs":[],"stateMutability":"nonpayable","type":"function"},{"inputs":[{"internalType":"address","name":"_agent","type":"address"},{"internalType":"bool","name":"_openSourced","type":"bool"},{"internalType":"bool","name":"_architecturePublished","type":"bool"},{"internalType":"bool","name":"_reasoningExplained","type":"bool"},{"internalType":"bool","name":"_dataSourcesRevealed","type":"bool"}],"name":"updateTransparencyBonus","outputs":[],"stateMutability":"nonpayable","type":"function"},{"inputs":[{"internalType":"address","name":"_agent","type":"address"},{"internalType":"uint256","name":"_taoStaked","type":"uint256"},{"internalType":"uint256","name":"_yumaScore","type":"uint256"}],"name":"verifyAgent","outputs":[],"stateMutability":"nonpayable","type":"function"},{"stateMutability":"payable","type":"receive"}],"evm":{"bytecode":{"linkReferences":{},"object":"6080604090808252346100be5733156100a8575060008054336001600160a01b031982168117835583519360829390929091906001600160a01b03167f8be0079c531659141344cd1fd0a4f28419497f9722a3daafe3b4186f6b6457e08380a36001805562015180600a554260095560016008556001815260056020526064828220556002815260788282205560088152609682822055601281522055611ca790816100c48239f35b631e4fbdf760e01b815260006004820152602490fd5b600080fdfe6080604052600436101561002a575b361561001957600080fd5b61002534600654611928565b600655005b60003560e01c8062af450a1461120b57806310a3aa59146111ef5780631b85c87a146110235780632a5d2cd014610fac5780632c88554214610f90578063372500ab14610ec85780633b53d87a14610e9c5780634e2fa52914610e805780634ff0876a14610e625780635026d63e14610e4457806361b1d93114610e205780636c5f60fc14610d90578063715018a614610d3757806377bad62e14610c4057806389c614b814610c225780638da5cb5b14610bf95780639270c14c14610aa2578063a33ddd15146109fe578063a7bd211c146109bc578063b5695b381461086b578063c1c7d04f1461050d578063cdaa95e7146104f1578063d0e30db01461049b578063d773cdaa14610432578063d8f9723a14610303578063db2e21bc1461025e578063e0c2dd3914610242578063efca2eed14610224578063f2fde38b1461019b5763f4145a830361000e5734610196576000366003190112610196576020600854604051908152f35b600080fd5b34610196576020366003190112610196576101b46116cc565b6101bc611882565b6001600160a01b0390811690811561020b57600054826001600160601b0360a01b821617600055167f8be0079c531659141344cd1fd0a4f28419497f9722a3daafe3b4186f6b6457e0600080a3005b604051631e4fbdf760e01b815260006004820152602490fd5b34610196576000366003190112610196576020600754604051908152f35b3461019657600036600319011261019657602060405160288152f35b3461019657600036600319011261019657610277611882565b600080600b545b8083106102bf5761028f82476119a3565b8061029657005b600080546102bd928291829182916001600160a01b03165af16102b7611c03565b50611c33565b005b906102f66102fc916102d08561184b565b60018060a01b0391549060031b1c166000526002602052600a6040600020015490611928565b92611935565b919061027e565b346101965760603660031901126101965761031c6116cc565b6001600160a01b03166000818152600260205260409020600b0154602435906044359061034b9060ff166118eb565b68056bc75e2d6310000082106103f457606481116103ba577f511bf23703f5bf3448ee9dd5fd981f4acaeeca1b822346ba9f11aac763f7505091600b602092856000526002845260406000209083600483015560058201550161010061ff0019825416179055604051908152a2005b60405162461bcd60e51b8152602060048201526012602482015271496e76616c69642059756d612073636f726560701b6044820152606490fd5b60405162461bcd60e51b8152602060048201526016602482015275496e73756666696369656e742054414f207374616b6560501b6044820152606490fd5b346101965760203660031901126101965760043567ffffffffffffffff8111610196576104656020913690600401611685565b816104796040519283815193849201611803565b600490820190815281900382019020546040516001600160a01b039091168152f35b60003660031901126101965734156104b95761002534600654611928565b60405162461bcd60e51b815260206004820152601060248201526f09aeae6e840c8cae0dee6d2e8408aa8960831b6044820152606490fd5b3461019657600036600319011261019657602060405160148152f35b34610196576000366003190112610196576105266119b0565b610535600954600a5490611928565b421061083157600a6006540480156107ec57600090600b5461055681611964565b906105646040519283611647565b808252601f1961057382611964565b0136602084013760005b81811061077b575050826105fc575b50505061059a600854611935565b806008554260095560001981019081116105e65760407f67285f572f81b94b0b6f6b725355d7baa0f40769ee0fc01c6b23599cb3f28fc79160075482519182526020820152a160018055005b634e487b7160e01b600052601160045260246000fd5b60009260005b600b5481101561075157610616818461197c565b5161062a575b61062590611935565b610602565b6106338161184b565b905460039190911b1c6001600160a01b03166106628361065d610656858861197c565b5188611990565b611944565b95816000526002602052600860406000200154806106fe575b50907f53118bff2fb56701752f5bf54053d24fb83cec92f9f6ce664b90c38a2991caa460406106e8896106259695856000526002602052600a84600020016106c4838254611928565b9055856000526002602052600984600020016106e1838254611928565b9055611928565b9860085482519182526020820152a2905061061c565b60649793929197908101938482116105e6576106e87f53118bff2fb56701752f5bf54053d24fb83cec92f9f6ce664b90c38a2991caa49261074461062597604094611990565b049993949550505061067b565b505050506107709061076581600754611928565b6007556006546119a3565b60065580808061058c565b6107848161184b565b905460039190911b1c6001600160a01b03166000818152600260205260409020600b015460081c60ff166107c2575b506107bd90611935565b61057d565b6107bd91956107d36107e5926119d3565b90816107df898861197c565b52611928565b94906107b3565b60405162461bcd60e51b815260206004820152601860248201527f4e6f207265776172647320746f206469737472696275746500000000000000006044820152606490fd5b60405162461bcd60e51b815260206004820152601260248201527145706f6368206e6f7420636f6d706c65746560701b6044820152606490fd5b34610196576020366003190112610196576108846116cc565b60018060a01b03908181166000526002602052604060002091604051906108aa8261162a565b83541681526108bb6001840161175d565b60208201526108cc6002840161175d565b60408201526003830154606082015260048301546080820152600583015460a082015260068301549160c082019383855260078101549460e08401948686526008830154610100860152600983015494610120810195865261018060ff600b600a8701549661014085019788520154818116151561016085015260081c16151591015215156000146109ad576064860295808704606414901517156105e65761098b61097c60c097835190611944565b915b51955194519251936119d3565b93604051958652602086015260408501526060840152608083015260a0820152f35b60c0955061098b60009161097e565b3461019657602036600319011261019657600435600b54811015610196576109e560209161184b565b905460405160039290921b1c6001600160a01b03168152f35b3461019657604036600319011261019657602435600435610a1d611882565b80151580610a97575b610a2f906118ae565b603282101580610a8c575b15610a52576000526005602052604060002055600080f35b60405162461bcd60e51b815260206004820152601260248201527124b73b30b634b21036bab63a34b83634b2b960711b6044820152606490fd5b5060c8821115610a3a565b506032811115610a26565b346101965760a036600319011261019657610abb6116cc565b60243580151581036101965760443591821515830361019657610adc6116e2565b6084359182151583036101965760018060a01b031693846000526002602052610b0f60ff600b60406000200154166118eb565b600093610bf0575b610bde575b610bcc575b610baa575b603c8111610b6d5760207f65890276b704fde08138c223de04b7ed477c7c5dfc124bca173916295aa8f43791836000526002825280600860406000200155604051908152a2005b60405162461bcd60e51b8152602060048201526015602482015274426f6e75732065786365656473206d6178696d756d60581b6044820152606490fd5b600a810180911115610b2657634e487b7160e01b600052601160045260246000fd5b90600f81018091116105e65790610b21565b91600f81018091116105e65791610b1c565b60149350610b17565b34610196576000366003190112610196576000546040516001600160a01b039091168152602090f35b34610196576000366003190112610196576020600954604051908152f35b34610196576020366003190112610196576001600160a01b0380610c626116cc565b166000526002602052604060002090815416610c806001830161175d565b9160ff610c8f6002830161175d565b600383015492600481015460058201546006830154600784015490600885015492600986015494610cf0600b600a89015498015498610ce26040519e8f9e8f9081526101a0908160208201520190611826565b8d810360408f015290611826565b9960608c015260808b015260a08a015260c089015260e0880152610100870152610120860152610140850152818116151561016085015260081c1615156101808301520390f35b3461019657600036600319011261019657610d50611882565b600080546001600160a01b0319811682556001600160a01b03167f8be0079c531659141344cd1fd0a4f28419497f9722a3daafe3b4186f6b6457e08280a3005b3461019657604036600319011261019657610da96116cc565b6001600160a01b03166000908152600360205260409020805460243591908210156101965760c091610dda916116f1565b5080549060018101549060ff60028201541660038201549060056004840154930154936040519586526020860152151560408501526060840152608083015260a0820152f35b3461019657600036600319011261019657602060405168056bc75e2d631000008152f35b34610196576000366003190112610196576020600654604051908152f35b34610196576000366003190112610196576020600a54604051908152f35b34610196576000366003190112610196576020604051603c8152f35b346101965760203660031901126101965760043560005260056020526020604060002054604051908152f35b3461019657600036600319011261019657610ee16119b0565b336000526002602052600a6040600020610f0160ff600b830154166118eb565b018054908115610f555760009055610f23600080808085335af16102b7611c03565b6040519081527ffc30cddea38e2bf4d6ea7d3f9ed3b6ad7f176419f4963bd81318067a4aee73fe60203392a260018055005b60405162461bcd60e51b81526020600482015260136024820152724e6f207265776172647320746f20636c61696d60681b6044820152606490fd5b34610196576000366003190112610196576020604051600a8152f35b3461019657602036600319011261019657600435610fc8611882565b610e1081101580611016575b15610fde57600a55005b60405162461bcd60e51b815260206004820152601060248201526f24b73b30b634b210323ab930ba34b7b760811b6044820152606490fd5b5062278d00811115610fd4565b346101965760a03660031901126101965761103c6116cc565b602435906110486116e2565b9060018060a01b031691826000526020906002825260ff600b6040600020015460081c16156111b55783600052600282526040600020836006820161108d8154611935565b90556111a0575b5060405160c0810181811067ffffffffffffffff82111761118a57604052818152828101926044358452604082019415159182865260608101906084358252608081016000815260a0820190428252896000526003855260406000208054600160401b81101561118a5761110d916001820181556116f1565b949094611174577fc483ff57aa071bd9b1f3dbd4864bbdc47e5e4e1632d8858bdd78b6d65d245f5a99604099600595518755516001870155600286019051151560ff80198354169116179055516003850155516004840155519101558351928352820152a2005b634e487b7160e01b600052600060045260246000fd5b634e487b7160e01b600052604160045260246000fd5b6007016111ad8154611935565b905584611094565b60405162461bcd60e51b81526004810183905260126024820152711059d95b9d081b9bdd081d995c9a599a595960721b6044820152606490fd5b34610196576000366003190112610196576020604051601e8152f35b346101965760603660031901126101965760043567ffffffffffffffff81116101965761123c903690600401611685565b60243567ffffffffffffffff81116101965761125c903690600401611685565b33600052600260205260ff600b60406000200154166115f0578151156115ba576044351515806115ad575b611290906118ae565b336000526002602052604060002090336001600160601b0360a01b835416178255825167ffffffffffffffff811161118a576112cf6001840154611723565b601f8111611566575b50806020601f82116001146114f9576000916114ee575b508160011b916000199060031b1c19161760018301555b80519067ffffffffffffffff821161118a576113256002840154611723565b601f81116114a3575b50602090601f831160011461143257600b93929160009183611427575b50508160011b916000199060031b1c19161760028201555b604435600382015501600160ff19825416179055604051602081835161138c8183858801611803565b81016004815203019020336001600160601b0360a01b825416179055600b54600160401b81101561118a578060016113c79201600b5561184b565b81549060031b9033821b9160018060a01b03901b19161790557f333e76ba1c6bc36ce3dd2d9d2536c33df97758f5ad80cf9d5bad8798cdd25f4361141660405192604084526040840190611826565b9160443560208201528033930390a2005b01519050858061134b565b90601f198316916002850160005260206000209260005b81811061148b5750916001939185600b97969410611472575b505050811b016002820155611363565b015160001960f88460031b161c19169055858080611462565b92936020600181928786015181550195019301611449565b600284016000526020600020601f840160051c810191602085106114e4575b601f0160051c01905b8181106114d8575061132e565b600081556001016114cb565b90915081906114c2565b9050840151856112ef565b91506001840160005260206000206000925b601f198316841061154e576001935082601f19811610611535575b5050811b016001830155611306565b86015160001960f88460031b161c191690558580611526565b8681015182556020938401936001909201910161150b565b600184016000526020600020601f830160051c8101602084106115a6575b601f830160051c8201811061159a5750506112d8565b60008155600101611584565b5080611584565b5060326044351115611287565b60405162461bcd60e51b815260206004820152600e60248201526d496e76616c696420686f746b657960901b6044820152606490fd5b60405162461bcd60e51b8152602060048201526012602482015271105b1c9958591e481c9959da5cdd195c995960721b6044820152606490fd5b6101a0810190811067ffffffffffffffff82111761118a57604052565b90601f8019910116810190811067ffffffffffffffff82111761118a57604052565b67ffffffffffffffff811161118a57601f01601f191660200190565b81601f820112156101965780359061169c82611669565b926116aa6040519485611647565b8284526020838301011161019657816000926020809301838601378301015290565b600435906001600160a01b038216820361019657565b60643590811515820361019657565b805482101561170d576000526006602060002091020190600090565b634e487b7160e01b600052603260045260246000fd5b90600182811c92168015611753575b602083101461173d57565b634e487b7160e01b600052602260045260246000fd5b91607f1691611732565b906040519182600082549261177184611723565b9081845260019485811690816000146117e0575060011461179d575b505061179b92500383611647565b565b9093915060005260209081600020936000915b8183106117c857505061179b9350820101388061178d565b855488840185015294850194879450918301916117b0565b91505061179b94506020925060ff191682840152151560051b820101388061178d565b60005b8381106118165750506000910152565b8181015183820152602001611806565b9060209161183f81518092818552858086019101611803565b601f01601f1916010190565b600b5481101561170d57600b6000527f0175b7a638427703f0dbe7bb9bbf987a2551717b34e79f33b5b1008d1fa01db90190600090565b6000546001600160a01b0316330361189657565b60405163118cdaa760e01b8152336004820152602490fd5b156118b557565b60405162461bcd60e51b815260206004820152600e60248201526d125b9d985b1a59081cdd589b995d60921b6044820152606490fd5b156118f257565b60405162461bcd60e51b815260206004820152600e60248201526d139bdd081c9959da5cdd195c995960921b6044820152606490fd5b919082018092116105e657565b60001981146105e65760010190565b811561194e570490565b634e487b7160e01b600052601260045260246000fd5b67ffffffffffffffff811161118a5760051b60200190565b805182101561170d5760209160051b010190565b818102929181159184041417156105e657565b919082039182116105e657565b6002600154146119c1576002600155565b604051633ee5aeb560e01b8152600490fd5b6001600160a01b039081166000908152600260205260408082209051929091906119fc8461162a565b8254168352611a0d6001830161175d565b6020840152611a1e6002830161175d565b6040840152600382015491606084019283526004808201549160808601928352600581015460a0870190815260068201549660c08101978089526007840154918260e082015261018060ff600b60088801549761010085019889526009810154610120860152600a8101546101408601520154818116151561016085015260081c16151591015215611bf857606497888202918083048a1490151715611be55751611ac891611944565b935169021e19e0c9bab24000009081811115611bcd57505086905b51915187810290808204891490151715611bba57603c900493602881029080820460281490151715611bba57601e820291808304601e1490151715611bba5790611b2c91611928565b601482029180830460141490151715611ba75790611b4991611928565b90600a830292808404600a1490151715611b9457509184611b70604093611b889695611928565b049251815260056020522054908115611b8c57611990565b0490565b839150611990565b634e487b7160e01b845260119052602483fd5b634e487b7160e01b855260118352602485fd5b634e487b7160e01b865260118452602486fd5b888102908082048a1490151715611be5570490611ae3565b634e487b7160e01b875260118552602487fd5b505050505091505090565b3d15611c2e573d90611c1482611669565b91611c226040519384611647565b82523d6000602084013e565b606090565b15611c3a57565b60405162461bcd60e51b815260206004820152600f60248201526e151c985b9cd9995c8819985a5b1959608a1b6044820152606490fdfea26469706673582212202217f0b281cf667dfd8b75018964bb18361d9679f09a70901421eae56acbcb8864736f6c63430008140033","opcodes":"PUSH1 0x80 PUSH1 0x40 SWAP1 DUP1 DUP3 MSTORE CALLVALUE PUSH2 0xBE JUMPI CALLER ISZERO PUSH2 0xA8 JUMPI POP PUSH1 0x0 DUP1 SLOAD CALLER PUSH1 0x1 PUSH1 0x1 PUSH1 0xA0 SHL SUB NOT DUP3 AND DUP2 OR DUP4 SSTORE DUP4 MLOAD SWAP4 PUSH1 0x82 SWAP4 SWAP1 SWAP3 SWAP1 SWAP2 SWAP1 PUSH1 0x1 PUSH1 0x1 PUSH1 0xA0 SHL SUB AND PUSH32 0x8BE0079C531659141344CD1FD0A4F28419497F9722A3DAAFE3B4186F6B6457E0 DUP4 DUP1 LOG3 PUSH1 0x1 DUP1 SSTORE PUSH3 0x15180 PUSH1 0xA SSTORE TIMESTAMP PUSH1 0x9 SSTORE PUSH1 0x1 PUSH1 0x8 SSTORE PUSH1 0x1 DUP2 MSTORE PUSH1 0x5 PUSH1 0x20 MSTORE PUSH1 0x64 DUP3 DUP3 KECCAK256 SSTORE PUSH1 0x2 DUP2 MSTORE PUSH1 0x78 DUP3 DUP3 KECCAK256 SSTORE PUSH1 0x8 DUP2 MSTORE PUSH1 0x96 DUP3 DUP3 KECCAK256 SSTORE PUSH1 0x12 DUP2 MSTORE KECCAK256 SSTORE PUSH2 0x1CA7 SWAP1 DUP2 PUSH2 0xC4 DUP3 CODECOPY RETURN JUMPDEST PUSH4 0x1E4FBDF7 PUSH1 0xE0 SHL DUP2 MSTORE PUSH1 0x0 PUSH1 0x4 DUP3 ADD MSTORE PUSH1 0x24 SWAP1 REVERT JUMPDEST PUSH1 0x0 DUP1 REVERT INVALID PUSH1 0x80 PUSH1 0x40 MSTORE PUSH1 0x4 CALLDATASIZE LT ISZERO PUSH2 0x2A JUMPI JUMPDEST CALLDATASIZE ISZERO PUSH2 0x19 JUMPI PUSH1 0x0 DUP1 REVERT JUMPDEST PUSH2 0x25 CALLVALUE PUSH1 0x6 SLOAD PUSH2 0x1928 JUMP JUMPDEST PUSH1 0x6 SSTORE STOP JUMPDEST PUSH1 0x0 CALLDATALOAD PUSH1 0xE0 SHR DUP1 PUSH3 0xAF450A EQ PUSH2 0x120B JUMPI DUP1 PUSH4 0x10A3AA59 EQ PUSH2 0x11EF JUMPI DUP1 PUSH4 0x1B85C87A EQ PUSH2 0x1023 JUMPI DUP1 PUSH4 0x2A5D2CD0 EQ PUSH2 0xFAC JUMPI DUP1 PUSH4 0x2C885542 EQ PUSH2 0xF90 JUMPI DUP1 PUSH4 0x372500AB EQ PUSH2 0xEC8 JUMPI DUP1 PUSH4 0x3B53D87A EQ PUSH2 0xE9C JUMPI DUP1 PUSH4 0x4E2FA529 EQ PUSH2 0xE80 JUMPI DUP1 PUSH4 0x4FF0876A EQ PUSH2 0xE62 JUMPI DUP1 PUSH4 0x5026D63E EQ PUSH2 0xE44 JUMPI DUP1 PUSH4 0x61B1D931 EQ PUSH2 0xE20 JUMPI DUP1 PUSH4 0x6C5F60FC EQ PUSH2 0xD90 JUMPI DUP1 PUSH4 0x715018A6 EQ PUSH2 0xD37 JUMPI DUP1 PUSH4 0x77BAD62E EQ PUSH2 0xC40 JUMPI DUP1 PUSH4 0x89C614B8 EQ PUSH2 0xC22 JUMPI DUP1 PUSH4 0x8DA5CB5B EQ PUSH2 0xBF9 JUMPI DUP1 PUSH4 0x9270C14C EQ PUSH2 0xAA2 JUMPI DUP1 PUSH4 0xA33DDD15 EQ PUSH2 0x9FE JUMPI DUP1 PUSH4 0xA7BD211C EQ PUSH2 0x9BC JUMPI DUP1 PUSH4 0xB5695B38 EQ PUSH2 0x86B JUMPI DUP1 PUSH4 0xC1C7D04F EQ PUSH2 0x50D JUMPI DUP1 PUSH4 0xCDAA95E7 EQ PUSH2 0x4F1 JUMPI DUP1 PUSH4 0xD0E30DB0 EQ PUSH2 0x49B JUMPI DUP1 PUSH4 0xD773CDAA EQ PUSH2 0x432 JUMPI DUP1 PUSH4 0xD8F9723A EQ PUSH2 0x303 JUMPI DUP1 PUSH4 0xDB2E21BC EQ PUSH2 0x25E JUMPI DUP1 PUSH4 0xE0C2DD39 EQ PUSH2 0x242 JUMPI DUP1 PUSH4 0xEFCA2EED EQ PUSH2 0x224 JUMPI DUP1 PUSH4 0xF2FDE38B EQ PUSH2 0x19B JUMPI PUSH4 0xF4145A83 SUB PUSH2 0xE JUMPI CALLVALUE PUSH2 0x196 JUMPI PUSH1 0x0 CALLDATASIZE PUSH1 0x3 NOT ADD SLT PUSH2 0x196 JUMPI PUSH1 0x20 PUSH1 0x8 SLOAD PUSH1 0x40 MLOAD SWAP1 DUP2 MSTORE RETURN JUMPDEST PUSH1 0x0 DUP1 REVERT JUMPDEST CALLVALUE PUSH2 0x196 JUMPI PUSH1 0x20 CALLDATASIZE PUSH1 0x3 NOT ADD SLT PUSH2 0x196 JUMPI PUSH2 0x1B4 PUSH2 0x16CC JUMP JUMPDEST PUSH2 0x1BC PUSH2 0x1882 JUMP JUMPDEST PUSH1 0x1 PUSH1 0x1 PUSH1 0xA0 SHL SUB SWAP1 DUP2 AND SWAP1 DUP2 ISZERO PUSH2 0x20B JUMPI PUSH1 0x0 SLOAD DUP3 PUSH1 0x1 PUSH1 0x1 PUSH1 0x60 SHL SUB PUSH1 0xA0 SHL DUP3 AND OR PUSH1 0x0 SSTORE AND PUSH32 0x8BE0079C531659141344CD1FD0A4F28419497F9722A3DAAFE3B4186F6B6457E0 PUSH1 0x0 DUP1 LOG3 STOP JUMPDEST PUSH1 0x40 MLOAD PUSH4 0x1E4FBDF7 PUSH1 0xE0 SHL DUP2 MSTORE PUSH1 0x0 PUSH1 0x4 DUP3 ADD MSTORE PUSH1 0x24 SWAP1 REVERT JUMPDEST CALLVALUE PUSH2 0x196 JUMPI PUSH1 0x0 CALLDATASIZE PUSH1 0x3 NOT ADD SLT PUSH2 0x196 JUMPI PUSH1 0x20 PUSH1 0x7 SLOAD PUSH1 0x40 MLOAD SWAP1 DUP2 MSTORE RETURN JUMPDEST CALLVALUE PUSH2 0x196 JUMPI PUSH1 0x0 CALLDATASIZE PUSH1 0x3 NOT ADD SLT PUSH2 0x196 JUMPI PUSH1 0x20 PUSH1 0x40 MLOAD PUSH1 0x28 DUP2 MSTORE RETURN JUMPDEST CALLVALUE PUSH2 0x196 JUMPI PUSH1 0x0 CALLDATASIZE PUSH1 0x3 NOT ADD SLT PUSH2 0x196 JUMPI PUSH2 0x277 PUSH2 0x1882 JUMP JUMPDEST PUSH1 0x0 DUP1 PUSH1 0xB SLOAD JUMPDEST DUP1 DUP4 LT PUSH2 0x2BF JUMPI PUSH2 0x28F DUP3 SELFBALANCE PUSH2 0x19A3 JUMP JUMPDEST DUP1 PUSH2 0x296 JUMPI STOP JUMPDEST PUSH1 0x0 DUP1 SLOAD PUSH2 0x2BD SWAP3 DUP3 SWAP2 DUP3 SWAP2 DUP3 SWAP2 PUSH1 0x1 PUSH1 0x1 PUSH1 0xA0 SHL SUB AND GAS CALL PUSH2 0x2B7 PUSH2 0x1C03 JUMP JUMPDEST POP PUSH2 0x1C33 JUMP JUMPDEST STOP JUMPDEST SWAP1 PUSH2 0x2F6 PUSH2 0x2FC SWAP2 PUSH2 0x2D0 DUP6 PUSH2 0x184B JUMP JUMPDEST PUSH1 0x1 DUP1 PUSH1 0xA0 SHL SUB SWAP2 SLOAD SWAP1 PUSH1 0x3 SHL SHR AND PUSH1 0x0 MSTORE PUSH1 0x2 PUSH1 0x20 MSTORE PUSH1 0xA PUSH1 0x40 PUSH1 0x0 KECCAK256 ADD SLOAD SWAP1 PUSH2 0x1928 JUMP JUMPDEST SWAP3 PUSH2 0x1935 JUMP JUMPDEST SWAP2 SWAP1 PUSH2 0x27E JUMP JUMPDEST CALLVALUE PUSH2 0x196 JUMPI PUSH1 0x60 CALLDATASIZE PUSH1 0x3 NOT ADD SLT PUSH2 0x196 JUMPI PUSH2 0x31C PUSH2 0x16CC JUMP JUMPDEST PUSH1 0x1 PUSH1 0x1 PUSH1 0xA0 SHL SUB AND PUSH1 0x0 DUP2 DUP2 MSTORE PUSH1 0x2 PUSH1 0x20 MSTORE PUSH1 0x40 SWAP1 KECCAK256 PUSH1 0xB ADD SLOAD PUSH1 0x24 CALLDATALOAD SWAP1 PUSH1 0x44 CALLDATALOAD SWAP1 PUSH2 0x34B SWAP1 PUSH1 0xFF AND PUSH2 0x18EB JUMP JUMPDEST PUSH9 0x56BC75E2D63100000 DUP3 LT PUSH2 0x3F4 JUMPI PUSH1 0x64 DUP2 GT PUSH2 0x3BA JUMPI PUSH32 0x511BF23703F5BF3448EE9DD5FD981F4ACAEECA1B822346BA9F11AAC763F75050 SWAP2 PUSH1 0xB PUSH1 0x20 SWAP3 DUP6 PUSH1 0x0 MSTORE PUSH1 0x2 DUP5 MSTORE PUSH1 0x40 PUSH1 0x0 KECCAK256 SWAP1 DUP4 PUSH1 0x4 DUP4 ADD SSTORE PUSH1 0x5 DUP3 ADD SSTORE ADD PUSH2 0x100 PUSH2 0xFF00 NOT DUP3 SLOAD AND OR SWAP1 SSTORE PUSH1 0x40 MLOAD SWAP1 DUP2 MSTORE LOG2 STOP JUMPDEST PUSH1 0x40 MLOAD PUSH3 0x461BCD PUSH1 0xE5 SHL DUP2 MSTORE PUSH1 0x20 PUSH1 0x4 DUP3 ADD MSTORE PUSH1 0x12 PUSH1 0x24 DUP3 ADD MSTORE PUSH18 0x496E76616C69642059756D612073636F7265 PUSH1 0x70 SHL PUSH1 0x44 DUP3 ADD MSTORE PUSH1 0x64 SWAP1 REVERT JUMPDEST PUSH1 0x40 MLOAD PUSH3 0x461BCD PUSH1 0xE5 SHL DUP2 MSTORE PUSH1 0x20 PUSH1 0x4 DUP3 ADD MSTORE PUSH1 0x16 PUSH1 0x24 DUP3 ADD MSTORE PUSH22 0x496E73756666696369656E742054414F207374616B65 PUSH1 0x50 SHL PUSH1 0x44 DUP3 ADD MSTORE PUSH1 0x64 SWAP1 REVERT JUMPDEST CALLVALUE PUSH2 0x196 JUMPI PUSH1 0x20 CALLDATASIZE PUSH1 0x3 NOT ADD SLT PUSH2 0x196 JUMPI PUSH1 0x4 CALLDATALOAD PUSH8 0xFFFFFFFFFFFFFFFF DUP2 GT PUSH2 0x196 JUMPI PUSH2 0x465 PUSH1 0x20 SWAP2 CALLDATASIZE SWAP1 PUSH1 0x4 ADD PUSH2 0x1685 JUMP JUMPDEST DUP2 PUSH2 0x479 PUSH1 0x40 MLOAD SWAP3 DUP4 DUP2 MLOAD SWAP4 DUP5 SWAP3 ADD PUSH2 0x1803 JUMP JUMPDEST PUSH1 0x4 SWAP1 DUP3 ADD SWAP1 DUP2 MSTORE DUP2 SWAP1 SUB DUP3 ADD SWAP1 KECCAK256 SLOAD PUSH1 0x40 MLOAD PUSH1 0x1 PUSH1 0x1 PUSH1 0xA0 SHL SUB SWAP1 SWAP2 AND DUP2 MSTORE RETURN JUMPDEST PUSH1 0x0 CALLDATASIZE PUSH1 0x3 NOT ADD SLT PUSH2 0x196 JUMPI CALLVALUE ISZERO PUSH2 0x4B9 JUMPI PUSH2 0x25 CALLVALUE PUSH1 0x6 SLOAD PUSH2 0x1928 JUMP JUMPDEST PUSH1 0x40 MLOAD PUSH3 0x461BCD PUSH1 0xE5 SHL DUP2 MSTORE PUSH1 0x20 PUSH1 0x4 DUP3 ADD MSTORE PUSH1 0x10 PUSH1 0x24 DUP3 ADD MSTORE PUSH16 0x9AEAE6E840C8CAE0DEE6D2E8408AA89 PUSH1 0x83 SHL PUSH1 0x44 DUP3 ADD MSTORE PUSH1 0x64 SWAP1 REVERT JUMPDEST CALLVALUE PUSH2 0x196 JUMPI PUSH1 0x0 CALLDATASIZE PUSH1 0x3 NOT ADD SLT PUSH2 0x196 JUMPI PUSH1 0x20 PUSH1 0x40 MLOAD PUSH1 0x14 DUP2 MSTORE RETURN JUMPDEST CALLVALUE PUSH2 0x196 JUMPI PUSH1 0x0 CALLDATASIZE PUSH1 0x3 NOT ADD SLT PUSH2 0x196 JUMPI PUSH2 0x526 PUSH2 0x19B0 JUMP JUMPDEST PUSH2 0x535 PUSH1 0x9 SLOAD PUSH1 0xA SLOAD SWAP1 PUSH2 0x1928 JUMP JUMPDEST TIMESTAMP LT PUSH2 0x831 JUMPI PUSH1 0xA PUSH1 0x6 SLOAD DIV DUP1 ISZERO PUSH2 0x7EC JUMPI PUSH1 0x0 SWAP1 PUSH1 0xB SLOAD PUSH2 0x556 DUP2 PUSH2 0x1964 JUMP JUMPDEST SWAP1 PUSH2 0x564 PUSH1 0x40 MLOAD SWAP3 DUP4 PUSH2 0x1647 JUMP JUMPDEST DUP1 DUP3 MSTORE PUSH1 0x1F NOT PUSH2 0x573 DUP3 PUSH2 0x1964 JUMP JUMPDEST ADD CALLDATASIZE PUSH1 0x20 DUP5 ADD CALLDATACOPY PUSH1 0x0 JUMPDEST DUP2 DUP2 LT PUSH2 0x77B JUMPI POP POP DUP3 PUSH2 0x5FC JUMPI JUMPDEST POP POP POP PUSH2 0x59A PUSH1 0x8 SLOAD PUSH2 0x1935 JUMP JUMPDEST DUP1 PUSH1 0x8 SSTORE TIMESTAMP PUSH1 0x9 SSTORE PUSH1 0x0 NOT DUP2 ADD SWAP1 DUP2 GT PUSH2 0x5E6 JUMPI PUSH1 0x40 PUSH32 0x67285F572F81B94B0B6F6B725355D7BAA0F40769EE0FC01C6B23599CB3F28FC7 SWAP2 PUSH1 0x7 SLOAD DUP3 MLOAD SWAP2 DUP3 MSTORE PUSH1 0x20 DUP3 ADD MSTORE LOG1 PUSH1 0x1 DUP1 SSTORE STOP JUMPDEST PUSH4 0x4E487B71 PUSH1 0xE0 SHL PUSH1 0x0 MSTORE PUSH1 0x11 PUSH1 0x4 MSTORE PUSH1 0x24 PUSH1 0x0 REVERT JUMPDEST PUSH1 0x0 SWAP3 PUSH1 0x0 JUMPDEST PUSH1 0xB SLOAD DUP2 LT ISZERO PUSH2 0x751 JUMPI PUSH2 0x616 DUP2 DUP5 PUSH2 0x197C JUMP JUMPDEST MLOAD PUSH2 0x62A JUMPI JUMPDEST PUSH2 0x625 SWAP1 PUSH2 0x1935 JUMP JUMPDEST PUSH2 0x602 JUMP JUMPDEST PUSH2 0x633 DUP2 PUSH2 0x184B JUMP JUMPDEST SWAP1 SLOAD PUSH1 0x3 SWAP2 SWAP1 SWAP2 SHL SHR PUSH1 0x1 PUSH1 0x1 PUSH1 0xA0 SHL SUB AND PUSH2 0x662 DUP4 PUSH2 0x65D PUSH2 0x656 DUP6 DUP9 PUSH2 0x197C JUMP JUMPDEST MLOAD DUP9 PUSH2 0x1990 JUMP JUMPDEST PUSH2 0x1944 JUMP JUMPDEST SWAP6 DUP2 PUSH1 0x0 MSTORE PUSH1 0x2 PUSH1 0x20 MSTORE PUSH1 0x8 PUSH1 0x40 PUSH1 0x0 KECCAK256 ADD SLOAD DUP1 PUSH2 0x6FE JUMPI JUMPDEST POP SWAP1 PUSH32 0x53118BFF2FB56701752F5BF54053D24FB83CEC92F9F6CE664B90C38A2991CAA4 PUSH1 0x40 PUSH2 0x6E8 DUP10 PUSH2 0x625 SWAP7 SWAP6 DUP6 PUSH1 0x0 MSTORE PUSH1 0x2 PUSH1 0x20 MSTORE PUSH1 0xA DUP5 PUSH1 0x0 KECCAK256 ADD PUSH2 0x6C4 DUP4 DUP3 SLOAD PUSH2 0x1928 JUMP JUMPDEST SWAP1 SSTORE DUP6 PUSH1 0x0 MSTORE PUSH1 0x2 PUSH1 0x20 MSTORE PUSH1 0x9 DUP5 PUSH1 0x0 KECCAK256 ADD PUSH2 0x6E1 DUP4 DUP3 SLOAD PUSH2 0x1928 JUMP JUMPDEST SWAP1 SSTORE PUSH2 0x1928 JUMP JUMPDEST SWAP9 PUSH1 0x8 SLOAD DUP3 MLOAD SWAP2 DUP3 MSTORE PUSH1 0x20 DUP3 ADD MSTORE LOG2 SWAP1 POP PUSH2 0x61C JUMP JUMPDEST PUSH1 0x64 SWAP8 SWAP4 SWAP3 SWAP2 SWAP8 SWAP1 DUP2 ADD SWAP4 DUP5 DUP3 GT PUSH2 0x5E6 JUMPI PUSH2 0x6E8 PUSH32 0x53118BFF2FB56701752F5BF54053D24FB83CEC92F9F6CE664B90C38A2991CAA4 SWAP3 PUSH2 0x744 PUSH2 0x625 SWAP8 PUSH1 0x40 SWAP5 PUSH2 0x1990 JUMP JUMPDEST DIV SWAP10 SWAP4 SWAP5 SWAP6 POP POP POP PUSH2 0x67B JUMP JUMPDEST POP POP POP POP PUSH2 0x770 SWAP1 PUSH2 0x765 DUP2 PUSH1 0x7 SLOAD PUSH2 0x1928 JUMP JUMPDEST PUSH1 0x7 SSTORE PUSH1 0x6 SLOAD PUSH2 0x19A3 JUMP JUMPDEST PUSH1 0x6 SSTORE DUP1 DUP1 DUP1 PUSH2 0x58C JUMP JUMPDEST PUSH2 0x784 DUP2 PUSH2 0x184B JUMP JUMPDEST SWAP1 SLOAD PUSH1 0x3 SWAP2 SWAP1 SWAP2 SHL SHR PUSH1 0x1 PUSH1 0x1 PUSH1 0xA0 SHL SUB AND PUSH1 0x0 DUP2 DUP2 MSTORE PUSH1 0x2 PUSH1 0x20 MSTORE PUSH1 0x40 SWAP1 KECCAK256 PUSH1 0xB ADD SLOAD PUSH1 0x8 SHR PUSH1 0xFF AND PUSH2 0x7C2 JUMPI JUMPDEST POP PUSH2 0x7BD SWAP1 PUSH2 0x1935 JUMP JUMPDEST PUSH2 0x57D JUMP JUMPDEST PUSH2 0x7BD SWAP2 SWAP6 PUSH2 0x7D3 PUSH2 0x7E5 SWAP3 PUSH2 0x19D3 JUMP JUMPDEST SWAP1 DUP2 PUSH2 0x7DF DUP10 DUP9 PUSH2 0x197C JUMP JUMPDEST MSTORE PUSH2 0x1928 JUMP JUMPDEST SWAP5 SWAP1 PUSH2 0x7B3 JUMP JUMPDEST PUSH1 0x40 MLOAD PUSH3 0x461BCD PUSH1 0xE5 SHL DUP2 MSTORE PUSH1 0x20 PUSH1 0x4 DUP3 ADD MSTORE PUSH1 0x18 PUSH1 0x24 DUP3 ADD MSTORE PUSH32 0x4E6F207265776172647320746F20646973747269627574650000000000000000 PUSH1 0x44 DUP3 ADD MSTORE PUSH1 0x64 SWAP1 REVERT JUMPDEST PUSH1 0x40 MLOAD PUSH3 0x461BCD PUSH1 0xE5 SHL DUP2 MSTORE PUSH1 0x20 PUSH1 0x4 DUP3 ADD MSTORE PUSH1 0x12 PUSH1 0x24 DUP3 ADD MSTORE PUSH18 0x45706F6368206E6F7420636F6D706C657465 PUSH1 0x70 SHL PUSH1 0x44 DUP3 ADD MSTORE PUSH1 0x64 SWAP1 REVERT JUMPDEST CALLVALUE PUSH2 0x196 JUMPI PUSH1 0x20 CALLDATASIZE PUSH1 0x3 NOT ADD SLT PUSH2 0x196 JUMPI PUSH2 0x884 PUSH2 0x16CC JUMP JUMPDEST PUSH1 0x1 DUP1 PUSH1 0xA0 SHL SUB SWAP1 DUP2 DUP2 AND PUSH1 0x0 MSTORE PUSH1 0x2 PUSH1 0x20 MSTORE PUSH1 0x40 PUSH1 0x0 KECCAK256 SWAP2 PUSH1 0x40 MLOAD SWAP1 PUSH2 0x8AA DUP3 PUSH2 0x162A JUMP JUMPDEST DUP4 SLOAD AND DUP2 MSTORE PUSH2 0x8BB PUSH1 0x1 DUP5 ADD PUSH2 0x175D JUMP JUMPDEST PUSH1 0x20 DUP3 ADD MSTORE PUSH2 0x8CC PUSH1 0x2 DUP5 ADD PUSH2 0x175D JUMP JUMPDEST PUSH1 0x40 DUP3 ADD MSTORE PUSH1 0x3 DUP4 ADD SLOAD PUSH1 0x60 DUP3 ADD MSTORE PUSH1 0x4 DUP4 ADD SLOAD PUSH1 0x80 DUP3 ADD MSTORE PUSH1 0x5 DUP4 ADD SLOAD PUSH1 0xA0 DUP3 ADD MSTORE PUSH1 0x6 DUP4 ADD SLOAD SWAP2 PUSH1 0xC0 DUP3 ADD SWAP4 DUP4 DUP6 MSTORE PUSH1 0x7 DUP2 ADD SLOAD SWAP5 PUSH1 0xE0 DUP5 ADD SWAP5 DUP7 DUP7 MSTORE PUSH1 0x8 DUP4 ADD SLOAD PUSH2 0x100 DUP7 ADD MSTORE PUSH1 0x9 DUP4 ADD SLOAD SWAP5 PUSH2 0x120 DUP2 ADD SWAP6 DUP7 MSTORE PUSH2 0x180 PUSH1 0xFF PUSH1 0xB PUSH1 0xA DUP8 ADD SLOAD SWAP7 PUSH2 0x140 DUP6 ADD SWAP8 DUP9 MSTORE ADD SLOAD DUP2 DUP2 AND ISZERO ISZERO PUSH2 0x160 DUP6 ADD MSTORE PUSH1 0x8 SHR AND ISZERO ISZERO SWAP2 ADD MSTORE ISZERO ISZERO PUSH1 0x0 EQ PUSH2 0x9AD JUMPI PUSH1 0x64 DUP7 MUL SWAP6 DUP1 DUP8 DIV PUSH1 0x64 EQ SWAP1 ISZERO OR ISZERO PUSH2 0x5E6 JUMPI PUSH2 0x98B PUSH2 0x97C PUSH1 0xC0 SWAP8 DUP4 MLOAD SWAP1 PUSH2 0x1944 JUMP JUMPDEST SWAP2 JUMPDEST MLOAD SWAP6 MLOAD SWAP5 MLOAD SWAP3 MLOAD SWAP4 PUSH2 0x19D3 JUMP JUMPDEST SWAP4 PUSH1 0x40 MLOAD SWAP6 DUP7 MSTORE PUSH1 0x20 DUP7 ADD MSTORE PUSH1 0x40 DUP6 ADD MSTORE PUSH1 0x60 DUP5 ADD MSTORE PUSH1 0x80 DUP4 ADD MSTORE PUSH1 0xA0 DUP3 ADD MSTORE RETURN JUMPDEST PUSH1 0xC0 SWAP6 POP PUSH2 0x98B PUSH1 0x0 SWAP2 PUSH2 0x97E JUMP JUMPDEST CALLVALUE PUSH2 0x196 JUMPI PUSH1 0x20 CALLDATASIZE PUSH1 0x3 NOT ADD SLT PUSH2 0x196 JUMPI PUSH1 0x4 CALLDATALOAD PUSH1 0xB SLOAD DUP2 LT ISZERO PUSH2 0x196 JUMPI PUSH2 0x9E5 PUSH1 0x20 SWAP2 PUSH2 0x184B JUMP JUMPDEST SWAP1 SLOAD PUSH1 0x40 MLOAD PUSH1 0x3 SWAP3 SWAP1 SWAP3 SHL SHR PUSH1 0x1 PUSH1 0x1 PUSH1 0xA0 SHL SUB AND DUP2 MSTORE RETURN JUMPDEST CALLVALUE PUSH2 0x196 JUMPI PUSH1 0x40 CALLDATASIZE PUSH1 0x3 NOT ADD SLT PUSH2 0x196 JUMPI PUSH1 0x24 CALLDATALOAD PUSH1 0x4 CALLDATALOAD PUSH2 0xA1D PUSH2 0x1882 JUMP JUMPDEST DUP1 ISZERO ISZERO DUP1 PUSH2 0xA97 JUMPI JUMPDEST PUSH2 0xA2F SWAP1 PUSH2 0x18AE JUMP JUMPDEST PUSH1 0x32 DUP3 LT ISZERO DUP1 PUSH2 0xA8C JUMPI JUMPDEST ISZERO PUSH2 0xA52 JUMPI PUSH1 0x0 MSTORE PUSH1 0x5 PUSH1 0x20 MSTORE PUSH1 0x40 PUSH1 0x0 KECCAK256 SSTORE PUSH1 0x0 DUP1 RETURN JUMPDEST PUSH1 0x40 MLOAD PUSH3 0x461BCD PUSH1 0xE5 SHL DUP2 MSTORE PUSH1 0x20 PUSH1 0x4 DUP3 ADD MSTORE PUSH1 0x12 PUSH1 0x24 DUP3 ADD MSTORE PUSH18 0x24B73B30B634B21036BAB63A34B83634B2B9 PUSH1 0x71 SHL PUSH1 0x44 DUP3 ADD MSTORE PUSH1 0x64 SWAP1 REVERT JUMPDEST POP PUSH1 0xC8 DUP3 GT ISZERO PUSH2 0xA3A JUMP JUMPDEST POP PUSH1 0x32 DUP2 GT ISZERO PUSH2 0xA26 JUMP JUMPDEST CALLVALUE PUSH2 0x196 JUMPI PUSH1 0xA0 CALLDATASIZE PUSH1 0x3 NOT ADD SLT PUSH2 0x196 JUMPI PUSH2 0xABB PUSH2 0x16CC JUMP JUMPDEST PUSH1 0x24 CALLDATALOAD DUP1 ISZERO ISZERO DUP2 SUB PUSH2 0x196 JUMPI PUSH1 0x44 CALLDATALOAD SWAP2 DUP3 ISZERO ISZERO DUP4 SUB PUSH2 0x196 JUMPI PUSH2 0xADC PUSH2 0x16E2 JUMP JUMPDEST PUSH1 0x84 CALLDATALOAD SWAP2 DUP3 ISZERO ISZERO DUP4 SUB PUSH2 0x196 JUMPI PUSH1 0x1 DUP1 PUSH1 0xA0 SHL SUB AND SWAP4 DUP5 PUSH1 0x0 MSTORE PUSH1 0x2 PUSH1 0x20 MSTORE PUSH2 0xB0F PUSH1 0xFF PUSH1 0xB PUSH1 0x40 PUSH1 0x0 KECCAK256 ADD SLOAD AND PUSH2 0x18EB JUMP JUMPDEST PUSH1 0x0 SWAP4 PUSH2 0xBF0 JUMPI JUMPDEST PUSH2 0xBDE JUMPI JUMPDEST PUSH2 0xBCC JUMPI JUMPDEST PUSH2 0xBAA JUMPI JUMPDEST PUSH1 0x3C DUP2 GT PUSH2 0xB6D JUMPI PUSH1 0x20 PUSH32 0x65890276B704FDE08138C223DE04B7ED477C7C5DFC124BCA173916295AA8F437 SWAP2 DUP4 PUSH1 0x0 MSTORE PUSH1 0x2 DUP3 MSTORE DUP1 PUSH1 0x8 PUSH1 0x40 PUSH1 0x0 KECCAK256 ADD SSTORE PUSH1 0x40 MLOAD SWAP1 DUP2 MSTORE LOG2 STOP JUMPDEST PUSH1 0x40 MLOAD PUSH3 0x461BCD PUSH1 0xE5 SHL DUP2 MSTORE PUSH1 0x20 PUSH1 0x4 DUP3 ADD MSTORE PUSH1 0x15 PUSH1 0x24 DUP3 ADD MSTORE PUSH21 0x426F6E75732065786365656473206D6178696D756D PUSH1 0x58 SHL PUSH1 0x44 DUP3 ADD MSTORE PUSH1 0x64 SWAP1 REVERT JUMPDEST PUSH1 0xA DUP2 ADD DUP1 SWAP2 GT ISZERO PUSH2 0xB26 JUMPI PUSH4 0x4E487B71 PUSH1 0xE0 SHL PUSH1 0x0 MSTORE PUSH1 0x11 PUSH1 0x4 MSTORE PUSH1 0x24 PUSH1 0x0 REVERT JUMPDEST SWAP1 PUSH1 0xF DUP2 ADD DUP1 SWAP2 GT PUSH2 0x5E6 JUMPI SWAP1 PUSH2 0xB21 JUMP JUMPDEST SWAP2 PUSH1 0xF DUP2 ADD DUP1 SWAP2 GT PUSH2 0x5E6 JUMPI SWAP2 PUSH2 0xB1C JUMP JUMPDEST PUSH1 0x14 SWAP4 POP PUSH2 0xB17 JUMP JUMPDEST CALLVALUE PUSH2 0x196 JUMPI PUSH1 0x0 CALLDATASIZE PUSH1 0x3 NOT ADD SLT PUSH2 0x196 JUMPI PUSH1 0x0 SLOAD PUSH1 0x40 MLOAD PUSH1 0x1 PUSH1 0x1 PUSH1 0xA0 SHL SUB SWAP1 SWAP2 AND DUP2 MSTORE PUSH1 0x20 SWAP1 RETURN JUMPDEST CALLVALUE PUSH2 0x196 JUMPI PUSH1 0x0 CALLDATASIZE PUSH1 0x3 NOT ADD SLT PUSH2 0x196 JUMPI PUSH1 0x20 PUSH1 0x9 SLOAD PUSH1 0x40 MLOAD SWAP1 DUP2 MSTORE RETURN JUMPDEST CALLVALUE PUSH2 0x196 JUMPI PUSH1 0x20 CALLDATASIZE PUSH1 0x3 NOT ADD SLT PUSH2 0x196 JUMPI PUSH1 0x1 PUSH1 0x1 PUSH1 0xA0 SHL SUB DUP1 PUSH2 0xC62 PUSH2 0x16CC JUMP JUMPDEST AND PUSH1 0x0 MSTORE PUSH1 0x2 PUSH1 0x20 MSTORE PUSH1 0x40 PUSH1 0x0 KECCAK256 SWAP1 DUP2 SLOAD AND PUSH2 0xC80 PUSH1 0x1 DUP4 ADD PUSH2 0x175D JUMP JUMPDEST SWAP2 PUSH1 0xFF PUSH2 0xC8F PUSH1 0x2 DUP4 ADD PUSH2 0x175D JUMP JUMPDEST PUSH1 0x3 DUP4 ADD SLOAD SWAP3 PUSH1 0x4 DUP2 ADD SLOAD PUSH1 0x5 DUP3 ADD SLOAD PUSH1 0x6 DUP4 ADD SLOAD PUSH1 0x7 DUP5 ADD SLOAD SWAP1 PUSH1 0x8 DUP6 ADD SLOAD SWAP3 PUSH1 0x9 DUP7 ADD SLOAD SWAP5 PUSH2 0xCF0 PUSH1 0xB PUSH1 0xA DUP10 ADD SLOAD SWAP9 ADD SLOAD SWAP9 PUSH2 0xCE2 PUSH1 0x40 MLOAD SWAP15 DUP16 SWAP15 DUP16 SWAP1 DUP2 MSTORE PUSH2 0x1A0 SWAP1 DUP2 PUSH1 0x20 DUP3 ADD MSTORE ADD SWAP1 PUSH2 0x1826 JUMP JUMPDEST DUP14 DUP2 SUB PUSH1 0x40 DUP16 ADD MSTORE SWAP1 PUSH2 0x1826 JUMP JUMPDEST SWAP10 PUSH1 0x60 DUP13 ADD MSTORE PUSH1 0x80 DUP12 ADD MSTORE PUSH1 0xA0 DUP11 ADD MSTORE PUSH1 0xC0 DUP10 ADD MSTORE PUSH1 0xE0 DUP9 ADD MSTORE PUSH2 0x100 DUP8 ADD MSTORE PUSH2 0x120 DUP7 ADD MSTORE PUSH2 0x140 DUP6 ADD MSTORE DUP2 DUP2 AND ISZERO ISZERO PUSH2 0x160 DUP6 ADD MSTORE PUSH1 0x8 SHR AND ISZERO ISZERO PUSH2 0x180 DUP4 ADD MSTORE SUB SWAP1 RETURN JUMPDEST CALLVALUE PUSH2 0x196 JUMPI PUSH1 0x0 CALLDATASIZE PUSH1 0x3 NOT ADD SLT PUSH2 0x196 JUMPI PUSH2 0xD50 PUSH2 0x1882 JUMP JUMPDEST PUSH1 0x0 DUP1 SLOAD PUSH1 0x1 PUSH1 0x1 PUSH1 0xA0 SHL SUB NOT DUP2 AND DUP3 SSTORE PUSH1 0x1 PUSH1 0x1 PUSH1 0xA0 SHL SUB AND PUSH32 0x8BE0079C531659141344CD1FD0A4F28419497F9722A3DAAFE3B4186F6B6457E0 DUP3 DUP1 LOG3 STOP JUMPDEST CALLVALUE PUSH2 0x196 JUMPI PUSH1 0x40 CALLDATASIZE PUSH1 0x3 NOT ADD SLT PUSH2 0x196 JUMPI PUSH2 0xDA9 PUSH2 0x16CC JUMP JUMPDEST PUSH1 0x1 PUSH1 0x1 PUSH1 0xA0 SHL SUB AND PUSH1 0x0 SWAP1 DUP2 MSTORE PUSH1 0x3 PUSH1 0x20 MSTORE PUSH1 0x40 SWAP1 KECCAK256 DUP1 SLOAD PUSH1 0x24 CALLDATALOAD SWAP2 SWAP1 DUP3 LT ISZERO PUSH2 0x196 JUMPI PUSH1 0xC0 SWAP2 PUSH2 0xDDA SWAP2 PUSH2 0x16F1 JUMP JUMPDEST POP DUP1 SLOAD SWAP1 PUSH1 0x1 DUP2 ADD SLOAD SWAP1 PUSH1 0xFF PUSH1 0x2 DUP3 ADD SLOAD AND PUSH1 0x3 DUP3 ADD SLOAD SWAP1 PUSH1 0x5 PUSH1 0x4 DUP5 ADD SLOAD SWAP4 ADD SLOAD SWAP4 PUSH1 0x40 MLOAD SWAP6 DUP7 MSTORE PUSH1 0x20 DUP7 ADD MSTORE ISZERO ISZERO PUSH1 0x40 DUP6 ADD MSTORE PUSH1 0x60 DUP5 ADD MSTORE PUSH1 0x80 DUP4 ADD MSTORE PUSH1 0xA0 DUP3 ADD MSTORE RETURN JUMPDEST CALLVALUE PUSH2 0x196 JUMPI PUSH1 0x0 CALLDATASIZE PUSH1 0x3 NOT ADD SLT PUSH2 0x196 JUMPI PUSH1 0x20 PUSH1 0x40 MLOAD PUSH9 0x56BC75E2D63100000 DUP2 MSTORE RETURN JUMPDEST CALLVALUE PUSH2 0x196 JUMPI PUSH1 0x0 CALLDATASIZE PUSH1 0x3 NOT ADD SLT PUSH2 0x196 JUMPI PUSH1 0x20 PUSH1 0x6 SLOAD PUSH1 0x40 MLOAD SWAP1 DUP2 MSTORE RETURN JUMPDEST CALLVALUE PUSH2 0x196 JUMPI PUSH1 0x0 CALLDATASIZE PUSH1 0x3 NOT ADD SLT PUSH2 0x196 JUMPI PUSH1 0x20 PUSH1 0xA SLOAD PUSH1 0x40 MLOAD SWAP1 DUP2 MSTORE RETURN JUMPDEST CALLVALUE PUSH2 0x196 JUMPI PUSH1 0x0 CALLDATASIZE PUSH1 0x3 NOT ADD SLT PUSH2 0x196 JUMPI PUSH1 0x20 PUSH1 0x40 MLOAD PUSH1 0x3C DUP2 MSTORE RETURN JUMPDEST CALLVALUE PUSH2 0x196 JUMPI PUSH1 0x20 CALLDATASIZE PUSH1 0x3 NOT ADD SLT PUSH2 0x196 JUMPI PUSH1 0x4 CALLDATALOAD PUSH1 0x0 MSTORE PUSH1 0x5 PUSH1 0x20 MSTORE PUSH1 0x20 PUSH1 0x40 PUSH1 0x0 KECCAK256 SLOAD PUSH1 0x40 MLOAD SWAP1 DUP2 MSTORE RETURN JUMPDEST CALLVALUE PUSH2 0x196 JUMPI PUSH1 0x0 CALLDATASIZE PUSH1 0x3 NOT ADD SLT PUSH2 0x196 JUMPI PUSH2 0xEE1 PUSH2 0x19B0 JUMP JUMPDEST CALLER PUSH1 0x0 MSTORE PUSH1 0x2 PUSH1 0x20 MSTORE PUSH1 0xA PUSH1 0x40 PUSH1 0x0 KECCAK256 PUSH2 0xF01 PUSH1 0xFF PUSH1 0xB DUP4 ADD SLOAD AND PUSH2 0x18EB JUMP JUMPDEST ADD DUP1 SLOAD SWAP1 DUP2 ISZERO PUSH2 0xF55 JUMPI PUSH1 0x0 SWAP1 SSTORE PUSH2 0xF23 PUSH1 0x0 DUP1 DUP1 DUP1 DUP6 CALLER GAS CALL PUSH2 0x2B7 PUSH2 0x1C03 JUMP JUMPDEST PUSH1 0x40 MLOAD SWAP1 DUP2 MSTORE PUSH32 0xFC30CDDEA38E2BF4D6EA7D3F9ED3B6AD7F176419F4963BD81318067A4AEE73FE PUSH1 0x20 CALLER SWAP3 LOG2 PUSH1 0x1 DUP1 SSTORE STOP JUMPDEST PUSH1 0x40 MLOAD PUSH3 0x461BCD PUSH1 0xE5 SHL DUP2 MSTORE PUSH1 0x20 PUSH1 0x4 DUP3 ADD MSTORE PUSH1 0x13 PUSH1 0x24 DUP3 ADD MSTORE PUSH19 0x4E6F207265776172647320746F20636C61696D PUSH1 0x68 SHL PUSH1 0x44 DUP3 ADD MSTORE PUSH1 0x64 SWAP1 REVERT JUMPDEST CALLVALUE PUSH2 0x196 JUMPI PUSH1 0x0 CALLDATASIZE PUSH1 0x3 NOT ADD SLT PUSH2 0x196 JUMPI PUSH1 0x20 PUSH1 0x40 MLOAD PUSH1 0xA DUP2 MSTORE RETURN JUMPDEST CALLVALUE PUSH2 0x196 JUMPI PUSH1 0x20 CALLDATASIZE PUSH1 0x3 NOT ADD SLT PUSH2 0x196 JUMPI PUSH1 0x4 CALLDATALOAD PUSH2 0xFC8 PUSH2 0x1882 JUMP JUMPDEST PUSH2 0xE10 DUP2 LT ISZERO DUP1 PUSH2 0x1016 JUMPI JUMPDEST ISZERO PUSH2 0xFDE JUMPI PUSH1 0xA SSTORE STOP JUMPDEST PUSH1 0x40 MLOAD PUSH3 0x461BCD PUSH1 0xE5 SHL DUP2 MSTORE PUSH1 0x20 PUSH1 0x4 DUP3 ADD MSTORE PUSH1 0x10 PUSH1 0x24 DUP3 ADD MSTORE PUSH16 0x24B73B30B634B210323AB930BA34B7B7 PUSH1 0x81 SHL PUSH1 0x44 DUP3 ADD MSTORE PUSH1 0x64 SWAP1 REVERT JUMPDEST POP PUSH3 0x278D00 DUP2 GT ISZERO PUSH2 0xFD4 JUMP JUMPDEST CALLVALUE PUSH2 0x196 JUMPI PUSH1 0xA0 CALLDATASIZE PUSH1 0x3 NOT ADD SLT PUSH2 0x196 JUMPI PUSH2 0x103C PUSH2 0x16CC JUMP JUMPDEST PUSH1 0x24 CALLDATALOAD SWAP1 PUSH2 0x1048 PUSH2 0x16E2 JUMP JUMPDEST SWAP1 PUSH1 0x1 DUP1 PUSH1 0xA0 SHL SUB AND SWAP2 DUP3 PUSH1 0x0 MSTORE PUSH1 0x20 SWAP1 PUSH1 0x2 DUP3 MSTORE PUSH1 0xFF PUSH1 0xB PUSH1 0x40 PUSH1 0x0 KECCAK256 ADD SLOAD PUSH1 0x8 SHR AND ISZERO PUSH2 0x11B5 JUMPI DUP4 PUSH1 0x0 MSTORE PUSH1 0x2 DUP3 MSTORE PUSH1 0x40 PUSH1 0x0 KECCAK256 DUP4 PUSH1 0x6 DUP3 ADD PUSH2 0x108D DUP2 SLOAD PUSH2 0x1935 JUMP JUMPDEST SWAP1 SSTORE PUSH2 0x11A0 JUMPI JUMPDEST POP PUSH1 0x40 MLOAD PUSH1 0xC0 DUP2 ADD DUP2 DUP2 LT PUSH8 0xFFFFFFFFFFFFFFFF DUP3 GT OR PUSH2 0x118A JUMPI PUSH1 0x40 MSTORE DUP2 DUP2 MSTORE DUP3 DUP2 ADD SWAP3 PUSH1 0x44 CALLDATALOAD DUP5 MSTORE PUSH1 0x40 DUP3 ADD SWAP5 ISZERO ISZERO SWAP2 DUP3 DUP7 MSTORE PUSH1 0x60 DUP2 ADD SWAP1 PUSH1 0x84 CALLDATALOAD DUP3 MSTORE PUSH1 0x80 DUP2 ADD PUSH1 0x0 DUP2 MSTORE PUSH1 0xA0 DUP3 ADD SWAP1 TIMESTAMP DUP3 MSTORE DUP10 PUSH1 0x0 MSTORE PUSH1 0x3 DUP6 MSTORE PUSH1 0x40 PUSH1 0x0 KECCAK256 DUP1 SLOAD PUSH1 0x1 PUSH1 0x40 SHL DUP2 LT ISZERO PUSH2 0x118A JUMPI PUSH2 0x110D SWAP2 PUSH1 0x1 DUP3 ADD DUP2 SSTORE PUSH2 0x16F1 JUMP JUMPDEST SWAP5 SWAP1 SWAP5 PUSH2 0x1174 JUMPI PUSH32 0xC483FF57AA071BD9B1F3DBD4864BBDC47E5E4E1632D8858BDD78B6D65D245F5A SWAP10 PUSH1 0x40 SWAP10 PUSH1 0x5 SWAP6 MLOAD DUP8 SSTORE MLOAD PUSH1 0x1 DUP8 ADD SSTORE PUSH1 0x2 DUP7 ADD SWAP1 MLOAD ISZERO ISZERO PUSH1 0xFF DUP1 NOT DUP4 SLOAD AND SWAP2 AND OR SWAP1 SSTORE MLOAD PUSH1 0x3 DUP6 ADD SSTORE MLOAD PUSH1 0x4 DUP5 ADD SSTORE MLOAD SWAP2 ADD SSTORE DUP4 MLOAD SWAP3 DUP4 MSTORE DUP3 ADD MSTORE LOG2 STOP JUMPDEST PUSH4 0x4E487B71 PUSH1 0xE0 SHL PUSH1 0x0 MSTORE PUSH1 0x0 PUSH1 0x4 MSTORE PUSH1 0x24 PUSH1 0x0 REVERT JUMPDEST PUSH4 0x4E487B71 PUSH1 0xE0 SHL PUSH1 0x0 MSTORE PUSH1 0x41 PUSH1 0x4 MSTORE PUSH1 0x24 PUSH1 0x0 REVERT JUMPDEST PUSH1 0x7 ADD PUSH2 0x11AD DUP2 SLOAD PUSH2 0x1935 JUMP JUMPDEST SWAP1 SSTORE DUP5 PUSH2 0x1094 JUMP JUMPDEST PUSH1 0x40 MLOAD PUSH3 0x461BCD PUSH1 0xE5 SHL DUP2 MSTORE PUSH1 0x4 DUP2 ADD DUP4 SWAP1 MSTORE PUSH1 0x12 PUSH1 0x24 DUP3 ADD MSTORE PUSH18 0x1059D95B9D081B9BDD081D995C9A599A5959 PUSH1 0x72 SHL PUSH1 0x44 DUP3 ADD MSTORE PUSH1 0x64 SWAP1 REVERT JUMPDEST CALLVALUE PUSH2 0x196 JUMPI PUSH1 0x0 CALLDATASIZE PUSH1 0x3 NOT ADD SLT PUSH2 0x196 JUMPI PUSH1 0x20 PUSH1 0x40 MLOAD PUSH1 0x1E DUP2 MSTORE RETURN JUMPDEST CALLVALUE PUSH2 0x196 JUMPI PUSH1 0x60 CALLDATASIZE PUSH1 0x3 NOT ADD SLT PUSH2 0x196 JUMPI PUSH1 0x4 CALLDATALOAD PUSH8 0xFFFFFFFFFFFFFFFF DUP2 GT PUSH2 0x196 JUMPI PUSH2 0x123C SWAP1 CALLDATASIZE SWAP1 PUSH1 0x4 ADD PUSH2 0x1685 JUMP JUMPDEST PUSH1 0x24 CALLDATALOAD PUSH8 0xFFFFFFFFFFFFFFFF DUP2 GT PUSH2 0x196 JUMPI PUSH2 0x125C SWAP1 CALLDATASIZE SWAP1 PUSH1 0x4 ADD PUSH2 0x1685 JUMP JUMPDEST CALLER PUSH1 0x0 MSTORE PUSH1 0x2 PUSH1 0x20 MSTORE PUSH1 0xFF PUSH1 0xB PUSH1 0x40 PUSH1 0x0 KECCAK256 ADD SLOAD AND PUSH2 0x15F0 JUMPI DUP2 MLOAD ISZERO PUSH2 0x15BA JUMPI PUSH1 0x44 CALLDATALOAD ISZERO ISZERO DUP1 PUSH2 0x15AD JUMPI JUMPDEST PUSH2 0x1290 SWAP1 PUSH2 0x18AE JUMP JUMPDEST CALLER PUSH1 0x0 MSTORE PUSH1 0x2 PUSH1 0x20 MSTORE PUSH1 0x40 PUSH1 0x0 KECCAK256 SWAP1 CALLER PUSH1 0x1 PUSH1 0x1 PUSH1 0x60 SHL SUB PUSH1 0xA0 SHL DUP4 SLOAD AND OR DUP3 SSTORE DUP3 MLOAD PUSH8 0xFFFFFFFFFFFFFFFF DUP2 GT PUSH2 0x118A JUMPI PUSH2 0x12CF PUSH1 0x1 DUP5 ADD SLOAD PUSH2 0x1723 JUMP JUMPDEST PUSH1 0x1F DUP2 GT PUSH2 0x1566 JUMPI JUMPDEST POP DUP1 PUSH1 0x20 PUSH1 0x1F DUP3 GT PUSH1 0x1 EQ PUSH2 0x14F9 JUMPI PUSH1 0x0 SWAP2 PUSH2 0x14EE JUMPI JUMPDEST POP DUP2 PUSH1 0x1 SHL SWAP2 PUSH1 0x0 NOT SWAP1 PUSH1 0x3 SHL SHR NOT AND OR PUSH1 0x1 DUP4 ADD SSTORE JUMPDEST DUP1 MLOAD SWAP1 PUSH8 0xFFFFFFFFFFFFFFFF DUP3 GT PUSH2 0x118A JUMPI PUSH2 0x1325 PUSH1 0x2 DUP5 ADD SLOAD PUSH2 0x1723 JUMP JUMPDEST PUSH1 0x1F DUP2 GT PUSH2 0x14A3 JUMPI JUMPDEST POP PUSH1 0x20 SWAP1 PUSH1 0x1F DUP4 GT PUSH1 0x1 EQ PUSH2 0x1432 JUMPI PUSH1 0xB SWAP4 SWAP3 SWAP2 PUSH1 0x0 SWAP2 DUP4 PUSH2 0x1427 JUMPI JUMPDEST POP POP DUP2 PUSH1 0x1 SHL SWAP2 PUSH1 0x0 NOT SWAP1 PUSH1 0x3 SHL SHR NOT AND OR PUSH1 0x2 DUP3 ADD SSTORE JUMPDEST PUSH1 0x44 CALLDATALOAD PUSH1 0x3 DUP3 ADD SSTORE ADD PUSH1 0x1 PUSH1 0xFF NOT DUP3 SLOAD AND OR SWAP1 SSTORE PUSH1 0x40 MLOAD PUSH1 0x20 DUP2 DUP4 MLOAD PUSH2 0x138C DUP2 DUP4 DUP6 DUP9 ADD PUSH2 0x1803 JUMP JUMPDEST DUP2 ADD PUSH1 0x4 DUP2 MSTORE SUB ADD SWAP1 KECCAK256 CALLER PUSH1 0x1 PUSH1 0x1 PUSH1 0x60 SHL SUB PUSH1 0xA0 SHL DUP3 SLOAD AND OR SWAP1 SSTORE PUSH1 0xB SLOAD PUSH1 0x1 PUSH1 0x40 SHL DUP2 LT ISZERO PUSH2 0x118A JUMPI DUP1 PUSH1 0x1 PUSH2 0x13C7 SWAP3 ADD PUSH1 0xB SSTORE PUSH2 0x184B JUMP JUMPDEST DUP2 SLOAD SWAP1 PUSH1 0x3 SHL SWAP1 CALLER DUP3 SHL SWAP2 PUSH1 0x1 DUP1 PUSH1 0xA0 SHL SUB SWAP1 SHL NOT AND OR SWAP1 SSTORE PUSH32 0x333E76BA1C6BC36CE3DD2D9D2536C33DF97758F5AD80CF9D5BAD8798CDD25F43 PUSH2 0x1416 PUSH1 0x40 MLOAD SWAP3 PUSH1 0x40 DUP5 MSTORE PUSH1 0x40 DUP5 ADD SWAP1 PUSH2 0x1826 JUMP JUMPDEST SWAP2 PUSH1 0x44 CALLDATALOAD PUSH1 0x20 DUP3 ADD MSTORE DUP1 CALLER SWAP4 SUB SWAP1 LOG2 STOP JUMPDEST ADD MLOAD SWAP1 POP DUP6 DUP1 PUSH2 0x134B JUMP JUMPDEST SWAP1 PUSH1 0x1F NOT DUP4 AND SWAP2 PUSH1 0x2 DUP6 ADD PUSH1 0x0 MSTORE PUSH1 0x20 PUSH1 0x0 KECCAK256 SWAP3 PUSH1 0x0 JUMPDEST DUP2 DUP2 LT PUSH2 0x148B JUMPI POP SWAP2 PUSH1 0x1 SWAP4 SWAP2 DUP6 PUSH1 0xB SWAP8 SWAP7 SWAP5 LT PUSH2 0x1472 JUMPI JUMPDEST POP POP POP DUP2 SHL ADD PUSH1 0x2 DUP3 ADD SSTORE PUSH2 0x1363 JUMP JUMPDEST ADD MLOAD PUSH1 0x0 NOT PUSH1 0xF8 DUP5 PUSH1 0x3 SHL AND SHR NOT AND SWAP1 SSTORE DUP6 DUP1 DUP1 PUSH2 0x1462 JUMP JUMPDEST SWAP3 SWAP4 PUSH1 0x20 PUSH1 0x1 DUP2 SWAP3 DUP8 DUP7 ADD MLOAD DUP2 SSTORE ADD SWAP6 ADD SWAP4 ADD PUSH2 0x1449 JUMP JUMPDEST PUSH1 0x2 DUP5 ADD PUSH1 0x0 MSTORE PUSH1 0x20 PUSH1 0x0 KECCAK256 PUSH1 0x1F DUP5 ADD PUSH1 0x5 SHR DUP2 ADD SWAP2 PUSH1 0x20 DUP6 LT PUSH2 0x14E4 JUMPI JUMPDEST PUSH1 0x1F ADD PUSH1 0x5 SHR ADD SWAP1 JUMPDEST DUP2 DUP2 LT PUSH2 0x14D8 JUMPI POP PUSH2 0x132E JUMP JUMPDEST PUSH1 0x0 DUP2 SSTORE PUSH1 0x1 ADD PUSH2 0x14CB JUMP JUMPDEST SWAP1 SWAP2 POP DUP2 SWAP1 PUSH2 0x14C2 JUMP JUMPDEST SWAP1 POP DUP5 ADD MLOAD DUP6 PUSH2 0x12EF JUMP JUMPDEST SWAP2 POP PUSH1 0x1 DUP5 ADD PUSH1 0x0 MSTORE PUSH1 0x20 PUSH1 0x0 KECCAK256 PUSH1 0x0 SWAP3 JUMPDEST PUSH1 0x1F NOT DUP4 AND DUP5 LT PUSH2 0x154E JUMPI PUSH1 0x1 SWAP4 POP DUP3 PUSH1 0x1F NOT DUP2 AND LT PUSH2 0x1535 JUMPI JUMPDEST POP POP DUP2 SHL ADD PUSH1 0x1 DUP4 ADD SSTORE PUSH2 0x1306 JUMP JUMPDEST DUP7 ADD MLOAD PUSH1 0x0 NOT PUSH1 0xF8 DUP5 PUSH1 0x3 SHL AND SHR NOT AND SWAP1 SSTORE DUP6 DUP1 PUSH2 0x1526 JUMP JUMPDEST DUP7 DUP2 ADD MLOAD DUP3 SSTORE PUSH1 0x20 SWAP4 DUP5 ADD SWAP4 PUSH1 0x1 SWAP1 SWAP3 ADD SWAP2 ADD PUSH2 0x150B JUMP JUMPDEST PUSH1 0x1 DUP5 ADD PUSH1 0x0 MSTORE PUSH1 0x20 PUSH1 0x0 KECCAK256 PUSH1 0x1F DUP4 ADD PUSH1 0x5 SHR DUP2 ADD PUSH1 0x20 DUP5 LT PUSH2 0x15A6 JUMPI JUMPDEST PUSH1 0x1F DUP4 ADD PUSH1 0x5 SHR DUP3 ADD DUP2 LT PUSH2 0x159A JUMPI POP POP PUSH2 0x12D8 JUMP JUMPDEST PUSH1 0x0 DUP2 SSTORE PUSH1 0x1 ADD PUSH2 0x1584 JUMP JUMPDEST POP DUP1 PUSH2 0x1584 JUMP JUMPDEST POP PUSH1 0x32 PUSH1 0x44 CALLDATALOAD GT ISZERO PUSH2 0x1287 JUMP JUMPDEST PUSH1 0x40 MLOAD PUSH3 0x461BCD PUSH1 0xE5 SHL DUP2 MSTORE PUSH1 0x20 PUSH1 0x4 DUP3 ADD MSTORE PUSH1 0xE PUSH1 0x24 DUP3 ADD MSTORE PUSH14 0x496E76616C696420686F746B6579 PUSH1 0x90 SHL PUSH1 0x44 DUP3 ADD MSTORE PUSH1 0x64 SWAP1 REVERT JUMPDEST PUSH1 0x40 MLOAD PUSH3 0x461BCD PUSH1 0xE5 SHL DUP2 MSTORE PUSH1 0x20 PUSH1 0x4 DUP3 ADD MSTORE PUSH1 0x12 PUSH1 0x24 DUP3 ADD MSTORE PUSH18 0x105B1C9958591E481C9959DA5CDD195C9959 PUSH1 0x72 SHL PUSH1 0x44 DUP3 ADD MSTORE PUSH1 0x64 SWAP1 REVERT JUMPDEST PUSH2 0x1A0 DUP2 ADD SWAP1 DUP2 LT PUSH8 0xFFFFFFFFFFFFFFFF DUP3 GT OR PUSH2 0x118A JUMPI PUSH1 0x40 MSTORE JUMP JUMPDEST SWAP1 PUSH1 0x1F DUP1 NOT SWAP2 ADD AND DUP2 ADD SWAP1 DUP2 LT PUSH8 0xFFFFFFFFFFFFFFFF DUP3 GT OR PUSH2 0x118A JUMPI PUSH1 0x40 MSTORE JUMP JUMPDEST PUSH8 0xFFFFFFFFFFFFFFFF DUP2 GT PUSH2 0x118A JUMPI PUSH1 0x1F ADD PUSH1 0x1F NOT AND PUSH1 0x20 ADD SWAP1 JUMP JUMPDEST DUP2 PUSH1 0x1F DUP3 ADD SLT ISZERO PUSH2 0x196 JUMPI DUP1 CALLDATALOAD SWAP1 PUSH2 0x169C DUP3 PUSH2 0x1669 JUMP JUMPDEST SWAP3 PUSH2 0x16AA PUSH1 0x40 MLOAD SWAP5 DUP6 PUSH2 0x1647 JUMP JUMPDEST DUP3 DUP5 MSTORE PUSH1 0x20 DUP4 DUP4 ADD ADD GT PUSH2 0x196 JUMPI DUP2 PUSH1 0x0 SWAP3 PUSH1 0x20 DUP1 SWAP4 ADD DUP4 DUP7 ADD CALLDATACOPY DUP4 ADD ADD MSTORE SWAP1 JUMP JUMPDEST PUSH1 0x4 CALLDATALOAD SWAP1 PUSH1 0x1 PUSH1 0x1 PUSH1 0xA0 SHL SUB DUP3 AND DUP3 SUB PUSH2 0x196 JUMPI JUMP JUMPDEST PUSH1 0x64 CALLDATALOAD SWAP1 DUP2 ISZERO ISZERO DUP3 SUB PUSH2 0x196 JUMPI JUMP JUMPDEST DUP1 SLOAD DUP3 LT ISZERO PUSH2 0x170D JUMPI PUSH1 0x0 MSTORE PUSH1 0x6 PUSH1 0x20 PUSH1 0x0 KECCAK256 SWAP2 MUL ADD SWAP1 PUSH1 0x0 SWAP1 JUMP JUMPDEST PUSH4 0x4E487B71 PUSH1 0xE0 SHL PUSH1 0x0 MSTORE PUSH1 0x32 PUSH1 0x4 MSTORE PUSH1 0x24 PUSH1 0x0 REVERT JUMPDEST SWAP1 PUSH1 0x1 DUP3 DUP2 SHR SWAP3 AND DUP1 ISZERO PUSH2 0x1753 JUMPI JUMPDEST PUSH1 0x20 DUP4 LT EQ PUSH2 0x173D JUMPI JUMP JUMPDEST PUSH4 0x4E487B71 PUSH1 0xE0 SHL PUSH1 0x0 MSTORE PUSH1 0x22 PUSH1 0x4 MSTORE PUSH1 0x24 PUSH1 0x0 REVERT JUMPDEST SWAP2 PUSH1 0x7F AND SWAP2 PUSH2 0x1732 JUMP JUMPDEST SWAP1 PUSH1 0x40 MLOAD SWAP2 DUP3 PUSH1 0x0 DUP3 SLOAD SWAP3 PUSH2 0x1771 DUP5 PUSH2 0x1723 JUMP JUMPDEST SWAP1 DUP2 DUP5 MSTORE PUSH1 0x1 SWAP5 DUP6 DUP2 AND SWAP1 DUP2 PUSH1 0x0 EQ PUSH2 0x17E0 JUMPI POP PUSH1 0x1 EQ PUSH2 0x179D JUMPI JUMPDEST POP POP PUSH2 0x179B SWAP3 POP SUB DUP4 PUSH2 0x1647 JUMP JUMPDEST JUMP JUMPDEST SWAP1 SWAP4 SWAP2 POP PUSH1 0x0 MSTORE PUSH1 0x20 SWAP1 DUP2 PUSH1 0x0 KECCAK256 SWAP4 PUSH1 0x0 SWAP2 JUMPDEST DUP2 DUP4 LT PUSH2 0x17C8 JUMPI POP POP PUSH2 0x179B SWAP4 POP DUP3 ADD ADD CODESIZE DUP1 PUSH2 0x178D JUMP JUMPDEST DUP6 SLOAD DUP9 DUP5 ADD DUP6 ADD MSTORE SWAP5 DUP6 ADD SWAP5 DUP8 SWAP5 POP SWAP2 DUP4 ADD SWAP2 PUSH2 0x17B0 JUMP JUMPDEST SWAP2 POP POP PUSH2 0x179B SWAP5 POP PUSH1 0x20 SWAP3 POP PUSH1 0xFF NOT AND DUP3 DUP5 ADD MSTORE ISZERO ISZERO PUSH1 0x5 SHL DUP3 ADD ADD CODESIZE DUP1 PUSH2 0x178D JUMP JUMPDEST PUSH1 0x0 JUMPDEST DUP4 DUP2 LT PUSH2 0x1816 JUMPI POP POP PUSH1 0x0 SWAP2 ADD MSTORE JUMP JUMPDEST DUP2 DUP2 ADD MLOAD DUP4 DUP3 ADD MSTORE PUSH1 0x20 ADD PUSH2 0x1806 JUMP JUMPDEST SWAP1 PUSH1 0x20 SWAP2 PUSH2 0x183F DUP2 MLOAD DUP1 SWAP3 DUP2 DUP6 MSTORE DUP6 DUP1 DUP7 ADD SWAP2 ADD PUSH2 0x1803 JUMP JUMPDEST PUSH1 0x1F ADD PUSH1 0x1F NOT AND ADD ADD SWAP1 JUMP JUMPDEST PUSH1 0xB SLOAD DUP2 LT ISZERO PUSH2 0x170D JUMPI PUSH1 0xB PUSH1 0x0 MSTORE PUSH32 0x175B7A638427703F0DBE7BB9BBF987A2551717B34E79F33B5B1008D1FA01DB9 ADD SWAP1 PUSH1 0x0 SWAP1 JUMP JUMPDEST PUSH1 0x0 SLOAD PUSH1 0x1 PUSH1 0x1 PUSH1 0xA0 SHL SUB AND CALLER SUB PUSH2 0x1896 JUMPI JUMP JUMPDEST PUSH1 0x40 MLOAD PUSH4 0x118CDAA7 PUSH1 0xE0 SHL DUP2 MSTORE CALLER PUSH1 0x4 DUP3 ADD MSTORE PUSH1 0x24 SWAP1 REVERT JUMPDEST ISZERO PUSH2 0x18B5 JUMPI JUMP JUMPDEST PUSH1 0x40 MLOAD PUSH3 0x461BCD PUSH1 0xE5 SHL DUP2 MSTORE PUSH1 0x20 PUSH1 0x4 DUP3 ADD MSTORE PUSH1 0xE PUSH1 0x24 DUP3 ADD MSTORE PUSH14 0x125B9D985B1A59081CDD589B995D PUSH1 0x92 SHL PUSH1 0x44 DUP3 ADD MSTORE PUSH1 0x64 SWAP1 REVERT JUMPDEST ISZERO PUSH2 0x18F2 JUMPI JUMP JUMPDEST PUSH1 0x40 MLOAD PUSH3 0x461BCD PUSH1 0xE5 SHL DUP2 MSTORE PUSH1 0x20 PUSH1 0x4 DUP3 ADD MSTORE PUSH1 0xE PUSH1 0x24 DUP3 ADD MSTORE PUSH14 0x139BDD081C9959DA5CDD195C9959 PUSH1 0x92 SHL PUSH1 0x44 DUP3 ADD MSTORE PUSH1 0x64 SWAP1 REVERT JUMPDEST SWAP2 SWAP1 DUP3 ADD DUP1 SWAP3 GT PUSH2 0x5E6 JUMPI JUMP JUMPDEST PUSH1 0x0 NOT DUP2 EQ PUSH2 0x5E6 JUMPI PUSH1 0x1 ADD SWAP1 JUMP JUMPDEST DUP2 ISZERO PUSH2 0x194E JUMPI DIV SWAP1 JUMP JUMPDEST PUSH4 0x4E487B71 PUSH1 0xE0 SHL PUSH1 0x0 MSTORE PUSH1 0x12 PUSH1 0x4 MSTORE PUSH1 0x24 PUSH1 0x0 REVERT JUMPDEST PUSH8 0xFFFFFFFFFFFFFFFF DUP2 GT PUSH2 0x118A JUMPI PUSH1 0x5 SHL PUSH1 0x20 ADD SWAP1 JUMP JUMPDEST DUP1 MLOAD DUP3 LT ISZERO PUSH2 0x170D JUMPI PUSH1 0x20 SWAP2 PUSH1 0x5 SHL ADD ADD SWAP1 JUMP JUMPDEST DUP2 DUP2 MUL SWAP3 SWAP2 DUP2 ISZERO SWAP2 DUP5 DIV EQ OR ISZERO PUSH2 0x5E6 JUMPI JUMP JUMPDEST SWAP2 SWAP1 DUP3 SUB SWAP2 DUP3 GT PUSH2 0x5E6 JUMPI JUMP JUMPDEST PUSH1 0x2 PUSH1 0x1 SLOAD EQ PUSH2 0x19C1 JUMPI PUSH1 0x2 PUSH1 0x1 SSTORE JUMP JUMPDEST PUSH1 0x40 MLOAD PUSH4 0x3EE5AEB5 PUSH1 0xE0 SHL DUP2 MSTORE PUSH1 0x4 SWAP1 REVERT JUMPDEST PUSH1 0x1 PUSH1 0x1 PUSH1 0xA0 SHL SUB SWAP1 DUP2 AND PUSH1 0x0 SWAP1 DUP2 MSTORE PUSH1 0x2 PUSH1 0x20 MSTORE PUSH1 0x40 DUP1 DUP3 KECCAK256 SWAP1 MLOAD SWAP3 SWAP1 SWAP2 SWAP1 PUSH2 0x19FC DUP5 PUSH2 0x162A JUMP JUMPDEST DUP3 SLOAD AND DUP4 MSTORE PUSH2 0x1A0D PUSH1 0x1 DUP4 ADD PUSH2 0x175D JUMP JUMPDEST PUSH1 0x20 DUP5 ADD MSTORE PUSH2 0x1A1E PUSH1 0x2 DUP4 ADD PUSH2 0x175D JUMP JUMPDEST PUSH1 0x40 DUP5 ADD MSTORE PUSH1 0x3 DUP3 ADD SLOAD SWAP2 PUSH1 0x60 DUP5 ADD SWAP3 DUP4 MSTORE PUSH1 0x4 DUP1 DUP3 ADD SLOAD SWAP2 PUSH1 0x80 DUP7 ADD SWAP3 DUP4 MSTORE PUSH1 0x5 DUP2 ADD SLOAD PUSH1 0xA0 DUP8 ADD SWAP1 DUP2 MSTORE PUSH1 0x6 DUP3 ADD SLOAD SWAP7 PUSH1 0xC0 DUP2 ADD SWAP8 DUP1 DUP10 MSTORE PUSH1 0x7 DUP5 ADD SLOAD SWAP2 DUP3 PUSH1 0xE0 DUP3 ADD MSTORE PUSH2 0x180 PUSH1 0xFF PUSH1 0xB PUSH1 0x8 DUP9 ADD SLOAD SWAP8 PUSH2 0x100 DUP6 ADD SWAP9 DUP10 MSTORE PUSH1 0x9 DUP2 ADD SLOAD PUSH2 0x120 DUP7 ADD MSTORE PUSH1 0xA DUP2 ADD SLOAD PUSH2 0x140 DUP7 ADD MSTORE ADD SLOAD DUP2 DUP2 AND ISZERO ISZERO PUSH2 0x160 DUP6 ADD MSTORE PUSH1 0x8 SHR AND ISZERO ISZERO SWAP2 ADD MSTORE ISZERO PUSH2 0x1BF8 JUMPI PUSH1 0x64 SWAP8 DUP9 DUP3 MUL SWAP2 DUP1 DUP4 DIV DUP11 EQ SWAP1 ISZERO OR ISZERO PUSH2 0x1BE5 JUMPI MLOAD PUSH2 0x1AC8 SWAP2 PUSH2 0x1944 JUMP JUMPDEST SWAP4 MLOAD PUSH10 0x21E19E0C9BAB2400000 SWAP1 DUP2 DUP2 GT ISZERO PUSH2 0x1BCD JUMPI POP POP DUP7 SWAP1 JUMPDEST MLOAD SWAP2 MLOAD DUP8 DUP2 MUL SWAP1 DUP1 DUP3 DIV DUP10 EQ SWAP1 ISZERO OR ISZERO PUSH2 0x1BBA JUMPI PUSH1 0x3C SWAP1 DIV SWAP4 PUSH1 0x28 DUP2 MUL SWAP1 DUP1 DUP3 DIV PUSH1 0x28 EQ SWAP1 ISZERO OR ISZERO PUSH2 0x1BBA JUMPI PUSH1 0x1E DUP3 MUL SWAP2 DUP1 DUP4 DIV PUSH1 0x1E EQ SWAP1 ISZERO OR ISZERO PUSH2 0x1BBA JUMPI SWAP1 PUSH2 0x1B2C SWAP2 PUSH2 0x1928 JUMP JUMPDEST PUSH1 0x14 DUP3 MUL SWAP2 DUP1 DUP4 DIV PUSH1 0x14 EQ SWAP1 ISZERO OR ISZERO PUSH2 0x1BA7 JUMPI SWAP1 PUSH2 0x1B49 SWAP2 PUSH2 0x1928 JUMP JUMPDEST SWAP1 PUSH1 0xA DUP4 MUL SWAP3 DUP1 DUP5 DIV PUSH1 0xA EQ SWAP1 ISZERO OR ISZERO PUSH2 0x1B94 JUMPI POP SWAP2 DUP5 PUSH2 0x1B70 PUSH1 0x40 SWAP4 PUSH2 0x1B88 SWAP7 SWAP6 PUSH2 0x1928 JUMP JUMPDEST DIV SWAP3 MLOAD DUP2 MSTORE PUSH1 0x5 PUSH1 0x20 MSTORE KECCAK256 SLOAD SWAP1 DUP2 ISZERO PUSH2 0x1B8C JUMPI PUSH2 0x1990 JUMP JUMPDEST DIV SWAP1 JUMP JUMPDEST DUP4 SWAP2 POP PUSH2 0x1990 JUMP JUMPDEST PUSH4 0x4E487B71 PUSH1 0xE0 SHL DUP5 MSTORE PUSH1 0x11 SWAP1 MSTORE PUSH1 0x24 DUP4 REVERT JUMPDEST PUSH4 0x4E487B71 PUSH1 0xE0 SHL DUP6 MSTORE PUSH1 0x11 DUP4 MSTORE PUSH1 0x24 DUP6 REVERT JUMPDEST PUSH4 0x4E487B71 PUSH1 0xE0 SHL DUP7 MSTORE PUSH1 0x11 DUP5 MSTORE PUSH1 0x24 DUP7 REVERT JUMPDEST DUP9 DUP2 MUL SWAP1 DUP1 DUP3 DIV DUP11 EQ SWAP1 ISZERO OR ISZERO PUSH2 0x1BE5 JUMPI DIV SWAP1 PUSH2 0x1AE3 JUMP JUMPDEST PUSH4 0x4E487B71 PUSH1 0xE0 SHL DUP8 MSTORE PUSH1 0x11 DUP6 MSTORE PUSH1 0x24 DUP8 REVERT JUMPDEST POP POP POP POP POP SWAP2 POP POP SWAP1 JUMP JUMPDEST RETURNDATASIZE ISZERO PUSH2 0x1C2E JUMPI RETURNDATASIZE SWAP1 PUSH2 0x1C14 DUP3 PUSH2 0x1669 JUMP JUMPDEST SWAP2 PUSH2 0x1C22 PUSH1 0x40 MLOAD SWAP4 DUP5 PUSH2 0x1647 JUMP JUMPDEST DUP3 MSTORE RETURNDATASIZE PUSH1 0x0 PUSH1 0x20 DUP5 ADD RETURNDATACOPY JUMP JUMPDEST PUSH1 0x60 SWAP1 JUMP JUMPDEST ISZERO PUSH2 0x1C3A JUMPI JUMP JUMPDEST PUSH1 0x40 MLOAD PUSH3 0x461BCD PUSH1 0xE5 SHL DUP2 MSTORE PUSH1 0x20 PUSH1 0x4 DUP3 ADD MSTORE PUSH1 0xF PUSH1 0x24 DUP3 ADD MSTORE PUSH15 0x151C985B9CD9995C8819985A5B1959 PUSH1 0x8A SHL PUSH1 0x44 DUP3 ADD MSTORE PUSH1 0x64 SWAP1 REVERT INVALID LOG2 PUSH5 0x6970667358 0x22 SLT KECCAK256 0x22 OR CREATE 0xB2 DUP2 0xCF PUSH7 0x7DFD8B75018964 0xBB XOR CALLDATASIZE SAR SWAP7 PUSH26 0xF09A70901421EAE56ACBCB8864736F6C63430008140033000000 "},"methodIdentifiers":{"MAX_TRANSPARENCY_BONUS()":"4e2fa529","MIN_TAO_STAKE()":"61b1d931","PERFORMANCE_WEIGHT()":"e0c2dd39","TAO_STAKE_WEIGHT()":"10a3aa59","TRANSPARENCY_WEIGHT()":"2c885542","YUMA_SCORE_WEIGHT()":"cdaa95e7","agentPerformance(address,uint256)":"6c5f60fc","aiAgents(address)":"77bad62e","claimRewards()":"372500ab","deposit()":"d0e30db0","distributeEpochRewards()":"c1c7d04f","emergencyWithdraw()":"db2e21bc","epochDuration()":"4ff0876a","epochNumber()":"f4145a83","getAgentStats(address)":"b5695b38","hotkeyToAddress(string)":"d773cdaa","lastEpochTime()":"89c614b8","owner()":"8da5cb5b","recordPrediction(address,uint256,uint256,bool,uint256)":"1b85c87a","registerAIAgent(string,string,uint256)":"00af450a","registeredAgents(uint256)":"a7bd211c","renounceOwnership()":"715018a6","subnetRewardMultipliers(uint256)":"3b53d87a","totalDistributed()":"efca2eed","totalPoolBalance()":"5026d63e","transferOwnership(address)":"f2fde38b","updateEpochDuration(uint256)":"2a5d2cd0","updateSubnetMultiplier(uint256,uint256)":"a33ddd15","updateTransparencyBonus(address,bool,bool,bool,bool)":"9270c14c","verifyAgent(address,uint256,uint256)":"d8f9723a"}}}}}