{"contracts/src/GenesisNFT.sol":{"GenesisNFT":{"abi":[{"inputs":[],"stateMutability":"nonpayable","type":"constructor"},{"inputs":[],"name":"ERC721EnumerableForbiddenBatchMint","type":"error"},{"inputs":[{"internalType":"address","name":"sender","type":"address"},{"internalType":"uint256","name":"tokenId","type":"uint256"},{"internalType":"address","name":"owner","type":"address"}],"name":"ERC721IncorrectOwner","type":"error"},{"inputs":[{"internalType":"address","name":"operator","type":"address"},{"internalType":"uint256","name":"tokenId","type":"uint256"}],"name":"ERC721InsufficientApproval","type":"error"},{"inputs":[{"internalType":"address","name":"approver","type":"address"}],"name":"ERC721InvalidApprover","type":"error"},{"inputs":[{"internalType":"address","name":"operator","type":"address"}],"name":"ERC721InvalidOperator","type":"error"},{"inputs":[{"internalType":"address","name":"owner","type":"address"}],"name":"ERC721InvalidOwner","type":"error"},{"inputs":[{"internalType":"address","name":"receiver","type":"address"}],"name":"ERC721InvalidReceiver","type":"error"},{"inputs":[{"internalType":"address","name":"sender","type":"address"}],"name":"ERC721InvalidSender","type":"error"},{"inputs":[{"internalType":"uint256","name":"tokenId","type":"uint256"}],"name":"ERC721NonexistentToken","type":"error"},{"inputs":[{"internalType":"address","name":"owner","type":"address"},{"internalType":"uint256","name":"index","type":"uint256"}],"name":"ERC721OutOfBoundsIndex","type":"error"},{"anonymous":false,"inputs":[{"indexed":true,"internalType":"address","name":"owner","type":"address"},{"indexed":true,"internalType":"address","name":"approved","type":"address"},{"indexed":true,"internalType":"uint256","name":"tokenId","type":"uint256"}],"name":"Approval","type":"event"},{"anonymous":false,"inputs":[{"indexed":true,"internalType":"address","name":"owner","type":"address"},{"indexed":true,"internalType":"address","name":"operator","type":"address"},{"indexed":false,"internalType":"bool","name":"approved","type":"bool"}],"name":"ApprovalForAll","type":"event"},{"anonymous":false,"inputs":[{"indexed":true,"internalType":"address","name":"to","type":"address"},{"indexed":false,"internalType":"uint256","name":"tokenId","type":"uint256"}],"name":"GenesisNFTMinted","type":"event"},{"anonymous":false,"inputs":[{"indexed":false,"internalType":"uint256","name":"totalMinted","type":"uint256"}],"name":"MintingFinalized","type":"event"},{"anonymous":false,"inputs":[{"indexed":true,"internalType":"address","name":"from","type":"address"},{"indexed":true,"internalType":"address","name":"to","type":"address"},{"indexed":true,"internalType":"uint256","name":"tokenId","type":"uint256"}],"name":"Transfer","type":"event"},{"inputs":[],"name":"MAX_SUPPLY","outputs":[{"internalType":"uint256","name":"","type":"uint256"}],"stateMutability":"view","type":"function"},{"inputs":[],"name":"MINTING_WINDOW","outputs":[{"internalType":"uint256","name":"","type":"uint256"}],"stateMutability":"view","type":"function"},{"inputs":[{"internalType":"address","name":"to","type":"address"},{"internalType":"uint256","name":"tokenId","type":"uint256"}],"name":"approve","outputs":[],"stateMutability":"nonpayable","type":"function"},{"inputs":[{"internalType":"address","name":"owner","type":"address"}],"name":"balanceOf","outputs":[{"internalType":"uint256","name":"","type":"uint256"}],"stateMutability":"view","type":"function"},{"inputs":[],"name":"finalizeMinting","outputs":[],"stateMutability":"nonpayable","type":"function"},{"inputs":[{"internalType":"uint256","name":"tokenId","type":"uint256"}],"name":"generateSVG","outputs":[{"internalType":"string","name":"","type":"string"}],"stateMutability":"pure","type":"function"},{"inputs":[{"internalType":"uint256","name":"tokenId","type":"uint256"}],"name":"getApproved","outputs":[{"internalType":"address","name":"","type":"address"}],"stateMutability":"view","type":"function"},{"inputs":[{"internalType":"address","name":"owner","type":"address"},{"internalType":"address","name":"operator","type":"address"}],"name":"isApprovedForAll","outputs":[{"internalType":"bool","name":"","type":"bool"}],"stateMutability":"view","type":"function"},{"inputs":[],"name":"isMintingActive","outputs":[{"internalType":"bool","name":"","type":"bool"}],"stateMutability":"view","type":"function"},{"inputs":[{"internalType":"address","name":"to","type":"address"},{"internalType":"uint256","name":"quantity","type":"uint256"}],"name":"mint","outputs":[],"stateMutability":"nonpayable","type":"function"},{"inputs":[],"name":"mintingDeadline","outputs":[{"internalType":"uint256","name":"","type":"uint256"}],"stateMutability":"view","type":"function"},{"inputs":[],"name":"mintingFinalized","outputs":[{"internalType":"bool","name":"","type":"bool"}],"stateMutability":"view","type":"function"},{"inputs":[],"name":"name","outputs":[{"internalType":"string","name":"","type":"string"}],"stateMutability":"view","type":"function"},{"inputs":[{"internalType":"uint256","name":"tokenId","type":"uint256"}],"name":"ownerOf","outputs":[{"internalType":"address","name":"","type":"address"}],"stateMutability":"view","type":"function"},{"inputs":[],"name":"remainingSupply","outputs":[{"internalType":"uint256","name":"","type":"uint256"}],"stateMutability":"view","type":"function"},{"inputs":[{"internalType":"address","name":"from","type":"address"},{"internalType":"address","name":"to","type":"address"},{"internalType":"uint256","name":"tokenId","type":"uint256"}],"name":"safeTransferFrom","outputs":[],"stateMutability":"nonpayable","type":"function"},{"inputs":[{"internalType":"address","name":"from","type":"address"},{"internalType":"address","name":"to","type":"address"},{"internalType":"uint256","name":"tokenId","type":"uint256"},{"internalType":"bytes","name":"data","type":"bytes"}],"name":"safeTransferFrom","outputs":[],"stateMutability":"nonpayable","type":"function"},{"inputs":[{"internalType":"address","name":"operator","type":"address"},{"internalType":"bool","name":"approved","type":"bool"}],"name":"setApprovalForAll","outputs":[],"stateMutability":"nonpayable","type":"function"},{"inputs":[{"internalType":"bytes4","name":"interfaceId","type":"bytes4"}],"name":"supportsInterface","outputs":[{"internalType":"bool","name":"","type":"bool"}],"stateMutability":"view","type":"function"},{"inputs":[],"name":"symbol","outputs":[{"internalType":"string","name":"","type":"string"}],"stateMutability":"view","type":"function"},{"inputs":[{"internalType":"uint256","name":"index","type":"uint256"}],"name":"tokenByIndex","outputs":[{"internalType":"uint256","name":"","type":"uint256"}],"stateMutability":"view","type":"function"},{"inputs":[{"internalType":"address","name":"owner","type":"address"},{"internalType":"uint256","name":"index","type":"uint256"}],"name":"tokenOfOwnerByIndex","outputs":[{"internalType":"uint256","name":"","type":"uint256"}],"stateMutability":"view","type":"function"},{"inputs":[{"internalType":"uint256","name":"tokenId","type":"uint256"}],"name":"tokenURI","outputs":[{"internalType":"string","name":"","type":"string"}],"stateMutability":"view","type":"function"},{"inputs":[],"name":"totalMinted","outputs":[{"internalType":"uint256","name":"","type":"uint256"}],"stateMutability":"view","type":"function"},{"inputs":[],"name":"totalSupply","outputs":[{"internalType":"uint256","name":"","type":"uint256"}],"stateMutability":"view","type":"function"},{"inputs":[{"internalType":"address","name":"from","type":"address"},{"internalType":"address","name":"to","type":"address"},{"internalType":"uint256","name":"tokenId","type":"uint256"}],"name":"transferFrom","outputs":[],"stateMutability":"nonpayable","type":"function"}],"evm":{"bytecode":{"linkReferences":{},"object":"60803462000348576001600160401b0390604090808201838111828210176200033257825260128152602071436c6f636b636861696e2047656e6573697360701b818301528251938385018581108282111762000332578452600785526647454e4553495360c81b82860152825181811162000332576000928354916001958684811c9416801562000327575b8385101462000313578190601f94858111620002c0575b5083908583116001146200025c57879262000250575b5050600019600383901b1c191690861b1784555b86519283116200023c5784548581811c9116801562000231575b828210146200021d57828111620001d5575b50809183116001146200016c57508293949582939262000160575b5050600019600383901b1c191690831b1782555b620151804201908142116200014c5750600a55600c5551612ae990816200034e8239f35b634e487b7160e01b81526011600452602490fd5b01519050388062000114565b90601f198316968585528285209285905b898210620001bd5750508386979896959610620001a3575b505050811b01825562000128565b015160001960f88460031b161c1916905538808062000195565b8088859682949686015181550195019301906200017d565b8585528185208380860160051c82019284871062000213575b0160051c019086905b82811062000207575050620000f9565b868155018690620001f7565b92508192620001ee565b634e487b7160e01b85526022600452602485fd5b90607f1690620000e7565b634e487b7160e01b84526041600452602484fd5b015190503880620000b9565b8780528488208994509190601f198416895b87828210620002a957505084116200028f575b505050811b018455620000cd565b015160001960f88460031b161c1916905538808062000281565b8385015186558c979095019493840193016200026e565b9091508680528387208580850160051c82019286861062000309575b918a91869594930160051c01915b828110620002fa575050620000a3565b8981558594508a9101620002ea565b92508192620002dc565b634e487b7160e01b86526022600452602486fd5b93607f16936200008c565b634e487b7160e01b600052604160045260246000fd5b600080fdfe608080604052600436101561001357600080fd5b60003560e01c90816301ffc9a7146113605750806306fdde03146112a1578063081812fc14611263578063095ea7b31461117c57806318160ddd1461115e57806323b872dd146111475780632c1c86d0146110935780632f745c591461100f57806332cb6b0c14610ff357806340c10f1914610a0d57806342842e0e146109df57806347759e44146109c15780634934bf5c1461099e5780634f6ccce7146109485780636352211e146109185780636ac437b0146108e15780636dcee4ca146108ae57806370a082311461088b57806395d89b4114610794578063a22cb465146106ef578063a2309ff8146106c4578063b88d4fde1461062d578063c87b56dd146101d9578063c971d702146101bb578063da0239a6146101985763e985e9c51461013d57600080fd5b346101935760403660031901126101935761015661142d565b61015e611443565b9060018060a01b03809116600052600560205260406000209116600052602052602060ff604060002054166040519015158152f35b600080fd5b346101935760003660031901126101935760206101b3612a84565b604051908152f35b34610193576000366003190112610193576020600a54604051908152f35b346101935760208060031936011261019357600435801515806105ff575b156105c3578061020961055992611a26565b906102138161267f565b9161053a6101c960405194610227866114aa565b6040865287607d60f81b61029161028b7f4142434445464748494a4b4c4d4e4f505152535455565758595a616263646566998a858201527f6768696a6b6c6d6e6f707172737475767778797a303132333435363738392b2f9889604083015261298c565b9761267f565b6040519788947f7b226e616d65223a2022436c6f636b636861696e2047656e6573697320230000858701526102cf8151809287603e8a0191016113e5565b85019061088b60f21b9182603e8201527f226465736372697074696f6e223a20224f6e65206f66203130302047656e657360408201527f6973204e4654732070726f766964696e6720666f756e6465722072657761726460608201527f7320666f722074686520436c6f636b636861696e2070726564696374696f6e2060808201527f706c6174666f726d2e2045616368204e465420726563656976657320302e303060a08201527f3225206f6620706c6174666f726d20766f6c756d652e222c000000000000000060c08201527f22696d616765223a2022646174613a696d6167652f7376672b786d6c3b62617360d882015263194d8d0b60e21b60f88201526103e3825180938860fc850191016113e5565b019060fc8201526e2261747472696275746573223a205b60881b60fe8201527f7b2274726169745f74797065223a2022436f6c6c656374696f6e222c2022766161010d820152701b1d59488e880891d95b995cda5cc89f4b607a1b61012d8201527f7b2274726169745f74797065223a20225265776172642050657263656e74616761013e8201527f65222c202276616c7565223a2022302e30303225227d2c00000000000000000061015e8201527f7b2274726169745f74797065223a2022546f74616c20537570706c79222c20226101758201526e1d985b1d59488e88088c4c0c089f4b608a1b6101958201527f7b2274726169745f74797065223a20224e756d626572222c202276616c7565226101a48201526101d160f51b6101c482015261051a825180936101c69687850191016113e5565b0191820152615d7d60f01b6101c7820152036101a98101855201836114c6565b60405192610547846114aa565b6040845285840152604083015261298c565b906105ab603d60405180947f646174613a6170706c69636174696f6e2f6a736f6e3b6261736536342c0000008583015261059b815180928786860191016113e5565b810103601d8101855201836114c6565b6105bf604051928284938452830190611408565b0390f35b60405162461bcd60e51b8152600481018390526014602482015273151bdad95b88191bd95cc81b9bdd08195e1a5cdd60621b6044820152606490fd5b50600c546000198101908111610617578111156101f7565b634e487b7160e01b600052601160045260246000fd5b346101935760803660031901126101935761064661142d565b61064e611443565b906044356064359267ffffffffffffffff841161019357366023850112156101935783600401359261067f846114e8565b9361068d60405195866114c6565b80855236602482880101116101935760208160009260246106c2990183890137860101526106bc83838361153d565b33611865565b005b3461019357600036600319011261019357600c54600019810190811161061757602090604051908152f35b346101935760403660031901126101935761070861142d565b60243590811515809203610193576001600160a01b031690811561077b57336000526005602052604060002082600052602052604060002060ff1981541660ff83161790556040519081527f17307eab39ab6107e8899845ad3d59bd9653f200f220920489ca2b5937696c3160203392a3005b604051630b61174360e31b815260048101839052602490fd5b3461019357600036600319011261019357604051600060019081549182811c91818416918215610881575b602094858510841461086b57858794868652918260001461084b5750506001146107f1575b506105ab925003836114c6565b6000818152859250907fb10e2d527612073b26eecdfd717e6a320cf44b4afac2b0732d9fcbe2b7fa0cf65b8583106108335750506105ab9350820101856107e4565b8054838901850152879450869390920191810161081c565b60ff1916858201526105ab95151560051b85010192508791506107e49050565b634e487b7160e01b600052602260045260246000fd5b92607f16926107bf565b346101935760203660031901126101935760206101b36108a961142d565b611504565b34610193576020366003190112610193576105bf6108cd600435611a26565b604051918291602083526020830190611408565b346101935760003660031901126101935760ff600b5416158061090c575b6020906040519015158152f35b50600a544211156108ff565b346101935760203660031901126101935760206109366004356117cf565b6040516001600160a01b039091168152f35b346101935760203660031901126101935760043560085481101561097f5761097160209161180a565b90546040519160031b1c8152f35b6044906040519063295f44f760e21b8252600060048301526024820152fd5b3461019357600036600319011261019357602060ff600b54166040519015158152f35b34610193576000366003190112610193576020604051620151808152f35b34610193576106c26109f036611459565b90604051926109fe8461148e565b600084526106bc83838361153d565b3461019357604036600319011261019357610a2661142d565b60ff600b5416610fae57600a544211610f6957610a47602435600c546119c1565b600019810190811161061757606410610f24576001600160a01b0381161580610edf57602435151580610ed2575b15610e9a5760005b6024358110610a9a576064600c5411610a9257005b6106c26119dd565b600c54610aa6816119ce565b600c5560405192610ab68461148e565b60008452610e81576000818152600260208190526040909120546001600160a01b031693908415908115610e4a575b6001600160a01b03871660008181526003602090815260408083208054600101905587835293905291822080546001600160a01b03191682179055849187907fddf252ad1be2c89b69c2b068fc378daa952ba7f163c4a11628f55a4df523b3ef9080a48015610dbb5760085483600052600960205280604060002055600160401b811015610da55783610b81826001610b9a940160085561180a565b90919082549060031b91821b91600019901b1916179055565b6000946001600160a01b03871603610d51575b15610d3857843b610c00575b50604051908152610bfb91906001600160a01b038516907f9c849b4b70070724cc5397b607e02a7a1ae411a1973fb5300a92dac1204af74f90602090a26119ce565b610a7d565b60405160208180610c3a630a85bd0160e11b9586835233600484015260006024840152876044840152608060648401526084830190611408565b038160006001600160a01b038b165af160009181610cf3575b50610cbb57853d15610cb3573d90610c6a826114e8565b91610c7860405193846114c6565b82523d6000602084013e5b81519182610cac57604051633250574960e11b81526001600160a01b0383166004820152602490fd5b6020915001fd5b606090610c83565b6001600160e01b03191603610cd257610bfb610bb9565b604051633250574960e11b81526001600160a01b0385166004820152602490fd5b9091506020813d602011610d30575b81610d0f602093836114c6565b8101031261019357516001600160e01b031981168103610193579087610c53565b3d9150610d02565b6040516339e3563760e11b815260006004820152602490fd5b610d5a86611504565b806000198101116106175760018060a01b0387166000526006602052604060002060001982016000526020528360406000205583600052600760205260001901604060002055610bad565b634e487b7160e01b600052604160045260246000fd5b6001600160a01b0386168514610b9a57610dd485611504565b836000526007908160205260406000205491876000526006602052604060002092828103610e1e575b50856000526020526000604081205560005260205260006040812055610b9a565b826000528360205260406000205481600052806040600020556000528160205260406000205589610dfd565b600084815260046020526040902080546001600160a01b031916905585600052600360205260406000206000198154019055610ae5565b604051633250574960e11b815260006004820152602490fd5b60405162461bcd60e51b815260206004820152601060248201526f496e76616c6964207175616e7469747960801b6044820152606490fd5b50600a6024351115610a75565b60405162461bcd60e51b815260206004820152601b60248201527f43616e6e6f74206d696e7420746f207a65726f206164647265737300000000006044820152606490fd5b60405162461bcd60e51b815260206004820152601760248201527f576f756c6420657863656564206d617820737570706c790000000000000000006044820152606490fd5b60405162461bcd60e51b815260206004820152601a60248201527f4d696e74696e672077696e646f772068617320657870697265640000000000006044820152606490fd5b60405162461bcd60e51b815260206004820152601a60248201527f4d696e74696e6720686173206265656e2066696e616c697a65640000000000006044820152606490fd5b3461019357600036600319011261019357602060405160648152f35b346101935760403660031901126101935761102861142d565b6024359061103581611504565b8210156110685760018060a01b031660005260066020526040600020906000526020526020604060002054604051908152f35b60405163295f44f760e21b81526001600160a01b039190911660048201526024810191909152604490fd5b346101935760003660031901126101935760ff600b541661110e57600a5442118015611102575b156110c7576106c26119dd565b60405162461bcd60e51b815260206004820152601360248201527210d85b9b9bdd08199a5b985b1a5e99481e595d606a1b6044820152606490fd5b506064600c54116110ba565b60405162461bcd60e51b8152602060048201526011602482015270105b1c9958591e48199a5b985b1a5e9959607a1b6044820152606490fd5b34610193576106c261115836611459565b9161153d565b34610193576000366003190112610193576020600854604051908152f35b346101935760403660031901126101935761119561142d565b6024356111a1816117cf565b33151580611250575b80611223575b61120b576001600160a01b039283169282918491167f8c5be1e5ebec7d5bd14f71427d1e84f3dd0314c0f7b2291e5b200ac8c7c3b925600080a4600090815260046020526040902080546001600160a01b0319169091179055005b60405163a9fbf51f60e01b8152336004820152602490fd5b5060018060a01b038116600052600560205260406000203360005260205260ff60406000205416156111b0565b506001600160a01b0381163314156111aa565b3461019357602036600319011261019357600435611280816117cf565b506000526004602052602060018060a01b0360406000205416604051908152f35b34610193576000366003190112610193576040516000805490600182811c91818416918215611356575b602094858510841461086b57858794868652918260001461084b5750506001146112fc57506105ab925003836114c6565b6000808052859250907f290decd9548b62a8d60345a988386fc84ba6bc95484008f6362f93160ef3e5635b85831061133e5750506105ab9350820101856107e4565b80548389018501528794508693909201918101611327565b92607f16926112cb565b34610193576020366003190112610193576004359063ffffffff60e01b82168092036101935760209163780e9d6360e01b81149081156113a2575b5015158152f35b6380ac58cd60e01b8114915081156113d4575b81156113c3575b508361139b565b6301ffc9a760e01b149050836113bc565b635b5e139f60e01b811491506113b5565b60005b8381106113f85750506000910152565b81810151838201526020016113e8565b90602091611421815180928185528580860191016113e5565b601f01601f1916010190565b600435906001600160a01b038216820361019357565b602435906001600160a01b038216820361019357565b6060906003190112610193576001600160a01b0390600435828116810361019357916024359081168103610193579060443590565b6020810190811067ffffffffffffffff821117610da557604052565b6060810190811067ffffffffffffffff821117610da557604052565b90601f8019910116810190811067ffffffffffffffff821117610da557604052565b67ffffffffffffffff8111610da557601f01601f191660200190565b6001600160a01b0316801561152457600052600360205260406000205490565b6040516322718ad960e21b815260006004820152602490fd5b6001600160a01b0382811693918415610e8157600094838652602095600287526040968488832054169633151580611741575b508715801561170e575b84845260038352898420805460010190558784526002835289842080546001600160a01b0319168617905587858a7fddf252ad1be2c89b69c2b068fc378daa952ba7f163c4a11628f55a4df523b3ef8780a4156116a25760085487845260098352808a852055600160401b81101561168e5787610b81826001611600940160085561180a565b83880361163c575b50505050169283830361161b5750505050565b6064945051926364283d7b60e01b8452600484015260248301526044820152fd5b61164590611504565b60001981019390841161167a5782916007918a9452600681528383208584528152878484205587835252205538808080611608565b634e487b7160e01b83526011600452602483fd5b634e487b7160e01b84526041600452602484fd5b878414611600576116b288611504565b878452600783528984205490898552600684528a8520918181036116ec575b5088855260078452848b812055845282528289812055611600565b8186528285528b862054818752808d8820558652600785528b862055386116d1565b600088815260046020526040902080546001600160a01b031916905588845260038352898420805460001901905561157a565b8061178e575b156117525738611570565b88878961176f576024915190637e27328960e01b82526004820152fd5b905163177e802f60e01b81523360048201526024810191909152604490fd5b5033881480156117b3575b8061174757508683526004825233868a8520541614611747565b5087835260058252888320338452825260ff8984205416611799565b6000818152600260205260409020546001600160a01b03169081156117f2575090565b60249060405190637e27328960e01b82526004820152fd5b6008548110156118415760086000527ff3f7a9fe364faab93b216da50a3214154f22a0a2b415b23a84c8169e8b636ee30190600090565b634e487b7160e01b600052603260045260246000fd5b60fa039060fa821161061757565b90939192833b611877575b5050505050565b604051630a85bd0160e11b8082526001600160a01b0393841660048301529583166024820152604481019190915260806064820152949216926020929185906118c4906084830190611408565b039483816000978189895af186918161196f575b50611939575050503d600014611930573d6118f2816114e8565b9061190060405192836114c6565b81528093823d92013e5b8251928361192b57604051633250574960e11b815260048101849052602490fd5b019050fd5b6060925061190a565b919450915063ffffffff60e01b160361195757503880808080611870565b60249060405190633250574960e11b82526004820152fd5b9091508481813d83116119ac575b61198781836114c6565b810103126119a857516001600160e01b0319811681036119a85790386118d8565b8680fd5b503d61197d565b60fa01908160fa1161061757565b9190820180921161061757565b60001981146106175760010190565b600b805460ff19166001179055600c5460001981019081116106175760207f06d2a1b7b73a22817b814152d415c7c9b1a3a09f8af8f76fdf662891e4fb50f291604051908152a1565b80151580612642575b1561260a57611a3d81612894565b906064810180821161061757611a5290612894565b60c8820180831161061757610220611a6c611db592612894565b94611a768561267f565b9560405194859260208401987f3c73766720786d6c6e733d22687474703a2f2f7777772e77332e6f72672f32308a527f30302f737667222077696474683d2235303022206865696768743d223530302260408601527f2076696577426f783d223020302035303020353030223e0000000000000000006060860152651e3232b3399f60d11b60778601527f3c6c696e6561724772616469656e742069643d22677261640000000000000000607d860152611b3a8151809260206095890191016113e5565b84017f222078313d223025222079313d223025222078323d2231303025222079323d2260958201526518981812911f60d11b60b58201527f3c73746f70206f66667365743d22302522207374796c653d2273746f702d636f60bb820152633637b91d60e11b60db820152611bb882518093602060df850191016113e5565b0190721db9ba37b816b7b830b1b4ba3c9d189110179f60691b828160df819501527f3c73746f70206f66667365743d2235302522207374796c653d2273746f702d6360f28201526437b637b91d60d91b610112820152825190611c258261011795602087850191016113e5565b01918201527f3c73746f70206f66667365743d223130302522207374796c653d2273746f702d61012a8201526531b7b637b91d60d11b61014a820152825190611c788261015095602087850191016113e5565b0191820152701e17b634b732b0b923b930b234b2b73a1f60791b610163820152711e3334b63a32b91034b21e9133b637bb911f60711b6101748201527f3c6665476175737369616e426c757220737464446576696174696f6e3d2234226101868201527f20726573756c743d22636f6c6f726564426c7572222f3e0000000000000000006101a6820152681e3332a6b2b933b29f60b91b6101bd8201527f3c66654d657267654e6f646520696e3d22636f6c6f726564426c7572222f3e006101c68201527f3c66654d657267654e6f646520696e3d22536f7572636547726170686963222f6101e5820152601f60f91b610205820152691e17b332a6b2b933b29f60b11b610206820152681e17b334b63a32b91f60b91b610210820152661e17b232b3399f60c91b610219820152036102008101845201826114c6565b611dbe8261267f565b91604051611dcb8161148e565b60008152928160005b600581106122cb575050601e8202828104601e148315171561061757611df99061267f565b93602d8302838104602d148415171561061757611e159061267f565b9260405190816020810193848151602081930191611e32926113e5565b7f3c636972636c652063783d22323530222063793d223235302220723d223530226020918301828101919091527f2066696c6c3d226e6f6e6522207374726f6b653d22776869746522207374726f60408201527f6b652d77696474683d223322206f7061636974793d22302e39222f3e0000000060608201527f3c6c696e652078313d22323530222079313d22323530222078323d2232353022607c8201527f2079323d2232313022207374726f6b653d22776869746522207374726f6b652d609c8201527f77696474683d223322207374726f6b652d6c696e656361703d22726f756e642260bc82015272040e8e4c2dce6ccdee4da7a44e4dee8c2e8ca5606b1b60dc82018190528a51909a9092611f5291849160ef850191016113e5565b016b10191a9810191a981491179f60a11b908160ef82015260fb81017f3c6c696e652078313d22323530222079313d22323530222078323d2232383022905261011b81017f2079323d2232353022207374726f6b653d22776869746522207374726f6b652d905261013b81017f77696474683d223222207374726f6b652d6c696e656361703d22726f756e6422905261015b998a82015287519061016e98828a83019160200191612002926113e5565b01908782015261017a81017f3c636972636c652063783d22323530222063793d223235302220723d2235222090526d3334b6361e913bb434ba3291179f60911b61019a82015203610188810183526101a80161205e90836114c6565b6120679061267f565b926040519788965190816020890161207e926113e5565b8601602081017f3c726563742077696474683d2235303022206865696768743d2235303022206690526d1a5b1b0f489d5c9b0a08d9dc985960921b604082015281519182604e830191602001916120d4926113e5565b0190631491179f60e11b604e830152605282017f3c672066696c7465723d2275726c2823676c6f7729223e00000000000000000090525191826069830161211a926113e5565b631e17b39f60e11b606992909101918201527f3c7465787420783d223235302220793d223435302220666f6e742d66616d696c606d8201527f793d226d6f6e6f73706163652220666f6e742d73697a653d223234222066696c608d8201527f6c3d2277686974652220746578742d616e63686f723d226d6964646c6522206660ad8201527137b73a16bbb2b4b3b43a1e913137b632111f60711b60cd8201526847454e45534953202360b81b60df8201528151916121e190839060e88401906020016113e5565b0190661e17ba32bc3a1f60c91b908160e884015260ef83017f3c7465787420783d223235302220793d223437352220666f6e742d66616d696c905261010f83017f793d226d6f6e6f73706163652220666f6e742d73697a653d223134222066696c905261012f83017f6c3d2277686974652220746578742d616e63686f723d226d6964646c6522206f90526c3830b1b4ba3c9e9118171c111f60991b61014f84015261015c83017121a627a1a5a1a420a4a7102327aaa72222a960711b90528201526101758101651e17b9bb339f60d11b905203908101825261017b016122c890826114c6565b90565b9094601e9081830291831590848404148117156106175760b490818481031161061757600d808a02908a8204148a15171561061757603c860290868204603c14831715610617576101689161231f916119c1565b0693600f91828702928784041417156106175760648281031161061757916040516123498161148e565b60008152926000915b600683106124a4575050509261247e92608a9261239b6123957f222066696c6c3d226e6f6e6522207374726f6b653d22776869746522207374729760640361267f565b9361267f565b9060405196836123b58995518092602080890191016113e5565b8401701e3837b63cb3b7b7103837b4b73a399e9160791b60208201528251906123e782603195602087850191016113e5565b01918201527f6f6b652d77696474683d223222206f7061636974793d22302e00000000000000605182015283519061242882606a96602088850191016113e5565b017304440e8e4c2dce6ccdee4da7a44e4dee8c2e8ca560631b8482015281519061245b82607e94602086850191016113e5565b6b10191a9810191a981491179f60a11b91019182015203908101845201826114c6565b9460079081810291818304149015171561061757606461249f9106916119ce565b611dd4565b90919384603c810204603c1485151715610617576125929061258c60646124d86124d0603c8a026127f6565b8787036127c2565b059160646124f36124eb603c8b02612848565b8888036127c2565b0592600081126125f857612506906119b3565b925b600081126125e157612519906119b3565b925b88612599575b61239561252d9161267f565b9060405193816125478693518092602080870191016113e5565b820161255c82518093602080850191016113e5565b01600b60fa1b602082015282519061257d82602195602087850191016113e5565b010360018101845201826114c6565b946119ce565b9190612352565b9061239561252d916125d86021604051836125be8295518092602080860191016113e5565b8101600160fd1b60208201520360018101845201826114c6565b92915050612521565b6125ed6125f2916127e5565b611857565b9261251b565b6125ed612604916127e5565b92612508565b60405162461bcd60e51b815260206004820152601060248201526f125b9d985b1a59081d1bdad95b88125160821b6044820152606490fd5b506064811115611a2f565b90612657826114e8565b61266460405191826114c6565b8281528092612675601f19916114e8565b0190602036910137565b806000917a184f03e93ff9f4daa797ed6e38ed64bf6a1f010000000000000000808210156127b4575b506d04ee2d6d415b85acef8100000000808310156127a5575b50662386f26fc1000080831015612796575b506305f5e10080831015612787575b5061271080831015612778575b506064821015612768575b600a8092101561275e575b60019081602161271682870161264d565b95860101905b612728575b5050505090565b600019019083906f181899199a1a9b1b9c1cb0b131b232b360811b8282061a8353049182156127595791908261271c565b612721565b9160010191612705565b91906064600291049101916126fa565b600491939204910191386126ef565b600891939204910191386126e2565b601091939204910191386126d3565b602091939204910191386126c1565b6040935081049150386126a8565b818102929160008212600160ff1b82141661061757818405149015171561061757565b600160ff1b81146106175760000390565b801561284257603c811461283c576078811461282e5760b481146128355760f0811461282e5761012c1461282957600090565b603290565b5060311990565b5060631990565b50603290565b50606490565b801561288857603c811461288e576078811461288e5760b481146128885760f081146128815761012c1461287b57600090565b60561990565b5060561990565b50600090565b50605790565b604051906020918281019182528281526040810181811067ffffffffffffffff821117610da557604052519020607f81166064810180911161061757607f8260081c16916064830180931161061757607f9060101c169160648301809311610617576122c89261291161290b61239560279561267f565b9161267f565b90612973604051968794630e4cec4560e31b8287015261293a815180928460248a0191016113e5565b850192600b60fa1b9384602482015261295c82518093856025850191016113e5565b0192602584015283519384916026850191016113e5565b01602960f81b60268201520360078101845201826114c6565b805115612a6f578051600291828201809211610617576003918290046001600160fe1b0381168103610617576129c5908495941b61264d565b936020850193829183518401906020820192835194600085525b838110612a1e575050505052510680600114612a0b57600214612a00575090565b603d90600019015390565b50603d9081600019820153600119015390565b87600491999293949901918251600190603f9082828260121c16880101518453828282600c1c16880101518385015382828260061c16880101518885015316850101518982015301979291906129df565b5050604051612a7d8161148e565b6000815290565b60ff600b5416612aae57600c54806000198101116106175760019060640301606481116106175790565b60009056fea2646970667358221220a6a01b6f7b6b91a9ea6cbcf716f6012635f449bd24251d0980da887a9e87e69264736f6c63430008140033","opcodes":"PUSH1 0x80 CALLVALUE PUSH3 0x348 JUMPI PUSH1 0x1 PUSH1 0x1 PUSH1 0x40 SHL SUB SWAP1 PUSH1 0x40 SWAP1 DUP1 DUP3 ADD DUP4 DUP2 GT DUP3 DUP3 LT OR PUSH3 0x332 JUMPI DUP3 MSTORE PUSH1 0x12 DUP2 MSTORE PUSH1 0x20 PUSH18 0x436C6F636B636861696E2047656E65736973 PUSH1 0x70 SHL DUP2 DUP4 ADD MSTORE DUP3 MLOAD SWAP4 DUP4 DUP6 ADD DUP6 DUP2 LT DUP3 DUP3 GT OR PUSH3 0x332 JUMPI DUP5 MSTORE PUSH1 0x7 DUP6 MSTORE PUSH7 0x47454E45534953 PUSH1 0xC8 SHL DUP3 DUP7 ADD MSTORE DUP3 MLOAD DUP2 DUP2 GT PUSH3 0x332 JUMPI PUSH1 0x0 SWAP3 DUP4 SLOAD SWAP2 PUSH1 0x1 SWAP6 DUP7 DUP5 DUP2 SHR SWAP5 AND DUP1 ISZERO PUSH3 0x327 JUMPI JUMPDEST DUP4 DUP6 LT EQ PUSH3 0x313 JUMPI DUP2 SWAP1 PUSH1 0x1F SWAP5 DUP6 DUP2 GT PUSH3 0x2C0 JUMPI JUMPDEST POP DUP4 SWAP1 DUP6 DUP4 GT PUSH1 0x1 EQ PUSH3 0x25C JUMPI DUP8 SWAP3 PUSH3 0x250 JUMPI JUMPDEST POP POP PUSH1 0x0 NOT PUSH1 0x3 DUP4 SWAP1 SHL SHR NOT AND SWAP1 DUP7 SHL OR DUP5 SSTORE JUMPDEST DUP7 MLOAD SWAP3 DUP4 GT PUSH3 0x23C JUMPI DUP5 SLOAD DUP6 DUP2 DUP2 SHR SWAP2 AND DUP1 ISZERO PUSH3 0x231 JUMPI JUMPDEST DUP3 DUP3 LT EQ PUSH3 0x21D JUMPI DUP3 DUP2 GT PUSH3 0x1D5 JUMPI JUMPDEST POP DUP1 SWAP2 DUP4 GT PUSH1 0x1 EQ PUSH3 0x16C JUMPI POP DUP3 SWAP4 SWAP5 SWAP6 DUP3 SWAP4 SWAP3 PUSH3 0x160 JUMPI JUMPDEST POP POP PUSH1 0x0 NOT PUSH1 0x3 DUP4 SWAP1 SHL SHR NOT AND SWAP1 DUP4 SHL OR DUP3 SSTORE JUMPDEST PUSH3 0x15180 TIMESTAMP ADD SWAP1 DUP2 TIMESTAMP GT PUSH3 0x14C JUMPI POP PUSH1 0xA SSTORE PUSH1 0xC SSTORE MLOAD PUSH2 0x2AE9 SWAP1 DUP2 PUSH3 0x34E DUP3 CODECOPY RETURN JUMPDEST PUSH4 0x4E487B71 PUSH1 0xE0 SHL DUP2 MSTORE PUSH1 0x11 PUSH1 0x4 MSTORE PUSH1 0x24 SWAP1 REVERT JUMPDEST ADD MLOAD SWAP1 POP CODESIZE DUP1 PUSH3 0x114 JUMP JUMPDEST SWAP1 PUSH1 0x1F NOT DUP4 AND SWAP7 DUP6 DUP6 MSTORE DUP3 DUP6 KECCAK256 SWAP3 DUP6 SWAP1 JUMPDEST DUP10 DUP3 LT PUSH3 0x1BD JUMPI POP POP DUP4 DUP7 SWAP8 SWAP9 SWAP7 SWAP6 SWAP7 LT PUSH3 0x1A3 JUMPI JUMPDEST POP POP POP DUP2 SHL ADD DUP3 SSTORE PUSH3 0x128 JUMP JUMPDEST ADD MLOAD PUSH1 0x0 NOT PUSH1 0xF8 DUP5 PUSH1 0x3 SHL AND SHR NOT AND SWAP1 SSTORE CODESIZE DUP1 DUP1 PUSH3 0x195 JUMP JUMPDEST DUP1 DUP9 DUP6 SWAP7 DUP3 SWAP5 SWAP7 DUP7 ADD MLOAD DUP2 SSTORE ADD SWAP6 ADD SWAP4 ADD SWAP1 PUSH3 0x17D JUMP JUMPDEST DUP6 DUP6 MSTORE DUP2 DUP6 KECCAK256 DUP4 DUP1 DUP7 ADD PUSH1 0x5 SHR DUP3 ADD SWAP3 DUP5 DUP8 LT PUSH3 0x213 JUMPI JUMPDEST ADD PUSH1 0x5 SHR ADD SWAP1 DUP7 SWAP1 JUMPDEST DUP3 DUP2 LT PUSH3 0x207 JUMPI POP POP PUSH3 0xF9 JUMP JUMPDEST DUP7 DUP2 SSTORE ADD DUP7 SWAP1 PUSH3 0x1F7 JUMP JUMPDEST SWAP3 POP DUP2 SWAP3 PUSH3 0x1EE JUMP JUMPDEST PUSH4 0x4E487B71 PUSH1 0xE0 SHL DUP6 MSTORE PUSH1 0x22 PUSH1 0x4 MSTORE PUSH1 0x24 DUP6 REVERT JUMPDEST SWAP1 PUSH1 0x7F AND SWAP1 PUSH3 0xE7 JUMP JUMPDEST PUSH4 0x4E487B71 PUSH1 0xE0 SHL DUP5 MSTORE PUSH1 0x41 PUSH1 0x4 MSTORE PUSH1 0x24 DUP5 REVERT JUMPDEST ADD MLOAD SWAP1 POP CODESIZE DUP1 PUSH3 0xB9 JUMP JUMPDEST DUP8 DUP1 MSTORE DUP5 DUP9 KECCAK256 DUP10 SWAP5 POP SWAP2 SWAP1 PUSH1 0x1F NOT DUP5 AND DUP10 JUMPDEST DUP8 DUP3 DUP3 LT PUSH3 0x2A9 JUMPI POP POP DUP5 GT PUSH3 0x28F JUMPI JUMPDEST POP POP POP DUP2 SHL ADD DUP5 SSTORE PUSH3 0xCD JUMP JUMPDEST ADD MLOAD PUSH1 0x0 NOT PUSH1 0xF8 DUP5 PUSH1 0x3 SHL AND SHR NOT AND SWAP1 SSTORE CODESIZE DUP1 DUP1 PUSH3 0x281 JUMP JUMPDEST DUP4 DUP6 ADD MLOAD DUP7 SSTORE DUP13 SWAP8 SWAP1 SWAP6 ADD SWAP5 SWAP4 DUP5 ADD SWAP4 ADD PUSH3 0x26E JUMP JUMPDEST SWAP1 SWAP2 POP DUP7 DUP1 MSTORE DUP4 DUP8 KECCAK256 DUP6 DUP1 DUP6 ADD PUSH1 0x5 SHR DUP3 ADD SWAP3 DUP7 DUP7 LT PUSH3 0x309 JUMPI JUMPDEST SWAP2 DUP11 SWAP2 DUP7 SWAP6 SWAP5 SWAP4 ADD PUSH1 0x5 SHR ADD SWAP2 JUMPDEST DUP3 DUP2 LT PUSH3 0x2FA JUMPI POP POP PUSH3 0xA3 JUMP JUMPDEST DUP10 DUP2 SSTORE DUP6 SWAP5 POP DUP11 SWAP2 ADD PUSH3 0x2EA JUMP JUMPDEST SWAP3 POP DUP2 SWAP3 PUSH3 0x2DC JUMP JUMPDEST PUSH4 0x4E487B71 PUSH1 0xE0 SHL DUP7 MSTORE PUSH1 0x22 PUSH1 0x4 MSTORE PUSH1 0x24 DUP7 REVERT JUMPDEST SWAP4 PUSH1 0x7F AND SWAP4 PUSH3 0x8C JUMP JUMPDEST PUSH4 0x4E487B71 PUSH1 0xE0 SHL PUSH1 0x0 MSTORE PUSH1 0x41 PUSH1 0x4 MSTORE PUSH1 0x24 PUSH1 0x0 REVERT JUMPDEST PUSH1 0x0 DUP1 REVERT INVALID PUSH1 0x80 DUP1 PUSH1 0x40 MSTORE PUSH1 0x4 CALLDATASIZE LT ISZERO PUSH2 0x13 JUMPI PUSH1 0x0 DUP1 REVERT JUMPDEST PUSH1 0x0 CALLDATALOAD PUSH1 0xE0 SHR SWAP1 DUP2 PUSH4 0x1FFC9A7 EQ PUSH2 0x1360 JUMPI POP DUP1 PUSH4 0x6FDDE03 EQ PUSH2 0x12A1 JUMPI DUP1 PUSH4 0x81812FC EQ PUSH2 0x1263 JUMPI DUP1 PUSH4 0x95EA7B3 EQ PUSH2 0x117C JUMPI DUP1 PUSH4 0x18160DDD EQ PUSH2 0x115E JUMPI DUP1 PUSH4 0x23B872DD EQ PUSH2 0x1147 JUMPI DUP1 PUSH4 0x2C1C86D0 EQ PUSH2 0x1093 JUMPI DUP1 PUSH4 0x2F745C59 EQ PUSH2 0x100F JUMPI DUP1 PUSH4 0x32CB6B0C EQ PUSH2 0xFF3 JUMPI DUP1 PUSH4 0x40C10F19 EQ PUSH2 0xA0D JUMPI DUP1 PUSH4 0x42842E0E EQ PUSH2 0x9DF JUMPI DUP1 PUSH4 0x47759E44 EQ PUSH2 0x9C1 JUMPI DUP1 PUSH4 0x4934BF5C EQ PUSH2 0x99E JUMPI DUP1 PUSH4 0x4F6CCCE7 EQ PUSH2 0x948 JUMPI DUP1 PUSH4 0x6352211E EQ PUSH2 0x918 JUMPI DUP1 PUSH4 0x6AC437B0 EQ PUSH2 0x8E1 JUMPI DUP1 PUSH4 0x6DCEE4CA EQ PUSH2 0x8AE JUMPI DUP1 PUSH4 0x70A08231 EQ PUSH2 0x88B JUMPI DUP1 PUSH4 0x95D89B41 EQ PUSH2 0x794 JUMPI DUP1 PUSH4 0xA22CB465 EQ PUSH2 0x6EF JUMPI DUP1 PUSH4 0xA2309FF8 EQ PUSH2 0x6C4 JUMPI DUP1 PUSH4 0xB88D4FDE EQ PUSH2 0x62D JUMPI DUP1 PUSH4 0xC87B56DD EQ PUSH2 0x1D9 JUMPI DUP1 PUSH4 0xC971D702 EQ PUSH2 0x1BB JUMPI DUP1 PUSH4 0xDA0239A6 EQ PUSH2 0x198 JUMPI PUSH4 0xE985E9C5 EQ PUSH2 0x13D JUMPI PUSH1 0x0 DUP1 REVERT JUMPDEST CALLVALUE PUSH2 0x193 JUMPI PUSH1 0x40 CALLDATASIZE PUSH1 0x3 NOT ADD SLT PUSH2 0x193 JUMPI PUSH2 0x156 PUSH2 0x142D JUMP JUMPDEST PUSH2 0x15E PUSH2 0x1443 JUMP JUMPDEST SWAP1 PUSH1 0x1 DUP1 PUSH1 0xA0 SHL SUB DUP1 SWAP2 AND PUSH1 0x0 MSTORE PUSH1 0x5 PUSH1 0x20 MSTORE PUSH1 0x40 PUSH1 0x0 KECCAK256 SWAP2 AND PUSH1 0x0 MSTORE PUSH1 0x20 MSTORE PUSH1 0x20 PUSH1 0xFF PUSH1 0x40 PUSH1 0x0 KECCAK256 SLOAD AND PUSH1 0x40 MLOAD SWAP1 ISZERO ISZERO DUP2 MSTORE RETURN JUMPDEST PUSH1 0x0 DUP1 REVERT JUMPDEST CALLVALUE PUSH2 0x193 JUMPI PUSH1 0x0 CALLDATASIZE PUSH1 0x3 NOT ADD SLT PUSH2 0x193 JUMPI PUSH1 0x20 PUSH2 0x1B3 PUSH2 0x2A84 JUMP JUMPDEST PUSH1 0x40 MLOAD SWAP1 DUP2 MSTORE RETURN JUMPDEST CALLVALUE PUSH2 0x193 JUMPI PUSH1 0x0 CALLDATASIZE PUSH1 0x3 NOT ADD SLT PUSH2 0x193 JUMPI PUSH1 0x20 PUSH1 0xA SLOAD PUSH1 0x40 MLOAD SWAP1 DUP2 MSTORE RETURN JUMPDEST CALLVALUE PUSH2 0x193 JUMPI PUSH1 0x20 DUP1 PUSH1 0x3 NOT CALLDATASIZE ADD SLT PUSH2 0x193 JUMPI PUSH1 0x4 CALLDATALOAD DUP1 ISZERO ISZERO DUP1 PUSH2 0x5FF JUMPI JUMPDEST ISZERO PUSH2 0x5C3 JUMPI DUP1 PUSH2 0x209 PUSH2 0x559 SWAP3 PUSH2 0x1A26 JUMP JUMPDEST SWAP1 PUSH2 0x213 DUP2 PUSH2 0x267F JUMP JUMPDEST SWAP2 PUSH2 0x53A PUSH2 0x1C9 PUSH1 0x40 MLOAD SWAP5 PUSH2 0x227 DUP7 PUSH2 0x14AA JUMP JUMPDEST PUSH1 0x40 DUP7 MSTORE DUP8 PUSH1 0x7D PUSH1 0xF8 SHL PUSH2 0x291 PUSH2 0x28B PUSH32 0x4142434445464748494A4B4C4D4E4F505152535455565758595A616263646566 SWAP10 DUP11 DUP6 DUP3 ADD MSTORE PUSH32 0x6768696A6B6C6D6E6F707172737475767778797A303132333435363738392B2F SWAP9 DUP10 PUSH1 0x40 DUP4 ADD MSTORE PUSH2 0x298C JUMP JUMPDEST SWAP8 PUSH2 0x267F JUMP JUMPDEST PUSH1 0x40 MLOAD SWAP8 DUP9 SWAP5 PUSH32 0x7B226E616D65223A2022436C6F636B636861696E2047656E6573697320230000 DUP6 DUP8 ADD MSTORE PUSH2 0x2CF DUP2 MLOAD DUP1 SWAP3 DUP8 PUSH1 0x3E DUP11 ADD SWAP2 ADD PUSH2 0x13E5 JUMP JUMPDEST DUP6 ADD SWAP1 PUSH2 0x88B PUSH1 0xF2 SHL SWAP2 DUP3 PUSH1 0x3E DUP3 ADD MSTORE PUSH32 0x226465736372697074696F6E223A20224F6E65206F66203130302047656E6573 PUSH1 0x40 DUP3 ADD MSTORE PUSH32 0x6973204E4654732070726F766964696E6720666F756E64657220726577617264 PUSH1 0x60 DUP3 ADD MSTORE PUSH32 0x7320666F722074686520436C6F636B636861696E2070726564696374696F6E20 PUSH1 0x80 DUP3 ADD MSTORE PUSH32 0x706C6174666F726D2E2045616368204E465420726563656976657320302E3030 PUSH1 0xA0 DUP3 ADD MSTORE PUSH32 0x3225206F6620706C6174666F726D20766F6C756D652E222C0000000000000000 PUSH1 0xC0 DUP3 ADD MSTORE PUSH32 0x22696D616765223A2022646174613A696D6167652F7376672B786D6C3B626173 PUSH1 0xD8 DUP3 ADD MSTORE PUSH4 0x194D8D0B PUSH1 0xE2 SHL PUSH1 0xF8 DUP3 ADD MSTORE PUSH2 0x3E3 DUP3 MLOAD DUP1 SWAP4 DUP9 PUSH1 0xFC DUP6 ADD SWAP2 ADD PUSH2 0x13E5 JUMP JUMPDEST ADD SWAP1 PUSH1 0xFC DUP3 ADD MSTORE PUSH15 0x2261747472696275746573223A205B PUSH1 0x88 SHL PUSH1 0xFE DUP3 ADD MSTORE PUSH32 0x7B2274726169745F74797065223A2022436F6C6C656374696F6E222C20227661 PUSH2 0x10D DUP3 ADD MSTORE PUSH17 0x1B1D59488E880891D95B995CDA5CC89F4B PUSH1 0x7A SHL PUSH2 0x12D DUP3 ADD MSTORE PUSH32 0x7B2274726169745F74797065223A20225265776172642050657263656E746167 PUSH2 0x13E DUP3 ADD MSTORE PUSH32 0x65222C202276616C7565223A2022302E30303225227D2C000000000000000000 PUSH2 0x15E DUP3 ADD MSTORE PUSH32 0x7B2274726169745F74797065223A2022546F74616C20537570706C79222C2022 PUSH2 0x175 DUP3 ADD MSTORE PUSH15 0x1D985B1D59488E88088C4C0C089F4B PUSH1 0x8A SHL PUSH2 0x195 DUP3 ADD MSTORE PUSH32 0x7B2274726169745F74797065223A20224E756D626572222C202276616C756522 PUSH2 0x1A4 DUP3 ADD MSTORE PUSH2 0x1D1 PUSH1 0xF5 SHL PUSH2 0x1C4 DUP3 ADD MSTORE PUSH2 0x51A DUP3 MLOAD DUP1 SWAP4 PUSH2 0x1C6 SWAP7 DUP8 DUP6 ADD SWAP2 ADD PUSH2 0x13E5 JUMP JUMPDEST ADD SWAP2 DUP3 ADD MSTORE PUSH2 0x5D7D PUSH1 0xF0 SHL PUSH2 0x1C7 DUP3 ADD MSTORE SUB PUSH2 0x1A9 DUP2 ADD DUP6 MSTORE ADD DUP4 PUSH2 0x14C6 JUMP JUMPDEST PUSH1 0x40 MLOAD SWAP3 PUSH2 0x547 DUP5 PUSH2 0x14AA JUMP JUMPDEST PUSH1 0x40 DUP5 MSTORE DUP6 DUP5 ADD MSTORE PUSH1 0x40 DUP4 ADD MSTORE PUSH2 0x298C JUMP JUMPDEST SWAP1 PUSH2 0x5AB PUSH1 0x3D PUSH1 0x40 MLOAD DUP1 SWAP5 PUSH32 0x646174613A6170706C69636174696F6E2F6A736F6E3B6261736536342C000000 DUP6 DUP4 ADD MSTORE PUSH2 0x59B DUP2 MLOAD DUP1 SWAP3 DUP8 DUP7 DUP7 ADD SWAP2 ADD PUSH2 0x13E5 JUMP JUMPDEST DUP2 ADD SUB PUSH1 0x1D DUP2 ADD DUP6 MSTORE ADD DUP4 PUSH2 0x14C6 JUMP JUMPDEST PUSH2 0x5BF PUSH1 0x40 MLOAD SWAP3 DUP3 DUP5 SWAP4 DUP5 MSTORE DUP4 ADD SWAP1 PUSH2 0x1408 JUMP JUMPDEST SUB SWAP1 RETURN JUMPDEST PUSH1 0x40 MLOAD PUSH3 0x461BCD PUSH1 0xE5 SHL DUP2 MSTORE PUSH1 0x4 DUP2 ADD DUP4 SWAP1 MSTORE PUSH1 0x14 PUSH1 0x24 DUP3 ADD MSTORE PUSH20 0x151BDAD95B88191BD95CC81B9BDD08195E1A5CDD PUSH1 0x62 SHL PUSH1 0x44 DUP3 ADD MSTORE PUSH1 0x64 SWAP1 REVERT JUMPDEST POP PUSH1 0xC SLOAD PUSH1 0x0 NOT DUP2 ADD SWAP1 DUP2 GT PUSH2 0x617 JUMPI DUP2 GT ISZERO PUSH2 0x1F7 JUMP JUMPDEST PUSH4 0x4E487B71 PUSH1 0xE0 SHL PUSH1 0x0 MSTORE PUSH1 0x11 PUSH1 0x4 MSTORE PUSH1 0x24 PUSH1 0x0 REVERT JUMPDEST CALLVALUE PUSH2 0x193 JUMPI PUSH1 0x80 CALLDATASIZE PUSH1 0x3 NOT ADD SLT PUSH2 0x193 JUMPI PUSH2 0x646 PUSH2 0x142D JUMP JUMPDEST PUSH2 0x64E PUSH2 0x1443 JUMP JUMPDEST SWAP1 PUSH1 0x44 CALLDATALOAD PUSH1 0x64 CALLDATALOAD SWAP3 PUSH8 0xFFFFFFFFFFFFFFFF DUP5 GT PUSH2 0x193 JUMPI CALLDATASIZE PUSH1 0x23 DUP6 ADD SLT ISZERO PUSH2 0x193 JUMPI DUP4 PUSH1 0x4 ADD CALLDATALOAD SWAP3 PUSH2 0x67F DUP5 PUSH2 0x14E8 JUMP JUMPDEST SWAP4 PUSH2 0x68D PUSH1 0x40 MLOAD SWAP6 DUP7 PUSH2 0x14C6 JUMP JUMPDEST DUP1 DUP6 MSTORE CALLDATASIZE PUSH1 0x24 DUP3 DUP9 ADD ADD GT PUSH2 0x193 JUMPI PUSH1 0x20 DUP2 PUSH1 0x0 SWAP3 PUSH1 0x24 PUSH2 0x6C2 SWAP10 ADD DUP4 DUP10 ADD CALLDATACOPY DUP7 ADD ADD MSTORE PUSH2 0x6BC DUP4 DUP4 DUP4 PUSH2 0x153D JUMP JUMPDEST CALLER PUSH2 0x1865 JUMP JUMPDEST STOP JUMPDEST CALLVALUE PUSH2 0x193 JUMPI PUSH1 0x0 CALLDATASIZE PUSH1 0x3 NOT ADD SLT PUSH2 0x193 JUMPI PUSH1 0xC SLOAD PUSH1 0x0 NOT DUP2 ADD SWAP1 DUP2 GT PUSH2 0x617 JUMPI PUSH1 0x20 SWAP1 PUSH1 0x40 MLOAD SWAP1 DUP2 MSTORE RETURN JUMPDEST CALLVALUE PUSH2 0x193 JUMPI PUSH1 0x40 CALLDATASIZE PUSH1 0x3 NOT ADD SLT PUSH2 0x193 JUMPI PUSH2 0x708 PUSH2 0x142D JUMP JUMPDEST PUSH1 0x24 CALLDATALOAD SWAP1 DUP2 ISZERO ISZERO DUP1 SWAP3 SUB PUSH2 0x193 JUMPI PUSH1 0x1 PUSH1 0x1 PUSH1 0xA0 SHL SUB AND SWAP1 DUP2 ISZERO PUSH2 0x77B JUMPI CALLER PUSH1 0x0 MSTORE PUSH1 0x5 PUSH1 0x20 MSTORE PUSH1 0x40 PUSH1 0x0 KECCAK256 DUP3 PUSH1 0x0 MSTORE PUSH1 0x20 MSTORE PUSH1 0x40 PUSH1 0x0 KECCAK256 PUSH1 0xFF NOT DUP2 SLOAD AND PUSH1 0xFF DUP4 AND OR SWAP1 SSTORE PUSH1 0x40 MLOAD SWAP1 DUP2 MSTORE PUSH32 0x17307EAB39AB6107E8899845AD3D59BD9653F200F220920489CA2B5937696C31 PUSH1 0x20 CALLER SWAP3 LOG3 STOP JUMPDEST PUSH1 0x40 MLOAD PUSH4 0xB611743 PUSH1 0xE3 SHL DUP2 MSTORE PUSH1 0x4 DUP2 ADD DUP4 SWAP1 MSTORE PUSH1 0x24 SWAP1 REVERT JUMPDEST CALLVALUE PUSH2 0x193 JUMPI PUSH1 0x0 CALLDATASIZE PUSH1 0x3 NOT ADD SLT PUSH2 0x193 JUMPI PUSH1 0x40 MLOAD PUSH1 0x0 PUSH1 0x1 SWAP1 DUP2 SLOAD SWAP2 DUP3 DUP2 SHR SWAP2 DUP2 DUP5 AND SWAP2 DUP3 ISZERO PUSH2 0x881 JUMPI JUMPDEST PUSH1 0x20 SWAP5 DUP6 DUP6 LT DUP5 EQ PUSH2 0x86B JUMPI DUP6 DUP8 SWAP5 DUP7 DUP7 MSTORE SWAP2 DUP3 PUSH1 0x0 EQ PUSH2 0x84B JUMPI POP POP PUSH1 0x1 EQ PUSH2 0x7F1 JUMPI JUMPDEST POP PUSH2 0x5AB SWAP3 POP SUB DUP4 PUSH2 0x14C6 JUMP JUMPDEST PUSH1 0x0 DUP2 DUP2 MSTORE DUP6 SWAP3 POP SWAP1 PUSH32 0xB10E2D527612073B26EECDFD717E6A320CF44B4AFAC2B0732D9FCBE2B7FA0CF6 JUMPDEST DUP6 DUP4 LT PUSH2 0x833 JUMPI POP POP PUSH2 0x5AB SWAP4 POP DUP3 ADD ADD DUP6 PUSH2 0x7E4 JUMP JUMPDEST DUP1 SLOAD DUP4 DUP10 ADD DUP6 ADD MSTORE DUP8 SWAP5 POP DUP7 SWAP4 SWAP1 SWAP3 ADD SWAP2 DUP2 ADD PUSH2 0x81C JUMP JUMPDEST PUSH1 0xFF NOT AND DUP6 DUP3 ADD MSTORE PUSH2 0x5AB SWAP6 ISZERO ISZERO PUSH1 0x5 SHL DUP6 ADD ADD SWAP3 POP DUP8 SWAP2 POP PUSH2 0x7E4 SWAP1 POP JUMP JUMPDEST PUSH4 0x4E487B71 PUSH1 0xE0 SHL PUSH1 0x0 MSTORE PUSH1 0x22 PUSH1 0x4 MSTORE PUSH1 0x24 PUSH1 0x0 REVERT JUMPDEST SWAP3 PUSH1 0x7F AND SWAP3 PUSH2 0x7BF JUMP JUMPDEST CALLVALUE PUSH2 0x193 JUMPI PUSH1 0x20 CALLDATASIZE PUSH1 0x3 NOT ADD SLT PUSH2 0x193 JUMPI PUSH1 0x20 PUSH2 0x1B3 PUSH2 0x8A9 PUSH2 0x142D JUMP JUMPDEST PUSH2 0x1504 JUMP JUMPDEST CALLVALUE PUSH2 0x193 JUMPI PUSH1 0x20 CALLDATASIZE PUSH1 0x3 NOT ADD SLT PUSH2 0x193 JUMPI PUSH2 0x5BF PUSH2 0x8CD PUSH1 0x4 CALLDATALOAD PUSH2 0x1A26 JUMP JUMPDEST PUSH1 0x40 MLOAD SWAP2 DUP3 SWAP2 PUSH1 0x20 DUP4 MSTORE PUSH1 0x20 DUP4 ADD SWAP1 PUSH2 0x1408 JUMP JUMPDEST CALLVALUE PUSH2 0x193 JUMPI PUSH1 0x0 CALLDATASIZE PUSH1 0x3 NOT ADD SLT PUSH2 0x193 JUMPI PUSH1 0xFF PUSH1 0xB SLOAD AND ISZERO DUP1 PUSH2 0x90C JUMPI JUMPDEST PUSH1 0x20 SWAP1 PUSH1 0x40 MLOAD SWAP1 ISZERO ISZERO DUP2 MSTORE RETURN JUMPDEST POP PUSH1 0xA SLOAD TIMESTAMP GT ISZERO PUSH2 0x8FF JUMP JUMPDEST CALLVALUE PUSH2 0x193 JUMPI PUSH1 0x20 CALLDATASIZE PUSH1 0x3 NOT ADD SLT PUSH2 0x193 JUMPI PUSH1 0x20 PUSH2 0x936 PUSH1 0x4 CALLDATALOAD PUSH2 0x17CF JUMP JUMPDEST PUSH1 0x40 MLOAD PUSH1 0x1 PUSH1 0x1 PUSH1 0xA0 SHL SUB SWAP1 SWAP2 AND DUP2 MSTORE RETURN JUMPDEST CALLVALUE PUSH2 0x193 JUMPI PUSH1 0x20 CALLDATASIZE PUSH1 0x3 NOT ADD SLT PUSH2 0x193 JUMPI PUSH1 0x4 CALLDATALOAD PUSH1 0x8 SLOAD DUP2 LT ISZERO PUSH2 0x97F JUMPI PUSH2 0x971 PUSH1 0x20 SWAP2 PUSH2 0x180A JUMP JUMPDEST SWAP1 SLOAD PUSH1 0x40 MLOAD SWAP2 PUSH1 0x3 SHL SHR DUP2 MSTORE RETURN JUMPDEST PUSH1 0x44 SWAP1 PUSH1 0x40 MLOAD SWAP1 PUSH4 0x295F44F7 PUSH1 0xE2 SHL DUP3 MSTORE PUSH1 0x0 PUSH1 0x4 DUP4 ADD MSTORE PUSH1 0x24 DUP3 ADD MSTORE REVERT JUMPDEST CALLVALUE PUSH2 0x193 JUMPI PUSH1 0x0 CALLDATASIZE PUSH1 0x3 NOT ADD SLT PUSH2 0x193 JUMPI PUSH1 0x20 PUSH1 0xFF PUSH1 0xB SLOAD AND PUSH1 0x40 MLOAD SWAP1 ISZERO ISZERO DUP2 MSTORE RETURN JUMPDEST CALLVALUE PUSH2 0x193 JUMPI PUSH1 0x0 CALLDATASIZE PUSH1 0x3 NOT ADD SLT PUSH2 0x193 JUMPI PUSH1 0x20 PUSH1 0x40 MLOAD PUSH3 0x15180 DUP2 MSTORE RETURN JUMPDEST CALLVALUE PUSH2 0x193 JUMPI PUSH2 0x6C2 PUSH2 0x9F0 CALLDATASIZE PUSH2 0x1459 JUMP JUMPDEST SWAP1 PUSH1 0x40 MLOAD SWAP3 PUSH2 0x9FE DUP5 PUSH2 0x148E JUMP JUMPDEST PUSH1 0x0 DUP5 MSTORE PUSH2 0x6BC DUP4 DUP4 DUP4 PUSH2 0x153D JUMP JUMPDEST CALLVALUE PUSH2 0x193 JUMPI PUSH1 0x40 CALLDATASIZE PUSH1 0x3 NOT ADD SLT PUSH2 0x193 JUMPI PUSH2 0xA26 PUSH2 0x142D JUMP JUMPDEST PUSH1 0xFF PUSH1 0xB SLOAD AND PUSH2 0xFAE JUMPI PUSH1 0xA SLOAD TIMESTAMP GT PUSH2 0xF69 JUMPI PUSH2 0xA47 PUSH1 0x24 CALLDATALOAD PUSH1 0xC SLOAD PUSH2 0x19C1 JUMP JUMPDEST PUSH1 0x0 NOT DUP2 ADD SWAP1 DUP2 GT PUSH2 0x617 JUMPI PUSH1 0x64 LT PUSH2 0xF24 JUMPI PUSH1 0x1 PUSH1 0x1 PUSH1 0xA0 SHL SUB DUP2 AND ISZERO DUP1 PUSH2 0xEDF JUMPI PUSH1 0x24 CALLDATALOAD ISZERO ISZERO DUP1 PUSH2 0xED2 JUMPI JUMPDEST ISZERO PUSH2 0xE9A JUMPI PUSH1 0x0 JUMPDEST PUSH1 0x24 CALLDATALOAD DUP2 LT PUSH2 0xA9A JUMPI PUSH1 0x64 PUSH1 0xC SLOAD GT PUSH2 0xA92 JUMPI STOP JUMPDEST PUSH2 0x6C2 PUSH2 0x19DD JUMP JUMPDEST PUSH1 0xC SLOAD PUSH2 0xAA6 DUP2 PUSH2 0x19CE JUMP JUMPDEST PUSH1 0xC SSTORE PUSH1 0x40 MLOAD SWAP3 PUSH2 0xAB6 DUP5 PUSH2 0x148E JUMP JUMPDEST PUSH1 0x0 DUP5 MSTORE PUSH2 0xE81 JUMPI PUSH1 0x0 DUP2 DUP2 MSTORE PUSH1 0x2 PUSH1 0x20 DUP2 SWAP1 MSTORE PUSH1 0x40 SWAP1 SWAP2 KECCAK256 SLOAD PUSH1 0x1 PUSH1 0x1 PUSH1 0xA0 SHL SUB AND SWAP4 SWAP1 DUP5 ISZERO SWAP1 DUP2 ISZERO PUSH2 0xE4A JUMPI JUMPDEST PUSH1 0x1 PUSH1 0x1 PUSH1 0xA0 SHL SUB DUP8 AND PUSH1 0x0 DUP2 DUP2 MSTORE PUSH1 0x3 PUSH1 0x20 SWAP1 DUP2 MSTORE PUSH1 0x40 DUP1 DUP4 KECCAK256 DUP1 SLOAD PUSH1 0x1 ADD SWAP1 SSTORE DUP8 DUP4 MSTORE SWAP4 SWAP1 MSTORE SWAP2 DUP3 KECCAK256 DUP1 SLOAD PUSH1 0x1 PUSH1 0x1 PUSH1 0xA0 SHL SUB NOT AND DUP3 OR SWAP1 SSTORE DUP5 SWAP2 DUP8 SWAP1 PUSH32 0xDDF252AD1BE2C89B69C2B068FC378DAA952BA7F163C4A11628F55A4DF523B3EF SWAP1 DUP1 LOG4 DUP1 ISZERO PUSH2 0xDBB JUMPI PUSH1 0x8 SLOAD DUP4 PUSH1 0x0 MSTORE PUSH1 0x9 PUSH1 0x20 MSTORE DUP1 PUSH1 0x40 PUSH1 0x0 KECCAK256 SSTORE PUSH1 0x1 PUSH1 0x40 SHL DUP2 LT ISZERO PUSH2 0xDA5 JUMPI DUP4 PUSH2 0xB81 DUP3 PUSH1 0x1 PUSH2 0xB9A SWAP5 ADD PUSH1 0x8 SSTORE PUSH2 0x180A JUMP JUMPDEST SWAP1 SWAP2 SWAP1 DUP3 SLOAD SWAP1 PUSH1 0x3 SHL SWAP2 DUP3 SHL SWAP2 PUSH1 0x0 NOT SWAP1 SHL NOT AND OR SWAP1 SSTORE JUMP JUMPDEST PUSH1 0x0 SWAP5 PUSH1 0x1 PUSH1 0x1 PUSH1 0xA0 SHL SUB DUP8 AND SUB PUSH2 0xD51 JUMPI JUMPDEST ISZERO PUSH2 0xD38 JUMPI DUP5 EXTCODESIZE PUSH2 0xC00 JUMPI JUMPDEST POP PUSH1 0x40 MLOAD SWAP1 DUP2 MSTORE PUSH2 0xBFB SWAP2 SWAP1 PUSH1 0x1 PUSH1 0x1 PUSH1 0xA0 SHL SUB DUP6 AND SWAP1 PUSH32 0x9C849B4B70070724CC5397B607E02A7A1AE411A1973FB5300A92DAC1204AF74F SWAP1 PUSH1 0x20 SWAP1 LOG2 PUSH2 0x19CE JUMP JUMPDEST PUSH2 0xA7D JUMP JUMPDEST PUSH1 0x40 MLOAD PUSH1 0x20 DUP2 DUP1 PUSH2 0xC3A PUSH4 0xA85BD01 PUSH1 0xE1 SHL SWAP6 DUP7 DUP4 MSTORE CALLER PUSH1 0x4 DUP5 ADD MSTORE PUSH1 0x0 PUSH1 0x24 DUP5 ADD MSTORE DUP8 PUSH1 0x44 DUP5 ADD MSTORE PUSH1 0x80 PUSH1 0x64 DUP5 ADD MSTORE PUSH1 0x84 DUP4 ADD SWAP1 PUSH2 0x1408 JUMP JUMPDEST SUB DUP2 PUSH1 0x0 PUSH1 0x1 PUSH1 0x1 PUSH1 0xA0 SHL SUB DUP12 AND GAS CALL PUSH1 0x0 SWAP2 DUP2 PUSH2 0xCF3 JUMPI JUMPDEST POP PUSH2 0xCBB JUMPI DUP6 RETURNDATASIZE ISZERO PUSH2 0xCB3 JUMPI RETURNDATASIZE SWAP1 PUSH2 0xC6A DUP3 PUSH2 0x14E8 JUMP JUMPDEST SWAP2 PUSH2 0xC78 PUSH1 0x40 MLOAD SWAP4 DUP5 PUSH2 0x14C6 JUMP JUMPDEST DUP3 MSTORE RETURNDATASIZE PUSH1 0x0 PUSH1 0x20 DUP5 ADD RETURNDATACOPY JUMPDEST DUP2 MLOAD SWAP2 DUP3 PUSH2 0xCAC JUMPI PUSH1 0x40 MLOAD PUSH4 0x32505749 PUSH1 0xE1 SHL DUP2 MSTORE PUSH1 0x1 PUSH1 0x1 PUSH1 0xA0 SHL SUB DUP4 AND PUSH1 0x4 DUP3 ADD MSTORE PUSH1 0x24 SWAP1 REVERT JUMPDEST PUSH1 0x20 SWAP2 POP ADD REVERT JUMPDEST PUSH1 0x60 SWAP1 PUSH2 0xC83 JUMP JUMPDEST PUSH1 0x1 PUSH1 0x1 PUSH1 0xE0 SHL SUB NOT AND SUB PUSH2 0xCD2 JUMPI PUSH2 0xBFB PUSH2 0xBB9 JUMP JUMPDEST PUSH1 0x40 MLOAD PUSH4 0x32505749 PUSH1 0xE1 SHL DUP2 MSTORE PUSH1 0x1 PUSH1 0x1 PUSH1 0xA0 SHL SUB DUP6 AND PUSH1 0x4 DUP3 ADD MSTORE PUSH1 0x24 SWAP1 REVERT JUMPDEST SWAP1 SWAP2 POP PUSH1 0x20 DUP2 RETURNDATASIZE PUSH1 0x20 GT PUSH2 0xD30 JUMPI JUMPDEST DUP2 PUSH2 0xD0F PUSH1 0x20 SWAP4 DUP4 PUSH2 0x14C6 JUMP JUMPDEST DUP2 ADD SUB SLT PUSH2 0x193 JUMPI MLOAD PUSH1 0x1 PUSH1 0x1 PUSH1 0xE0 SHL SUB NOT DUP2 AND DUP2 SUB PUSH2 0x193 JUMPI SWAP1 DUP8 PUSH2 0xC53 JUMP JUMPDEST RETURNDATASIZE SWAP2 POP PUSH2 0xD02 JUMP JUMPDEST PUSH1 0x40 MLOAD PUSH4 0x39E35637 PUSH1 0xE1 SHL DUP2 MSTORE PUSH1 0x0 PUSH1 0x4 DUP3 ADD MSTORE PUSH1 0x24 SWAP1 REVERT JUMPDEST PUSH2 0xD5A DUP7 PUSH2 0x1504 JUMP JUMPDEST DUP1 PUSH1 0x0 NOT DUP2 ADD GT PUSH2 0x617 JUMPI PUSH1 0x1 DUP1 PUSH1 0xA0 SHL SUB DUP8 AND PUSH1 0x0 MSTORE PUSH1 0x6 PUSH1 0x20 MSTORE PUSH1 0x40 PUSH1 0x0 KECCAK256 PUSH1 0x0 NOT DUP3 ADD PUSH1 0x0 MSTORE PUSH1 0x20 MSTORE DUP4 PUSH1 0x40 PUSH1 0x0 KECCAK256 SSTORE DUP4 PUSH1 0x0 MSTORE PUSH1 0x7 PUSH1 0x20 MSTORE PUSH1 0x0 NOT ADD PUSH1 0x40 PUSH1 0x0 KECCAK256 SSTORE PUSH2 0xBAD JUMP JUMPDEST PUSH4 0x4E487B71 PUSH1 0xE0 SHL PUSH1 0x0 MSTORE PUSH1 0x41 PUSH1 0x4 MSTORE PUSH1 0x24 PUSH1 0x0 REVERT JUMPDEST PUSH1 0x1 PUSH1 0x1 PUSH1 0xA0 SHL SUB DUP7 AND DUP6 EQ PUSH2 0xB9A JUMPI PUSH2 0xDD4 DUP6 PUSH2 0x1504 JUMP JUMPDEST DUP4 PUSH1 0x0 MSTORE PUSH1 0x7 SWAP1 DUP2 PUSH1 0x20 MSTORE PUSH1 0x40 PUSH1 0x0 KECCAK256 SLOAD SWAP2 DUP8 PUSH1 0x0 MSTORE PUSH1 0x6 PUSH1 0x20 MSTORE PUSH1 0x40 PUSH1 0x0 KECCAK256 SWAP3 DUP3 DUP2 SUB PUSH2 0xE1E JUMPI JUMPDEST POP DUP6 PUSH1 0x0 MSTORE PUSH1 0x20 MSTORE PUSH1 0x0 PUSH1 0x40 DUP2 KECCAK256 SSTORE PUSH1 0x0 MSTORE PUSH1 0x20 MSTORE PUSH1 0x0 PUSH1 0x40 DUP2 KECCAK256 SSTORE PUSH2 0xB9A JUMP JUMPDEST DUP3 PUSH1 0x0 MSTORE DUP4 PUSH1 0x20 MSTORE PUSH1 0x40 PUSH1 0x0 KECCAK256 SLOAD DUP2 PUSH1 0x0 MSTORE DUP1 PUSH1 0x40 PUSH1 0x0 KECCAK256 SSTORE PUSH1 0x0 MSTORE DUP2 PUSH1 0x20 MSTORE PUSH1 0x40 PUSH1 0x0 KECCAK256 SSTORE DUP10 PUSH2 0xDFD JUMP JUMPDEST PUSH1 0x0 DUP5 DUP2 MSTORE PUSH1 0x4 PUSH1 0x20 MSTORE PUSH1 0x40 SWAP1 KECCAK256 DUP1 SLOAD PUSH1 0x1 PUSH1 0x1 PUSH1 0xA0 SHL SUB NOT AND SWAP1 SSTORE DUP6 PUSH1 0x0 MSTORE PUSH1 0x3 PUSH1 0x20 MSTORE PUSH1 0x40 PUSH1 0x0 KECCAK256 PUSH1 0x0 NOT DUP2 SLOAD ADD SWAP1 SSTORE PUSH2 0xAE5 JUMP JUMPDEST PUSH1 0x40 MLOAD PUSH4 0x32505749 PUSH1 0xE1 SHL DUP2 MSTORE PUSH1 0x0 PUSH1 0x4 DUP3 ADD MSTORE PUSH1 0x24 SWAP1 REVERT JUMPDEST PUSH1 0x40 MLOAD PUSH3 0x461BCD PUSH1 0xE5 SHL DUP2 MSTORE PUSH1 0x20 PUSH1 0x4 DUP3 ADD MSTORE PUSH1 0x10 PUSH1 0x24 DUP3 ADD MSTORE PUSH16 0x496E76616C6964207175616E74697479 PUSH1 0x80 SHL PUSH1 0x44 DUP3 ADD MSTORE PUSH1 0x64 SWAP1 REVERT JUMPDEST POP PUSH1 0xA PUSH1 0x24 CALLDATALOAD GT ISZERO PUSH2 0xA75 JUMP JUMPDEST PUSH1 0x40 MLOAD PUSH3 0x461BCD PUSH1 0xE5 SHL DUP2 MSTORE PUSH1 0x20 PUSH1 0x4 DUP3 ADD MSTORE PUSH1 0x1B PUSH1 0x24 DUP3 ADD MSTORE PUSH32 0x43616E6E6F74206D696E7420746F207A65726F20616464726573730000000000 PUSH1 0x44 DUP3 ADD MSTORE PUSH1 0x64 SWAP1 REVERT JUMPDEST PUSH1 0x40 MLOAD PUSH3 0x461BCD PUSH1 0xE5 SHL DUP2 MSTORE PUSH1 0x20 PUSH1 0x4 DUP3 ADD MSTORE PUSH1 0x17 PUSH1 0x24 DUP3 ADD MSTORE PUSH32 0x576F756C6420657863656564206D617820737570706C79000000000000000000 PUSH1 0x44 DUP3 ADD MSTORE PUSH1 0x64 SWAP1 REVERT JUMPDEST PUSH1 0x40 MLOAD PUSH3 0x461BCD PUSH1 0xE5 SHL DUP2 MSTORE PUSH1 0x20 PUSH1 0x4 DUP3 ADD MSTORE PUSH1 0x1A PUSH1 0x24 DUP3 ADD MSTORE PUSH32 0x4D696E74696E672077696E646F77206861732065787069726564000000000000 PUSH1 0x44 DUP3 ADD MSTORE PUSH1 0x64 SWAP1 REVERT JUMPDEST PUSH1 0x40 MLOAD PUSH3 0x461BCD PUSH1 0xE5 SHL DUP2 MSTORE PUSH1 0x20 PUSH1 0x4 DUP3 ADD MSTORE PUSH1 0x1A PUSH1 0x24 DUP3 ADD MSTORE PUSH32 0x4D696E74696E6720686173206265656E2066696E616C697A6564000000000000 PUSH1 0x44 DUP3 ADD MSTORE PUSH1 0x64 SWAP1 REVERT JUMPDEST CALLVALUE PUSH2 0x193 JUMPI PUSH1 0x0 CALLDATASIZE PUSH1 0x3 NOT ADD SLT PUSH2 0x193 JUMPI PUSH1 0x20 PUSH1 0x40 MLOAD PUSH1 0x64 DUP2 MSTORE RETURN JUMPDEST CALLVALUE PUSH2 0x193 JUMPI PUSH1 0x40 CALLDATASIZE PUSH1 0x3 NOT ADD SLT PUSH2 0x193 JUMPI PUSH2 0x1028 PUSH2 0x142D JUMP JUMPDEST PUSH1 0x24 CALLDATALOAD SWAP1 PUSH2 0x1035 DUP2 PUSH2 0x1504 JUMP JUMPDEST DUP3 LT ISZERO PUSH2 0x1068 JUMPI PUSH1 0x1 DUP1 PUSH1 0xA0 SHL SUB AND PUSH1 0x0 MSTORE PUSH1 0x6 PUSH1 0x20 MSTORE PUSH1 0x40 PUSH1 0x0 KECCAK256 SWAP1 PUSH1 0x0 MSTORE PUSH1 0x20 MSTORE PUSH1 0x20 PUSH1 0x40 PUSH1 0x0 KECCAK256 SLOAD PUSH1 0x40 MLOAD SWAP1 DUP2 MSTORE RETURN JUMPDEST PUSH1 0x40 MLOAD PUSH4 0x295F44F7 PUSH1 0xE2 SHL DUP2 MSTORE PUSH1 0x1 PUSH1 0x1 PUSH1 0xA0 SHL SUB SWAP2 SWAP1 SWAP2 AND PUSH1 0x4 DUP3 ADD MSTORE PUSH1 0x24 DUP2 ADD SWAP2 SWAP1 SWAP2 MSTORE PUSH1 0x44 SWAP1 REVERT JUMPDEST CALLVALUE PUSH2 0x193 JUMPI PUSH1 0x0 CALLDATASIZE PUSH1 0x3 NOT ADD SLT PUSH2 0x193 JUMPI PUSH1 0xFF PUSH1 0xB SLOAD AND PUSH2 0x110E JUMPI PUSH1 0xA SLOAD TIMESTAMP GT DUP1 ISZERO PUSH2 0x1102 JUMPI JUMPDEST ISZERO PUSH2 0x10C7 JUMPI PUSH2 0x6C2 PUSH2 0x19DD JUMP JUMPDEST PUSH1 0x40 MLOAD PUSH3 0x461BCD PUSH1 0xE5 SHL DUP2 MSTORE PUSH1 0x20 PUSH1 0x4 DUP3 ADD MSTORE PUSH1 0x13 PUSH1 0x24 DUP3 ADD MSTORE PUSH19 0x10D85B9B9BDD08199A5B985B1A5E99481E595D PUSH1 0x6A SHL PUSH1 0x44 DUP3 ADD MSTORE PUSH1 0x64 SWAP1 REVERT JUMPDEST POP PUSH1 0x64 PUSH1 0xC SLOAD GT PUSH2 0x10BA JUMP JUMPDEST PUSH1 0x40 MLOAD PUSH3 0x461BCD PUSH1 0xE5 SHL DUP2 MSTORE PUSH1 0x20 PUSH1 0x4 DUP3 ADD MSTORE PUSH1 0x11 PUSH1 0x24 DUP3 ADD MSTORE PUSH17 0x105B1C9958591E48199A5B985B1A5E9959 PUSH1 0x7A SHL PUSH1 0x44 DUP3 ADD MSTORE PUSH1 0x64 SWAP1 REVERT JUMPDEST CALLVALUE PUSH2 0x193 JUMPI PUSH2 0x6C2 PUSH2 0x1158 CALLDATASIZE PUSH2 0x1459 JUMP JUMPDEST SWAP2 PUSH2 0x153D JUMP JUMPDEST CALLVALUE PUSH2 0x193 JUMPI PUSH1 0x0 CALLDATASIZE PUSH1 0x3 NOT ADD SLT PUSH2 0x193 JUMPI PUSH1 0x20 PUSH1 0x8 SLOAD PUSH1 0x40 MLOAD SWAP1 DUP2 MSTORE RETURN JUMPDEST CALLVALUE PUSH2 0x193 JUMPI PUSH1 0x40 CALLDATASIZE PUSH1 0x3 NOT ADD SLT PUSH2 0x193 JUMPI PUSH2 0x1195 PUSH2 0x142D JUMP JUMPDEST PUSH1 0x24 CALLDATALOAD PUSH2 0x11A1 DUP2 PUSH2 0x17CF JUMP JUMPDEST CALLER ISZERO ISZERO DUP1 PUSH2 0x1250 JUMPI JUMPDEST DUP1 PUSH2 0x1223 JUMPI JUMPDEST PUSH2 0x120B JUMPI PUSH1 0x1 PUSH1 0x1 PUSH1 0xA0 SHL SUB SWAP3 DUP4 AND SWAP3 DUP3 SWAP2 DUP5 SWAP2 AND PUSH32 0x8C5BE1E5EBEC7D5BD14F71427D1E84F3DD0314C0F7B2291E5B200AC8C7C3B925 PUSH1 0x0 DUP1 LOG4 PUSH1 0x0 SWAP1 DUP2 MSTORE PUSH1 0x4 PUSH1 0x20 MSTORE PUSH1 0x40 SWAP1 KECCAK256 DUP1 SLOAD PUSH1 0x1 PUSH1 0x1 PUSH1 0xA0 SHL SUB NOT AND SWAP1 SWAP2 OR SWAP1 SSTORE STOP JUMPDEST PUSH1 0x40 MLOAD PUSH4 0xA9FBF51F PUSH1 0xE0 SHL DUP2 MSTORE CALLER PUSH1 0x4 DUP3 ADD MSTORE PUSH1 0x24 SWAP1 REVERT JUMPDEST POP PUSH1 0x1 DUP1 PUSH1 0xA0 SHL SUB DUP2 AND PUSH1 0x0 MSTORE PUSH1 0x5 PUSH1 0x20 MSTORE PUSH1 0x40 PUSH1 0x0 KECCAK256 CALLER PUSH1 0x0 MSTORE PUSH1 0x20 MSTORE PUSH1 0xFF PUSH1 0x40 PUSH1 0x0 KECCAK256 SLOAD AND ISZERO PUSH2 0x11B0 JUMP JUMPDEST POP PUSH1 0x1 PUSH1 0x1 PUSH1 0xA0 SHL SUB DUP2 AND CALLER EQ ISZERO PUSH2 0x11AA JUMP JUMPDEST CALLVALUE PUSH2 0x193 JUMPI PUSH1 0x20 CALLDATASIZE PUSH1 0x3 NOT ADD SLT PUSH2 0x193 JUMPI PUSH1 0x4 CALLDATALOAD PUSH2 0x1280 DUP2 PUSH2 0x17CF JUMP JUMPDEST POP PUSH1 0x0 MSTORE PUSH1 0x4 PUSH1 0x20 MSTORE PUSH1 0x20 PUSH1 0x1 DUP1 PUSH1 0xA0 SHL SUB PUSH1 0x40 PUSH1 0x0 KECCAK256 SLOAD AND PUSH1 0x40 MLOAD SWAP1 DUP2 MSTORE RETURN JUMPDEST CALLVALUE PUSH2 0x193 JUMPI PUSH1 0x0 CALLDATASIZE PUSH1 0x3 NOT ADD SLT PUSH2 0x193 JUMPI PUSH1 0x40 MLOAD PUSH1 0x0 DUP1 SLOAD SWAP1 PUSH1 0x1 DUP3 DUP2 SHR SWAP2 DUP2 DUP5 AND SWAP2 DUP3 ISZERO PUSH2 0x1356 JUMPI JUMPDEST PUSH1 0x20 SWAP5 DUP6 DUP6 LT DUP5 EQ PUSH2 0x86B JUMPI DUP6 DUP8 SWAP5 DUP7 DUP7 MSTORE SWAP2 DUP3 PUSH1 0x0 EQ PUSH2 0x84B JUMPI POP POP PUSH1 0x1 EQ PUSH2 0x12FC JUMPI POP PUSH2 0x5AB SWAP3 POP SUB DUP4 PUSH2 0x14C6 JUMP JUMPDEST PUSH1 0x0 DUP1 DUP1 MSTORE DUP6 SWAP3 POP SWAP1 PUSH32 0x290DECD9548B62A8D60345A988386FC84BA6BC95484008F6362F93160EF3E563 JUMPDEST DUP6 DUP4 LT PUSH2 0x133E JUMPI POP POP PUSH2 0x5AB SWAP4 POP DUP3 ADD ADD DUP6 PUSH2 0x7E4 JUMP JUMPDEST DUP1 SLOAD DUP4 DUP10 ADD DUP6 ADD MSTORE DUP8 SWAP5 POP DUP7 SWAP4 SWAP1 SWAP3 ADD SWAP2 DUP2 ADD PUSH2 0x1327 JUMP JUMPDEST SWAP3 PUSH1 0x7F AND SWAP3 PUSH2 0x12CB JUMP JUMPDEST CALLVALUE PUSH2 0x193 JUMPI PUSH1 0x20 CALLDATASIZE PUSH1 0x3 NOT ADD SLT PUSH2 0x193 JUMPI PUSH1 0x4 CALLDATALOAD SWAP1 PUSH4 0xFFFFFFFF PUSH1 0xE0 SHL DUP3 AND DUP1 SWAP3 SUB PUSH2 0x193 JUMPI PUSH1 0x20 SWAP2 PUSH4 0x780E9D63 PUSH1 0xE0 SHL DUP2 EQ SWAP1 DUP2 ISZERO PUSH2 0x13A2 JUMPI JUMPDEST POP ISZERO ISZERO DUP2 MSTORE RETURN JUMPDEST PUSH4 0x80AC58CD PUSH1 0xE0 SHL DUP2 EQ SWAP2 POP DUP2 ISZERO PUSH2 0x13D4 JUMPI JUMPDEST DUP2 ISZERO PUSH2 0x13C3 JUMPI JUMPDEST POP DUP4 PUSH2 0x139B JUMP JUMPDEST PUSH4 0x1FFC9A7 PUSH1 0xE0 SHL EQ SWAP1 POP DUP4 PUSH2 0x13BC JUMP JUMPDEST PUSH4 0x5B5E139F PUSH1 0xE0 SHL DUP2 EQ SWAP2 POP PUSH2 0x13B5 JUMP JUMPDEST PUSH1 0x0 JUMPDEST DUP4 DUP2 LT PUSH2 0x13F8 JUMPI POP POP PUSH1 0x0 SWAP2 ADD MSTORE JUMP JUMPDEST DUP2 DUP2 ADD MLOAD DUP4 DUP3 ADD MSTORE PUSH1 0x20 ADD PUSH2 0x13E8 JUMP JUMPDEST SWAP1 PUSH1 0x20 SWAP2 PUSH2 0x1421 DUP2 MLOAD DUP1 SWAP3 DUP2 DUP6 MSTORE DUP6 DUP1 DUP7 ADD SWAP2 ADD PUSH2 0x13E5 JUMP JUMPDEST PUSH1 0x1F ADD PUSH1 0x1F NOT AND ADD ADD SWAP1 JUMP JUMPDEST PUSH1 0x4 CALLDATALOAD SWAP1 PUSH1 0x1 PUSH1 0x1 PUSH1 0xA0 SHL SUB DUP3 AND DUP3 SUB PUSH2 0x193 JUMPI JUMP JUMPDEST PUSH1 0x24 CALLDATALOAD SWAP1 PUSH1 0x1 PUSH1 0x1 PUSH1 0xA0 SHL SUB DUP3 AND DUP3 SUB PUSH2 0x193 JUMPI JUMP JUMPDEST PUSH1 0x60 SWAP1 PUSH1 0x3 NOT ADD SLT PUSH2 0x193 JUMPI PUSH1 0x1 PUSH1 0x1 PUSH1 0xA0 SHL SUB SWAP1 PUSH1 0x4 CALLDATALOAD DUP3 DUP2 AND DUP2 SUB PUSH2 0x193 JUMPI SWAP2 PUSH1 0x24 CALLDATALOAD SWAP1 DUP2 AND DUP2 SUB PUSH2 0x193 JUMPI SWAP1 PUSH1 0x44 CALLDATALOAD SWAP1 JUMP JUMPDEST PUSH1 0x20 DUP2 ADD SWAP1 DUP2 LT PUSH8 0xFFFFFFFFFFFFFFFF DUP3 GT OR PUSH2 0xDA5 JUMPI PUSH1 0x40 MSTORE JUMP JUMPDEST PUSH1 0x60 DUP2 ADD SWAP1 DUP2 LT PUSH8 0xFFFFFFFFFFFFFFFF DUP3 GT OR PUSH2 0xDA5 JUMPI PUSH1 0x40 MSTORE JUMP JUMPDEST SWAP1 PUSH1 0x1F DUP1 NOT SWAP2 ADD AND DUP2 ADD SWAP1 DUP2 LT PUSH8 0xFFFFFFFFFFFFFFFF DUP3 GT OR PUSH2 0xDA5 JUMPI PUSH1 0x40 MSTORE JUMP JUMPDEST PUSH8 0xFFFFFFFFFFFFFFFF DUP2 GT PUSH2 0xDA5 JUMPI PUSH1 0x1F ADD PUSH1 0x1F NOT AND PUSH1 0x20 ADD SWAP1 JUMP JUMPDEST PUSH1 0x1 PUSH1 0x1 PUSH1 0xA0 SHL SUB AND DUP1 ISZERO PUSH2 0x1524 JUMPI PUSH1 0x0 MSTORE PUSH1 0x3 PUSH1 0x20 MSTORE PUSH1 0x40 PUSH1 0x0 KECCAK256 SLOAD SWAP1 JUMP JUMPDEST PUSH1 0x40 MLOAD PUSH4 0x22718AD9 PUSH1 0xE2 SHL DUP2 MSTORE PUSH1 0x0 PUSH1 0x4 DUP3 ADD MSTORE PUSH1 0x24 SWAP1 REVERT JUMPDEST PUSH1 0x1 PUSH1 0x1 PUSH1 0xA0 SHL SUB DUP3 DUP2 AND SWAP4 SWAP2 DUP5 ISZERO PUSH2 0xE81 JUMPI PUSH1 0x0 SWAP5 DUP4 DUP7 MSTORE PUSH1 0x20 SWAP6 PUSH1 0x2 DUP8 MSTORE PUSH1 0x40 SWAP7 DUP5 DUP9 DUP4 KECCAK256 SLOAD AND SWAP7 CALLER ISZERO ISZERO DUP1 PUSH2 0x1741 JUMPI JUMPDEST POP DUP8 ISZERO DUP1 ISZERO PUSH2 0x170E JUMPI JUMPDEST DUP5 DUP5 MSTORE PUSH1 0x3 DUP4 MSTORE DUP10 DUP5 KECCAK256 DUP1 SLOAD PUSH1 0x1 ADD SWAP1 SSTORE DUP8 DUP5 MSTORE PUSH1 0x2 DUP4 MSTORE DUP10 DUP5 KECCAK256 DUP1 SLOAD PUSH1 0x1 PUSH1 0x1 PUSH1 0xA0 SHL SUB NOT AND DUP7 OR SWAP1 SSTORE DUP8 DUP6 DUP11 PUSH32 0xDDF252AD1BE2C89B69C2B068FC378DAA952BA7F163C4A11628F55A4DF523B3EF DUP8 DUP1 LOG4 ISZERO PUSH2 0x16A2 JUMPI PUSH1 0x8 SLOAD DUP8 DUP5 MSTORE PUSH1 0x9 DUP4 MSTORE DUP1 DUP11 DUP6 KECCAK256 SSTORE PUSH1 0x1 PUSH1 0x40 SHL DUP2 LT ISZERO PUSH2 0x168E JUMPI DUP8 PUSH2 0xB81 DUP3 PUSH1 0x1 PUSH2 0x1600 SWAP5 ADD PUSH1 0x8 SSTORE PUSH2 0x180A JUMP JUMPDEST DUP4 DUP9 SUB PUSH2 0x163C JUMPI JUMPDEST POP POP POP POP AND SWAP3 DUP4 DUP4 SUB PUSH2 0x161B JUMPI POP POP POP POP JUMP JUMPDEST PUSH1 0x64 SWAP5 POP MLOAD SWAP3 PUSH4 0x64283D7B PUSH1 0xE0 SHL DUP5 MSTORE PUSH1 0x4 DUP5 ADD MSTORE PUSH1 0x24 DUP4 ADD MSTORE PUSH1 0x44 DUP3 ADD MSTORE REVERT JUMPDEST PUSH2 0x1645 SWAP1 PUSH2 0x1504 JUMP JUMPDEST PUSH1 0x0 NOT DUP2 ADD SWAP4 SWAP1 DUP5 GT PUSH2 0x167A JUMPI DUP3 SWAP2 PUSH1 0x7 SWAP2 DUP11 SWAP5 MSTORE PUSH1 0x6 DUP2 MSTORE DUP4 DUP4 KECCAK256 DUP6 DUP5 MSTORE DUP2 MSTORE DUP8 DUP5 DUP5 KECCAK256 SSTORE DUP8 DUP4 MSTORE MSTORE KECCAK256 SSTORE CODESIZE DUP1 DUP1 DUP1 PUSH2 0x1608 JUMP JUMPDEST PUSH4 0x4E487B71 PUSH1 0xE0 SHL DUP4 MSTORE PUSH1 0x11 PUSH1 0x4 MSTORE PUSH1 0x24 DUP4 REVERT JUMPDEST PUSH4 0x4E487B71 PUSH1 0xE0 SHL DUP5 MSTORE PUSH1 0x41 PUSH1 0x4 MSTORE PUSH1 0x24 DUP5 REVERT JUMPDEST DUP8 DUP5 EQ PUSH2 0x1600 JUMPI PUSH2 0x16B2 DUP9 PUSH2 0x1504 JUMP JUMPDEST DUP8 DUP5 MSTORE PUSH1 0x7 DUP4 MSTORE DUP10 DUP5 KECCAK256 SLOAD SWAP1 DUP10 DUP6 MSTORE PUSH1 0x6 DUP5 MSTORE DUP11 DUP6 KECCAK256 SWAP2 DUP2 DUP2 SUB PUSH2 0x16EC JUMPI JUMPDEST POP DUP9 DUP6 MSTORE PUSH1 0x7 DUP5 MSTORE DUP5 DUP12 DUP2 KECCAK256 SSTORE DUP5 MSTORE DUP3 MSTORE DUP3 DUP10 DUP2 KECCAK256 SSTORE PUSH2 0x1600 JUMP JUMPDEST DUP2 DUP7 MSTORE DUP3 DUP6 MSTORE DUP12 DUP7 KECCAK256 SLOAD DUP2 DUP8 MSTORE DUP1 DUP14 DUP9 KECCAK256 SSTORE DUP7 MSTORE PUSH1 0x7 DUP6 MSTORE DUP12 DUP7 KECCAK256 SSTORE CODESIZE PUSH2 0x16D1 JUMP JUMPDEST PUSH1 0x0 DUP9 DUP2 MSTORE PUSH1 0x4 PUSH1 0x20 MSTORE PUSH1 0x40 SWAP1 KECCAK256 DUP1 SLOAD PUSH1 0x1 PUSH1 0x1 PUSH1 0xA0 SHL SUB NOT AND SWAP1 SSTORE DUP9 DUP5 MSTORE PUSH1 0x3 DUP4 MSTORE DUP10 DUP5 KECCAK256 DUP1 SLOAD PUSH1 0x0 NOT ADD SWAP1 SSTORE PUSH2 0x157A JUMP JUMPDEST DUP1 PUSH2 0x178E JUMPI JUMPDEST ISZERO PUSH2 0x1752 JUMPI CODESIZE PUSH2 0x1570 JUMP JUMPDEST DUP9 DUP8 DUP10 PUSH2 0x176F JUMPI PUSH1 0x24 SWAP2 MLOAD SWAP1 PUSH4 0x7E273289 PUSH1 0xE0 SHL DUP3 MSTORE PUSH1 0x4 DUP3 ADD MSTORE REVERT JUMPDEST SWAP1 MLOAD PUSH4 0x177E802F PUSH1 0xE0 SHL DUP2 MSTORE CALLER PUSH1 0x4 DUP3 ADD MSTORE PUSH1 0x24 DUP2 ADD SWAP2 SWAP1 SWAP2 MSTORE PUSH1 0x44 SWAP1 REVERT JUMPDEST POP CALLER DUP9 EQ DUP1 ISZERO PUSH2 0x17B3 JUMPI JUMPDEST DUP1 PUSH2 0x1747 JUMPI POP DUP7 DUP4 MSTORE PUSH1 0x4 DUP3 MSTORE CALLER DUP7 DUP11 DUP6 KECCAK256 SLOAD AND EQ PUSH2 0x1747 JUMP JUMPDEST POP DUP8 DUP4 MSTORE PUSH1 0x5 DUP3 MSTORE DUP9 DUP4 KECCAK256 CALLER DUP5 MSTORE DUP3 MSTORE PUSH1 0xFF DUP10 DUP5 KECCAK256 SLOAD AND PUSH2 0x1799 JUMP JUMPDEST PUSH1 0x0 DUP2 DUP2 MSTORE PUSH1 0x2 PUSH1 0x20 MSTORE PUSH1 0x40 SWAP1 KECCAK256 SLOAD PUSH1 0x1 PUSH1 0x1 PUSH1 0xA0 SHL SUB AND SWAP1 DUP2 ISZERO PUSH2 0x17F2 JUMPI POP SWAP1 JUMP JUMPDEST PUSH1 0x24 SWAP1 PUSH1 0x40 MLOAD SWAP1 PUSH4 0x7E273289 PUSH1 0xE0 SHL DUP3 MSTORE PUSH1 0x4 DUP3 ADD MSTORE REVERT JUMPDEST PUSH1 0x8 SLOAD DUP2 LT ISZERO PUSH2 0x1841 JUMPI PUSH1 0x8 PUSH1 0x0 MSTORE PUSH32 0xF3F7A9FE364FAAB93B216DA50A3214154F22A0A2B415B23A84C8169E8B636EE3 ADD SWAP1 PUSH1 0x0 SWAP1 JUMP JUMPDEST PUSH4 0x4E487B71 PUSH1 0xE0 SHL PUSH1 0x0 MSTORE PUSH1 0x32 PUSH1 0x4 MSTORE PUSH1 0x24 PUSH1 0x0 REVERT JUMPDEST PUSH1 0xFA SUB SWAP1 PUSH1 0xFA DUP3 GT PUSH2 0x617 JUMPI JUMP JUMPDEST SWAP1 SWAP4 SWAP2 SWAP3 DUP4 EXTCODESIZE PUSH2 0x1877 JUMPI JUMPDEST POP POP POP POP POP JUMP JUMPDEST PUSH1 0x40 MLOAD PUSH4 0xA85BD01 PUSH1 0xE1 SHL DUP1 DUP3 MSTORE PUSH1 0x1 PUSH1 0x1 PUSH1 0xA0 SHL SUB SWAP4 DUP5 AND PUSH1 0x4 DUP4 ADD MSTORE SWAP6 DUP4 AND PUSH1 0x24 DUP3 ADD MSTORE PUSH1 0x44 DUP2 ADD SWAP2 SWAP1 SWAP2 MSTORE PUSH1 0x80 PUSH1 0x64 DUP3 ADD MSTORE SWAP5 SWAP3 AND SWAP3 PUSH1 0x20 SWAP3 SWAP2 DUP6 SWAP1 PUSH2 0x18C4 SWAP1 PUSH1 0x84 DUP4 ADD SWAP1 PUSH2 0x1408 JUMP JUMPDEST SUB SWAP5 DUP4 DUP2 PUSH1 0x0 SWAP8 DUP2 DUP10 DUP10 GAS CALL DUP7 SWAP2 DUP2 PUSH2 0x196F JUMPI JUMPDEST POP PUSH2 0x1939 JUMPI POP POP POP RETURNDATASIZE PUSH1 0x0 EQ PUSH2 0x1930 JUMPI RETURNDATASIZE PUSH2 0x18F2 DUP2 PUSH2 0x14E8 JUMP JUMPDEST SWAP1 PUSH2 0x1900 PUSH1 0x40 MLOAD SWAP3 DUP4 PUSH2 0x14C6 JUMP JUMPDEST DUP2 MSTORE DUP1 SWAP4 DUP3 RETURNDATASIZE SWAP3 ADD RETURNDATACOPY JUMPDEST DUP3 MLOAD SWAP3 DUP4 PUSH2 0x192B JUMPI PUSH1 0x40 MLOAD PUSH4 0x32505749 PUSH1 0xE1 SHL DUP2 MSTORE PUSH1 0x4 DUP2 ADD DUP5 SWAP1 MSTORE PUSH1 0x24 SWAP1 REVERT JUMPDEST ADD SWAP1 POP REVERT JUMPDEST PUSH1 0x60 SWAP3 POP PUSH2 0x190A JUMP JUMPDEST SWAP2 SWAP5 POP SWAP2 POP PUSH4 0xFFFFFFFF PUSH1 0xE0 SHL AND SUB PUSH2 0x1957 JUMPI POP CODESIZE DUP1 DUP1 DUP1 DUP1 PUSH2 0x1870 JUMP JUMPDEST PUSH1 0x24 SWAP1 PUSH1 0x40 MLOAD SWAP1 PUSH4 0x32505749 PUSH1 0xE1 SHL DUP3 MSTORE PUSH1 0x4 DUP3 ADD MSTORE REVERT JUMPDEST SWAP1 SWAP2 POP DUP5 DUP2 DUP2 RETURNDATASIZE DUP4 GT PUSH2 0x19AC JUMPI JUMPDEST PUSH2 0x1987 DUP2 DUP4 PUSH2 0x14C6 JUMP JUMPDEST DUP2 ADD SUB SLT PUSH2 0x19A8 JUMPI MLOAD PUSH1 0x1 PUSH1 0x1 PUSH1 0xE0 SHL SUB NOT DUP2 AND DUP2 SUB PUSH2 0x19A8 JUMPI SWAP1 CODESIZE PUSH2 0x18D8 JUMP JUMPDEST DUP7 DUP1 REVERT JUMPDEST POP RETURNDATASIZE PUSH2 0x197D JUMP JUMPDEST PUSH1 0xFA ADD SWAP1 DUP2 PUSH1 0xFA GT PUSH2 0x617 JUMPI JUMP JUMPDEST SWAP2 SWAP1 DUP3 ADD DUP1 SWAP3 GT PUSH2 0x617 JUMPI JUMP JUMPDEST PUSH1 0x0 NOT DUP2 EQ PUSH2 0x617 JUMPI PUSH1 0x1 ADD SWAP1 JUMP JUMPDEST PUSH1 0xB DUP1 SLOAD PUSH1 0xFF NOT AND PUSH1 0x1 OR SWAP1 SSTORE PUSH1 0xC SLOAD PUSH1 0x0 NOT DUP2 ADD SWAP1 DUP2 GT PUSH2 0x617 JUMPI PUSH1 0x20 PUSH32 0x6D2A1B7B73A22817B814152D415C7C9B1A3A09F8AF8F76FDF662891E4FB50F2 SWAP2 PUSH1 0x40 MLOAD SWAP1 DUP2 MSTORE LOG1 JUMP JUMPDEST DUP1 ISZERO ISZERO DUP1 PUSH2 0x2642 JUMPI JUMPDEST ISZERO PUSH2 0x260A JUMPI PUSH2 0x1A3D DUP2 PUSH2 0x2894 JUMP JUMPDEST SWAP1 PUSH1 0x64 DUP2 ADD DUP1 DUP3 GT PUSH2 0x617 JUMPI PUSH2 0x1A52 SWAP1 PUSH2 0x2894 JUMP JUMPDEST PUSH1 0xC8 DUP3 ADD DUP1 DUP4 GT PUSH2 0x617 JUMPI PUSH2 0x220 PUSH2 0x1A6C PUSH2 0x1DB5 SWAP3 PUSH2 0x2894 JUMP JUMPDEST SWAP5 PUSH2 0x1A76 DUP6 PUSH2 0x267F JUMP JUMPDEST SWAP6 PUSH1 0x40 MLOAD SWAP5 DUP6 SWAP3 PUSH1 0x20 DUP5 ADD SWAP9 PUSH32 0x3C73766720786D6C6E733D22687474703A2F2F7777772E77332E6F72672F3230 DUP11 MSTORE PUSH32 0x30302F737667222077696474683D2235303022206865696768743D2235303022 PUSH1 0x40 DUP7 ADD MSTORE PUSH32 0x2076696577426F783D223020302035303020353030223E000000000000000000 PUSH1 0x60 DUP7 ADD MSTORE PUSH6 0x1E3232B3399F PUSH1 0xD1 SHL PUSH1 0x77 DUP7 ADD MSTORE PUSH32 0x3C6C696E6561724772616469656E742069643D22677261640000000000000000 PUSH1 0x7D DUP7 ADD MSTORE PUSH2 0x1B3A DUP2 MLOAD DUP1 SWAP3 PUSH1 0x20 PUSH1 0x95 DUP10 ADD SWAP2 ADD PUSH2 0x13E5 JUMP JUMPDEST DUP5 ADD PUSH32 0x222078313D223025222079313D223025222078323D2231303025222079323D22 PUSH1 0x95 DUP3 ADD MSTORE PUSH6 0x18981812911F PUSH1 0xD1 SHL PUSH1 0xB5 DUP3 ADD MSTORE PUSH32 0x3C73746F70206F66667365743D22302522207374796C653D2273746F702D636F PUSH1 0xBB DUP3 ADD MSTORE PUSH4 0x3637B91D PUSH1 0xE1 SHL PUSH1 0xDB DUP3 ADD MSTORE PUSH2 0x1BB8 DUP3 MLOAD DUP1 SWAP4 PUSH1 0x20 PUSH1 0xDF DUP6 ADD SWAP2 ADD PUSH2 0x13E5 JUMP JUMPDEST ADD SWAP1 PUSH19 0x1DB9BA37B816B7B830B1B4BA3C9D189110179F PUSH1 0x69 SHL DUP3 DUP2 PUSH1 0xDF DUP2 SWAP6 ADD MSTORE PUSH32 0x3C73746F70206F66667365743D2235302522207374796C653D2273746F702D63 PUSH1 0xF2 DUP3 ADD MSTORE PUSH5 0x37B637B91D PUSH1 0xD9 SHL PUSH2 0x112 DUP3 ADD MSTORE DUP3 MLOAD SWAP1 PUSH2 0x1C25 DUP3 PUSH2 0x117 SWAP6 PUSH1 0x20 DUP8 DUP6 ADD SWAP2 ADD PUSH2 0x13E5 JUMP JUMPDEST ADD SWAP2 DUP3 ADD MSTORE PUSH32 0x3C73746F70206F66667365743D223130302522207374796C653D2273746F702D PUSH2 0x12A DUP3 ADD MSTORE PUSH6 0x31B7B637B91D PUSH1 0xD1 SHL PUSH2 0x14A DUP3 ADD MSTORE DUP3 MLOAD SWAP1 PUSH2 0x1C78 DUP3 PUSH2 0x150 SWAP6 PUSH1 0x20 DUP8 DUP6 ADD SWAP2 ADD PUSH2 0x13E5 JUMP JUMPDEST ADD SWAP2 DUP3 ADD MSTORE PUSH17 0x1E17B634B732B0B923B930B234B2B73A1F PUSH1 0x79 SHL PUSH2 0x163 DUP3 ADD MSTORE PUSH18 0x1E3334B63A32B91034B21E9133B637BB911F PUSH1 0x71 SHL PUSH2 0x174 DUP3 ADD MSTORE PUSH32 0x3C6665476175737369616E426C757220737464446576696174696F6E3D223422 PUSH2 0x186 DUP3 ADD MSTORE PUSH32 0x20726573756C743D22636F6C6F726564426C7572222F3E000000000000000000 PUSH2 0x1A6 DUP3 ADD MSTORE PUSH9 0x1E3332A6B2B933B29F PUSH1 0xB9 SHL PUSH2 0x1BD DUP3 ADD MSTORE PUSH32 0x3C66654D657267654E6F646520696E3D22636F6C6F726564426C7572222F3E00 PUSH2 0x1C6 DUP3 ADD MSTORE PUSH32 0x3C66654D657267654E6F646520696E3D22536F7572636547726170686963222F PUSH2 0x1E5 DUP3 ADD MSTORE PUSH1 0x1F PUSH1 0xF9 SHL PUSH2 0x205 DUP3 ADD MSTORE PUSH10 0x1E17B332A6B2B933B29F PUSH1 0xB1 SHL PUSH2 0x206 DUP3 ADD MSTORE PUSH9 0x1E17B334B63A32B91F PUSH1 0xB9 SHL PUSH2 0x210 DUP3 ADD MSTORE PUSH7 0x1E17B232B3399F PUSH1 0xC9 SHL PUSH2 0x219 DUP3 ADD MSTORE SUB PUSH2 0x200 DUP2 ADD DUP5 MSTORE ADD DUP3 PUSH2 0x14C6 JUMP JUMPDEST PUSH2 0x1DBE DUP3 PUSH2 0x267F JUMP JUMPDEST SWAP2 PUSH1 0x40 MLOAD PUSH2 0x1DCB DUP2 PUSH2 0x148E JUMP JUMPDEST PUSH1 0x0 DUP2 MSTORE SWAP3 DUP2 PUSH1 0x0 JUMPDEST PUSH1 0x5 DUP2 LT PUSH2 0x22CB JUMPI POP POP PUSH1 0x1E DUP3 MUL DUP3 DUP2 DIV PUSH1 0x1E EQ DUP4 ISZERO OR ISZERO PUSH2 0x617 JUMPI PUSH2 0x1DF9 SWAP1 PUSH2 0x267F JUMP JUMPDEST SWAP4 PUSH1 0x2D DUP4 MUL DUP4 DUP2 DIV PUSH1 0x2D EQ DUP5 ISZERO OR ISZERO PUSH2 0x617 JUMPI PUSH2 0x1E15 SWAP1 PUSH2 0x267F JUMP JUMPDEST SWAP3 PUSH1 0x40 MLOAD SWAP1 DUP2 PUSH1 0x20 DUP2 ADD SWAP4 DUP5 DUP2 MLOAD PUSH1 0x20 DUP2 SWAP4 ADD SWAP2 PUSH2 0x1E32 SWAP3 PUSH2 0x13E5 JUMP JUMPDEST PUSH32 0x3C636972636C652063783D22323530222063793D223235302220723D22353022 PUSH1 0x20 SWAP2 DUP4 ADD DUP3 DUP2 ADD SWAP2 SWAP1 SWAP2 MSTORE PUSH32 0x2066696C6C3D226E6F6E6522207374726F6B653D22776869746522207374726F PUSH1 0x40 DUP3 ADD MSTORE PUSH32 0x6B652D77696474683D223322206F7061636974793D22302E39222F3E00000000 PUSH1 0x60 DUP3 ADD MSTORE PUSH32 0x3C6C696E652078313D22323530222079313D22323530222078323D2232353022 PUSH1 0x7C DUP3 ADD MSTORE PUSH32 0x2079323D2232313022207374726F6B653D22776869746522207374726F6B652D PUSH1 0x9C DUP3 ADD MSTORE PUSH32 0x77696474683D223322207374726F6B652D6C696E656361703D22726F756E6422 PUSH1 0xBC DUP3 ADD MSTORE PUSH19 0x40E8E4C2DCE6CCDEE4DA7A44E4DEE8C2E8CA5 PUSH1 0x6B SHL PUSH1 0xDC DUP3 ADD DUP2 SWAP1 MSTORE DUP11 MLOAD SWAP1 SWAP11 SWAP1 SWAP3 PUSH2 0x1F52 SWAP2 DUP5 SWAP2 PUSH1 0xEF DUP6 ADD SWAP2 ADD PUSH2 0x13E5 JUMP JUMPDEST ADD PUSH12 0x10191A9810191A981491179F PUSH1 0xA1 SHL SWAP1 DUP2 PUSH1 0xEF DUP3 ADD MSTORE PUSH1 0xFB DUP2 ADD PUSH32 0x3C6C696E652078313D22323530222079313D22323530222078323D2232383022 SWAP1 MSTORE PUSH2 0x11B DUP2 ADD PUSH32 0x2079323D2232353022207374726F6B653D22776869746522207374726F6B652D SWAP1 MSTORE PUSH2 0x13B DUP2 ADD PUSH32 0x77696474683D223222207374726F6B652D6C696E656361703D22726F756E6422 SWAP1 MSTORE PUSH2 0x15B SWAP10 DUP11 DUP3 ADD MSTORE DUP8 MLOAD SWAP1 PUSH2 0x16E SWAP9 DUP3 DUP11 DUP4 ADD SWAP2 PUSH1 0x20 ADD SWAP2 PUSH2 0x2002 SWAP3 PUSH2 0x13E5 JUMP JUMPDEST ADD SWAP1 DUP8 DUP3 ADD MSTORE PUSH2 0x17A DUP2 ADD PUSH32 0x3C636972636C652063783D22323530222063793D223235302220723D22352220 SWAP1 MSTORE PUSH14 0x3334B6361E913BB434BA3291179F PUSH1 0x91 SHL PUSH2 0x19A DUP3 ADD MSTORE SUB PUSH2 0x188 DUP2 ADD DUP4 MSTORE PUSH2 0x1A8 ADD PUSH2 0x205E SWAP1 DUP4 PUSH2 0x14C6 JUMP JUMPDEST PUSH2 0x2067 SWAP1 PUSH2 0x267F JUMP JUMPDEST SWAP3 PUSH1 0x40 MLOAD SWAP8 DUP9 SWAP7 MLOAD SWAP1 DUP2 PUSH1 0x20 DUP10 ADD PUSH2 0x207E SWAP3 PUSH2 0x13E5 JUMP JUMPDEST DUP7 ADD PUSH1 0x20 DUP2 ADD PUSH32 0x3C726563742077696474683D2235303022206865696768743D22353030222066 SWAP1 MSTORE PUSH14 0x1A5B1B0F489D5C9B0A08D9DC9859 PUSH1 0x92 SHL PUSH1 0x40 DUP3 ADD MSTORE DUP2 MLOAD SWAP2 DUP3 PUSH1 0x4E DUP4 ADD SWAP2 PUSH1 0x20 ADD SWAP2 PUSH2 0x20D4 SWAP3 PUSH2 0x13E5 JUMP JUMPDEST ADD SWAP1 PUSH4 0x1491179F PUSH1 0xE1 SHL PUSH1 0x4E DUP4 ADD MSTORE PUSH1 0x52 DUP3 ADD PUSH32 0x3C672066696C7465723D2275726C2823676C6F7729223E000000000000000000 SWAP1 MSTORE MLOAD SWAP2 DUP3 PUSH1 0x69 DUP4 ADD PUSH2 0x211A SWAP3 PUSH2 0x13E5 JUMP JUMPDEST PUSH4 0x1E17B39F PUSH1 0xE1 SHL PUSH1 0x69 SWAP3 SWAP1 SWAP2 ADD SWAP2 DUP3 ADD MSTORE PUSH32 0x3C7465787420783D223235302220793D223435302220666F6E742D66616D696C PUSH1 0x6D DUP3 ADD MSTORE PUSH32 0x793D226D6F6E6F73706163652220666F6E742D73697A653D223234222066696C PUSH1 0x8D DUP3 ADD MSTORE PUSH32 0x6C3D2277686974652220746578742D616E63686F723D226D6964646C65222066 PUSH1 0xAD DUP3 ADD MSTORE PUSH18 0x37B73A16BBB2B4B3B43A1E913137B632111F PUSH1 0x71 SHL PUSH1 0xCD DUP3 ADD MSTORE PUSH9 0x47454E455349532023 PUSH1 0xB8 SHL PUSH1 0xDF DUP3 ADD MSTORE DUP2 MLOAD SWAP2 PUSH2 0x21E1 SWAP1 DUP4 SWAP1 PUSH1 0xE8 DUP5 ADD SWAP1 PUSH1 0x20 ADD PUSH2 0x13E5 JUMP JUMPDEST ADD SWAP1 PUSH7 0x1E17BA32BC3A1F PUSH1 0xC9 SHL SWAP1 DUP2 PUSH1 0xE8 DUP5 ADD MSTORE PUSH1 0xEF DUP4 ADD PUSH32 0x3C7465787420783D223235302220793D223437352220666F6E742D66616D696C SWAP1 MSTORE PUSH2 0x10F DUP4 ADD PUSH32 0x793D226D6F6E6F73706163652220666F6E742D73697A653D223134222066696C SWAP1 MSTORE PUSH2 0x12F DUP4 ADD PUSH32 0x6C3D2277686974652220746578742D616E63686F723D226D6964646C6522206F SWAP1 MSTORE PUSH13 0x3830B1B4BA3C9E9118171C111F PUSH1 0x99 SHL PUSH2 0x14F DUP5 ADD MSTORE PUSH2 0x15C DUP4 ADD PUSH18 0x21A627A1A5A1A420A4A7102327AAA72222A9 PUSH1 0x71 SHL SWAP1 MSTORE DUP3 ADD MSTORE PUSH2 0x175 DUP2 ADD PUSH6 0x1E17B9BB339F PUSH1 0xD1 SHL SWAP1 MSTORE SUB SWAP1 DUP2 ADD DUP3 MSTORE PUSH2 0x17B ADD PUSH2 0x22C8 SWAP1 DUP3 PUSH2 0x14C6 JUMP JUMPDEST SWAP1 JUMP JUMPDEST SWAP1 SWAP5 PUSH1 0x1E SWAP1 DUP2 DUP4 MUL SWAP2 DUP4 ISZERO SWAP1 DUP5 DUP5 DIV EQ DUP2 OR ISZERO PUSH2 0x617 JUMPI PUSH1 0xB4 SWAP1 DUP2 DUP5 DUP2 SUB GT PUSH2 0x617 JUMPI PUSH1 0xD DUP1 DUP11 MUL SWAP1 DUP11 DUP3 DIV EQ DUP11 ISZERO OR ISZERO PUSH2 0x617 JUMPI PUSH1 0x3C DUP7 MUL SWAP1 DUP7 DUP3 DIV PUSH1 0x3C EQ DUP4 OR ISZERO PUSH2 0x617 JUMPI PUSH2 0x168 SWAP2 PUSH2 0x231F SWAP2 PUSH2 0x19C1 JUMP JUMPDEST MOD SWAP4 PUSH1 0xF SWAP2 DUP3 DUP8 MUL SWAP3 DUP8 DUP5 DIV EQ OR ISZERO PUSH2 0x617 JUMPI PUSH1 0x64 DUP3 DUP2 SUB GT PUSH2 0x617 JUMPI SWAP2 PUSH1 0x40 MLOAD PUSH2 0x2349 DUP2 PUSH2 0x148E JUMP JUMPDEST PUSH1 0x0 DUP2 MSTORE SWAP3 PUSH1 0x0 SWAP2 JUMPDEST PUSH1 0x6 DUP4 LT PUSH2 0x24A4 JUMPI POP POP POP SWAP3 PUSH2 0x247E SWAP3 PUSH1 0x8A SWAP3 PUSH2 0x239B PUSH2 0x2395 PUSH32 0x222066696C6C3D226E6F6E6522207374726F6B653D2277686974652220737472 SWAP8 PUSH1 0x64 SUB PUSH2 0x267F JUMP JUMPDEST SWAP4 PUSH2 0x267F JUMP JUMPDEST SWAP1 PUSH1 0x40 MLOAD SWAP7 DUP4 PUSH2 0x23B5 DUP10 SWAP6 MLOAD DUP1 SWAP3 PUSH1 0x20 DUP1 DUP10 ADD SWAP2 ADD PUSH2 0x13E5 JUMP JUMPDEST DUP5 ADD PUSH17 0x1E3837B63CB3B7B7103837B4B73A399E91 PUSH1 0x79 SHL PUSH1 0x20 DUP3 ADD MSTORE DUP3 MLOAD SWAP1 PUSH2 0x23E7 DUP3 PUSH1 0x31 SWAP6 PUSH1 0x20 DUP8 DUP6 ADD SWAP2 ADD PUSH2 0x13E5 JUMP JUMPDEST ADD SWAP2 DUP3 ADD MSTORE PUSH32 0x6F6B652D77696474683D223222206F7061636974793D22302E00000000000000 PUSH1 0x51 DUP3 ADD MSTORE DUP4 MLOAD SWAP1 PUSH2 0x2428 DUP3 PUSH1 0x6A SWAP7 PUSH1 0x20 DUP9 DUP6 ADD SWAP2 ADD PUSH2 0x13E5 JUMP JUMPDEST ADD PUSH20 0x4440E8E4C2DCE6CCDEE4DA7A44E4DEE8C2E8CA5 PUSH1 0x63 SHL DUP5 DUP3 ADD MSTORE DUP2 MLOAD SWAP1 PUSH2 0x245B DUP3 PUSH1 0x7E SWAP5 PUSH1 0x20 DUP7 DUP6 ADD SWAP2 ADD PUSH2 0x13E5 JUMP JUMPDEST PUSH12 0x10191A9810191A981491179F PUSH1 0xA1 SHL SWAP2 ADD SWAP2 DUP3 ADD MSTORE SUB SWAP1 DUP2 ADD DUP5 MSTORE ADD DUP3 PUSH2 0x14C6 JUMP JUMPDEST SWAP5 PUSH1 0x7 SWAP1 DUP2 DUP2 MUL SWAP2 DUP2 DUP4 DIV EQ SWAP1 ISZERO OR ISZERO PUSH2 0x617 JUMPI PUSH1 0x64 PUSH2 0x249F SWAP2 MOD SWAP2 PUSH2 0x19CE JUMP JUMPDEST PUSH2 0x1DD4 JUMP JUMPDEST SWAP1 SWAP2 SWAP4 DUP5 PUSH1 0x3C DUP2 MUL DIV PUSH1 0x3C EQ DUP6 ISZERO OR ISZERO PUSH2 0x617 JUMPI PUSH2 0x2592 SWAP1 PUSH2 0x258C PUSH1 0x64 PUSH2 0x24D8 PUSH2 0x24D0 PUSH1 0x3C DUP11 MUL PUSH2 0x27F6 JUMP JUMPDEST DUP8 DUP8 SUB PUSH2 0x27C2 JUMP JUMPDEST SDIV SWAP2 PUSH1 0x64 PUSH2 0x24F3 PUSH2 0x24EB PUSH1 0x3C DUP12 MUL PUSH2 0x2848 JUMP JUMPDEST DUP9 DUP9 SUB PUSH2 0x27C2 JUMP JUMPDEST SDIV SWAP3 PUSH1 0x0 DUP2 SLT PUSH2 0x25F8 JUMPI PUSH2 0x2506 SWAP1 PUSH2 0x19B3 JUMP JUMPDEST SWAP3 JUMPDEST PUSH1 0x0 DUP2 SLT PUSH2 0x25E1 JUMPI PUSH2 0x2519 SWAP1 PUSH2 0x19B3 JUMP JUMPDEST SWAP3 JUMPDEST DUP9 PUSH2 0x2599 JUMPI JUMPDEST PUSH2 0x2395 PUSH2 0x252D SWAP2 PUSH2 0x267F JUMP JUMPDEST SWAP1 PUSH1 0x40 MLOAD SWAP4 DUP2 PUSH2 0x2547 DUP7 SWAP4 MLOAD DUP1 SWAP3 PUSH1 0x20 DUP1 DUP8 ADD SWAP2 ADD PUSH2 0x13E5 JUMP JUMPDEST DUP3 ADD PUSH2 0x255C DUP3 MLOAD DUP1 SWAP4 PUSH1 0x20 DUP1 DUP6 ADD SWAP2 ADD PUSH2 0x13E5 JUMP JUMPDEST ADD PUSH1 0xB PUSH1 0xFA SHL PUSH1 0x20 DUP3 ADD MSTORE DUP3 MLOAD SWAP1 PUSH2 0x257D DUP3 PUSH1 0x21 SWAP6 PUSH1 0x20 DUP8 DUP6 ADD SWAP2 ADD PUSH2 0x13E5 JUMP JUMPDEST ADD SUB PUSH1 0x1 DUP2 ADD DUP5 MSTORE ADD DUP3 PUSH2 0x14C6 JUMP JUMPDEST SWAP5 PUSH2 0x19CE JUMP JUMPDEST SWAP2 SWAP1 PUSH2 0x2352 JUMP JUMPDEST SWAP1 PUSH2 0x2395 PUSH2 0x252D SWAP2 PUSH2 0x25D8 PUSH1 0x21 PUSH1 0x40 MLOAD DUP4 PUSH2 0x25BE DUP3 SWAP6 MLOAD DUP1 SWAP3 PUSH1 0x20 DUP1 DUP7 ADD SWAP2 ADD PUSH2 0x13E5 JUMP JUMPDEST DUP2 ADD PUSH1 0x1 PUSH1 0xFD SHL PUSH1 0x20 DUP3 ADD MSTORE SUB PUSH1 0x1 DUP2 ADD DUP5 MSTORE ADD DUP3 PUSH2 0x14C6 JUMP JUMPDEST SWAP3 SWAP2 POP POP PUSH2 0x2521 JUMP JUMPDEST PUSH2 0x25ED PUSH2 0x25F2 SWAP2 PUSH2 0x27E5 JUMP JUMPDEST PUSH2 0x1857 JUMP JUMPDEST SWAP3 PUSH2 0x251B JUMP JUMPDEST PUSH2 0x25ED PUSH2 0x2604 SWAP2 PUSH2 0x27E5 JUMP JUMPDEST SWAP3 PUSH2 0x2508 JUMP JUMPDEST PUSH1 0x40 MLOAD PUSH3 0x461BCD PUSH1 0xE5 SHL DUP2 MSTORE PUSH1 0x20 PUSH1 0x4 DUP3 ADD MSTORE PUSH1 0x10 PUSH1 0x24 DUP3 ADD MSTORE PUSH16 0x125B9D985B1A59081D1BDAD95B881251 PUSH1 0x82 SHL PUSH1 0x44 DUP3 ADD MSTORE PUSH1 0x64 SWAP1 REVERT JUMPDEST POP PUSH1 0x64 DUP2 GT ISZERO PUSH2 0x1A2F JUMP JUMPDEST SWAP1 PUSH2 0x2657 DUP3 PUSH2 0x14E8 JUMP JUMPDEST PUSH2 0x2664 PUSH1 0x40 MLOAD SWAP2 DUP3 PUSH2 0x14C6 JUMP JUMPDEST DUP3 DUP2 MSTORE DUP1 SWAP3 PUSH2 0x2675 PUSH1 0x1F NOT SWAP2 PUSH2 0x14E8 JUMP JUMPDEST ADD SWAP1 PUSH1 0x20 CALLDATASIZE SWAP2 ADD CALLDATACOPY JUMP JUMPDEST DUP1 PUSH1 0x0 SWAP2 PUSH27 0x184F03E93FF9F4DAA797ED6E38ED64BF6A1F010000000000000000 DUP1 DUP3 LT ISZERO PUSH2 0x27B4 JUMPI JUMPDEST POP PUSH14 0x4EE2D6D415B85ACEF8100000000 DUP1 DUP4 LT ISZERO PUSH2 0x27A5 JUMPI JUMPDEST POP PUSH7 0x2386F26FC10000 DUP1 DUP4 LT ISZERO PUSH2 0x2796 JUMPI JUMPDEST POP PUSH4 0x5F5E100 DUP1 DUP4 LT ISZERO PUSH2 0x2787 JUMPI JUMPDEST POP PUSH2 0x2710 DUP1 DUP4 LT ISZERO PUSH2 0x2778 JUMPI JUMPDEST POP PUSH1 0x64 DUP3 LT ISZERO PUSH2 0x2768 JUMPI JUMPDEST PUSH1 0xA DUP1 SWAP3 LT ISZERO PUSH2 0x275E JUMPI JUMPDEST PUSH1 0x1 SWAP1 DUP2 PUSH1 0x21 PUSH2 0x2716 DUP3 DUP8 ADD PUSH2 0x264D JUMP JUMPDEST SWAP6 DUP7 ADD ADD SWAP1 JUMPDEST PUSH2 0x2728 JUMPI JUMPDEST POP POP POP POP SWAP1 JUMP JUMPDEST PUSH1 0x0 NOT ADD SWAP1 DUP4 SWAP1 PUSH16 0x181899199A1A9B1B9C1CB0B131B232B3 PUSH1 0x81 SHL DUP3 DUP3 MOD BYTE DUP4 MSTORE8 DIV SWAP2 DUP3 ISZERO PUSH2 0x2759 JUMPI SWAP2 SWAP1 DUP3 PUSH2 0x271C JUMP JUMPDEST PUSH2 0x2721 JUMP JUMPDEST SWAP2 PUSH1 0x1 ADD SWAP2 PUSH2 0x2705 JUMP JUMPDEST SWAP2 SWAP1 PUSH1 0x64 PUSH1 0x2 SWAP2 DIV SWAP2 ADD SWAP2 PUSH2 0x26FA JUMP JUMPDEST PUSH1 0x4 SWAP2 SWAP4 SWAP3 DIV SWAP2 ADD SWAP2 CODESIZE PUSH2 0x26EF JUMP JUMPDEST PUSH1 0x8 SWAP2 SWAP4 SWAP3 DIV SWAP2 ADD SWAP2 CODESIZE PUSH2 0x26E2 JUMP JUMPDEST PUSH1 0x10 SWAP2 SWAP4 SWAP3 DIV SWAP2 ADD SWAP2 CODESIZE PUSH2 0x26D3 JUMP JUMPDEST PUSH1 0x20 SWAP2 SWAP4 SWAP3 DIV SWAP2 ADD SWAP2 CODESIZE PUSH2 0x26C1 JUMP JUMPDEST PUSH1 0x40 SWAP4 POP DUP2 DIV SWAP2 POP CODESIZE PUSH2 0x26A8 JUMP JUMPDEST DUP2 DUP2 MUL SWAP3 SWAP2 PUSH1 0x0 DUP3 SLT PUSH1 0x1 PUSH1 0xFF SHL DUP3 EQ AND PUSH2 0x617 JUMPI DUP2 DUP5 SDIV EQ SWAP1 ISZERO OR ISZERO PUSH2 0x617 JUMPI JUMP JUMPDEST PUSH1 0x1 PUSH1 0xFF SHL DUP2 EQ PUSH2 0x617 JUMPI PUSH1 0x0 SUB SWAP1 JUMP JUMPDEST DUP1 ISZERO PUSH2 0x2842 JUMPI PUSH1 0x3C DUP2 EQ PUSH2 0x283C JUMPI PUSH1 0x78 DUP2 EQ PUSH2 0x282E JUMPI PUSH1 0xB4 DUP2 EQ PUSH2 0x2835 JUMPI PUSH1 0xF0 DUP2 EQ PUSH2 0x282E JUMPI PUSH2 0x12C EQ PUSH2 0x2829 JUMPI PUSH1 0x0 SWAP1 JUMP JUMPDEST PUSH1 0x32 SWAP1 JUMP JUMPDEST POP PUSH1 0x31 NOT SWAP1 JUMP JUMPDEST POP PUSH1 0x63 NOT SWAP1 JUMP JUMPDEST POP PUSH1 0x32 SWAP1 JUMP JUMPDEST POP PUSH1 0x64 SWAP1 JUMP JUMPDEST DUP1 ISZERO PUSH2 0x2888 JUMPI PUSH1 0x3C DUP2 EQ PUSH2 0x288E JUMPI PUSH1 0x78 DUP2 EQ PUSH2 0x288E JUMPI PUSH1 0xB4 DUP2 EQ PUSH2 0x2888 JUMPI PUSH1 0xF0 DUP2 EQ PUSH2 0x2881 JUMPI PUSH2 0x12C EQ PUSH2 0x287B JUMPI PUSH1 0x0 SWAP1 JUMP JUMPDEST PUSH1 0x56 NOT SWAP1 JUMP JUMPDEST POP PUSH1 0x56 NOT SWAP1 JUMP JUMPDEST POP PUSH1 0x0 SWAP1 JUMP JUMPDEST POP PUSH1 0x57 SWAP1 JUMP JUMPDEST PUSH1 0x40 MLOAD SWAP1 PUSH1 0x20 SWAP2 DUP3 DUP2 ADD SWAP2 DUP3 MSTORE DUP3 DUP2 MSTORE PUSH1 0x40 DUP2 ADD DUP2 DUP2 LT PUSH8 0xFFFFFFFFFFFFFFFF DUP3 GT OR PUSH2 0xDA5 JUMPI PUSH1 0x40 MSTORE MLOAD SWAP1 KECCAK256 PUSH1 0x7F DUP2 AND PUSH1 0x64 DUP2 ADD DUP1 SWAP2 GT PUSH2 0x617 JUMPI PUSH1 0x7F DUP3 PUSH1 0x8 SHR AND SWAP2 PUSH1 0x64 DUP4 ADD DUP1 SWAP4 GT PUSH2 0x617 JUMPI PUSH1 0x7F SWAP1 PUSH1 0x10 SHR AND SWAP2 PUSH1 0x64 DUP4 ADD DUP1 SWAP4 GT PUSH2 0x617 JUMPI PUSH2 0x22C8 SWAP3 PUSH2 0x2911 PUSH2 0x290B PUSH2 0x2395 PUSH1 0x27 SWAP6 PUSH2 0x267F JUMP JUMPDEST SWAP2 PUSH2 0x267F JUMP JUMPDEST SWAP1 PUSH2 0x2973 PUSH1 0x40 MLOAD SWAP7 DUP8 SWAP5 PUSH4 0xE4CEC45 PUSH1 0xE3 SHL DUP3 DUP8 ADD MSTORE PUSH2 0x293A DUP2 MLOAD DUP1 SWAP3 DUP5 PUSH1 0x24 DUP11 ADD SWAP2 ADD PUSH2 0x13E5 JUMP JUMPDEST DUP6 ADD SWAP3 PUSH1 0xB PUSH1 0xFA SHL SWAP4 DUP5 PUSH1 0x24 DUP3 ADD MSTORE PUSH2 0x295C DUP3 MLOAD DUP1 SWAP4 DUP6 PUSH1 0x25 DUP6 ADD SWAP2 ADD PUSH2 0x13E5 JUMP JUMPDEST ADD SWAP3 PUSH1 0x25 DUP5 ADD MSTORE DUP4 MLOAD SWAP4 DUP5 SWAP2 PUSH1 0x26 DUP6 ADD SWAP2 ADD PUSH2 0x13E5 JUMP JUMPDEST ADD PUSH1 0x29 PUSH1 0xF8 SHL PUSH1 0x26 DUP3 ADD MSTORE SUB PUSH1 0x7 DUP2 ADD DUP5 MSTORE ADD DUP3 PUSH2 0x14C6 JUMP JUMPDEST DUP1 MLOAD ISZERO PUSH2 0x2A6F JUMPI DUP1 MLOAD PUSH1 0x2 SWAP2 DUP3 DUP3 ADD DUP1 SWAP3 GT PUSH2 0x617 JUMPI PUSH1 0x3 SWAP2 DUP3 SWAP1 DIV PUSH1 0x1 PUSH1 0x1 PUSH1 0xFE SHL SUB DUP2 AND DUP2 SUB PUSH2 0x617 JUMPI PUSH2 0x29C5 SWAP1 DUP5 SWAP6 SWAP5 SHL PUSH2 0x264D JUMP JUMPDEST SWAP4 PUSH1 0x20 DUP6 ADD SWAP4 DUP3 SWAP2 DUP4 MLOAD DUP5 ADD SWAP1 PUSH1 0x20 DUP3 ADD SWAP3 DUP4 MLOAD SWAP5 PUSH1 0x0 DUP6 MSTORE JUMPDEST DUP4 DUP2 LT PUSH2 0x2A1E JUMPI POP POP POP POP MSTORE MLOAD MOD DUP1 PUSH1 0x1 EQ PUSH2 0x2A0B JUMPI PUSH1 0x2 EQ PUSH2 0x2A00 JUMPI POP SWAP1 JUMP JUMPDEST PUSH1 0x3D SWAP1 PUSH1 0x0 NOT ADD MSTORE8 SWAP1 JUMP JUMPDEST POP PUSH1 0x3D SWAP1 DUP2 PUSH1 0x0 NOT DUP3 ADD MSTORE8 PUSH1 0x1 NOT ADD MSTORE8 SWAP1 JUMP JUMPDEST DUP8 PUSH1 0x4 SWAP2 SWAP10 SWAP3 SWAP4 SWAP5 SWAP10 ADD SWAP2 DUP3 MLOAD PUSH1 0x1 SWAP1 PUSH1 0x3F SWAP1 DUP3 DUP3 DUP3 PUSH1 0x12 SHR AND DUP9 ADD ADD MLOAD DUP5 MSTORE8 DUP3 DUP3 DUP3 PUSH1 0xC SHR AND DUP9 ADD ADD MLOAD DUP4 DUP6 ADD MSTORE8 DUP3 DUP3 DUP3 PUSH1 0x6 SHR AND DUP9 ADD ADD MLOAD DUP9 DUP6 ADD MSTORE8 AND DUP6 ADD ADD MLOAD DUP10 DUP3 ADD MSTORE8 ADD SWAP8 SWAP3 SWAP2 SWAP1 PUSH2 0x29DF JUMP JUMPDEST POP POP PUSH1 0x40 MLOAD PUSH2 0x2A7D DUP2 PUSH2 0x148E JUMP JUMPDEST PUSH1 0x0 DUP2 MSTORE SWAP1 JUMP JUMPDEST PUSH1 0xFF PUSH1 0xB SLOAD AND PUSH2 0x2AAE JUMPI PUSH1 0xC SLOAD DUP1 PUSH1 0x0 NOT DUP2 ADD GT PUSH2 0x617 JUMPI PUSH1 0x1 SWAP1 PUSH1 0x64 SUB ADD PUSH1 0x64 DUP2 GT PUSH2 0x617 JUMPI SWAP1 JUMP JUMPDEST PUSH1 0x0 SWAP1 JUMP INVALID LOG2 PUSH5 0x6970667358 0x22 SLT KECCAK256 0xA6 LOG0 SHL PUSH16 0x7B6B91A9EA6CBCF716F6012635F449BD 0x24 0x25 SAR MULMOD DUP1 0xDA DUP9 PUSH27 0x9E87E69264736F6C63430008140033000000000000000000000000 "},"methodIdentifiers":{"MAX_SUPPLY()":"32cb6b0c","MINTING_WINDOW()":"47759e44","approve(address,uint256)":"095ea7b3","balanceOf(address)":"70a08231","finalizeMinting()":"2c1c86d0","generateSVG(uint256)":"6dcee4ca","getApproved(uint256)":"081812fc","isApprovedForAll(address,address)":"e985e9c5","isMintingActive()":"6ac437b0","mint(address,uint256)":"40c10f19","mintingDeadline()":"c971d702","mintingFinalized()":"4934bf5c","name()":"06fdde03","ownerOf(uint256)":"6352211e","remainingSupply()":"da0239a6","safeTransferFrom(address,address,uint256)":"42842e0e","safeTransferFrom(address,address,uint256,bytes)":"b88d4fde","setApprovalForAll(address,bool)":"a22cb465","supportsInterface(bytes4)":"01ffc9a7","symbol()":"95d89b41","tokenByIndex(uint256)":"4f6ccce7","tokenOfOwnerByIndex(address,uint256)":"2f745c59","tokenURI(uint256)":"c87b56dd","totalMinted()":"a2309ff8","totalSupply()":"18160ddd","transferFrom(address,address,uint256)":"23b872dd"}}}}}