{"contracts/src/DistributedPayoutManager.sol":{"DistributedPayoutManager":{"abi":[{"inputs":[{"internalType":"address","name":"_predictionMarket","type":"address"},{"internalType":"address","name":"_builderRewardPool","type":"address"},{"internalType":"address","name":"_bittensorRewardPool","type":"address"},{"internalType":"address","name":"_genesisNFT","type":"address"}],"stateMutability":"nonpayable","type":"constructor"},{"inputs":[],"name":"EnforcedPause","type":"error"},{"inputs":[],"name":"ExpectedPause","type":"error"},{"inputs":[],"name":"ReentrancyGuardReentrantCall","type":"error"},{"anonymous":false,"inputs":[{"indexed":true,"internalType":"address","name":"creator","type":"address"},{"indexed":false,"internalType":"uint256","name":"amount","type":"uint256"},{"indexed":false,"internalType":"uint256","name":"marketId","type":"uint256"}],"name":"CreatorRewarded","type":"event"},{"anonymous":false,"inputs":[{"indexed":true,"internalType":"uint256","name":"marketId","type":"uint256"},{"indexed":false,"internalType":"uint256","name":"genesisRewards","type":"uint256"},{"indexed":false,"internalType":"uint256","name":"oracleRewards","type":"uint256"},{"indexed":false,"internalType":"uint256","name":"nodeRewards","type":"uint256"},{"indexed":false,"internalType":"uint256","name":"creatorReward","type":"uint256"},{"indexed":false,"internalType":"uint256","name":"builderPoolDeposit","type":"uint256"},{"indexed":false,"internalType":"uint256","name":"bittensorPoolDeposit","type":"uint256"}],"name":"FeesDistributed","type":"event"},{"anonymous":false,"inputs":[{"indexed":true,"internalType":"address","name":"holder","type":"address"},{"indexed":false,"internalType":"uint256","name":"amount","type":"uint256"},{"indexed":false,"internalType":"uint256","name":"marketId","type":"uint256"}],"name":"GenesisHolderRewarded","type":"event"},{"anonymous":false,"inputs":[{"indexed":true,"internalType":"address","name":"node","type":"address"},{"indexed":false,"internalType":"uint256","name":"amount","type":"uint256"}],"name":"NodeRewarded","type":"event"},{"anonymous":false,"inputs":[{"indexed":true,"internalType":"address","name":"oracle","type":"address"},{"indexed":false,"internalType":"uint256","name":"amount","type":"uint256"},{"indexed":false,"internalType":"uint256","name":"marketId","type":"uint256"}],"name":"OracleRewarded","type":"event"},{"anonymous":false,"inputs":[{"indexed":false,"internalType":"address","name":"account","type":"address"}],"name":"Paused","type":"event"},{"anonymous":false,"inputs":[{"indexed":true,"internalType":"address","name":"recipient","type":"address"},{"indexed":false,"internalType":"uint256","name":"amount","type":"uint256"}],"name":"RewardClaimed","type":"event"},{"anonymous":false,"inputs":[{"indexed":false,"internalType":"address","name":"account","type":"address"}],"name":"Unpaused","type":"event"},{"inputs":[],"name":"BITTENSOR_POOL_SHARE","outputs":[{"internalType":"uint16","name":"","type":"uint16"}],"stateMutability":"view","type":"function"},{"inputs":[],"name":"BUILDER_POOL_SHARE","outputs":[{"internalType":"uint16","name":"","type":"uint16"}],"stateMutability":"view","type":"function"},{"inputs":[],"name":"CREATOR_SHARE","outputs":[{"internalType":"uint16","name":"","type":"uint16"}],"stateMutability":"view","type":"function"},{"inputs":[],"name":"GENESIS_SHARE","outputs":[{"internalType":"uint16","name":"","type":"uint16"}],"stateMutability":"view","type":"function"},{"inputs":[],"name":"NODE_SHARE","outputs":[{"internalType":"uint16","name":"","type":"uint16"}],"stateMutability":"view","type":"function"},{"inputs":[],"name":"ORACLE_SHARE","outputs":[{"internalType":"uint16","name":"","type":"uint16"}],"stateMutability":"view","type":"function"},{"inputs":[],"name":"TOTAL_FEE","outputs":[{"internalType":"uint16","name":"","type":"uint16"}],"stateMutability":"view","type":"function"},{"inputs":[{"internalType":"uint256","name":"","type":"uint256"}],"name":"activeNodes","outputs":[{"internalType":"address","name":"","type":"address"}],"stateMutability":"view","type":"function"},{"inputs":[],"name":"bittensorRewardPool","outputs":[{"internalType":"contract IBittensorRewardPool","name":"","type":"address"}],"stateMutability":"view","type":"function"},{"inputs":[],"name":"builderRewardPool","outputs":[{"internalType":"contract IBuilderRewardPool","name":"","type":"address"}],"stateMutability":"view","type":"function"},{"inputs":[{"internalType":"uint256","name":"_marketId","type":"uint256"}],"name":"calculateWinnerPayouts","outputs":[],"stateMutability":"nonpayable","type":"function"},{"inputs":[],"name":"claimRewards","outputs":[],"stateMutability":"nonpayable","type":"function"},{"inputs":[{"internalType":"uint256","name":"_marketId","type":"uint256"}],"name":"distributeFees","outputs":[],"stateMutability":"nonpayable","type":"function"},{"inputs":[],"name":"genesisNFT","outputs":[{"internalType":"contract IGenesisNFT","name":"","type":"address"}],"stateMutability":"view","type":"function"},{"inputs":[{"internalType":"uint256","name":"","type":"uint256"},{"internalType":"uint256","name":"","type":"uint256"}],"name":"marketOracles","outputs":[{"internalType":"address","name":"","type":"address"}],"stateMutability":"view","type":"function"},{"inputs":[{"internalType":"uint256","name":"","type":"uint256"},{"internalType":"uint256","name":"","type":"uint256"}],"name":"marketPayouts","outputs":[{"internalType":"address","name":"recipient","type":"address"},{"internalType":"uint256","name":"amount","type":"uint256"},{"internalType":"uint256","name":"marketId","type":"uint256"},{"internalType":"bool","name":"claimed","type":"bool"}],"stateMutability":"view","type":"function"},{"inputs":[{"internalType":"address","name":"","type":"address"}],"name":"nodeRewards","outputs":[{"internalType":"uint256","name":"","type":"uint256"}],"stateMutability":"view","type":"function"},{"inputs":[{"internalType":"uint256","name":"","type":"uint256"},{"internalType":"address","name":"","type":"address"}],"name":"oracleContributions","outputs":[{"internalType":"uint256","name":"","type":"uint256"}],"stateMutability":"view","type":"function"},{"inputs":[],"name":"paused","outputs":[{"internalType":"bool","name":"","type":"bool"}],"stateMutability":"view","type":"function"},{"inputs":[],"name":"predictionMarket","outputs":[{"internalType":"contract IPredictionMarket","name":"","type":"address"}],"stateMutability":"view","type":"function"},{"inputs":[{"internalType":"address","name":"_node","type":"address"}],"name":"registerNode","outputs":[],"stateMutability":"nonpayable","type":"function"},{"inputs":[{"internalType":"uint256","name":"_marketId","type":"uint256"},{"internalType":"address","name":"_oracle","type":"address"},{"internalType":"uint256","name":"_contribution","type":"uint256"}],"name":"registerOracleContribution","outputs":[],"stateMutability":"nonpayable","type":"function"},{"inputs":[{"internalType":"address","name":"","type":"address"}],"name":"unclaimedRewards","outputs":[{"internalType":"uint256","name":"","type":"uint256"}],"stateMutability":"view","type":"function"},{"inputs":[{"internalType":"address","name":"_newPool","type":"address"}],"name":"updateBittensorRewardPool","outputs":[],"stateMutability":"nonpayable","type":"function"},{"inputs":[{"internalType":"address","name":"_newPool","type":"address"}],"name":"updateBuilderRewardPool","outputs":[],"stateMutability":"nonpayable","type":"function"},{"inputs":[{"internalType":"address","name":"_newNFT","type":"address"}],"name":"updateGenesisNFT","outputs":[],"stateMutability":"nonpayable","type":"function"},{"stateMutability":"payable","type":"receive"}],"evm":{"bytecode":{"linkReferences":{},"object":"608034620000e257601f620017d738819003918201601f19168301916001600160401b03831184841017620000e757808492608094604052833981010312620000e2576200004d81620000fd565b906200005c60208201620000fd565b916200007960606200007160408501620000fd565b9301620000fd565b90600160005560015490610100600160a81b039060081b1690610100600160a81b0319161760015560018060a01b0380928160018060a01b0319951685600254161760025516836003541617600355169060045416176004556040516116c49081620001138239f35b600080fd5b634e487b7160e01b600052604160045260246000fd5b51906001600160a01b0382168203620000e25756fe60406080815260049081361015610020575b5050361561001e57600080fd5b005b60009160e0908335821c9182631083b07614610db857826324057a0014610aea575081632cd4e6b614610ac15781632ffb61fb14610327578163372500ab146109b15781635a6964c31461097a5781635c975abb146109565781636029bf9f1461060357816363db7eae146105e6578163672d7a0d1461053f578163770ce3d81461050757816377cd91bf146104d45781637e196dce1461049657816381cdf6761461042a5781638dd4916b1461040257816390174c06146103e6578163949813b8146103ae57816396f9d9831461036d578163a960f4941461032c578163cc0c303914610327578163de50b595146102fe578163de6360bc146102bd578163def114b614610290578163edb9821e14610274578163f065cc4714610168575063f1c7000b0361001157346101645781600319360112610164576020905160c88152f35b5080fd5b905034610270576060366003190112610270578035610185610def565b91818552602093600585528086209260018060a01b0380951693846000528652816000206101b66044358254610ff2565b90558695875b82895260068252838920805482101561026357876101db838993610e68565b90549060031b1c16146101f6576101f19061103a565b6101bc565b509091929394955060015b1561020a578680f35b6006918752528420805491600160401b83101561024e57509061023291600182018155610e68565b909283549160031b92831b921b19161790553880808080808680f35b604190634e487b7160e01b6000525260246000fd5b5050909192939495610201565b8280fd5b5050346101645781600319360112610164576020905160148152f35b505034610164578160031936011261016457600154905160089190911c6001600160a01b03168152602090f35b905034610270578160031936011261027057816020936102db610def565b9235815260058552209060018060a01b0316600052825280600020549051908152f35b50503461016457816003193601126101645760035490516001600160a01b039091168152602090f35b610db8565b833461036a57602036600319011261036a576001600160a01b0361034e610dd9565b166bffffffffffffffffffffffff60a01b600354161760035580f35b80fd5b90503461027057602036600319011261027057359160085483101561036a5750610398602092610e1b565b905491519160018060a01b039160031b1c168152f35b5050346101645760203660031901126101645760209181906001600160a01b036103d6610dd9565b168152600a845220549051908152f35b5050346101645781600319360112610164576020905160b48152f35b9050346102705782600319360112610270575490516001600160a01b03909116815260209150f35b5050346101645761043a36610e05565b90835260096020528183208054821015610492578360209160809552209060021b019060018060a01b038254169160018101549160ff6003600284015493015416928151948552602085015283015215156060820152f35b8380fd5b833461036a57602036600319011261036a576001600160a01b036104b8610dd9565b166bffffffffffffffffffffffff60a01b600254161760025580f35b505034610164576104e436610e05565b92908152600660205281812090815484101561036a575060209261039891610e68565b5050346101645760203660031901126101645760209181906001600160a01b0361052f610dd9565b1681526007845220549051908152f35b8390346101645760203660031901126101645761055a610dd9565b6008546001600160a01b03929183169184805b8381106105b6575b501561057f578480f35b600160401b82101561024e575080600161059c9201600855610e1b565b909283549160031b92831b921b1916179055818080808480f35b84866105c183610e1b565b90549060031b1c16146105dc576105d79061103a565b61056d565b5050600186610575565b505034610164578160031936011261016457602090516102bc8152f35b83833461016457602036600319011261016457823590610621610fff565b60015460ff811661094657815163b1283e7760e01b8152838682015261016090818160248160018060a01b03809760081c165afa91821561093c578691879188946108f9575b505061067290610f51565b81156108be5760148202908282046014036108ab576102bc8092049360b4840284810460b4036108985783900490836106aa86610f93565b0492846106b687610f93565b049460c8870287810460c80361088557928b9c926106f3868d9e969d6106ee8d9e9f966106e6818899049e610f93565b049d8261105d565b611303565b6106fc87611535565b16808452600a6020528a8420610713888254610ff2565b90557f025e07f24d161088f2214e5aebe4556904e5db8d0ea9012d86c397ecaf8fdd708b8d8151908a82526020820152a286151580610878575b610820575b87151580610813575b6107b1575b505050908660c096959493927f9a2e6a5232893d8912bad8b33b7a32f790a3df0bd781a7fd8796faaa3b87f6d4985196875260208701528501526060840152608083015260a0820152a26001815580f35b6003541690813b15610270578951630d0e30db60e41b8152918391839182908b905af18015610809576107e5575b80610760565b6107f59097969594939297610e80565b610805579091929394888a6107df565b8880fd5b89513d84823e3d90fd5b508060035416151561075b565b80919250600254168b813b1561036a578791848c5180948193630d0e30db60e41b83525af1801561086e57610859575b50908a91610752565b610866909b91929b610e80565b99908b610850565b8a513d8e823e3d90fd5b508060025416151561074d565b634e487b7160e01b8c5260118d5260248cfd5b634e487b7160e01b895260118a52602489fd5b634e487b7160e01b875260118852602487fd5b835162461bcd60e51b815260208189015260156024820152744e6f206665657320746f206469737472696275746560581b6044820152606490fd5b6106729450610921935080919250903d10610935575b6109198183610eaa565b810190610eed565b9a9850505050505093915050919089610667565b503d61090f565b84513d88823e3d90fd5b815163d93c066560e01b81528590fd5b50503461016457816003193601126101645760209060ff6001541690519015158152f35b839034610164576020366003190112610164576001600160a01b0361099d610dd9565b82546001600160a01b031916911617905580f35b919050346102705782600319360112610270576109cc610fff565b338352602090600a825280842054928315610a8a57338552600a835284828120558480808087335af13d15610a85573d610a0581611610565b90610a1285519283610eaa565b815286853d92013e5b15610a525750907f106f923f993c2149d49b4255ff723acafa1f2d94393f561d3eda32ae348f724191519283523392a26001815580f35b82606492519162461bcd60e51b8352820152600f60248201526e151c985b9cd9995c8819985a5b1959608a1b6044820152fd5b610a1b565b82606492519162461bcd60e51b835282015260136024820152724e6f207265776172647320746f20636c61696d60681b6044820152fd5b50503461016457816003193601126101645760025490516001600160a01b039091168152602090f35b9084925034610270576020918260031936011261049257813594610b0c610fff565b60018054825163b1283e7760e01b815285810189905291956024949160081c6001600160a01b031661016080858881855afa8015610dae578a8b968c938d93610d78575b5050610b5b90610f51565b810311610d6657845199632417667f60e21b8b52878b0152888a8781845afa968715610d5c578997610cbd575b89899a9b50968b9a5b610b9d575b8b8a815580f35b88518b1015610cb857610bb08b8a611049565b519a87519b6356b99a4f60e11b8d52838d01528c8c8381875afa8d8115610cad579a8c9d819d9c92610c17575b50610be9838a92611049565b5103610c02575b50610bfa9061103a565b9a9998610b91565b610c1090610bfa929a610ff2565b9890610bf0565b9b5050508c3d80918c3e610c2b818c610eaa565b8a016101208b820312610ca957610c43868c01610ecc565b50888b01519a67ffffffffffffffff9b8c8111610ca55782610c6691830161162c565b50608081015191610c7960c08301610ee0565b50888201519c8d11610ca557838f9d938f94610be993610c9b918e960161162c565b5093925050610bdd565b8f80fd5b8d80fd5b8951903d90823e3d90fd5b610b96565b96503d808a8c3e610cce818c610eaa565b8a019982818c0312610d545780519067ffffffffffffffff8211610d5857019980601f8c011215610d54578a51610d0481611022565b9b848089519e8f90610d169082610eaa565b848152019260051b820101928311610d50578401905b828210610d415750999a8b9a50979050610b88565b81518152908401908401610d2c565b8b80fd5b8980fd5b8a80fd5b85513d8b823e3d90fd5b634e487b7160e01b8952601187528589fd5b91509150610b5b9650610d979250803d10610935576109198183610eaa565b99505050509993509350905091969291908e610b50565b86513d8c823e3d90fd5b34610dd4576000366003190112610dd457602060405160648152f35b600080fd5b600435906001600160a01b0382168203610dd457565b602435906001600160a01b0382168203610dd457565b6040906003190112610dd4576004359060243590565b600854811015610e525760086000527ff3f7a9fe364faab93b216da50a3214154f22a0a2b415b23a84c8169e8b636ee30190600090565b634e487b7160e01b600052603260045260246000fd5b8054821015610e525760005260206000200190600090565b67ffffffffffffffff8111610e9457604052565b634e487b7160e01b600052604160045260246000fd5b90601f8019910116810190811067ffffffffffffffff821117610e9457604052565b51906001600160a01b0382168203610dd457565b51908115158203610dd457565b9081610160910312610dd457610f0281610ecc565b91610f0f60208301610ecc565b91604081015191606082015191610f2860808201610ee0565b9160a08201519160c08101519160e0820151916101008101519161014061012083015192015190565b15610f5857565b60405162461bcd60e51b815260206004820152601360248201527213585c9ad95d081b9bdd081c995cdbdb1d9959606a1b6044820152606490fd5b90606482029180830460641490151715610fa957565b634e487b7160e01b600052601160045260246000fd5b81810292918115918404141715610fa957565b8115610fdc570490565b634e487b7160e01b600052601260045260246000fd5b91908201809211610fa957565b600260005414611010576002600055565b604051633ee5aeb560e01b8152600490fd5b67ffffffffffffffff8111610e945760051b60200190565b6000198114610fa95760010190565b8051821015610e525760209160051b010190565b811580156112f0575b6112ec5760048054604080516318160ddd60e01b8152936001600160a01b039260209190829087908790829088165afa9586156112e1576000966112b2575b5085156112a9576110b586611022565b936110c284519586610eaa565b868552601f196110d188611022565b0136848701376110e387600099610fd2565b600191825b898111156110fd575050505050505050505050565b8189541687516331a9108f60e11b8152828b82015260249088818381865afa90811561129e57600091611269575b5060008e81878e5b838310611238575b5050505015611156575b5050506111519061103a565b6110e8565b848c9392949e948a928c5194859384926370a0823160e01b84521680978301525afa90811561122d579089916000916111fd575b5091807f682e67f2362bb04b61e784c278b2e6fac980cbec16efebc73594926e0e7cc35861115195936111c06111f4968a610fbf565b83600052600a8d52816000206111d7828254610ff2565b905581519081528b8d820152a26111ee828c611049565b5261103a565b9a903880611145565b91508882813d8311611226575b6112148183610eaa565b8101031261036a57505188908261118a565b503d61120a565b89513d6000823e3d90fd5b8261124291611049565b51168885161461125c576112559061103a565b878e611133565b505050868e38878e61113b565b908982813d8311611297575b61127f8183610eaa565b8101031261036a575061129190610ecc565b3861112b565b503d611275565b8a513d6000823e3d90fd5b50505050505050565b90958282813d83116112da575b6112c98183610eaa565b8101031261036a57505194386110a5565b503d6112bf565b83513d6000823e3d90fd5b5050565b506004546001600160a01b031615611066565b91600083815260209360068552604094858320918651808484829654938481520190875284872092875b868282106115165750505061134492500384610eaa565b825115801561150e575b61150557839484955b84518710156113a0578286526005845288862061139a91611394916001600160a01b036113848b8a611049565b5116895286528a88205490610ff2565b9661103a565b95611357565b90969193949295508015600014611445575083516113bd91610fd2565b92815b815181101561143b57611436906001600160a01b03806113e08386611049565b51168552600a88528985206113f6888254610ff2565b90556114028285611049565b51167fbcb095493dc2805dc847b9bbdfc1ff0fda68b84c79543e42d7b2ecc2be9e04bb8a8051898152888b820152a261103a565b6113c0565b5050505050509050565b908294925b83518110156114fa57848652600587528886206114f591906001600160a01b0390816114768489611049565b5116895289527fbcb095493dc2805dc847b9bbdfc1ff0fda68b84c79543e42d7b2ecc2be9e04bb8b6114b4876114af838d205489610fbf565b610fd2565b92806114c0868b611049565b51168b52600a8c52818b206114d6858254610ff2565b90556114e2858a611049565b5116928151908152898c820152a261103a565b61144a565b505050505050509050565b50505050915050565b50851561134e565b85546001600160a01b031684526001958601958995509301920161132d565b600890815480158015611608575b6116035761155091610fd2565b60005b825481101561160357807f4ea3e03797614006774acce32832fbaa20d9d69de554df367f4bb8a98b92e74261158a6115fe93610e1b565b919060018060a01b03809154600394851b1c1660005260209060078252604093846000206115b9898254610ff2565b9055816115c587610e1b565b905490831b1c16600052600a8352846000206115e2898254610ff2565b90556115ed86610e1b565b9054911b1c169251868152a261103a565b611553565b505050565b508115611543565b67ffffffffffffffff8111610e9457601f01601f191660200190565b919080601f84011215610dd45782519061164582611610565b916116536040519384610eaa565b808352602091828287010111610dd45760005b81811061167b57508260009394955001015290565b858101830151848201840152820161166656fea2646970667358221220ee3020d845bcb248d979b04328b12ff076e85305981298026a9d4746004a919964736f6c63430008140033","opcodes":"PUSH1 0x80 CALLVALUE PUSH3 0xE2 JUMPI PUSH1 0x1F PUSH3 0x17D7 CODESIZE DUP2 SWAP1 SUB SWAP2 DUP3 ADD PUSH1 0x1F NOT AND DUP4 ADD SWAP2 PUSH1 0x1 PUSH1 0x1 PUSH1 0x40 SHL SUB DUP4 GT DUP5 DUP5 LT OR PUSH3 0xE7 JUMPI DUP1 DUP5 SWAP3 PUSH1 0x80 SWAP5 PUSH1 0x40 MSTORE DUP4 CODECOPY DUP2 ADD SUB SLT PUSH3 0xE2 JUMPI PUSH3 0x4D DUP2 PUSH3 0xFD JUMP JUMPDEST SWAP1 PUSH3 0x5C PUSH1 0x20 DUP3 ADD PUSH3 0xFD JUMP JUMPDEST SWAP2 PUSH3 0x79 PUSH1 0x60 PUSH3 0x71 PUSH1 0x40 DUP6 ADD PUSH3 0xFD JUMP JUMPDEST SWAP4 ADD PUSH3 0xFD JUMP JUMPDEST SWAP1 PUSH1 0x1 PUSH1 0x0 SSTORE PUSH1 0x1 SLOAD SWAP1 PUSH2 0x100 PUSH1 0x1 PUSH1 0xA8 SHL SUB SWAP1 PUSH1 0x8 SHL AND SWAP1 PUSH2 0x100 PUSH1 0x1 PUSH1 0xA8 SHL SUB NOT AND OR PUSH1 0x1 SSTORE PUSH1 0x1 DUP1 PUSH1 0xA0 SHL SUB DUP1 SWAP3 DUP2 PUSH1 0x1 DUP1 PUSH1 0xA0 SHL SUB NOT SWAP6 AND DUP6 PUSH1 0x2 SLOAD AND OR PUSH1 0x2 SSTORE AND DUP4 PUSH1 0x3 SLOAD AND OR PUSH1 0x3 SSTORE AND SWAP1 PUSH1 0x4 SLOAD AND OR PUSH1 0x4 SSTORE PUSH1 0x40 MLOAD PUSH2 0x16C4 SWAP1 DUP2 PUSH3 0x113 DUP3 CODECOPY RETURN JUMPDEST PUSH1 0x0 DUP1 REVERT JUMPDEST PUSH4 0x4E487B71 PUSH1 0xE0 SHL PUSH1 0x0 MSTORE PUSH1 0x41 PUSH1 0x4 MSTORE PUSH1 0x24 PUSH1 0x0 REVERT JUMPDEST MLOAD SWAP1 PUSH1 0x1 PUSH1 0x1 PUSH1 0xA0 SHL SUB DUP3 AND DUP3 SUB PUSH3 0xE2 JUMPI JUMP INVALID PUSH1 0x40 PUSH1 0x80 DUP2 MSTORE PUSH1 0x4 SWAP1 DUP2 CALLDATASIZE LT ISZERO PUSH2 0x20 JUMPI JUMPDEST POP POP CALLDATASIZE ISZERO PUSH2 0x1E JUMPI PUSH1 0x0 DUP1 REVERT JUMPDEST STOP JUMPDEST PUSH1 0x0 SWAP2 PUSH1 0xE0 SWAP1 DUP4 CALLDATALOAD DUP3 SHR SWAP2 DUP3 PUSH4 0x1083B076 EQ PUSH2 0xDB8 JUMPI DUP3 PUSH4 0x24057A00 EQ PUSH2 0xAEA JUMPI POP DUP2 PUSH4 0x2CD4E6B6 EQ PUSH2 0xAC1 JUMPI DUP2 PUSH4 0x2FFB61FB EQ PUSH2 0x327 JUMPI DUP2 PUSH4 0x372500AB EQ PUSH2 0x9B1 JUMPI DUP2 PUSH4 0x5A6964C3 EQ PUSH2 0x97A JUMPI DUP2 PUSH4 0x5C975ABB EQ PUSH2 0x956 JUMPI DUP2 PUSH4 0x6029BF9F EQ PUSH2 0x603 JUMPI DUP2 PUSH4 0x63DB7EAE EQ PUSH2 0x5E6 JUMPI DUP2 PUSH4 0x672D7A0D EQ PUSH2 0x53F JUMPI DUP2 PUSH4 0x770CE3D8 EQ PUSH2 0x507 JUMPI DUP2 PUSH4 0x77CD91BF EQ PUSH2 0x4D4 JUMPI DUP2 PUSH4 0x7E196DCE EQ PUSH2 0x496 JUMPI DUP2 PUSH4 0x81CDF676 EQ PUSH2 0x42A JUMPI DUP2 PUSH4 0x8DD4916B EQ PUSH2 0x402 JUMPI DUP2 PUSH4 0x90174C06 EQ PUSH2 0x3E6 JUMPI DUP2 PUSH4 0x949813B8 EQ PUSH2 0x3AE JUMPI DUP2 PUSH4 0x96F9D983 EQ PUSH2 0x36D JUMPI DUP2 PUSH4 0xA960F494 EQ PUSH2 0x32C JUMPI DUP2 PUSH4 0xCC0C3039 EQ PUSH2 0x327 JUMPI DUP2 PUSH4 0xDE50B595 EQ PUSH2 0x2FE JUMPI DUP2 PUSH4 0xDE6360BC EQ PUSH2 0x2BD JUMPI DUP2 PUSH4 0xDEF114B6 EQ PUSH2 0x290 JUMPI DUP2 PUSH4 0xEDB9821E EQ PUSH2 0x274 JUMPI DUP2 PUSH4 0xF065CC47 EQ PUSH2 0x168 JUMPI POP PUSH4 0xF1C7000B SUB PUSH2 0x11 JUMPI CALLVALUE PUSH2 0x164 JUMPI DUP2 PUSH1 0x3 NOT CALLDATASIZE ADD SLT PUSH2 0x164 JUMPI PUSH1 0x20 SWAP1 MLOAD PUSH1 0xC8 DUP2 MSTORE RETURN JUMPDEST POP DUP1 REVERT JUMPDEST SWAP1 POP CALLVALUE PUSH2 0x270 JUMPI PUSH1 0x60 CALLDATASIZE PUSH1 0x3 NOT ADD SLT PUSH2 0x270 JUMPI DUP1 CALLDATALOAD PUSH2 0x185 PUSH2 0xDEF JUMP JUMPDEST SWAP2 DUP2 DUP6 MSTORE PUSH1 0x20 SWAP4 PUSH1 0x5 DUP6 MSTORE DUP1 DUP7 KECCAK256 SWAP3 PUSH1 0x1 DUP1 PUSH1 0xA0 SHL SUB DUP1 SWAP6 AND SWAP4 DUP5 PUSH1 0x0 MSTORE DUP7 MSTORE DUP2 PUSH1 0x0 KECCAK256 PUSH2 0x1B6 PUSH1 0x44 CALLDATALOAD DUP3 SLOAD PUSH2 0xFF2 JUMP JUMPDEST SWAP1 SSTORE DUP7 SWAP6 DUP8 JUMPDEST DUP3 DUP10 MSTORE PUSH1 0x6 DUP3 MSTORE DUP4 DUP10 KECCAK256 DUP1 SLOAD DUP3 LT ISZERO PUSH2 0x263 JUMPI DUP8 PUSH2 0x1DB DUP4 DUP10 SWAP4 PUSH2 0xE68 JUMP JUMPDEST SWAP1 SLOAD SWAP1 PUSH1 0x3 SHL SHR AND EQ PUSH2 0x1F6 JUMPI PUSH2 0x1F1 SWAP1 PUSH2 0x103A JUMP JUMPDEST PUSH2 0x1BC JUMP JUMPDEST POP SWAP1 SWAP2 SWAP3 SWAP4 SWAP5 SWAP6 POP PUSH1 0x1 JUMPDEST ISZERO PUSH2 0x20A JUMPI DUP7 DUP1 RETURN JUMPDEST PUSH1 0x6 SWAP2 DUP8 MSTORE MSTORE DUP5 KECCAK256 DUP1 SLOAD SWAP2 PUSH1 0x1 PUSH1 0x40 SHL DUP4 LT ISZERO PUSH2 0x24E JUMPI POP SWAP1 PUSH2 0x232 SWAP2 PUSH1 0x1 DUP3 ADD DUP2 SSTORE PUSH2 0xE68 JUMP JUMPDEST SWAP1 SWAP3 DUP4 SLOAD SWAP2 PUSH1 0x3 SHL SWAP3 DUP4 SHL SWAP3 SHL NOT AND OR SWAP1 SSTORE CODESIZE DUP1 DUP1 DUP1 DUP1 DUP1 DUP7 DUP1 RETURN JUMPDEST PUSH1 0x41 SWAP1 PUSH4 0x4E487B71 PUSH1 0xE0 SHL PUSH1 0x0 MSTORE MSTORE PUSH1 0x24 PUSH1 0x0 REVERT JUMPDEST POP POP SWAP1 SWAP2 SWAP3 SWAP4 SWAP5 SWAP6 PUSH2 0x201 JUMP JUMPDEST DUP3 DUP1 REVERT JUMPDEST POP POP CALLVALUE PUSH2 0x164 JUMPI DUP2 PUSH1 0x3 NOT CALLDATASIZE ADD SLT PUSH2 0x164 JUMPI PUSH1 0x20 SWAP1 MLOAD PUSH1 0x14 DUP2 MSTORE RETURN JUMPDEST POP POP CALLVALUE PUSH2 0x164 JUMPI DUP2 PUSH1 0x3 NOT CALLDATASIZE ADD SLT PUSH2 0x164 JUMPI PUSH1 0x1 SLOAD SWAP1 MLOAD PUSH1 0x8 SWAP2 SWAP1 SWAP2 SHR PUSH1 0x1 PUSH1 0x1 PUSH1 0xA0 SHL SUB AND DUP2 MSTORE PUSH1 0x20 SWAP1 RETURN JUMPDEST SWAP1 POP CALLVALUE PUSH2 0x270 JUMPI DUP2 PUSH1 0x3 NOT CALLDATASIZE ADD SLT PUSH2 0x270 JUMPI DUP2 PUSH1 0x20 SWAP4 PUSH2 0x2DB PUSH2 0xDEF JUMP JUMPDEST SWAP3 CALLDATALOAD DUP2 MSTORE PUSH1 0x5 DUP6 MSTORE KECCAK256 SWAP1 PUSH1 0x1 DUP1 PUSH1 0xA0 SHL SUB AND PUSH1 0x0 MSTORE DUP3 MSTORE DUP1 PUSH1 0x0 KECCAK256 SLOAD SWAP1 MLOAD SWAP1 DUP2 MSTORE RETURN JUMPDEST POP POP CALLVALUE PUSH2 0x164 JUMPI DUP2 PUSH1 0x3 NOT CALLDATASIZE ADD SLT PUSH2 0x164 JUMPI PUSH1 0x3 SLOAD SWAP1 MLOAD PUSH1 0x1 PUSH1 0x1 PUSH1 0xA0 SHL SUB SWAP1 SWAP2 AND DUP2 MSTORE PUSH1 0x20 SWAP1 RETURN JUMPDEST PUSH2 0xDB8 JUMP JUMPDEST DUP4 CALLVALUE PUSH2 0x36A JUMPI PUSH1 0x20 CALLDATASIZE PUSH1 0x3 NOT ADD SLT PUSH2 0x36A JUMPI PUSH1 0x1 PUSH1 0x1 PUSH1 0xA0 SHL SUB PUSH2 0x34E PUSH2 0xDD9 JUMP JUMPDEST AND PUSH12 0xFFFFFFFFFFFFFFFFFFFFFFFF PUSH1 0xA0 SHL PUSH1 0x3 SLOAD AND OR PUSH1 0x3 SSTORE DUP1 RETURN JUMPDEST DUP1 REVERT JUMPDEST SWAP1 POP CALLVALUE PUSH2 0x270 JUMPI PUSH1 0x20 CALLDATASIZE PUSH1 0x3 NOT ADD SLT PUSH2 0x270 JUMPI CALLDATALOAD SWAP2 PUSH1 0x8 SLOAD DUP4 LT ISZERO PUSH2 0x36A JUMPI POP PUSH2 0x398 PUSH1 0x20 SWAP3 PUSH2 0xE1B JUMP JUMPDEST SWAP1 SLOAD SWAP2 MLOAD SWAP2 PUSH1 0x1 DUP1 PUSH1 0xA0 SHL SUB SWAP2 PUSH1 0x3 SHL SHR AND DUP2 MSTORE RETURN JUMPDEST POP POP CALLVALUE PUSH2 0x164 JUMPI PUSH1 0x20 CALLDATASIZE PUSH1 0x3 NOT ADD SLT PUSH2 0x164 JUMPI PUSH1 0x20 SWAP2 DUP2 SWAP1 PUSH1 0x1 PUSH1 0x1 PUSH1 0xA0 SHL SUB PUSH2 0x3D6 PUSH2 0xDD9 JUMP JUMPDEST AND DUP2 MSTORE PUSH1 0xA DUP5 MSTORE KECCAK256 SLOAD SWAP1 MLOAD SWAP1 DUP2 MSTORE RETURN JUMPDEST POP POP CALLVALUE PUSH2 0x164 JUMPI DUP2 PUSH1 0x3 NOT CALLDATASIZE ADD SLT PUSH2 0x164 JUMPI PUSH1 0x20 SWAP1 MLOAD PUSH1 0xB4 DUP2 MSTORE RETURN JUMPDEST SWAP1 POP CALLVALUE PUSH2 0x270 JUMPI DUP3 PUSH1 0x3 NOT CALLDATASIZE ADD SLT PUSH2 0x270 JUMPI SLOAD SWAP1 MLOAD PUSH1 0x1 PUSH1 0x1 PUSH1 0xA0 SHL SUB SWAP1 SWAP2 AND DUP2 MSTORE PUSH1 0x20 SWAP2 POP RETURN JUMPDEST POP POP CALLVALUE PUSH2 0x164 JUMPI PUSH2 0x43A CALLDATASIZE PUSH2 0xE05 JUMP JUMPDEST SWAP1 DUP4 MSTORE PUSH1 0x9 PUSH1 0x20 MSTORE DUP2 DUP4 KECCAK256 DUP1 SLOAD DUP3 LT ISZERO PUSH2 0x492 JUMPI DUP4 PUSH1 0x20 SWAP2 PUSH1 0x80 SWAP6 MSTORE KECCAK256 SWAP1 PUSH1 0x2 SHL ADD SWAP1 PUSH1 0x1 DUP1 PUSH1 0xA0 SHL SUB DUP3 SLOAD AND SWAP2 PUSH1 0x1 DUP2 ADD SLOAD SWAP2 PUSH1 0xFF PUSH1 0x3 PUSH1 0x2 DUP5 ADD SLOAD SWAP4 ADD SLOAD AND SWAP3 DUP2 MLOAD SWAP5 DUP6 MSTORE PUSH1 0x20 DUP6 ADD MSTORE DUP4 ADD MSTORE ISZERO ISZERO PUSH1 0x60 DUP3 ADD MSTORE RETURN JUMPDEST DUP4 DUP1 REVERT JUMPDEST DUP4 CALLVALUE PUSH2 0x36A JUMPI PUSH1 0x20 CALLDATASIZE PUSH1 0x3 NOT ADD SLT PUSH2 0x36A JUMPI PUSH1 0x1 PUSH1 0x1 PUSH1 0xA0 SHL SUB PUSH2 0x4B8 PUSH2 0xDD9 JUMP JUMPDEST AND PUSH12 0xFFFFFFFFFFFFFFFFFFFFFFFF PUSH1 0xA0 SHL PUSH1 0x2 SLOAD AND OR PUSH1 0x2 SSTORE DUP1 RETURN JUMPDEST POP POP CALLVALUE PUSH2 0x164 JUMPI PUSH2 0x4E4 CALLDATASIZE PUSH2 0xE05 JUMP JUMPDEST SWAP3 SWAP1 DUP2 MSTORE PUSH1 0x6 PUSH1 0x20 MSTORE DUP2 DUP2 KECCAK256 SWAP1 DUP2 SLOAD DUP5 LT ISZERO PUSH2 0x36A JUMPI POP PUSH1 0x20 SWAP3 PUSH2 0x398 SWAP2 PUSH2 0xE68 JUMP JUMPDEST POP POP CALLVALUE PUSH2 0x164 JUMPI PUSH1 0x20 CALLDATASIZE PUSH1 0x3 NOT ADD SLT PUSH2 0x164 JUMPI PUSH1 0x20 SWAP2 DUP2 SWAP1 PUSH1 0x1 PUSH1 0x1 PUSH1 0xA0 SHL SUB PUSH2 0x52F PUSH2 0xDD9 JUMP JUMPDEST AND DUP2 MSTORE PUSH1 0x7 DUP5 MSTORE KECCAK256 SLOAD SWAP1 MLOAD SWAP1 DUP2 MSTORE RETURN JUMPDEST DUP4 SWAP1 CALLVALUE PUSH2 0x164 JUMPI PUSH1 0x20 CALLDATASIZE PUSH1 0x3 NOT ADD SLT PUSH2 0x164 JUMPI PUSH2 0x55A PUSH2 0xDD9 JUMP JUMPDEST PUSH1 0x8 SLOAD PUSH1 0x1 PUSH1 0x1 PUSH1 0xA0 SHL SUB SWAP3 SWAP2 DUP4 AND SWAP2 DUP5 DUP1 JUMPDEST DUP4 DUP2 LT PUSH2 0x5B6 JUMPI JUMPDEST POP ISZERO PUSH2 0x57F JUMPI DUP5 DUP1 RETURN JUMPDEST PUSH1 0x1 PUSH1 0x40 SHL DUP3 LT ISZERO PUSH2 0x24E JUMPI POP DUP1 PUSH1 0x1 PUSH2 0x59C SWAP3 ADD PUSH1 0x8 SSTORE PUSH2 0xE1B JUMP JUMPDEST SWAP1 SWAP3 DUP4 SLOAD SWAP2 PUSH1 0x3 SHL SWAP3 DUP4 SHL SWAP3 SHL NOT AND OR SWAP1 SSTORE DUP2 DUP1 DUP1 DUP1 DUP5 DUP1 RETURN JUMPDEST DUP5 DUP7 PUSH2 0x5C1 DUP4 PUSH2 0xE1B JUMP JUMPDEST SWAP1 SLOAD SWAP1 PUSH1 0x3 SHL SHR AND EQ PUSH2 0x5DC JUMPI PUSH2 0x5D7 SWAP1 PUSH2 0x103A JUMP JUMPDEST PUSH2 0x56D JUMP JUMPDEST POP POP PUSH1 0x1 DUP7 PUSH2 0x575 JUMP JUMPDEST POP POP CALLVALUE PUSH2 0x164 JUMPI DUP2 PUSH1 0x3 NOT CALLDATASIZE ADD SLT PUSH2 0x164 JUMPI PUSH1 0x20 SWAP1 MLOAD PUSH2 0x2BC DUP2 MSTORE RETURN JUMPDEST DUP4 DUP4 CALLVALUE PUSH2 0x164 JUMPI PUSH1 0x20 CALLDATASIZE PUSH1 0x3 NOT ADD SLT PUSH2 0x164 JUMPI DUP3 CALLDATALOAD SWAP1 PUSH2 0x621 PUSH2 0xFFF JUMP JUMPDEST PUSH1 0x1 SLOAD PUSH1 0xFF DUP2 AND PUSH2 0x946 JUMPI DUP2 MLOAD PUSH4 0xB1283E77 PUSH1 0xE0 SHL DUP2 MSTORE DUP4 DUP7 DUP3 ADD MSTORE PUSH2 0x160 SWAP1 DUP2 DUP2 PUSH1 0x24 DUP2 PUSH1 0x1 DUP1 PUSH1 0xA0 SHL SUB DUP1 SWAP8 PUSH1 0x8 SHR AND GAS STATICCALL SWAP2 DUP3 ISZERO PUSH2 0x93C JUMPI DUP7 SWAP2 DUP8 SWAP2 DUP9 SWAP5 PUSH2 0x8F9 JUMPI JUMPDEST POP POP PUSH2 0x672 SWAP1 PUSH2 0xF51 JUMP JUMPDEST DUP2 ISZERO PUSH2 0x8BE JUMPI PUSH1 0x14 DUP3 MUL SWAP1 DUP3 DUP3 DIV PUSH1 0x14 SUB PUSH2 0x8AB JUMPI PUSH2 0x2BC DUP1 SWAP3 DIV SWAP4 PUSH1 0xB4 DUP5 MUL DUP5 DUP2 DIV PUSH1 0xB4 SUB PUSH2 0x898 JUMPI DUP4 SWAP1 DIV SWAP1 DUP4 PUSH2 0x6AA DUP7 PUSH2 0xF93 JUMP JUMPDEST DIV SWAP3 DUP5 PUSH2 0x6B6 DUP8 PUSH2 0xF93 JUMP JUMPDEST DIV SWAP5 PUSH1 0xC8 DUP8 MUL DUP8 DUP2 DIV PUSH1 0xC8 SUB PUSH2 0x885 JUMPI SWAP3 DUP12 SWAP13 SWAP3 PUSH2 0x6F3 DUP7 DUP14 SWAP15 SWAP7 SWAP14 PUSH2 0x6EE DUP14 SWAP15 SWAP16 SWAP7 PUSH2 0x6E6 DUP2 DUP9 SWAP10 DIV SWAP15 PUSH2 0xF93 JUMP JUMPDEST DIV SWAP14 DUP3 PUSH2 0x105D JUMP JUMPDEST PUSH2 0x1303 JUMP JUMPDEST PUSH2 0x6FC DUP8 PUSH2 0x1535 JUMP JUMPDEST AND DUP1 DUP5 MSTORE PUSH1 0xA PUSH1 0x20 MSTORE DUP11 DUP5 KECCAK256 PUSH2 0x713 DUP9 DUP3 SLOAD PUSH2 0xFF2 JUMP JUMPDEST SWAP1 SSTORE PUSH32 0x25E07F24D161088F2214E5AEBE4556904E5DB8D0EA9012D86C397ECAF8FDD70 DUP12 DUP14 DUP2 MLOAD SWAP1 DUP11 DUP3 MSTORE PUSH1 0x20 DUP3 ADD MSTORE LOG2 DUP7 ISZERO ISZERO DUP1 PUSH2 0x878 JUMPI JUMPDEST PUSH2 0x820 JUMPI JUMPDEST DUP8 ISZERO ISZERO DUP1 PUSH2 0x813 JUMPI JUMPDEST PUSH2 0x7B1 JUMPI JUMPDEST POP POP POP SWAP1 DUP7 PUSH1 0xC0 SWAP7 SWAP6 SWAP5 SWAP4 SWAP3 PUSH32 0x9A2E6A5232893D8912BAD8B33B7A32F790A3DF0BD781A7FD8796FAAA3B87F6D4 SWAP9 MLOAD SWAP7 DUP8 MSTORE PUSH1 0x20 DUP8 ADD MSTORE DUP6 ADD MSTORE PUSH1 0x60 DUP5 ADD MSTORE PUSH1 0x80 DUP4 ADD MSTORE PUSH1 0xA0 DUP3 ADD MSTORE LOG2 PUSH1 0x1 DUP2 SSTORE DUP1 RETURN JUMPDEST PUSH1 0x3 SLOAD AND SWAP1 DUP2 EXTCODESIZE ISZERO PUSH2 0x270 JUMPI DUP10 MLOAD PUSH4 0xD0E30DB PUSH1 0xE4 SHL DUP2 MSTORE SWAP2 DUP4 SWAP2 DUP4 SWAP2 DUP3 SWAP1 DUP12 SWAP1 GAS CALL DUP1 ISZERO PUSH2 0x809 JUMPI PUSH2 0x7E5 JUMPI JUMPDEST DUP1 PUSH2 0x760 JUMP JUMPDEST PUSH2 0x7F5 SWAP1 SWAP8 SWAP7 SWAP6 SWAP5 SWAP4 SWAP3 SWAP8 PUSH2 0xE80 JUMP JUMPDEST PUSH2 0x805 JUMPI SWAP1 SWAP2 SWAP3 SWAP4 SWAP5 DUP9 DUP11 PUSH2 0x7DF JUMP JUMPDEST DUP9 DUP1 REVERT JUMPDEST DUP10 MLOAD RETURNDATASIZE DUP5 DUP3 RETURNDATACOPY RETURNDATASIZE SWAP1 REVERT JUMPDEST POP DUP1 PUSH1 0x3 SLOAD AND ISZERO ISZERO PUSH2 0x75B JUMP JUMPDEST DUP1 SWAP2 SWAP3 POP PUSH1 0x2 SLOAD AND DUP12 DUP2 EXTCODESIZE ISZERO PUSH2 0x36A JUMPI DUP8 SWAP2 DUP5 DUP13 MLOAD DUP1 SWAP5 DUP2 SWAP4 PUSH4 0xD0E30DB PUSH1 0xE4 SHL DUP4 MSTORE GAS CALL DUP1 ISZERO PUSH2 0x86E JUMPI PUSH2 0x859 JUMPI JUMPDEST POP SWAP1 DUP11 SWAP2 PUSH2 0x752 JUMP JUMPDEST PUSH2 0x866 SWAP1 SWAP12 SWAP2 SWAP3 SWAP12 PUSH2 0xE80 JUMP JUMPDEST SWAP10 SWAP1 DUP12 PUSH2 0x850 JUMP JUMPDEST DUP11 MLOAD RETURNDATASIZE DUP15 DUP3 RETURNDATACOPY RETURNDATASIZE SWAP1 REVERT JUMPDEST POP DUP1 PUSH1 0x2 SLOAD AND ISZERO ISZERO PUSH2 0x74D JUMP JUMPDEST PUSH4 0x4E487B71 PUSH1 0xE0 SHL DUP13 MSTORE PUSH1 0x11 DUP14 MSTORE PUSH1 0x24 DUP13 REVERT JUMPDEST PUSH4 0x4E487B71 PUSH1 0xE0 SHL DUP10 MSTORE PUSH1 0x11 DUP11 MSTORE PUSH1 0x24 DUP10 REVERT JUMPDEST PUSH4 0x4E487B71 PUSH1 0xE0 SHL DUP8 MSTORE PUSH1 0x11 DUP9 MSTORE PUSH1 0x24 DUP8 REVERT JUMPDEST DUP4 MLOAD PUSH3 0x461BCD PUSH1 0xE5 SHL DUP2 MSTORE PUSH1 0x20 DUP2 DUP10 ADD MSTORE PUSH1 0x15 PUSH1 0x24 DUP3 ADD MSTORE PUSH21 0x4E6F206665657320746F2064697374726962757465 PUSH1 0x58 SHL PUSH1 0x44 DUP3 ADD MSTORE PUSH1 0x64 SWAP1 REVERT JUMPDEST PUSH2 0x672 SWAP5 POP PUSH2 0x921 SWAP4 POP DUP1 SWAP2 SWAP3 POP SWAP1 RETURNDATASIZE LT PUSH2 0x935 JUMPI JUMPDEST PUSH2 0x919 DUP2 DUP4 PUSH2 0xEAA JUMP JUMPDEST DUP2 ADD SWAP1 PUSH2 0xEED JUMP JUMPDEST SWAP11 SWAP9 POP POP POP POP POP POP SWAP4 SWAP2 POP POP SWAP2 SWAP1 DUP10 PUSH2 0x667 JUMP JUMPDEST POP RETURNDATASIZE PUSH2 0x90F JUMP JUMPDEST DUP5 MLOAD RETURNDATASIZE DUP9 DUP3 RETURNDATACOPY RETURNDATASIZE SWAP1 REVERT JUMPDEST DUP2 MLOAD PUSH4 0xD93C0665 PUSH1 0xE0 SHL DUP2 MSTORE DUP6 SWAP1 REVERT JUMPDEST POP POP CALLVALUE PUSH2 0x164 JUMPI DUP2 PUSH1 0x3 NOT CALLDATASIZE ADD SLT PUSH2 0x164 JUMPI PUSH1 0x20 SWAP1 PUSH1 0xFF PUSH1 0x1 SLOAD AND SWAP1 MLOAD SWAP1 ISZERO ISZERO DUP2 MSTORE RETURN JUMPDEST DUP4 SWAP1 CALLVALUE PUSH2 0x164 JUMPI PUSH1 0x20 CALLDATASIZE PUSH1 0x3 NOT ADD SLT PUSH2 0x164 JUMPI PUSH1 0x1 PUSH1 0x1 PUSH1 0xA0 SHL SUB PUSH2 0x99D PUSH2 0xDD9 JUMP JUMPDEST DUP3 SLOAD PUSH1 0x1 PUSH1 0x1 PUSH1 0xA0 SHL SUB NOT AND SWAP2 AND OR SWAP1 SSTORE DUP1 RETURN JUMPDEST SWAP2 SWAP1 POP CALLVALUE PUSH2 0x270 JUMPI DUP3 PUSH1 0x3 NOT CALLDATASIZE ADD SLT PUSH2 0x270 JUMPI PUSH2 0x9CC PUSH2 0xFFF JUMP JUMPDEST CALLER DUP4 MSTORE PUSH1 0x20 SWAP1 PUSH1 0xA DUP3 MSTORE DUP1 DUP5 KECCAK256 SLOAD SWAP3 DUP4 ISZERO PUSH2 0xA8A JUMPI CALLER DUP6 MSTORE PUSH1 0xA DUP4 MSTORE DUP5 DUP3 DUP2 KECCAK256 SSTORE DUP5 DUP1 DUP1 DUP1 DUP8 CALLER GAS CALL RETURNDATASIZE ISZERO PUSH2 0xA85 JUMPI RETURNDATASIZE PUSH2 0xA05 DUP2 PUSH2 0x1610 JUMP JUMPDEST SWAP1 PUSH2 0xA12 DUP6 MLOAD SWAP3 DUP4 PUSH2 0xEAA JUMP JUMPDEST DUP2 MSTORE DUP7 DUP6 RETURNDATASIZE SWAP3 ADD RETURNDATACOPY JUMPDEST ISZERO PUSH2 0xA52 JUMPI POP SWAP1 PUSH32 0x106F923F993C2149D49B4255FF723ACAFA1F2D94393F561D3EDA32AE348F7241 SWAP2 MLOAD SWAP3 DUP4 MSTORE CALLER SWAP3 LOG2 PUSH1 0x1 DUP2 SSTORE DUP1 RETURN JUMPDEST DUP3 PUSH1 0x64 SWAP3 MLOAD SWAP2 PUSH3 0x461BCD PUSH1 0xE5 SHL DUP4 MSTORE DUP3 ADD MSTORE PUSH1 0xF PUSH1 0x24 DUP3 ADD MSTORE PUSH15 0x151C985B9CD9995C8819985A5B1959 PUSH1 0x8A SHL PUSH1 0x44 DUP3 ADD MSTORE REVERT JUMPDEST PUSH2 0xA1B JUMP JUMPDEST DUP3 PUSH1 0x64 SWAP3 MLOAD SWAP2 PUSH3 0x461BCD PUSH1 0xE5 SHL DUP4 MSTORE DUP3 ADD MSTORE PUSH1 0x13 PUSH1 0x24 DUP3 ADD MSTORE PUSH19 0x4E6F207265776172647320746F20636C61696D PUSH1 0x68 SHL PUSH1 0x44 DUP3 ADD MSTORE REVERT JUMPDEST POP POP CALLVALUE PUSH2 0x164 JUMPI DUP2 PUSH1 0x3 NOT CALLDATASIZE ADD SLT PUSH2 0x164 JUMPI PUSH1 0x2 SLOAD SWAP1 MLOAD PUSH1 0x1 PUSH1 0x1 PUSH1 0xA0 SHL SUB SWAP1 SWAP2 AND DUP2 MSTORE PUSH1 0x20 SWAP1 RETURN JUMPDEST SWAP1 DUP5 SWAP3 POP CALLVALUE PUSH2 0x270 JUMPI PUSH1 0x20 SWAP2 DUP3 PUSH1 0x3 NOT CALLDATASIZE ADD SLT PUSH2 0x492 JUMPI DUP2 CALLDATALOAD SWAP5 PUSH2 0xB0C PUSH2 0xFFF JUMP JUMPDEST PUSH1 0x1 DUP1 SLOAD DUP3 MLOAD PUSH4 0xB1283E77 PUSH1 0xE0 SHL DUP2 MSTORE DUP6 DUP2 ADD DUP10 SWAP1 MSTORE SWAP2 SWAP6 PUSH1 0x24 SWAP5 SWAP2 PUSH1 0x8 SHR PUSH1 0x1 PUSH1 0x1 PUSH1 0xA0 SHL SUB AND PUSH2 0x160 DUP1 DUP6 DUP9 DUP2 DUP6 GAS STATICCALL DUP1 ISZERO PUSH2 0xDAE JUMPI DUP11 DUP12 SWAP7 DUP13 SWAP4 DUP14 SWAP4 PUSH2 0xD78 JUMPI JUMPDEST POP POP PUSH2 0xB5B SWAP1 PUSH2 0xF51 JUMP JUMPDEST DUP2 SUB GT PUSH2 0xD66 JUMPI DUP5 MLOAD SWAP10 PUSH4 0x2417667F PUSH1 0xE2 SHL DUP12 MSTORE DUP8 DUP12 ADD MSTORE DUP9 DUP11 DUP8 DUP2 DUP5 GAS STATICCALL SWAP7 DUP8 ISZERO PUSH2 0xD5C JUMPI DUP10 SWAP8 PUSH2 0xCBD JUMPI JUMPDEST DUP10 DUP10 SWAP11 SWAP12 POP SWAP7 DUP12 SWAP11 JUMPDEST PUSH2 0xB9D JUMPI JUMPDEST DUP12 DUP11 DUP2 SSTORE DUP1 RETURN JUMPDEST DUP9 MLOAD DUP12 LT ISZERO PUSH2 0xCB8 JUMPI PUSH2 0xBB0 DUP12 DUP11 PUSH2 0x1049 JUMP JUMPDEST MLOAD SWAP11 DUP8 MLOAD SWAP12 PUSH4 0x56B99A4F PUSH1 0xE1 SHL DUP14 MSTORE DUP4 DUP14 ADD MSTORE DUP13 DUP13 DUP4 DUP2 DUP8 GAS STATICCALL DUP14 DUP2 ISZERO PUSH2 0xCAD JUMPI SWAP11 DUP13 SWAP14 DUP2 SWAP14 SWAP13 SWAP3 PUSH2 0xC17 JUMPI JUMPDEST POP PUSH2 0xBE9 DUP4 DUP11 SWAP3 PUSH2 0x1049 JUMP JUMPDEST MLOAD SUB PUSH2 0xC02 JUMPI JUMPDEST POP PUSH2 0xBFA SWAP1 PUSH2 0x103A JUMP JUMPDEST SWAP11 SWAP10 SWAP9 PUSH2 0xB91 JUMP JUMPDEST PUSH2 0xC10 SWAP1 PUSH2 0xBFA SWAP3 SWAP11 PUSH2 0xFF2 JUMP JUMPDEST SWAP9 SWAP1 PUSH2 0xBF0 JUMP JUMPDEST SWAP12 POP POP POP DUP13 RETURNDATASIZE DUP1 SWAP2 DUP13 RETURNDATACOPY PUSH2 0xC2B DUP2 DUP13 PUSH2 0xEAA JUMP JUMPDEST DUP11 ADD PUSH2 0x120 DUP12 DUP3 SUB SLT PUSH2 0xCA9 JUMPI PUSH2 0xC43 DUP7 DUP13 ADD PUSH2 0xECC JUMP JUMPDEST POP DUP9 DUP12 ADD MLOAD SWAP11 PUSH8 0xFFFFFFFFFFFFFFFF SWAP12 DUP13 DUP2 GT PUSH2 0xCA5 JUMPI DUP3 PUSH2 0xC66 SWAP2 DUP4 ADD PUSH2 0x162C JUMP JUMPDEST POP PUSH1 0x80 DUP2 ADD MLOAD SWAP2 PUSH2 0xC79 PUSH1 0xC0 DUP4 ADD PUSH2 0xEE0 JUMP JUMPDEST POP DUP9 DUP3 ADD MLOAD SWAP13 DUP14 GT PUSH2 0xCA5 JUMPI DUP4 DUP16 SWAP14 SWAP4 DUP16 SWAP5 PUSH2 0xBE9 SWAP4 PUSH2 0xC9B SWAP2 DUP15 SWAP7 ADD PUSH2 0x162C JUMP JUMPDEST POP SWAP4 SWAP3 POP POP PUSH2 0xBDD JUMP JUMPDEST DUP16 DUP1 REVERT JUMPDEST DUP14 DUP1 REVERT JUMPDEST DUP10 MLOAD SWAP1 RETURNDATASIZE SWAP1 DUP3 RETURNDATACOPY RETURNDATASIZE SWAP1 REVERT JUMPDEST PUSH2 0xB96 JUMP JUMPDEST SWAP7 POP RETURNDATASIZE DUP1 DUP11 DUP13 RETURNDATACOPY PUSH2 0xCCE DUP2 DUP13 PUSH2 0xEAA JUMP JUMPDEST DUP11 ADD SWAP10 DUP3 DUP2 DUP13 SUB SLT PUSH2 0xD54 JUMPI DUP1 MLOAD SWAP1 PUSH8 0xFFFFFFFFFFFFFFFF DUP3 GT PUSH2 0xD58 JUMPI ADD SWAP10 DUP1 PUSH1 0x1F DUP13 ADD SLT ISZERO PUSH2 0xD54 JUMPI DUP11 MLOAD PUSH2 0xD04 DUP2 PUSH2 0x1022 JUMP JUMPDEST SWAP12 DUP5 DUP1 DUP10 MLOAD SWAP15 DUP16 SWAP1 PUSH2 0xD16 SWAP1 DUP3 PUSH2 0xEAA JUMP JUMPDEST DUP5 DUP2 MSTORE ADD SWAP3 PUSH1 0x5 SHL DUP3 ADD ADD SWAP3 DUP4 GT PUSH2 0xD50 JUMPI DUP5 ADD SWAP1 JUMPDEST DUP3 DUP3 LT PUSH2 0xD41 JUMPI POP SWAP10 SWAP11 DUP12 SWAP11 POP SWAP8 SWAP1 POP PUSH2 0xB88 JUMP JUMPDEST DUP2 MLOAD DUP2 MSTORE SWAP1 DUP5 ADD SWAP1 DUP5 ADD PUSH2 0xD2C JUMP JUMPDEST DUP12 DUP1 REVERT JUMPDEST DUP10 DUP1 REVERT JUMPDEST DUP11 DUP1 REVERT JUMPDEST DUP6 MLOAD RETURNDATASIZE DUP12 DUP3 RETURNDATACOPY RETURNDATASIZE SWAP1 REVERT JUMPDEST PUSH4 0x4E487B71 PUSH1 0xE0 SHL DUP10 MSTORE PUSH1 0x11 DUP8 MSTORE DUP6 DUP10 REVERT JUMPDEST SWAP2 POP SWAP2 POP PUSH2 0xB5B SWAP7 POP PUSH2 0xD97 SWAP3 POP DUP1 RETURNDATASIZE LT PUSH2 0x935 JUMPI PUSH2 0x919 DUP2 DUP4 PUSH2 0xEAA JUMP JUMPDEST SWAP10 POP POP POP POP SWAP10 SWAP4 POP SWAP4 POP SWAP1 POP SWAP2 SWAP7 SWAP3 SWAP2 SWAP1 DUP15 PUSH2 0xB50 JUMP JUMPDEST DUP7 MLOAD RETURNDATASIZE DUP13 DUP3 RETURNDATACOPY RETURNDATASIZE SWAP1 REVERT JUMPDEST CALLVALUE PUSH2 0xDD4 JUMPI PUSH1 0x0 CALLDATASIZE PUSH1 0x3 NOT ADD SLT PUSH2 0xDD4 JUMPI PUSH1 0x20 PUSH1 0x40 MLOAD PUSH1 0x64 DUP2 MSTORE RETURN JUMPDEST PUSH1 0x0 DUP1 REVERT JUMPDEST PUSH1 0x4 CALLDATALOAD SWAP1 PUSH1 0x1 PUSH1 0x1 PUSH1 0xA0 SHL SUB DUP3 AND DUP3 SUB PUSH2 0xDD4 JUMPI JUMP JUMPDEST PUSH1 0x24 CALLDATALOAD SWAP1 PUSH1 0x1 PUSH1 0x1 PUSH1 0xA0 SHL SUB DUP3 AND DUP3 SUB PUSH2 0xDD4 JUMPI JUMP JUMPDEST PUSH1 0x40 SWAP1 PUSH1 0x3 NOT ADD SLT PUSH2 0xDD4 JUMPI PUSH1 0x4 CALLDATALOAD SWAP1 PUSH1 0x24 CALLDATALOAD SWAP1 JUMP JUMPDEST PUSH1 0x8 SLOAD DUP2 LT ISZERO PUSH2 0xE52 JUMPI PUSH1 0x8 PUSH1 0x0 MSTORE PUSH32 0xF3F7A9FE364FAAB93B216DA50A3214154F22A0A2B415B23A84C8169E8B636EE3 ADD SWAP1 PUSH1 0x0 SWAP1 JUMP JUMPDEST PUSH4 0x4E487B71 PUSH1 0xE0 SHL PUSH1 0x0 MSTORE PUSH1 0x32 PUSH1 0x4 MSTORE PUSH1 0x24 PUSH1 0x0 REVERT JUMPDEST DUP1 SLOAD DUP3 LT ISZERO PUSH2 0xE52 JUMPI PUSH1 0x0 MSTORE PUSH1 0x20 PUSH1 0x0 KECCAK256 ADD SWAP1 PUSH1 0x0 SWAP1 JUMP JUMPDEST PUSH8 0xFFFFFFFFFFFFFFFF DUP2 GT PUSH2 0xE94 JUMPI PUSH1 0x40 MSTORE JUMP JUMPDEST PUSH4 0x4E487B71 PUSH1 0xE0 SHL PUSH1 0x0 MSTORE PUSH1 0x41 PUSH1 0x4 MSTORE PUSH1 0x24 PUSH1 0x0 REVERT JUMPDEST SWAP1 PUSH1 0x1F DUP1 NOT SWAP2 ADD AND DUP2 ADD SWAP1 DUP2 LT PUSH8 0xFFFFFFFFFFFFFFFF DUP3 GT OR PUSH2 0xE94 JUMPI PUSH1 0x40 MSTORE JUMP JUMPDEST MLOAD SWAP1 PUSH1 0x1 PUSH1 0x1 PUSH1 0xA0 SHL SUB DUP3 AND DUP3 SUB PUSH2 0xDD4 JUMPI JUMP JUMPDEST MLOAD SWAP1 DUP2 ISZERO ISZERO DUP3 SUB PUSH2 0xDD4 JUMPI JUMP JUMPDEST SWAP1 DUP2 PUSH2 0x160 SWAP2 SUB SLT PUSH2 0xDD4 JUMPI PUSH2 0xF02 DUP2 PUSH2 0xECC JUMP JUMPDEST SWAP2 PUSH2 0xF0F PUSH1 0x20 DUP4 ADD PUSH2 0xECC JUMP JUMPDEST SWAP2 PUSH1 0x40 DUP2 ADD MLOAD SWAP2 PUSH1 0x60 DUP3 ADD MLOAD SWAP2 PUSH2 0xF28 PUSH1 0x80 DUP3 ADD PUSH2 0xEE0 JUMP JUMPDEST SWAP2 PUSH1 0xA0 DUP3 ADD MLOAD SWAP2 PUSH1 0xC0 DUP2 ADD MLOAD SWAP2 PUSH1 0xE0 DUP3 ADD MLOAD SWAP2 PUSH2 0x100 DUP2 ADD MLOAD SWAP2 PUSH2 0x140 PUSH2 0x120 DUP4 ADD MLOAD SWAP3 ADD MLOAD SWAP1 JUMP JUMPDEST ISZERO PUSH2 0xF58 JUMPI JUMP JUMPDEST PUSH1 0x40 MLOAD PUSH3 0x461BCD PUSH1 0xE5 SHL DUP2 MSTORE PUSH1 0x20 PUSH1 0x4 DUP3 ADD MSTORE PUSH1 0x13 PUSH1 0x24 DUP3 ADD MSTORE PUSH19 0x13585C9AD95D081B9BDD081C995CDBDB1D9959 PUSH1 0x6A SHL PUSH1 0x44 DUP3 ADD MSTORE PUSH1 0x64 SWAP1 REVERT JUMPDEST SWAP1 PUSH1 0x64 DUP3 MUL SWAP2 DUP1 DUP4 DIV PUSH1 0x64 EQ SWAP1 ISZERO OR ISZERO PUSH2 0xFA9 JUMPI JUMP JUMPDEST PUSH4 0x4E487B71 PUSH1 0xE0 SHL PUSH1 0x0 MSTORE PUSH1 0x11 PUSH1 0x4 MSTORE PUSH1 0x24 PUSH1 0x0 REVERT JUMPDEST DUP2 DUP2 MUL SWAP3 SWAP2 DUP2 ISZERO SWAP2 DUP5 DIV EQ OR ISZERO PUSH2 0xFA9 JUMPI JUMP JUMPDEST DUP2 ISZERO PUSH2 0xFDC JUMPI DIV SWAP1 JUMP JUMPDEST PUSH4 0x4E487B71 PUSH1 0xE0 SHL PUSH1 0x0 MSTORE PUSH1 0x12 PUSH1 0x4 MSTORE PUSH1 0x24 PUSH1 0x0 REVERT JUMPDEST SWAP2 SWAP1 DUP3 ADD DUP1 SWAP3 GT PUSH2 0xFA9 JUMPI JUMP JUMPDEST PUSH1 0x2 PUSH1 0x0 SLOAD EQ PUSH2 0x1010 JUMPI PUSH1 0x2 PUSH1 0x0 SSTORE JUMP JUMPDEST PUSH1 0x40 MLOAD PUSH4 0x3EE5AEB5 PUSH1 0xE0 SHL DUP2 MSTORE PUSH1 0x4 SWAP1 REVERT JUMPDEST PUSH8 0xFFFFFFFFFFFFFFFF DUP2 GT PUSH2 0xE94 JUMPI PUSH1 0x5 SHL PUSH1 0x20 ADD SWAP1 JUMP JUMPDEST PUSH1 0x0 NOT DUP2 EQ PUSH2 0xFA9 JUMPI PUSH1 0x1 ADD SWAP1 JUMP JUMPDEST DUP1 MLOAD DUP3 LT ISZERO PUSH2 0xE52 JUMPI PUSH1 0x20 SWAP2 PUSH1 0x5 SHL ADD ADD SWAP1 JUMP JUMPDEST DUP2 ISZERO DUP1 ISZERO PUSH2 0x12F0 JUMPI JUMPDEST PUSH2 0x12EC JUMPI PUSH1 0x4 DUP1 SLOAD PUSH1 0x40 DUP1 MLOAD PUSH4 0x18160DDD PUSH1 0xE0 SHL DUP2 MSTORE SWAP4 PUSH1 0x1 PUSH1 0x1 PUSH1 0xA0 SHL SUB SWAP3 PUSH1 0x20 SWAP2 SWAP1 DUP3 SWAP1 DUP8 SWAP1 DUP8 SWAP1 DUP3 SWAP1 DUP9 AND GAS STATICCALL SWAP6 DUP7 ISZERO PUSH2 0x12E1 JUMPI PUSH1 0x0 SWAP7 PUSH2 0x12B2 JUMPI JUMPDEST POP DUP6 ISZERO PUSH2 0x12A9 JUMPI PUSH2 0x10B5 DUP7 PUSH2 0x1022 JUMP JUMPDEST SWAP4 PUSH2 0x10C2 DUP5 MLOAD SWAP6 DUP7 PUSH2 0xEAA JUMP JUMPDEST DUP7 DUP6 MSTORE PUSH1 0x1F NOT PUSH2 0x10D1 DUP9 PUSH2 0x1022 JUMP JUMPDEST ADD CALLDATASIZE DUP5 DUP8 ADD CALLDATACOPY PUSH2 0x10E3 DUP8 PUSH1 0x0 SWAP10 PUSH2 0xFD2 JUMP JUMPDEST PUSH1 0x1 SWAP2 DUP3 JUMPDEST DUP10 DUP2 GT ISZERO PUSH2 0x10FD JUMPI POP POP POP POP POP POP POP POP POP POP POP JUMP JUMPDEST DUP2 DUP10 SLOAD AND DUP8 MLOAD PUSH4 0x31A9108F PUSH1 0xE1 SHL DUP2 MSTORE DUP3 DUP12 DUP3 ADD MSTORE PUSH1 0x24 SWAP1 DUP9 DUP2 DUP4 DUP2 DUP7 GAS STATICCALL SWAP1 DUP2 ISZERO PUSH2 0x129E JUMPI PUSH1 0x0 SWAP2 PUSH2 0x1269 JUMPI JUMPDEST POP PUSH1 0x0 DUP15 DUP2 DUP8 DUP15 JUMPDEST DUP4 DUP4 LT PUSH2 0x1238 JUMPI JUMPDEST POP POP POP POP ISZERO PUSH2 0x1156 JUMPI JUMPDEST POP POP POP PUSH2 0x1151 SWAP1 PUSH2 0x103A JUMP JUMPDEST PUSH2 0x10E8 JUMP JUMPDEST DUP5 DUP13 SWAP4 SWAP3 SWAP5 SWAP15 SWAP5 DUP11 SWAP3 DUP13 MLOAD SWAP5 DUP6 SWAP4 DUP5 SWAP3 PUSH4 0x70A08231 PUSH1 0xE0 SHL DUP5 MSTORE AND DUP1 SWAP8 DUP4 ADD MSTORE GAS STATICCALL SWAP1 DUP2 ISZERO PUSH2 0x122D JUMPI SWAP1 DUP10 SWAP2 PUSH1 0x0 SWAP2 PUSH2 0x11FD JUMPI JUMPDEST POP SWAP2 DUP1 PUSH32 0x682E67F2362BB04B61E784C278B2E6FAC980CBEC16EFEBC73594926E0E7CC358 PUSH2 0x1151 SWAP6 SWAP4 PUSH2 0x11C0 PUSH2 0x11F4 SWAP7 DUP11 PUSH2 0xFBF JUMP JUMPDEST DUP4 PUSH1 0x0 MSTORE PUSH1 0xA DUP14 MSTORE DUP2 PUSH1 0x0 KECCAK256 PUSH2 0x11D7 DUP3 DUP3 SLOAD PUSH2 0xFF2 JUMP JUMPDEST SWAP1 SSTORE DUP2 MLOAD SWAP1 DUP2 MSTORE DUP12 DUP14 DUP3 ADD MSTORE LOG2 PUSH2 0x11EE DUP3 DUP13 PUSH2 0x1049 JUMP JUMPDEST MSTORE PUSH2 0x103A JUMP JUMPDEST SWAP11 SWAP1 CODESIZE DUP1 PUSH2 0x1145 JUMP JUMPDEST SWAP2 POP DUP9 DUP3 DUP2 RETURNDATASIZE DUP4 GT PUSH2 0x1226 JUMPI JUMPDEST PUSH2 0x1214 DUP2 DUP4 PUSH2 0xEAA JUMP JUMPDEST DUP2 ADD SUB SLT PUSH2 0x36A JUMPI POP MLOAD DUP9 SWAP1 DUP3 PUSH2 0x118A JUMP JUMPDEST POP RETURNDATASIZE PUSH2 0x120A JUMP JUMPDEST DUP10 MLOAD RETURNDATASIZE PUSH1 0x0 DUP3 RETURNDATACOPY RETURNDATASIZE SWAP1 REVERT JUMPDEST DUP3 PUSH2 0x1242 SWAP2 PUSH2 0x1049 JUMP JUMPDEST MLOAD AND DUP9 DUP6 AND EQ PUSH2 0x125C JUMPI PUSH2 0x1255 SWAP1 PUSH2 0x103A JUMP JUMPDEST DUP8 DUP15 PUSH2 0x1133 JUMP JUMPDEST POP POP POP DUP7 DUP15 CODESIZE DUP8 DUP15 PUSH2 0x113B JUMP JUMPDEST SWAP1 DUP10 DUP3 DUP2 RETURNDATASIZE DUP4 GT PUSH2 0x1297 JUMPI JUMPDEST PUSH2 0x127F DUP2 DUP4 PUSH2 0xEAA JUMP JUMPDEST DUP2 ADD SUB SLT PUSH2 0x36A JUMPI POP PUSH2 0x1291 SWAP1 PUSH2 0xECC JUMP JUMPDEST CODESIZE PUSH2 0x112B JUMP JUMPDEST POP RETURNDATASIZE PUSH2 0x1275 JUMP JUMPDEST DUP11 MLOAD RETURNDATASIZE PUSH1 0x0 DUP3 RETURNDATACOPY RETURNDATASIZE SWAP1 REVERT JUMPDEST POP POP POP POP POP POP POP JUMP JUMPDEST SWAP1 SWAP6 DUP3 DUP3 DUP2 RETURNDATASIZE DUP4 GT PUSH2 0x12DA JUMPI JUMPDEST PUSH2 0x12C9 DUP2 DUP4 PUSH2 0xEAA JUMP JUMPDEST DUP2 ADD SUB SLT PUSH2 0x36A JUMPI POP MLOAD SWAP5 CODESIZE PUSH2 0x10A5 JUMP JUMPDEST POP RETURNDATASIZE PUSH2 0x12BF JUMP JUMPDEST DUP4 MLOAD RETURNDATASIZE PUSH1 0x0 DUP3 RETURNDATACOPY RETURNDATASIZE SWAP1 REVERT JUMPDEST POP POP JUMP JUMPDEST POP PUSH1 0x4 SLOAD PUSH1 0x1 PUSH1 0x1 PUSH1 0xA0 SHL SUB AND ISZERO PUSH2 0x1066 JUMP JUMPDEST SWAP2 PUSH1 0x0 DUP4 DUP2 MSTORE PUSH1 0x20 SWAP4 PUSH1 0x6 DUP6 MSTORE PUSH1 0x40 SWAP5 DUP6 DUP4 KECCAK256 SWAP2 DUP7 MLOAD DUP1 DUP5 DUP5 DUP3 SWAP7 SLOAD SWAP4 DUP5 DUP2 MSTORE ADD SWAP1 DUP8 MSTORE DUP5 DUP8 KECCAK256 SWAP3 DUP8 JUMPDEST DUP7 DUP3 DUP3 LT PUSH2 0x1516 JUMPI POP POP POP PUSH2 0x1344 SWAP3 POP SUB DUP5 PUSH2 0xEAA JUMP JUMPDEST DUP3 MLOAD ISZERO DUP1 ISZERO PUSH2 0x150E JUMPI JUMPDEST PUSH2 0x1505 JUMPI DUP4 SWAP5 DUP5 SWAP6 JUMPDEST DUP5 MLOAD DUP8 LT ISZERO PUSH2 0x13A0 JUMPI DUP3 DUP7 MSTORE PUSH1 0x5 DUP5 MSTORE DUP9 DUP7 KECCAK256 PUSH2 0x139A SWAP2 PUSH2 0x1394 SWAP2 PUSH1 0x1 PUSH1 0x1 PUSH1 0xA0 SHL SUB PUSH2 0x1384 DUP12 DUP11 PUSH2 0x1049 JUMP JUMPDEST MLOAD AND DUP10 MSTORE DUP7 MSTORE DUP11 DUP9 KECCAK256 SLOAD SWAP1 PUSH2 0xFF2 JUMP JUMPDEST SWAP7 PUSH2 0x103A JUMP JUMPDEST SWAP6 PUSH2 0x1357 JUMP JUMPDEST SWAP1 SWAP7 SWAP2 SWAP4 SWAP5 SWAP3 SWAP6 POP DUP1 ISZERO PUSH1 0x0 EQ PUSH2 0x1445 JUMPI POP DUP4 MLOAD PUSH2 0x13BD SWAP2 PUSH2 0xFD2 JUMP JUMPDEST SWAP3 DUP2 JUMPDEST DUP2 MLOAD DUP2 LT ISZERO PUSH2 0x143B JUMPI PUSH2 0x1436 SWAP1 PUSH1 0x1 PUSH1 0x1 PUSH1 0xA0 SHL SUB DUP1 PUSH2 0x13E0 DUP4 DUP7 PUSH2 0x1049 JUMP JUMPDEST MLOAD AND DUP6 MSTORE PUSH1 0xA DUP9 MSTORE DUP10 DUP6 KECCAK256 PUSH2 0x13F6 DUP9 DUP3 SLOAD PUSH2 0xFF2 JUMP JUMPDEST SWAP1 SSTORE PUSH2 0x1402 DUP3 DUP6 PUSH2 0x1049 JUMP JUMPDEST MLOAD AND PUSH32 0xBCB095493DC2805DC847B9BBDFC1FF0FDA68B84C79543E42D7B2ECC2BE9E04BB DUP11 DUP1 MLOAD DUP10 DUP2 MSTORE DUP9 DUP12 DUP3 ADD MSTORE LOG2 PUSH2 0x103A JUMP JUMPDEST PUSH2 0x13C0 JUMP JUMPDEST POP POP POP POP POP POP SWAP1 POP JUMP JUMPDEST SWAP1 DUP3 SWAP5 SWAP3 JUMPDEST DUP4 MLOAD DUP2 LT ISZERO PUSH2 0x14FA JUMPI DUP5 DUP7 MSTORE PUSH1 0x5 DUP8 MSTORE DUP9 DUP7 KECCAK256 PUSH2 0x14F5 SWAP2 SWAP1 PUSH1 0x1 PUSH1 0x1 PUSH1 0xA0 SHL SUB SWAP1 DUP2 PUSH2 0x1476 DUP5 DUP10 PUSH2 0x1049 JUMP JUMPDEST MLOAD AND DUP10 MSTORE DUP10 MSTORE PUSH32 0xBCB095493DC2805DC847B9BBDFC1FF0FDA68B84C79543E42D7B2ECC2BE9E04BB DUP12 PUSH2 0x14B4 DUP8 PUSH2 0x14AF DUP4 DUP14 KECCAK256 SLOAD DUP10 PUSH2 0xFBF JUMP JUMPDEST PUSH2 0xFD2 JUMP JUMPDEST SWAP3 DUP1 PUSH2 0x14C0 DUP7 DUP12 PUSH2 0x1049 JUMP JUMPDEST MLOAD AND DUP12 MSTORE PUSH1 0xA DUP13 MSTORE DUP2 DUP12 KECCAK256 PUSH2 0x14D6 DUP6 DUP3 SLOAD PUSH2 0xFF2 JUMP JUMPDEST SWAP1 SSTORE PUSH2 0x14E2 DUP6 DUP11 PUSH2 0x1049 JUMP JUMPDEST MLOAD AND SWAP3 DUP2 MLOAD SWAP1 DUP2 MSTORE DUP10 DUP13 DUP3 ADD MSTORE LOG2 PUSH2 0x103A JUMP JUMPDEST PUSH2 0x144A JUMP JUMPDEST POP POP POP POP POP POP POP SWAP1 POP JUMP JUMPDEST POP POP POP POP SWAP2 POP POP JUMP JUMPDEST POP DUP6 ISZERO PUSH2 0x134E JUMP JUMPDEST DUP6 SLOAD PUSH1 0x1 PUSH1 0x1 PUSH1 0xA0 SHL SUB AND DUP5 MSTORE PUSH1 0x1 SWAP6 DUP7 ADD SWAP6 DUP10 SWAP6 POP SWAP4 ADD SWAP3 ADD PUSH2 0x132D JUMP JUMPDEST PUSH1 0x8 SWAP1 DUP2 SLOAD DUP1 ISZERO DUP1 ISZERO PUSH2 0x1608 JUMPI JUMPDEST PUSH2 0x1603 JUMPI PUSH2 0x1550 SWAP2 PUSH2 0xFD2 JUMP JUMPDEST PUSH1 0x0 JUMPDEST DUP3 SLOAD DUP2 LT ISZERO PUSH2 0x1603 JUMPI DUP1 PUSH32 0x4EA3E03797614006774ACCE32832FBAA20D9D69DE554DF367F4BB8A98B92E742 PUSH2 0x158A PUSH2 0x15FE SWAP4 PUSH2 0xE1B JUMP JUMPDEST SWAP2 SWAP1 PUSH1 0x1 DUP1 PUSH1 0xA0 SHL SUB DUP1 SWAP2 SLOAD PUSH1 0x3 SWAP5 DUP6 SHL SHR AND PUSH1 0x0 MSTORE PUSH1 0x20 SWAP1 PUSH1 0x7 DUP3 MSTORE PUSH1 0x40 SWAP4 DUP5 PUSH1 0x0 KECCAK256 PUSH2 0x15B9 DUP10 DUP3 SLOAD PUSH2 0xFF2 JUMP JUMPDEST SWAP1 SSTORE DUP2 PUSH2 0x15C5 DUP8 PUSH2 0xE1B JUMP JUMPDEST SWAP1 SLOAD SWAP1 DUP4 SHL SHR AND PUSH1 0x0 MSTORE PUSH1 0xA DUP4 MSTORE DUP5 PUSH1 0x0 KECCAK256 PUSH2 0x15E2 DUP10 DUP3 SLOAD PUSH2 0xFF2 JUMP JUMPDEST SWAP1 SSTORE PUSH2 0x15ED DUP7 PUSH2 0xE1B JUMP JUMPDEST SWAP1 SLOAD SWAP2 SHL SHR AND SWAP3 MLOAD DUP7 DUP2 MSTORE LOG2 PUSH2 0x103A JUMP JUMPDEST PUSH2 0x1553 JUMP JUMPDEST POP POP POP JUMP JUMPDEST POP DUP2 ISZERO PUSH2 0x1543 JUMP JUMPDEST PUSH8 0xFFFFFFFFFFFFFFFF DUP2 GT PUSH2 0xE94 JUMPI PUSH1 0x1F ADD PUSH1 0x1F NOT AND PUSH1 0x20 ADD SWAP1 JUMP JUMPDEST SWAP2 SWAP1 DUP1 PUSH1 0x1F DUP5 ADD SLT ISZERO PUSH2 0xDD4 JUMPI DUP3 MLOAD SWAP1 PUSH2 0x1645 DUP3 PUSH2 0x1610 JUMP JUMPDEST SWAP2 PUSH2 0x1653 PUSH1 0x40 MLOAD SWAP4 DUP5 PUSH2 0xEAA JUMP JUMPDEST DUP1 DUP4 MSTORE PUSH1 0x20 SWAP2 DUP3 DUP3 DUP8 ADD ADD GT PUSH2 0xDD4 JUMPI PUSH1 0x0 JUMPDEST DUP2 DUP2 LT PUSH2 0x167B JUMPI POP DUP3 PUSH1 0x0 SWAP4 SWAP5 SWAP6 POP ADD ADD MSTORE SWAP1 JUMP JUMPDEST DUP6 DUP2 ADD DUP4 ADD MLOAD DUP5 DUP3 ADD DUP5 ADD MSTORE DUP3 ADD PUSH2 0x1666 JUMP INVALID LOG2 PUSH5 0x6970667358 0x22 SLT KECCAK256 0xEE ADDRESS KECCAK256 0xD8 GASLIMIT 0xBC 0xB2 BASEFEE 0xD9 PUSH26 0xB04328B12FF076E85305981298026A9D4746004A919964736F6C PUSH4 0x43000814 STOP CALLER "},"methodIdentifiers":{"BITTENSOR_POOL_SHARE()":"1083b076","BUILDER_POOL_SHARE()":"f1c7000b","CREATOR_SHARE()":"cc0c3039","GENESIS_SHARE()":"edb9821e","NODE_SHARE()":"2ffb61fb","ORACLE_SHARE()":"90174c06","TOTAL_FEE()":"63db7eae","activeNodes(uint256)":"96f9d983","bittensorRewardPool()":"de50b595","builderRewardPool()":"2cd4e6b6","calculateWinnerPayouts(uint256)":"24057a00","claimRewards()":"372500ab","distributeFees(uint256)":"6029bf9f","genesisNFT()":"8dd4916b","marketOracles(uint256,uint256)":"77cd91bf","marketPayouts(uint256,uint256)":"81cdf676","nodeRewards(address)":"770ce3d8","oracleContributions(uint256,address)":"de6360bc","paused()":"5c975abb","predictionMarket()":"def114b6","registerNode(address)":"672d7a0d","registerOracleContribution(uint256,address,uint256)":"f065cc47","unclaimedRewards(address)":"949813b8","updateBittensorRewardPool(address)":"a960f494","updateBuilderRewardPool(address)":"7e196dce","updateGenesisNFT(address)":"5a6964c3"}}}}}