{"contracts/src/BuilderRewardPool.sol":{"BuilderRewardPool":{"abi":[{"inputs":[],"stateMutability":"nonpayable","type":"constructor"},{"inputs":[{"internalType":"address","name":"owner","type":"address"}],"name":"OwnableInvalidOwner","type":"error"},{"inputs":[{"internalType":"address","name":"account","type":"address"}],"name":"OwnableUnauthorizedAccount","type":"error"},{"inputs":[],"name":"ReentrancyGuardReentrantCall","type":"error"},{"anonymous":false,"inputs":[{"indexed":true,"internalType":"address","name":"builder","type":"address"}],"name":"BuilderRegistered","type":"event"},{"anonymous":false,"inputs":[{"indexed":true,"internalType":"address","name":"builder","type":"address"},{"indexed":false,"internalType":"uint256","name":"amount","type":"uint256"},{"indexed":false,"internalType":"uint256","name":"weekNumber","type":"uint256"}],"name":"BuilderRewarded","type":"event"},{"anonymous":false,"inputs":[{"indexed":true,"internalType":"address","name":"builder","type":"address"},{"indexed":false,"internalType":"uint256","name":"marketsCreated","type":"uint256"},{"indexed":false,"internalType":"uint256","name":"volume","type":"uint256"}],"name":"ContributionRecorded","type":"event"},{"anonymous":false,"inputs":[{"indexed":true,"internalType":"address","name":"previousOwner","type":"address"},{"indexed":true,"internalType":"address","name":"newOwner","type":"address"}],"name":"OwnershipTransferred","type":"event"},{"anonymous":false,"inputs":[{"indexed":false,"internalType":"uint256","name":"amount","type":"uint256"},{"indexed":false,"internalType":"uint256","name":"weekNumber","type":"uint256"}],"name":"RewardPoolDeposited","type":"event"},{"anonymous":false,"inputs":[{"indexed":false,"internalType":"uint256","name":"weekNumber","type":"uint256"},{"indexed":false,"internalType":"uint256","name":"totalAmount","type":"uint256"},{"indexed":false,"internalType":"uint256","name":"buildersRewarded","type":"uint256"}],"name":"WeeklyDistribution","type":"event"},{"inputs":[],"name":"MIN_CONTRIBUTION_THRESHOLD","outputs":[{"internalType":"uint256","name":"","type":"uint256"}],"stateMutability":"view","type":"function"},{"inputs":[],"name":"TOP_BUILDERS_COUNT","outputs":[{"internalType":"uint256","name":"","type":"uint256"}],"stateMutability":"view","type":"function"},{"inputs":[],"name":"WEEK_DURATION","outputs":[{"internalType":"uint256","name":"","type":"uint256"}],"stateMutability":"view","type":"function"},{"inputs":[{"internalType":"address","name":"","type":"address"}],"name":"builders","outputs":[{"internalType":"address","name":"builder","type":"address"},{"internalType":"uint256","name":"marketsCreated","type":"uint256"},{"internalType":"uint256","name":"volumeGenerated","type":"uint256"},{"internalType":"uint256","name":"accuracyScore","type":"uint256"},{"internalType":"uint256","name":"communityVotes","type":"uint256"},{"internalType":"uint256","name":"rewardsClaimed","type":"uint256"},{"internalType":"bool","name":"isEligible","type":"bool"}],"stateMutability":"view","type":"function"},{"inputs":[{"internalType":"address","name":"_builder","type":"address"}],"name":"calculateBuilderScore","outputs":[{"internalType":"uint256","name":"","type":"uint256"}],"stateMutability":"view","type":"function"},{"inputs":[{"internalType":"uint256","name":"_weekNumber","type":"uint256"}],"name":"claimReward","outputs":[],"stateMutability":"nonpayable","type":"function"},{"inputs":[],"name":"contractStartTime","outputs":[{"internalType":"uint256","name":"","type":"uint256"}],"stateMutability":"view","type":"function"},{"inputs":[],"name":"currentWeek","outputs":[{"internalType":"uint256","name":"","type":"uint256"}],"stateMutability":"view","type":"function"},{"inputs":[],"name":"deposit","outputs":[],"stateMutability":"payable","type":"function"},{"inputs":[],"name":"distributeWeeklyRewards","outputs":[],"stateMutability":"nonpayable","type":"function"},{"inputs":[],"name":"emergencyWithdraw","outputs":[],"stateMutability":"nonpayable","type":"function"},{"inputs":[],"name":"getCurrentWeekInfo","outputs":[{"internalType":"uint256","name":"weekNumber","type":"uint256"},{"internalType":"uint256","name":"totalPool","type":"uint256"},{"internalType":"uint256","name":"startTime","type":"uint256"},{"internalType":"uint256","name":"endTime","type":"uint256"}],"stateMutability":"view","type":"function"},{"inputs":[],"name":"owner","outputs":[{"internalType":"address","name":"","type":"address"}],"stateMutability":"view","type":"function"},{"inputs":[{"internalType":"address","name":"_builder","type":"address"},{"internalType":"uint256","name":"_marketsCreated","type":"uint256"},{"internalType":"uint256","name":"_volumeGenerated","type":"uint256"}],"name":"recordContribution","outputs":[],"stateMutability":"nonpayable","type":"function"},{"inputs":[],"name":"renounceOwnership","outputs":[],"stateMutability":"nonpayable","type":"function"},{"inputs":[],"name":"totalDistributed","outputs":[{"internalType":"uint256","name":"","type":"uint256"}],"stateMutability":"view","type":"function"},{"inputs":[{"internalType":"address","name":"newOwner","type":"address"}],"name":"transferOwnership","outputs":[],"stateMutability":"nonpayable","type":"function"},{"inputs":[{"internalType":"address","name":"_builder","type":"address"},{"internalType":"uint256","name":"_score","type":"uint256"}],"name":"updateAccuracyScore","outputs":[],"stateMutability":"nonpayable","type":"function"},{"inputs":[{"internalType":"address","name":"_builder","type":"address"}],"name":"voteForBuilder","outputs":[],"stateMutability":"nonpayable","type":"function"},{"inputs":[{"internalType":"uint256","name":"","type":"uint256"},{"internalType":"address","name":"","type":"address"}],"name":"weeklyBuilderRewards","outputs":[{"internalType":"uint256","name":"","type":"uint256"}],"stateMutability":"view","type":"function"},{"inputs":[{"internalType":"uint256","name":"","type":"uint256"}],"name":"weeklyRewards","outputs":[{"internalType":"uint256","name":"totalPool","type":"uint256"},{"internalType":"uint256","name":"distributed","type":"uint256"},{"internalType":"uint256","name":"weekNumber","type":"uint256"},{"internalType":"uint256","name":"startTime","type":"uint256"},{"internalType":"uint256","name":"endTime","type":"uint256"},{"internalType":"bool","name":"finalized","type":"bool"}],"stateMutability":"view","type":"function"},{"inputs":[{"internalType":"uint256","name":"","type":"uint256"},{"internalType":"uint256","name":"","type":"uint256"}],"name":"weeklyTopBuilders","outputs":[{"internalType":"address","name":"","type":"address"}],"stateMutability":"view","type":"function"},{"stateMutability":"payable","type":"receive"}],"evm":{"bytecode":{"linkReferences":{},"object":"60806040908082523461013a573315610124575060008054336001600160a01b03198216811783558351916001600160a01b03167f8be0079c531659141344cd1fd0a4f28419497f9722a3daafe3b4186f6b6457e08480a36001808055426008558060065562093a804201908142116101105760c083016001600160401b038111848210176100fc5790600593929186528483526020830190858252868401908082526060850192428452608086019485528860a0870198808a52838152600260205220955186555190850155516002840155516003830155516004820155019051151560ff801983541691161790555161114590816101408239f35b634e487b7160e01b85526041600452602485fd5b634e487b7160e01b84526011600452602484fd5b631e4fbdf760e01b815260006004820152602490fd5b600080fdfe608080604052600436101561003a575b50361561001b57600080fd5b60065460005260026020526040600020610036348254610f1d565b9055005b60003560e01c90816306575c8914610ec0575080630c3d515714610ea2578063144ddefc14610e1f5780632ae2790514610cd95780634352ea9a14610cb75780635867b78814610bd8578063715018a614610b7f57806376f5f70014610b6157806384a17e7314610b455780638b9d41f514610ab15780638da5cb5b14610a88578063a3966e9e14610a3b578063ae169a5014610935578063af364c05146108cd578063b46ed01214610849578063c28232a4146103f4578063c397bcfa146103a7578063d0e30db014610304578063db2e21bc14610225578063e605b687146101ea578063efca2eed146101cc5763f2fde38b14610139573861000f565b346101c75760203660031901126101c757610152610edb565b61015a610ef1565b6001600160a01b039081169081156101ae57600054826bffffffffffffffffffffffff60a01b821617600055167f8be0079c531659141344cd1fd0a4f28419497f9722a3daafe3b4186f6b6457e0600080a3005b604051631e4fbdf760e01b815260006004820152602490fd5b600080fd5b346101c75760003660031901126101c7576020600754604051908152f35b346101c75760403660031901126101c7576001600160a01b0361020b610edb565b166000526003602052602435600360406000200155600080f35b346101c75760003660031901126101c75761023e610ef1565b600654600c8111156102fc57600b1981019081116102e6575b6000906001805b8281111561029757838061026e57005b60008054610295928291829182916001600160a01b03165af161028f610fb3565b50610ffe565b005b806000526002602052604060002060ff6005820154166102c1575b506102bc90610f2a565b61025e565b6102bc91946102d982856102df945491015490610f39565b90610f1d565b93906102b2565b634e487b7160e01b600052601160045260246000fd5b506000610257565b60003660031901126101c757341561036f5761031e61103c565b60065460005260026020526040600020610339348254610f1d565b90557f5760ad5c95118e9b3dfa3ba44670ae1bf29cc286553f9f65bf3e3651bba142ed60406006548151903482526020820152a1005b60405162461bcd60e51b815260206004820152601060248201526f09aeae6e840c8cae0dee6d2e8408aa8960831b6044820152606490fd5b346101c75760403660031901126101c757602435600435600052600460205260406000209081548110156101c757600091825260209182902001546040516001600160a01b039091168152f35b346101c75760003660031901126101c75761040d610f70565b61041561103c565b600654806000198101116102e657600019810115610811576000198101600052600260205260ff600560406000200154166107d357600019810160005260026020526040600020541561078e5760001981016000526002602052604060002060405191610ca0830167ffffffffffffffff938082108583111761077857610c8091604052606481526020369101376040519261016084018481108282111761077857604052600a8452602084016101403682376000198301600052600460205260406000209085519283116107785768010000000000000000831161077857815483835580841061074f575b5090600052602060002060005b8381106107325750505050600a82540460005b8451811080610728575b156106fa576001600160a01b036105428287610f46565b511615610690578190806106355760969180838102048314811517156102e6576106309260649102045b600019850160009081526005602052604090206001600160a01b03610591848a610f46565b51166000526020528060406000205560018060a01b036105b18389610f46565b5116600052600360205260056040600020016105ce828254610f1d565b90556105de816001880154610f1d565b60018701557fc7de30174c671767cb19172103f00d7b239a64eda0a41f1c10c404b65f7c68ae60406001600160a01b03610618858b610f46565b518251948552600019890160208601521692a2610f2a565b610521565b6001810361065d57607d9180838102048314811517156102e65761063092606491020461056c565b9060028214610671575b906106309161056c565b50606e9082828102048214831517156102e65790606490830204610667565b50507f7b017ab593ab309c083d6640dde175102f7e17c5b26bf0fede518b9dc8b326029260016060935b600581018260ff198254161790556106d782820154600754610f1d565b60075501549051906040519260001901835260208301526040820152a160018055005b50507f7b017ab593ab309c083d6640dde175102f7e17c5b26bf0fede518b9dc8b326029260016060936106ba565b50600a811061052b565b82516001600160a01b03168183015560209092019160010161050e565b8260005283602060002091820191015b81811061076c5750610501565b6000815560010161075f565b634e487b7160e01b600052604160045260246000fd5b60405162461bcd60e51b815260206004820152601860248201527f4e6f207265776172647320746f206469737472696275746500000000000000006044820152606490fd5b60405162461bcd60e51b815260206004820152601660248201527515d9595ac8185b1c9958591e48199a5b985b1a5e995960521b6044820152606490fd5b60405162461bcd60e51b815260206004820152601060248201526f4e6f2070726576696f7573207765656b60801b6044820152606490fd5b346101c75760003660031901126101c757600654600052600260205260806040600020610874610f93565b908054918281526001820154602082015260028201549283604083015260038301549182606082015260a060ff6005600487015496878a8601520154161515910152604051938452602084015260408301526060820152f35b346101c75760203660031901126101c757600435600052600260205260c06040600020805490600181015490600281015460038201549060ff6005600485015494015416936040519586526020860152604085015260608401526080830152151560a0820152f35b346101c7576020806003193601126101c75760043590610953610f70565b816000526002815260ff6005604060002001541615610a0257816000526005815260406000203360005281526040600020549182156109bd576000806109b79481948294835260058152604083209033845252816040812055335af161028f610fb3565b60018055005b60405162461bcd60e51b815260048101839052601860248201527f4e6f207265776172647320666f722074686973207765656b00000000000000006044820152606490fd5b6064906040519062461bcd60e51b82526004820152601260248201527115d9595ac81b9bdd08199a5b985b1a5e995960721b6044820152fd5b346101c75760403660031901126101c7576024356001600160a01b038116908190036101c75760043560005260056020526040600020906000526020526020604060002054604051908152f35b346101c75760003660031901126101c7576000546040516001600160a01b039091168152602090f35b346101c75760203660031901126101c7576001600160a01b03610ad2610edb565b1680600052600360205260ff6006604060002001541615610b0757600052600360205260046040600020016100368154610f2a565b60405162461bcd60e51b8152602060048201526016602482015275109d5a5b19195c881b9bdd081c9959da5cdd195c995960521b6044820152606490fd5b346101c75760003660031901126101c7576020604051600a8152f35b346101c75760003660031901126101c757602060405162093a808152f35b346101c75760003660031901126101c757610b98610ef1565b600080546001600160a01b0319811682556001600160a01b03167f8be0079c531659141344cd1fd0a4f28419497f9722a3daafe3b4186f6b6457e08280a3005b346101c75760603660031901126101c757610bf1610edb565b7f0196d0533f37ea47d88e4eb66396286ef3e57c7ebd89f644475d77f1e899cace60406024356044359360018060a01b03169384600052600360205260028360002060068101805460ff811615610c71575b505060018101610c54858254610f1d565b905501610c62828254610f1d565b905582519182526020820152a2005b82546001600160a01b0319168917835560ff19166001179055867ff2d060f1ccc39bfa171ec8acae3c1236109399f86fe8d8297a4373061e5662b3600080a28780610c43565b346101c75760003660031901126101c7576020604051662386f26fc100008152f35b346101c75760203660031901126101c7576001600160a01b0380610cfb610edb565b16600052600360205260406000206040519160e0830183811067ffffffffffffffff821117610778576040528154168252600181015490816020840152670de0b6b3a764000060028201548060408601526003830154946060810195865260c060ff600660048701549660808501978852600581015460a08601520154161515910152046064830293838504606414841517156102e65751915193600a850293858504600a14861517156102e6576028830292808404602814901517156102e657610bb80290808204601e14901517156102e657610dd891610f1d565b6014820291808304601414901517156102e657606491610df791610f1d565b920290808204600a14901517156102e657610e16606491602093610f1d565b04604051908152f35b346101c75760203660031901126101c75760e06001600160a01b0380610e43610edb565b166000526003602052604060002090815416906001810154906002810154600382015460048301549160ff600660058601549501541694604051968752602087015260408601526060850152608084015260a0830152151560c0820152f35b346101c75760003660031901126101c7576020600854604051908152f35b346101c75760003660031901126101c7576020906006548152f35b600435906001600160a01b03821682036101c757565b6000546001600160a01b03163303610f0557565b60405163118cdaa760e01b8152336004820152602490fd5b919082018092116102e657565b60001981146102e65760010190565b919082039182116102e657565b8051821015610f5a5760209160051b010190565b634e487b7160e01b600052603260045260246000fd5b600260015414610f81576002600155565b604051633ee5aeb560e01b8152600490fd5b6040519060c0820182811067ffffffffffffffff82111761077857604052565b3d15610ff95767ffffffffffffffff903d8281116107785760405192601f8201601f19908116603f01168401908111848210176107785760405282523d6000602084013e565b606090565b1561100557565b60405162461bcd60e51b815260206004820152600f60248201526e151c985b9cd9995c8819985a5b1959608a1b6044820152606490fd5b61104f60085462093a8091829142610f39565b0490600182018092116102e6576006549081831161106c57505050565b600091825260026020524260046040842001558260065542018042116110fb5790600591611098610f93565b91808352602083018181526040840190868252604060608601934285526080870195865260a0870198818a52815260026020522094518555516001850155516002840155516003830155516004820155019051151560ff80198354169116179055565b634e487b7160e01b82526011600452602482fdfea26469706673582212206e112cbd7d7aa90b1929d96421d6e99d0200a25a17f3af1b5a0756f04879a59a64736f6c63430008140033","opcodes":"PUSH1 0x80 PUSH1 0x40 SWAP1 DUP1 DUP3 MSTORE CALLVALUE PUSH2 0x13A JUMPI CALLER ISZERO PUSH2 0x124 JUMPI POP PUSH1 0x0 DUP1 SLOAD CALLER PUSH1 0x1 PUSH1 0x1 PUSH1 0xA0 SHL SUB NOT DUP3 AND DUP2 OR DUP4 SSTORE DUP4 MLOAD SWAP2 PUSH1 0x1 PUSH1 0x1 PUSH1 0xA0 SHL SUB AND PUSH32 0x8BE0079C531659141344CD1FD0A4F28419497F9722A3DAAFE3B4186F6B6457E0 DUP5 DUP1 LOG3 PUSH1 0x1 DUP1 DUP1 SSTORE TIMESTAMP PUSH1 0x8 SSTORE DUP1 PUSH1 0x6 SSTORE PUSH3 0x93A80 TIMESTAMP ADD SWAP1 DUP2 TIMESTAMP GT PUSH2 0x110 JUMPI PUSH1 0xC0 DUP4 ADD PUSH1 0x1 PUSH1 0x1 PUSH1 0x40 SHL SUB DUP2 GT DUP5 DUP3 LT OR PUSH2 0xFC JUMPI SWAP1 PUSH1 0x5 SWAP4 SWAP3 SWAP2 DUP7 MSTORE DUP5 DUP4 MSTORE PUSH1 0x20 DUP4 ADD SWAP1 DUP6 DUP3 MSTORE DUP7 DUP5 ADD SWAP1 DUP1 DUP3 MSTORE PUSH1 0x60 DUP6 ADD SWAP3 TIMESTAMP DUP5 MSTORE PUSH1 0x80 DUP7 ADD SWAP5 DUP6 MSTORE DUP9 PUSH1 0xA0 DUP8 ADD SWAP9 DUP1 DUP11 MSTORE DUP4 DUP2 MSTORE PUSH1 0x2 PUSH1 0x20 MSTORE KECCAK256 SWAP6 MLOAD DUP7 SSTORE MLOAD SWAP1 DUP6 ADD SSTORE MLOAD PUSH1 0x2 DUP5 ADD SSTORE MLOAD PUSH1 0x3 DUP4 ADD SSTORE MLOAD PUSH1 0x4 DUP3 ADD SSTORE ADD SWAP1 MLOAD ISZERO ISZERO PUSH1 0xFF DUP1 NOT DUP4 SLOAD AND SWAP2 AND OR SWAP1 SSTORE MLOAD PUSH2 0x1145 SWAP1 DUP2 PUSH2 0x140 DUP3 CODECOPY RETURN JUMPDEST PUSH4 0x4E487B71 PUSH1 0xE0 SHL DUP6 MSTORE PUSH1 0x41 PUSH1 0x4 MSTORE PUSH1 0x24 DUP6 REVERT JUMPDEST PUSH4 0x4E487B71 PUSH1 0xE0 SHL DUP5 MSTORE PUSH1 0x11 PUSH1 0x4 MSTORE PUSH1 0x24 DUP5 REVERT JUMPDEST PUSH4 0x1E4FBDF7 PUSH1 0xE0 SHL DUP2 MSTORE PUSH1 0x0 PUSH1 0x4 DUP3 ADD MSTORE PUSH1 0x24 SWAP1 REVERT JUMPDEST PUSH1 0x0 DUP1 REVERT INVALID PUSH1 0x80 DUP1 PUSH1 0x40 MSTORE PUSH1 0x4 CALLDATASIZE LT ISZERO PUSH2 0x3A JUMPI JUMPDEST POP CALLDATASIZE ISZERO PUSH2 0x1B JUMPI PUSH1 0x0 DUP1 REVERT JUMPDEST PUSH1 0x6 SLOAD PUSH1 0x0 MSTORE PUSH1 0x2 PUSH1 0x20 MSTORE PUSH1 0x40 PUSH1 0x0 KECCAK256 PUSH2 0x36 CALLVALUE DUP3 SLOAD PUSH2 0xF1D JUMP JUMPDEST SWAP1 SSTORE STOP JUMPDEST PUSH1 0x0 CALLDATALOAD PUSH1 0xE0 SHR SWAP1 DUP2 PUSH4 0x6575C89 EQ PUSH2 0xEC0 JUMPI POP DUP1 PUSH4 0xC3D5157 EQ PUSH2 0xEA2 JUMPI DUP1 PUSH4 0x144DDEFC EQ PUSH2 0xE1F JUMPI DUP1 PUSH4 0x2AE27905 EQ PUSH2 0xCD9 JUMPI DUP1 PUSH4 0x4352EA9A EQ PUSH2 0xCB7 JUMPI DUP1 PUSH4 0x5867B788 EQ PUSH2 0xBD8 JUMPI DUP1 PUSH4 0x715018A6 EQ PUSH2 0xB7F JUMPI DUP1 PUSH4 0x76F5F700 EQ PUSH2 0xB61 JUMPI DUP1 PUSH4 0x84A17E73 EQ PUSH2 0xB45 JUMPI DUP1 PUSH4 0x8B9D41F5 EQ PUSH2 0xAB1 JUMPI DUP1 PUSH4 0x8DA5CB5B EQ PUSH2 0xA88 JUMPI DUP1 PUSH4 0xA3966E9E EQ PUSH2 0xA3B JUMPI DUP1 PUSH4 0xAE169A50 EQ PUSH2 0x935 JUMPI DUP1 PUSH4 0xAF364C05 EQ PUSH2 0x8CD JUMPI DUP1 PUSH4 0xB46ED012 EQ PUSH2 0x849 JUMPI DUP1 PUSH4 0xC28232A4 EQ PUSH2 0x3F4 JUMPI DUP1 PUSH4 0xC397BCFA EQ PUSH2 0x3A7 JUMPI DUP1 PUSH4 0xD0E30DB0 EQ PUSH2 0x304 JUMPI DUP1 PUSH4 0xDB2E21BC EQ PUSH2 0x225 JUMPI DUP1 PUSH4 0xE605B687 EQ PUSH2 0x1EA JUMPI DUP1 PUSH4 0xEFCA2EED EQ PUSH2 0x1CC JUMPI PUSH4 0xF2FDE38B EQ PUSH2 0x139 JUMPI CODESIZE PUSH2 0xF JUMP JUMPDEST CALLVALUE PUSH2 0x1C7 JUMPI PUSH1 0x20 CALLDATASIZE PUSH1 0x3 NOT ADD SLT PUSH2 0x1C7 JUMPI PUSH2 0x152 PUSH2 0xEDB JUMP JUMPDEST PUSH2 0x15A PUSH2 0xEF1 JUMP JUMPDEST PUSH1 0x1 PUSH1 0x1 PUSH1 0xA0 SHL SUB SWAP1 DUP2 AND SWAP1 DUP2 ISZERO PUSH2 0x1AE JUMPI PUSH1 0x0 SLOAD DUP3 PUSH12 0xFFFFFFFFFFFFFFFFFFFFFFFF PUSH1 0xA0 SHL DUP3 AND OR PUSH1 0x0 SSTORE AND PUSH32 0x8BE0079C531659141344CD1FD0A4F28419497F9722A3DAAFE3B4186F6B6457E0 PUSH1 0x0 DUP1 LOG3 STOP JUMPDEST PUSH1 0x40 MLOAD PUSH4 0x1E4FBDF7 PUSH1 0xE0 SHL DUP2 MSTORE PUSH1 0x0 PUSH1 0x4 DUP3 ADD MSTORE PUSH1 0x24 SWAP1 REVERT JUMPDEST PUSH1 0x0 DUP1 REVERT JUMPDEST CALLVALUE PUSH2 0x1C7 JUMPI PUSH1 0x0 CALLDATASIZE PUSH1 0x3 NOT ADD SLT PUSH2 0x1C7 JUMPI PUSH1 0x20 PUSH1 0x7 SLOAD PUSH1 0x40 MLOAD SWAP1 DUP2 MSTORE RETURN JUMPDEST CALLVALUE PUSH2 0x1C7 JUMPI PUSH1 0x40 CALLDATASIZE PUSH1 0x3 NOT ADD SLT PUSH2 0x1C7 JUMPI PUSH1 0x1 PUSH1 0x1 PUSH1 0xA0 SHL SUB PUSH2 0x20B PUSH2 0xEDB JUMP JUMPDEST AND PUSH1 0x0 MSTORE PUSH1 0x3 PUSH1 0x20 MSTORE PUSH1 0x24 CALLDATALOAD PUSH1 0x3 PUSH1 0x40 PUSH1 0x0 KECCAK256 ADD SSTORE PUSH1 0x0 DUP1 RETURN JUMPDEST CALLVALUE PUSH2 0x1C7 JUMPI PUSH1 0x0 CALLDATASIZE PUSH1 0x3 NOT ADD SLT PUSH2 0x1C7 JUMPI PUSH2 0x23E PUSH2 0xEF1 JUMP JUMPDEST PUSH1 0x6 SLOAD PUSH1 0xC DUP2 GT ISZERO PUSH2 0x2FC JUMPI PUSH1 0xB NOT DUP2 ADD SWAP1 DUP2 GT PUSH2 0x2E6 JUMPI JUMPDEST PUSH1 0x0 SWAP1 PUSH1 0x1 DUP1 JUMPDEST DUP3 DUP2 GT ISZERO PUSH2 0x297 JUMPI DUP4 DUP1 PUSH2 0x26E JUMPI STOP JUMPDEST PUSH1 0x0 DUP1 SLOAD PUSH2 0x295 SWAP3 DUP3 SWAP2 DUP3 SWAP2 DUP3 SWAP2 PUSH1 0x1 PUSH1 0x1 PUSH1 0xA0 SHL SUB AND GAS CALL PUSH2 0x28F PUSH2 0xFB3 JUMP JUMPDEST POP PUSH2 0xFFE JUMP JUMPDEST STOP JUMPDEST DUP1 PUSH1 0x0 MSTORE PUSH1 0x2 PUSH1 0x20 MSTORE PUSH1 0x40 PUSH1 0x0 KECCAK256 PUSH1 0xFF PUSH1 0x5 DUP3 ADD SLOAD AND PUSH2 0x2C1 JUMPI JUMPDEST POP PUSH2 0x2BC SWAP1 PUSH2 0xF2A JUMP JUMPDEST PUSH2 0x25E JUMP JUMPDEST PUSH2 0x2BC SWAP2 SWAP5 PUSH2 0x2D9 DUP3 DUP6 PUSH2 0x2DF SWAP5 SLOAD SWAP2 ADD SLOAD SWAP1 PUSH2 0xF39 JUMP JUMPDEST SWAP1 PUSH2 0xF1D JUMP JUMPDEST SWAP4 SWAP1 PUSH2 0x2B2 JUMP JUMPDEST PUSH4 0x4E487B71 PUSH1 0xE0 SHL PUSH1 0x0 MSTORE PUSH1 0x11 PUSH1 0x4 MSTORE PUSH1 0x24 PUSH1 0x0 REVERT JUMPDEST POP PUSH1 0x0 PUSH2 0x257 JUMP JUMPDEST PUSH1 0x0 CALLDATASIZE PUSH1 0x3 NOT ADD SLT PUSH2 0x1C7 JUMPI CALLVALUE ISZERO PUSH2 0x36F JUMPI PUSH2 0x31E PUSH2 0x103C JUMP JUMPDEST PUSH1 0x6 SLOAD PUSH1 0x0 MSTORE PUSH1 0x2 PUSH1 0x20 MSTORE PUSH1 0x40 PUSH1 0x0 KECCAK256 PUSH2 0x339 CALLVALUE DUP3 SLOAD PUSH2 0xF1D JUMP JUMPDEST SWAP1 SSTORE PUSH32 0x5760AD5C95118E9B3DFA3BA44670AE1BF29CC286553F9F65BF3E3651BBA142ED PUSH1 0x40 PUSH1 0x6 SLOAD DUP2 MLOAD SWAP1 CALLVALUE DUP3 MSTORE PUSH1 0x20 DUP3 ADD MSTORE LOG1 STOP JUMPDEST PUSH1 0x40 MLOAD PUSH3 0x461BCD PUSH1 0xE5 SHL DUP2 MSTORE PUSH1 0x20 PUSH1 0x4 DUP3 ADD MSTORE PUSH1 0x10 PUSH1 0x24 DUP3 ADD MSTORE PUSH16 0x9AEAE6E840C8CAE0DEE6D2E8408AA89 PUSH1 0x83 SHL PUSH1 0x44 DUP3 ADD MSTORE PUSH1 0x64 SWAP1 REVERT JUMPDEST CALLVALUE PUSH2 0x1C7 JUMPI PUSH1 0x40 CALLDATASIZE PUSH1 0x3 NOT ADD SLT PUSH2 0x1C7 JUMPI PUSH1 0x24 CALLDATALOAD PUSH1 0x4 CALLDATALOAD PUSH1 0x0 MSTORE PUSH1 0x4 PUSH1 0x20 MSTORE PUSH1 0x40 PUSH1 0x0 KECCAK256 SWAP1 DUP2 SLOAD DUP2 LT ISZERO PUSH2 0x1C7 JUMPI PUSH1 0x0 SWAP2 DUP3 MSTORE PUSH1 0x20 SWAP2 DUP3 SWAP1 KECCAK256 ADD SLOAD PUSH1 0x40 MLOAD PUSH1 0x1 PUSH1 0x1 PUSH1 0xA0 SHL SUB SWAP1 SWAP2 AND DUP2 MSTORE RETURN JUMPDEST CALLVALUE PUSH2 0x1C7 JUMPI PUSH1 0x0 CALLDATASIZE PUSH1 0x3 NOT ADD SLT PUSH2 0x1C7 JUMPI PUSH2 0x40D PUSH2 0xF70 JUMP JUMPDEST PUSH2 0x415 PUSH2 0x103C JUMP JUMPDEST PUSH1 0x6 SLOAD DUP1 PUSH1 0x0 NOT DUP2 ADD GT PUSH2 0x2E6 JUMPI PUSH1 0x0 NOT DUP2 ADD ISZERO PUSH2 0x811 JUMPI PUSH1 0x0 NOT DUP2 ADD PUSH1 0x0 MSTORE PUSH1 0x2 PUSH1 0x20 MSTORE PUSH1 0xFF PUSH1 0x5 PUSH1 0x40 PUSH1 0x0 KECCAK256 ADD SLOAD AND PUSH2 0x7D3 JUMPI PUSH1 0x0 NOT DUP2 ADD PUSH1 0x0 MSTORE PUSH1 0x2 PUSH1 0x20 MSTORE PUSH1 0x40 PUSH1 0x0 KECCAK256 SLOAD ISZERO PUSH2 0x78E JUMPI PUSH1 0x0 NOT DUP2 ADD PUSH1 0x0 MSTORE PUSH1 0x2 PUSH1 0x20 MSTORE PUSH1 0x40 PUSH1 0x0 KECCAK256 PUSH1 0x40 MLOAD SWAP2 PUSH2 0xCA0 DUP4 ADD PUSH8 0xFFFFFFFFFFFFFFFF SWAP4 DUP1 DUP3 LT DUP6 DUP4 GT OR PUSH2 0x778 JUMPI PUSH2 0xC80 SWAP2 PUSH1 0x40 MSTORE PUSH1 0x64 DUP2 MSTORE PUSH1 0x20 CALLDATASIZE SWAP2 ADD CALLDATACOPY PUSH1 0x40 MLOAD SWAP3 PUSH2 0x160 DUP5 ADD DUP5 DUP2 LT DUP3 DUP3 GT OR PUSH2 0x778 JUMPI PUSH1 0x40 MSTORE PUSH1 0xA DUP5 MSTORE PUSH1 0x20 DUP5 ADD PUSH2 0x140 CALLDATASIZE DUP3 CALLDATACOPY PUSH1 0x0 NOT DUP4 ADD PUSH1 0x0 MSTORE PUSH1 0x4 PUSH1 0x20 MSTORE PUSH1 0x40 PUSH1 0x0 KECCAK256 SWAP1 DUP6 MLOAD SWAP3 DUP4 GT PUSH2 0x778 JUMPI PUSH9 0x10000000000000000 DUP4 GT PUSH2 0x778 JUMPI DUP2 SLOAD DUP4 DUP4 SSTORE DUP1 DUP5 LT PUSH2 0x74F JUMPI JUMPDEST POP SWAP1 PUSH1 0x0 MSTORE PUSH1 0x20 PUSH1 0x0 KECCAK256 PUSH1 0x0 JUMPDEST DUP4 DUP2 LT PUSH2 0x732 JUMPI POP POP POP POP PUSH1 0xA DUP3 SLOAD DIV PUSH1 0x0 JUMPDEST DUP5 MLOAD DUP2 LT DUP1 PUSH2 0x728 JUMPI JUMPDEST ISZERO PUSH2 0x6FA JUMPI PUSH1 0x1 PUSH1 0x1 PUSH1 0xA0 SHL SUB PUSH2 0x542 DUP3 DUP8 PUSH2 0xF46 JUMP JUMPDEST MLOAD AND ISZERO PUSH2 0x690 JUMPI DUP2 SWAP1 DUP1 PUSH2 0x635 JUMPI PUSH1 0x96 SWAP2 DUP1 DUP4 DUP2 MUL DIV DUP4 EQ DUP2 ISZERO OR ISZERO PUSH2 0x2E6 JUMPI PUSH2 0x630 SWAP3 PUSH1 0x64 SWAP2 MUL DIV JUMPDEST PUSH1 0x0 NOT DUP6 ADD PUSH1 0x0 SWAP1 DUP2 MSTORE PUSH1 0x5 PUSH1 0x20 MSTORE PUSH1 0x40 SWAP1 KECCAK256 PUSH1 0x1 PUSH1 0x1 PUSH1 0xA0 SHL SUB PUSH2 0x591 DUP5 DUP11 PUSH2 0xF46 JUMP JUMPDEST MLOAD AND PUSH1 0x0 MSTORE PUSH1 0x20 MSTORE DUP1 PUSH1 0x40 PUSH1 0x0 KECCAK256 SSTORE PUSH1 0x1 DUP1 PUSH1 0xA0 SHL SUB PUSH2 0x5B1 DUP4 DUP10 PUSH2 0xF46 JUMP JUMPDEST MLOAD AND PUSH1 0x0 MSTORE PUSH1 0x3 PUSH1 0x20 MSTORE PUSH1 0x5 PUSH1 0x40 PUSH1 0x0 KECCAK256 ADD PUSH2 0x5CE DUP3 DUP3 SLOAD PUSH2 0xF1D JUMP JUMPDEST SWAP1 SSTORE PUSH2 0x5DE DUP2 PUSH1 0x1 DUP9 ADD SLOAD PUSH2 0xF1D JUMP JUMPDEST PUSH1 0x1 DUP8 ADD SSTORE PUSH32 0xC7DE30174C671767CB19172103F00D7B239A64EDA0A41F1C10C404B65F7C68AE PUSH1 0x40 PUSH1 0x1 PUSH1 0x1 PUSH1 0xA0 SHL SUB PUSH2 0x618 DUP6 DUP12 PUSH2 0xF46 JUMP JUMPDEST MLOAD DUP3 MLOAD SWAP5 DUP6 MSTORE PUSH1 0x0 NOT DUP10 ADD PUSH1 0x20 DUP7 ADD MSTORE AND SWAP3 LOG2 PUSH2 0xF2A JUMP JUMPDEST PUSH2 0x521 JUMP JUMPDEST PUSH1 0x1 DUP2 SUB PUSH2 0x65D JUMPI PUSH1 0x7D SWAP2 DUP1 DUP4 DUP2 MUL DIV DUP4 EQ DUP2 ISZERO OR ISZERO PUSH2 0x2E6 JUMPI PUSH2 0x630 SWAP3 PUSH1 0x64 SWAP2 MUL DIV PUSH2 0x56C JUMP JUMPDEST SWAP1 PUSH1 0x2 DUP3 EQ PUSH2 0x671 JUMPI JUMPDEST SWAP1 PUSH2 0x630 SWAP2 PUSH2 0x56C JUMP JUMPDEST POP PUSH1 0x6E SWAP1 DUP3 DUP3 DUP2 MUL DIV DUP3 EQ DUP4 ISZERO OR ISZERO PUSH2 0x2E6 JUMPI SWAP1 PUSH1 0x64 SWAP1 DUP4 MUL DIV PUSH2 0x667 JUMP JUMPDEST POP POP PUSH32 0x7B017AB593AB309C083D6640DDE175102F7E17C5B26BF0FEDE518B9DC8B32602 SWAP3 PUSH1 0x1 PUSH1 0x60 SWAP4 JUMPDEST PUSH1 0x5 DUP2 ADD DUP3 PUSH1 0xFF NOT DUP3 SLOAD AND OR SWAP1 SSTORE PUSH2 0x6D7 DUP3 DUP3 ADD SLOAD PUSH1 0x7 SLOAD PUSH2 0xF1D JUMP JUMPDEST PUSH1 0x7 SSTORE ADD SLOAD SWAP1 MLOAD SWAP1 PUSH1 0x40 MLOAD SWAP3 PUSH1 0x0 NOT ADD DUP4 MSTORE PUSH1 0x20 DUP4 ADD MSTORE PUSH1 0x40 DUP3 ADD MSTORE LOG1 PUSH1 0x1 DUP1 SSTORE STOP JUMPDEST POP POP PUSH32 0x7B017AB593AB309C083D6640DDE175102F7E17C5B26BF0FEDE518B9DC8B32602 SWAP3 PUSH1 0x1 PUSH1 0x60 SWAP4 PUSH2 0x6BA JUMP JUMPDEST POP PUSH1 0xA DUP2 LT PUSH2 0x52B JUMP JUMPDEST DUP3 MLOAD PUSH1 0x1 PUSH1 0x1 PUSH1 0xA0 SHL SUB AND DUP2 DUP4 ADD SSTORE PUSH1 0x20 SWAP1 SWAP3 ADD SWAP2 PUSH1 0x1 ADD PUSH2 0x50E JUMP JUMPDEST DUP3 PUSH1 0x0 MSTORE DUP4 PUSH1 0x20 PUSH1 0x0 KECCAK256 SWAP2 DUP3 ADD SWAP2 ADD JUMPDEST DUP2 DUP2 LT PUSH2 0x76C JUMPI POP PUSH2 0x501 JUMP JUMPDEST PUSH1 0x0 DUP2 SSTORE PUSH1 0x1 ADD PUSH2 0x75F JUMP JUMPDEST PUSH4 0x4E487B71 PUSH1 0xE0 SHL PUSH1 0x0 MSTORE PUSH1 0x41 PUSH1 0x4 MSTORE PUSH1 0x24 PUSH1 0x0 REVERT JUMPDEST PUSH1 0x40 MLOAD PUSH3 0x461BCD PUSH1 0xE5 SHL DUP2 MSTORE PUSH1 0x20 PUSH1 0x4 DUP3 ADD MSTORE PUSH1 0x18 PUSH1 0x24 DUP3 ADD MSTORE PUSH32 0x4E6F207265776172647320746F20646973747269627574650000000000000000 PUSH1 0x44 DUP3 ADD MSTORE PUSH1 0x64 SWAP1 REVERT JUMPDEST PUSH1 0x40 MLOAD PUSH3 0x461BCD PUSH1 0xE5 SHL DUP2 MSTORE PUSH1 0x20 PUSH1 0x4 DUP3 ADD MSTORE PUSH1 0x16 PUSH1 0x24 DUP3 ADD MSTORE PUSH22 0x15D9595AC8185B1C9958591E48199A5B985B1A5E9959 PUSH1 0x52 SHL PUSH1 0x44 DUP3 ADD MSTORE PUSH1 0x64 SWAP1 REVERT JUMPDEST PUSH1 0x40 MLOAD PUSH3 0x461BCD PUSH1 0xE5 SHL DUP2 MSTORE PUSH1 0x20 PUSH1 0x4 DUP3 ADD MSTORE PUSH1 0x10 PUSH1 0x24 DUP3 ADD MSTORE PUSH16 0x4E6F2070726576696F7573207765656B PUSH1 0x80 SHL PUSH1 0x44 DUP3 ADD MSTORE PUSH1 0x64 SWAP1 REVERT JUMPDEST CALLVALUE PUSH2 0x1C7 JUMPI PUSH1 0x0 CALLDATASIZE PUSH1 0x3 NOT ADD SLT PUSH2 0x1C7 JUMPI PUSH1 0x6 SLOAD PUSH1 0x0 MSTORE PUSH1 0x2 PUSH1 0x20 MSTORE PUSH1 0x80 PUSH1 0x40 PUSH1 0x0 KECCAK256 PUSH2 0x874 PUSH2 0xF93 JUMP JUMPDEST SWAP1 DUP1 SLOAD SWAP2 DUP3 DUP2 MSTORE PUSH1 0x1 DUP3 ADD SLOAD PUSH1 0x20 DUP3 ADD MSTORE PUSH1 0x2 DUP3 ADD SLOAD SWAP3 DUP4 PUSH1 0x40 DUP4 ADD MSTORE PUSH1 0x3 DUP4 ADD SLOAD SWAP2 DUP3 PUSH1 0x60 DUP3 ADD MSTORE PUSH1 0xA0 PUSH1 0xFF PUSH1 0x5 PUSH1 0x4 DUP8 ADD SLOAD SWAP7 DUP8 DUP11 DUP7 ADD MSTORE ADD SLOAD AND ISZERO ISZERO SWAP2 ADD MSTORE PUSH1 0x40 MLOAD SWAP4 DUP5 MSTORE PUSH1 0x20 DUP5 ADD MSTORE PUSH1 0x40 DUP4 ADD MSTORE PUSH1 0x60 DUP3 ADD MSTORE RETURN JUMPDEST CALLVALUE PUSH2 0x1C7 JUMPI PUSH1 0x20 CALLDATASIZE PUSH1 0x3 NOT ADD SLT PUSH2 0x1C7 JUMPI PUSH1 0x4 CALLDATALOAD PUSH1 0x0 MSTORE PUSH1 0x2 PUSH1 0x20 MSTORE PUSH1 0xC0 PUSH1 0x40 PUSH1 0x0 KECCAK256 DUP1 SLOAD SWAP1 PUSH1 0x1 DUP2 ADD SLOAD SWAP1 PUSH1 0x2 DUP2 ADD SLOAD PUSH1 0x3 DUP3 ADD SLOAD SWAP1 PUSH1 0xFF PUSH1 0x5 PUSH1 0x4 DUP6 ADD SLOAD SWAP5 ADD SLOAD AND SWAP4 PUSH1 0x40 MLOAD SWAP6 DUP7 MSTORE PUSH1 0x20 DUP7 ADD MSTORE PUSH1 0x40 DUP6 ADD MSTORE PUSH1 0x60 DUP5 ADD MSTORE PUSH1 0x80 DUP4 ADD MSTORE ISZERO ISZERO PUSH1 0xA0 DUP3 ADD MSTORE RETURN JUMPDEST CALLVALUE PUSH2 0x1C7 JUMPI PUSH1 0x20 DUP1 PUSH1 0x3 NOT CALLDATASIZE ADD SLT PUSH2 0x1C7 JUMPI PUSH1 0x4 CALLDATALOAD SWAP1 PUSH2 0x953 PUSH2 0xF70 JUMP JUMPDEST DUP2 PUSH1 0x0 MSTORE PUSH1 0x2 DUP2 MSTORE PUSH1 0xFF PUSH1 0x5 PUSH1 0x40 PUSH1 0x0 KECCAK256 ADD SLOAD AND ISZERO PUSH2 0xA02 JUMPI DUP2 PUSH1 0x0 MSTORE PUSH1 0x5 DUP2 MSTORE PUSH1 0x40 PUSH1 0x0 KECCAK256 CALLER PUSH1 0x0 MSTORE DUP2 MSTORE PUSH1 0x40 PUSH1 0x0 KECCAK256 SLOAD SWAP2 DUP3 ISZERO PUSH2 0x9BD JUMPI PUSH1 0x0 DUP1 PUSH2 0x9B7 SWAP5 DUP2 SWAP5 DUP3 SWAP5 DUP4 MSTORE PUSH1 0x5 DUP2 MSTORE PUSH1 0x40 DUP4 KECCAK256 SWAP1 CALLER DUP5 MSTORE MSTORE DUP2 PUSH1 0x40 DUP2 KECCAK256 SSTORE CALLER GAS CALL PUSH2 0x28F PUSH2 0xFB3 JUMP JUMPDEST PUSH1 0x1 DUP1 SSTORE STOP JUMPDEST PUSH1 0x40 MLOAD PUSH3 0x461BCD PUSH1 0xE5 SHL DUP2 MSTORE PUSH1 0x4 DUP2 ADD DUP4 SWAP1 MSTORE PUSH1 0x18 PUSH1 0x24 DUP3 ADD MSTORE PUSH32 0x4E6F207265776172647320666F722074686973207765656B0000000000000000 PUSH1 0x44 DUP3 ADD MSTORE PUSH1 0x64 SWAP1 REVERT JUMPDEST PUSH1 0x64 SWAP1 PUSH1 0x40 MLOAD SWAP1 PUSH3 0x461BCD PUSH1 0xE5 SHL DUP3 MSTORE PUSH1 0x4 DUP3 ADD MSTORE PUSH1 0x12 PUSH1 0x24 DUP3 ADD MSTORE PUSH18 0x15D9595AC81B9BDD08199A5B985B1A5E9959 PUSH1 0x72 SHL PUSH1 0x44 DUP3 ADD MSTORE REVERT JUMPDEST CALLVALUE PUSH2 0x1C7 JUMPI PUSH1 0x40 CALLDATASIZE PUSH1 0x3 NOT ADD SLT PUSH2 0x1C7 JUMPI PUSH1 0x24 CALLDATALOAD PUSH1 0x1 PUSH1 0x1 PUSH1 0xA0 SHL SUB DUP2 AND SWAP1 DUP2 SWAP1 SUB PUSH2 0x1C7 JUMPI PUSH1 0x4 CALLDATALOAD PUSH1 0x0 MSTORE PUSH1 0x5 PUSH1 0x20 MSTORE PUSH1 0x40 PUSH1 0x0 KECCAK256 SWAP1 PUSH1 0x0 MSTORE PUSH1 0x20 MSTORE PUSH1 0x20 PUSH1 0x40 PUSH1 0x0 KECCAK256 SLOAD PUSH1 0x40 MLOAD SWAP1 DUP2 MSTORE RETURN JUMPDEST CALLVALUE PUSH2 0x1C7 JUMPI PUSH1 0x0 CALLDATASIZE PUSH1 0x3 NOT ADD SLT PUSH2 0x1C7 JUMPI PUSH1 0x0 SLOAD PUSH1 0x40 MLOAD PUSH1 0x1 PUSH1 0x1 PUSH1 0xA0 SHL SUB SWAP1 SWAP2 AND DUP2 MSTORE PUSH1 0x20 SWAP1 RETURN JUMPDEST CALLVALUE PUSH2 0x1C7 JUMPI PUSH1 0x20 CALLDATASIZE PUSH1 0x3 NOT ADD SLT PUSH2 0x1C7 JUMPI PUSH1 0x1 PUSH1 0x1 PUSH1 0xA0 SHL SUB PUSH2 0xAD2 PUSH2 0xEDB JUMP JUMPDEST AND DUP1 PUSH1 0x0 MSTORE PUSH1 0x3 PUSH1 0x20 MSTORE PUSH1 0xFF PUSH1 0x6 PUSH1 0x40 PUSH1 0x0 KECCAK256 ADD SLOAD AND ISZERO PUSH2 0xB07 JUMPI PUSH1 0x0 MSTORE PUSH1 0x3 PUSH1 0x20 MSTORE PUSH1 0x4 PUSH1 0x40 PUSH1 0x0 KECCAK256 ADD PUSH2 0x36 DUP2 SLOAD PUSH2 0xF2A JUMP JUMPDEST PUSH1 0x40 MLOAD PUSH3 0x461BCD PUSH1 0xE5 SHL DUP2 MSTORE PUSH1 0x20 PUSH1 0x4 DUP3 ADD MSTORE PUSH1 0x16 PUSH1 0x24 DUP3 ADD MSTORE PUSH22 0x109D5A5B19195C881B9BDD081C9959DA5CDD195C9959 PUSH1 0x52 SHL PUSH1 0x44 DUP3 ADD MSTORE PUSH1 0x64 SWAP1 REVERT JUMPDEST CALLVALUE PUSH2 0x1C7 JUMPI PUSH1 0x0 CALLDATASIZE PUSH1 0x3 NOT ADD SLT PUSH2 0x1C7 JUMPI PUSH1 0x20 PUSH1 0x40 MLOAD PUSH1 0xA DUP2 MSTORE RETURN JUMPDEST CALLVALUE PUSH2 0x1C7 JUMPI PUSH1 0x0 CALLDATASIZE PUSH1 0x3 NOT ADD SLT PUSH2 0x1C7 JUMPI PUSH1 0x20 PUSH1 0x40 MLOAD PUSH3 0x93A80 DUP2 MSTORE RETURN JUMPDEST CALLVALUE PUSH2 0x1C7 JUMPI PUSH1 0x0 CALLDATASIZE PUSH1 0x3 NOT ADD SLT PUSH2 0x1C7 JUMPI PUSH2 0xB98 PUSH2 0xEF1 JUMP JUMPDEST PUSH1 0x0 DUP1 SLOAD PUSH1 0x1 PUSH1 0x1 PUSH1 0xA0 SHL SUB NOT DUP2 AND DUP3 SSTORE PUSH1 0x1 PUSH1 0x1 PUSH1 0xA0 SHL SUB AND PUSH32 0x8BE0079C531659141344CD1FD0A4F28419497F9722A3DAAFE3B4186F6B6457E0 DUP3 DUP1 LOG3 STOP JUMPDEST CALLVALUE PUSH2 0x1C7 JUMPI PUSH1 0x60 CALLDATASIZE PUSH1 0x3 NOT ADD SLT PUSH2 0x1C7 JUMPI PUSH2 0xBF1 PUSH2 0xEDB JUMP JUMPDEST PUSH32 0x196D0533F37EA47D88E4EB66396286EF3E57C7EBD89F644475D77F1E899CACE PUSH1 0x40 PUSH1 0x24 CALLDATALOAD PUSH1 0x44 CALLDATALOAD SWAP4 PUSH1 0x1 DUP1 PUSH1 0xA0 SHL SUB AND SWAP4 DUP5 PUSH1 0x0 MSTORE PUSH1 0x3 PUSH1 0x20 MSTORE PUSH1 0x2 DUP4 PUSH1 0x0 KECCAK256 PUSH1 0x6 DUP2 ADD DUP1 SLOAD PUSH1 0xFF DUP2 AND ISZERO PUSH2 0xC71 JUMPI JUMPDEST POP POP PUSH1 0x1 DUP2 ADD PUSH2 0xC54 DUP6 DUP3 SLOAD PUSH2 0xF1D JUMP JUMPDEST SWAP1 SSTORE ADD PUSH2 0xC62 DUP3 DUP3 SLOAD PUSH2 0xF1D JUMP JUMPDEST SWAP1 SSTORE DUP3 MLOAD SWAP2 DUP3 MSTORE PUSH1 0x20 DUP3 ADD MSTORE LOG2 STOP JUMPDEST DUP3 SLOAD PUSH1 0x1 PUSH1 0x1 PUSH1 0xA0 SHL SUB NOT AND DUP10 OR DUP4 SSTORE PUSH1 0xFF NOT AND PUSH1 0x1 OR SWAP1 SSTORE DUP7 PUSH32 0xF2D060F1CCC39BFA171EC8ACAE3C1236109399F86FE8D8297A4373061E5662B3 PUSH1 0x0 DUP1 LOG2 DUP8 DUP1 PUSH2 0xC43 JUMP JUMPDEST CALLVALUE PUSH2 0x1C7 JUMPI PUSH1 0x0 CALLDATASIZE PUSH1 0x3 NOT ADD SLT PUSH2 0x1C7 JUMPI PUSH1 0x20 PUSH1 0x40 MLOAD PUSH7 0x2386F26FC10000 DUP2 MSTORE RETURN JUMPDEST CALLVALUE PUSH2 0x1C7 JUMPI PUSH1 0x20 CALLDATASIZE PUSH1 0x3 NOT ADD SLT PUSH2 0x1C7 JUMPI PUSH1 0x1 PUSH1 0x1 PUSH1 0xA0 SHL SUB DUP1 PUSH2 0xCFB PUSH2 0xEDB JUMP JUMPDEST AND PUSH1 0x0 MSTORE PUSH1 0x3 PUSH1 0x20 MSTORE PUSH1 0x40 PUSH1 0x0 KECCAK256 PUSH1 0x40 MLOAD SWAP2 PUSH1 0xE0 DUP4 ADD DUP4 DUP2 LT PUSH8 0xFFFFFFFFFFFFFFFF DUP3 GT OR PUSH2 0x778 JUMPI PUSH1 0x40 MSTORE DUP2 SLOAD AND DUP3 MSTORE PUSH1 0x1 DUP2 ADD SLOAD SWAP1 DUP2 PUSH1 0x20 DUP5 ADD MSTORE PUSH8 0xDE0B6B3A7640000 PUSH1 0x2 DUP3 ADD SLOAD DUP1 PUSH1 0x40 DUP7 ADD MSTORE PUSH1 0x3 DUP4 ADD SLOAD SWAP5 PUSH1 0x60 DUP2 ADD SWAP6 DUP7 MSTORE PUSH1 0xC0 PUSH1 0xFF PUSH1 0x6 PUSH1 0x4 DUP8 ADD SLOAD SWAP7 PUSH1 0x80 DUP6 ADD SWAP8 DUP9 MSTORE PUSH1 0x5 DUP2 ADD SLOAD PUSH1 0xA0 DUP7 ADD MSTORE ADD SLOAD AND ISZERO ISZERO SWAP2 ADD MSTORE DIV PUSH1 0x64 DUP4 MUL SWAP4 DUP4 DUP6 DIV PUSH1 0x64 EQ DUP5 ISZERO OR ISZERO PUSH2 0x2E6 JUMPI MLOAD SWAP2 MLOAD SWAP4 PUSH1 0xA DUP6 MUL SWAP4 DUP6 DUP6 DIV PUSH1 0xA EQ DUP7 ISZERO OR ISZERO PUSH2 0x2E6 JUMPI PUSH1 0x28 DUP4 MUL SWAP3 DUP1 DUP5 DIV PUSH1 0x28 EQ SWAP1 ISZERO OR ISZERO PUSH2 0x2E6 JUMPI PUSH2 0xBB8 MUL SWAP1 DUP1 DUP3 DIV PUSH1 0x1E EQ SWAP1 ISZERO OR ISZERO PUSH2 0x2E6 JUMPI PUSH2 0xDD8 SWAP2 PUSH2 0xF1D JUMP JUMPDEST PUSH1 0x14 DUP3 MUL SWAP2 DUP1 DUP4 DIV PUSH1 0x14 EQ SWAP1 ISZERO OR ISZERO PUSH2 0x2E6 JUMPI PUSH1 0x64 SWAP2 PUSH2 0xDF7 SWAP2 PUSH2 0xF1D JUMP JUMPDEST SWAP3 MUL SWAP1 DUP1 DUP3 DIV PUSH1 0xA EQ SWAP1 ISZERO OR ISZERO PUSH2 0x2E6 JUMPI PUSH2 0xE16 PUSH1 0x64 SWAP2 PUSH1 0x20 SWAP4 PUSH2 0xF1D JUMP JUMPDEST DIV PUSH1 0x40 MLOAD SWAP1 DUP2 MSTORE RETURN JUMPDEST CALLVALUE PUSH2 0x1C7 JUMPI PUSH1 0x20 CALLDATASIZE PUSH1 0x3 NOT ADD SLT PUSH2 0x1C7 JUMPI PUSH1 0xE0 PUSH1 0x1 PUSH1 0x1 PUSH1 0xA0 SHL SUB DUP1 PUSH2 0xE43 PUSH2 0xEDB JUMP JUMPDEST AND PUSH1 0x0 MSTORE PUSH1 0x3 PUSH1 0x20 MSTORE PUSH1 0x40 PUSH1 0x0 KECCAK256 SWAP1 DUP2 SLOAD AND SWAP1 PUSH1 0x1 DUP2 ADD SLOAD SWAP1 PUSH1 0x2 DUP2 ADD SLOAD PUSH1 0x3 DUP3 ADD SLOAD PUSH1 0x4 DUP4 ADD SLOAD SWAP2 PUSH1 0xFF PUSH1 0x6 PUSH1 0x5 DUP7 ADD SLOAD SWAP6 ADD SLOAD AND SWAP5 PUSH1 0x40 MLOAD SWAP7 DUP8 MSTORE PUSH1 0x20 DUP8 ADD MSTORE PUSH1 0x40 DUP7 ADD MSTORE PUSH1 0x60 DUP6 ADD MSTORE PUSH1 0x80 DUP5 ADD MSTORE PUSH1 0xA0 DUP4 ADD MSTORE ISZERO ISZERO PUSH1 0xC0 DUP3 ADD MSTORE RETURN JUMPDEST CALLVALUE PUSH2 0x1C7 JUMPI PUSH1 0x0 CALLDATASIZE PUSH1 0x3 NOT ADD SLT PUSH2 0x1C7 JUMPI PUSH1 0x20 PUSH1 0x8 SLOAD PUSH1 0x40 MLOAD SWAP1 DUP2 MSTORE RETURN JUMPDEST CALLVALUE PUSH2 0x1C7 JUMPI PUSH1 0x0 CALLDATASIZE PUSH1 0x3 NOT ADD SLT PUSH2 0x1C7 JUMPI PUSH1 0x20 SWAP1 PUSH1 0x6 SLOAD DUP2 MSTORE RETURN JUMPDEST PUSH1 0x4 CALLDATALOAD SWAP1 PUSH1 0x1 PUSH1 0x1 PUSH1 0xA0 SHL SUB DUP3 AND DUP3 SUB PUSH2 0x1C7 JUMPI JUMP JUMPDEST PUSH1 0x0 SLOAD PUSH1 0x1 PUSH1 0x1 PUSH1 0xA0 SHL SUB AND CALLER SUB PUSH2 0xF05 JUMPI JUMP JUMPDEST PUSH1 0x40 MLOAD PUSH4 0x118CDAA7 PUSH1 0xE0 SHL DUP2 MSTORE CALLER PUSH1 0x4 DUP3 ADD MSTORE PUSH1 0x24 SWAP1 REVERT JUMPDEST SWAP2 SWAP1 DUP3 ADD DUP1 SWAP3 GT PUSH2 0x2E6 JUMPI JUMP JUMPDEST PUSH1 0x0 NOT DUP2 EQ PUSH2 0x2E6 JUMPI PUSH1 0x1 ADD SWAP1 JUMP JUMPDEST SWAP2 SWAP1 DUP3 SUB SWAP2 DUP3 GT PUSH2 0x2E6 JUMPI JUMP JUMPDEST DUP1 MLOAD DUP3 LT ISZERO PUSH2 0xF5A JUMPI PUSH1 0x20 SWAP2 PUSH1 0x5 SHL ADD ADD SWAP1 JUMP JUMPDEST PUSH4 0x4E487B71 PUSH1 0xE0 SHL PUSH1 0x0 MSTORE PUSH1 0x32 PUSH1 0x4 MSTORE PUSH1 0x24 PUSH1 0x0 REVERT JUMPDEST PUSH1 0x2 PUSH1 0x1 SLOAD EQ PUSH2 0xF81 JUMPI PUSH1 0x2 PUSH1 0x1 SSTORE JUMP JUMPDEST PUSH1 0x40 MLOAD PUSH4 0x3EE5AEB5 PUSH1 0xE0 SHL DUP2 MSTORE PUSH1 0x4 SWAP1 REVERT JUMPDEST PUSH1 0x40 MLOAD SWAP1 PUSH1 0xC0 DUP3 ADD DUP3 DUP2 LT PUSH8 0xFFFFFFFFFFFFFFFF DUP3 GT OR PUSH2 0x778 JUMPI PUSH1 0x40 MSTORE JUMP JUMPDEST RETURNDATASIZE ISZERO PUSH2 0xFF9 JUMPI PUSH8 0xFFFFFFFFFFFFFFFF SWAP1 RETURNDATASIZE DUP3 DUP2 GT PUSH2 0x778 JUMPI PUSH1 0x40 MLOAD SWAP3 PUSH1 0x1F DUP3 ADD PUSH1 0x1F NOT SWAP1 DUP2 AND PUSH1 0x3F ADD AND DUP5 ADD SWAP1 DUP2 GT DUP5 DUP3 LT OR PUSH2 0x778 JUMPI PUSH1 0x40 MSTORE DUP3 MSTORE RETURNDATASIZE PUSH1 0x0 PUSH1 0x20 DUP5 ADD RETURNDATACOPY JUMP JUMPDEST PUSH1 0x60 SWAP1 JUMP JUMPDEST ISZERO PUSH2 0x1005 JUMPI JUMP JUMPDEST PUSH1 0x40 MLOAD PUSH3 0x461BCD PUSH1 0xE5 SHL DUP2 MSTORE PUSH1 0x20 PUSH1 0x4 DUP3 ADD MSTORE PUSH1 0xF PUSH1 0x24 DUP3 ADD MSTORE PUSH15 0x151C985B9CD9995C8819985A5B1959 PUSH1 0x8A SHL PUSH1 0x44 DUP3 ADD MSTORE PUSH1 0x64 SWAP1 REVERT JUMPDEST PUSH2 0x104F PUSH1 0x8 SLOAD PUSH3 0x93A80 SWAP2 DUP3 SWAP2 TIMESTAMP PUSH2 0xF39 JUMP JUMPDEST DIV SWAP1 PUSH1 0x1 DUP3 ADD DUP1 SWAP3 GT PUSH2 0x2E6 JUMPI PUSH1 0x6 SLOAD SWAP1 DUP2 DUP4 GT PUSH2 0x106C JUMPI POP POP POP JUMP JUMPDEST PUSH1 0x0 SWAP2 DUP3 MSTORE PUSH1 0x2 PUSH1 0x20 MSTORE TIMESTAMP PUSH1 0x4 PUSH1 0x40 DUP5 KECCAK256 ADD SSTORE DUP3 PUSH1 0x6 SSTORE TIMESTAMP ADD DUP1 TIMESTAMP GT PUSH2 0x10FB JUMPI SWAP1 PUSH1 0x5 SWAP2 PUSH2 0x1098 PUSH2 0xF93 JUMP JUMPDEST SWAP2 DUP1 DUP4 MSTORE PUSH1 0x20 DUP4 ADD DUP2 DUP2 MSTORE PUSH1 0x40 DUP5 ADD SWAP1 DUP7 DUP3 MSTORE PUSH1 0x40 PUSH1 0x60 DUP7 ADD SWAP4 TIMESTAMP DUP6 MSTORE PUSH1 0x80 DUP8 ADD SWAP6 DUP7 MSTORE PUSH1 0xA0 DUP8 ADD SWAP9 DUP2 DUP11 MSTORE DUP2 MSTORE PUSH1 0x2 PUSH1 0x20 MSTORE KECCAK256 SWAP5 MLOAD DUP6 SSTORE MLOAD PUSH1 0x1 DUP6 ADD SSTORE MLOAD PUSH1 0x2 DUP5 ADD SSTORE MLOAD PUSH1 0x3 DUP4 ADD SSTORE MLOAD PUSH1 0x4 DUP3 ADD SSTORE ADD SWAP1 MLOAD ISZERO ISZERO PUSH1 0xFF DUP1 NOT DUP4 SLOAD AND SWAP2 AND OR SWAP1 SSTORE JUMP JUMPDEST PUSH4 0x4E487B71 PUSH1 0xE0 SHL DUP3 MSTORE PUSH1 0x11 PUSH1 0x4 MSTORE PUSH1 0x24 DUP3 REVERT INVALID LOG2 PUSH5 0x6970667358 0x22 SLT KECCAK256 PUSH15 0x112CBD7D7AA90B1929D96421D6E99D MUL STOP LOG2 GAS OR RETURN 0xAF SHL GAS SMOD JUMP CREATE BASEFEE PUSH26 0xA59A64736F6C6343000814003300000000000000000000000000 "},"methodIdentifiers":{"MIN_CONTRIBUTION_THRESHOLD()":"4352ea9a","TOP_BUILDERS_COUNT()":"84a17e73","WEEK_DURATION()":"76f5f700","builders(address)":"144ddefc","calculateBuilderScore(address)":"2ae27905","claimReward(uint256)":"ae169a50","contractStartTime()":"0c3d5157","currentWeek()":"06575c89","deposit()":"d0e30db0","distributeWeeklyRewards()":"c28232a4","emergencyWithdraw()":"db2e21bc","getCurrentWeekInfo()":"b46ed012","owner()":"8da5cb5b","recordContribution(address,uint256,uint256)":"5867b788","renounceOwnership()":"715018a6","totalDistributed()":"efca2eed","transferOwnership(address)":"f2fde38b","updateAccuracyScore(address,uint256)":"e605b687","voteForBuilder(address)":"8b9d41f5","weeklyBuilderRewards(uint256,address)":"a3966e9e","weeklyRewards(uint256)":"af364c05","weeklyTopBuilders(uint256,uint256)":"c397bcfa"}}}}}