{"contracts/src/MockContracts.sol":{"MockPredictionMarket":{"abi":[{"inputs":[{"internalType":"uint256","name":"","type":"uint256"}],"name":"getMarketSubmissions","outputs":[{"internalType":"uint256[]","name":"","type":"uint256[]"}],"stateMutability":"pure","type":"function"},{"inputs":[{"internalType":"uint256","name":"","type":"uint256"}],"name":"markets","outputs":[{"internalType":"address","name":"creator","type":"address"},{"internalType":"address","name":"actor","type":"address"},{"internalType":"uint256","name":"startTime","type":"uint256"},{"internalType":"uint256","name":"endTime","type":"uint256"},{"internalType":"bool","name":"resolved","type":"bool"},{"internalType":"uint256","name":"winningSubmissionId","type":"uint256"},{"internalType":"uint256","name":"totalVolume","type":"uint256"},{"internalType":"uint256","name":"submissionCount","type":"uint256"},{"internalType":"uint256","name":"betCount","type":"uint256"},{"internalType":"uint256","name":"platformFeePercentage","type":"uint256"},{"internalType":"uint256","name":"platformFeeCollected","type":"uint256"}],"stateMutability":"view","type":"function"},{"inputs":[{"internalType":"uint256","name":"marketId","type":"uint256"},{"components":[{"internalType":"address","name":"creator","type":"address"},{"internalType":"address","name":"actor","type":"address"},{"internalType":"uint256","name":"startTime","type":"uint256"},{"internalType":"uint256","name":"endTime","type":"uint256"},{"internalType":"bool","name":"resolved","type":"bool"},{"internalType":"uint256","name":"winningSubmissionId","type":"uint256"},{"internalType":"uint256","name":"totalVolume","type":"uint256"},{"internalType":"uint256","name":"submissionCount","type":"uint256"},{"internalType":"uint256","name":"betCount","type":"uint256"},{"internalType":"uint256","name":"platformFeePercentage","type":"uint256"},{"internalType":"uint256","name":"platformFeeCollected","type":"uint256"}],"internalType":"struct MockPredictionMarket.Market","name":"market","type":"tuple"}],"name":"setMarket","outputs":[],"stateMutability":"nonpayable","type":"function"},{"inputs":[{"internalType":"uint256","name":"","type":"uint256"}],"name":"submissions","outputs":[{"internalType":"uint256","name":"marketId","type":"uint256"},{"internalType":"address","name":"creator","type":"address"},{"internalType":"string","name":"predictedText","type":"string"},{"internalType":"uint256","name":"stake","type":"uint256"},{"internalType":"uint256","name":"totalBets","type":"uint256"},{"internalType":"uint256","name":"levenshteinDistance","type":"uint256"},{"internalType":"bool","name":"isWinner","type":"bool"},{"internalType":"string","name":"screenshotIpfsHash","type":"string"},{"internalType":"bytes32","name":"screenshotBase64Hash","type":"bytes32"}],"stateMutability":"pure","type":"function"}],"evm":{"bytecode":{"linkReferences":{},"object":"608080604052346100165761046e908161001c8239f35b600080fdfe6080604081815260048036101561001557600080fd5b600092833560e01c9081633c399fce1461025757508063905d99fc1461017a578063ad73349e146100f75763b1283e771461004f57600080fd5b346100f35760203660031901126100f357816101609382358152806020522060018060a01b039283825416936001830154169260028301549060ff60038501549185015416600585015490600686015492600787015494600888015496600a60098a01549901549981519b8c5260208c01528a015260608901521515608088015260a087015260c086015260e0850152610100840152610120830152610140820152f35b8280fd5b505034610176576020366003190112610176576101126103c2565b9180835261016b6101216103c2565b828152610145845195869585875285602088015261012080918801528601906103f8565b908360608601528360808601528360a08601528360c086015284820360e08601526103f8565b906101008301520390f35b5080fd5b50913461025457602080600319360112610176578251906080820182811067ffffffffffffffff8211176102415784526003825280820192606036853782511561022e57600195868552835187101561021b5760028685015283516002101561021b5750600360608401528451828152925183830181905283860194879390925b8281106102085785870386f35b83518752958101959281019284016101fb565b634e487b7160e01b825260329052602490fd5b634e487b7160e01b815260328652602490fd5b634e487b7160e01b845260418652602484fd5b80fd5b929050346103be576101803660031901126103be57610160806023193601126103a757830183811067ffffffffffffffff8211176103ab5781528391906001600160a01b0360243581811681036103a757855260443581811681036103a7576020860190815282860160643581526060870194608435865260a4359081151582036103a35788966080880192835260a088019360c435855260c089019560e435875260e08a0197610104358952806101008c019a610124358c526101208d019c8d610144359052610140019d8e6101643590528735815280602052209d5116908d6bffffffffffffffffffffffff60a01b9283825416178155600101925116908254161790555160028b01555160038a015588019051151560ff198254169060ff161790555160058701555160068601555160078501555160088401555160098301555190600a015580f35b8780fd5b8480fd5b634e487b7160e01b855260418352602485fd5b8380fd5b604051906020820182811067ffffffffffffffff8211176103e257604052565b634e487b7160e01b600052604160045260246000fd5b919082519283825260005b848110610424575050826000602080949584010152601f8019910116010190565b60208183018101518483018201520161040356fea2646970667358221220b36bce2b9cbcbf0331cadb8682a2ef47fc68c196e59499b24752542f0a58190764736f6c63430008140033","opcodes":"PUSH1 0x80 DUP1 PUSH1 0x40 MSTORE CALLVALUE PUSH2 0x16 JUMPI PUSH2 0x46E SWAP1 DUP2 PUSH2 0x1C DUP3 CODECOPY RETURN JUMPDEST PUSH1 0x0 DUP1 REVERT INVALID PUSH1 0x80 PUSH1 0x40 DUP2 DUP2 MSTORE PUSH1 0x4 DUP1 CALLDATASIZE LT ISZERO PUSH2 0x15 JUMPI PUSH1 0x0 DUP1 REVERT JUMPDEST PUSH1 0x0 SWAP3 DUP4 CALLDATALOAD PUSH1 0xE0 SHR SWAP1 DUP2 PUSH4 0x3C399FCE EQ PUSH2 0x257 JUMPI POP DUP1 PUSH4 0x905D99FC EQ PUSH2 0x17A JUMPI DUP1 PUSH4 0xAD73349E EQ PUSH2 0xF7 JUMPI PUSH4 0xB1283E77 EQ PUSH2 0x4F JUMPI PUSH1 0x0 DUP1 REVERT JUMPDEST CALLVALUE PUSH2 0xF3 JUMPI PUSH1 0x20 CALLDATASIZE PUSH1 0x3 NOT ADD SLT PUSH2 0xF3 JUMPI DUP2 PUSH2 0x160 SWAP4 DUP3 CALLDATALOAD DUP2 MSTORE DUP1 PUSH1 0x20 MSTORE KECCAK256 PUSH1 0x1 DUP1 PUSH1 0xA0 SHL SUB SWAP3 DUP4 DUP3 SLOAD AND SWAP4 PUSH1 0x1 DUP4 ADD SLOAD AND SWAP3 PUSH1 0x2 DUP4 ADD SLOAD SWAP1 PUSH1 0xFF PUSH1 0x3 DUP6 ADD SLOAD SWAP2 DUP6 ADD SLOAD AND PUSH1 0x5 DUP6 ADD SLOAD SWAP1 PUSH1 0x6 DUP7 ADD SLOAD SWAP3 PUSH1 0x7 DUP8 ADD SLOAD SWAP5 PUSH1 0x8 DUP9 ADD SLOAD SWAP7 PUSH1 0xA PUSH1 0x9 DUP11 ADD SLOAD SWAP10 ADD SLOAD SWAP10 DUP2 MLOAD SWAP12 DUP13 MSTORE PUSH1 0x20 DUP13 ADD MSTORE DUP11 ADD MSTORE PUSH1 0x60 DUP10 ADD MSTORE ISZERO ISZERO PUSH1 0x80 DUP9 ADD MSTORE PUSH1 0xA0 DUP8 ADD MSTORE PUSH1 0xC0 DUP7 ADD MSTORE PUSH1 0xE0 DUP6 ADD MSTORE PUSH2 0x100 DUP5 ADD MSTORE PUSH2 0x120 DUP4 ADD MSTORE PUSH2 0x140 DUP3 ADD MSTORE RETURN JUMPDEST DUP3 DUP1 REVERT JUMPDEST POP POP CALLVALUE PUSH2 0x176 JUMPI PUSH1 0x20 CALLDATASIZE PUSH1 0x3 NOT ADD SLT PUSH2 0x176 JUMPI PUSH2 0x112 PUSH2 0x3C2 JUMP JUMPDEST SWAP2 DUP1 DUP4 MSTORE PUSH2 0x16B PUSH2 0x121 PUSH2 0x3C2 JUMP JUMPDEST DUP3 DUP2 MSTORE PUSH2 0x145 DUP5 MLOAD SWAP6 DUP7 SWAP6 DUP6 DUP8 MSTORE DUP6 PUSH1 0x20 DUP9 ADD MSTORE PUSH2 0x120 DUP1 SWAP2 DUP9 ADD MSTORE DUP7 ADD SWAP1 PUSH2 0x3F8 JUMP JUMPDEST SWAP1 DUP4 PUSH1 0x60 DUP7 ADD MSTORE DUP4 PUSH1 0x80 DUP7 ADD MSTORE DUP4 PUSH1 0xA0 DUP7 ADD MSTORE DUP4 PUSH1 0xC0 DUP7 ADD MSTORE DUP5 DUP3 SUB PUSH1 0xE0 DUP7 ADD MSTORE PUSH2 0x3F8 JUMP JUMPDEST SWAP1 PUSH2 0x100 DUP4 ADD MSTORE SUB SWAP1 RETURN JUMPDEST POP DUP1 REVERT JUMPDEST POP SWAP2 CALLVALUE PUSH2 0x254 JUMPI PUSH1 0x20 DUP1 PUSH1 0x3 NOT CALLDATASIZE ADD SLT PUSH2 0x176 JUMPI DUP3 MLOAD SWAP1 PUSH1 0x80 DUP3 ADD DUP3 DUP2 LT PUSH8 0xFFFFFFFFFFFFFFFF DUP3 GT OR PUSH2 0x241 JUMPI DUP5 MSTORE PUSH1 0x3 DUP3 MSTORE DUP1 DUP3 ADD SWAP3 PUSH1 0x60 CALLDATASIZE DUP6 CALLDATACOPY DUP3 MLOAD ISZERO PUSH2 0x22E JUMPI PUSH1 0x1 SWAP6 DUP7 DUP6 MSTORE DUP4 MLOAD DUP8 LT ISZERO PUSH2 0x21B JUMPI PUSH1 0x2 DUP7 DUP6 ADD MSTORE DUP4 MLOAD PUSH1 0x2 LT ISZERO PUSH2 0x21B JUMPI POP PUSH1 0x3 PUSH1 0x60 DUP5 ADD MSTORE DUP5 MLOAD DUP3 DUP2 MSTORE SWAP3 MLOAD DUP4 DUP4 ADD DUP2 SWAP1 MSTORE DUP4 DUP7 ADD SWAP5 DUP8 SWAP4 SWAP1 SWAP3 JUMPDEST DUP3 DUP2 LT PUSH2 0x208 JUMPI DUP6 DUP8 SUB DUP7 RETURN JUMPDEST DUP4 MLOAD DUP8 MSTORE SWAP6 DUP2 ADD SWAP6 SWAP3 DUP2 ADD SWAP3 DUP5 ADD PUSH2 0x1FB JUMP JUMPDEST PUSH4 0x4E487B71 PUSH1 0xE0 SHL DUP3 MSTORE PUSH1 0x32 SWAP1 MSTORE PUSH1 0x24 SWAP1 REVERT JUMPDEST PUSH4 0x4E487B71 PUSH1 0xE0 SHL DUP2 MSTORE PUSH1 0x32 DUP7 MSTORE PUSH1 0x24 SWAP1 REVERT JUMPDEST PUSH4 0x4E487B71 PUSH1 0xE0 SHL DUP5 MSTORE PUSH1 0x41 DUP7 MSTORE PUSH1 0x24 DUP5 REVERT JUMPDEST DUP1 REVERT JUMPDEST SWAP3 SWAP1 POP CALLVALUE PUSH2 0x3BE JUMPI PUSH2 0x180 CALLDATASIZE PUSH1 0x3 NOT ADD SLT PUSH2 0x3BE JUMPI PUSH2 0x160 DUP1 PUSH1 0x23 NOT CALLDATASIZE ADD SLT PUSH2 0x3A7 JUMPI DUP4 ADD DUP4 DUP2 LT PUSH8 0xFFFFFFFFFFFFFFFF DUP3 GT OR PUSH2 0x3AB JUMPI DUP2 MSTORE DUP4 SWAP2 SWAP1 PUSH1 0x1 PUSH1 0x1 PUSH1 0xA0 SHL SUB PUSH1 0x24 CALLDATALOAD DUP2 DUP2 AND DUP2 SUB PUSH2 0x3A7 JUMPI DUP6 MSTORE PUSH1 0x44 CALLDATALOAD DUP2 DUP2 AND DUP2 SUB PUSH2 0x3A7 JUMPI PUSH1 0x20 DUP7 ADD SWAP1 DUP2 MSTORE DUP3 DUP7 ADD PUSH1 0x64 CALLDATALOAD DUP2 MSTORE PUSH1 0x60 DUP8 ADD SWAP5 PUSH1 0x84 CALLDATALOAD DUP7 MSTORE PUSH1 0xA4 CALLDATALOAD SWAP1 DUP2 ISZERO ISZERO DUP3 SUB PUSH2 0x3A3 JUMPI DUP9 SWAP7 PUSH1 0x80 DUP9 ADD SWAP3 DUP4 MSTORE PUSH1 0xA0 DUP9 ADD SWAP4 PUSH1 0xC4 CALLDATALOAD DUP6 MSTORE PUSH1 0xC0 DUP10 ADD SWAP6 PUSH1 0xE4 CALLDATALOAD DUP8 MSTORE PUSH1 0xE0 DUP11 ADD SWAP8 PUSH2 0x104 CALLDATALOAD DUP10 MSTORE DUP1 PUSH2 0x100 DUP13 ADD SWAP11 PUSH2 0x124 CALLDATALOAD DUP13 MSTORE PUSH2 0x120 DUP14 ADD SWAP13 DUP14 PUSH2 0x144 CALLDATALOAD SWAP1 MSTORE PUSH2 0x140 ADD SWAP14 DUP15 PUSH2 0x164 CALLDATALOAD SWAP1 MSTORE DUP8 CALLDATALOAD DUP2 MSTORE DUP1 PUSH1 0x20 MSTORE KECCAK256 SWAP14 MLOAD AND SWAP1 DUP14 PUSH12 0xFFFFFFFFFFFFFFFFFFFFFFFF PUSH1 0xA0 SHL SWAP3 DUP4 DUP3 SLOAD AND OR DUP2 SSTORE PUSH1 0x1 ADD SWAP3 MLOAD AND SWAP1 DUP3 SLOAD AND OR SWAP1 SSTORE MLOAD PUSH1 0x2 DUP12 ADD SSTORE MLOAD PUSH1 0x3 DUP11 ADD SSTORE DUP9 ADD SWAP1 MLOAD ISZERO ISZERO PUSH1 0xFF NOT DUP3 SLOAD AND SWAP1 PUSH1 0xFF AND OR SWAP1 SSTORE MLOAD PUSH1 0x5 DUP8 ADD SSTORE MLOAD PUSH1 0x6 DUP7 ADD SSTORE MLOAD PUSH1 0x7 DUP6 ADD SSTORE MLOAD PUSH1 0x8 DUP5 ADD SSTORE MLOAD PUSH1 0x9 DUP4 ADD SSTORE MLOAD SWAP1 PUSH1 0xA ADD SSTORE DUP1 RETURN JUMPDEST DUP8 DUP1 REVERT JUMPDEST DUP5 DUP1 REVERT JUMPDEST PUSH4 0x4E487B71 PUSH1 0xE0 SHL DUP6 MSTORE PUSH1 0x41 DUP4 MSTORE PUSH1 0x24 DUP6 REVERT JUMPDEST DUP4 DUP1 REVERT JUMPDEST PUSH1 0x40 MLOAD SWAP1 PUSH1 0x20 DUP3 ADD DUP3 DUP2 LT PUSH8 0xFFFFFFFFFFFFFFFF DUP3 GT OR PUSH2 0x3E2 JUMPI PUSH1 0x40 MSTORE JUMP JUMPDEST PUSH4 0x4E487B71 PUSH1 0xE0 SHL PUSH1 0x0 MSTORE PUSH1 0x41 PUSH1 0x4 MSTORE PUSH1 0x24 PUSH1 0x0 REVERT JUMPDEST SWAP2 SWAP1 DUP3 MLOAD SWAP3 DUP4 DUP3 MSTORE PUSH1 0x0 JUMPDEST DUP5 DUP2 LT PUSH2 0x424 JUMPI POP POP DUP3 PUSH1 0x0 PUSH1 0x20 DUP1 SWAP5 SWAP6 DUP5 ADD ADD MSTORE PUSH1 0x1F DUP1 NOT SWAP2 ADD AND ADD ADD SWAP1 JUMP JUMPDEST PUSH1 0x20 DUP2 DUP4 ADD DUP2 ADD MLOAD DUP5 DUP4 ADD DUP3 ADD MSTORE ADD PUSH2 0x403 JUMP INVALID LOG2 PUSH5 0x6970667358 0x22 SLT KECCAK256 0xB3 PUSH12 0xCE2B9CBCBF0331CADB8682A2 0xEF SELFBALANCE 0xFC PUSH9 0xC196E59499B2475254 0x2F EXP PC NOT SMOD PUSH5 0x736F6C6343 STOP ADDMOD EQ STOP CALLER "},"methodIdentifiers":{"getMarketSubmissions(uint256)":"905d99fc","markets(uint256)":"b1283e77","setMarket(uint256,(address,address,uint256,uint256,bool,uint256,uint256,uint256,uint256,uint256,uint256))":"3c399fce","submissions(uint256)":"ad73349e"}}}}}