{"contracts/src/PredictionMarketV2.sol":{"PredictionMarketV2":{"abi":[{"inputs":[{"internalType":"address","name":"_feeRecipient","type":"address"}],"stateMutability":"nonpayable","type":"constructor"},{"inputs":[],"name":"AlreadyClaimed","type":"error"},{"inputs":[],"name":"BettingCutoffPassed","type":"error"},{"inputs":[],"name":"EmptyPrediction","type":"error"},{"inputs":[],"name":"EnforcedPause","type":"error"},{"inputs":[],"name":"ExpectedPause","type":"error"},{"inputs":[],"name":"InsufficientBet","type":"error"},{"inputs":[],"name":"InvalidDuration","type":"error"},{"inputs":[],"name":"MarketAlreadyResolved","type":"error"},{"inputs":[],"name":"MarketEnded","type":"error"},{"inputs":[],"name":"MarketNotEnded","type":"error"},{"inputs":[],"name":"MarketNotEndedForRefund","type":"error"},{"inputs":[],"name":"MarketNotFound","type":"error"},{"inputs":[],"name":"MinimumSubmissionsNotMet","type":"error"},{"inputs":[],"name":"NoFeesToWithdraw","type":"error"},{"inputs":[],"name":"NotSingleSubmission","type":"error"},{"inputs":[],"name":"NotWinningSubmission","type":"error"},{"inputs":[{"internalType":"address","name":"owner","type":"address"}],"name":"OwnableInvalidOwner","type":"error"},{"inputs":[{"internalType":"address","name":"account","type":"address"}],"name":"OwnableUnauthorizedAccount","type":"error"},{"inputs":[],"name":"PredictionTooLong","type":"error"},{"inputs":[],"name":"ReentrancyGuardReentrantCall","type":"error"},{"inputs":[],"name":"SubmissionNotFound","type":"error"},{"inputs":[],"name":"TransferFailed","type":"error"},{"anonymous":false,"inputs":[{"indexed":true,"internalType":"address","name":"recipient","type":"address"},{"indexed":false,"internalType":"uint256","name":"amount","type":"uint256"}],"name":"FeesWithdrawn","type":"event"},{"anonymous":false,"inputs":[{"indexed":true,"internalType":"uint256","name":"marketId","type":"uint256"},{"indexed":false,"internalType":"string","name":"actorHandle","type":"string"},{"indexed":false,"internalType":"uint256","name":"endTime","type":"uint256"},{"indexed":false,"internalType":"address","name":"creator","type":"address"}],"name":"MarketCreated","type":"event"},{"anonymous":false,"inputs":[{"indexed":true,"internalType":"uint256","name":"marketId","type":"uint256"},{"indexed":false,"internalType":"uint256","name":"winningSubmissionId","type":"uint256"},{"indexed":false,"internalType":"string","name":"actualText","type":"string"},{"indexed":false,"internalType":"uint256","name":"winningDistance","type":"uint256"}],"name":"MarketResolved","type":"event"},{"anonymous":false,"inputs":[{"indexed":true,"internalType":"address","name":"previousOwner","type":"address"},{"indexed":true,"internalType":"address","name":"newOwner","type":"address"}],"name":"OwnershipTransferred","type":"event"},{"anonymous":false,"inputs":[{"indexed":false,"internalType":"address","name":"account","type":"address"}],"name":"Paused","type":"event"},{"anonymous":false,"inputs":[{"indexed":true,"internalType":"uint256","name":"submissionId","type":"uint256"},{"indexed":true,"internalType":"address","name":"claimer","type":"address"},{"indexed":false,"internalType":"uint256","name":"amount","type":"uint256"}],"name":"PayoutClaimed","type":"event"},{"anonymous":false,"inputs":[{"indexed":true,"internalType":"uint256","name":"marketId","type":"uint256"},{"indexed":true,"internalType":"uint256","name":"submissionId","type":"uint256"},{"indexed":false,"internalType":"address","name":"submitter","type":"address"},{"indexed":false,"internalType":"uint256","name":"amount","type":"uint256"}],"name":"SingleSubmissionRefunded","type":"event"},{"anonymous":false,"inputs":[{"indexed":true,"internalType":"uint256","name":"submissionId","type":"uint256"},{"indexed":true,"internalType":"uint256","name":"marketId","type":"uint256"},{"indexed":false,"internalType":"address","name":"submitter","type":"address"},{"indexed":false,"internalType":"string","name":"predictedText","type":"string"},{"indexed":false,"internalType":"uint256","name":"amount","type":"uint256"}],"name":"SubmissionCreated","type":"event"},{"anonymous":false,"inputs":[{"indexed":false,"internalType":"address","name":"account","type":"address"}],"name":"Unpaused","type":"event"},{"inputs":[],"name":"BETTING_CUTOFF","outputs":[{"internalType":"uint256","name":"","type":"uint256"}],"stateMutability":"view","type":"function"},{"inputs":[],"name":"MAX_TEXT_LENGTH","outputs":[{"internalType":"uint256","name":"","type":"uint256"}],"stateMutability":"view","type":"function"},{"inputs":[],"name":"MIN_BET","outputs":[{"internalType":"uint256","name":"","type":"uint256"}],"stateMutability":"view","type":"function"},{"inputs":[],"name":"MIN_SUBMISSIONS","outputs":[{"internalType":"uint256","name":"","type":"uint256"}],"stateMutability":"view","type":"function"},{"inputs":[],"name":"PLATFORM_FEE_BPS","outputs":[{"internalType":"uint256","name":"","type":"uint256"}],"stateMutability":"view","type":"function"},{"inputs":[{"internalType":"uint256","name":"_submissionId","type":"uint256"}],"name":"claimPayout","outputs":[],"stateMutability":"nonpayable","type":"function"},{"inputs":[{"internalType":"string","name":"_actorHandle","type":"string"},{"internalType":"uint256","name":"_duration","type":"uint256"}],"name":"createMarket","outputs":[{"internalType":"uint256","name":"","type":"uint256"}],"stateMutability":"nonpayable","type":"function"},{"inputs":[{"internalType":"uint256","name":"_marketId","type":"uint256"},{"internalType":"string","name":"_predictedText","type":"string"}],"name":"createSubmission","outputs":[{"internalType":"uint256","name":"","type":"uint256"}],"stateMutability":"payable","type":"function"},{"inputs":[{"internalType":"uint256","name":"_marketId","type":"uint256"}],"name":"emergencyWithdraw","outputs":[],"stateMutability":"nonpayable","type":"function"},{"inputs":[],"name":"feeRecipient","outputs":[{"internalType":"address","name":"","type":"address"}],"stateMutability":"view","type":"function"},{"inputs":[{"internalType":"uint256","name":"_marketId","type":"uint256"}],"name":"getMarketDetails","outputs":[{"internalType":"string","name":"actorHandle","type":"string"},{"internalType":"uint256","name":"endTime","type":"uint256"},{"internalType":"uint256","name":"totalPool","type":"uint256"},{"internalType":"bool","name":"resolved","type":"bool"},{"internalType":"uint256","name":"winningSubmissionId","type":"uint256"},{"internalType":"address","name":"creator","type":"address"},{"internalType":"uint256[]","name":"submissionIds","type":"uint256[]"}],"stateMutability":"view","type":"function"},{"inputs":[{"internalType":"uint256","name":"_marketId","type":"uint256"}],"name":"getMarketSubmissions","outputs":[{"internalType":"uint256[]","name":"","type":"uint256[]"}],"stateMutability":"view","type":"function"},{"inputs":[{"internalType":"uint256","name":"_submissionId","type":"uint256"}],"name":"getSubmissionDetails","outputs":[{"internalType":"uint256","name":"marketId","type":"uint256"},{"internalType":"address","name":"submitter","type":"address"},{"internalType":"string","name":"predictedText","type":"string"},{"internalType":"uint256","name":"amount","type":"uint256"},{"internalType":"bool","name":"claimed","type":"bool"}],"stateMutability":"view","type":"function"},{"inputs":[{"internalType":"address","name":"_user","type":"address"}],"name":"getUserSubmissions","outputs":[{"internalType":"uint256[]","name":"","type":"uint256[]"}],"stateMutability":"view","type":"function"},{"inputs":[{"internalType":"string","name":"a","type":"string"},{"internalType":"string","name":"b","type":"string"}],"name":"levenshteinDistance","outputs":[{"internalType":"uint256","name":"","type":"uint256"}],"stateMutability":"pure","type":"function"},{"inputs":[],"name":"marketCount","outputs":[{"internalType":"uint256","name":"","type":"uint256"}],"stateMutability":"view","type":"function"},{"inputs":[{"internalType":"uint256","name":"","type":"uint256"},{"internalType":"uint256","name":"","type":"uint256"}],"name":"marketSubmissions","outputs":[{"internalType":"uint256","name":"","type":"uint256"}],"stateMutability":"view","type":"function"},{"inputs":[{"internalType":"uint256","name":"","type":"uint256"}],"name":"markets","outputs":[{"internalType":"string","name":"actorHandle","type":"string"},{"internalType":"uint256","name":"endTime","type":"uint256"},{"internalType":"uint256","name":"totalPool","type":"uint256"},{"internalType":"bool","name":"resolved","type":"bool"},{"internalType":"uint256","name":"winningSubmissionId","type":"uint256"},{"internalType":"address","name":"creator","type":"address"}],"stateMutability":"view","type":"function"},{"inputs":[],"name":"owner","outputs":[{"internalType":"address","name":"","type":"address"}],"stateMutability":"view","type":"function"},{"inputs":[],"name":"pause","outputs":[],"stateMutability":"nonpayable","type":"function"},{"inputs":[],"name":"paused","outputs":[{"internalType":"bool","name":"","type":"bool"}],"stateMutability":"view","type":"function"},{"inputs":[{"internalType":"address","name":"","type":"address"}],"name":"pendingFees","outputs":[{"internalType":"uint256","name":"","type":"uint256"}],"stateMutability":"view","type":"function"},{"inputs":[{"internalType":"uint256","name":"_marketId","type":"uint256"}],"name":"refundSingleSubmission","outputs":[],"stateMutability":"nonpayable","type":"function"},{"inputs":[],"name":"renounceOwnership","outputs":[],"stateMutability":"nonpayable","type":"function"},{"inputs":[{"internalType":"uint256","name":"_marketId","type":"uint256"},{"internalType":"string","name":"_actualText","type":"string"}],"name":"resolveMarket","outputs":[],"stateMutability":"nonpayable","type":"function"},{"inputs":[{"internalType":"address","name":"_newRecipient","type":"address"}],"name":"setFeeRecipient","outputs":[],"stateMutability":"nonpayable","type":"function"},{"inputs":[],"name":"submissionCount","outputs":[{"internalType":"uint256","name":"","type":"uint256"}],"stateMutability":"view","type":"function"},{"inputs":[{"internalType":"uint256","name":"","type":"uint256"}],"name":"submissions","outputs":[{"internalType":"uint256","name":"marketId","type":"uint256"},{"internalType":"address","name":"submitter","type":"address"},{"internalType":"string","name":"predictedText","type":"string"},{"internalType":"uint256","name":"amount","type":"uint256"},{"internalType":"bool","name":"claimed","type":"bool"}],"stateMutability":"view","type":"function"},{"inputs":[{"internalType":"address","name":"newOwner","type":"address"}],"name":"transferOwnership","outputs":[],"stateMutability":"nonpayable","type":"function"},{"inputs":[],"name":"unpause","outputs":[],"stateMutability":"nonpayable","type":"function"},{"inputs":[{"internalType":"address","name":"","type":"address"},{"internalType":"uint256","name":"","type":"uint256"}],"name":"userSubmissions","outputs":[{"internalType":"uint256","name":"","type":"uint256"}],"stateMutability":"view","type":"function"},{"inputs":[],"name":"withdrawFees","outputs":[],"stateMutability":"nonpayable","type":"function"}],"evm":{"bytecode":{"linkReferences":{},"object":"6080346100ca57601f611cb638819003918201601f19168301916001600160401b038311848410176100cf578084926020946040528339810103126100ca57516001600160a01b0390818116908190036100ca5733156100b15760005460018060a01b0319903382821617600055604051933391167f8be0079c531659141344cd1fd0a4f28419497f9722a3daafe3b4186f6b6457e0600080a3600180556009541617600955611bd090816100e68239f35b604051631e4fbdf760e01b815260006004820152602490fd5b600080fd5b634e487b7160e01b600052604160045260246000fdfe6080604052600436101561001257600080fd5b60003560e01c80632405bc05146114eb57806325d2a3f3146114b15780632e91bf61146114955780633f4ba83a14611423578063417763c51461140657806346904840146113dd578063476343ee14611344578063511e4198146113275780635312ea8e146111a8578063539aa77f1461118b5780635c975abb146111655780636540742f146111435780636ec02be914611125578063715018a6146110cc5780638456cb591461106a578063883c84c114610d955780638a69614e14610c5a5780638da5cb5b14610c31578063905d99fc14610c055780639b7e018014610bbb578063a5e99c4e14610827578063a7b8614d146107d9578063ad73349e1461077b578063b06c1ba3146106d1578063b1283e7714610647578063bc1b1cbe146104df578063c75bb72414610316578063c9f131b2146102b7578063e1a3faae14610270578063e74b981b1461022d578063ec9790821461020f5763f2fde38b1461017c57600080fd5b3461020a57602036600319011261020a576101956115bd565b61019d61181f565b6001600160a01b039081169081156101f157600054826bffffffffffffffffffffffff60a01b821617600055167f8be0079c531659141344cd1fd0a4f28419497f9722a3daafe3b4186f6b6457e0600080a3005b604051631e4fbdf760e01b815260006004820152602490fd5b600080fd5b3461020a57600036600319011261020a576020600254604051908152f35b3461020a57602036600319011261020a576102466115bd565b61024e61181f565b600980546001600160a01b0319166001600160a01b0392909216919091179055005b3461020a57604036600319011261020a5760243560043560005260066020526040600020805482101561020a576020916102a991611660565b90546040519160031b1c8152f35b3461020a57604036600319011261020a5767ffffffffffffffff60043581811161020a576102e9903690600401611801565b9060243590811161020a5760209161030861030e923690600401611801565b906119f4565b604051908152f35b3461020a5761032436611678565b61032f92919261181f565b816000526004602052604060002060018101549081156104cd5760038101549160ff83166104bb5742106104a957836000526006602052604060002090815492600284106104975761038083611635565b90549060031b1c9361039184611635565b90549060031b1c60005260056020526103be6103b36002604060002001611708565b61030836898c6117ca565b9360015b828110610429575050509583600461041e9360017fc4e284c2a201b94563c6ce031a924441597063ad9cb49c9cb4f55afb3a29a619999a60ff191617600382015501556040519485948552606060208601526060850191611867565b9060408301520390a2005b6104338183611660565b90549060031b1c60005260056020526104606104556002604060002001611708565b610308368b8e6117ca565b868110610477575b506104729061184b565b6103c2565b90965094506104726104898783611660565b90549060031b1c9690610468565b60405163d99f098d60e01b8152600490fd5b6040516302d56b1d60e21b8152600490fd5b60405163aa43cb2d60e01b8152600490fd5b6040516307db1be560e41b8152600490fd5b3461020a57602036600319011261020a576004356104fb6118e3565b8060005260046020526040600020600191828201549182156104cd576003019160ff8354166104bb574210610635578060005260066020526040600020838154036106235761054981611635565b90549060031b1c600052600560205260406000209260048401805460ff81166106115786918260ff198093161790558254161790558383019260018060a01b0360008080806003858a54169601958654905af16105a4611906565b50156105ff576105d47fd493b5f0e54565b32b3af9321fb4bf458a0f94e9bf3853a09afcbc5dd8a11f7893611635565b90549554925460408051939094166001600160a01b03168352602083015260031b9490941c93a38055005b6040516312171d8360e31b8152600490fd5b604051630c8d9eab60e31b8152600490fd5b60405163bb880da160e01b8152600490fd5b6040516322e5783760e21b8152600490fd5b3461020a57602036600319011261020a5760043560005260046020526106b1604060002061067481611708565b9060018101549060028101549060ff600382015416600482015491600560018060a01b03910154169260405196879660c0885260c0880190611544565b946020870152604086015215156060850152608084015260a08301520390f35b3461020a57602036600319011261020a57600435600052600460205261074e60406000206107776001820154600283015460ff600385015416600485015460018060a01b03600587015416916006602052610739610733604060002098611708565b97611936565b9360405198899860e08a5260e08a0190611544565b956020890152604088015215156060870152608086015260a085015283820360c0850152611601565b0390f35b3461020a57602036600319011261020a576004356000908152600560205260409020805460018201546001600160a01b031691610777906107be60028201611708565b9060ff60046003830154920154169160405195869586611584565b3461020a57602036600319011261020a576001600160a01b036107fa6115bd565b1660005260076020526107776108136040600020611936565b604051918291602083526020830190611601565b61083036611678565b909161083a611888565b6108426118e3565b8060005260046020526040600020600181015480156104cd5760ff6003830154166104bb5780421015610ba957610e0f198101908111610b9357421015610b815766038d7ea4c680003410610b6f578215610b5d576101188311610b4b57600354926108ad8461184b565b60035560405167ffffffffffffffff929060a0810184811182821017610b355760405284815260208101933385526108e636858a6117ca565b60408381019182523460608501526000608085018190528981526005602052208351815595516001870180546001600160a01b0319166001600160a01b0392909216919091179055518051918211610b355761094560028701546116ac565b601f8111610aee575b509160209893918895938a90601f8311600114610a4d57608060029594846109d7957f632e6796076d99679374246080b34fb778057438519193395c8831d81a5f79279b9c95600495600092610a42575b50508160011b916000199060031b1c191617878501555b606081015160038501550151151591019060ff801983541691151516179055565b86600052600689526109ed8660406000206118a9565b3360005260078952610a038660406000206118a9565b01610a0f34825461185a565b9055610a2d60405192839233845260608a8501526060840191611867565b3460408301520390a360018055604051908152f35b01519050388061099f565b97929190600284016000528b6000209860005b601f1984168110610ad457506109d7936001847f632e6796076d99679374246080b34fb778057438519193395c8831d81a5f79279b9c60049560809560029b9a98601f19811610610abb575b505050811b01878501556109b6565b015160001960f88460031b161c19169055388080610aac565b828201518b556001909a01998c9950918d01918d01610a60565b600287016000526020600020601f840160051c810160208510610b2e575b601f830160051c82018110610b2257505061094e565b60008155600101610b0c565b5080610b0c565b634e487b7160e01b600052604160045260246000fd5b6040516337fee28b60e11b8152600490fd5b604051634513eefd60e11b8152600490fd5b6040516347d8345560e11b8152600490fd5b604051630a967f1760e11b8152600490fd5b634e487b7160e01b600052601160045260246000fd5b60405163262b753160e21b8152600490fd5b3461020a57604036600319011261020a57610bd46115bd565b6001600160a01b031660009081526007602052604090208054602435919082101561020a576020916102a991611660565b3461020a57602036600319011261020a5760043560005260066020526107776108136040600020611936565b3461020a57600036600319011261020a576000546040516001600160a01b039091168152602090f35b3461020a57602036600319011261020a57600435610c766118e3565b80600052600560205260406000209081546000526004602052604060002091600181019260018060a01b03918285541615610d835760ff600383015416156104a95783600483015403610d71576004019081549160ff831661061157600160029360ff19161790550154926102bc808502908582041485151715610b93576127109004808503948511610b935782600954166000526008602052610d20604060002091825461185a565b9055600080808087868654165af1610d36611906565b50156105ff577fe97cee5a4c0549d3fdc81e322b718ddf0aeb3418ec87dce4f9a7fb28d117c31291602091541693604051908152a360018055005b60405163488c5acf60e01b8152600490fd5b6040516348f6fffd60e11b8152600490fd5b3461020a57604036600319011261020a5767ffffffffffffffff60043581811161020a57610dc79036906004016115d3565b9091610dd1611888565b610e1060243510801561105c575b61104a5760025491610df08361184b565b600255610dff6024354261185a565b6040519060c0820182811085821117610b3557604052610e203684886117ca565b825260208201526000604082015260006060820152600060808201523360a082015283600052600460205260406000209281518051918211610b3557610e6685546116ac565b601f8111611002575b5091859391602097938890601f8311600114610f6f5791807f57d0d124b72f81ed1da0dc728fc33db342705974792928796f6577b8db5c3d53979892600594600092610f64575b50508160011b916000199060031b1c19161781555b88830151600182015560408301516002820155610efd60608401511515600383019060ff801983541691151516179055565b60808301516004820155019060a0600180821b03910151166bffffffffffffffffffffffff60a01b825416179055610f376024354261185a565b610f4e604051938493606085526060850191611867565b90878301523360408301520390a2604051908152f35b015190508b80610eb6565b8760009893929852896000209060005b601f1984168110610fe85750916001917f57d0d124b72f81ed1da0dc728fc33db342705974792928796f6577b8db5c3d5398996005959483601f19811610610fcf575b505050811b018155610ecb565b015160001960f88460031b161c191690558b8080610fc2565b818a01518355988b01988a98506001909201918b01610f7f565b856000526020600020601f840160051c81019160208510611040575b601f0160051c01905b8181106110345750610e6f565b60008155600101611027565b909150819061101e565b604051637616640160e01b8152600490fd5b5062278d0060243511610ddf565b3461020a57600036600319011261020a5761108361181f565b61108b611888565b6000805460ff60a01b1916600160a01b1790556040513381527f62e78cea01bee320cd4e420270b5ea74000d11b0c9f74754ebdbfc544b05a25890602090a1005b3461020a57600036600319011261020a576110e561181f565b600080546001600160a01b0319811682556001600160a01b03167f8be0079c531659141344cd1fd0a4f28419497f9722a3daafe3b4186f6b6457e08280a3005b3461020a57600036600319011261020a576020600354604051908152f35b3461020a57600036600319011261020a57602060405166038d7ea4c680008152f35b3461020a57600036600319011261020a57602060ff60005460a01c166040519015158152f35b3461020a57600036600319011261020a5760206040516102bc8152f35b3461020a57602036600319011261020a576111c161181f565b6111c96118e3565b6004356000526004602052604060002060018101549081156104cd576003019081549060ff82166104bb5762093a808101809111610b935742106104a95760019060ff19161790556004356000526006602052604060002060005b8154811015611321578061123b61126d9284611660565b90549060031b1c6000526005602052604060002060048101805460ff81161580611314575b611272575b50505061184b565b611224565b60019060ff1916179055600181019060018060a01b0360008080806003858854169601958654905af16112a3611906565b5015611265576113097fd493b5f0e54565b32b3af9321fb4bf458a0f94e9bf3853a09afcbc5dd8a11f78916112d88689611660565b90549060031b1c9454169254604051918291600435958360209093929193604081019460018060a01b031681520152565b0390a3838080611265565b5060038301541515611260565b60018055005b3461020a57600036600319011261020a576020604051610e108152f35b3461020a57600036600319011261020a5761135d6118e3565b33600052600860205260406000205480156113cb5733600052600860205260006040812055600080808084335af1611393611906565b50156105ff576040519081527fc0819c13be868895eb93e40eaceb96de976442fa1d404e5c55f14bb65a8c489a60203392a260018055005b604051630d00db4d60e31b8152600490fd5b3461020a57600036600319011261020a576009546040516001600160a01b039091168152602090f35b3461020a57600036600319011261020a5760206040516101188152f35b3461020a57600036600319011261020a5761143c61181f565b60005460ff8160a01c16156114835760ff60a01b19166000556040513381527f5db9ee0a495bf2e6ff9c91a7834c1ba4fdd244a5e8aa4e537bd38aeae4b073aa90602090a1005b604051638dfc202b60e01b8152600490fd5b3461020a57600036600319011261020a57602060405160028152f35b3461020a57602036600319011261020a576001600160a01b036114d26115bd565b1660005260086020526020604060002054604051908152f35b3461020a57602036600319011261020a5760043560005260056020526040600020805461077760018060a01b03600184015416926003810154611538600260ff6004850154169301611708565b60405195869586611584565b919082519283825260005b848110611570575050826000602080949584010152601f8019910116010190565b60208183018101518483018201520161154f565b93959491926080936115b092865260018060a01b0316602086015260a0604086015260a0850190611544565b9460608401521515910152565b600435906001600160a01b038216820361020a57565b9181601f8401121561020a5782359167ffffffffffffffff831161020a576020838186019501011161020a57565b90815180825260208080930193019160005b828110611621575050505090565b835185529381019392810192600101611613565b80541561164a57600052602060002090600090565b634e487b7160e01b600052603260045260246000fd5b805482101561164a5760005260206000200190600090565b90604060031983011261020a57600435916024359067ffffffffffffffff821161020a576116a8916004016115d3565b9091565b90600182811c921680156116dc575b60208310146116c657565b634e487b7160e01b600052602260045260246000fd5b91607f16916116bb565b90601f8019910116810190811067ffffffffffffffff821117610b3557604052565b906040519182600082549261171c846116ac565b90818452600194858116908160001461178b5750600114611748575b5050611746925003836116e6565b565b9093915060005260209081600020936000915b81831061177357505061174693508201013880611738565b8554888401850152948501948794509183019161175b565b91505061174694506020925060ff191682840152151560051b8201013880611738565b67ffffffffffffffff8111610b3557601f01601f191660200190565b9291926117d6826117ae565b916117e460405193846116e6565b82948184528183011161020a578281602093846000960137010152565b9080601f8301121561020a5781602061181c933591016117ca565b90565b6000546001600160a01b0316330361183357565b60405163118cdaa760e01b8152336004820152602490fd5b6000198114610b935760010190565b91908201809211610b9357565b908060209392818452848401376000828201840152601f01601f1916010190565b60ff60005460a01c1661189757565b60405163d93c066560e01b8152600490fd5b805468010000000000000000811015610b35576118cb91600182018155611660565b819291549060031b91821b91600019901b1916179055565b6002600154146118f4576002600155565b604051633ee5aeb560e01b8152600490fd5b3d15611931573d90611917826117ae565b9161192560405193846116e6565b82523d6000602084013e565b606090565b9060405191828154918282526020928383019160005283600020936000905b82821061196b57505050611746925003836116e6565b855484526001958601958895509381019390910190611955565b67ffffffffffffffff8111610b355760051b60200190565b906119a782611985565b6119b460405191826116e6565b82815280926119c5601f1991611985565b0190602036910137565b805182101561164a5760209160051b010190565b90815181101561164a570160200190565b91908251908051918015611b55578215611b4f5760019485840192838511610b9357611a2b611a258594939461199d565b9461199d565b9260005b86811115611b35575087935b83851115611a57575050505050611a539293506119cf565b5190565b8095939495511561164a57856020820152885b87811115611a845750611a7d909561184b565b9392611a3b565b6000198781019190888311610b93576001600160f81b0319928390611aa990876119e3565b511690820192828411610b9357611ac084886119e3565b511603611b2e576000915b611ad582886119cf565b518c8101809111610b9357611aea82866119cf565b518d8101809111610b9357611b13611b1993611b0d60ff611b299816918c6119cf565b5161185a565b91611b5c565b611b2382856119cf565b5261184b565b611a6a565b8a91611acb565b8080611b23611b4793899897986119cf565b939293611a2f565b93505050565b5090925050565b8181111580611b90575b611b8a5781111580611b80575b611b7b575090565b905090565b5081811115611b73565b91505090565b5082811115611b6656fea26469706673582212204a4fcd9b8e3e13aca5baad784a2306be32e7e8f9028988051840a76662b39c2c64736f6c63430008140033","opcodes":"PUSH1 0x80 CALLVALUE PUSH2 0xCA JUMPI PUSH1 0x1F PUSH2 0x1CB6 CODESIZE DUP2 SWAP1 SUB SWAP2 DUP3 ADD PUSH1 0x1F NOT AND DUP4 ADD SWAP2 PUSH1 0x1 PUSH1 0x1 PUSH1 0x40 SHL SUB DUP4 GT DUP5 DUP5 LT OR PUSH2 0xCF JUMPI DUP1 DUP5 SWAP3 PUSH1 0x20 SWAP5 PUSH1 0x40 MSTORE DUP4 CODECOPY DUP2 ADD SUB SLT PUSH2 0xCA JUMPI MLOAD PUSH1 0x1 PUSH1 0x1 PUSH1 0xA0 SHL SUB SWAP1 DUP2 DUP2 AND SWAP1 DUP2 SWAP1 SUB PUSH2 0xCA JUMPI CALLER ISZERO PUSH2 0xB1 JUMPI PUSH1 0x0 SLOAD PUSH1 0x1 DUP1 PUSH1 0xA0 SHL SUB NOT SWAP1 CALLER DUP3 DUP3 AND OR PUSH1 0x0 SSTORE PUSH1 0x40 MLOAD SWAP4 CALLER SWAP2 AND PUSH32 0x8BE0079C531659141344CD1FD0A4F28419497F9722A3DAAFE3B4186F6B6457E0 PUSH1 0x0 DUP1 LOG3 PUSH1 0x1 DUP1 SSTORE PUSH1 0x9 SLOAD AND OR PUSH1 0x9 SSTORE PUSH2 0x1BD0 SWAP1 DUP2 PUSH2 0xE6 DUP3 CODECOPY RETURN JUMPDEST PUSH1 0x40 MLOAD PUSH4 0x1E4FBDF7 PUSH1 0xE0 SHL DUP2 MSTORE PUSH1 0x0 PUSH1 0x4 DUP3 ADD MSTORE PUSH1 0x24 SWAP1 REVERT JUMPDEST PUSH1 0x0 DUP1 REVERT JUMPDEST PUSH4 0x4E487B71 PUSH1 0xE0 SHL PUSH1 0x0 MSTORE PUSH1 0x41 PUSH1 0x4 MSTORE PUSH1 0x24 PUSH1 0x0 REVERT INVALID PUSH1 0x80 PUSH1 0x40 MSTORE PUSH1 0x4 CALLDATASIZE LT ISZERO PUSH2 0x12 JUMPI PUSH1 0x0 DUP1 REVERT JUMPDEST PUSH1 0x0 CALLDATALOAD PUSH1 0xE0 SHR DUP1 PUSH4 0x2405BC05 EQ PUSH2 0x14EB JUMPI DUP1 PUSH4 0x25D2A3F3 EQ PUSH2 0x14B1 JUMPI DUP1 PUSH4 0x2E91BF61 EQ PUSH2 0x1495 JUMPI DUP1 PUSH4 0x3F4BA83A EQ PUSH2 0x1423 JUMPI DUP1 PUSH4 0x417763C5 EQ PUSH2 0x1406 JUMPI DUP1 PUSH4 0x46904840 EQ PUSH2 0x13DD JUMPI DUP1 PUSH4 0x476343EE EQ PUSH2 0x1344 JUMPI DUP1 PUSH4 0x511E4198 EQ PUSH2 0x1327 JUMPI DUP1 PUSH4 0x5312EA8E EQ PUSH2 0x11A8 JUMPI DUP1 PUSH4 0x539AA77F EQ PUSH2 0x118B JUMPI DUP1 PUSH4 0x5C975ABB EQ PUSH2 0x1165 JUMPI DUP1 PUSH4 0x6540742F EQ PUSH2 0x1143 JUMPI DUP1 PUSH4 0x6EC02BE9 EQ PUSH2 0x1125 JUMPI DUP1 PUSH4 0x715018A6 EQ PUSH2 0x10CC JUMPI DUP1 PUSH4 0x8456CB59 EQ PUSH2 0x106A JUMPI DUP1 PUSH4 0x883C84C1 EQ PUSH2 0xD95 JUMPI DUP1 PUSH4 0x8A69614E EQ PUSH2 0xC5A JUMPI DUP1 PUSH4 0x8DA5CB5B EQ PUSH2 0xC31 JUMPI DUP1 PUSH4 0x905D99FC EQ PUSH2 0xC05 JUMPI DUP1 PUSH4 0x9B7E0180 EQ PUSH2 0xBBB JUMPI DUP1 PUSH4 0xA5E99C4E EQ PUSH2 0x827 JUMPI DUP1 PUSH4 0xA7B8614D EQ PUSH2 0x7D9 JUMPI DUP1 PUSH4 0xAD73349E EQ PUSH2 0x77B JUMPI DUP1 PUSH4 0xB06C1BA3 EQ PUSH2 0x6D1 JUMPI DUP1 PUSH4 0xB1283E77 EQ PUSH2 0x647 JUMPI DUP1 PUSH4 0xBC1B1CBE EQ PUSH2 0x4DF JUMPI DUP1 PUSH4 0xC75BB724 EQ PUSH2 0x316 JUMPI DUP1 PUSH4 0xC9F131B2 EQ PUSH2 0x2B7 JUMPI DUP1 PUSH4 0xE1A3FAAE EQ PUSH2 0x270 JUMPI DUP1 PUSH4 0xE74B981B EQ PUSH2 0x22D JUMPI DUP1 PUSH4 0xEC979082 EQ PUSH2 0x20F JUMPI PUSH4 0xF2FDE38B EQ PUSH2 0x17C JUMPI PUSH1 0x0 DUP1 REVERT JUMPDEST CALLVALUE PUSH2 0x20A JUMPI PUSH1 0x20 CALLDATASIZE PUSH1 0x3 NOT ADD SLT PUSH2 0x20A JUMPI PUSH2 0x195 PUSH2 0x15BD JUMP JUMPDEST PUSH2 0x19D PUSH2 0x181F JUMP JUMPDEST PUSH1 0x1 PUSH1 0x1 PUSH1 0xA0 SHL SUB SWAP1 DUP2 AND SWAP1 DUP2 ISZERO PUSH2 0x1F1 JUMPI PUSH1 0x0 SLOAD DUP3 PUSH12 0xFFFFFFFFFFFFFFFFFFFFFFFF PUSH1 0xA0 SHL DUP3 AND OR PUSH1 0x0 SSTORE AND PUSH32 0x8BE0079C531659141344CD1FD0A4F28419497F9722A3DAAFE3B4186F6B6457E0 PUSH1 0x0 DUP1 LOG3 STOP JUMPDEST PUSH1 0x40 MLOAD PUSH4 0x1E4FBDF7 PUSH1 0xE0 SHL DUP2 MSTORE PUSH1 0x0 PUSH1 0x4 DUP3 ADD MSTORE PUSH1 0x24 SWAP1 REVERT JUMPDEST PUSH1 0x0 DUP1 REVERT JUMPDEST CALLVALUE PUSH2 0x20A JUMPI PUSH1 0x0 CALLDATASIZE PUSH1 0x3 NOT ADD SLT PUSH2 0x20A JUMPI PUSH1 0x20 PUSH1 0x2 SLOAD PUSH1 0x40 MLOAD SWAP1 DUP2 MSTORE RETURN JUMPDEST CALLVALUE PUSH2 0x20A JUMPI PUSH1 0x20 CALLDATASIZE PUSH1 0x3 NOT ADD SLT PUSH2 0x20A JUMPI PUSH2 0x246 PUSH2 0x15BD JUMP JUMPDEST PUSH2 0x24E PUSH2 0x181F JUMP JUMPDEST PUSH1 0x9 DUP1 SLOAD PUSH1 0x1 PUSH1 0x1 PUSH1 0xA0 SHL SUB NOT AND PUSH1 0x1 PUSH1 0x1 PUSH1 0xA0 SHL SUB SWAP3 SWAP1 SWAP3 AND SWAP2 SWAP1 SWAP2 OR SWAP1 SSTORE STOP JUMPDEST CALLVALUE PUSH2 0x20A JUMPI PUSH1 0x40 CALLDATASIZE PUSH1 0x3 NOT ADD SLT PUSH2 0x20A JUMPI PUSH1 0x24 CALLDATALOAD PUSH1 0x4 CALLDATALOAD PUSH1 0x0 MSTORE PUSH1 0x6 PUSH1 0x20 MSTORE PUSH1 0x40 PUSH1 0x0 KECCAK256 DUP1 SLOAD DUP3 LT ISZERO PUSH2 0x20A JUMPI PUSH1 0x20 SWAP2 PUSH2 0x2A9 SWAP2 PUSH2 0x1660 JUMP JUMPDEST SWAP1 SLOAD PUSH1 0x40 MLOAD SWAP2 PUSH1 0x3 SHL SHR DUP2 MSTORE RETURN JUMPDEST CALLVALUE PUSH2 0x20A JUMPI PUSH1 0x40 CALLDATASIZE PUSH1 0x3 NOT ADD SLT PUSH2 0x20A JUMPI PUSH8 0xFFFFFFFFFFFFFFFF PUSH1 0x4 CALLDATALOAD DUP2 DUP2 GT PUSH2 0x20A JUMPI PUSH2 0x2E9 SWAP1 CALLDATASIZE SWAP1 PUSH1 0x4 ADD PUSH2 0x1801 JUMP JUMPDEST SWAP1 PUSH1 0x24 CALLDATALOAD SWAP1 DUP2 GT PUSH2 0x20A JUMPI PUSH1 0x20 SWAP2 PUSH2 0x308 PUSH2 0x30E SWAP3 CALLDATASIZE SWAP1 PUSH1 0x4 ADD PUSH2 0x1801 JUMP JUMPDEST SWAP1 PUSH2 0x19F4 JUMP JUMPDEST PUSH1 0x40 MLOAD SWAP1 DUP2 MSTORE RETURN JUMPDEST CALLVALUE PUSH2 0x20A JUMPI PUSH2 0x324 CALLDATASIZE PUSH2 0x1678 JUMP JUMPDEST PUSH2 0x32F SWAP3 SWAP2 SWAP3 PUSH2 0x181F JUMP JUMPDEST DUP2 PUSH1 0x0 MSTORE PUSH1 0x4 PUSH1 0x20 MSTORE PUSH1 0x40 PUSH1 0x0 KECCAK256 PUSH1 0x1 DUP2 ADD SLOAD SWAP1 DUP2 ISZERO PUSH2 0x4CD JUMPI PUSH1 0x3 DUP2 ADD SLOAD SWAP2 PUSH1 0xFF DUP4 AND PUSH2 0x4BB JUMPI TIMESTAMP LT PUSH2 0x4A9 JUMPI DUP4 PUSH1 0x0 MSTORE PUSH1 0x6 PUSH1 0x20 MSTORE PUSH1 0x40 PUSH1 0x0 KECCAK256 SWAP1 DUP2 SLOAD SWAP3 PUSH1 0x2 DUP5 LT PUSH2 0x497 JUMPI PUSH2 0x380 DUP4 PUSH2 0x1635 JUMP JUMPDEST SWAP1 SLOAD SWAP1 PUSH1 0x3 SHL SHR SWAP4 PUSH2 0x391 DUP5 PUSH2 0x1635 JUMP JUMPDEST SWAP1 SLOAD SWAP1 PUSH1 0x3 SHL SHR PUSH1 0x0 MSTORE PUSH1 0x5 PUSH1 0x20 MSTORE PUSH2 0x3BE PUSH2 0x3B3 PUSH1 0x2 PUSH1 0x40 PUSH1 0x0 KECCAK256 ADD PUSH2 0x1708 JUMP JUMPDEST PUSH2 0x308 CALLDATASIZE DUP10 DUP13 PUSH2 0x17CA JUMP JUMPDEST SWAP4 PUSH1 0x1 JUMPDEST DUP3 DUP2 LT PUSH2 0x429 JUMPI POP POP POP SWAP6 DUP4 PUSH1 0x4 PUSH2 0x41E SWAP4 PUSH1 0x1 PUSH32 0xC4E284C2A201B94563C6CE031A924441597063AD9CB49C9CB4F55AFB3A29A619 SWAP10 SWAP11 PUSH1 0xFF NOT AND OR PUSH1 0x3 DUP3 ADD SSTORE ADD SSTORE PUSH1 0x40 MLOAD SWAP5 DUP6 SWAP5 DUP6 MSTORE PUSH1 0x60 PUSH1 0x20 DUP7 ADD MSTORE PUSH1 0x60 DUP6 ADD SWAP2 PUSH2 0x1867 JUMP JUMPDEST SWAP1 PUSH1 0x40 DUP4 ADD MSTORE SUB SWAP1 LOG2 STOP JUMPDEST PUSH2 0x433 DUP2 DUP4 PUSH2 0x1660 JUMP JUMPDEST SWAP1 SLOAD SWAP1 PUSH1 0x3 SHL SHR PUSH1 0x0 MSTORE PUSH1 0x5 PUSH1 0x20 MSTORE PUSH2 0x460 PUSH2 0x455 PUSH1 0x2 PUSH1 0x40 PUSH1 0x0 KECCAK256 ADD PUSH2 0x1708 JUMP JUMPDEST PUSH2 0x308 CALLDATASIZE DUP12 DUP15 PUSH2 0x17CA JUMP JUMPDEST DUP7 DUP2 LT PUSH2 0x477 JUMPI JUMPDEST POP PUSH2 0x472 SWAP1 PUSH2 0x184B JUMP JUMPDEST PUSH2 0x3C2 JUMP JUMPDEST SWAP1 SWAP7 POP SWAP5 POP PUSH2 0x472 PUSH2 0x489 DUP8 DUP4 PUSH2 0x1660 JUMP JUMPDEST SWAP1 SLOAD SWAP1 PUSH1 0x3 SHL SHR SWAP7 SWAP1 PUSH2 0x468 JUMP JUMPDEST PUSH1 0x40 MLOAD PUSH4 0xD99F098D PUSH1 0xE0 SHL DUP2 MSTORE PUSH1 0x4 SWAP1 REVERT JUMPDEST PUSH1 0x40 MLOAD PUSH4 0x2D56B1D PUSH1 0xE2 SHL DUP2 MSTORE PUSH1 0x4 SWAP1 REVERT JUMPDEST PUSH1 0x40 MLOAD PUSH4 0xAA43CB2D PUSH1 0xE0 SHL DUP2 MSTORE PUSH1 0x4 SWAP1 REVERT JUMPDEST PUSH1 0x40 MLOAD PUSH4 0x7DB1BE5 PUSH1 0xE4 SHL DUP2 MSTORE PUSH1 0x4 SWAP1 REVERT JUMPDEST CALLVALUE PUSH2 0x20A JUMPI PUSH1 0x20 CALLDATASIZE PUSH1 0x3 NOT ADD SLT PUSH2 0x20A JUMPI PUSH1 0x4 CALLDATALOAD PUSH2 0x4FB PUSH2 0x18E3 JUMP JUMPDEST DUP1 PUSH1 0x0 MSTORE PUSH1 0x4 PUSH1 0x20 MSTORE PUSH1 0x40 PUSH1 0x0 KECCAK256 PUSH1 0x1 SWAP2 DUP3 DUP3 ADD SLOAD SWAP2 DUP3 ISZERO PUSH2 0x4CD JUMPI PUSH1 0x3 ADD SWAP2 PUSH1 0xFF DUP4 SLOAD AND PUSH2 0x4BB JUMPI TIMESTAMP LT PUSH2 0x635 JUMPI DUP1 PUSH1 0x0 MSTORE PUSH1 0x6 PUSH1 0x20 MSTORE PUSH1 0x40 PUSH1 0x0 KECCAK256 DUP4 DUP2 SLOAD SUB PUSH2 0x623 JUMPI PUSH2 0x549 DUP2 PUSH2 0x1635 JUMP JUMPDEST SWAP1 SLOAD SWAP1 PUSH1 0x3 SHL SHR PUSH1 0x0 MSTORE PUSH1 0x5 PUSH1 0x20 MSTORE PUSH1 0x40 PUSH1 0x0 KECCAK256 SWAP3 PUSH1 0x4 DUP5 ADD DUP1 SLOAD PUSH1 0xFF DUP2 AND PUSH2 0x611 JUMPI DUP7 SWAP2 DUP3 PUSH1 0xFF NOT DUP1 SWAP4 AND OR SWAP1 SSTORE DUP3 SLOAD AND OR SWAP1 SSTORE DUP4 DUP4 ADD SWAP3 PUSH1 0x1 DUP1 PUSH1 0xA0 SHL SUB PUSH1 0x0 DUP1 DUP1 DUP1 PUSH1 0x3 DUP6 DUP11 SLOAD AND SWAP7 ADD SWAP6 DUP7 SLOAD SWAP1 GAS CALL PUSH2 0x5A4 PUSH2 0x1906 JUMP JUMPDEST POP ISZERO PUSH2 0x5FF JUMPI PUSH2 0x5D4 PUSH32 0xD493B5F0E54565B32B3AF9321FB4BF458A0F94E9BF3853A09AFCBC5DD8A11F78 SWAP4 PUSH2 0x1635 JUMP JUMPDEST SWAP1 SLOAD SWAP6 SLOAD SWAP3 SLOAD PUSH1 0x40 DUP1 MLOAD SWAP4 SWAP1 SWAP5 AND PUSH1 0x1 PUSH1 0x1 PUSH1 0xA0 SHL SUB AND DUP4 MSTORE PUSH1 0x20 DUP4 ADD MSTORE PUSH1 0x3 SHL SWAP5 SWAP1 SWAP5 SHR SWAP4 LOG3 DUP1 SSTORE STOP JUMPDEST PUSH1 0x40 MLOAD PUSH4 0x12171D83 PUSH1 0xE3 SHL DUP2 MSTORE PUSH1 0x4 SWAP1 REVERT JUMPDEST PUSH1 0x40 MLOAD PUSH4 0xC8D9EAB PUSH1 0xE3 SHL DUP2 MSTORE PUSH1 0x4 SWAP1 REVERT JUMPDEST PUSH1 0x40 MLOAD PUSH4 0xBB880DA1 PUSH1 0xE0 SHL DUP2 MSTORE PUSH1 0x4 SWAP1 REVERT JUMPDEST PUSH1 0x40 MLOAD PUSH4 0x22E57837 PUSH1 0xE2 SHL DUP2 MSTORE PUSH1 0x4 SWAP1 REVERT JUMPDEST CALLVALUE PUSH2 0x20A JUMPI PUSH1 0x20 CALLDATASIZE PUSH1 0x3 NOT ADD SLT PUSH2 0x20A JUMPI PUSH1 0x4 CALLDATALOAD PUSH1 0x0 MSTORE PUSH1 0x4 PUSH1 0x20 MSTORE PUSH2 0x6B1 PUSH1 0x40 PUSH1 0x0 KECCAK256 PUSH2 0x674 DUP2 PUSH2 0x1708 JUMP JUMPDEST SWAP1 PUSH1 0x1 DUP2 ADD SLOAD SWAP1 PUSH1 0x2 DUP2 ADD SLOAD SWAP1 PUSH1 0xFF PUSH1 0x3 DUP3 ADD SLOAD AND PUSH1 0x4 DUP3 ADD SLOAD SWAP2 PUSH1 0x5 PUSH1 0x1 DUP1 PUSH1 0xA0 SHL SUB SWAP2 ADD SLOAD AND SWAP3 PUSH1 0x40 MLOAD SWAP7 DUP8 SWAP7 PUSH1 0xC0 DUP9 MSTORE PUSH1 0xC0 DUP9 ADD SWAP1 PUSH2 0x1544 JUMP JUMPDEST SWAP5 PUSH1 0x20 DUP8 ADD MSTORE PUSH1 0x40 DUP7 ADD MSTORE ISZERO ISZERO PUSH1 0x60 DUP6 ADD MSTORE PUSH1 0x80 DUP5 ADD MSTORE PUSH1 0xA0 DUP4 ADD MSTORE SUB SWAP1 RETURN JUMPDEST CALLVALUE PUSH2 0x20A JUMPI PUSH1 0x20 CALLDATASIZE PUSH1 0x3 NOT ADD SLT PUSH2 0x20A JUMPI PUSH1 0x4 CALLDATALOAD PUSH1 0x0 MSTORE PUSH1 0x4 PUSH1 0x20 MSTORE PUSH2 0x74E PUSH1 0x40 PUSH1 0x0 KECCAK256 PUSH2 0x777 PUSH1 0x1 DUP3 ADD SLOAD PUSH1 0x2 DUP4 ADD SLOAD PUSH1 0xFF PUSH1 0x3 DUP6 ADD SLOAD AND PUSH1 0x4 DUP6 ADD SLOAD PUSH1 0x1 DUP1 PUSH1 0xA0 SHL SUB PUSH1 0x5 DUP8 ADD SLOAD AND SWAP2 PUSH1 0x6 PUSH1 0x20 MSTORE PUSH2 0x739 PUSH2 0x733 PUSH1 0x40 PUSH1 0x0 KECCAK256 SWAP9 PUSH2 0x1708 JUMP JUMPDEST SWAP8 PUSH2 0x1936 JUMP JUMPDEST SWAP4 PUSH1 0x40 MLOAD SWAP9 DUP10 SWAP9 PUSH1 0xE0 DUP11 MSTORE PUSH1 0xE0 DUP11 ADD SWAP1 PUSH2 0x1544 JUMP JUMPDEST SWAP6 PUSH1 0x20 DUP10 ADD MSTORE PUSH1 0x40 DUP9 ADD MSTORE ISZERO ISZERO PUSH1 0x60 DUP8 ADD MSTORE PUSH1 0x80 DUP7 ADD MSTORE PUSH1 0xA0 DUP6 ADD MSTORE DUP4 DUP3 SUB PUSH1 0xC0 DUP6 ADD MSTORE PUSH2 0x1601 JUMP JUMPDEST SUB SWAP1 RETURN JUMPDEST CALLVALUE PUSH2 0x20A JUMPI PUSH1 0x20 CALLDATASIZE PUSH1 0x3 NOT ADD SLT PUSH2 0x20A JUMPI PUSH1 0x4 CALLDATALOAD PUSH1 0x0 SWAP1 DUP2 MSTORE PUSH1 0x5 PUSH1 0x20 MSTORE PUSH1 0x40 SWAP1 KECCAK256 DUP1 SLOAD PUSH1 0x1 DUP3 ADD SLOAD PUSH1 0x1 PUSH1 0x1 PUSH1 0xA0 SHL SUB AND SWAP2 PUSH2 0x777 SWAP1 PUSH2 0x7BE PUSH1 0x2 DUP3 ADD PUSH2 0x1708 JUMP JUMPDEST SWAP1 PUSH1 0xFF PUSH1 0x4 PUSH1 0x3 DUP4 ADD SLOAD SWAP3 ADD SLOAD AND SWAP2 PUSH1 0x40 MLOAD SWAP6 DUP7 SWAP6 DUP7 PUSH2 0x1584 JUMP JUMPDEST CALLVALUE PUSH2 0x20A JUMPI PUSH1 0x20 CALLDATASIZE PUSH1 0x3 NOT ADD SLT PUSH2 0x20A JUMPI PUSH1 0x1 PUSH1 0x1 PUSH1 0xA0 SHL SUB PUSH2 0x7FA PUSH2 0x15BD JUMP JUMPDEST AND PUSH1 0x0 MSTORE PUSH1 0x7 PUSH1 0x20 MSTORE PUSH2 0x777 PUSH2 0x813 PUSH1 0x40 PUSH1 0x0 KECCAK256 PUSH2 0x1936 JUMP JUMPDEST PUSH1 0x40 MLOAD SWAP2 DUP3 SWAP2 PUSH1 0x20 DUP4 MSTORE PUSH1 0x20 DUP4 ADD SWAP1 PUSH2 0x1601 JUMP JUMPDEST PUSH2 0x830 CALLDATASIZE PUSH2 0x1678 JUMP JUMPDEST SWAP1 SWAP2 PUSH2 0x83A PUSH2 0x1888 JUMP JUMPDEST PUSH2 0x842 PUSH2 0x18E3 JUMP JUMPDEST DUP1 PUSH1 0x0 MSTORE PUSH1 0x4 PUSH1 0x20 MSTORE PUSH1 0x40 PUSH1 0x0 KECCAK256 PUSH1 0x1 DUP2 ADD SLOAD DUP1 ISZERO PUSH2 0x4CD JUMPI PUSH1 0xFF PUSH1 0x3 DUP4 ADD SLOAD AND PUSH2 0x4BB JUMPI DUP1 TIMESTAMP LT ISZERO PUSH2 0xBA9 JUMPI PUSH2 0xE0F NOT DUP2 ADD SWAP1 DUP2 GT PUSH2 0xB93 JUMPI TIMESTAMP LT ISZERO PUSH2 0xB81 JUMPI PUSH7 0x38D7EA4C68000 CALLVALUE LT PUSH2 0xB6F JUMPI DUP3 ISZERO PUSH2 0xB5D JUMPI PUSH2 0x118 DUP4 GT PUSH2 0xB4B JUMPI PUSH1 0x3 SLOAD SWAP3 PUSH2 0x8AD DUP5 PUSH2 0x184B JUMP JUMPDEST PUSH1 0x3 SSTORE PUSH1 0x40 MLOAD PUSH8 0xFFFFFFFFFFFFFFFF SWAP3 SWAP1 PUSH1 0xA0 DUP2 ADD DUP5 DUP2 GT DUP3 DUP3 LT OR PUSH2 0xB35 JUMPI PUSH1 0x40 MSTORE DUP5 DUP2 MSTORE PUSH1 0x20 DUP2 ADD SWAP4 CALLER DUP6 MSTORE PUSH2 0x8E6 CALLDATASIZE DUP6 DUP11 PUSH2 0x17CA JUMP JUMPDEST PUSH1 0x40 DUP4 DUP2 ADD SWAP2 DUP3 MSTORE CALLVALUE PUSH1 0x60 DUP6 ADD MSTORE PUSH1 0x0 PUSH1 0x80 DUP6 ADD DUP2 SWAP1 MSTORE DUP10 DUP2 MSTORE PUSH1 0x5 PUSH1 0x20 MSTORE KECCAK256 DUP4 MLOAD DUP2 SSTORE SWAP6 MLOAD PUSH1 0x1 DUP8 ADD DUP1 SLOAD PUSH1 0x1 PUSH1 0x1 PUSH1 0xA0 SHL SUB NOT AND PUSH1 0x1 PUSH1 0x1 PUSH1 0xA0 SHL SUB SWAP3 SWAP1 SWAP3 AND SWAP2 SWAP1 SWAP2 OR SWAP1 SSTORE MLOAD DUP1 MLOAD SWAP2 DUP3 GT PUSH2 0xB35 JUMPI PUSH2 0x945 PUSH1 0x2 DUP8 ADD SLOAD PUSH2 0x16AC JUMP JUMPDEST PUSH1 0x1F DUP2 GT PUSH2 0xAEE JUMPI JUMPDEST POP SWAP2 PUSH1 0x20 SWAP9 SWAP4 SWAP2 DUP9 SWAP6 SWAP4 DUP11 SWAP1 PUSH1 0x1F DUP4 GT PUSH1 0x1 EQ PUSH2 0xA4D JUMPI PUSH1 0x80 PUSH1 0x2 SWAP6 SWAP5 DUP5 PUSH2 0x9D7 SWAP6 PUSH32 0x632E6796076D99679374246080B34FB778057438519193395C8831D81A5F7927 SWAP12 SWAP13 SWAP6 PUSH1 0x4 SWAP6 PUSH1 0x0 SWAP3 PUSH2 0xA42 JUMPI JUMPDEST POP POP DUP2 PUSH1 0x1 SHL SWAP2 PUSH1 0x0 NOT SWAP1 PUSH1 0x3 SHL SHR NOT AND OR DUP8 DUP6 ADD SSTORE JUMPDEST PUSH1 0x60 DUP2 ADD MLOAD PUSH1 0x3 DUP6 ADD SSTORE ADD MLOAD ISZERO ISZERO SWAP2 ADD SWAP1 PUSH1 0xFF DUP1 NOT DUP4 SLOAD AND SWAP2 ISZERO ISZERO AND OR SWAP1 SSTORE JUMP JUMPDEST DUP7 PUSH1 0x0 MSTORE PUSH1 0x6 DUP10 MSTORE PUSH2 0x9ED DUP7 PUSH1 0x40 PUSH1 0x0 KECCAK256 PUSH2 0x18A9 JUMP JUMPDEST CALLER PUSH1 0x0 MSTORE PUSH1 0x7 DUP10 MSTORE PUSH2 0xA03 DUP7 PUSH1 0x40 PUSH1 0x0 KECCAK256 PUSH2 0x18A9 JUMP JUMPDEST ADD PUSH2 0xA0F CALLVALUE DUP3 SLOAD PUSH2 0x185A JUMP JUMPDEST SWAP1 SSTORE PUSH2 0xA2D PUSH1 0x40 MLOAD SWAP3 DUP4 SWAP3 CALLER DUP5 MSTORE PUSH1 0x60 DUP11 DUP6 ADD MSTORE PUSH1 0x60 DUP5 ADD SWAP2 PUSH2 0x1867 JUMP JUMPDEST CALLVALUE PUSH1 0x40 DUP4 ADD MSTORE SUB SWAP1 LOG3 PUSH1 0x1 DUP1 SSTORE PUSH1 0x40 MLOAD SWAP1 DUP2 MSTORE RETURN JUMPDEST ADD MLOAD SWAP1 POP CODESIZE DUP1 PUSH2 0x99F JUMP JUMPDEST SWAP8 SWAP3 SWAP2 SWAP1 PUSH1 0x2 DUP5 ADD PUSH1 0x0 MSTORE DUP12 PUSH1 0x0 KECCAK256 SWAP9 PUSH1 0x0 JUMPDEST PUSH1 0x1F NOT DUP5 AND DUP2 LT PUSH2 0xAD4 JUMPI POP PUSH2 0x9D7 SWAP4 PUSH1 0x1 DUP5 PUSH32 0x632E6796076D99679374246080B34FB778057438519193395C8831D81A5F7927 SWAP12 SWAP13 PUSH1 0x4 SWAP6 PUSH1 0x80 SWAP6 PUSH1 0x2 SWAP12 SWAP11 SWAP9 PUSH1 0x1F NOT DUP2 AND LT PUSH2 0xABB JUMPI JUMPDEST POP POP POP DUP2 SHL ADD DUP8 DUP6 ADD SSTORE PUSH2 0x9B6 JUMP JUMPDEST ADD MLOAD PUSH1 0x0 NOT PUSH1 0xF8 DUP5 PUSH1 0x3 SHL AND SHR NOT AND SWAP1 SSTORE CODESIZE DUP1 DUP1 PUSH2 0xAAC JUMP JUMPDEST DUP3 DUP3 ADD MLOAD DUP12 SSTORE PUSH1 0x1 SWAP1 SWAP11 ADD SWAP10 DUP13 SWAP10 POP SWAP2 DUP14 ADD SWAP2 DUP14 ADD PUSH2 0xA60 JUMP JUMPDEST PUSH1 0x2 DUP8 ADD PUSH1 0x0 MSTORE PUSH1 0x20 PUSH1 0x0 KECCAK256 PUSH1 0x1F DUP5 ADD PUSH1 0x5 SHR DUP2 ADD PUSH1 0x20 DUP6 LT PUSH2 0xB2E JUMPI JUMPDEST PUSH1 0x1F DUP4 ADD PUSH1 0x5 SHR DUP3 ADD DUP2 LT PUSH2 0xB22 JUMPI POP POP PUSH2 0x94E JUMP JUMPDEST PUSH1 0x0 DUP2 SSTORE PUSH1 0x1 ADD PUSH2 0xB0C JUMP JUMPDEST POP DUP1 PUSH2 0xB0C JUMP JUMPDEST PUSH4 0x4E487B71 PUSH1 0xE0 SHL PUSH1 0x0 MSTORE PUSH1 0x41 PUSH1 0x4 MSTORE PUSH1 0x24 PUSH1 0x0 REVERT JUMPDEST PUSH1 0x40 MLOAD PUSH4 0x37FEE28B PUSH1 0xE1 SHL DUP2 MSTORE PUSH1 0x4 SWAP1 REVERT JUMPDEST PUSH1 0x40 MLOAD PUSH4 0x4513EEFD PUSH1 0xE1 SHL DUP2 MSTORE PUSH1 0x4 SWAP1 REVERT JUMPDEST PUSH1 0x40 MLOAD PUSH4 0x47D83455 PUSH1 0xE1 SHL DUP2 MSTORE PUSH1 0x4 SWAP1 REVERT JUMPDEST PUSH1 0x40 MLOAD PUSH4 0xA967F17 PUSH1 0xE1 SHL DUP2 MSTORE PUSH1 0x4 SWAP1 REVERT JUMPDEST PUSH4 0x4E487B71 PUSH1 0xE0 SHL PUSH1 0x0 MSTORE PUSH1 0x11 PUSH1 0x4 MSTORE PUSH1 0x24 PUSH1 0x0 REVERT JUMPDEST PUSH1 0x40 MLOAD PUSH4 0x262B7531 PUSH1 0xE2 SHL DUP2 MSTORE PUSH1 0x4 SWAP1 REVERT JUMPDEST CALLVALUE PUSH2 0x20A JUMPI PUSH1 0x40 CALLDATASIZE PUSH1 0x3 NOT ADD SLT PUSH2 0x20A JUMPI PUSH2 0xBD4 PUSH2 0x15BD JUMP JUMPDEST PUSH1 0x1 PUSH1 0x1 PUSH1 0xA0 SHL SUB AND PUSH1 0x0 SWAP1 DUP2 MSTORE PUSH1 0x7 PUSH1 0x20 MSTORE PUSH1 0x40 SWAP1 KECCAK256 DUP1 SLOAD PUSH1 0x24 CALLDATALOAD SWAP2 SWAP1 DUP3 LT ISZERO PUSH2 0x20A JUMPI PUSH1 0x20 SWAP2 PUSH2 0x2A9 SWAP2 PUSH2 0x1660 JUMP JUMPDEST CALLVALUE PUSH2 0x20A JUMPI PUSH1 0x20 CALLDATASIZE PUSH1 0x3 NOT ADD SLT PUSH2 0x20A JUMPI PUSH1 0x4 CALLDATALOAD PUSH1 0x0 MSTORE PUSH1 0x6 PUSH1 0x20 MSTORE PUSH2 0x777 PUSH2 0x813 PUSH1 0x40 PUSH1 0x0 KECCAK256 PUSH2 0x1936 JUMP JUMPDEST CALLVALUE PUSH2 0x20A JUMPI PUSH1 0x0 CALLDATASIZE PUSH1 0x3 NOT ADD SLT PUSH2 0x20A JUMPI PUSH1 0x0 SLOAD PUSH1 0x40 MLOAD PUSH1 0x1 PUSH1 0x1 PUSH1 0xA0 SHL SUB SWAP1 SWAP2 AND DUP2 MSTORE PUSH1 0x20 SWAP1 RETURN JUMPDEST CALLVALUE PUSH2 0x20A JUMPI PUSH1 0x20 CALLDATASIZE PUSH1 0x3 NOT ADD SLT PUSH2 0x20A JUMPI PUSH1 0x4 CALLDATALOAD PUSH2 0xC76 PUSH2 0x18E3 JUMP JUMPDEST DUP1 PUSH1 0x0 MSTORE PUSH1 0x5 PUSH1 0x20 MSTORE PUSH1 0x40 PUSH1 0x0 KECCAK256 SWAP1 DUP2 SLOAD PUSH1 0x0 MSTORE PUSH1 0x4 PUSH1 0x20 MSTORE PUSH1 0x40 PUSH1 0x0 KECCAK256 SWAP2 PUSH1 0x1 DUP2 ADD SWAP3 PUSH1 0x1 DUP1 PUSH1 0xA0 SHL SUB SWAP2 DUP3 DUP6 SLOAD AND ISZERO PUSH2 0xD83 JUMPI PUSH1 0xFF PUSH1 0x3 DUP4 ADD SLOAD AND ISZERO PUSH2 0x4A9 JUMPI DUP4 PUSH1 0x4 DUP4 ADD SLOAD SUB PUSH2 0xD71 JUMPI PUSH1 0x4 ADD SWAP1 DUP2 SLOAD SWAP2 PUSH1 0xFF DUP4 AND PUSH2 0x611 JUMPI PUSH1 0x1 PUSH1 0x2 SWAP4 PUSH1 0xFF NOT AND OR SWAP1 SSTORE ADD SLOAD SWAP3 PUSH2 0x2BC DUP1 DUP6 MUL SWAP1 DUP6 DUP3 DIV EQ DUP6 ISZERO OR ISZERO PUSH2 0xB93 JUMPI PUSH2 0x2710 SWAP1 DIV DUP1 DUP6 SUB SWAP5 DUP6 GT PUSH2 0xB93 JUMPI DUP3 PUSH1 0x9 SLOAD AND PUSH1 0x0 MSTORE PUSH1 0x8 PUSH1 0x20 MSTORE PUSH2 0xD20 PUSH1 0x40 PUSH1 0x0 KECCAK256 SWAP2 DUP3 SLOAD PUSH2 0x185A JUMP JUMPDEST SWAP1 SSTORE PUSH1 0x0 DUP1 DUP1 DUP1 DUP8 DUP7 DUP7 SLOAD AND GAS CALL PUSH2 0xD36 PUSH2 0x1906 JUMP JUMPDEST POP ISZERO PUSH2 0x5FF JUMPI PUSH32 0xE97CEE5A4C0549D3FDC81E322B718DDF0AEB3418EC87DCE4F9A7FB28D117C312 SWAP2 PUSH1 0x20 SWAP2 SLOAD AND SWAP4 PUSH1 0x40 MLOAD SWAP1 DUP2 MSTORE LOG3 PUSH1 0x1 DUP1 SSTORE STOP JUMPDEST PUSH1 0x40 MLOAD PUSH4 0x488C5ACF PUSH1 0xE0 SHL DUP2 MSTORE PUSH1 0x4 SWAP1 REVERT JUMPDEST PUSH1 0x40 MLOAD PUSH4 0x48F6FFFD PUSH1 0xE1 SHL DUP2 MSTORE PUSH1 0x4 SWAP1 REVERT JUMPDEST CALLVALUE PUSH2 0x20A JUMPI PUSH1 0x40 CALLDATASIZE PUSH1 0x3 NOT ADD SLT PUSH2 0x20A JUMPI PUSH8 0xFFFFFFFFFFFFFFFF PUSH1 0x4 CALLDATALOAD DUP2 DUP2 GT PUSH2 0x20A JUMPI PUSH2 0xDC7 SWAP1 CALLDATASIZE SWAP1 PUSH1 0x4 ADD PUSH2 0x15D3 JUMP JUMPDEST SWAP1 SWAP2 PUSH2 0xDD1 PUSH2 0x1888 JUMP JUMPDEST PUSH2 0xE10 PUSH1 0x24 CALLDATALOAD LT DUP1 ISZERO PUSH2 0x105C JUMPI JUMPDEST PUSH2 0x104A JUMPI PUSH1 0x2 SLOAD SWAP2 PUSH2 0xDF0 DUP4 PUSH2 0x184B JUMP JUMPDEST PUSH1 0x2 SSTORE PUSH2 0xDFF PUSH1 0x24 CALLDATALOAD TIMESTAMP PUSH2 0x185A JUMP JUMPDEST PUSH1 0x40 MLOAD SWAP1 PUSH1 0xC0 DUP3 ADD DUP3 DUP2 LT DUP6 DUP3 GT OR PUSH2 0xB35 JUMPI PUSH1 0x40 MSTORE PUSH2 0xE20 CALLDATASIZE DUP5 DUP9 PUSH2 0x17CA JUMP JUMPDEST DUP3 MSTORE PUSH1 0x20 DUP3 ADD MSTORE PUSH1 0x0 PUSH1 0x40 DUP3 ADD MSTORE PUSH1 0x0 PUSH1 0x60 DUP3 ADD MSTORE PUSH1 0x0 PUSH1 0x80 DUP3 ADD MSTORE CALLER PUSH1 0xA0 DUP3 ADD MSTORE DUP4 PUSH1 0x0 MSTORE PUSH1 0x4 PUSH1 0x20 MSTORE PUSH1 0x40 PUSH1 0x0 KECCAK256 SWAP3 DUP2 MLOAD DUP1 MLOAD SWAP2 DUP3 GT PUSH2 0xB35 JUMPI PUSH2 0xE66 DUP6 SLOAD PUSH2 0x16AC JUMP JUMPDEST PUSH1 0x1F DUP2 GT PUSH2 0x1002 JUMPI JUMPDEST POP SWAP2 DUP6 SWAP4 SWAP2 PUSH1 0x20 SWAP8 SWAP4 DUP9 SWAP1 PUSH1 0x1F DUP4 GT PUSH1 0x1 EQ PUSH2 0xF6F JUMPI SWAP2 DUP1 PUSH32 0x57D0D124B72F81ED1DA0DC728FC33DB342705974792928796F6577B8DB5C3D53 SWAP8 SWAP9 SWAP3 PUSH1 0x5 SWAP5 PUSH1 0x0 SWAP3 PUSH2 0xF64 JUMPI JUMPDEST POP POP DUP2 PUSH1 0x1 SHL SWAP2 PUSH1 0x0 NOT SWAP1 PUSH1 0x3 SHL SHR NOT AND OR DUP2 SSTORE JUMPDEST DUP9 DUP4 ADD MLOAD PUSH1 0x1 DUP3 ADD SSTORE PUSH1 0x40 DUP4 ADD MLOAD PUSH1 0x2 DUP3 ADD SSTORE PUSH2 0xEFD PUSH1 0x60 DUP5 ADD MLOAD ISZERO ISZERO PUSH1 0x3 DUP4 ADD SWAP1 PUSH1 0xFF DUP1 NOT DUP4 SLOAD AND SWAP2 ISZERO ISZERO AND OR SWAP1 SSTORE JUMP JUMPDEST PUSH1 0x80 DUP4 ADD MLOAD PUSH1 0x4 DUP3 ADD SSTORE ADD SWAP1 PUSH1 0xA0 PUSH1 0x1 DUP1 DUP3 SHL SUB SWAP2 ADD MLOAD AND PUSH12 0xFFFFFFFFFFFFFFFFFFFFFFFF PUSH1 0xA0 SHL DUP3 SLOAD AND OR SWAP1 SSTORE PUSH2 0xF37 PUSH1 0x24 CALLDATALOAD TIMESTAMP PUSH2 0x185A JUMP JUMPDEST PUSH2 0xF4E PUSH1 0x40 MLOAD SWAP4 DUP5 SWAP4 PUSH1 0x60 DUP6 MSTORE PUSH1 0x60 DUP6 ADD SWAP2 PUSH2 0x1867 JUMP JUMPDEST SWAP1 DUP8 DUP4 ADD MSTORE CALLER PUSH1 0x40 DUP4 ADD MSTORE SUB SWAP1 LOG2 PUSH1 0x40 MLOAD SWAP1 DUP2 MSTORE RETURN JUMPDEST ADD MLOAD SWAP1 POP DUP12 DUP1 PUSH2 0xEB6 JUMP JUMPDEST DUP8 PUSH1 0x0 SWAP9 SWAP4 SWAP3 SWAP9 MSTORE DUP10 PUSH1 0x0 KECCAK256 SWAP1 PUSH1 0x0 JUMPDEST PUSH1 0x1F NOT DUP5 AND DUP2 LT PUSH2 0xFE8 JUMPI POP SWAP2 PUSH1 0x1 SWAP2 PUSH32 0x57D0D124B72F81ED1DA0DC728FC33DB342705974792928796F6577B8DB5C3D53 SWAP9 SWAP10 PUSH1 0x5 SWAP6 SWAP5 DUP4 PUSH1 0x1F NOT DUP2 AND LT PUSH2 0xFCF JUMPI JUMPDEST POP POP POP DUP2 SHL ADD DUP2 SSTORE PUSH2 0xECB JUMP JUMPDEST ADD MLOAD PUSH1 0x0 NOT PUSH1 0xF8 DUP5 PUSH1 0x3 SHL AND SHR NOT AND SWAP1 SSTORE DUP12 DUP1 DUP1 PUSH2 0xFC2 JUMP JUMPDEST DUP2 DUP11 ADD MLOAD DUP4 SSTORE SWAP9 DUP12 ADD SWAP9 DUP11 SWAP9 POP PUSH1 0x1 SWAP1 SWAP3 ADD SWAP2 DUP12 ADD PUSH2 0xF7F JUMP JUMPDEST DUP6 PUSH1 0x0 MSTORE PUSH1 0x20 PUSH1 0x0 KECCAK256 PUSH1 0x1F DUP5 ADD PUSH1 0x5 SHR DUP2 ADD SWAP2 PUSH1 0x20 DUP6 LT PUSH2 0x1040 JUMPI JUMPDEST PUSH1 0x1F ADD PUSH1 0x5 SHR ADD SWAP1 JUMPDEST DUP2 DUP2 LT PUSH2 0x1034 JUMPI POP PUSH2 0xE6F JUMP JUMPDEST PUSH1 0x0 DUP2 SSTORE PUSH1 0x1 ADD PUSH2 0x1027 JUMP JUMPDEST SWAP1 SWAP2 POP DUP2 SWAP1 PUSH2 0x101E JUMP JUMPDEST PUSH1 0x40 MLOAD PUSH4 0x76166401 PUSH1 0xE0 SHL DUP2 MSTORE PUSH1 0x4 SWAP1 REVERT JUMPDEST POP PUSH3 0x278D00 PUSH1 0x24 CALLDATALOAD GT PUSH2 0xDDF JUMP JUMPDEST CALLVALUE PUSH2 0x20A JUMPI PUSH1 0x0 CALLDATASIZE PUSH1 0x3 NOT ADD SLT PUSH2 0x20A JUMPI PUSH2 0x1083 PUSH2 0x181F JUMP JUMPDEST PUSH2 0x108B PUSH2 0x1888 JUMP JUMPDEST PUSH1 0x0 DUP1 SLOAD PUSH1 0xFF PUSH1 0xA0 SHL NOT AND PUSH1 0x1 PUSH1 0xA0 SHL OR SWAP1 SSTORE PUSH1 0x40 MLOAD CALLER DUP2 MSTORE PUSH32 0x62E78CEA01BEE320CD4E420270B5EA74000D11B0C9F74754EBDBFC544B05A258 SWAP1 PUSH1 0x20 SWAP1 LOG1 STOP JUMPDEST CALLVALUE PUSH2 0x20A JUMPI PUSH1 0x0 CALLDATASIZE PUSH1 0x3 NOT ADD SLT PUSH2 0x20A JUMPI PUSH2 0x10E5 PUSH2 0x181F JUMP JUMPDEST PUSH1 0x0 DUP1 SLOAD PUSH1 0x1 PUSH1 0x1 PUSH1 0xA0 SHL SUB NOT DUP2 AND DUP3 SSTORE PUSH1 0x1 PUSH1 0x1 PUSH1 0xA0 SHL SUB AND PUSH32 0x8BE0079C531659141344CD1FD0A4F28419497F9722A3DAAFE3B4186F6B6457E0 DUP3 DUP1 LOG3 STOP JUMPDEST CALLVALUE PUSH2 0x20A JUMPI PUSH1 0x0 CALLDATASIZE PUSH1 0x3 NOT ADD SLT PUSH2 0x20A JUMPI PUSH1 0x20 PUSH1 0x3 SLOAD PUSH1 0x40 MLOAD SWAP1 DUP2 MSTORE RETURN JUMPDEST CALLVALUE PUSH2 0x20A JUMPI PUSH1 0x0 CALLDATASIZE PUSH1 0x3 NOT ADD SLT PUSH2 0x20A JUMPI PUSH1 0x20 PUSH1 0x40 MLOAD PUSH7 0x38D7EA4C68000 DUP2 MSTORE RETURN JUMPDEST CALLVALUE PUSH2 0x20A JUMPI PUSH1 0x0 CALLDATASIZE PUSH1 0x3 NOT ADD SLT PUSH2 0x20A JUMPI PUSH1 0x20 PUSH1 0xFF PUSH1 0x0 SLOAD PUSH1 0xA0 SHR AND PUSH1 0x40 MLOAD SWAP1 ISZERO ISZERO DUP2 MSTORE RETURN JUMPDEST CALLVALUE PUSH2 0x20A JUMPI PUSH1 0x0 CALLDATASIZE PUSH1 0x3 NOT ADD SLT PUSH2 0x20A JUMPI PUSH1 0x20 PUSH1 0x40 MLOAD PUSH2 0x2BC DUP2 MSTORE RETURN JUMPDEST CALLVALUE PUSH2 0x20A JUMPI PUSH1 0x20 CALLDATASIZE PUSH1 0x3 NOT ADD SLT PUSH2 0x20A JUMPI PUSH2 0x11C1 PUSH2 0x181F JUMP JUMPDEST PUSH2 0x11C9 PUSH2 0x18E3 JUMP JUMPDEST PUSH1 0x4 CALLDATALOAD PUSH1 0x0 MSTORE PUSH1 0x4 PUSH1 0x20 MSTORE PUSH1 0x40 PUSH1 0x0 KECCAK256 PUSH1 0x1 DUP2 ADD SLOAD SWAP1 DUP2 ISZERO PUSH2 0x4CD JUMPI PUSH1 0x3 ADD SWAP1 DUP2 SLOAD SWAP1 PUSH1 0xFF DUP3 AND PUSH2 0x4BB JUMPI PUSH3 0x93A80 DUP2 ADD DUP1 SWAP2 GT PUSH2 0xB93 JUMPI TIMESTAMP LT PUSH2 0x4A9 JUMPI PUSH1 0x1 SWAP1 PUSH1 0xFF NOT AND OR SWAP1 SSTORE PUSH1 0x4 CALLDATALOAD PUSH1 0x0 MSTORE PUSH1 0x6 PUSH1 0x20 MSTORE PUSH1 0x40 PUSH1 0x0 KECCAK256 PUSH1 0x0 JUMPDEST DUP2 SLOAD DUP2 LT ISZERO PUSH2 0x1321 JUMPI DUP1 PUSH2 0x123B PUSH2 0x126D SWAP3 DUP5 PUSH2 0x1660 JUMP JUMPDEST SWAP1 SLOAD SWAP1 PUSH1 0x3 SHL SHR PUSH1 0x0 MSTORE PUSH1 0x5 PUSH1 0x20 MSTORE PUSH1 0x40 PUSH1 0x0 KECCAK256 PUSH1 0x4 DUP2 ADD DUP1 SLOAD PUSH1 0xFF DUP2 AND ISZERO DUP1 PUSH2 0x1314 JUMPI JUMPDEST PUSH2 0x1272 JUMPI JUMPDEST POP POP POP PUSH2 0x184B JUMP JUMPDEST PUSH2 0x1224 JUMP JUMPDEST PUSH1 0x1 SWAP1 PUSH1 0xFF NOT AND OR SWAP1 SSTORE PUSH1 0x1 DUP2 ADD SWAP1 PUSH1 0x1 DUP1 PUSH1 0xA0 SHL SUB PUSH1 0x0 DUP1 DUP1 DUP1 PUSH1 0x3 DUP6 DUP9 SLOAD AND SWAP7 ADD SWAP6 DUP7 SLOAD SWAP1 GAS CALL PUSH2 0x12A3 PUSH2 0x1906 JUMP JUMPDEST POP ISZERO PUSH2 0x1265 JUMPI PUSH2 0x1309 PUSH32 0xD493B5F0E54565B32B3AF9321FB4BF458A0F94E9BF3853A09AFCBC5DD8A11F78 SWAP2 PUSH2 0x12D8 DUP7 DUP10 PUSH2 0x1660 JUMP JUMPDEST SWAP1 SLOAD SWAP1 PUSH1 0x3 SHL SHR SWAP5 SLOAD AND SWAP3 SLOAD PUSH1 0x40 MLOAD SWAP2 DUP3 SWAP2 PUSH1 0x4 CALLDATALOAD SWAP6 DUP4 PUSH1 0x20 SWAP1 SWAP4 SWAP3 SWAP2 SWAP4 PUSH1 0x40 DUP2 ADD SWAP5 PUSH1 0x1 DUP1 PUSH1 0xA0 SHL SUB AND DUP2 MSTORE ADD MSTORE JUMP JUMPDEST SUB SWAP1 LOG3 DUP4 DUP1 DUP1 PUSH2 0x1265 JUMP JUMPDEST POP PUSH1 0x3 DUP4 ADD SLOAD ISZERO ISZERO PUSH2 0x1260 JUMP JUMPDEST PUSH1 0x1 DUP1 SSTORE STOP JUMPDEST CALLVALUE PUSH2 0x20A JUMPI PUSH1 0x0 CALLDATASIZE PUSH1 0x3 NOT ADD SLT PUSH2 0x20A JUMPI PUSH1 0x20 PUSH1 0x40 MLOAD PUSH2 0xE10 DUP2 MSTORE RETURN JUMPDEST CALLVALUE PUSH2 0x20A JUMPI PUSH1 0x0 CALLDATASIZE PUSH1 0x3 NOT ADD SLT PUSH2 0x20A JUMPI PUSH2 0x135D PUSH2 0x18E3 JUMP JUMPDEST CALLER PUSH1 0x0 MSTORE PUSH1 0x8 PUSH1 0x20 MSTORE PUSH1 0x40 PUSH1 0x0 KECCAK256 SLOAD DUP1 ISZERO PUSH2 0x13CB JUMPI CALLER PUSH1 0x0 MSTORE PUSH1 0x8 PUSH1 0x20 MSTORE PUSH1 0x0 PUSH1 0x40 DUP2 KECCAK256 SSTORE PUSH1 0x0 DUP1 DUP1 DUP1 DUP5 CALLER GAS CALL PUSH2 0x1393 PUSH2 0x1906 JUMP JUMPDEST POP ISZERO PUSH2 0x5FF JUMPI PUSH1 0x40 MLOAD SWAP1 DUP2 MSTORE PUSH32 0xC0819C13BE868895EB93E40EACEB96DE976442FA1D404E5C55F14BB65A8C489A PUSH1 0x20 CALLER SWAP3 LOG2 PUSH1 0x1 DUP1 SSTORE STOP JUMPDEST PUSH1 0x40 MLOAD PUSH4 0xD00DB4D PUSH1 0xE3 SHL DUP2 MSTORE PUSH1 0x4 SWAP1 REVERT JUMPDEST CALLVALUE PUSH2 0x20A JUMPI PUSH1 0x0 CALLDATASIZE PUSH1 0x3 NOT ADD SLT PUSH2 0x20A JUMPI PUSH1 0x9 SLOAD PUSH1 0x40 MLOAD PUSH1 0x1 PUSH1 0x1 PUSH1 0xA0 SHL SUB SWAP1 SWAP2 AND DUP2 MSTORE PUSH1 0x20 SWAP1 RETURN JUMPDEST CALLVALUE PUSH2 0x20A JUMPI PUSH1 0x0 CALLDATASIZE PUSH1 0x3 NOT ADD SLT PUSH2 0x20A JUMPI PUSH1 0x20 PUSH1 0x40 MLOAD PUSH2 0x118 DUP2 MSTORE RETURN JUMPDEST CALLVALUE PUSH2 0x20A JUMPI PUSH1 0x0 CALLDATASIZE PUSH1 0x3 NOT ADD SLT PUSH2 0x20A JUMPI PUSH2 0x143C PUSH2 0x181F JUMP JUMPDEST PUSH1 0x0 SLOAD PUSH1 0xFF DUP2 PUSH1 0xA0 SHR AND ISZERO PUSH2 0x1483 JUMPI PUSH1 0xFF PUSH1 0xA0 SHL NOT AND PUSH1 0x0 SSTORE PUSH1 0x40 MLOAD CALLER DUP2 MSTORE PUSH32 0x5DB9EE0A495BF2E6FF9C91A7834C1BA4FDD244A5E8AA4E537BD38AEAE4B073AA SWAP1 PUSH1 0x20 SWAP1 LOG1 STOP JUMPDEST PUSH1 0x40 MLOAD PUSH4 0x8DFC202B PUSH1 0xE0 SHL DUP2 MSTORE PUSH1 0x4 SWAP1 REVERT JUMPDEST CALLVALUE PUSH2 0x20A JUMPI PUSH1 0x0 CALLDATASIZE PUSH1 0x3 NOT ADD SLT PUSH2 0x20A JUMPI PUSH1 0x20 PUSH1 0x40 MLOAD PUSH1 0x2 DUP2 MSTORE RETURN JUMPDEST CALLVALUE PUSH2 0x20A JUMPI PUSH1 0x20 CALLDATASIZE PUSH1 0x3 NOT ADD SLT PUSH2 0x20A JUMPI PUSH1 0x1 PUSH1 0x1 PUSH1 0xA0 SHL SUB PUSH2 0x14D2 PUSH2 0x15BD JUMP JUMPDEST AND PUSH1 0x0 MSTORE PUSH1 0x8 PUSH1 0x20 MSTORE PUSH1 0x20 PUSH1 0x40 PUSH1 0x0 KECCAK256 SLOAD PUSH1 0x40 MLOAD SWAP1 DUP2 MSTORE RETURN JUMPDEST CALLVALUE PUSH2 0x20A JUMPI PUSH1 0x20 CALLDATASIZE PUSH1 0x3 NOT ADD SLT PUSH2 0x20A JUMPI PUSH1 0x4 CALLDATALOAD PUSH1 0x0 MSTORE PUSH1 0x5 PUSH1 0x20 MSTORE PUSH1 0x40 PUSH1 0x0 KECCAK256 DUP1 SLOAD PUSH2 0x777 PUSH1 0x1 DUP1 PUSH1 0xA0 SHL SUB PUSH1 0x1 DUP5 ADD SLOAD AND SWAP3 PUSH1 0x3 DUP2 ADD SLOAD PUSH2 0x1538 PUSH1 0x2 PUSH1 0xFF PUSH1 0x4 DUP6 ADD SLOAD AND SWAP4 ADD PUSH2 0x1708 JUMP JUMPDEST PUSH1 0x40 MLOAD SWAP6 DUP7 SWAP6 DUP7 PUSH2 0x1584 JUMP JUMPDEST SWAP2 SWAP1 DUP3 MLOAD SWAP3 DUP4 DUP3 MSTORE PUSH1 0x0 JUMPDEST DUP5 DUP2 LT PUSH2 0x1570 JUMPI POP POP DUP3 PUSH1 0x0 PUSH1 0x20 DUP1 SWAP5 SWAP6 DUP5 ADD ADD MSTORE PUSH1 0x1F DUP1 NOT SWAP2 ADD AND ADD ADD SWAP1 JUMP JUMPDEST PUSH1 0x20 DUP2 DUP4 ADD DUP2 ADD MLOAD DUP5 DUP4 ADD DUP3 ADD MSTORE ADD PUSH2 0x154F JUMP JUMPDEST SWAP4 SWAP6 SWAP5 SWAP2 SWAP3 PUSH1 0x80 SWAP4 PUSH2 0x15B0 SWAP3 DUP7 MSTORE PUSH1 0x1 DUP1 PUSH1 0xA0 SHL SUB AND PUSH1 0x20 DUP7 ADD MSTORE PUSH1 0xA0 PUSH1 0x40 DUP7 ADD MSTORE PUSH1 0xA0 DUP6 ADD SWAP1 PUSH2 0x1544 JUMP JUMPDEST SWAP5 PUSH1 0x60 DUP5 ADD MSTORE ISZERO ISZERO SWAP2 ADD MSTORE JUMP JUMPDEST PUSH1 0x4 CALLDATALOAD SWAP1 PUSH1 0x1 PUSH1 0x1 PUSH1 0xA0 SHL SUB DUP3 AND DUP3 SUB PUSH2 0x20A JUMPI JUMP JUMPDEST SWAP2 DUP2 PUSH1 0x1F DUP5 ADD SLT ISZERO PUSH2 0x20A JUMPI DUP3 CALLDATALOAD SWAP2 PUSH8 0xFFFFFFFFFFFFFFFF DUP4 GT PUSH2 0x20A JUMPI PUSH1 0x20 DUP4 DUP2 DUP7 ADD SWAP6 ADD ADD GT PUSH2 0x20A JUMPI JUMP JUMPDEST SWAP1 DUP2 MLOAD DUP1 DUP3 MSTORE PUSH1 0x20 DUP1 DUP1 SWAP4 ADD SWAP4 ADD SWAP2 PUSH1 0x0 JUMPDEST DUP3 DUP2 LT PUSH2 0x1621 JUMPI POP POP POP POP SWAP1 JUMP JUMPDEST DUP4 MLOAD DUP6 MSTORE SWAP4 DUP2 ADD SWAP4 SWAP3 DUP2 ADD SWAP3 PUSH1 0x1 ADD PUSH2 0x1613 JUMP JUMPDEST DUP1 SLOAD ISZERO PUSH2 0x164A JUMPI PUSH1 0x0 MSTORE PUSH1 0x20 PUSH1 0x0 KECCAK256 SWAP1 PUSH1 0x0 SWAP1 JUMP JUMPDEST PUSH4 0x4E487B71 PUSH1 0xE0 SHL PUSH1 0x0 MSTORE PUSH1 0x32 PUSH1 0x4 MSTORE PUSH1 0x24 PUSH1 0x0 REVERT JUMPDEST DUP1 SLOAD DUP3 LT ISZERO PUSH2 0x164A JUMPI PUSH1 0x0 MSTORE PUSH1 0x20 PUSH1 0x0 KECCAK256 ADD SWAP1 PUSH1 0x0 SWAP1 JUMP JUMPDEST SWAP1 PUSH1 0x40 PUSH1 0x3 NOT DUP4 ADD SLT PUSH2 0x20A JUMPI PUSH1 0x4 CALLDATALOAD SWAP2 PUSH1 0x24 CALLDATALOAD SWAP1 PUSH8 0xFFFFFFFFFFFFFFFF DUP3 GT PUSH2 0x20A JUMPI PUSH2 0x16A8 SWAP2 PUSH1 0x4 ADD PUSH2 0x15D3 JUMP JUMPDEST SWAP1 SWAP2 JUMP JUMPDEST SWAP1 PUSH1 0x1 DUP3 DUP2 SHR SWAP3 AND DUP1 ISZERO PUSH2 0x16DC JUMPI JUMPDEST PUSH1 0x20 DUP4 LT EQ PUSH2 0x16C6 JUMPI JUMP JUMPDEST PUSH4 0x4E487B71 PUSH1 0xE0 SHL PUSH1 0x0 MSTORE PUSH1 0x22 PUSH1 0x4 MSTORE PUSH1 0x24 PUSH1 0x0 REVERT JUMPDEST SWAP2 PUSH1 0x7F AND SWAP2 PUSH2 0x16BB JUMP JUMPDEST SWAP1 PUSH1 0x1F DUP1 NOT SWAP2 ADD AND DUP2 ADD SWAP1 DUP2 LT PUSH8 0xFFFFFFFFFFFFFFFF DUP3 GT OR PUSH2 0xB35 JUMPI PUSH1 0x40 MSTORE JUMP JUMPDEST SWAP1 PUSH1 0x40 MLOAD SWAP2 DUP3 PUSH1 0x0 DUP3 SLOAD SWAP3 PUSH2 0x171C DUP5 PUSH2 0x16AC JUMP JUMPDEST SWAP1 DUP2 DUP5 MSTORE PUSH1 0x1 SWAP5 DUP6 DUP2 AND SWAP1 DUP2 PUSH1 0x0 EQ PUSH2 0x178B JUMPI POP PUSH1 0x1 EQ PUSH2 0x1748 JUMPI JUMPDEST POP POP PUSH2 0x1746 SWAP3 POP SUB DUP4 PUSH2 0x16E6 JUMP JUMPDEST JUMP JUMPDEST SWAP1 SWAP4 SWAP2 POP PUSH1 0x0 MSTORE PUSH1 0x20 SWAP1 DUP2 PUSH1 0x0 KECCAK256 SWAP4 PUSH1 0x0 SWAP2 JUMPDEST DUP2 DUP4 LT PUSH2 0x1773 JUMPI POP POP PUSH2 0x1746 SWAP4 POP DUP3 ADD ADD CODESIZE DUP1 PUSH2 0x1738 JUMP JUMPDEST DUP6 SLOAD DUP9 DUP5 ADD DUP6 ADD MSTORE SWAP5 DUP6 ADD SWAP5 DUP8 SWAP5 POP SWAP2 DUP4 ADD SWAP2 PUSH2 0x175B JUMP JUMPDEST SWAP2 POP POP PUSH2 0x1746 SWAP5 POP PUSH1 0x20 SWAP3 POP PUSH1 0xFF NOT AND DUP3 DUP5 ADD MSTORE ISZERO ISZERO PUSH1 0x5 SHL DUP3 ADD ADD CODESIZE DUP1 PUSH2 0x1738 JUMP JUMPDEST PUSH8 0xFFFFFFFFFFFFFFFF DUP2 GT PUSH2 0xB35 JUMPI PUSH1 0x1F ADD PUSH1 0x1F NOT AND PUSH1 0x20 ADD SWAP1 JUMP JUMPDEST SWAP3 SWAP2 SWAP3 PUSH2 0x17D6 DUP3 PUSH2 0x17AE JUMP JUMPDEST SWAP2 PUSH2 0x17E4 PUSH1 0x40 MLOAD SWAP4 DUP5 PUSH2 0x16E6 JUMP JUMPDEST DUP3 SWAP5 DUP2 DUP5 MSTORE DUP2 DUP4 ADD GT PUSH2 0x20A JUMPI DUP3 DUP2 PUSH1 0x20 SWAP4 DUP5 PUSH1 0x0 SWAP7 ADD CALLDATACOPY ADD ADD MSTORE JUMP JUMPDEST SWAP1 DUP1 PUSH1 0x1F DUP4 ADD SLT ISZERO PUSH2 0x20A JUMPI DUP2 PUSH1 0x20 PUSH2 0x181C SWAP4 CALLDATALOAD SWAP2 ADD PUSH2 0x17CA JUMP JUMPDEST SWAP1 JUMP JUMPDEST PUSH1 0x0 SLOAD PUSH1 0x1 PUSH1 0x1 PUSH1 0xA0 SHL SUB AND CALLER SUB PUSH2 0x1833 JUMPI JUMP JUMPDEST PUSH1 0x40 MLOAD PUSH4 0x118CDAA7 PUSH1 0xE0 SHL DUP2 MSTORE CALLER PUSH1 0x4 DUP3 ADD MSTORE PUSH1 0x24 SWAP1 REVERT JUMPDEST PUSH1 0x0 NOT DUP2 EQ PUSH2 0xB93 JUMPI PUSH1 0x1 ADD SWAP1 JUMP JUMPDEST SWAP2 SWAP1 DUP3 ADD DUP1 SWAP3 GT PUSH2 0xB93 JUMPI JUMP JUMPDEST SWAP1 DUP1 PUSH1 0x20 SWAP4 SWAP3 DUP2 DUP5 MSTORE DUP5 DUP5 ADD CALLDATACOPY PUSH1 0x0 DUP3 DUP3 ADD DUP5 ADD MSTORE PUSH1 0x1F ADD PUSH1 0x1F NOT AND ADD ADD SWAP1 JUMP JUMPDEST PUSH1 0xFF PUSH1 0x0 SLOAD PUSH1 0xA0 SHR AND PUSH2 0x1897 JUMPI JUMP JUMPDEST PUSH1 0x40 MLOAD PUSH4 0xD93C0665 PUSH1 0xE0 SHL DUP2 MSTORE PUSH1 0x4 SWAP1 REVERT JUMPDEST DUP1 SLOAD PUSH9 0x10000000000000000 DUP2 LT ISZERO PUSH2 0xB35 JUMPI PUSH2 0x18CB SWAP2 PUSH1 0x1 DUP3 ADD DUP2 SSTORE PUSH2 0x1660 JUMP JUMPDEST DUP2 SWAP3 SWAP2 SLOAD SWAP1 PUSH1 0x3 SHL SWAP2 DUP3 SHL SWAP2 PUSH1 0x0 NOT SWAP1 SHL NOT AND OR SWAP1 SSTORE JUMP JUMPDEST PUSH1 0x2 PUSH1 0x1 SLOAD EQ PUSH2 0x18F4 JUMPI PUSH1 0x2 PUSH1 0x1 SSTORE JUMP JUMPDEST PUSH1 0x40 MLOAD PUSH4 0x3EE5AEB5 PUSH1 0xE0 SHL DUP2 MSTORE PUSH1 0x4 SWAP1 REVERT JUMPDEST RETURNDATASIZE ISZERO PUSH2 0x1931 JUMPI RETURNDATASIZE SWAP1 PUSH2 0x1917 DUP3 PUSH2 0x17AE JUMP JUMPDEST SWAP2 PUSH2 0x1925 PUSH1 0x40 MLOAD SWAP4 DUP5 PUSH2 0x16E6 JUMP JUMPDEST DUP3 MSTORE RETURNDATASIZE PUSH1 0x0 PUSH1 0x20 DUP5 ADD RETURNDATACOPY JUMP JUMPDEST PUSH1 0x60 SWAP1 JUMP JUMPDEST SWAP1 PUSH1 0x40 MLOAD SWAP2 DUP3 DUP2 SLOAD SWAP2 DUP3 DUP3 MSTORE PUSH1 0x20 SWAP3 DUP4 DUP4 ADD SWAP2 PUSH1 0x0 MSTORE DUP4 PUSH1 0x0 KECCAK256 SWAP4 PUSH1 0x0 SWAP1 JUMPDEST DUP3 DUP3 LT PUSH2 0x196B JUMPI POP POP POP PUSH2 0x1746 SWAP3 POP SUB DUP4 PUSH2 0x16E6 JUMP JUMPDEST DUP6 SLOAD DUP5 MSTORE PUSH1 0x1 SWAP6 DUP7 ADD SWAP6 DUP9 SWAP6 POP SWAP4 DUP2 ADD SWAP4 SWAP1 SWAP2 ADD SWAP1 PUSH2 0x1955 JUMP JUMPDEST PUSH8 0xFFFFFFFFFFFFFFFF DUP2 GT PUSH2 0xB35 JUMPI PUSH1 0x5 SHL PUSH1 0x20 ADD SWAP1 JUMP JUMPDEST SWAP1 PUSH2 0x19A7 DUP3 PUSH2 0x1985 JUMP JUMPDEST PUSH2 0x19B4 PUSH1 0x40 MLOAD SWAP2 DUP3 PUSH2 0x16E6 JUMP JUMPDEST DUP3 DUP2 MSTORE DUP1 SWAP3 PUSH2 0x19C5 PUSH1 0x1F NOT SWAP2 PUSH2 0x1985 JUMP JUMPDEST ADD SWAP1 PUSH1 0x20 CALLDATASIZE SWAP2 ADD CALLDATACOPY JUMP JUMPDEST DUP1 MLOAD DUP3 LT ISZERO PUSH2 0x164A JUMPI PUSH1 0x20 SWAP2 PUSH1 0x5 SHL ADD ADD SWAP1 JUMP JUMPDEST SWAP1 DUP2 MLOAD DUP2 LT ISZERO PUSH2 0x164A JUMPI ADD PUSH1 0x20 ADD SWAP1 JUMP JUMPDEST SWAP2 SWAP1 DUP3 MLOAD SWAP1 DUP1 MLOAD SWAP2 DUP1 ISZERO PUSH2 0x1B55 JUMPI DUP3 ISZERO PUSH2 0x1B4F JUMPI PUSH1 0x1 SWAP5 DUP6 DUP5 ADD SWAP3 DUP4 DUP6 GT PUSH2 0xB93 JUMPI PUSH2 0x1A2B PUSH2 0x1A25 DUP6 SWAP5 SWAP4 SWAP5 PUSH2 0x199D JUMP JUMPDEST SWAP5 PUSH2 0x199D JUMP JUMPDEST SWAP3 PUSH1 0x0 JUMPDEST DUP7 DUP2 GT ISZERO PUSH2 0x1B35 JUMPI POP DUP8 SWAP4 JUMPDEST DUP4 DUP6 GT ISZERO PUSH2 0x1A57 JUMPI POP POP POP POP POP PUSH2 0x1A53 SWAP3 SWAP4 POP PUSH2 0x19CF JUMP JUMPDEST MLOAD SWAP1 JUMP JUMPDEST DUP1 SWAP6 SWAP4 SWAP5 SWAP6 MLOAD ISZERO PUSH2 0x164A JUMPI DUP6 PUSH1 0x20 DUP3 ADD MSTORE DUP9 JUMPDEST DUP8 DUP2 GT ISZERO PUSH2 0x1A84 JUMPI POP PUSH2 0x1A7D SWAP1 SWAP6 PUSH2 0x184B JUMP JUMPDEST SWAP4 SWAP3 PUSH2 0x1A3B JUMP JUMPDEST PUSH1 0x0 NOT DUP8 DUP2 ADD SWAP2 SWAP1 DUP9 DUP4 GT PUSH2 0xB93 JUMPI PUSH1 0x1 PUSH1 0x1 PUSH1 0xF8 SHL SUB NOT SWAP3 DUP4 SWAP1 PUSH2 0x1AA9 SWAP1 DUP8 PUSH2 0x19E3 JUMP JUMPDEST MLOAD AND SWAP1 DUP3 ADD SWAP3 DUP3 DUP5 GT PUSH2 0xB93 JUMPI PUSH2 0x1AC0 DUP5 DUP9 PUSH2 0x19E3 JUMP JUMPDEST MLOAD AND SUB PUSH2 0x1B2E JUMPI PUSH1 0x0 SWAP2 JUMPDEST PUSH2 0x1AD5 DUP3 DUP9 PUSH2 0x19CF JUMP JUMPDEST MLOAD DUP13 DUP2 ADD DUP1 SWAP2 GT PUSH2 0xB93 JUMPI PUSH2 0x1AEA DUP3 DUP7 PUSH2 0x19CF JUMP JUMPDEST MLOAD DUP14 DUP2 ADD DUP1 SWAP2 GT PUSH2 0xB93 JUMPI PUSH2 0x1B13 PUSH2 0x1B19 SWAP4 PUSH2 0x1B0D PUSH1 0xFF PUSH2 0x1B29 SWAP9 AND SWAP2 DUP13 PUSH2 0x19CF JUMP JUMPDEST MLOAD PUSH2 0x185A JUMP JUMPDEST SWAP2 PUSH2 0x1B5C JUMP JUMPDEST PUSH2 0x1B23 DUP3 DUP6 PUSH2 0x19CF JUMP JUMPDEST MSTORE PUSH2 0x184B JUMP JUMPDEST PUSH2 0x1A6A JUMP JUMPDEST DUP11 SWAP2 PUSH2 0x1ACB JUMP JUMPDEST DUP1 DUP1 PUSH2 0x1B23 PUSH2 0x1B47 SWAP4 DUP10 SWAP9 SWAP8 SWAP9 PUSH2 0x19CF JUMP JUMPDEST SWAP4 SWAP3 SWAP4 PUSH2 0x1A2F JUMP JUMPDEST SWAP4 POP POP POP JUMP JUMPDEST POP SWAP1 SWAP3 POP POP JUMP JUMPDEST DUP2 DUP2 GT ISZERO DUP1 PUSH2 0x1B90 JUMPI JUMPDEST PUSH2 0x1B8A JUMPI DUP2 GT ISZERO DUP1 PUSH2 0x1B80 JUMPI JUMPDEST PUSH2 0x1B7B JUMPI POP SWAP1 JUMP JUMPDEST SWAP1 POP SWAP1 JUMP JUMPDEST POP DUP2 DUP2 GT ISZERO PUSH2 0x1B73 JUMP JUMPDEST SWAP2 POP POP SWAP1 JUMP JUMPDEST POP DUP3 DUP2 GT ISZERO PUSH2 0x1B66 JUMP INVALID LOG2 PUSH5 0x6970667358 0x22 SLT KECCAK256 0x4A 0x4F 0xCD SWAP12 DUP15 RETURNDATACOPY SGT 0xAC 0xA5 0xBA 0xAD PUSH25 0x4A2306BE32E7E8F9028988051840A76662B39C2C64736F6C63 NUMBER STOP ADDMOD EQ STOP CALLER "},"methodIdentifiers":{"BETTING_CUTOFF()":"511e4198","MAX_TEXT_LENGTH()":"417763c5","MIN_BET()":"6540742f","MIN_SUBMISSIONS()":"2e91bf61","PLATFORM_FEE_BPS()":"539aa77f","claimPayout(uint256)":"8a69614e","createMarket(string,uint256)":"883c84c1","createSubmission(uint256,string)":"a5e99c4e","emergencyWithdraw(uint256)":"5312ea8e","feeRecipient()":"46904840","getMarketDetails(uint256)":"b06c1ba3","getMarketSubmissions(uint256)":"905d99fc","getSubmissionDetails(uint256)":"2405bc05","getUserSubmissions(address)":"a7b8614d","levenshteinDistance(string,string)":"c9f131b2","marketCount()":"ec979082","marketSubmissions(uint256,uint256)":"e1a3faae","markets(uint256)":"b1283e77","owner()":"8da5cb5b","pause()":"8456cb59","paused()":"5c975abb","pendingFees(address)":"25d2a3f3","refundSingleSubmission(uint256)":"bc1b1cbe","renounceOwnership()":"715018a6","resolveMarket(uint256,string)":"c75bb724","setFeeRecipient(address)":"e74b981b","submissionCount()":"6ec02be9","submissions(uint256)":"ad73349e","transferOwnership(address)":"f2fde38b","unpause()":"3f4ba83a","userSubmissions(address,uint256)":"9b7e0180","withdrawFees()":"476343ee"}}}}}