{
  "_format": "hh-sol-artifact-1",
  "contractName": "BuilderRewardPool",
  "sourceName": "contracts/src/BuilderRewardPool.sol",
  "abi": [
    {
      "inputs": [],
      "stateMutability": "nonpayable",
      "type": "constructor"
    },
    {
      "inputs": [
        {
          "internalType": "address",
          "name": "owner",
          "type": "address"
        }
      ],
      "name": "OwnableInvalidOwner",
      "type": "error"
    },
    {
      "inputs": [
        {
          "internalType": "address",
          "name": "account",
          "type": "address"
        }
      ],
      "name": "OwnableUnauthorizedAccount",
      "type": "error"
    },
    {
      "inputs": [],
      "name": "ReentrancyGuardReentrantCall",
      "type": "error"
    },
    {
      "anonymous": false,
      "inputs": [
        {
          "indexed": true,
          "internalType": "address",
          "name": "builder",
          "type": "address"
        }
      ],
      "name": "BuilderRegistered",
      "type": "event"
    },
    {
      "anonymous": false,
      "inputs": [
        {
          "indexed": true,
          "internalType": "address",
          "name": "builder",
          "type": "address"
        },
        {
          "indexed": false,
          "internalType": "uint256",
          "name": "amount",
          "type": "uint256"
        },
        {
          "indexed": false,
          "internalType": "uint256",
          "name": "weekNumber",
          "type": "uint256"
        }
      ],
      "name": "BuilderRewarded",
      "type": "event"
    },
    {
      "anonymous": false,
      "inputs": [
        {
          "indexed": true,
          "internalType": "address",
          "name": "builder",
          "type": "address"
        },
        {
          "indexed": false,
          "internalType": "uint256",
          "name": "marketsCreated",
          "type": "uint256"
        },
        {
          "indexed": false,
          "internalType": "uint256",
          "name": "volume",
          "type": "uint256"
        }
      ],
      "name": "ContributionRecorded",
      "type": "event"
    },
    {
      "anonymous": false,
      "inputs": [
        {
          "indexed": true,
          "internalType": "address",
          "name": "previousOwner",
          "type": "address"
        },
        {
          "indexed": true,
          "internalType": "address",
          "name": "newOwner",
          "type": "address"
        }
      ],
      "name": "OwnershipTransferred",
      "type": "event"
    },
    {
      "anonymous": false,
      "inputs": [
        {
          "indexed": false,
          "internalType": "uint256",
          "name": "amount",
          "type": "uint256"
        },
        {
          "indexed": false,
          "internalType": "uint256",
          "name": "weekNumber",
          "type": "uint256"
        }
      ],
      "name": "RewardPoolDeposited",
      "type": "event"
    },
    {
      "anonymous": false,
      "inputs": [
        {
          "indexed": false,
          "internalType": "uint256",
          "name": "weekNumber",
          "type": "uint256"
        },
        {
          "indexed": false,
          "internalType": "uint256",
          "name": "totalAmount",
          "type": "uint256"
        },
        {
          "indexed": false,
          "internalType": "uint256",
          "name": "buildersRewarded",
          "type": "uint256"
        }
      ],
      "name": "WeeklyDistribution",
      "type": "event"
    },
    {
      "inputs": [],
      "name": "MIN_CONTRIBUTION_THRESHOLD",
      "outputs": [
        {
          "internalType": "uint256",
          "name": "",
          "type": "uint256"
        }
      ],
      "stateMutability": "view",
      "type": "function"
    },
    {
      "inputs": [],
      "name": "TOP_BUILDERS_COUNT",
      "outputs": [
        {
          "internalType": "uint256",
          "name": "",
          "type": "uint256"
        }
      ],
      "stateMutability": "view",
      "type": "function"
    },
    {
      "inputs": [],
      "name": "WEEK_DURATION",
      "outputs": [
        {
          "internalType": "uint256",
          "name": "",
          "type": "uint256"
        }
      ],
      "stateMutability": "view",
      "type": "function"
    },
    {
      "inputs": [
        {
          "internalType": "address",
          "name": "",
          "type": "address"
        }
      ],
      "name": "builders",
      "outputs": [
        {
          "internalType": "address",
          "name": "builder",
          "type": "address"
        },
        {
          "internalType": "uint256",
          "name": "marketsCreated",
          "type": "uint256"
        },
        {
          "internalType": "uint256",
          "name": "volumeGenerated",
          "type": "uint256"
        },
        {
          "internalType": "uint256",
          "name": "accuracyScore",
          "type": "uint256"
        },
        {
          "internalType": "uint256",
          "name": "communityVotes",
          "type": "uint256"
        },
        {
          "internalType": "uint256",
          "name": "rewardsClaimed",
          "type": "uint256"
        },
        {
          "internalType": "bool",
          "name": "isEligible",
          "type": "bool"
        }
      ],
      "stateMutability": "view",
      "type": "function"
    },
    {
      "inputs": [
        {
          "internalType": "address",
          "name": "_builder",
          "type": "address"
        }
      ],
      "name": "calculateBuilderScore",
      "outputs": [
        {
          "internalType": "uint256",
          "name": "",
          "type": "uint256"
        }
      ],
      "stateMutability": "view",
      "type": "function"
    },
    {
      "inputs": [
        {
          "internalType": "uint256",
          "name": "_weekNumber",
          "type": "uint256"
        }
      ],
      "name": "claimReward",
      "outputs": [],
      "stateMutability": "nonpayable",
      "type": "function"
    },
    {
      "inputs": [],
      "name": "contractStartTime",
      "outputs": [
        {
          "internalType": "uint256",
          "name": "",
          "type": "uint256"
        }
      ],
      "stateMutability": "view",
      "type": "function"
    },
    {
      "inputs": [],
      "name": "currentWeek",
      "outputs": [
        {
          "internalType": "uint256",
          "name": "",
          "type": "uint256"
        }
      ],
      "stateMutability": "view",
      "type": "function"
    },
    {
      "inputs": [],
      "name": "deposit",
      "outputs": [],
      "stateMutability": "payable",
      "type": "function"
    },
    {
      "inputs": [],
      "name": "distributeWeeklyRewards",
      "outputs": [],
      "stateMutability": "nonpayable",
      "type": "function"
    },
    {
      "inputs": [],
      "name": "emergencyWithdraw",
      "outputs": [],
      "stateMutability": "nonpayable",
      "type": "function"
    },
    {
      "inputs": [],
      "name": "getCurrentWeekInfo",
      "outputs": [
        {
          "internalType": "uint256",
          "name": "weekNumber",
          "type": "uint256"
        },
        {
          "internalType": "uint256",
          "name": "totalPool",
          "type": "uint256"
        },
        {
          "internalType": "uint256",
          "name": "startTime",
          "type": "uint256"
        },
        {
          "internalType": "uint256",
          "name": "endTime",
          "type": "uint256"
        }
      ],
      "stateMutability": "view",
      "type": "function"
    },
    {
      "inputs": [],
      "name": "owner",
      "outputs": [
        {
          "internalType": "address",
          "name": "",
          "type": "address"
        }
      ],
      "stateMutability": "view",
      "type": "function"
    },
    {
      "inputs": [
        {
          "internalType": "address",
          "name": "_builder",
          "type": "address"
        },
        {
          "internalType": "uint256",
          "name": "_marketsCreated",
          "type": "uint256"
        },
        {
          "internalType": "uint256",
          "name": "_volumeGenerated",
          "type": "uint256"
        }
      ],
      "name": "recordContribution",
      "outputs": [],
      "stateMutability": "nonpayable",
      "type": "function"
    },
    {
      "inputs": [],
      "name": "renounceOwnership",
      "outputs": [],
      "stateMutability": "nonpayable",
      "type": "function"
    },
    {
      "inputs": [],
      "name": "totalDistributed",
      "outputs": [
        {
          "internalType": "uint256",
          "name": "",
          "type": "uint256"
        }
      ],
      "stateMutability": "view",
      "type": "function"
    },
    {
      "inputs": [
        {
          "internalType": "address",
          "name": "newOwner",
          "type": "address"
        }
      ],
      "name": "transferOwnership",
      "outputs": [],
      "stateMutability": "nonpayable",
      "type": "function"
    },
    {
      "inputs": [
        {
          "internalType": "address",
          "name": "_builder",
          "type": "address"
        },
        {
          "internalType": "uint256",
          "name": "_score",
          "type": "uint256"
        }
      ],
      "name": "updateAccuracyScore",
      "outputs": [],
      "stateMutability": "nonpayable",
      "type": "function"
    },
    {
      "inputs": [
        {
          "internalType": "address",
          "name": "_builder",
          "type": "address"
        }
      ],
      "name": "voteForBuilder",
      "outputs": [],
      "stateMutability": "nonpayable",
      "type": "function"
    },
    {
      "inputs": [
        {
          "internalType": "uint256",
          "name": "",
          "type": "uint256"
        },
        {
          "internalType": "address",
          "name": "",
          "type": "address"
        }
      ],
      "name": "weeklyBuilderRewards",
      "outputs": [
        {
          "internalType": "uint256",
          "name": "",
          "type": "uint256"
        }
      ],
      "stateMutability": "view",
      "type": "function"
    },
    {
      "inputs": [
        {
          "internalType": "uint256",
          "name": "",
          "type": "uint256"
        }
      ],
      "name": "weeklyRewards",
      "outputs": [
        {
          "internalType": "uint256",
          "name": "totalPool",
          "type": "uint256"
        },
        {
          "internalType": "uint256",
          "name": "distributed",
          "type": "uint256"
        },
        {
          "internalType": "uint256",
          "name": "weekNumber",
          "type": "uint256"
        },
        {
          "internalType": "uint256",
          "name": "startTime",
          "type": "uint256"
        },
        {
          "internalType": "uint256",
          "name": "endTime",
          "type": "uint256"
        },
        {
          "internalType": "bool",
          "name": "finalized",
          "type": "bool"
        }
      ],
      "stateMutability": "view",
      "type": "function"
    },
    {
      "inputs": [
        {
          "internalType": "uint256",
          "name": "",
          "type": "uint256"
        },
        {
          "internalType": "uint256",
          "name": "",
          "type": "uint256"
        }
      ],
      "name": "weeklyTopBuilders",
      "outputs": [
        {
          "internalType": "address",
          "name": "",
          "type": "address"
        }
      ],
      "stateMutability": "view",
      "type": "function"
    },
    {
      "stateMutability": "payable",
      "type": "receive"
    }
  ],
  "bytecode": "0x60806040908082523461013a573315610124575060008054336001600160a01b03198216811783558351916001600160a01b03167f8be0079c531659141344cd1fd0a4f28419497f9722a3daafe3b4186f6b6457e08480a36001808055426008558060065562093a804201908142116101105760c083016001600160401b038111848210176100fc5790600593929186528483526020830190858252868401908082526060850192428452608086019485528860a0870198808a52838152600260205220955186555190850155516002840155516003830155516004820155019051151560ff801983541691161790555161114590816101408239f35b634e487b7160e01b85526041600452602485fd5b634e487b7160e01b84526011600452602484fd5b631e4fbdf760e01b815260006004820152602490fd5b600080fdfe608080604052600436101561003a575b50361561001b57600080fd5b60065460005260026020526040600020610036348254610f1d565b9055005b60003560e01c90816306575c8914610ec0575080630c3d515714610ea2578063144ddefc14610e1f5780632ae2790514610cd95780634352ea9a14610cb75780635867b78814610bd8578063715018a614610b7f57806376f5f70014610b6157806384a17e7314610b455780638b9d41f514610ab15780638da5cb5b14610a88578063a3966e9e14610a3b578063ae169a5014610935578063af364c05146108cd578063b46ed01214610849578063c28232a4146103f4578063c397bcfa146103a7578063d0e30db014610304578063db2e21bc14610225578063e605b687146101ea578063efca2eed146101cc5763f2fde38b14610139573861000f565b346101c75760203660031901126101c757610152610edb565b61015a610ef1565b6001600160a01b039081169081156101ae57600054826bffffffffffffffffffffffff60a01b821617600055167f8be0079c531659141344cd1fd0a4f28419497f9722a3daafe3b4186f6b6457e0600080a3005b604051631e4fbdf760e01b815260006004820152602490fd5b600080fd5b346101c75760003660031901126101c7576020600754604051908152f35b346101c75760403660031901126101c7576001600160a01b0361020b610edb565b166000526003602052602435600360406000200155600080f35b346101c75760003660031901126101c75761023e610ef1565b600654600c8111156102fc57600b1981019081116102e6575b6000906001805b8281111561029757838061026e57005b60008054610295928291829182916001600160a01b03165af161028f610fb3565b50610ffe565b005b806000526002602052604060002060ff6005820154166102c1575b506102bc90610f2a565b61025e565b6102bc91946102d982856102df945491015490610f39565b90610f1d565b93906102b2565b634e487b7160e01b600052601160045260246000fd5b506000610257565b60003660031901126101c757341561036f5761031e61103c565b60065460005260026020526040600020610339348254610f1d565b90557f5760ad5c95118e9b3dfa3ba44670ae1bf29cc286553f9f65bf3e3651bba142ed60406006548151903482526020820152a1005b60405162461bcd60e51b815260206004820152601060248201526f09aeae6e840c8cae0dee6d2e8408aa8960831b6044820152606490fd5b346101c75760403660031901126101c757602435600435600052600460205260406000209081548110156101c757600091825260209182902001546040516001600160a01b039091168152f35b346101c75760003660031901126101c75761040d610f70565b61041561103c565b600654806000198101116102e657600019810115610811576000198101600052600260205260ff600560406000200154166107d357600019810160005260026020526040600020541561078e5760001981016000526002602052604060002060405191610ca0830167ffffffffffffffff938082108583111761077857610c8091604052606481526020369101376040519261016084018481108282111761077857604052600a8452602084016101403682376000198301600052600460205260406000209085519283116107785768010000000000000000831161077857815483835580841061074f575b5090600052602060002060005b8381106107325750505050600a82540460005b8451811080610728575b156106fa576001600160a01b036105428287610f46565b511615610690578190806106355760969180838102048314811517156102e6576106309260649102045b600019850160009081526005602052604090206001600160a01b03610591848a610f46565b51166000526020528060406000205560018060a01b036105b18389610f46565b5116600052600360205260056040600020016105ce828254610f1d565b90556105de816001880154610f1d565b60018701557fc7de30174c671767cb19172103f00d7b239a64eda0a41f1c10c404b65f7c68ae60406001600160a01b03610618858b610f46565b518251948552600019890160208601521692a2610f2a565b610521565b6001810361065d57607d9180838102048314811517156102e65761063092606491020461056c565b9060028214610671575b906106309161056c565b50606e9082828102048214831517156102e65790606490830204610667565b50507f7b017ab593ab309c083d6640dde175102f7e17c5b26bf0fede518b9dc8b326029260016060935b600581018260ff198254161790556106d782820154600754610f1d565b60075501549051906040519260001901835260208301526040820152a160018055005b50507f7b017ab593ab309c083d6640dde175102f7e17c5b26bf0fede518b9dc8b326029260016060936106ba565b50600a811061052b565b82516001600160a01b03168183015560209092019160010161050e565b8260005283602060002091820191015b81811061076c5750610501565b6000815560010161075f565b634e487b7160e01b600052604160045260246000fd5b60405162461bcd60e51b815260206004820152601860248201527f4e6f207265776172647320746f206469737472696275746500000000000000006044820152606490fd5b60405162461bcd60e51b815260206004820152601660248201527515d9595ac8185b1c9958591e48199a5b985b1a5e995960521b6044820152606490fd5b60405162461bcd60e51b815260206004820152601060248201526f4e6f2070726576696f7573207765656b60801b6044820152606490fd5b346101c75760003660031901126101c757600654600052600260205260806040600020610874610f93565b908054918281526001820154602082015260028201549283604083015260038301549182606082015260a060ff6005600487015496878a8601520154161515910152604051938452602084015260408301526060820152f35b346101c75760203660031901126101c757600435600052600260205260c06040600020805490600181015490600281015460038201549060ff6005600485015494015416936040519586526020860152604085015260608401526080830152151560a0820152f35b346101c7576020806003193601126101c75760043590610953610f70565b816000526002815260ff6005604060002001541615610a0257816000526005815260406000203360005281526040600020549182156109bd576000806109b79481948294835260058152604083209033845252816040812055335af161028f610fb3565b60018055005b60405162461bcd60e51b815260048101839052601860248201527f4e6f207265776172647320666f722074686973207765656b00000000000000006044820152606490fd5b6064906040519062461bcd60e51b82526004820152601260248201527115d9595ac81b9bdd08199a5b985b1a5e995960721b6044820152fd5b346101c75760403660031901126101c7576024356001600160a01b038116908190036101c75760043560005260056020526040600020906000526020526020604060002054604051908152f35b346101c75760003660031901126101c7576000546040516001600160a01b039091168152602090f35b346101c75760203660031901126101c7576001600160a01b03610ad2610edb565b1680600052600360205260ff6006604060002001541615610b0757600052600360205260046040600020016100368154610f2a565b60405162461bcd60e51b8152602060048201526016602482015275109d5a5b19195c881b9bdd081c9959da5cdd195c995960521b6044820152606490fd5b346101c75760003660031901126101c7576020604051600a8152f35b346101c75760003660031901126101c757602060405162093a808152f35b346101c75760003660031901126101c757610b98610ef1565b600080546001600160a01b0319811682556001600160a01b03167f8be0079c531659141344cd1fd0a4f28419497f9722a3daafe3b4186f6b6457e08280a3005b346101c75760603660031901126101c757610bf1610edb565b7f0196d0533f37ea47d88e4eb66396286ef3e57c7ebd89f644475d77f1e899cace60406024356044359360018060a01b03169384600052600360205260028360002060068101805460ff811615610c71575b505060018101610c54858254610f1d565b905501610c62828254610f1d565b905582519182526020820152a2005b82546001600160a01b0319168917835560ff19166001179055867ff2d060f1ccc39bfa171ec8acae3c1236109399f86fe8d8297a4373061e5662b3600080a28780610c43565b346101c75760003660031901126101c7576020604051662386f26fc100008152f35b346101c75760203660031901126101c7576001600160a01b0380610cfb610edb565b16600052600360205260406000206040519160e0830183811067ffffffffffffffff821117610778576040528154168252600181015490816020840152670de0b6b3a764000060028201548060408601526003830154946060810195865260c060ff600660048701549660808501978852600581015460a08601520154161515910152046064830293838504606414841517156102e65751915193600a850293858504600a14861517156102e6576028830292808404602814901517156102e657610bb80290808204601e14901517156102e657610dd891610f1d565b6014820291808304601414901517156102e657606491610df791610f1d565b920290808204600a14901517156102e657610e16606491602093610f1d565b04604051908152f35b346101c75760203660031901126101c75760e06001600160a01b0380610e43610edb565b166000526003602052604060002090815416906001810154906002810154600382015460048301549160ff600660058601549501541694604051968752602087015260408601526060850152608084015260a0830152151560c0820152f35b346101c75760003660031901126101c7576020600854604051908152f35b346101c75760003660031901126101c7576020906006548152f35b600435906001600160a01b03821682036101c757565b6000546001600160a01b03163303610f0557565b60405163118cdaa760e01b8152336004820152602490fd5b919082018092116102e657565b60001981146102e65760010190565b919082039182116102e657565b8051821015610f5a5760209160051b010190565b634e487b7160e01b600052603260045260246000fd5b600260015414610f81576002600155565b604051633ee5aeb560e01b8152600490fd5b6040519060c0820182811067ffffffffffffffff82111761077857604052565b3d15610ff95767ffffffffffffffff903d8281116107785760405192601f8201601f19908116603f01168401908111848210176107785760405282523d6000602084013e565b606090565b1561100557565b60405162461bcd60e51b815260206004820152600f60248201526e151c985b9cd9995c8819985a5b1959608a1b6044820152606490fd5b61104f60085462093a8091829142610f39565b0490600182018092116102e6576006549081831161106c57505050565b600091825260026020524260046040842001558260065542018042116110fb5790600591611098610f93565b91808352602083018181526040840190868252604060608601934285526080870195865260a0870198818a52815260026020522094518555516001850155516002840155516003830155516004820155019051151560ff80198354169116179055565b634e487b7160e01b82526011600452602482fdfea26469706673582212206e112cbd7d7aa90b1929d96421d6e99d0200a25a17f3af1b5a0756f04879a59a64736f6c63430008140033",
  "linkReferences": {},
  "deployedLinkReferences": {}
}