{
  "_format": "hh-sol-artifact-1",
  "contractName": "GenesisNFT",
  "sourceName": "contracts/src/GenesisNFT.sol",
  "abi": [
    {
      "inputs": [],
      "stateMutability": "nonpayable",
      "type": "constructor"
    },
    {
      "inputs": [],
      "name": "ERC721EnumerableForbiddenBatchMint",
      "type": "error"
    },
    {
      "inputs": [
        {
          "internalType": "address",
          "name": "sender",
          "type": "address"
        },
        {
          "internalType": "uint256",
          "name": "tokenId",
          "type": "uint256"
        },
        {
          "internalType": "address",
          "name": "owner",
          "type": "address"
        }
      ],
      "name": "ERC721IncorrectOwner",
      "type": "error"
    },
    {
      "inputs": [
        {
          "internalType": "address",
          "name": "operator",
          "type": "address"
        },
        {
          "internalType": "uint256",
          "name": "tokenId",
          "type": "uint256"
        }
      ],
      "name": "ERC721InsufficientApproval",
      "type": "error"
    },
    {
      "inputs": [
        {
          "internalType": "address",
          "name": "approver",
          "type": "address"
        }
      ],
      "name": "ERC721InvalidApprover",
      "type": "error"
    },
    {
      "inputs": [
        {
          "internalType": "address",
          "name": "operator",
          "type": "address"
        }
      ],
      "name": "ERC721InvalidOperator",
      "type": "error"
    },
    {
      "inputs": [
        {
          "internalType": "address",
          "name": "owner",
          "type": "address"
        }
      ],
      "name": "ERC721InvalidOwner",
      "type": "error"
    },
    {
      "inputs": [
        {
          "internalType": "address",
          "name": "receiver",
          "type": "address"
        }
      ],
      "name": "ERC721InvalidReceiver",
      "type": "error"
    },
    {
      "inputs": [
        {
          "internalType": "address",
          "name": "sender",
          "type": "address"
        }
      ],
      "name": "ERC721InvalidSender",
      "type": "error"
    },
    {
      "inputs": [
        {
          "internalType": "uint256",
          "name": "tokenId",
          "type": "uint256"
        }
      ],
      "name": "ERC721NonexistentToken",
      "type": "error"
    },
    {
      "inputs": [
        {
          "internalType": "address",
          "name": "owner",
          "type": "address"
        },
        {
          "internalType": "uint256",
          "name": "index",
          "type": "uint256"
        }
      ],
      "name": "ERC721OutOfBoundsIndex",
      "type": "error"
    },
    {
      "anonymous": false,
      "inputs": [
        {
          "indexed": true,
          "internalType": "address",
          "name": "owner",
          "type": "address"
        },
        {
          "indexed": true,
          "internalType": "address",
          "name": "approved",
          "type": "address"
        },
        {
          "indexed": true,
          "internalType": "uint256",
          "name": "tokenId",
          "type": "uint256"
        }
      ],
      "name": "Approval",
      "type": "event"
    },
    {
      "anonymous": false,
      "inputs": [
        {
          "indexed": true,
          "internalType": "address",
          "name": "owner",
          "type": "address"
        },
        {
          "indexed": true,
          "internalType": "address",
          "name": "operator",
          "type": "address"
        },
        {
          "indexed": false,
          "internalType": "bool",
          "name": "approved",
          "type": "bool"
        }
      ],
      "name": "ApprovalForAll",
      "type": "event"
    },
    {
      "anonymous": false,
      "inputs": [
        {
          "indexed": true,
          "internalType": "address",
          "name": "to",
          "type": "address"
        },
        {
          "indexed": false,
          "internalType": "uint256",
          "name": "tokenId",
          "type": "uint256"
        }
      ],
      "name": "GenesisNFTMinted",
      "type": "event"
    },
    {
      "anonymous": false,
      "inputs": [
        {
          "indexed": false,
          "internalType": "uint256",
          "name": "totalMinted",
          "type": "uint256"
        }
      ],
      "name": "MintingFinalized",
      "type": "event"
    },
    {
      "anonymous": false,
      "inputs": [
        {
          "indexed": true,
          "internalType": "address",
          "name": "from",
          "type": "address"
        },
        {
          "indexed": true,
          "internalType": "address",
          "name": "to",
          "type": "address"
        },
        {
          "indexed": true,
          "internalType": "uint256",
          "name": "tokenId",
          "type": "uint256"
        }
      ],
      "name": "Transfer",
      "type": "event"
    },
    {
      "inputs": [],
      "name": "MAX_SUPPLY",
      "outputs": [
        {
          "internalType": "uint256",
          "name": "",
          "type": "uint256"
        }
      ],
      "stateMutability": "view",
      "type": "function"
    },
    {
      "inputs": [],
      "name": "MINTING_WINDOW",
      "outputs": [
        {
          "internalType": "uint256",
          "name": "",
          "type": "uint256"
        }
      ],
      "stateMutability": "view",
      "type": "function"
    },
    {
      "inputs": [
        {
          "internalType": "address",
          "name": "to",
          "type": "address"
        },
        {
          "internalType": "uint256",
          "name": "tokenId",
          "type": "uint256"
        }
      ],
      "name": "approve",
      "outputs": [],
      "stateMutability": "nonpayable",
      "type": "function"
    },
    {
      "inputs": [
        {
          "internalType": "address",
          "name": "owner",
          "type": "address"
        }
      ],
      "name": "balanceOf",
      "outputs": [
        {
          "internalType": "uint256",
          "name": "",
          "type": "uint256"
        }
      ],
      "stateMutability": "view",
      "type": "function"
    },
    {
      "inputs": [],
      "name": "finalizeMinting",
      "outputs": [],
      "stateMutability": "nonpayable",
      "type": "function"
    },
    {
      "inputs": [
        {
          "internalType": "uint256",
          "name": "tokenId",
          "type": "uint256"
        }
      ],
      "name": "generateSVG",
      "outputs": [
        {
          "internalType": "string",
          "name": "",
          "type": "string"
        }
      ],
      "stateMutability": "pure",
      "type": "function"
    },
    {
      "inputs": [
        {
          "internalType": "uint256",
          "name": "tokenId",
          "type": "uint256"
        }
      ],
      "name": "getApproved",
      "outputs": [
        {
          "internalType": "address",
          "name": "",
          "type": "address"
        }
      ],
      "stateMutability": "view",
      "type": "function"
    },
    {
      "inputs": [
        {
          "internalType": "address",
          "name": "owner",
          "type": "address"
        },
        {
          "internalType": "address",
          "name": "operator",
          "type": "address"
        }
      ],
      "name": "isApprovedForAll",
      "outputs": [
        {
          "internalType": "bool",
          "name": "",
          "type": "bool"
        }
      ],
      "stateMutability": "view",
      "type": "function"
    },
    {
      "inputs": [],
      "name": "isMintingActive",
      "outputs": [
        {
          "internalType": "bool",
          "name": "",
          "type": "bool"
        }
      ],
      "stateMutability": "view",
      "type": "function"
    },
    {
      "inputs": [
        {
          "internalType": "address",
          "name": "to",
          "type": "address"
        },
        {
          "internalType": "uint256",
          "name": "quantity",
          "type": "uint256"
        }
      ],
      "name": "mint",
      "outputs": [],
      "stateMutability": "nonpayable",
      "type": "function"
    },
    {
      "inputs": [],
      "name": "mintingDeadline",
      "outputs": [
        {
          "internalType": "uint256",
          "name": "",
          "type": "uint256"
        }
      ],
      "stateMutability": "view",
      "type": "function"
    },
    {
      "inputs": [],
      "name": "mintingFinalized",
      "outputs": [
        {
          "internalType": "bool",
          "name": "",
          "type": "bool"
        }
      ],
      "stateMutability": "view",
      "type": "function"
    },
    {
      "inputs": [],
      "name": "name",
      "outputs": [
        {
          "internalType": "string",
          "name": "",
          "type": "string"
        }
      ],
      "stateMutability": "view",
      "type": "function"
    },
    {
      "inputs": [
        {
          "internalType": "uint256",
          "name": "tokenId",
          "type": "uint256"
        }
      ],
      "name": "ownerOf",
      "outputs": [
        {
          "internalType": "address",
          "name": "",
          "type": "address"
        }
      ],
      "stateMutability": "view",
      "type": "function"
    },
    {
      "inputs": [],
      "name": "remainingSupply",
      "outputs": [
        {
          "internalType": "uint256",
          "name": "",
          "type": "uint256"
        }
      ],
      "stateMutability": "view",
      "type": "function"
    },
    {
      "inputs": [
        {
          "internalType": "address",
          "name": "from",
          "type": "address"
        },
        {
          "internalType": "address",
          "name": "to",
          "type": "address"
        },
        {
          "internalType": "uint256",
          "name": "tokenId",
          "type": "uint256"
        }
      ],
      "name": "safeTransferFrom",
      "outputs": [],
      "stateMutability": "nonpayable",
      "type": "function"
    },
    {
      "inputs": [
        {
          "internalType": "address",
          "name": "from",
          "type": "address"
        },
        {
          "internalType": "address",
          "name": "to",
          "type": "address"
        },
        {
          "internalType": "uint256",
          "name": "tokenId",
          "type": "uint256"
        },
        {
          "internalType": "bytes",
          "name": "data",
          "type": "bytes"
        }
      ],
      "name": "safeTransferFrom",
      "outputs": [],
      "stateMutability": "nonpayable",
      "type": "function"
    },
    {
      "inputs": [
        {
          "internalType": "address",
          "name": "operator",
          "type": "address"
        },
        {
          "internalType": "bool",
          "name": "approved",
          "type": "bool"
        }
      ],
      "name": "setApprovalForAll",
      "outputs": [],
      "stateMutability": "nonpayable",
      "type": "function"
    },
    {
      "inputs": [
        {
          "internalType": "bytes4",
          "name": "interfaceId",
          "type": "bytes4"
        }
      ],
      "name": "supportsInterface",
      "outputs": [
        {
          "internalType": "bool",
          "name": "",
          "type": "bool"
        }
      ],
      "stateMutability": "view",
      "type": "function"
    },
    {
      "inputs": [],
      "name": "symbol",
      "outputs": [
        {
          "internalType": "string",
          "name": "",
          "type": "string"
        }
      ],
      "stateMutability": "view",
      "type": "function"
    },
    {
      "inputs": [
        {
          "internalType": "uint256",
          "name": "index",
          "type": "uint256"
        }
      ],
      "name": "tokenByIndex",
      "outputs": [
        {
          "internalType": "uint256",
          "name": "",
          "type": "uint256"
        }
      ],
      "stateMutability": "view",
      "type": "function"
    },
    {
      "inputs": [
        {
          "internalType": "address",
          "name": "owner",
          "type": "address"
        },
        {
          "internalType": "uint256",
          "name": "index",
          "type": "uint256"
        }
      ],
      "name": "tokenOfOwnerByIndex",
      "outputs": [
        {
          "internalType": "uint256",
          "name": "",
          "type": "uint256"
        }
      ],
      "stateMutability": "view",
      "type": "function"
    },
    {
      "inputs": [
        {
          "internalType": "uint256",
          "name": "tokenId",
          "type": "uint256"
        }
      ],
      "name": "tokenURI",
      "outputs": [
        {
          "internalType": "string",
          "name": "",
          "type": "string"
        }
      ],
      "stateMutability": "view",
      "type": "function"
    },
    {
      "inputs": [],
      "name": "totalMinted",
      "outputs": [
        {
          "internalType": "uint256",
          "name": "",
          "type": "uint256"
        }
      ],
      "stateMutability": "view",
      "type": "function"
    },
    {
      "inputs": [],
      "name": "totalSupply",
      "outputs": [
        {
          "internalType": "uint256",
          "name": "",
          "type": "uint256"
        }
      ],
      "stateMutability": "view",
      "type": "function"
    },
    {
      "inputs": [
        {
          "internalType": "address",
          "name": "from",
          "type": "address"
        },
        {
          "internalType": "address",
          "name": "to",
          "type": "address"
        },
        {
          "internalType": "uint256",
          "name": "tokenId",
          "type": "uint256"
        }
      ],
      "name": "transferFrom",
      "outputs": [],
      "stateMutability": "nonpayable",
      "type": "function"
    }
  ],
  "bytecode": "0x60803462000348576001600160401b0390604090808201838111828210176200033257825260128152602071436c6f636b636861696e2047656e6573697360701b818301528251938385018581108282111762000332578452600785526647454e4553495360c81b82860152825181811162000332576000928354916001958684811c9416801562000327575b8385101462000313578190601f94858111620002c0575b5083908583116001146200025c57879262000250575b5050600019600383901b1c191690861b1784555b86519283116200023c5784548581811c9116801562000231575b828210146200021d57828111620001d5575b50809183116001146200016c57508293949582939262000160575b5050600019600383901b1c191690831b1782555b620151804201908142116200014c5750600a55600c5551612ae990816200034e8239f35b634e487b7160e01b81526011600452602490fd5b01519050388062000114565b90601f198316968585528285209285905b898210620001bd5750508386979896959610620001a3575b505050811b01825562000128565b015160001960f88460031b161c1916905538808062000195565b8088859682949686015181550195019301906200017d565b8585528185208380860160051c82019284871062000213575b0160051c019086905b82811062000207575050620000f9565b868155018690620001f7565b92508192620001ee565b634e487b7160e01b85526022600452602485fd5b90607f1690620000e7565b634e487b7160e01b84526041600452602484fd5b015190503880620000b9565b8780528488208994509190601f198416895b87828210620002a957505084116200028f575b505050811b018455620000cd565b015160001960f88460031b161c1916905538808062000281565b8385015186558c979095019493840193016200026e565b9091508680528387208580850160051c82019286861062000309575b918a91869594930160051c01915b828110620002fa575050620000a3565b8981558594508a9101620002ea565b92508192620002dc565b634e487b7160e01b86526022600452602486fd5b93607f16936200008c565b634e487b7160e01b600052604160045260246000fd5b600080fdfe608080604052600436101561001357600080fd5b60003560e01c90816301ffc9a7146113605750806306fdde03146112a1578063081812fc14611263578063095ea7b31461117c57806318160ddd1461115e57806323b872dd146111475780632c1c86d0146110935780632f745c591461100f57806332cb6b0c14610ff357806340c10f1914610a0d57806342842e0e146109df57806347759e44146109c15780634934bf5c1461099e5780634f6ccce7146109485780636352211e146109185780636ac437b0146108e15780636dcee4ca146108ae57806370a082311461088b57806395d89b4114610794578063a22cb465146106ef578063a2309ff8146106c4578063b88d4fde1461062d578063c87b56dd146101d9578063c971d702146101bb578063da0239a6146101985763e985e9c51461013d57600080fd5b346101935760403660031901126101935761015661142d565b61015e611443565b9060018060a01b03809116600052600560205260406000209116600052602052602060ff604060002054166040519015158152f35b600080fd5b346101935760003660031901126101935760206101b3612a84565b604051908152f35b34610193576000366003190112610193576020600a54604051908152f35b346101935760208060031936011261019357600435801515806105ff575b156105c3578061020961055992611a26565b906102138161267f565b9161053a6101c960405194610227866114aa565b6040865287607d60f81b61029161028b7f4142434445464748494a4b4c4d4e4f505152535455565758595a616263646566998a858201527f6768696a6b6c6d6e6f707172737475767778797a303132333435363738392b2f9889604083015261298c565b9761267f565b6040519788947f7b226e616d65223a2022436c6f636b636861696e2047656e6573697320230000858701526102cf8151809287603e8a0191016113e5565b85019061088b60f21b9182603e8201527f226465736372697074696f6e223a20224f6e65206f66203130302047656e657360408201527f6973204e4654732070726f766964696e6720666f756e6465722072657761726460608201527f7320666f722074686520436c6f636b636861696e2070726564696374696f6e2060808201527f706c6174666f726d2e2045616368204e465420726563656976657320302e303060a08201527f3225206f6620706c6174666f726d20766f6c756d652e222c000000000000000060c08201527f22696d616765223a2022646174613a696d6167652f7376672b786d6c3b62617360d882015263194d8d0b60e21b60f88201526103e3825180938860fc850191016113e5565b019060fc8201526e2261747472696275746573223a205b60881b60fe8201527f7b2274726169745f74797065223a2022436f6c6c656374696f6e222c2022766161010d820152701b1d59488e880891d95b995cda5cc89f4b607a1b61012d8201527f7b2274726169745f74797065223a20225265776172642050657263656e74616761013e8201527f65222c202276616c7565223a2022302e30303225227d2c00000000000000000061015e8201527f7b2274726169745f74797065223a2022546f74616c20537570706c79222c20226101758201526e1d985b1d59488e88088c4c0c089f4b608a1b6101958201527f7b2274726169745f74797065223a20224e756d626572222c202276616c7565226101a48201526101d160f51b6101c482015261051a825180936101c69687850191016113e5565b0191820152615d7d60f01b6101c7820152036101a98101855201836114c6565b60405192610547846114aa565b6040845285840152604083015261298c565b906105ab603d60405180947f646174613a6170706c69636174696f6e2f6a736f6e3b6261736536342c0000008583015261059b815180928786860191016113e5565b810103601d8101855201836114c6565b6105bf604051928284938452830190611408565b0390f35b60405162461bcd60e51b8152600481018390526014602482015273151bdad95b88191bd95cc81b9bdd08195e1a5cdd60621b6044820152606490fd5b50600c546000198101908111610617578111156101f7565b634e487b7160e01b600052601160045260246000fd5b346101935760803660031901126101935761064661142d565b61064e611443565b906044356064359267ffffffffffffffff841161019357366023850112156101935783600401359261067f846114e8565b9361068d60405195866114c6565b80855236602482880101116101935760208160009260246106c2990183890137860101526106bc83838361153d565b33611865565b005b3461019357600036600319011261019357600c54600019810190811161061757602090604051908152f35b346101935760403660031901126101935761070861142d565b60243590811515809203610193576001600160a01b031690811561077b57336000526005602052604060002082600052602052604060002060ff1981541660ff83161790556040519081527f17307eab39ab6107e8899845ad3d59bd9653f200f220920489ca2b5937696c3160203392a3005b604051630b61174360e31b815260048101839052602490fd5b3461019357600036600319011261019357604051600060019081549182811c91818416918215610881575b602094858510841461086b57858794868652918260001461084b5750506001146107f1575b506105ab925003836114c6565b6000818152859250907fb10e2d527612073b26eecdfd717e6a320cf44b4afac2b0732d9fcbe2b7fa0cf65b8583106108335750506105ab9350820101856107e4565b8054838901850152879450869390920191810161081c565b60ff1916858201526105ab95151560051b85010192508791506107e49050565b634e487b7160e01b600052602260045260246000fd5b92607f16926107bf565b346101935760203660031901126101935760206101b36108a961142d565b611504565b34610193576020366003190112610193576105bf6108cd600435611a26565b604051918291602083526020830190611408565b346101935760003660031901126101935760ff600b5416158061090c575b6020906040519015158152f35b50600a544211156108ff565b346101935760203660031901126101935760206109366004356117cf565b6040516001600160a01b039091168152f35b346101935760203660031901126101935760043560085481101561097f5761097160209161180a565b90546040519160031b1c8152f35b6044906040519063295f44f760e21b8252600060048301526024820152fd5b3461019357600036600319011261019357602060ff600b54166040519015158152f35b34610193576000366003190112610193576020604051620151808152f35b34610193576106c26109f036611459565b90604051926109fe8461148e565b600084526106bc83838361153d565b3461019357604036600319011261019357610a2661142d565b60ff600b5416610fae57600a544211610f6957610a47602435600c546119c1565b600019810190811161061757606410610f24576001600160a01b0381161580610edf57602435151580610ed2575b15610e9a5760005b6024358110610a9a576064600c5411610a9257005b6106c26119dd565b600c54610aa6816119ce565b600c5560405192610ab68461148e565b60008452610e81576000818152600260208190526040909120546001600160a01b031693908415908115610e4a575b6001600160a01b03871660008181526003602090815260408083208054600101905587835293905291822080546001600160a01b03191682179055849187907fddf252ad1be2c89b69c2b068fc378daa952ba7f163c4a11628f55a4df523b3ef9080a48015610dbb5760085483600052600960205280604060002055600160401b811015610da55783610b81826001610b9a940160085561180a565b90919082549060031b91821b91600019901b1916179055565b6000946001600160a01b03871603610d51575b15610d3857843b610c00575b50604051908152610bfb91906001600160a01b038516907f9c849b4b70070724cc5397b607e02a7a1ae411a1973fb5300a92dac1204af74f90602090a26119ce565b610a7d565b60405160208180610c3a630a85bd0160e11b9586835233600484015260006024840152876044840152608060648401526084830190611408565b038160006001600160a01b038b165af160009181610cf3575b50610cbb57853d15610cb3573d90610c6a826114e8565b91610c7860405193846114c6565b82523d6000602084013e5b81519182610cac57604051633250574960e11b81526001600160a01b0383166004820152602490fd5b6020915001fd5b606090610c83565b6001600160e01b03191603610cd257610bfb610bb9565b604051633250574960e11b81526001600160a01b0385166004820152602490fd5b9091506020813d602011610d30575b81610d0f602093836114c6565b8101031261019357516001600160e01b031981168103610193579087610c53565b3d9150610d02565b6040516339e3563760e11b815260006004820152602490fd5b610d5a86611504565b806000198101116106175760018060a01b0387166000526006602052604060002060001982016000526020528360406000205583600052600760205260001901604060002055610bad565b634e487b7160e01b600052604160045260246000fd5b6001600160a01b0386168514610b9a57610dd485611504565b836000526007908160205260406000205491876000526006602052604060002092828103610e1e575b50856000526020526000604081205560005260205260006040812055610b9a565b826000528360205260406000205481600052806040600020556000528160205260406000205589610dfd565b600084815260046020526040902080546001600160a01b031916905585600052600360205260406000206000198154019055610ae5565b604051633250574960e11b815260006004820152602490fd5b60405162461bcd60e51b815260206004820152601060248201526f496e76616c6964207175616e7469747960801b6044820152606490fd5b50600a6024351115610a75565b60405162461bcd60e51b815260206004820152601b60248201527f43616e6e6f74206d696e7420746f207a65726f206164647265737300000000006044820152606490fd5b60405162461bcd60e51b815260206004820152601760248201527f576f756c6420657863656564206d617820737570706c790000000000000000006044820152606490fd5b60405162461bcd60e51b815260206004820152601a60248201527f4d696e74696e672077696e646f772068617320657870697265640000000000006044820152606490fd5b60405162461bcd60e51b815260206004820152601a60248201527f4d696e74696e6720686173206265656e2066696e616c697a65640000000000006044820152606490fd5b3461019357600036600319011261019357602060405160648152f35b346101935760403660031901126101935761102861142d565b6024359061103581611504565b8210156110685760018060a01b031660005260066020526040600020906000526020526020604060002054604051908152f35b60405163295f44f760e21b81526001600160a01b039190911660048201526024810191909152604490fd5b346101935760003660031901126101935760ff600b541661110e57600a5442118015611102575b156110c7576106c26119dd565b60405162461bcd60e51b815260206004820152601360248201527210d85b9b9bdd08199a5b985b1a5e99481e595d606a1b6044820152606490fd5b506064600c54116110ba565b60405162461bcd60e51b8152602060048201526011602482015270105b1c9958591e48199a5b985b1a5e9959607a1b6044820152606490fd5b34610193576106c261115836611459565b9161153d565b34610193576000366003190112610193576020600854604051908152f35b346101935760403660031901126101935761119561142d565b6024356111a1816117cf565b33151580611250575b80611223575b61120b576001600160a01b039283169282918491167f8c5be1e5ebec7d5bd14f71427d1e84f3dd0314c0f7b2291e5b200ac8c7c3b925600080a4600090815260046020526040902080546001600160a01b0319169091179055005b60405163a9fbf51f60e01b8152336004820152602490fd5b5060018060a01b038116600052600560205260406000203360005260205260ff60406000205416156111b0565b506001600160a01b0381163314156111aa565b3461019357602036600319011261019357600435611280816117cf565b506000526004602052602060018060a01b0360406000205416604051908152f35b34610193576000366003190112610193576040516000805490600182811c91818416918215611356575b602094858510841461086b57858794868652918260001461084b5750506001146112fc57506105ab925003836114c6565b6000808052859250907f290decd9548b62a8d60345a988386fc84ba6bc95484008f6362f93160ef3e5635b85831061133e5750506105ab9350820101856107e4565b80548389018501528794508693909201918101611327565b92607f16926112cb565b34610193576020366003190112610193576004359063ffffffff60e01b82168092036101935760209163780e9d6360e01b81149081156113a2575b5015158152f35b6380ac58cd60e01b8114915081156113d4575b81156113c3575b508361139b565b6301ffc9a760e01b149050836113bc565b635b5e139f60e01b811491506113b5565b60005b8381106113f85750506000910152565b81810151838201526020016113e8565b90602091611421815180928185528580860191016113e5565b601f01601f1916010190565b600435906001600160a01b038216820361019357565b602435906001600160a01b038216820361019357565b6060906003190112610193576001600160a01b0390600435828116810361019357916024359081168103610193579060443590565b6020810190811067ffffffffffffffff821117610da557604052565b6060810190811067ffffffffffffffff821117610da557604052565b90601f8019910116810190811067ffffffffffffffff821117610da557604052565b67ffffffffffffffff8111610da557601f01601f191660200190565b6001600160a01b0316801561152457600052600360205260406000205490565b6040516322718ad960e21b815260006004820152602490fd5b6001600160a01b0382811693918415610e8157600094838652602095600287526040968488832054169633151580611741575b508715801561170e575b84845260038352898420805460010190558784526002835289842080546001600160a01b0319168617905587858a7fddf252ad1be2c89b69c2b068fc378daa952ba7f163c4a11628f55a4df523b3ef8780a4156116a25760085487845260098352808a852055600160401b81101561168e5787610b81826001611600940160085561180a565b83880361163c575b50505050169283830361161b5750505050565b6064945051926364283d7b60e01b8452600484015260248301526044820152fd5b61164590611504565b60001981019390841161167a5782916007918a9452600681528383208584528152878484205587835252205538808080611608565b634e487b7160e01b83526011600452602483fd5b634e487b7160e01b84526041600452602484fd5b878414611600576116b288611504565b878452600783528984205490898552600684528a8520918181036116ec575b5088855260078452848b812055845282528289812055611600565b8186528285528b862054818752808d8820558652600785528b862055386116d1565b600088815260046020526040902080546001600160a01b031916905588845260038352898420805460001901905561157a565b8061178e575b156117525738611570565b88878961176f576024915190637e27328960e01b82526004820152fd5b905163177e802f60e01b81523360048201526024810191909152604490fd5b5033881480156117b3575b8061174757508683526004825233868a8520541614611747565b5087835260058252888320338452825260ff8984205416611799565b6000818152600260205260409020546001600160a01b03169081156117f2575090565b60249060405190637e27328960e01b82526004820152fd5b6008548110156118415760086000527ff3f7a9fe364faab93b216da50a3214154f22a0a2b415b23a84c8169e8b636ee30190600090565b634e487b7160e01b600052603260045260246000fd5b60fa039060fa821161061757565b90939192833b611877575b5050505050565b604051630a85bd0160e11b8082526001600160a01b0393841660048301529583166024820152604481019190915260806064820152949216926020929185906118c4906084830190611408565b039483816000978189895af186918161196f575b50611939575050503d600014611930573d6118f2816114e8565b9061190060405192836114c6565b81528093823d92013e5b8251928361192b57604051633250574960e11b815260048101849052602490fd5b019050fd5b6060925061190a565b919450915063ffffffff60e01b160361195757503880808080611870565b60249060405190633250574960e11b82526004820152fd5b9091508481813d83116119ac575b61198781836114c6565b810103126119a857516001600160e01b0319811681036119a85790386118d8565b8680fd5b503d61197d565b60fa01908160fa1161061757565b9190820180921161061757565b60001981146106175760010190565b600b805460ff19166001179055600c5460001981019081116106175760207f06d2a1b7b73a22817b814152d415c7c9b1a3a09f8af8f76fdf662891e4fb50f291604051908152a1565b80151580612642575b1561260a57611a3d81612894565b906064810180821161061757611a5290612894565b60c8820180831161061757610220611a6c611db592612894565b94611a768561267f565b9560405194859260208401987f3c73766720786d6c6e733d22687474703a2f2f7777772e77332e6f72672f32308a527f30302f737667222077696474683d2235303022206865696768743d223530302260408601527f2076696577426f783d223020302035303020353030223e0000000000000000006060860152651e3232b3399f60d11b60778601527f3c6c696e6561724772616469656e742069643d22677261640000000000000000607d860152611b3a8151809260206095890191016113e5565b84017f222078313d223025222079313d223025222078323d2231303025222079323d2260958201526518981812911f60d11b60b58201527f3c73746f70206f66667365743d22302522207374796c653d2273746f702d636f60bb820152633637b91d60e11b60db820152611bb882518093602060df850191016113e5565b0190721db9ba37b816b7b830b1b4ba3c9d189110179f60691b828160df819501527f3c73746f70206f66667365743d2235302522207374796c653d2273746f702d6360f28201526437b637b91d60d91b610112820152825190611c258261011795602087850191016113e5565b01918201527f3c73746f70206f66667365743d223130302522207374796c653d2273746f702d61012a8201526531b7b637b91d60d11b61014a820152825190611c788261015095602087850191016113e5565b0191820152701e17b634b732b0b923b930b234b2b73a1f60791b610163820152711e3334b63a32b91034b21e9133b637bb911f60711b6101748201527f3c6665476175737369616e426c757220737464446576696174696f6e3d2234226101868201527f20726573756c743d22636f6c6f726564426c7572222f3e0000000000000000006101a6820152681e3332a6b2b933b29f60b91b6101bd8201527f3c66654d657267654e6f646520696e3d22636f6c6f726564426c7572222f3e006101c68201527f3c66654d657267654e6f646520696e3d22536f7572636547726170686963222f6101e5820152601f60f91b610205820152691e17b332a6b2b933b29f60b11b610206820152681e17b334b63a32b91f60b91b610210820152661e17b232b3399f60c91b610219820152036102008101845201826114c6565b611dbe8261267f565b91604051611dcb8161148e565b60008152928160005b600581106122cb575050601e8202828104601e148315171561061757611df99061267f565b93602d8302838104602d148415171561061757611e159061267f565b9260405190816020810193848151602081930191611e32926113e5565b7f3c636972636c652063783d22323530222063793d223235302220723d223530226020918301828101919091527f2066696c6c3d226e6f6e6522207374726f6b653d22776869746522207374726f60408201527f6b652d77696474683d223322206f7061636974793d22302e39222f3e0000000060608201527f3c6c696e652078313d22323530222079313d22323530222078323d2232353022607c8201527f2079323d2232313022207374726f6b653d22776869746522207374726f6b652d609c8201527f77696474683d223322207374726f6b652d6c696e656361703d22726f756e642260bc82015272040e8e4c2dce6ccdee4da7a44e4dee8c2e8ca5606b1b60dc82018190528a51909a9092611f5291849160ef850191016113e5565b016b10191a9810191a981491179f60a11b908160ef82015260fb81017f3c6c696e652078313d22323530222079313d22323530222078323d2232383022905261011b81017f2079323d2232353022207374726f6b653d22776869746522207374726f6b652d905261013b81017f77696474683d223222207374726f6b652d6c696e656361703d22726f756e6422905261015b998a82015287519061016e98828a83019160200191612002926113e5565b01908782015261017a81017f3c636972636c652063783d22323530222063793d223235302220723d2235222090526d3334b6361e913bb434ba3291179f60911b61019a82015203610188810183526101a80161205e90836114c6565b6120679061267f565b926040519788965190816020890161207e926113e5565b8601602081017f3c726563742077696474683d2235303022206865696768743d2235303022206690526d1a5b1b0f489d5c9b0a08d9dc985960921b604082015281519182604e830191602001916120d4926113e5565b0190631491179f60e11b604e830152605282017f3c672066696c7465723d2275726c2823676c6f7729223e00000000000000000090525191826069830161211a926113e5565b631e17b39f60e11b606992909101918201527f3c7465787420783d223235302220793d223435302220666f6e742d66616d696c606d8201527f793d226d6f6e6f73706163652220666f6e742d73697a653d223234222066696c608d8201527f6c3d2277686974652220746578742d616e63686f723d226d6964646c6522206660ad8201527137b73a16bbb2b4b3b43a1e913137b632111f60711b60cd8201526847454e45534953202360b81b60df8201528151916121e190839060e88401906020016113e5565b0190661e17ba32bc3a1f60c91b908160e884015260ef83017f3c7465787420783d223235302220793d223437352220666f6e742d66616d696c905261010f83017f793d226d6f6e6f73706163652220666f6e742d73697a653d223134222066696c905261012f83017f6c3d2277686974652220746578742d616e63686f723d226d6964646c6522206f90526c3830b1b4ba3c9e9118171c111f60991b61014f84015261015c83017121a627a1a5a1a420a4a7102327aaa72222a960711b90528201526101758101651e17b9bb339f60d11b905203908101825261017b016122c890826114c6565b90565b9094601e9081830291831590848404148117156106175760b490818481031161061757600d808a02908a8204148a15171561061757603c860290868204603c14831715610617576101689161231f916119c1565b0693600f91828702928784041417156106175760648281031161061757916040516123498161148e565b60008152926000915b600683106124a4575050509261247e92608a9261239b6123957f222066696c6c3d226e6f6e6522207374726f6b653d22776869746522207374729760640361267f565b9361267f565b9060405196836123b58995518092602080890191016113e5565b8401701e3837b63cb3b7b7103837b4b73a399e9160791b60208201528251906123e782603195602087850191016113e5565b01918201527f6f6b652d77696474683d223222206f7061636974793d22302e00000000000000605182015283519061242882606a96602088850191016113e5565b017304440e8e4c2dce6ccdee4da7a44e4dee8c2e8ca560631b8482015281519061245b82607e94602086850191016113e5565b6b10191a9810191a981491179f60a11b91019182015203908101845201826114c6565b9460079081810291818304149015171561061757606461249f9106916119ce565b611dd4565b90919384603c810204603c1485151715610617576125929061258c60646124d86124d0603c8a026127f6565b8787036127c2565b059160646124f36124eb603c8b02612848565b8888036127c2565b0592600081126125f857612506906119b3565b925b600081126125e157612519906119b3565b925b88612599575b61239561252d9161267f565b9060405193816125478693518092602080870191016113e5565b820161255c82518093602080850191016113e5565b01600b60fa1b602082015282519061257d82602195602087850191016113e5565b010360018101845201826114c6565b946119ce565b9190612352565b9061239561252d916125d86021604051836125be8295518092602080860191016113e5565b8101600160fd1b60208201520360018101845201826114c6565b92915050612521565b6125ed6125f2916127e5565b611857565b9261251b565b6125ed612604916127e5565b92612508565b60405162461bcd60e51b815260206004820152601060248201526f125b9d985b1a59081d1bdad95b88125160821b6044820152606490fd5b506064811115611a2f565b90612657826114e8565b61266460405191826114c6565b8281528092612675601f19916114e8565b0190602036910137565b806000917a184f03e93ff9f4daa797ed6e38ed64bf6a1f010000000000000000808210156127b4575b506d04ee2d6d415b85acef8100000000808310156127a5575b50662386f26fc1000080831015612796575b506305f5e10080831015612787575b5061271080831015612778575b506064821015612768575b600a8092101561275e575b60019081602161271682870161264d565b95860101905b612728575b5050505090565b600019019083906f181899199a1a9b1b9c1cb0b131b232b360811b8282061a8353049182156127595791908261271c565b612721565b9160010191612705565b91906064600291049101916126fa565b600491939204910191386126ef565b600891939204910191386126e2565b601091939204910191386126d3565b602091939204910191386126c1565b6040935081049150386126a8565b818102929160008212600160ff1b82141661061757818405149015171561061757565b600160ff1b81146106175760000390565b801561284257603c811461283c576078811461282e5760b481146128355760f0811461282e5761012c1461282957600090565b603290565b5060311990565b5060631990565b50603290565b50606490565b801561288857603c811461288e576078811461288e5760b481146128885760f081146128815761012c1461287b57600090565b60561990565b5060561990565b50600090565b50605790565b604051906020918281019182528281526040810181811067ffffffffffffffff821117610da557604052519020607f81166064810180911161061757607f8260081c16916064830180931161061757607f9060101c169160648301809311610617576122c89261291161290b61239560279561267f565b9161267f565b90612973604051968794630e4cec4560e31b8287015261293a815180928460248a0191016113e5565b850192600b60fa1b9384602482015261295c82518093856025850191016113e5565b0192602584015283519384916026850191016113e5565b01602960f81b60268201520360078101845201826114c6565b805115612a6f578051600291828201809211610617576003918290046001600160fe1b0381168103610617576129c5908495941b61264d565b936020850193829183518401906020820192835194600085525b838110612a1e575050505052510680600114612a0b57600214612a00575090565b603d90600019015390565b50603d9081600019820153600119015390565b87600491999293949901918251600190603f9082828260121c16880101518453828282600c1c16880101518385015382828260061c16880101518885015316850101518982015301979291906129df565b5050604051612a7d8161148e565b6000815290565b60ff600b5416612aae57600c54806000198101116106175760019060640301606481116106175790565b60009056fea2646970667358221220afcd3bbc8443b168bb17e126452b63de98b5d75e7c7337d6169f82e4cf59eda264736f6c63430008140033",
  "linkReferences": {},
  "deployedLinkReferences": {}
}