{
  "_format": "hh-sol-artifact-1",
  "contractName": "AdvancedMarkets",
  "sourceName": "contracts/src/AdvancedMarkets.sol",
  "abi": [
    {
      "inputs": [
        {
          "internalType": "address",
          "name": "_predictionMarket",
          "type": "address"
        }
      ],
      "stateMutability": "nonpayable",
      "type": "constructor"
    },
    {
      "inputs": [],
      "name": "AccessControlBadConfirmation",
      "type": "error"
    },
    {
      "inputs": [
        {
          "internalType": "address",
          "name": "account",
          "type": "address"
        },
        {
          "internalType": "bytes32",
          "name": "neededRole",
          "type": "bytes32"
        }
      ],
      "name": "AccessControlUnauthorizedAccount",
      "type": "error"
    },
    {
      "inputs": [],
      "name": "ReentrancyGuardReentrantCall",
      "type": "error"
    },
    {
      "anonymous": false,
      "inputs": [
        {
          "indexed": true,
          "internalType": "bytes32",
          "name": "marketId",
          "type": "bytes32"
        },
        {
          "indexed": false,
          "internalType": "enum AdvancedMarkets.MarketType",
          "name": "marketType",
          "type": "uint8"
        },
        {
          "indexed": true,
          "internalType": "address",
          "name": "creator",
          "type": "address"
        },
        {
          "indexed": false,
          "internalType": "uint256",
          "name": "timestamp",
          "type": "uint256"
        }
      ],
      "name": "AdvancedMarketCreated",
      "type": "event"
    },
    {
      "anonymous": false,
      "inputs": [
        {
          "indexed": true,
          "internalType": "bytes32",
          "name": "marketId",
          "type": "bytes32"
        },
        {
          "indexed": true,
          "internalType": "bytes32",
          "name": "dependsOnMarketId",
          "type": "bytes32"
        }
      ],
      "name": "ConditionalMarketLinked",
      "type": "event"
    },
    {
      "anonymous": false,
      "inputs": [
        {
          "indexed": true,
          "internalType": "bytes32",
          "name": "marketId",
          "type": "bytes32"
        },
        {
          "indexed": false,
          "internalType": "bytes32",
          "name": "optionId",
          "type": "bytes32"
        },
        {
          "indexed": false,
          "internalType": "string",
          "name": "optionText",
          "type": "string"
        }
      ],
      "name": "MultiChoiceOptionAdded",
      "type": "event"
    },
    {
      "anonymous": false,
      "inputs": [
        {
          "indexed": true,
          "internalType": "bytes32",
          "name": "marketId",
          "type": "bytes32"
        },
        {
          "indexed": false,
          "internalType": "uint256",
          "name": "minValue",
          "type": "uint256"
        },
        {
          "indexed": false,
          "internalType": "uint256",
          "name": "maxValue",
          "type": "uint256"
        }
      ],
      "name": "RangeMarketCreated",
      "type": "event"
    },
    {
      "anonymous": false,
      "inputs": [
        {
          "indexed": true,
          "internalType": "address",
          "name": "user",
          "type": "address"
        },
        {
          "indexed": false,
          "internalType": "uint256",
          "name": "oldReputation",
          "type": "uint256"
        },
        {
          "indexed": false,
          "internalType": "uint256",
          "name": "newReputation",
          "type": "uint256"
        }
      ],
      "name": "ReputationUpdated",
      "type": "event"
    },
    {
      "anonymous": false,
      "inputs": [
        {
          "indexed": true,
          "internalType": "bytes32",
          "name": "role",
          "type": "bytes32"
        },
        {
          "indexed": true,
          "internalType": "bytes32",
          "name": "previousAdminRole",
          "type": "bytes32"
        },
        {
          "indexed": true,
          "internalType": "bytes32",
          "name": "newAdminRole",
          "type": "bytes32"
        }
      ],
      "name": "RoleAdminChanged",
      "type": "event"
    },
    {
      "anonymous": false,
      "inputs": [
        {
          "indexed": true,
          "internalType": "bytes32",
          "name": "role",
          "type": "bytes32"
        },
        {
          "indexed": true,
          "internalType": "address",
          "name": "account",
          "type": "address"
        },
        {
          "indexed": true,
          "internalType": "address",
          "name": "sender",
          "type": "address"
        }
      ],
      "name": "RoleGranted",
      "type": "event"
    },
    {
      "anonymous": false,
      "inputs": [
        {
          "indexed": true,
          "internalType": "bytes32",
          "name": "role",
          "type": "bytes32"
        },
        {
          "indexed": true,
          "internalType": "address",
          "name": "account",
          "type": "address"
        },
        {
          "indexed": true,
          "internalType": "address",
          "name": "sender",
          "type": "address"
        }
      ],
      "name": "RoleRevoked",
      "type": "event"
    },
    {
      "inputs": [],
      "name": "DEFAULT_ADMIN_ROLE",
      "outputs": [
        {
          "internalType": "bytes32",
          "name": "",
          "type": "bytes32"
        }
      ],
      "stateMutability": "view",
      "type": "function"
    },
    {
      "inputs": [],
      "name": "MARKET_CREATOR_ROLE",
      "outputs": [
        {
          "internalType": "bytes32",
          "name": "",
          "type": "bytes32"
        }
      ],
      "stateMutability": "view",
      "type": "function"
    },
    {
      "inputs": [
        {
          "internalType": "bytes32",
          "name": "",
          "type": "bytes32"
        }
      ],
      "name": "advancedMarkets",
      "outputs": [
        {
          "internalType": "bytes32",
          "name": "marketId",
          "type": "bytes32"
        },
        {
          "internalType": "enum AdvancedMarkets.MarketType",
          "name": "marketType",
          "type": "uint8"
        },
        {
          "internalType": "bytes32",
          "name": "dependsOn",
          "type": "bytes32"
        },
        {
          "internalType": "uint256",
          "name": "minValue",
          "type": "uint256"
        },
        {
          "internalType": "uint256",
          "name": "maxValue",
          "type": "uint256"
        }
      ],
      "stateMutability": "view",
      "type": "function"
    },
    {
      "inputs": [
        {
          "internalType": "bytes32",
          "name": "marketId",
          "type": "bytes32"
        },
        {
          "internalType": "bytes32",
          "name": "optionId",
          "type": "bytes32"
        }
      ],
      "name": "betOnOption",
      "outputs": [],
      "stateMutability": "payable",
      "type": "function"
    },
    {
      "inputs": [
        {
          "internalType": "address",
          "name": "user",
          "type": "address"
        }
      ],
      "name": "calculateReputation",
      "outputs": [
        {
          "internalType": "uint256",
          "name": "",
          "type": "uint256"
        }
      ],
      "stateMutability": "view",
      "type": "function"
    },
    {
      "inputs": [
        {
          "internalType": "bytes32",
          "name": "marketId",
          "type": "bytes32"
        },
        {
          "internalType": "bytes32",
          "name": "dependsOnMarketId",
          "type": "bytes32"
        },
        {
          "internalType": "uint256",
          "name": "endTime",
          "type": "uint256"
        }
      ],
      "name": "createConditionalMarket",
      "outputs": [],
      "stateMutability": "nonpayable",
      "type": "function"
    },
    {
      "inputs": [
        {
          "internalType": "bytes32",
          "name": "marketId",
          "type": "bytes32"
        },
        {
          "internalType": "string[]",
          "name": "options",
          "type": "string[]"
        },
        {
          "internalType": "uint256",
          "name": "endTime",
          "type": "uint256"
        }
      ],
      "name": "createMultiChoiceMarket",
      "outputs": [],
      "stateMutability": "nonpayable",
      "type": "function"
    },
    {
      "inputs": [
        {
          "internalType": "bytes32",
          "name": "marketId",
          "type": "bytes32"
        },
        {
          "internalType": "uint256",
          "name": "minValue",
          "type": "uint256"
        },
        {
          "internalType": "uint256",
          "name": "maxValue",
          "type": "uint256"
        },
        {
          "internalType": "uint256",
          "name": "endTime",
          "type": "uint256"
        }
      ],
      "name": "createRangeMarket",
      "outputs": [],
      "stateMutability": "nonpayable",
      "type": "function"
    },
    {
      "inputs": [
        {
          "internalType": "bytes32",
          "name": "marketId",
          "type": "bytes32"
        }
      ],
      "name": "getAdvancedMarket",
      "outputs": [
        {
          "internalType": "enum AdvancedMarkets.MarketType",
          "name": "marketType",
          "type": "uint8"
        },
        {
          "internalType": "uint256",
          "name": "optionCount",
          "type": "uint256"
        },
        {
          "internalType": "bytes32",
          "name": "dependsOn",
          "type": "bytes32"
        },
        {
          "internalType": "uint256",
          "name": "minValue",
          "type": "uint256"
        },
        {
          "internalType": "uint256",
          "name": "maxValue",
          "type": "uint256"
        }
      ],
      "stateMutability": "view",
      "type": "function"
    },
    {
      "inputs": [
        {
          "internalType": "bytes32",
          "name": "marketId",
          "type": "bytes32"
        },
        {
          "internalType": "bytes32",
          "name": "optionId",
          "type": "bytes32"
        }
      ],
      "name": "getOptionStake",
      "outputs": [
        {
          "internalType": "uint256",
          "name": "",
          "type": "uint256"
        }
      ],
      "stateMutability": "view",
      "type": "function"
    },
    {
      "inputs": [
        {
          "internalType": "bytes32",
          "name": "role",
          "type": "bytes32"
        }
      ],
      "name": "getRoleAdmin",
      "outputs": [
        {
          "internalType": "bytes32",
          "name": "",
          "type": "bytes32"
        }
      ],
      "stateMutability": "view",
      "type": "function"
    },
    {
      "inputs": [
        {
          "internalType": "bytes32",
          "name": "marketId",
          "type": "bytes32"
        },
        {
          "internalType": "address",
          "name": "user",
          "type": "address"
        },
        {
          "internalType": "bytes32",
          "name": "optionId",
          "type": "bytes32"
        }
      ],
      "name": "getUserOptionBet",
      "outputs": [
        {
          "internalType": "uint256",
          "name": "",
          "type": "uint256"
        }
      ],
      "stateMutability": "view",
      "type": "function"
    },
    {
      "inputs": [
        {
          "internalType": "bytes32",
          "name": "role",
          "type": "bytes32"
        },
        {
          "internalType": "address",
          "name": "account",
          "type": "address"
        }
      ],
      "name": "grantRole",
      "outputs": [],
      "stateMutability": "nonpayable",
      "type": "function"
    },
    {
      "inputs": [
        {
          "internalType": "bytes32",
          "name": "role",
          "type": "bytes32"
        },
        {
          "internalType": "address",
          "name": "account",
          "type": "address"
        }
      ],
      "name": "hasRole",
      "outputs": [
        {
          "internalType": "bool",
          "name": "",
          "type": "bool"
        }
      ],
      "stateMutability": "view",
      "type": "function"
    },
    {
      "inputs": [
        {
          "internalType": "bytes32",
          "name": "",
          "type": "bytes32"
        }
      ],
      "name": "marketExists",
      "outputs": [
        {
          "internalType": "bool",
          "name": "",
          "type": "bool"
        }
      ],
      "stateMutability": "view",
      "type": "function"
    },
    {
      "inputs": [],
      "name": "predictionMarket",
      "outputs": [
        {
          "internalType": "contract EnhancedPredictionMarket",
          "name": "",
          "type": "address"
        }
      ],
      "stateMutability": "view",
      "type": "function"
    },
    {
      "inputs": [
        {
          "internalType": "bytes32",
          "name": "role",
          "type": "bytes32"
        },
        {
          "internalType": "address",
          "name": "callerConfirmation",
          "type": "address"
        }
      ],
      "name": "renounceRole",
      "outputs": [],
      "stateMutability": "nonpayable",
      "type": "function"
    },
    {
      "inputs": [
        {
          "internalType": "bytes32",
          "name": "role",
          "type": "bytes32"
        },
        {
          "internalType": "address",
          "name": "account",
          "type": "address"
        }
      ],
      "name": "revokeRole",
      "outputs": [],
      "stateMutability": "nonpayable",
      "type": "function"
    },
    {
      "inputs": [
        {
          "internalType": "bytes4",
          "name": "interfaceId",
          "type": "bytes4"
        }
      ],
      "name": "supportsInterface",
      "outputs": [
        {
          "internalType": "bool",
          "name": "",
          "type": "bool"
        }
      ],
      "stateMutability": "view",
      "type": "function"
    },
    {
      "inputs": [
        {
          "internalType": "address",
          "name": "",
          "type": "address"
        }
      ],
      "name": "userReputation",
      "outputs": [
        {
          "internalType": "uint256",
          "name": "",
          "type": "uint256"
        }
      ],
      "stateMutability": "view",
      "type": "function"
    }
  ],
  "bytecode": "0x60803461008c57601f61119538819003918201601f19168301916001600160401b038311848410176100915780849260209460405283398101031261008c57516001600160a01b0381169081900361008c5760018055600280546001600160a01b031916919091179055610072336100a7565b5061007c33610125565b50604051610faf90816101c68239f35b600080fd5b634e487b7160e01b600052604160045260246000fd5b6001600160a01b031660008181527fad3228b676f7d3cd4284a5443f17f1962b36e491b30a40b2405849e597ba5fb5602052604081205490919060ff1661012157818052816020526040822081835260205260408220600160ff1982541617905533916000805160206111758339815191528180a4600190565b5090565b6001600160a01b031660008181527f2412b2af58bf3b93d578a423d333d33fb94fb5093f9cda1aed2eaafb3215f92960205260408120549091907fd3065a24ad9e7725d223007135762d2902038999e3e5829146654498a58d97959060ff166101c057808352826020526040832082845260205260408320600160ff19825416179055600080516020611175833981519152339380a4600190565b50509056fe6080604081815260048036101561001557600080fd5b600092833560e01c90816301ffc9a714610c155750806309a22aa214610be6578063248a9ca314610bbd57806326ba5be314610b6057806327c06fd514610b395780632f2ff15d14610b1057806336568abe14610ac95780633ac16aac146109b45780633e19fefe14610765578063582fc525146107065780638f530c85146103d757806391d1485414610392578063a217fddf14610377578063a6e6599314610328578063a88ab6c314610209578063ae42820c146101ce578063d547741f14610190578063d8d0398914610164578063def114b6146101375763e503bb05146100ff57600080fd5b346101335760203660031901126101335760209282916001600160a01b03610125610ca7565b168252845220549051908152f35b8280fd5b50503461016057816003193601126101605760025490516001600160a01b039091168152602090f35b5080fd5b5034610133576020366003190112610133578160209360ff923581526005855220541690519015158152f35b5090346101335780600319360112610133576101ca91356101c560016101b4610cbd565b938387528660205286200154610d85565b610e29565b5080f35b505034610160578160031936011261016057602090517fd3065a24ad9e7725d223007135762d2902038999e3e5829146654498a58d97958152f35b509034610133576060366003190112610133578135906024359261022b610d0b565b8285526020906005825261024560ff848820541615610e9e565b8486526005825260ff8387205416156102e75750907f6fa8ac7c105c459efdfee6428419da0f54dcf1345f66badb256a6f5ae5f1e45d9183865260038152818620848155856003600183019260ff1993600285825416179055015560058252600183882091825416179055815194847f8a2ae5f895767f00b73dd65ca821ea078d63b585805751a439f2a3b1a35681ac8880a36002855242908501523393a380f35b915162461bcd60e51b815291820152601f60248201527f446570656e64656e74206d61726b657420646f6573206e6f74206578697374006044820152606490fd5b5034610133576060366003190112610133576020928291610347610cbd565b90358252600385528282206001600160a01b03909116825260080184528181206044358252845220549051908152f35b50503461016057816003193601126101605751908152602090f35b50346101335781600319360112610133578160209360ff926103b2610cbd565b903582528186528282206001600160a01b039091168252855220549151911615158152f35b509034610133576060908160031936011261070257823591602480359167ffffffffffffffff908184116106fe57366023850112156106fe5783870135938285116106ec578460051b86519360209661043288840187610cd3565b85528587860192840101923684116106e857868101925b84841061066d57505050505061045d610d0b565b8588526005845261047460ff868a20541615610e9e565b815160028110159081610661575b50156106285785885260038085528589208781556001808201805460ff199081168317909155959a9990989796959492916002018a8a5b610507575b8b8b8b7f6fa8ac7c105c459efdfee6428419da0f54dcf1345f66badb256a6f5ae5f1e45d8c8c8c848752600582528583882091825416179055815194855242908501523393a380f35b8451811015610623578981610553888c8c610544610525868d610f07565b51918351968794828601998a5285015282519283918686019101610f31565b8101038d810184520182610cd3565b51902082546801000000000000000081101561061157918b8d9e9f938c8c9d9e9f9b9c610604958c916105f28f888f8f6105b78f9a7ffca87d3a5e5a7eb6cc97303278d2def5adb14684215ce3d3f0fdf0ad2a03aa5c9b6105d19682018155610f54565b81929154911b9088821b91600019901b1916179055610f07565b51948051958694855281848601528051938480938701528686019101610f31565b601f01601f19168101030190a2610ee2565b909c9b9a999897966104b9565b634e487b7160e01b8e52604185528e8efd5b6104be565b845162461bcd60e51b815280880185905260148185015273125b9d985b1a59081bdc1d1a5bdb8818dbdd5b9d60621b6044820152606490fd5b600a9150111538610482565b83358381116106e4578201366043820112156106e45788810135918483116106d1578b518f6106a5601f8601601f19168e0183610cd3565b84825260443681878701011161016057858e968796928793018386013783010152815201930192610449565b50634e487b7160e01b8e5260418d52888efd5b8d80fd5b8b80fd5b634e487b7160e01b8952604188528389fd5b8780fd5b8380fd5b509034610133576020366003190112610133578060a0938335815260036020522060ff6001820154169260028201549260056003840154928401549301549361075182518097610c84565b602086015284015260608301526080820152f35b509161077036610c69565b929060019160028354146109a557600283558184526020916005835260ff82862054161561096a57845260039485835281852060ff858201541660058110156109575785036109145785968690600283018054925b8381106108dc575b50505050909192939495156108a8576008908287526007810185528387206107f6348254610f6c565b90553387520183528185209085528252808420610814348254610f6c565b905533845284825280842080549084820180921161089557553384528482528084205460001981019290831161088257907f5b88a2e3fc1a53234357ab78c104df11c33ccfa79886793654565ad70b8afb6e91863387528152818620549082519485528401523392a2805580f35b634e487b7160e01b855260118652602485fd5b634e487b7160e01b865260118752602486fd5b825162461bcd60e51b8152808801859052600e60248201526d24b73b30b634b21037b83a34b7b760911b6044820152606490fd5b856108e78284610f54565b905490851b1c14610900576108fb90610ee2565b6107c5565b5096985088965038915081905080806107cd565b825162461bcd60e51b8152808901859052601960248201527f4e6f742061206d756c74692d63686f696365206d61726b6574000000000000006044820152606490fd5b634e487b7160e01b875260218952602487fd5b815162461bcd60e51b8152808801849052601560248201527413585c9ad95d08191bd95cc81b9bdd08195e1a5cdd605a1b6044820152606490fd5b51633ee5aeb560e01b81528590fd5b509034610133576080366003190112610133578135906024356044356109d8610d0b565b838652602094600586526109f260ff858920541615610e9e565b82821115610a9657837f6fa8ac7c105c459efdfee6428419da0f54dcf1345f66badb256a6f5ae5f1e45d949386937f2bc905c6311a6eb2c21327f9ffaf269f1c630b255affdc6b60dbffa0ad7aec7093858b5260038a52816005858d2088815585600182019460ff1995600387825416179055820155015560058a526001848c2091825416179055825191825288820152a28051936003855242908501523393a380f35b835162461bcd60e51b8152908101869052600d60248201526c496e76616c69642072616e676560981b6044820152606490fd5b50919034610160578060031936011261016057610ae4610cbd565b90336001600160a01b03831603610b0157506101ca919235610e29565b5163334bd91960e11b81528390fd5b5090346101335780600319360112610133576101ca9135610b3460016101b4610cbd565b610dab565b50346101335760203660031901126101335760209282916001600160a01b03610125610ca7565b509034610133576020366003190112610133578060a0938335815260036020522080549260ff60018301541692610bae60056003850154938501549401549482519687526020870190610c84565b84015260608301526080820152f35b503461013357602036600319011261013357816020936001923581528085522001549051908152f35b5050346101605780602092610bfa36610c69565b90825260038552600783832001908252845220549051908152f35b92505034610133576020366003190112610133573563ffffffff60e01b81168091036101335760209250637965db0b60e01b8114908115610c58575b5015158152f35b6301ffc9a760e01b14905038610c51565b6040906003190112610c7f576004359060243590565b600080fd5b906005821015610c915752565b634e487b7160e01b600052602160045260246000fd5b600435906001600160a01b0382168203610c7f57565b602435906001600160a01b0382168203610c7f57565b90601f8019910116810190811067ffffffffffffffff821117610cf557604052565b634e487b7160e01b600052604160045260246000fd5b3360009081527f2412b2af58bf3b93d578a423d333d33fb94fb5093f9cda1aed2eaafb3215f92960205260409020547fd3065a24ad9e7725d223007135762d2902038999e3e5829146654498a58d97959060ff1615610d675750565b6044906040519063e2517d3f60e01b82523360048301526024820152fd5b80600052600060205260406000203360005260205260ff6040600020541615610d675750565b9060009180835282602052604083209160018060a01b03169182845260205260ff60408420541615600014610e2457808352826020526040832082845260205260408320600160ff198254161790557f2f8788117e7eff1d82e926ec794901d17c78024a50270940304540a733656f0d339380a4600190565b505090565b9060009180835282602052604083209160018060a01b03169182845260205260ff604084205416600014610e245780835282602052604083208284526020526040832060ff1981541690557ff6391f5c32d9c69d2a47ea670b442974b53935d1edc7fd64eb21e047a839171b339380a4600190565b15610ea557565b60405162461bcd60e51b81526020600482015260156024820152744d61726b657420616c72656164792065786973747360581b6044820152606490fd5b6000198114610ef15760010190565b634e487b7160e01b600052601160045260246000fd5b8051821015610f1b5760209160051b010190565b634e487b7160e01b600052603260045260246000fd5b60005b838110610f445750506000910152565b8181015183820152602001610f34565b8054821015610f1b5760005260206000200190600090565b91908201809211610ef15756fea26469706673582212203a3191461137b0bf6ecf57bbc980c1dd7468d59cd2fa1841191a8a44fee857b864736f6c634300081400332f8788117e7eff1d82e926ec794901d17c78024a50270940304540a733656f0d",
  "linkReferences": {},
  "deployedLinkReferences": {}
}