{
  "_format": "hh-sol-artifact-1",
  "contractName": "AdvancedMarkets",
  "sourceName": "contracts/src/AdvancedMarkets.sol",
  "abi": [
    {
      "inputs": [
        {
          "internalType": "address",
          "name": "_predictionMarket",
          "type": "address"
        }
      ],
      "stateMutability": "nonpayable",
      "type": "constructor"
    },
    {
      "inputs": [],
      "name": "AccessControlBadConfirmation",
      "type": "error"
    },
    {
      "inputs": [
        {
          "internalType": "address",
          "name": "account",
          "type": "address"
        },
        {
          "internalType": "bytes32",
          "name": "neededRole",
          "type": "bytes32"
        }
      ],
      "name": "AccessControlUnauthorizedAccount",
      "type": "error"
    },
    {
      "inputs": [],
      "name": "ReentrancyGuardReentrantCall",
      "type": "error"
    },
    {
      "anonymous": false,
      "inputs": [
        {
          "indexed": true,
          "internalType": "bytes32",
          "name": "marketId",
          "type": "bytes32"
        },
        {
          "indexed": false,
          "internalType": "enum AdvancedMarkets.MarketType",
          "name": "marketType",
          "type": "uint8"
        },
        {
          "indexed": true,
          "internalType": "address",
          "name": "creator",
          "type": "address"
        },
        {
          "indexed": false,
          "internalType": "uint256",
          "name": "timestamp",
          "type": "uint256"
        }
      ],
      "name": "AdvancedMarketCreated",
      "type": "event"
    },
    {
      "anonymous": false,
      "inputs": [
        {
          "indexed": true,
          "internalType": "bytes32",
          "name": "marketId",
          "type": "bytes32"
        },
        {
          "indexed": true,
          "internalType": "bytes32",
          "name": "dependsOnMarketId",
          "type": "bytes32"
        }
      ],
      "name": "ConditionalMarketLinked",
      "type": "event"
    },
    {
      "anonymous": false,
      "inputs": [
        {
          "indexed": true,
          "internalType": "address",
          "name": "admin",
          "type": "address"
        },
        {
          "indexed": false,
          "internalType": "uint256",
          "name": "amount",
          "type": "uint256"
        }
      ],
      "name": "EmergencyWithdrawal",
      "type": "event"
    },
    {
      "anonymous": false,
      "inputs": [
        {
          "indexed": true,
          "internalType": "bytes32",
          "name": "marketId",
          "type": "bytes32"
        },
        {
          "indexed": true,
          "internalType": "bytes32",
          "name": "winningOptionId",
          "type": "bytes32"
        },
        {
          "indexed": false,
          "internalType": "uint256",
          "name": "totalStake",
          "type": "uint256"
        }
      ],
      "name": "MarketResolved",
      "type": "event"
    },
    {
      "anonymous": false,
      "inputs": [
        {
          "indexed": true,
          "internalType": "bytes32",
          "name": "marketId",
          "type": "bytes32"
        },
        {
          "indexed": false,
          "internalType": "bytes32",
          "name": "optionId",
          "type": "bytes32"
        },
        {
          "indexed": false,
          "internalType": "string",
          "name": "optionText",
          "type": "string"
        }
      ],
      "name": "MultiChoiceOptionAdded",
      "type": "event"
    },
    {
      "anonymous": false,
      "inputs": [
        {
          "indexed": true,
          "internalType": "bytes32",
          "name": "marketId",
          "type": "bytes32"
        },
        {
          "indexed": false,
          "internalType": "uint256",
          "name": "minValue",
          "type": "uint256"
        },
        {
          "indexed": false,
          "internalType": "uint256",
          "name": "maxValue",
          "type": "uint256"
        }
      ],
      "name": "RangeMarketCreated",
      "type": "event"
    },
    {
      "anonymous": false,
      "inputs": [
        {
          "indexed": true,
          "internalType": "address",
          "name": "user",
          "type": "address"
        },
        {
          "indexed": false,
          "internalType": "uint256",
          "name": "oldReputation",
          "type": "uint256"
        },
        {
          "indexed": false,
          "internalType": "uint256",
          "name": "newReputation",
          "type": "uint256"
        }
      ],
      "name": "ReputationUpdated",
      "type": "event"
    },
    {
      "anonymous": false,
      "inputs": [
        {
          "indexed": true,
          "internalType": "bytes32",
          "name": "role",
          "type": "bytes32"
        },
        {
          "indexed": true,
          "internalType": "bytes32",
          "name": "previousAdminRole",
          "type": "bytes32"
        },
        {
          "indexed": true,
          "internalType": "bytes32",
          "name": "newAdminRole",
          "type": "bytes32"
        }
      ],
      "name": "RoleAdminChanged",
      "type": "event"
    },
    {
      "anonymous": false,
      "inputs": [
        {
          "indexed": true,
          "internalType": "bytes32",
          "name": "role",
          "type": "bytes32"
        },
        {
          "indexed": true,
          "internalType": "address",
          "name": "account",
          "type": "address"
        },
        {
          "indexed": true,
          "internalType": "address",
          "name": "sender",
          "type": "address"
        }
      ],
      "name": "RoleGranted",
      "type": "event"
    },
    {
      "anonymous": false,
      "inputs": [
        {
          "indexed": true,
          "internalType": "bytes32",
          "name": "role",
          "type": "bytes32"
        },
        {
          "indexed": true,
          "internalType": "address",
          "name": "account",
          "type": "address"
        },
        {
          "indexed": true,
          "internalType": "address",
          "name": "sender",
          "type": "address"
        }
      ],
      "name": "RoleRevoked",
      "type": "event"
    },
    {
      "anonymous": false,
      "inputs": [
        {
          "indexed": true,
          "internalType": "bytes32",
          "name": "marketId",
          "type": "bytes32"
        },
        {
          "indexed": true,
          "internalType": "address",
          "name": "user",
          "type": "address"
        },
        {
          "indexed": false,
          "internalType": "uint256",
          "name": "amount",
          "type": "uint256"
        }
      ],
      "name": "WinningsClaimed",
      "type": "event"
    },
    {
      "inputs": [],
      "name": "DEFAULT_ADMIN_ROLE",
      "outputs": [
        {
          "internalType": "bytes32",
          "name": "",
          "type": "bytes32"
        }
      ],
      "stateMutability": "view",
      "type": "function"
    },
    {
      "inputs": [],
      "name": "MARKET_CREATOR_ROLE",
      "outputs": [
        {
          "internalType": "bytes32",
          "name": "",
          "type": "bytes32"
        }
      ],
      "stateMutability": "view",
      "type": "function"
    },
    {
      "inputs": [
        {
          "internalType": "bytes32",
          "name": "",
          "type": "bytes32"
        }
      ],
      "name": "advancedMarkets",
      "outputs": [
        {
          "internalType": "bytes32",
          "name": "marketId",
          "type": "bytes32"
        },
        {
          "internalType": "enum AdvancedMarkets.MarketType",
          "name": "marketType",
          "type": "uint8"
        },
        {
          "internalType": "bytes32",
          "name": "dependsOn",
          "type": "bytes32"
        },
        {
          "internalType": "uint256",
          "name": "minValue",
          "type": "uint256"
        },
        {
          "internalType": "uint256",
          "name": "maxValue",
          "type": "uint256"
        }
      ],
      "stateMutability": "view",
      "type": "function"
    },
    {
      "inputs": [
        {
          "internalType": "bytes32",
          "name": "marketId",
          "type": "bytes32"
        },
        {
          "internalType": "bytes32",
          "name": "optionId",
          "type": "bytes32"
        }
      ],
      "name": "betOnOption",
      "outputs": [],
      "stateMutability": "payable",
      "type": "function"
    },
    {
      "inputs": [
        {
          "internalType": "address",
          "name": "user",
          "type": "address"
        }
      ],
      "name": "calculateReputation",
      "outputs": [
        {
          "internalType": "uint256",
          "name": "",
          "type": "uint256"
        }
      ],
      "stateMutability": "view",
      "type": "function"
    },
    {
      "inputs": [
        {
          "internalType": "bytes32",
          "name": "marketId",
          "type": "bytes32"
        }
      ],
      "name": "claimMultiChoiceWinnings",
      "outputs": [],
      "stateMutability": "nonpayable",
      "type": "function"
    },
    {
      "inputs": [
        {
          "internalType": "bytes32",
          "name": "marketId",
          "type": "bytes32"
        },
        {
          "internalType": "bytes32",
          "name": "dependsOnMarketId",
          "type": "bytes32"
        },
        {
          "internalType": "uint256",
          "name": "endTime",
          "type": "uint256"
        }
      ],
      "name": "createConditionalMarket",
      "outputs": [],
      "stateMutability": "nonpayable",
      "type": "function"
    },
    {
      "inputs": [
        {
          "internalType": "bytes32",
          "name": "marketId",
          "type": "bytes32"
        },
        {
          "internalType": "string[]",
          "name": "options",
          "type": "string[]"
        },
        {
          "internalType": "uint256",
          "name": "endTime",
          "type": "uint256"
        }
      ],
      "name": "createMultiChoiceMarket",
      "outputs": [],
      "stateMutability": "nonpayable",
      "type": "function"
    },
    {
      "inputs": [
        {
          "internalType": "bytes32",
          "name": "marketId",
          "type": "bytes32"
        },
        {
          "internalType": "uint256",
          "name": "minValue",
          "type": "uint256"
        },
        {
          "internalType": "uint256",
          "name": "maxValue",
          "type": "uint256"
        },
        {
          "internalType": "uint256",
          "name": "endTime",
          "type": "uint256"
        }
      ],
      "name": "createRangeMarket",
      "outputs": [],
      "stateMutability": "nonpayable",
      "type": "function"
    },
    {
      "inputs": [],
      "name": "emergencyWithdraw",
      "outputs": [],
      "stateMutability": "nonpayable",
      "type": "function"
    },
    {
      "inputs": [
        {
          "internalType": "bytes32",
          "name": "marketId",
          "type": "bytes32"
        }
      ],
      "name": "getAdvancedMarket",
      "outputs": [
        {
          "internalType": "enum AdvancedMarkets.MarketType",
          "name": "marketType",
          "type": "uint8"
        },
        {
          "internalType": "uint256",
          "name": "optionCount",
          "type": "uint256"
        },
        {
          "internalType": "bytes32",
          "name": "dependsOn",
          "type": "bytes32"
        },
        {
          "internalType": "uint256",
          "name": "minValue",
          "type": "uint256"
        },
        {
          "internalType": "uint256",
          "name": "maxValue",
          "type": "uint256"
        }
      ],
      "stateMutability": "view",
      "type": "function"
    },
    {
      "inputs": [
        {
          "internalType": "bytes32",
          "name": "marketId",
          "type": "bytes32"
        },
        {
          "internalType": "bytes32",
          "name": "optionId",
          "type": "bytes32"
        }
      ],
      "name": "getOptionStake",
      "outputs": [
        {
          "internalType": "uint256",
          "name": "",
          "type": "uint256"
        }
      ],
      "stateMutability": "view",
      "type": "function"
    },
    {
      "inputs": [
        {
          "internalType": "bytes32",
          "name": "marketId",
          "type": "bytes32"
        },
        {
          "internalType": "address",
          "name": "user",
          "type": "address"
        }
      ],
      "name": "getPotentialPayout",
      "outputs": [
        {
          "internalType": "uint256",
          "name": "",
          "type": "uint256"
        }
      ],
      "stateMutability": "view",
      "type": "function"
    },
    {
      "inputs": [
        {
          "internalType": "bytes32",
          "name": "role",
          "type": "bytes32"
        }
      ],
      "name": "getRoleAdmin",
      "outputs": [
        {
          "internalType": "bytes32",
          "name": "",
          "type": "bytes32"
        }
      ],
      "stateMutability": "view",
      "type": "function"
    },
    {
      "inputs": [
        {
          "internalType": "bytes32",
          "name": "marketId",
          "type": "bytes32"
        },
        {
          "internalType": "address",
          "name": "user",
          "type": "address"
        },
        {
          "internalType": "bytes32",
          "name": "optionId",
          "type": "bytes32"
        }
      ],
      "name": "getUserOptionBet",
      "outputs": [
        {
          "internalType": "uint256",
          "name": "",
          "type": "uint256"
        }
      ],
      "stateMutability": "view",
      "type": "function"
    },
    {
      "inputs": [
        {
          "internalType": "bytes32",
          "name": "role",
          "type": "bytes32"
        },
        {
          "internalType": "address",
          "name": "account",
          "type": "address"
        }
      ],
      "name": "grantRole",
      "outputs": [],
      "stateMutability": "nonpayable",
      "type": "function"
    },
    {
      "inputs": [
        {
          "internalType": "bytes32",
          "name": "",
          "type": "bytes32"
        },
        {
          "internalType": "address",
          "name": "",
          "type": "address"
        }
      ],
      "name": "hasClaimed",
      "outputs": [
        {
          "internalType": "bool",
          "name": "",
          "type": "bool"
        }
      ],
      "stateMutability": "view",
      "type": "function"
    },
    {
      "inputs": [
        {
          "internalType": "bytes32",
          "name": "role",
          "type": "bytes32"
        },
        {
          "internalType": "address",
          "name": "account",
          "type": "address"
        }
      ],
      "name": "hasRole",
      "outputs": [
        {
          "internalType": "bool",
          "name": "",
          "type": "bool"
        }
      ],
      "stateMutability": "view",
      "type": "function"
    },
    {
      "inputs": [
        {
          "internalType": "bytes32",
          "name": "",
          "type": "bytes32"
        }
      ],
      "name": "marketExists",
      "outputs": [
        {
          "internalType": "bool",
          "name": "",
          "type": "bool"
        }
      ],
      "stateMutability": "view",
      "type": "function"
    },
    {
      "inputs": [
        {
          "internalType": "bytes32",
          "name": "",
          "type": "bytes32"
        }
      ],
      "name": "marketResolved",
      "outputs": [
        {
          "internalType": "bool",
          "name": "",
          "type": "bool"
        }
      ],
      "stateMutability": "view",
      "type": "function"
    },
    {
      "inputs": [
        {
          "internalType": "bytes32",
          "name": "",
          "type": "bytes32"
        }
      ],
      "name": "marketTotalStake",
      "outputs": [
        {
          "internalType": "uint256",
          "name": "",
          "type": "uint256"
        }
      ],
      "stateMutability": "view",
      "type": "function"
    },
    {
      "inputs": [],
      "name": "predictionMarket",
      "outputs": [
        {
          "internalType": "contract EnhancedPredictionMarket",
          "name": "",
          "type": "address"
        }
      ],
      "stateMutability": "view",
      "type": "function"
    },
    {
      "inputs": [
        {
          "internalType": "bytes32",
          "name": "role",
          "type": "bytes32"
        },
        {
          "internalType": "address",
          "name": "callerConfirmation",
          "type": "address"
        }
      ],
      "name": "renounceRole",
      "outputs": [],
      "stateMutability": "nonpayable",
      "type": "function"
    },
    {
      "inputs": [
        {
          "internalType": "bytes32",
          "name": "marketId",
          "type": "bytes32"
        },
        {
          "internalType": "bytes32",
          "name": "winningOptionId",
          "type": "bytes32"
        }
      ],
      "name": "resolveMultiChoiceMarket",
      "outputs": [],
      "stateMutability": "nonpayable",
      "type": "function"
    },
    {
      "inputs": [
        {
          "internalType": "bytes32",
          "name": "role",
          "type": "bytes32"
        },
        {
          "internalType": "address",
          "name": "account",
          "type": "address"
        }
      ],
      "name": "revokeRole",
      "outputs": [],
      "stateMutability": "nonpayable",
      "type": "function"
    },
    {
      "inputs": [
        {
          "internalType": "bytes4",
          "name": "interfaceId",
          "type": "bytes4"
        }
      ],
      "name": "supportsInterface",
      "outputs": [
        {
          "internalType": "bool",
          "name": "",
          "type": "bool"
        }
      ],
      "stateMutability": "view",
      "type": "function"
    },
    {
      "inputs": [
        {
          "internalType": "address",
          "name": "",
          "type": "address"
        }
      ],
      "name": "userReputation",
      "outputs": [
        {
          "internalType": "uint256",
          "name": "",
          "type": "uint256"
        }
      ],
      "stateMutability": "view",
      "type": "function"
    },
    {
      "inputs": [
        {
          "internalType": "bytes32",
          "name": "",
          "type": "bytes32"
        }
      ],
      "name": "winningOption",
      "outputs": [
        {
          "internalType": "bytes32",
          "name": "",
          "type": "bytes32"
        }
      ],
      "stateMutability": "view",
      "type": "function"
    }
  ],
  "bytecode": "0x6080346200009657601f6200195d38819003918201601f19168301916001600160401b038311848410176200009b578084926020946040528339810103126200009657516001600160a01b03811690819003620000965760018055600280546001600160a01b0319169190911790556200007933620000b1565b50620000853362000131565b506040516117699081620001d48239f35b600080fd5b634e487b7160e01b600052604160045260246000fd5b6001600160a01b031660008181527fad3228b676f7d3cd4284a5443f17f1962b36e491b30a40b2405849e597ba5fb5602052604081205490919060ff166200012d57818052816020526040822081835260205260408220600160ff1982541617905533916000805160206200193d8339815191528180a4600190565b5090565b6001600160a01b031660008181527f2412b2af58bf3b93d578a423d333d33fb94fb5093f9cda1aed2eaafb3215f92960205260408120549091907fd3065a24ad9e7725d223007135762d2902038999e3e5829146654498a58d97959060ff16620001ce57808352826020526040832082845260205260408320600160ff198254161790556000805160206200193d833981519152339380a4600190565b50509056fe6080604081815260048036101561001557600080fd5b600092833560e01c90816301ffc9a7146111325750806309a22aa2146111035780631c15fcd614610ef6578063248a9ca314610ecd57806326ba5be314610e7057806327c06fd5146101815780632f2ff15d14610e4757806336568abe14610e005780633ac16aac14610ceb5780633e19fefe14610ab65780634934e89d14610946578063582fc525146108e75780635ef20397146108c05780638c93344f146108945780638f530c851461057e57806391d148541461053957806392a42d1d146104f3578063a217fddf146104d8578063a415c485146104a6578063a6e6599314610457578063a88ab6c314610338578063ae42820c146102fd578063d547741f146102bf578063d8d0398914610293578063db2e21bc146101e3578063def114b6146101b6578063e503bb05146101815763fdb989711461015757600080fd5b3461017d57602036600319011261017d5760209282913581526008845220549051908152f35b8280fd5b503461017d57602036600319011261017d5760209282916001600160a01b036101a86111c4565b168252845220549051908152f35b5050346101df57816003193601126101df5760025490516001600160a01b039091168152602090f35b5080fd5b50903461017d578260031936011261017d576101fd6112be565b6102056115c8565b4791821561025857506102278380808086335af161022161161e565b5061164e565b519081527f23d6711a1d031134a36921253c75aa59e967d38e369ac625992824315e204f2060203392a26001805580f35b6020606492519162461bcd60e51b835282015260166024820152754e6f2062616c616e636520746f20776974686472617760501b6044820152fd5b503461017d57602036600319011261017d578160209360ff923581526005855220541690519015158152f35b50903461017d578060031936011261017d576102f991356102f460016102e36111da565b9383875286602052862001546112f8565b61139c565b5080f35b5050346101df57816003193601126101df57602090517fd3065a24ad9e7725d223007135762d2902038999e3e5829146654498a58d97958152f35b50903461017d57606036600319011261017d578135906024359261035a611244565b8285526020906005825261037460ff848820541615611411565b8486526005825260ff8387205416156104165750907f6fa8ac7c105c459efdfee6428419da0f54dcf1345f66badb256a6f5ae5f1e45d9183865260038152818620848155856003600183019260ff1993600285825416179055015560058252600183882091825416179055815194847f8a2ae5f895767f00b73dd65ca821ea078d63b585805751a439f2a3b1a35681ac8880a36002855242908501523393a380f35b915162461bcd60e51b815291820152601f60248201527f446570656e64656e74206d61726b657420646f6573206e6f74206578697374006044820152606490fd5b503461017d57606036600319011261017d5760209282916104766111da565b90358252600385528282206001600160a01b03909116825260080184528181206044358252845220549051908152f35b5091346104d557816003193601126104d557506104ce6020926104c76111da565b903561168c565b9051908152f35b80fd5b5050346101df57816003193601126101df5751908152602090f35b503461017d578160031936011261017d578160209360ff926105136111da565b90358252600986528282206001600160a01b039091168252855220549151911615158152f35b503461017d578160031936011261017d578160209360ff926105596111da565b903582528186528282206001600160a01b039091168252855220549151911615158152f35b50903461017d576060908160031936011261089057823591602480359167ffffffffffffffff9081841161088c573660238501121561088c57838701359382851161087a578460051b8651936020966105d9888401876111f0565b8552858786019284010192368411610876578b878201935b85851061081657505050505050610606611244565b8588526005845261061d60ff868a20541615611411565b81516002811015908161080a575b50156107d15785885260038085528589208781556001808201805460ff199081168317909155959a9990989796959492916002018a8a5b6106b0575b8b8b8b7f6fa8ac7c105c459efdfee6428419da0f54dcf1345f66badb256a6f5ae5f1e45d8c8c8c848752600582528583882091825416179055815194855242908501523393a380f35b84518110156107cc5789816106fc888c8c6106ed6106ce868d61147a565b51918351968794828601998a52850152825192839186860191016114a4565b8101038d8101845201826111f0565b5190208254680100000000000000008110156107ba57918b8d9e9f938c8c9d9e9f9b9c6107ad958c9161079b8f888f8f6107608f9a7ffca87d3a5e5a7eb6cc97303278d2def5adb14684215ce3d3f0fdf0ad2a03aa5c9b61077a96820181556114c7565b81929154911b9088821b91600019901b191617905561147a565b519480519586948552818486015280519384809387015286860191016114a4565b601f01601f19168101030190a2611455565b909c9b9a99989796610662565b634e487b7160e01b8e52604185528e8efd5b610667565b845162461bcd60e51b815280880185905260148185015273125b9d985b1a59081bdc1d1a5bdb8818dbdd5b9d60621b6044820152606490fd5b600a915011153861062b565b843584811161017d578301903660438301121561017d578b8a8301359361084861083f86611228565b925192836111f0565b8482526044368187870101116101df57858e9687969287930183860137830101528152019301928c906105f1565b8b80fd5b634e487b7160e01b8952604188528389fd5b8780fd5b8380fd5b503461017d57602036600319011261017d578160209360ff923581526006855220541690519015158152f35b503461017d57602036600319011261017d5760209282913581526007845220549051908152f35b50903461017d57602036600319011261017d578060a0938335815260036020522060ff60018201541692600282015492600560038401549284015493015493610932825180976111a1565b602086015284015260608301526080820152f35b50903461017d5761095636611186565b9161095f6112be565b8185526020906005825261097860ff82882054166114df565b8286526006825261098f60ff828820541615611523565b8286526003948583528187209060019160ff83820154166005811015610aa357836109ba911461156f565b889760028a92018054925b838110610a6b575b5050505090919293949515610a2f5750907f4c0ae238f67b2112791d959bb102a0b0600c3a53837c3d7931958d562a63b9d19291848752600683528187209060ff1982541617905560078252848187205560088252808620549051908152a380f35b825162461bcd60e51b8152908101849052601660248201527524b73b30b634b2103bb4b73734b7339037b83a34b7b760511b6044820152606490fd5b89610a7682846114c7565b905490851b1c14610a8f57610a8a90611455565b6109c5565b5093985088935038915081905080806109cd565b634e487b7160e01b8a526021835260248afd5b5091610ac136611186565b9092610acb6115c8565b83835260209060058252610ae460ff82862054166114df565b84845260068252610afb60ff828620541615611523565b3415610cb1578484526003948583528185209360019460ff86820154166005811015610c9e5786610b2c911461156f565b86978790600283018054925b838110610c66575b505050509091929394959615610c3257600890828852600781018652848820610b6a3482546115bb565b90553388520184528286209086528352818520610b883482546115bb565b9055845260088252808420610b9e3482546115bb565b9055338452848252808420805490848201809211610c1f575533845284825280842054600019810192908311610c0c57907f5b88a2e3fc1a53234357ab78c104df11c33ccfa79886793654565ad70b8afb6e91863387528152818620549082519485528401523392a2805580f35b634e487b7160e01b855260118652602485fd5b634e487b7160e01b865260118752602486fd5b835162461bcd60e51b8152808901869052600e60248201526d24b73b30b634b21037b83a34b7b760911b6044820152606490fd5b85610c7182846114c7565b905490851b1c14610c8a57610c8590611455565b610b38565b509799508997503891508190508080610b40565b634e487b7160e01b885260218a52602488fd5b5162461bcd60e51b8152808601919091526014602482015273135d5cdd081cd95b9908115512081d1bc818995d60621b6044820152606490fd5b50903461017d57608036600319011261017d57813590602435604435610d0f611244565b83865260209460058652610d2960ff858920541615611411565b82821115610dcd57837f6fa8ac7c105c459efdfee6428419da0f54dcf1345f66badb256a6f5ae5f1e45d949386937f2bc905c6311a6eb2c21327f9ffaf269f1c630b255affdc6b60dbffa0ad7aec7093858b5260038a52816005858d2088815585600182019460ff1995600387825416179055820155015560058a526001848c2091825416179055825191825288820152a28051936003855242908501523393a380f35b835162461bcd60e51b8152908101869052600d60248201526c496e76616c69642072616e676560981b6044820152606490fd5b509190346101df57806003193601126101df57610e1b6111da565b90336001600160a01b03831603610e3857506102f991923561139c565b5163334bd91960e11b81528390fd5b50903461017d578060031936011261017d576102f99135610e6b60016102e36111da565b61131e565b50903461017d57602036600319011261017d578060a0938335815260036020522080549260ff60018301541692610ebe600560038501549385015494015494825196875260208701906111a1565b84015260608301526080820152f35b503461017d57602036600319011261017d57816020936001923581528085522001549051908152f35b503461017d5760208060031936011261089057813591610f146115c8565b82855260058252610f2a60ff85872054166114df565b8285526006825260ff8486205416156110c25782855260098252838520338652825260ff848620541661108f578285526003825283852060078352848620549033875260088101845285872082885284528587205491821561105b57875260070183528486205491821561101857507fac1dfcff29900d7010c04a6028e48814b8a49daf045127abd10a4636d1d491159291610fd4610fd9928689526008855287892054906115eb565b6115fe565b93838652600982528086203387528252808620600160ff1982541617905561100a8680808089335af161022161161e565b519384523393a36001805580f35b855162461bcd60e51b8152908101849052601b60248201527f4e6f207374616b6573206f6e2077696e6e696e67206f7074696f6e00000000006044820152606490fd5b865162461bcd60e51b8152808501869052600e60248201526d139bc81dda5b9b9a5b99c818995d60921b6044820152606490fd5b60649184519162461bcd60e51b8352820152600f60248201526e105b1c9958591e4818db185a5b5959608a1b6044820152fd5b60649184519162461bcd60e51b8352820152601760248201527f4d61726b6574206e6f7420796574207265736f6c7665640000000000000000006044820152fd5b5050346101df578060209261111736611186565b90825260038552600783832001908252845220549051908152f35b9250503461017d57602036600319011261017d573563ffffffff60e01b811680910361017d5760209250637965db0b60e01b8114908115611175575b5015158152f35b6301ffc9a760e01b1490503861116e565b604090600319011261119c576004359060243590565b600080fd5b9060058210156111ae5752565b634e487b7160e01b600052602160045260246000fd5b600435906001600160a01b038216820361119c57565b602435906001600160a01b038216820361119c57565b90601f8019910116810190811067ffffffffffffffff82111761121257604052565b634e487b7160e01b600052604160045260246000fd5b67ffffffffffffffff811161121257601f01601f191660200190565b3360009081527f2412b2af58bf3b93d578a423d333d33fb94fb5093f9cda1aed2eaafb3215f92960205260409020547fd3065a24ad9e7725d223007135762d2902038999e3e5829146654498a58d97959060ff16156112a05750565b6044906040519063e2517d3f60e01b82523360048301526024820152fd5b3360009081527fad3228b676f7d3cd4284a5443f17f1962b36e491b30a40b2405849e597ba5fb5602052604081205460ff16156112a05750565b80600052600060205260406000203360005260205260ff60406000205416156112a05750565b9060009180835282602052604083209160018060a01b03169182845260205260ff6040842054161560001461139757808352826020526040832082845260205260408320600160ff198254161790557f2f8788117e7eff1d82e926ec794901d17c78024a50270940304540a733656f0d339380a4600190565b505090565b9060009180835282602052604083209160018060a01b03169182845260205260ff6040842054166000146113975780835282602052604083208284526020526040832060ff1981541690557ff6391f5c32d9c69d2a47ea670b442974b53935d1edc7fd64eb21e047a839171b339380a4600190565b1561141857565b60405162461bcd60e51b81526020600482015260156024820152744d61726b657420616c72656164792065786973747360581b6044820152606490fd5b60001981146114645760010190565b634e487b7160e01b600052601160045260246000fd5b805182101561148e5760209160051b010190565b634e487b7160e01b600052603260045260246000fd5b60005b8381106114b75750506000910152565b81810151838201526020016114a7565b805482101561148e5760005260206000200190600090565b156114e657565b60405162461bcd60e51b815260206004820152601560248201527413585c9ad95d08191bd95cc81b9bdd08195e1a5cdd605a1b6044820152606490fd5b1561152a57565b60405162461bcd60e51b815260206004820152601760248201527f4d61726b657420616c7265616479207265736f6c7665640000000000000000006044820152606490fd5b1561157657565b60405162461bcd60e51b815260206004820152601960248201527f4e6f742061206d756c74692d63686f696365206d61726b6574000000000000006044820152606490fd5b9190820180921161146457565b6002600154146115d9576002600155565b604051633ee5aeb560e01b8152600490fd5b8181029291811591840414171561146457565b8115611608570490565b634e487b7160e01b600052601260045260246000fd5b3d15611649573d9061162f82611228565b9161163d60405193846111f0565b82523d6000602084013e565b606090565b1561165557565b60405162461bcd60e51b815260206004820152600f60248201526e151c985b9cd9995c8819985a5b1959608a1b6044820152606490fd5b60009181835260206006815260409060ff82862054161561172c57600981528185206001600160a01b039093168086529281528185205460ff1661172c57838552600381528185209260078252828620549086526008840182528286209086528152818520549283156117245760070181528185205493841561172457946008610fd4949392611721978352522054906115eb565b90565b505050505090565b505050509056fea26469706673582212206569e7c8f516e696858ab27643352014e58fa0e74a18e756ef9ae99cc671faaa64736f6c634300081400332f8788117e7eff1d82e926ec794901d17c78024a50270940304540a733656f0d",
  "linkReferences": {},
  "deployedLinkReferences": {}
}