{
  "_format": "hh-sol-artifact-1",
  "contractName": "TestMarketWithPayouts",
  "sourceName": "contracts/src/TestMarketWithPayouts.sol",
  "abi": [
    {
      "inputs": [
        {
          "internalType": "address",
          "name": "_payoutManager",
          "type": "address"
        }
      ],
      "stateMutability": "nonpayable",
      "type": "constructor"
    },
    {
      "anonymous": false,
      "inputs": [
        {
          "indexed": true,
          "internalType": "uint256",
          "name": "marketId",
          "type": "uint256"
        },
        {
          "indexed": false,
          "internalType": "address",
          "name": "creator",
          "type": "address"
        },
        {
          "indexed": false,
          "internalType": "string",
          "name": "prediction",
          "type": "string"
        }
      ],
      "name": "MarketCreated",
      "type": "event"
    },
    {
      "anonymous": false,
      "inputs": [
        {
          "indexed": true,
          "internalType": "uint256",
          "name": "marketId",
          "type": "uint256"
        },
        {
          "indexed": false,
          "internalType": "string",
          "name": "actualResult",
          "type": "string"
        },
        {
          "indexed": false,
          "internalType": "uint256",
          "name": "platformFee",
          "type": "uint256"
        }
      ],
      "name": "MarketResolved",
      "type": "event"
    },
    {
      "anonymous": false,
      "inputs": [
        {
          "indexed": true,
          "internalType": "uint256",
          "name": "marketId",
          "type": "uint256"
        },
        {
          "indexed": false,
          "internalType": "uint256",
          "name": "amount",
          "type": "uint256"
        }
      ],
      "name": "PayoutDistributed",
      "type": "event"
    },
    {
      "inputs": [],
      "name": "PLATFORM_FEE_PERCENTAGE",
      "outputs": [
        {
          "internalType": "uint256",
          "name": "",
          "type": "uint256"
        }
      ],
      "stateMutability": "view",
      "type": "function"
    },
    {
      "inputs": [
        {
          "internalType": "uint256",
          "name": "marketId",
          "type": "uint256"
        }
      ],
      "name": "addVolume",
      "outputs": [],
      "stateMutability": "payable",
      "type": "function"
    },
    {
      "inputs": [
        {
          "internalType": "string",
          "name": "prediction",
          "type": "string"
        }
      ],
      "name": "createAndFundMarket",
      "outputs": [
        {
          "internalType": "uint256",
          "name": "",
          "type": "uint256"
        }
      ],
      "stateMutability": "payable",
      "type": "function"
    },
    {
      "inputs": [],
      "name": "emergencyWithdraw",
      "outputs": [],
      "stateMutability": "nonpayable",
      "type": "function"
    },
    {
      "inputs": [
        {
          "internalType": "uint256",
          "name": "marketId",
          "type": "uint256"
        }
      ],
      "name": "getMarket",
      "outputs": [
        {
          "internalType": "address",
          "name": "creator",
          "type": "address"
        },
        {
          "internalType": "uint256",
          "name": "totalVolume",
          "type": "uint256"
        },
        {
          "internalType": "uint256",
          "name": "platformFee",
          "type": "uint256"
        },
        {
          "internalType": "bool",
          "name": "resolved",
          "type": "bool"
        },
        {
          "internalType": "string",
          "name": "prediction",
          "type": "string"
        },
        {
          "internalType": "string",
          "name": "actualResult",
          "type": "string"
        }
      ],
      "stateMutability": "view",
      "type": "function"
    },
    {
      "inputs": [],
      "name": "marketCount",
      "outputs": [
        {
          "internalType": "uint256",
          "name": "",
          "type": "uint256"
        }
      ],
      "stateMutability": "view",
      "type": "function"
    },
    {
      "inputs": [
        {
          "internalType": "uint256",
          "name": "",
          "type": "uint256"
        }
      ],
      "name": "markets",
      "outputs": [
        {
          "internalType": "address",
          "name": "creator",
          "type": "address"
        },
        {
          "internalType": "uint256",
          "name": "totalVolume",
          "type": "uint256"
        },
        {
          "internalType": "uint256",
          "name": "platformFee",
          "type": "uint256"
        },
        {
          "internalType": "bool",
          "name": "resolved",
          "type": "bool"
        },
        {
          "internalType": "string",
          "name": "prediction",
          "type": "string"
        },
        {
          "internalType": "string",
          "name": "actualResult",
          "type": "string"
        }
      ],
      "stateMutability": "view",
      "type": "function"
    },
    {
      "inputs": [],
      "name": "payoutManager",
      "outputs": [
        {
          "internalType": "address",
          "name": "",
          "type": "address"
        }
      ],
      "stateMutability": "view",
      "type": "function"
    },
    {
      "inputs": [
        {
          "internalType": "uint256",
          "name": "marketId",
          "type": "uint256"
        },
        {
          "internalType": "string",
          "name": "actualResult",
          "type": "string"
        }
      ],
      "name": "resolveMarket",
      "outputs": [],
      "stateMutability": "nonpayable",
      "type": "function"
    }
  ],
  "bytecode": "0x60803461007457601f610e8d38819003918201601f19168301916001600160401b038311848410176100795780849260209460405283398101031261007457516001600160a01b0381169081900361007457600280546001600160a01b031916919091179055604051610dfd90816100908239f35b600080fd5b634e487b7160e01b600052604160045260246000fdfe608080604052600436101561001357600080fd5b600090813560e01c9081631554823214610add575080631cb4d561146107215780633083a8e3146106f857806385d21419146105ff578063b1283e771461059a578063c75bb724146101df578063db2e21bc1461014f578063eb44fdd3146100a45763ec9790821461008457600080fd5b346100a157806003193601126100a1576020600154604051908152f35b80fd5b50346100a15760203660031901126100a157604090600435815280602052206040516100cf81610af8565b61014b60018060a01b0391828454168152600184015492602082019384526002850154946040830195865260ff6003820154169160608401921515835261012b600561011d60048501610bee565b936080870194855201610bee565b938460a08201525116945195519151151590519160405196879687610cd4565b0390f35b50346100a157806003193601126100a157732b5fbac3caaf8937767b458ac6ed38cf0df6b6ef33036101a857808080804781811561019f575b3390f1156101935780f35b604051903d90823e3d90fd5b506108fc610188565b60405162461bcd60e51b815260206004820152600f60248201526e27b7363c903a32b9ba1037bbb732b960891b6044820152606490fd5b50346100a15760403660031901126100a15767ffffffffffffffff6024600435813583811161059657610216903690600401610b68565b8115158061058a575b61022890610d5a565b81855260209385855260ff60036040882001541661055357828652858552604086209260038401916001928360ff19825416179055600585018451828111610540576102748254610bb4565b601f81116104fa575b508089601f821160011461049d578b91610492575b50600019600383901b1c191690851b1790555b6002850193827f6f5d41f2a76d7bf6042360cc32e79d73794e0da4726370ae55bfc6470d6f17596102e6875493604051918291604083526040830190610c94565b858d8301520390a280610394575b50505082015490548082039180831161038157908693929103610315578280f35b9054829182918291906001600160a01b03165af1610331610d97565b501561033e578281808280f35b9060196064926040519262461bcd60e51b845260048401528201527f4661696c656420746f2073656e6420746f2063726561746f72000000000000006044820152fd5b634e487b7160e01b875260116004528487fd5b8880808060018060a01b039485600254165af16103af610d97565b50156104585790889160025416855490803b15610454578884926040519586938492636029bf9f60e01b845260048401525af1801561044957610422575b50507f2703ace359e89cb73a330208d4f9b64e82f078a6bebf4e8cc58a549fc64cfd21868454604051908152a23880806102f4565b8198929811610436576040529538806103ed565b634e487b7160e01b825260416004528582fd5b6040513d8b823e3d90fd5b8380fd5b60405162461bcd60e51b815260048101899052601381890152724661696c656420746f2073656e64206665657360681b6044820152606490fd5b905086015138610292565b838c528a8c2087935090601f1983168d5b8d8282106104e457505083116104cb575b5050811b0190556102a5565b88015160001960f88460031b161c1916905538806104bf565b838c015185558a969094019392830192016104ae565b828b52898b20601f830160051c8101918b8410610536575b601f0160051c019086905b82811061052b57505061027d565b8c815501869061051d565b9091508190610512565b634e487b7160e01b8a526041600452878afd5b60405162461bcd60e51b8152600481018690526010818601526f105b1c9958591e481c995cdbdb1d995960821b6044820152606490fd5b5060015482111561021f565b8480fd5b50346100a15760203660031901126100a1576040906004358152806020522060018060a01b0381541661014b60018301549260028101549060ff6003820154166105f260056105eb60048501610bee565b9301610bee565b9260405196879687610cd4565b5060203660031901126100a157600435801515806106ec575b61062190610d5a565b8082528160205260ff6003604084200154166106a757610642341515610d1e565b81528060205260408120600181018054903482018092116106935781905560078102908082046007149015171561067f5760646002910491015580f35b634e487b7160e01b83526011600452602483fd5b634e487b7160e01b84526011600452602484fd5b60405162461bcd60e51b815260206004820152601760248201527f4d61726b657420616c7265616479207265736f6c7665640000000000000000006044820152606490fd5b50600154811115610618565b50346100a157806003193601126100a1576002546040516001600160a01b039091168152602090f35b5060203660031901126100a15760043567ffffffffffffffff8111610ad95761074e903690600401610b68565b34159061075b8215610d1e565b600154916000198314610693576001830160015560073402903482046007141715610693576040519061078d82610af8565b3382526020820190348252606460408401910481526060830186815260808401918583526040516020810181811067ffffffffffffffff821117610ac55760405288815260a086015260018701885287602052604088209360018060a01b038651166bffffffffffffffffffffffff60a01b865416178555516001850155516002840155600383019051151560ff801983541691161790555180519067ffffffffffffffff8211610ab1576108456004840154610bb4565b601f8111610a6d575b50602090601f83116001146109fb57918060a094926005948a926109f0575b50508160011b916000199060031b1c19161760048201555b0191015180519067ffffffffffffffff82116109dc576108a58354610bb4565b601f8111610997575b50602095829187916001601f851114610935579261092a575b50508160011b916000199060031b1c19161790555b7fb143feb0c79e12e29a00674ccaf4e7e613c6fbc3b56b99a0e353faee3c0b8f786040513381526040858201528061091c60018601946040830190610c94565b0390a2600160405191018152f35b0151905038806108c7565b8581528881209350601f198516905b8181106109805750908460019594939210610967575b505050811b0190556108dc565b015160001960f88460031b161c1916905538808061095a565b929389600181928786015181550195019301610944565b83875260208720601f840160051c810191602085106109d2575b601f0160051c01905b8181106109c757506108ae565b8781556001016109ba565b90915081906109b1565b634e487b7160e01b86526041600452602486fd5b01519050388061086d565b906004840188526020882091885b601f1985168110610a5557509260a0949260019260059583601f19811610610a3c575b505050811b016004820155610885565b015160001960f88460031b161c19169055388080610a2c565b91926020600181928685015181550194019201610a09565b60048401885260208820601f840160051c810160208510610aaa575b601f830160051c82018110610a9f57505061084e565b898155600101610a89565b5080610a89565b634e487b7160e01b87526041600452602487fd5b634e487b7160e01b8a52604160045260248afd5b5080fd5b905034610ad95781600319360112610ad95780600760209252f35b60c0810190811067ffffffffffffffff821117610b1457604052565b634e487b7160e01b600052604160045260246000fd5b90601f8019910116810190811067ffffffffffffffff821117610b1457604052565b67ffffffffffffffff8111610b1457601f01601f191660200190565b81601f82011215610baf57803590610b7f82610b4c565b92610b8d6040519485610b2a565b82845260208383010111610baf57816000926020809301838601378301015290565b600080fd5b90600182811c92168015610be4575b6020831014610bce57565b634e487b7160e01b600052602260045260246000fd5b91607f1691610bc3565b9060405191826000825492610c0284610bb4565b908184526001948581169081600014610c715750600114610c2e575b5050610c2c92500383610b2a565b565b9093915060005260209081600020936000915b818310610c59575050610c2c93508201013880610c1e565b85548884018501529485019487945091830191610c41565b915050610c2c94506020925060ff191682840152151560051b8201013880610c1e565b919082519283825260005b848110610cc0575050826000602080949584010152601f8019910116010190565b602081830181015184830182015201610c9f565b949192610d0d93610d1b97959260018060a01b03168752602087015260408601521515606085015260c0608085015260c0840190610c94565b9160a0818403910152610c94565b90565b15610d2557565b60405162461bcd60e51b815260206004820152600d60248201526c09aeae6e840e6cadcc8408aa89609b1b6044820152606490fd5b15610d6157565b60405162461bcd60e51b815260206004820152600e60248201526d125b9d985b1a59081b585c9ad95d60921b6044820152606490fd5b3d15610dc2573d90610da882610b4c565b91610db66040519384610b2a565b82523d6000602084013e565b60609056fea2646970667358221220402d4196c777ec30b824f1ea5806144e668c66515c9f1f822d30c58f9473dc2e64736f6c63430008140033",
  "linkReferences": {},
  "deployedLinkReferences": {}
}