{
  "_format": "hh-sol-artifact-1",
  "contractName": "DistributedPayoutManager",
  "sourceName": "contracts/src/DistributedPayoutManager.sol",
  "abi": [
    {
      "inputs": [
        {
          "internalType": "address",
          "name": "_predictionMarket",
          "type": "address"
        },
        {
          "internalType": "address",
          "name": "_builderRewardPool",
          "type": "address"
        },
        {
          "internalType": "address",
          "name": "_bittensorRewardPool",
          "type": "address"
        },
        {
          "internalType": "address",
          "name": "_genesisNFT",
          "type": "address"
        }
      ],
      "stateMutability": "nonpayable",
      "type": "constructor"
    },
    {
      "inputs": [],
      "name": "EnforcedPause",
      "type": "error"
    },
    {
      "inputs": [],
      "name": "ExpectedPause",
      "type": "error"
    },
    {
      "inputs": [],
      "name": "ReentrancyGuardReentrantCall",
      "type": "error"
    },
    {
      "anonymous": false,
      "inputs": [
        {
          "indexed": true,
          "internalType": "address",
          "name": "creator",
          "type": "address"
        },
        {
          "indexed": false,
          "internalType": "uint256",
          "name": "amount",
          "type": "uint256"
        },
        {
          "indexed": false,
          "internalType": "uint256",
          "name": "marketId",
          "type": "uint256"
        }
      ],
      "name": "CreatorRewarded",
      "type": "event"
    },
    {
      "anonymous": false,
      "inputs": [
        {
          "indexed": true,
          "internalType": "uint256",
          "name": "marketId",
          "type": "uint256"
        },
        {
          "indexed": false,
          "internalType": "uint256",
          "name": "genesisRewards",
          "type": "uint256"
        },
        {
          "indexed": false,
          "internalType": "uint256",
          "name": "oracleRewards",
          "type": "uint256"
        },
        {
          "indexed": false,
          "internalType": "uint256",
          "name": "nodeRewards",
          "type": "uint256"
        },
        {
          "indexed": false,
          "internalType": "uint256",
          "name": "creatorReward",
          "type": "uint256"
        },
        {
          "indexed": false,
          "internalType": "uint256",
          "name": "builderPoolDeposit",
          "type": "uint256"
        },
        {
          "indexed": false,
          "internalType": "uint256",
          "name": "bittensorPoolDeposit",
          "type": "uint256"
        }
      ],
      "name": "FeesDistributed",
      "type": "event"
    },
    {
      "anonymous": false,
      "inputs": [
        {
          "indexed": true,
          "internalType": "address",
          "name": "holder",
          "type": "address"
        },
        {
          "indexed": false,
          "internalType": "uint256",
          "name": "amount",
          "type": "uint256"
        },
        {
          "indexed": false,
          "internalType": "uint256",
          "name": "marketId",
          "type": "uint256"
        }
      ],
      "name": "GenesisHolderRewarded",
      "type": "event"
    },
    {
      "anonymous": false,
      "inputs": [
        {
          "indexed": true,
          "internalType": "address",
          "name": "node",
          "type": "address"
        },
        {
          "indexed": false,
          "internalType": "uint256",
          "name": "amount",
          "type": "uint256"
        }
      ],
      "name": "NodeRewarded",
      "type": "event"
    },
    {
      "anonymous": false,
      "inputs": [
        {
          "indexed": true,
          "internalType": "address",
          "name": "oracle",
          "type": "address"
        },
        {
          "indexed": false,
          "internalType": "uint256",
          "name": "amount",
          "type": "uint256"
        },
        {
          "indexed": false,
          "internalType": "uint256",
          "name": "marketId",
          "type": "uint256"
        }
      ],
      "name": "OracleRewarded",
      "type": "event"
    },
    {
      "anonymous": false,
      "inputs": [
        {
          "indexed": false,
          "internalType": "address",
          "name": "account",
          "type": "address"
        }
      ],
      "name": "Paused",
      "type": "event"
    },
    {
      "anonymous": false,
      "inputs": [
        {
          "indexed": true,
          "internalType": "address",
          "name": "recipient",
          "type": "address"
        },
        {
          "indexed": false,
          "internalType": "uint256",
          "name": "amount",
          "type": "uint256"
        }
      ],
      "name": "RewardClaimed",
      "type": "event"
    },
    {
      "anonymous": false,
      "inputs": [
        {
          "indexed": false,
          "internalType": "address",
          "name": "account",
          "type": "address"
        }
      ],
      "name": "Unpaused",
      "type": "event"
    },
    {
      "inputs": [],
      "name": "BITTENSOR_POOL_SHARE",
      "outputs": [
        {
          "internalType": "uint16",
          "name": "",
          "type": "uint16"
        }
      ],
      "stateMutability": "view",
      "type": "function"
    },
    {
      "inputs": [],
      "name": "BUILDER_POOL_SHARE",
      "outputs": [
        {
          "internalType": "uint16",
          "name": "",
          "type": "uint16"
        }
      ],
      "stateMutability": "view",
      "type": "function"
    },
    {
      "inputs": [],
      "name": "CREATOR_SHARE",
      "outputs": [
        {
          "internalType": "uint16",
          "name": "",
          "type": "uint16"
        }
      ],
      "stateMutability": "view",
      "type": "function"
    },
    {
      "inputs": [],
      "name": "GENESIS_SHARE",
      "outputs": [
        {
          "internalType": "uint16",
          "name": "",
          "type": "uint16"
        }
      ],
      "stateMutability": "view",
      "type": "function"
    },
    {
      "inputs": [],
      "name": "NODE_SHARE",
      "outputs": [
        {
          "internalType": "uint16",
          "name": "",
          "type": "uint16"
        }
      ],
      "stateMutability": "view",
      "type": "function"
    },
    {
      "inputs": [],
      "name": "ORACLE_SHARE",
      "outputs": [
        {
          "internalType": "uint16",
          "name": "",
          "type": "uint16"
        }
      ],
      "stateMutability": "view",
      "type": "function"
    },
    {
      "inputs": [],
      "name": "TOTAL_FEE",
      "outputs": [
        {
          "internalType": "uint16",
          "name": "",
          "type": "uint16"
        }
      ],
      "stateMutability": "view",
      "type": "function"
    },
    {
      "inputs": [
        {
          "internalType": "uint256",
          "name": "",
          "type": "uint256"
        }
      ],
      "name": "activeNodes",
      "outputs": [
        {
          "internalType": "address",
          "name": "",
          "type": "address"
        }
      ],
      "stateMutability": "view",
      "type": "function"
    },
    {
      "inputs": [],
      "name": "bittensorRewardPool",
      "outputs": [
        {
          "internalType": "contract IBittensorRewardPool",
          "name": "",
          "type": "address"
        }
      ],
      "stateMutability": "view",
      "type": "function"
    },
    {
      "inputs": [],
      "name": "builderRewardPool",
      "outputs": [
        {
          "internalType": "contract IBuilderRewardPool",
          "name": "",
          "type": "address"
        }
      ],
      "stateMutability": "view",
      "type": "function"
    },
    {
      "inputs": [
        {
          "internalType": "uint256",
          "name": "_marketId",
          "type": "uint256"
        }
      ],
      "name": "calculateWinnerPayouts",
      "outputs": [],
      "stateMutability": "nonpayable",
      "type": "function"
    },
    {
      "inputs": [],
      "name": "claimRewards",
      "outputs": [],
      "stateMutability": "nonpayable",
      "type": "function"
    },
    {
      "inputs": [
        {
          "internalType": "uint256",
          "name": "_marketId",
          "type": "uint256"
        }
      ],
      "name": "distributeFees",
      "outputs": [],
      "stateMutability": "nonpayable",
      "type": "function"
    },
    {
      "inputs": [],
      "name": "genesisNFT",
      "outputs": [
        {
          "internalType": "contract IGenesisNFT",
          "name": "",
          "type": "address"
        }
      ],
      "stateMutability": "view",
      "type": "function"
    },
    {
      "inputs": [
        {
          "internalType": "uint256",
          "name": "",
          "type": "uint256"
        },
        {
          "internalType": "uint256",
          "name": "",
          "type": "uint256"
        }
      ],
      "name": "marketOracles",
      "outputs": [
        {
          "internalType": "address",
          "name": "",
          "type": "address"
        }
      ],
      "stateMutability": "view",
      "type": "function"
    },
    {
      "inputs": [
        {
          "internalType": "uint256",
          "name": "",
          "type": "uint256"
        },
        {
          "internalType": "uint256",
          "name": "",
          "type": "uint256"
        }
      ],
      "name": "marketPayouts",
      "outputs": [
        {
          "internalType": "address",
          "name": "recipient",
          "type": "address"
        },
        {
          "internalType": "uint256",
          "name": "amount",
          "type": "uint256"
        },
        {
          "internalType": "uint256",
          "name": "marketId",
          "type": "uint256"
        },
        {
          "internalType": "bool",
          "name": "claimed",
          "type": "bool"
        }
      ],
      "stateMutability": "view",
      "type": "function"
    },
    {
      "inputs": [
        {
          "internalType": "address",
          "name": "",
          "type": "address"
        }
      ],
      "name": "nodeRewards",
      "outputs": [
        {
          "internalType": "uint256",
          "name": "",
          "type": "uint256"
        }
      ],
      "stateMutability": "view",
      "type": "function"
    },
    {
      "inputs": [
        {
          "internalType": "uint256",
          "name": "",
          "type": "uint256"
        },
        {
          "internalType": "address",
          "name": "",
          "type": "address"
        }
      ],
      "name": "oracleContributions",
      "outputs": [
        {
          "internalType": "uint256",
          "name": "",
          "type": "uint256"
        }
      ],
      "stateMutability": "view",
      "type": "function"
    },
    {
      "inputs": [],
      "name": "paused",
      "outputs": [
        {
          "internalType": "bool",
          "name": "",
          "type": "bool"
        }
      ],
      "stateMutability": "view",
      "type": "function"
    },
    {
      "inputs": [],
      "name": "predictionMarket",
      "outputs": [
        {
          "internalType": "contract IPredictionMarket",
          "name": "",
          "type": "address"
        }
      ],
      "stateMutability": "view",
      "type": "function"
    },
    {
      "inputs": [
        {
          "internalType": "address",
          "name": "_node",
          "type": "address"
        }
      ],
      "name": "registerNode",
      "outputs": [],
      "stateMutability": "nonpayable",
      "type": "function"
    },
    {
      "inputs": [
        {
          "internalType": "uint256",
          "name": "_marketId",
          "type": "uint256"
        },
        {
          "internalType": "address",
          "name": "_oracle",
          "type": "address"
        },
        {
          "internalType": "uint256",
          "name": "_contribution",
          "type": "uint256"
        }
      ],
      "name": "registerOracleContribution",
      "outputs": [],
      "stateMutability": "nonpayable",
      "type": "function"
    },
    {
      "inputs": [
        {
          "internalType": "address",
          "name": "",
          "type": "address"
        }
      ],
      "name": "unclaimedRewards",
      "outputs": [
        {
          "internalType": "uint256",
          "name": "",
          "type": "uint256"
        }
      ],
      "stateMutability": "view",
      "type": "function"
    },
    {
      "inputs": [
        {
          "internalType": "address",
          "name": "_newPool",
          "type": "address"
        }
      ],
      "name": "updateBittensorRewardPool",
      "outputs": [],
      "stateMutability": "nonpayable",
      "type": "function"
    },
    {
      "inputs": [
        {
          "internalType": "address",
          "name": "_newPool",
          "type": "address"
        }
      ],
      "name": "updateBuilderRewardPool",
      "outputs": [],
      "stateMutability": "nonpayable",
      "type": "function"
    },
    {
      "inputs": [
        {
          "internalType": "address",
          "name": "_newNFT",
          "type": "address"
        }
      ],
      "name": "updateGenesisNFT",
      "outputs": [],
      "stateMutability": "nonpayable",
      "type": "function"
    },
    {
      "stateMutability": "payable",
      "type": "receive"
    }
  ],
  "bytecode": "0x608034620000e257601f620017d738819003918201601f19168301916001600160401b03831184841017620000e757808492608094604052833981010312620000e2576200004d81620000fd565b906200005c60208201620000fd565b916200007960606200007160408501620000fd565b9301620000fd565b90600160005560015490610100600160a81b039060081b1690610100600160a81b0319161760015560018060a01b0380928160018060a01b0319951685600254161760025516836003541617600355169060045416176004556040516116c49081620001138239f35b600080fd5b634e487b7160e01b600052604160045260246000fd5b51906001600160a01b0382168203620000e25756fe60406080815260049081361015610020575b5050361561001e57600080fd5b005b60009160e0908335821c9182631083b07614610db857826324057a0014610aea575081632cd4e6b614610ac15781632ffb61fb14610327578163372500ab146109b15781635a6964c31461097a5781635c975abb146109565781636029bf9f1461060357816363db7eae146105e6578163672d7a0d1461053f578163770ce3d81461050757816377cd91bf146104d45781637e196dce1461049657816381cdf6761461042a5781638dd4916b1461040257816390174c06146103e6578163949813b8146103ae57816396f9d9831461036d578163a960f4941461032c578163cc0c303914610327578163de50b595146102fe578163de6360bc146102bd578163def114b614610290578163edb9821e14610274578163f065cc4714610168575063f1c7000b0361001157346101645781600319360112610164576020905160c88152f35b5080fd5b905034610270576060366003190112610270578035610185610def565b91818552602093600585528086209260018060a01b0380951693846000528652816000206101b66044358254610ff2565b90558695875b82895260068252838920805482101561026357876101db838993610e68565b90549060031b1c16146101f6576101f19061103a565b6101bc565b509091929394955060015b1561020a578680f35b6006918752528420805491600160401b83101561024e57509061023291600182018155610e68565b909283549160031b92831b921b19161790553880808080808680f35b604190634e487b7160e01b6000525260246000fd5b5050909192939495610201565b8280fd5b5050346101645781600319360112610164576020905160148152f35b505034610164578160031936011261016457600154905160089190911c6001600160a01b03168152602090f35b905034610270578160031936011261027057816020936102db610def565b9235815260058552209060018060a01b0316600052825280600020549051908152f35b50503461016457816003193601126101645760035490516001600160a01b039091168152602090f35b610db8565b833461036a57602036600319011261036a576001600160a01b0361034e610dd9565b166bffffffffffffffffffffffff60a01b600354161760035580f35b80fd5b90503461027057602036600319011261027057359160085483101561036a5750610398602092610e1b565b905491519160018060a01b039160031b1c168152f35b5050346101645760203660031901126101645760209181906001600160a01b036103d6610dd9565b168152600a845220549051908152f35b5050346101645781600319360112610164576020905160b48152f35b9050346102705782600319360112610270575490516001600160a01b03909116815260209150f35b5050346101645761043a36610e05565b90835260096020528183208054821015610492578360209160809552209060021b019060018060a01b038254169160018101549160ff6003600284015493015416928151948552602085015283015215156060820152f35b8380fd5b833461036a57602036600319011261036a576001600160a01b036104b8610dd9565b166bffffffffffffffffffffffff60a01b600254161760025580f35b505034610164576104e436610e05565b92908152600660205281812090815484101561036a575060209261039891610e68565b5050346101645760203660031901126101645760209181906001600160a01b0361052f610dd9565b1681526007845220549051908152f35b8390346101645760203660031901126101645761055a610dd9565b6008546001600160a01b03929183169184805b8381106105b6575b501561057f578480f35b600160401b82101561024e575080600161059c9201600855610e1b565b909283549160031b92831b921b1916179055818080808480f35b84866105c183610e1b565b90549060031b1c16146105dc576105d79061103a565b61056d565b5050600186610575565b505034610164578160031936011261016457602090516102bc8152f35b83833461016457602036600319011261016457823590610621610fff565b60015460ff811661094657815163b1283e7760e01b8152838682015261016090818160248160018060a01b03809760081c165afa91821561093c578691879188946108f9575b505061067290610f51565b81156108be5760148202908282046014036108ab576102bc8092049360b4840284810460b4036108985783900490836106aa86610f93565b0492846106b687610f93565b049460c8870287810460c80361088557928b9c926106f3868d9e969d6106ee8d9e9f966106e6818899049e610f93565b049d8261105d565b611303565b6106fc87611535565b16808452600a6020528a8420610713888254610ff2565b90557f025e07f24d161088f2214e5aebe4556904e5db8d0ea9012d86c397ecaf8fdd708b8d8151908a82526020820152a286151580610878575b610820575b87151580610813575b6107b1575b505050908660c096959493927f9a2e6a5232893d8912bad8b33b7a32f790a3df0bd781a7fd8796faaa3b87f6d4985196875260208701528501526060840152608083015260a0820152a26001815580f35b6003541690813b15610270578951630d0e30db60e41b8152918391839182908b905af18015610809576107e5575b80610760565b6107f59097969594939297610e80565b610805579091929394888a6107df565b8880fd5b89513d84823e3d90fd5b508060035416151561075b565b80919250600254168b813b1561036a578791848c5180948193630d0e30db60e41b83525af1801561086e57610859575b50908a91610752565b610866909b91929b610e80565b99908b610850565b8a513d8e823e3d90fd5b508060025416151561074d565b634e487b7160e01b8c5260118d5260248cfd5b634e487b7160e01b895260118a52602489fd5b634e487b7160e01b875260118852602487fd5b835162461bcd60e51b815260208189015260156024820152744e6f206665657320746f206469737472696275746560581b6044820152606490fd5b6106729450610921935080919250903d10610935575b6109198183610eaa565b810190610eed565b9a9850505050505093915050919089610667565b503d61090f565b84513d88823e3d90fd5b815163d93c066560e01b81528590fd5b50503461016457816003193601126101645760209060ff6001541690519015158152f35b839034610164576020366003190112610164576001600160a01b0361099d610dd9565b82546001600160a01b031916911617905580f35b919050346102705782600319360112610270576109cc610fff565b338352602090600a825280842054928315610a8a57338552600a835284828120558480808087335af13d15610a85573d610a0581611610565b90610a1285519283610eaa565b815286853d92013e5b15610a525750907f106f923f993c2149d49b4255ff723acafa1f2d94393f561d3eda32ae348f724191519283523392a26001815580f35b82606492519162461bcd60e51b8352820152600f60248201526e151c985b9cd9995c8819985a5b1959608a1b6044820152fd5b610a1b565b82606492519162461bcd60e51b835282015260136024820152724e6f207265776172647320746f20636c61696d60681b6044820152fd5b50503461016457816003193601126101645760025490516001600160a01b039091168152602090f35b9084925034610270576020918260031936011261049257813594610b0c610fff565b60018054825163b1283e7760e01b815285810189905291956024949160081c6001600160a01b031661016080858881855afa8015610dae578a8b968c938d93610d78575b5050610b5b90610f51565b810311610d6657845199632417667f60e21b8b52878b0152888a8781845afa968715610d5c578997610cbd575b89899a9b50968b9a5b610b9d575b8b8a815580f35b88518b1015610cb857610bb08b8a611049565b519a87519b6356b99a4f60e11b8d52838d01528c8c8381875afa8d8115610cad579a8c9d819d9c92610c17575b50610be9838a92611049565b5103610c02575b50610bfa9061103a565b9a9998610b91565b610c1090610bfa929a610ff2565b9890610bf0565b9b5050508c3d80918c3e610c2b818c610eaa565b8a016101208b820312610ca957610c43868c01610ecc565b50888b01519a67ffffffffffffffff9b8c8111610ca55782610c6691830161162c565b50608081015191610c7960c08301610ee0565b50888201519c8d11610ca557838f9d938f94610be993610c9b918e960161162c565b5093925050610bdd565b8f80fd5b8d80fd5b8951903d90823e3d90fd5b610b96565b96503d808a8c3e610cce818c610eaa565b8a019982818c0312610d545780519067ffffffffffffffff8211610d5857019980601f8c011215610d54578a51610d0481611022565b9b848089519e8f90610d169082610eaa565b848152019260051b820101928311610d50578401905b828210610d415750999a8b9a50979050610b88565b81518152908401908401610d2c565b8b80fd5b8980fd5b8a80fd5b85513d8b823e3d90fd5b634e487b7160e01b8952601187528589fd5b91509150610b5b9650610d979250803d10610935576109198183610eaa565b99505050509993509350905091969291908e610b50565b86513d8c823e3d90fd5b34610dd4576000366003190112610dd457602060405160648152f35b600080fd5b600435906001600160a01b0382168203610dd457565b602435906001600160a01b0382168203610dd457565b6040906003190112610dd4576004359060243590565b600854811015610e525760086000527ff3f7a9fe364faab93b216da50a3214154f22a0a2b415b23a84c8169e8b636ee30190600090565b634e487b7160e01b600052603260045260246000fd5b8054821015610e525760005260206000200190600090565b67ffffffffffffffff8111610e9457604052565b634e487b7160e01b600052604160045260246000fd5b90601f8019910116810190811067ffffffffffffffff821117610e9457604052565b51906001600160a01b0382168203610dd457565b51908115158203610dd457565b9081610160910312610dd457610f0281610ecc565b91610f0f60208301610ecc565b91604081015191606082015191610f2860808201610ee0565b9160a08201519160c08101519160e0820151916101008101519161014061012083015192015190565b15610f5857565b60405162461bcd60e51b815260206004820152601360248201527213585c9ad95d081b9bdd081c995cdbdb1d9959606a1b6044820152606490fd5b90606482029180830460641490151715610fa957565b634e487b7160e01b600052601160045260246000fd5b81810292918115918404141715610fa957565b8115610fdc570490565b634e487b7160e01b600052601260045260246000fd5b91908201809211610fa957565b600260005414611010576002600055565b604051633ee5aeb560e01b8152600490fd5b67ffffffffffffffff8111610e945760051b60200190565b6000198114610fa95760010190565b8051821015610e525760209160051b010190565b811580156112f0575b6112ec5760048054604080516318160ddd60e01b8152936001600160a01b039260209190829087908790829088165afa9586156112e1576000966112b2575b5085156112a9576110b586611022565b936110c284519586610eaa565b868552601f196110d188611022565b0136848701376110e387600099610fd2565b600191825b898111156110fd575050505050505050505050565b8189541687516331a9108f60e11b8152828b82015260249088818381865afa90811561129e57600091611269575b5060008e81878e5b838310611238575b5050505015611156575b5050506111519061103a565b6110e8565b848c9392949e948a928c5194859384926370a0823160e01b84521680978301525afa90811561122d579089916000916111fd575b5091807f682e67f2362bb04b61e784c278b2e6fac980cbec16efebc73594926e0e7cc35861115195936111c06111f4968a610fbf565b83600052600a8d52816000206111d7828254610ff2565b905581519081528b8d820152a26111ee828c611049565b5261103a565b9a903880611145565b91508882813d8311611226575b6112148183610eaa565b8101031261036a57505188908261118a565b503d61120a565b89513d6000823e3d90fd5b8261124291611049565b51168885161461125c576112559061103a565b878e611133565b505050868e38878e61113b565b908982813d8311611297575b61127f8183610eaa565b8101031261036a575061129190610ecc565b3861112b565b503d611275565b8a513d6000823e3d90fd5b50505050505050565b90958282813d83116112da575b6112c98183610eaa565b8101031261036a57505194386110a5565b503d6112bf565b83513d6000823e3d90fd5b5050565b506004546001600160a01b031615611066565b91600083815260209360068552604094858320918651808484829654938481520190875284872092875b868282106115165750505061134492500384610eaa565b825115801561150e575b61150557839484955b84518710156113a0578286526005845288862061139a91611394916001600160a01b036113848b8a611049565b5116895286528a88205490610ff2565b9661103a565b95611357565b90969193949295508015600014611445575083516113bd91610fd2565b92815b815181101561143b57611436906001600160a01b03806113e08386611049565b51168552600a88528985206113f6888254610ff2565b90556114028285611049565b51167fbcb095493dc2805dc847b9bbdfc1ff0fda68b84c79543e42d7b2ecc2be9e04bb8a8051898152888b820152a261103a565b6113c0565b5050505050509050565b908294925b83518110156114fa57848652600587528886206114f591906001600160a01b0390816114768489611049565b5116895289527fbcb095493dc2805dc847b9bbdfc1ff0fda68b84c79543e42d7b2ecc2be9e04bb8b6114b4876114af838d205489610fbf565b610fd2565b92806114c0868b611049565b51168b52600a8c52818b206114d6858254610ff2565b90556114e2858a611049565b5116928151908152898c820152a261103a565b61144a565b505050505050509050565b50505050915050565b50851561134e565b85546001600160a01b031684526001958601958995509301920161132d565b600890815480158015611608575b6116035761155091610fd2565b60005b825481101561160357807f4ea3e03797614006774acce32832fbaa20d9d69de554df367f4bb8a98b92e74261158a6115fe93610e1b565b919060018060a01b03809154600394851b1c1660005260209060078252604093846000206115b9898254610ff2565b9055816115c587610e1b565b905490831b1c16600052600a8352846000206115e2898254610ff2565b90556115ed86610e1b565b9054911b1c169251868152a261103a565b611553565b505050565b508115611543565b67ffffffffffffffff8111610e9457601f01601f191660200190565b919080601f84011215610dd45782519061164582611610565b916116536040519384610eaa565b808352602091828287010111610dd45760005b81811061167b57508260009394955001015290565b858101830151848201840152820161166656fea264697066735822122009d67956cc646a86ee0ee038e1c1530f73aec5297cc0391bee0508a4f16a86df64736f6c63430008140033",
  "linkReferences": {},
  "deployedLinkReferences": {}
}