{
  "_format": "hh-sol-artifact-1",
  "contractName": "PredictionMarket",
  "sourceName": "contracts/src/PredictionMarket.sol",
  "abi": [
    {
      "inputs": [],
      "stateMutability": "nonpayable",
      "type": "constructor"
    },
    {
      "inputs": [
        {
          "internalType": "address",
          "name": "owner",
          "type": "address"
        }
      ],
      "name": "OwnableInvalidOwner",
      "type": "error"
    },
    {
      "inputs": [
        {
          "internalType": "address",
          "name": "account",
          "type": "address"
        }
      ],
      "name": "OwnableUnauthorizedAccount",
      "type": "error"
    },
    {
      "inputs": [],
      "name": "ReentrancyGuardReentrantCall",
      "type": "error"
    },
    {
      "anonymous": false,
      "inputs": [
        {
          "indexed": true,
          "internalType": "uint256",
          "name": "betId",
          "type": "uint256"
        },
        {
          "indexed": true,
          "internalType": "uint256",
          "name": "submissionId",
          "type": "uint256"
        },
        {
          "indexed": true,
          "internalType": "address",
          "name": "bettor",
          "type": "address"
        },
        {
          "indexed": false,
          "internalType": "uint256",
          "name": "amount",
          "type": "uint256"
        }
      ],
      "name": "BetPlaced",
      "type": "event"
    },
    {
      "anonymous": false,
      "inputs": [
        {
          "indexed": true,
          "internalType": "uint256",
          "name": "marketId",
          "type": "uint256"
        },
        {
          "indexed": true,
          "internalType": "address",
          "name": "creator",
          "type": "address"
        },
        {
          "indexed": false,
          "internalType": "string",
          "name": "question",
          "type": "string"
        },
        {
          "indexed": false,
          "internalType": "uint256",
          "name": "endTime",
          "type": "uint256"
        }
      ],
      "name": "MarketCreated",
      "type": "event"
    },
    {
      "anonymous": false,
      "inputs": [
        {
          "indexed": true,
          "internalType": "uint256",
          "name": "marketId",
          "type": "uint256"
        },
        {
          "indexed": false,
          "internalType": "uint256",
          "name": "winningSubmissionId",
          "type": "uint256"
        }
      ],
      "name": "MarketResolved",
      "type": "event"
    },
    {
      "anonymous": false,
      "inputs": [
        {
          "indexed": true,
          "internalType": "address",
          "name": "previousOwner",
          "type": "address"
        },
        {
          "indexed": true,
          "internalType": "address",
          "name": "newOwner",
          "type": "address"
        }
      ],
      "name": "OwnershipTransferred",
      "type": "event"
    },
    {
      "anonymous": false,
      "inputs": [
        {
          "indexed": true,
          "internalType": "address",
          "name": "recipient",
          "type": "address"
        },
        {
          "indexed": false,
          "internalType": "uint256",
          "name": "amount",
          "type": "uint256"
        }
      ],
      "name": "PayoutDistributed",
      "type": "event"
    },
    {
      "anonymous": false,
      "inputs": [
        {
          "indexed": true,
          "internalType": "uint256",
          "name": "submissionId",
          "type": "uint256"
        },
        {
          "indexed": true,
          "internalType": "uint256",
          "name": "marketId",
          "type": "uint256"
        },
        {
          "indexed": true,
          "internalType": "address",
          "name": "creator",
          "type": "address"
        },
        {
          "indexed": false,
          "internalType": "string",
          "name": "predictedText",
          "type": "string"
        }
      ],
      "name": "SubmissionCreated",
      "type": "event"
    },
    {
      "inputs": [],
      "name": "PLATFORM_FEE",
      "outputs": [
        {
          "internalType": "uint256",
          "name": "",
          "type": "uint256"
        }
      ],
      "stateMutability": "view",
      "type": "function"
    },
    {
      "inputs": [],
      "name": "betCount",
      "outputs": [
        {
          "internalType": "uint256",
          "name": "",
          "type": "uint256"
        }
      ],
      "stateMutability": "view",
      "type": "function"
    },
    {
      "inputs": [
        {
          "internalType": "uint256",
          "name": "",
          "type": "uint256"
        }
      ],
      "name": "bets",
      "outputs": [
        {
          "internalType": "address",
          "name": "bettor",
          "type": "address"
        },
        {
          "internalType": "uint256",
          "name": "submissionId",
          "type": "uint256"
        },
        {
          "internalType": "uint256",
          "name": "amount",
          "type": "uint256"
        },
        {
          "internalType": "uint256",
          "name": "timestamp",
          "type": "uint256"
        }
      ],
      "stateMutability": "view",
      "type": "function"
    },
    {
      "inputs": [
        {
          "internalType": "string",
          "name": "_question",
          "type": "string"
        },
        {
          "internalType": "uint256",
          "name": "_duration",
          "type": "uint256"
        },
        {
          "internalType": "string",
          "name": "_actorTwitterHandle",
          "type": "string"
        },
        {
          "internalType": "bool",
          "name": "_xcomOnly",
          "type": "bool"
        }
      ],
      "name": "createMarket",
      "outputs": [
        {
          "internalType": "uint256",
          "name": "",
          "type": "uint256"
        }
      ],
      "stateMutability": "payable",
      "type": "function"
    },
    {
      "inputs": [
        {
          "internalType": "uint256",
          "name": "_marketId",
          "type": "uint256"
        },
        {
          "internalType": "string",
          "name": "_predictedText",
          "type": "string"
        },
        {
          "internalType": "string",
          "name": "_screenshotIpfsHash",
          "type": "string"
        }
      ],
      "name": "createSubmission",
      "outputs": [
        {
          "internalType": "uint256",
          "name": "",
          "type": "uint256"
        }
      ],
      "stateMutability": "payable",
      "type": "function"
    },
    {
      "inputs": [],
      "name": "emergencyWithdraw",
      "outputs": [],
      "stateMutability": "nonpayable",
      "type": "function"
    },
    {
      "inputs": [
        {
          "internalType": "uint256",
          "name": "_marketId",
          "type": "uint256"
        }
      ],
      "name": "getMarketSubmissions",
      "outputs": [
        {
          "internalType": "uint256[]",
          "name": "",
          "type": "uint256[]"
        }
      ],
      "stateMutability": "view",
      "type": "function"
    },
    {
      "inputs": [
        {
          "internalType": "address",
          "name": "_user",
          "type": "address"
        }
      ],
      "name": "getUserBets",
      "outputs": [
        {
          "internalType": "uint256[]",
          "name": "",
          "type": "uint256[]"
        }
      ],
      "stateMutability": "view",
      "type": "function"
    },
    {
      "inputs": [
        {
          "internalType": "address",
          "name": "_user",
          "type": "address"
        }
      ],
      "name": "getUserSubmissions",
      "outputs": [
        {
          "internalType": "uint256[]",
          "name": "",
          "type": "uint256[]"
        }
      ],
      "stateMutability": "view",
      "type": "function"
    },
    {
      "inputs": [],
      "name": "marketCount",
      "outputs": [
        {
          "internalType": "uint256",
          "name": "",
          "type": "uint256"
        }
      ],
      "stateMutability": "view",
      "type": "function"
    },
    {
      "inputs": [
        {
          "internalType": "uint256",
          "name": "",
          "type": "uint256"
        },
        {
          "internalType": "uint256",
          "name": "",
          "type": "uint256"
        }
      ],
      "name": "marketSubmissions",
      "outputs": [
        {
          "internalType": "uint256",
          "name": "",
          "type": "uint256"
        }
      ],
      "stateMutability": "view",
      "type": "function"
    },
    {
      "inputs": [
        {
          "internalType": "uint256",
          "name": "",
          "type": "uint256"
        }
      ],
      "name": "markets",
      "outputs": [
        {
          "internalType": "string",
          "name": "question",
          "type": "string"
        },
        {
          "internalType": "address",
          "name": "creator",
          "type": "address"
        },
        {
          "internalType": "uint256",
          "name": "startTime",
          "type": "uint256"
        },
        {
          "internalType": "uint256",
          "name": "endTime",
          "type": "uint256"
        },
        {
          "internalType": "bool",
          "name": "resolved",
          "type": "bool"
        },
        {
          "internalType": "uint256",
          "name": "winningSubmissionId",
          "type": "uint256"
        },
        {
          "internalType": "uint256",
          "name": "totalVolume",
          "type": "uint256"
        },
        {
          "internalType": "string",
          "name": "actorTwitterHandle",
          "type": "string"
        },
        {
          "internalType": "string",
          "name": "targetTweetId",
          "type": "string"
        },
        {
          "internalType": "bool",
          "name": "xcomOnly",
          "type": "bool"
        },
        {
          "internalType": "uint256",
          "name": "platformFeeCollected",
          "type": "uint256"
        }
      ],
      "stateMutability": "view",
      "type": "function"
    },
    {
      "inputs": [],
      "name": "owner",
      "outputs": [
        {
          "internalType": "address",
          "name": "",
          "type": "address"
        }
      ],
      "stateMutability": "view",
      "type": "function"
    },
    {
      "inputs": [
        {
          "internalType": "uint256",
          "name": "_submissionId",
          "type": "uint256"
        }
      ],
      "name": "placeBet",
      "outputs": [
        {
          "internalType": "uint256",
          "name": "",
          "type": "uint256"
        }
      ],
      "stateMutability": "payable",
      "type": "function"
    },
    {
      "inputs": [],
      "name": "renounceOwnership",
      "outputs": [],
      "stateMutability": "nonpayable",
      "type": "function"
    },
    {
      "inputs": [],
      "name": "submissionCount",
      "outputs": [
        {
          "internalType": "uint256",
          "name": "",
          "type": "uint256"
        }
      ],
      "stateMutability": "view",
      "type": "function"
    },
    {
      "inputs": [
        {
          "internalType": "uint256",
          "name": "",
          "type": "uint256"
        }
      ],
      "name": "submissions",
      "outputs": [
        {
          "internalType": "uint256",
          "name": "marketId",
          "type": "uint256"
        },
        {
          "internalType": "address",
          "name": "creator",
          "type": "address"
        },
        {
          "internalType": "string",
          "name": "predictedText",
          "type": "string"
        },
        {
          "internalType": "uint256",
          "name": "stake",
          "type": "uint256"
        },
        {
          "internalType": "uint256",
          "name": "totalBets",
          "type": "uint256"
        },
        {
          "internalType": "uint256",
          "name": "levenshteinDistance",
          "type": "uint256"
        },
        {
          "internalType": "bool",
          "name": "isWinner",
          "type": "bool"
        },
        {
          "internalType": "string",
          "name": "screenshotIpfsHash",
          "type": "string"
        },
        {
          "internalType": "bytes32",
          "name": "screenshotBase64Hash",
          "type": "bytes32"
        }
      ],
      "stateMutability": "view",
      "type": "function"
    },
    {
      "inputs": [
        {
          "internalType": "address",
          "name": "newOwner",
          "type": "address"
        }
      ],
      "name": "transferOwnership",
      "outputs": [],
      "stateMutability": "nonpayable",
      "type": "function"
    },
    {
      "inputs": [
        {
          "internalType": "address",
          "name": "",
          "type": "address"
        },
        {
          "internalType": "uint256",
          "name": "",
          "type": "uint256"
        }
      ],
      "name": "userBets",
      "outputs": [
        {
          "internalType": "uint256",
          "name": "",
          "type": "uint256"
        }
      ],
      "stateMutability": "view",
      "type": "function"
    },
    {
      "inputs": [
        {
          "internalType": "address",
          "name": "",
          "type": "address"
        },
        {
          "internalType": "uint256",
          "name": "",
          "type": "uint256"
        }
      ],
      "name": "userSubmissions",
      "outputs": [
        {
          "internalType": "uint256",
          "name": "",
          "type": "uint256"
        }
      ],
      "stateMutability": "view",
      "type": "function"
    },
    {
      "stateMutability": "payable",
      "type": "receive"
    }
  ],
  "bytecode": "0x6080806040523461008b57600090600182553315610077575060018054336001600160a01b0319821681179092556040519291906001600160a01b03167f8be0079c531659141344cd1fd0a4f28419497f9722a3daafe3b4186f6b6457e08380a3806002558060035560045561196490816100918239f35b602491631e4fbdf760e01b82526004820152fd5b600080fdfe608080604052600436101561001d575b50361561001b57600080fd5b005b60003560e01c90816310fe7c48146113c85750806322af00fa146113725780632d56657d146112fa57806334fbc9a1146112de5780636ec02be9146112c0578063715018a6146112635780638068aa68146112195780638cec0ba014610c595780638da5cb5b14610c30578063905d99fc14610bc65780639b7e018014610b7c578063a7b8614d14610af4578063ad73349e14610a36578063b1283e771461094a578063cf0944971461092c578063db2e21bc146108dc578063e1a3faae14610895578063ea24e579146101b2578063ec979082146101945763f2fde38b14610106573861000f565b3461018f57602036600319011261018f5761011f6115fe565b610127611814565b6001600160a01b0390811690811561017657600154826001600160601b0360a01b821617600155167f8be0079c531659141344cd1fd0a4f28419497f9722a3daafe3b4186f6b6457e0600080a3005b604051631e4fbdf760e01b815260006004820152602490fd5b600080fd5b3461018f57600036600319011261018f576020600254604051908152f35b608036600319011261018f576004356001600160401b03811161018f576101dd90369060040161169e565b6044356001600160401b03811161018f576101fc90369060040161169e565b9060643590811515820361018f5761012c6024351061083d576276a700602435116107ea578051156107a557662386f26fc100003410610754576002549161024383611840565b6002556102526024354261184f565b936040519461016086018681106001600160401b038211176105a757604052838652336020870152426040870152606086015260006080860152600060a08601523460c086015260e08501526040518060208101106001600160401b036020830111176105a757602081016040526000815261010085015215156101208401526000610140840152816000526005602052604060002083518051906001600160401b0382116105a757819061030784546116f4565b601f8111610704575b50602090601f83116001146106985760009261068d575b50508160011b916000199060031b1c19161781555b6001810160018060a01b036020860151166001600160601b0360a01b825416179055604084015160028201556060840151600382015561039160808501511515600483019060ff801983541691151516179055565b60a0840151600582015560c0840151600682015560e08401518051906001600160401b0382116105a75781906103ca60078501546116f4565b601f811161063a575b50602090601f83116001146105c8576000926105bd575b50508160011b916000199060031b1c19161760078201555b60088101936101008101519485516001600160401b0381116105a75761042882546116f4565b96601f881161055f575b602097508790601f83116001146104f25791806101409492600a96946000926104e7575b50508160011b916000199060031b1c19161790555b61048b6101208201511515600986019060ff801983541691151516179055565b0151910155817f03e783e31593f59fda73a59d05e2525d610a533995cce4d4750186c3b6bf80bb6104be6024354261184f565b926104d4604051916040835260408301906117d4565b93868201528033940390a3604051908152f35b015190508a80610456565b90601f1983169184600052896000209260005b8181106105485750926001928592600a989661014098961061052f575b505050811b01905561046b565b015160001960f88460031b161c191690558a8080610522565b92938b600181928786015181550195019301610505565b826000526020600020601f830160051c8101986020841061059d575b601f0160051c01975b8881106105915750610432565b60008155600101610584565b909850889061057b565b634e487b7160e01b600052604160045260246000fd5b0151905086806103ea565b9250600784016000526020600020906000935b601f198416851061061f576001945083601f19811610610606575b505050811b016007820155610402565b015160001960f88460031b161c191690558680806105f6565b818101518355602094850194600190930192909101906105db565b909150600784016000526020600020601f840160051c810160208510610686575b90849392915b601f830160051c820181106106775750506103d3565b60008155859450600101610661565b508061065b565b015190508680610327565b9250836000526020600020906000935b601f19841685106106e9576001945083601f198116106106d0575b505050811b01815561033c565b015160001960f88460031b161c191690558680806106c3565b818101518355602094850194600190930192909101906106a8565b909150836000526020600020601f840160051c81016020851061074d575b90849392915b601f830160051c8201811061073e575050610310565b60008155859450600101610728565b5080610722565b60405162461bcd60e51b8152602060048201526024808201527f4d696e696d756d206d61726b6574206372656174696f6e2066656520726571756044820152631a5c995960e21b6064820152608490fd5b60405162461bcd60e51b815260206004820152601860248201527f5175657374696f6e2063616e6e6f7420626520656d70747900000000000000006044820152606490fd5b60405162461bcd60e51b815260206004820152602560248201527f4d61726b6574206475726174696f6e2063616e6e6f7420657863656564203930604482015264206461797360d81b6064820152608490fd5b60405162461bcd60e51b815260206004820152602a60248201527f4d61726b6574206475726174696f6e206d757374206265206174206c656173746044820152692035206d696e7574657360b01b6064820152608490fd5b3461018f57604036600319011261018f5760243560043560005260086020526040600020805482101561018f576020916108ce9161164f565b90546040519160031b1c8152f35b3461018f57600036600319011261018f576108f5611814565b600080808060018060a01b03600154164790828215610923575bf11561091757005b6040513d6000823e3d90fd5b506108fc61090f565b3461018f57600036600319011261018f576020600454604051908152f35b3461018f57602036600319011261018f57600435600052600560205260206109e960406000206109798161172e565b610a2382610a1460018060a01b03600183015416936002830154600384015460ff6004860154166005860154906006870154926109b86007890161172e565b94600a60ff60096109cb60088d0161172e565b9b0154169c01549a6040519e8f9e8f99610160808c528b01906117d4565b98015260408d015260608c0152151560808b015260a08a015260c089015287820360e08901526117d4565b908582036101008701526117d4565b9115156101208401526101408301520390f35b3461018f57602036600319011261018f576004356000908152600660205260409020805460018201546001600160a01b031691610ae9610a786002830161172e565b916003810154906004810154600582015460ff60068401541691610ac56008610aa36007870161172e565b950154976040519a8b9a8b5260208b01526101208060408c01528a01906117d4565b946060890152608088015260a0870152151560c086015284820360e08601526117d4565b906101008301520390f35b3461018f5760208060031936011261018f576001600160a01b03610b166115fe565b1660005260098152604060002090604051908181845491828152019360005281600020916000905b828210610b6557610b6185610b558189038261167d565b60405191829182611614565b0390f35b835486529485019460019384019390910190610b3e565b3461018f57604036600319011261018f57610b956115fe565b6001600160a01b031660009081526009602052604090208054602435919082101561018f576020916108ce9161164f565b3461018f5760208060031936011261018f5760043560005260088152604060002090604051908181845491828152019360005281600020916000905b828210610c1957610b6185610b558189038261167d565b835486529485019460019384019390910190610c02565b3461018f57600036600319011261018f576001546040516001600160a01b039091168152602090f35b606036600319011261018f576024356001600160401b03811161018f57610c8490369060040161169e565b6044356001600160401b03811161018f57610ca390369060040161169e565b9060025460043510156111dc576004356000526005602052610cce600360406000200154421061185c565b6004356000526005602052610cee60ff600460406000200154161561189b565b66038d7ea4c68000341061118d578051156111485760035490610d1082611840565b600355600734023481046007143415171561113257610d3260648204346118e7565b8451602086012060405195866101208101106001600160401b03610120890111176105a757610120870160405260043587526020870192338452856040890152806060890152608088015260001960a0880152600060c088015260e087015261010086015283600052600660205260406000209085518255600182019060018060a01b039051166001600160601b0360a01b82541617905560408501518051906001600160401b0382116105a7578190610def60028501546116f4565b601f81116110df575b50602090601f831160011461106d57600092611062575b50508160011b916000199060031b1c19161760028201555b606085015160038201556080850151600482015560a08501516005820155610e6460c08601511515600683019060ff801983541691151516179055565b60e08501519485516001600160401b0381116105a757610e8760078401546116f4565b96601f881161101b575b602097508790601f8311600114610fa257928260089361010093610f15989796600092610f97575b50508160011b916000199060031b1c19161760078501555b015191015560043560005260058552600a6064610ef63460066040600020015461184f565b926004356000526005885260406000209360068501550491015461184f565b60043560005260058452600a6040600020015560088352610f3a8260406000206118f4565b3360005260098352610f508260406000206118f4565b60405190838252827f9d9ec53e54f6385ec09428208c029bd27eb96263fc7b5da62db98ecc7d3f015c339380610f8c60043595898301906117d4565b0390a4604051908152f35b015190508b80610eb9565b9060078501600052886000209160005b601f198516811061100457508361010093610f1598979693600193600897601f19811610610feb575b505050811b016007850155610ed1565b015160001960f88460031b161c191690558b8080610fdb565b91928a600181928685015181550194019201610fb2565b600784016000526020600020601f830160051c81016020841061105b575b601f8a0160051c8201811061104f575050610e91565b60008155600101611039565b5080611039565b015190508780610e0f565b9250600284016000526020600020906000935b601f19841685106110c4576001945083601f198116106110ab575b505050811b016002820155610e27565b015160001960f88460031b161c1916905587808061109b565b81810151835560209485019460019093019290910190611080565b909150600284016000526020600020601f840160051c81016020851061112b575b90849392915b601f830160051c8201811061111c575050610df8565b60008155859450600101611106565b5080611100565b634e487b7160e01b600052601160045260246000fd5b60405162461bcd60e51b815260206004820152601e60248201527f50726564696374656420746578742063616e6e6f7420626520656d70747900006044820152606490fd5b60405162461bcd60e51b815260206004820152602160248201527f4d696e696d756d207375626d697373696f6e207374616b6520726571756972656044820152601960fa1b6064820152608490fd5b60405162461bcd60e51b815260206004820152601560248201527413585c9ad95d08191bd95cc81b9bdd08195e1a5cdd605a1b6044820152606490fd5b3461018f57604036600319011261018f576112326115fe565b6001600160a01b03166000908152600a602052604090208054602435919082101561018f576020916108ce9161164f565b3461018f57600036600319011261018f5761127c611814565b600180546001600160a01b031981169091556000906001600160a01b03167f8be0079c531659141344cd1fd0a4f28419497f9722a3daafe3b4186f6b6457e08280a3005b3461018f57600036600319011261018f576020600354604051908152f35b3461018f57600036600319011261018f57602060405160078152f35b3461018f5760208060031936011261018f576001600160a01b0361131c6115fe565b16600052600a8152604060002090604051908181845491828152019360005281600020916000905b82821061135b57610b6185610b558189038261167d565b835486529485019460019384019390910190611344565b3461018f57602036600319011261018f5760043560005260076020526080604060002060018060a01b03815416906001810154906003600282015491015491604051938452602084015260408301526060820152f35b6020908160031936011261018f57600435906002600054146115ef575060026000556003548110156115aa57655af3107a4000341061156557806000526006825260406000209081546000526005835260406000209061142f60ff6004840154161561189b565b61143e6003830154421061185c565b6004549261144b84611840565b600455600734023481046007143415171561113257606490049061146f82346118e7565b9360405190608082018281106001600160401b038211176105a75761151493600a9360049260405233815260038a8a8d6007818601918d83526040870193845260608701944286526000525260406000209460018060a01b039051166001600160601b0360a01b86541617855551600185015551600284015551910155016114f887825461184f565b90556006810161150934825461184f565b90550191825461184f565b905533600052600a845261152c8360406000206118f4565b604051918252827ffdd8ed02332acacb3420e7345a9adadb30877075eade2bcde9fe778e8bb71e42853394a46001600055604051908152f35b60405162461bcd60e51b815260048101839052601b60248201527f4d696e696d756d2062657420616d6f756e7420726571756972656400000000006044820152606490fd5b60405162461bcd60e51b815260048101839052601960248201527f5375626d697373696f6e20646f6573206e6f74206578697374000000000000006044820152606490fd5b633ee5aeb560e01b8152600490fd5b600435906001600160a01b038216820361018f57565b6020908160408183019282815285518094520193019160005b82811061163b575050505090565b83518552938101939281019260010161162d565b80548210156116675760005260206000200190600090565b634e487b7160e01b600052603260045260246000fd5b90601f801991011681019081106001600160401b038211176105a757604052565b81601f8201121561018f578035906001600160401b0382116105a757604051926116d2601f8401601f19166020018561167d565b8284526020838301011161018f57816000926020809301838601378301015290565b90600182811c92168015611724575b602083101461170e57565b634e487b7160e01b600052602260045260246000fd5b91607f1691611703565b9060405191826000825492611742846116f4565b9081845260019485811690816000146117b1575060011461176e575b505061176c9250038361167d565b565b9093915060005260209081600020936000915b81831061179957505061176c9350820101388061175e565b85548884018501529485019487945091830191611781565b91505061176c94506020925060ff191682840152151560051b820101388061175e565b919082519283825260005b848110611800575050826000602080949584010152601f8019910116010190565b6020818301810151848301820152016117df565b6001546001600160a01b0316330361182857565b60405163118cdaa760e01b8152336004820152602490fd5b60001981146111325760010190565b9190820180921161113257565b1561186357565b60405162461bcd60e51b815260206004820152601060248201526f13585c9ad95d081a185cc8195b99195960821b6044820152606490fd5b156118a257565b60405162461bcd60e51b815260206004820152601760248201527f4d61726b657420616c7265616479207265736f6c7665640000000000000000006044820152606490fd5b9190820391821161113257565b8054680100000000000000008110156105a7576119169160018201815561164f565b819291549060031b91821b91600019901b191617905556fea26469706673582212204e5534698ab2d07762684c06d4cc8989b44eb839adc2fbbf9557e367de676d4164736f6c63430008140033",
  "linkReferences": {},
  "deployedLinkReferences": {}
}