{
  "_format": "hh-sol-artifact-1",
  "contractName": "DecentralizedOracle",
  "sourceName": "contracts/src/DecentralizedOracle.sol",
  "abi": [
    {
      "inputs": [
        {
          "internalType": "address",
          "name": "_predictionMarket",
          "type": "address"
        },
        {
          "internalType": "address",
          "name": "_nodeRegistry",
          "type": "address"
        }
      ],
      "stateMutability": "nonpayable",
      "type": "constructor"
    },
    {
      "inputs": [],
      "name": "ReentrancyGuardReentrantCall",
      "type": "error"
    },
    {
      "anonymous": false,
      "inputs": [
        {
          "indexed": true,
          "internalType": "bytes32",
          "name": "marketId",
          "type": "bytes32"
        },
        {
          "indexed": true,
          "internalType": "bytes32",
          "name": "submissionId",
          "type": "bytes32"
        },
        {
          "indexed": false,
          "internalType": "uint256",
          "name": "validatorCount",
          "type": "uint256"
        }
      ],
      "name": "ConsensusReached",
      "type": "event"
    },
    {
      "anonymous": false,
      "inputs": [
        {
          "indexed": true,
          "internalType": "bytes32",
          "name": "marketId",
          "type": "bytes32"
        },
        {
          "indexed": true,
          "internalType": "bytes32",
          "name": "winningSubmissionId",
          "type": "bytes32"
        },
        {
          "indexed": false,
          "internalType": "uint256",
          "name": "lowestDistance",
          "type": "uint256"
        }
      ],
      "name": "MarketAutoResolved",
      "type": "event"
    },
    {
      "anonymous": false,
      "inputs": [
        {
          "indexed": true,
          "internalType": "bytes32",
          "name": "marketId",
          "type": "bytes32"
        },
        {
          "indexed": true,
          "internalType": "bytes32",
          "name": "submissionId",
          "type": "bytes32"
        },
        {
          "indexed": true,
          "internalType": "address",
          "name": "oracle",
          "type": "address"
        },
        {
          "indexed": false,
          "internalType": "string",
          "name": "actualText",
          "type": "string"
        },
        {
          "indexed": false,
          "internalType": "string",
          "name": "screenshotIPFS",
          "type": "string"
        },
        {
          "indexed": false,
          "internalType": "uint256",
          "name": "levenshteinDistance",
          "type": "uint256"
        }
      ],
      "name": "OracleDataSubmitted",
      "type": "event"
    },
    {
      "inputs": [],
      "name": "CONSENSUS_THRESHOLD",
      "outputs": [
        {
          "internalType": "uint256",
          "name": "",
          "type": "uint256"
        }
      ],
      "stateMutability": "view",
      "type": "function"
    },
    {
      "inputs": [],
      "name": "MIN_VALIDATORS",
      "outputs": [
        {
          "internalType": "uint256",
          "name": "",
          "type": "uint256"
        }
      ],
      "stateMutability": "view",
      "type": "function"
    },
    {
      "inputs": [
        {
          "internalType": "string",
          "name": "a",
          "type": "string"
        },
        {
          "internalType": "string",
          "name": "b",
          "type": "string"
        }
      ],
      "name": "calculateLevenshteinDistance",
      "outputs": [
        {
          "internalType": "uint256",
          "name": "",
          "type": "uint256"
        }
      ],
      "stateMutability": "pure",
      "type": "function"
    },
    {
      "inputs": [
        {
          "internalType": "bytes32",
          "name": "marketId",
          "type": "bytes32"
        },
        {
          "internalType": "bytes32",
          "name": "submissionId",
          "type": "bytes32"
        }
      ],
      "name": "getOracleData",
      "outputs": [
        {
          "internalType": "string",
          "name": "actualText",
          "type": "string"
        },
        {
          "internalType": "string",
          "name": "screenshotIPFS",
          "type": "string"
        },
        {
          "internalType": "uint256",
          "name": "levenshteinDistance",
          "type": "uint256"
        },
        {
          "internalType": "uint256",
          "name": "validatorCount",
          "type": "uint256"
        },
        {
          "internalType": "bool",
          "name": "consensusReached",
          "type": "bool"
        }
      ],
      "stateMutability": "view",
      "type": "function"
    },
    {
      "inputs": [
        {
          "internalType": "bytes32",
          "name": "marketId",
          "type": "bytes32"
        },
        {
          "internalType": "bytes32",
          "name": "submissionId",
          "type": "bytes32"
        },
        {
          "internalType": "address",
          "name": "oracle",
          "type": "address"
        }
      ],
      "name": "hasOracleValidated",
      "outputs": [
        {
          "internalType": "bool",
          "name": "",
          "type": "bool"
        }
      ],
      "stateMutability": "view",
      "type": "function"
    },
    {
      "inputs": [
        {
          "internalType": "bytes32",
          "name": "",
          "type": "bytes32"
        }
      ],
      "name": "marketOracles",
      "outputs": [
        {
          "internalType": "uint256",
          "name": "totalValidations",
          "type": "uint256"
        },
        {
          "internalType": "bool",
          "name": "isResolved",
          "type": "bool"
        }
      ],
      "stateMutability": "view",
      "type": "function"
    },
    {
      "inputs": [],
      "name": "nodeRegistry",
      "outputs": [
        {
          "internalType": "contract INodeRegistry",
          "name": "",
          "type": "address"
        }
      ],
      "stateMutability": "view",
      "type": "function"
    },
    {
      "inputs": [],
      "name": "predictionMarket",
      "outputs": [
        {
          "internalType": "contract IEnhancedPredictionMarket",
          "name": "",
          "type": "address"
        }
      ],
      "stateMutability": "view",
      "type": "function"
    },
    {
      "inputs": [
        {
          "internalType": "bytes32",
          "name": "marketId",
          "type": "bytes32"
        },
        {
          "internalType": "bytes32",
          "name": "submissionId",
          "type": "bytes32"
        },
        {
          "internalType": "string",
          "name": "actualText",
          "type": "string"
        },
        {
          "internalType": "string",
          "name": "screenshotIPFS",
          "type": "string"
        },
        {
          "internalType": "string",
          "name": "predictedText",
          "type": "string"
        }
      ],
      "name": "submitOracleData",
      "outputs": [],
      "stateMutability": "nonpayable",
      "type": "function"
    }
  ],
  "bytecode": "0x60803461009257601f6113ba38819003918201601f19168301916001600160401b0383118484101761009757808492604094855283398101031261009257610052602061004b836100ad565b92016100ad565b6001600081905580546001600160a01b039384166001600160a01b031991821617909155600280549290931691161790556040516112f890816100c28239f35b600080fd5b634e487b7160e01b600052604160045260246000fd5b51906001600160a01b03821682036100925756fe608080604052600436101561001357600080fd5b60003560e01c9081635044691114610b4a575080635ed1f96314610b2e578063bca125f014610b12578063cef45eb81461020a578063d33e996614610175578063d9b5c4a51461014c578063def114b614610123578063df6091a3146100c45763e5a5064b1461008257600080fd5b346100bf5760203660031901126100bf57600435600052600360205260408060002060ff6003600283015492015416825191825215156020820152f35b600080fd5b346100bf5760403660031901126100bf5767ffffffffffffffff6004358181116100bf576100f6903690600401610c7f565b906024359081116100bf5760209161011561011b923690600401610c7f565b90610da2565b604051908152f35b346100bf5760003660031901126100bf576001546040516001600160a01b039091168152602090f35b346100bf5760003660031901126100bf576002546040516001600160a01b039091168152602090f35b346100bf5760403660031901126100bf57600435600052600360205260406000206024356000526020526101e660406000206003810154600482015460ff600684015416906101f46101d260016101cb8761121c565b960161121c565b60405196879660a0885260a0880190610bd6565b908682036020880152610bd6565b9260408501526060840152151560808301520390f35b346100bf5760a03660031901126100bf5760443567ffffffffffffffff81116100bf5761023b903690600401610ba8565b60643567ffffffffffffffff81116100bf5761025b903690600401610ba8565b91909260843567ffffffffffffffff81116100bf5761027e903690600401610ba8565b949093600260005414610b005760026000819055546040516303a1e45b60e31b815233600482015290602090829060249082906001600160a01b03165afa908115610a7557600091610ac6575b5015610a815760015460405163c3c95c7b60e01b815260048035908201529060c090829060249082906001600160a01b03165afa908115610a7557600090600092610a21575b5080156109e4574211156109a65761096157600435600052600360205260406000209460243560005285602052604060002096336000526005880160205260ff6040600020541661090b576101156103769261036e368989610c38565b923691610c38565b946004870154156000146107665767ffffffffffffffff85116105dc5761039d8754610caa565b601f8111610722575b50846000601f82116001146106bd576000916106b2575b508560011b906000198760031b1c19161787555b67ffffffffffffffff82116105dc576103ed6001880154610caa565b601f811161066b575b50816000601f82116001146105fd576000916105f2575b508260011b906000198460031b1c19161760018801555b60405160208101908686833761044a602082898101600083820152038084520182610c16565b51902060028801558560038801556001810154600160401b8110156105dc5780600161047f9201600184015560018301610ce4565b81549060031b90602435821b91600019901b19161790555b600487015493600160401b8510156105dc57600261051b926104c8876001610529990160048d015560048c01610ce4565b81549060031b9033821b9160018060a01b03901b19161790553360005260058a016020526040600020600160ff19825416179055016105078154610d12565b905560405195606087526060870191610d37565b918483036020860152610d37565b91604082015233917fdf26e17d6dc2398699cb9538d059ed1af912fa8739dfbff9a7302fd6bf2fd0596024359280600435930390a46004810154906003821015806105cd575b61057b575b6001600055005b600601600160ff19825416179055604051908152602435907f7d106a5c37702184b49d989eaee4053250c131004f23deff2af8acdc5784f282602060043592a36105c6600435611060565b8080610574565b5060ff6006820154161561056f565b634e487b7160e01b600052604160045260246000fd5b90508301358861040d565b90506001880160005260206000209060005b601f1985168110610653575083601f19811610610639575b5050600182811b016001880155610424565b840135600019600385901b60f8161c191690558780610627565b9091602060018192858901358155019301910161060f565b600188016000526020600020601f840160051c8101602085106106ab575b601f830160051c8201811061069f5750506103f6565b60008155600101610689565b5080610689565b9050840135886103bd565b60008981526020812092505b601f198816811061070a575086601f198116106106f0575b5050600185811b0187556103d1565b850135600019600388901b60f8161c1916905587806106e1565b9091602060018192858a0135815501930191016106c9565b876000526020600020601f870160051c81016020881061075f575b601f830160051c820181106107535750506103a6565b6000815560010161073d565b508061073d565b60405160208101908686833761078c602082898101600083820152038084520182610c16565b5190206002880154036108b1576040516020810190838583376107bf602082868101600083820152038084520182610c16565b51902060405160018901548160006107d683610caa565b9260018116908115610893575060011461084f575b6107fe925003601f198101835282610c16565b60208151910120146104975760405162461bcd60e51b815260206004820152601d60248201527f53637265656e73686f7420495046532068617368206d69736d617463680000006044820152606490fd5b505060018a016000528160206000206000905b83821061087957505060206107fe928201016107eb565b602091925080600191548385880101520191018391610862565b602092506107fe94915060ff191682840152801515028201016107eb565b60405162461bcd60e51b815260206004820152602c60248201527f546578742068617368206d69736d6174636820776974682070726576696f757360448201526b207375626d697373696f6e7360a01b6064820152608490fd5b60405162461bcd60e51b815260206004820152602860248201527f4f7261636c6520616c72656164792076616c69646174656420746869732073756044820152673136b4b9b9b4b7b760c11b6064820152608490fd5b60405162461bcd60e51b815260206004820152601760248201527f4d61726b657420616c7265616479207265736f6c7665640000000000000000006044820152606490fd5b60405162461bcd60e51b815260206004820152601660248201527513585c9ad95d081b9bdd081e595d08195e1c1a5c995960521b6044820152606490fd5b60405162461bcd60e51b815260206004820152601560248201527413585c9ad95d08191bd95cc81b9bdd08195e1a5cdd605a1b6044820152606490fd5b91505060c0813d8211610a6d575b81610a3c60c09383610c16565b810103126100bf5780516001600160a01b038116036100bf57610a66606060408301519201610c9d565b9088610311565b3d9150610a2f565b6040513d6000823e3d90fd5b60405162461bcd60e51b815260206004820152601960248201527f4e6f7420616e20616374697665206f7261636c65206e6f6465000000000000006044820152606490fd5b90506020813d602011610af8575b81610ae160209383610c16565b810103126100bf57610af290610c9d565b876102cb565b3d9150610ad4565b604051633ee5aeb560e01b8152600490fd5b346100bf5760003660031901126100bf57602060405160428152f35b346100bf5760003660031901126100bf57602060405160038152f35b346100bf5760603660031901126100bf576044356001600160a01b03811691908290036100bf576020916004356000526003835260406000206024356000528352600560406000200190600052825260ff6040600020541615158152f35b9181601f840112156100bf5782359167ffffffffffffffff83116100bf57602083818601950101116100bf57565b919082519283825260005b848110610c02575050826000602080949584010152601f8019910116010190565b602081830181015184830182015201610be1565b90601f8019910116810190811067ffffffffffffffff8211176105dc57604052565b92919267ffffffffffffffff82116105dc5760405191610c62601f8201601f191660200184610c16565b8294818452818301116100bf578281602093846000960137010152565b9080601f830112156100bf57816020610c9a93359101610c38565b90565b519081151582036100bf57565b90600182811c92168015610cda575b6020831014610cc457565b634e487b7160e01b600052602260045260246000fd5b91607f1691610cb9565b8054821015610cfc5760005260206000200190600090565b634e487b7160e01b600052603260045260246000fd5b6000198114610d215760010190565b634e487b7160e01b600052601160045260246000fd5b908060209392818452848401376000828201840152601f01601f1916010190565b67ffffffffffffffff81116105dc5760051b60200190565b805115610cfc5760200190565b8051821015610cfc5760209160051b010190565b908151811015610cfc570160200190565b805190825192821561105a57831561105357610118808411159081611048575b5015610ff15760019081840192838511610d2157610ddf84610d58565b93610e00604091610df283519788610c16565b808752601f19918291610d58565b0160005b818110610fe0575050600090858901808a11925b89811115610f8e57505050505060005b85811115610f71575060005b86811115610f5a5750825b85811115610e635750505050610e5f9291610e5991610d7d565b51610d7d565b5190565b835b87811115610e7c5750610e7790610d12565b610e3f565b6000198281019190838311610d21576001600160f81b03199081610ea08588610d91565b511690830191838311610d2157610eb78389610d91565b511603610f53576000905b610ed083610e59868c610d7d565b5190888201809211610d2157610eea81610e59888d610d7d565b5194898601809611610d215760ff91610e59610f06928d610d7d565b5192168201809211610d2157610f3f9380821015610f4b5750905b80821015610f4457505b610f3982610e59868b610d7d565b52610d12565b610e65565b9050610f2b565b905090610f21565b8690610ec2565b8080610f39610f6c93610e5989610d70565b610e34565b8080610f39610f83610f899489610d7d565b51610d70565b610e28565b83610d2157610fdb90610fa083610d58565b610fac87519182610c16565b83815284610fb985610d58565b01366020830137610fca828c610d7d565b52610fd5818b610d7d565b50610d12565b610e18565b806060602080938b01015201610e04565b60405162461bcd60e51b815260206004820152602960248201527f537472696e677320746f6f206c6f6e6720666f72206f6e2d636861696e2063616044820152683631bab630ba34b7b760b91b6064820152608490fd5b905084111538610dc2565b5050905090565b50505090565b90600091808352600390602082815260409283862093818501805460ff9384821661121057600019948a80996001938293858301938454955b8681106111ab575b505050505050816111a1575b506110be575b505050505050509050565b60ff191660019081179091555487906001600160a01b0316803b1561119d57819060448451809481936303536e6360e41b83528a60048401528b60248401525af1801561119357611143575b507f50d45b923fd79ca96c6cecb390db4bd5218938f4168bca1b601c3016f4f01aa8939495965051908152a380388080808080806110b3565b67ffffffffffffffff811161117f57815294955085947f50d45b923fd79ca96c6cecb390db4bd5218938f4168bca1b601c3016f4f01aa861110a565b634e487b7160e01b88526041600452602488fd5b82513d8a823e3d90fd5b5080fd5b90501515386110ad565b8c856111b78389610ce4565b905490871b1c91828552528b832084600682015416156111fa578501548d81106111ec575b50506111e790610d12565b611099565b909f509b506111e7386111dc565b5050509495505050505090388080808e816110a1565b50505050505050509050565b906040519182600082549261123084610caa565b90818452600194858116908160001461129f575060011461125c575b505061125a92500383610c16565b565b9093915060005260209081600020936000915b81831061128757505061125a9350820101388061124c565b8554888401850152948501948794509183019161126f565b91505061125a94506020925060ff191682840152151560051b820101388061124c56fea264697066735822122061e79adfaceb88e058431908c1b2c14b14e78849719717fae6905de8cc0bfa0d64736f6c63430008140033",
  "linkReferences": {},
  "deployedLinkReferences": {}
}