{
  "_format": "hh-sol-artifact-1",
  "contractName": "NodeRegistry",
  "sourceName": "contracts/src/NodeRegistry.sol",
  "abi": [
    {
      "inputs": [],
      "stateMutability": "nonpayable",
      "type": "constructor"
    },
    {
      "inputs": [
        {
          "internalType": "address",
          "name": "owner",
          "type": "address"
        }
      ],
      "name": "OwnableInvalidOwner",
      "type": "error"
    },
    {
      "inputs": [
        {
          "internalType": "address",
          "name": "account",
          "type": "address"
        }
      ],
      "name": "OwnableUnauthorizedAccount",
      "type": "error"
    },
    {
      "inputs": [],
      "name": "ReentrancyGuardReentrantCall",
      "type": "error"
    },
    {
      "anonymous": false,
      "inputs": [
        {
          "indexed": true,
          "internalType": "address",
          "name": "operator",
          "type": "address"
        }
      ],
      "name": "NodeDeactivated",
      "type": "event"
    },
    {
      "anonymous": false,
      "inputs": [
        {
          "indexed": true,
          "internalType": "address",
          "name": "operator",
          "type": "address"
        },
        {
          "indexed": false,
          "internalType": "uint256",
          "name": "stake",
          "type": "uint256"
        }
      ],
      "name": "NodeRegistered",
      "type": "event"
    },
    {
      "anonymous": false,
      "inputs": [
        {
          "indexed": true,
          "internalType": "address",
          "name": "operator",
          "type": "address"
        },
        {
          "indexed": false,
          "internalType": "uint256",
          "name": "amount",
          "type": "uint256"
        }
      ],
      "name": "NodeSlashed",
      "type": "event"
    },
    {
      "anonymous": false,
      "inputs": [
        {
          "indexed": true,
          "internalType": "address",
          "name": "previousOwner",
          "type": "address"
        },
        {
          "indexed": true,
          "internalType": "address",
          "name": "newOwner",
          "type": "address"
        }
      ],
      "name": "OwnershipTransferred",
      "type": "event"
    },
    {
      "anonymous": false,
      "inputs": [
        {
          "indexed": true,
          "internalType": "address",
          "name": "node",
          "type": "address"
        },
        {
          "indexed": false,
          "internalType": "uint256",
          "name": "amount",
          "type": "uint256"
        }
      ],
      "name": "RewardDistributed",
      "type": "event"
    },
    {
      "anonymous": false,
      "inputs": [
        {
          "indexed": true,
          "internalType": "address",
          "name": "operator",
          "type": "address"
        },
        {
          "indexed": false,
          "internalType": "uint256",
          "name": "amount",
          "type": "uint256"
        }
      ],
      "name": "StakeWithdrawn",
      "type": "event"
    },
    {
      "anonymous": false,
      "inputs": [
        {
          "indexed": true,
          "internalType": "uint256",
          "name": "voteId",
          "type": "uint256"
        },
        {
          "indexed": true,
          "internalType": "address",
          "name": "voter",
          "type": "address"
        },
        {
          "indexed": false,
          "internalType": "bool",
          "name": "support",
          "type": "bool"
        }
      ],
      "name": "VoteCast",
      "type": "event"
    },
    {
      "anonymous": false,
      "inputs": [
        {
          "indexed": true,
          "internalType": "uint256",
          "name": "voteId",
          "type": "uint256"
        },
        {
          "indexed": true,
          "internalType": "address",
          "name": "subject",
          "type": "address"
        }
      ],
      "name": "VoteCreated",
      "type": "event"
    },
    {
      "anonymous": false,
      "inputs": [
        {
          "indexed": true,
          "internalType": "uint256",
          "name": "voteId",
          "type": "uint256"
        },
        {
          "indexed": false,
          "internalType": "bool",
          "name": "approved",
          "type": "bool"
        }
      ],
      "name": "VoteExecuted",
      "type": "event"
    },
    {
      "inputs": [],
      "name": "INACTIVITY_PERIOD",
      "outputs": [
        {
          "internalType": "uint256",
          "name": "",
          "type": "uint256"
        }
      ],
      "stateMutability": "view",
      "type": "function"
    },
    {
      "inputs": [],
      "name": "MINIMUM_STAKE",
      "outputs": [
        {
          "internalType": "uint256",
          "name": "",
          "type": "uint256"
        }
      ],
      "stateMutability": "view",
      "type": "function"
    },
    {
      "inputs": [],
      "name": "QUORUM_PERCENTAGE",
      "outputs": [
        {
          "internalType": "uint256",
          "name": "",
          "type": "uint256"
        }
      ],
      "stateMutability": "view",
      "type": "function"
    },
    {
      "inputs": [],
      "name": "SLASH_AMOUNT",
      "outputs": [
        {
          "internalType": "uint256",
          "name": "",
          "type": "uint256"
        }
      ],
      "stateMutability": "view",
      "type": "function"
    },
    {
      "inputs": [],
      "name": "VOTING_PERIOD",
      "outputs": [
        {
          "internalType": "uint256",
          "name": "",
          "type": "uint256"
        }
      ],
      "stateMutability": "view",
      "type": "function"
    },
    {
      "inputs": [],
      "name": "activeNodeCount",
      "outputs": [
        {
          "internalType": "uint256",
          "name": "",
          "type": "uint256"
        }
      ],
      "stateMutability": "view",
      "type": "function"
    },
    {
      "inputs": [
        {
          "internalType": "uint256",
          "name": "_voteId",
          "type": "uint256"
        },
        {
          "internalType": "bool",
          "name": "_support",
          "type": "bool"
        }
      ],
      "name": "castVote",
      "outputs": [],
      "stateMutability": "nonpayable",
      "type": "function"
    },
    {
      "inputs": [],
      "name": "checkInactiveNodes",
      "outputs": [],
      "stateMutability": "nonpayable",
      "type": "function"
    },
    {
      "inputs": [],
      "name": "distributeRewards",
      "outputs": [],
      "stateMutability": "payable",
      "type": "function"
    },
    {
      "inputs": [
        {
          "internalType": "uint256",
          "name": "_voteId",
          "type": "uint256"
        }
      ],
      "name": "executeVote",
      "outputs": [],
      "stateMutability": "nonpayable",
      "type": "function"
    },
    {
      "inputs": [],
      "name": "getActiveNodes",
      "outputs": [
        {
          "internalType": "address[]",
          "name": "",
          "type": "address[]"
        }
      ],
      "stateMutability": "view",
      "type": "function"
    },
    {
      "inputs": [
        {
          "internalType": "address",
          "name": "_operator",
          "type": "address"
        }
      ],
      "name": "getNodeDetails",
      "outputs": [
        {
          "internalType": "uint256",
          "name": "stake",
          "type": "uint256"
        },
        {
          "internalType": "uint256",
          "name": "reputation",
          "type": "uint256"
        },
        {
          "internalType": "bool",
          "name": "active",
          "type": "bool"
        },
        {
          "internalType": "string",
          "name": "endpoint",
          "type": "string"
        },
        {
          "internalType": "uint256",
          "name": "totalRewards",
          "type": "uint256"
        }
      ],
      "stateMutability": "view",
      "type": "function"
    },
    {
      "inputs": [],
      "name": "heartbeat",
      "outputs": [],
      "stateMutability": "nonpayable",
      "type": "function"
    },
    {
      "inputs": [
        {
          "internalType": "address",
          "name": "",
          "type": "address"
        }
      ],
      "name": "isNode",
      "outputs": [
        {
          "internalType": "bool",
          "name": "",
          "type": "bool"
        }
      ],
      "stateMutability": "view",
      "type": "function"
    },
    {
      "inputs": [],
      "name": "nodeCount",
      "outputs": [
        {
          "internalType": "uint256",
          "name": "",
          "type": "uint256"
        }
      ],
      "stateMutability": "view",
      "type": "function"
    },
    {
      "inputs": [
        {
          "internalType": "uint256",
          "name": "",
          "type": "uint256"
        }
      ],
      "name": "nodeList",
      "outputs": [
        {
          "internalType": "address",
          "name": "",
          "type": "address"
        }
      ],
      "stateMutability": "view",
      "type": "function"
    },
    {
      "inputs": [
        {
          "internalType": "address",
          "name": "",
          "type": "address"
        }
      ],
      "name": "nodes",
      "outputs": [
        {
          "internalType": "address",
          "name": "operator",
          "type": "address"
        },
        {
          "internalType": "uint256",
          "name": "stake",
          "type": "uint256"
        },
        {
          "internalType": "uint256",
          "name": "reputation",
          "type": "uint256"
        },
        {
          "internalType": "bool",
          "name": "active",
          "type": "bool"
        },
        {
          "internalType": "uint256",
          "name": "registrationTime",
          "type": "uint256"
        },
        {
          "internalType": "uint256",
          "name": "lastActiveTime",
          "type": "uint256"
        },
        {
          "internalType": "string",
          "name": "endpoint",
          "type": "string"
        },
        {
          "internalType": "uint256",
          "name": "totalRewards",
          "type": "uint256"
        },
        {
          "internalType": "uint256",
          "name": "slashCount",
          "type": "uint256"
        }
      ],
      "stateMutability": "view",
      "type": "function"
    },
    {
      "inputs": [],
      "name": "owner",
      "outputs": [
        {
          "internalType": "address",
          "name": "",
          "type": "address"
        }
      ],
      "stateMutability": "view",
      "type": "function"
    },
    {
      "inputs": [
        {
          "internalType": "address",
          "name": "",
          "type": "address"
        }
      ],
      "name": "pendingWithdrawals",
      "outputs": [
        {
          "internalType": "uint256",
          "name": "",
          "type": "uint256"
        }
      ],
      "stateMutability": "view",
      "type": "function"
    },
    {
      "inputs": [
        {
          "internalType": "string",
          "name": "_endpoint",
          "type": "string"
        }
      ],
      "name": "registerNode",
      "outputs": [],
      "stateMutability": "payable",
      "type": "function"
    },
    {
      "inputs": [],
      "name": "renounceOwnership",
      "outputs": [],
      "stateMutability": "nonpayable",
      "type": "function"
    },
    {
      "inputs": [
        {
          "internalType": "address",
          "name": "_operator",
          "type": "address"
        }
      ],
      "name": "slashNode",
      "outputs": [],
      "stateMutability": "nonpayable",
      "type": "function"
    },
    {
      "inputs": [],
      "name": "totalStaked",
      "outputs": [
        {
          "internalType": "uint256",
          "name": "",
          "type": "uint256"
        }
      ],
      "stateMutability": "view",
      "type": "function"
    },
    {
      "inputs": [
        {
          "internalType": "address",
          "name": "newOwner",
          "type": "address"
        }
      ],
      "name": "transferOwnership",
      "outputs": [],
      "stateMutability": "nonpayable",
      "type": "function"
    },
    {
      "inputs": [
        {
          "internalType": "string",
          "name": "_endpoint",
          "type": "string"
        }
      ],
      "name": "updateEndpoint",
      "outputs": [],
      "stateMutability": "nonpayable",
      "type": "function"
    },
    {
      "inputs": [],
      "name": "voteCount",
      "outputs": [
        {
          "internalType": "uint256",
          "name": "",
          "type": "uint256"
        }
      ],
      "stateMutability": "view",
      "type": "function"
    },
    {
      "inputs": [
        {
          "internalType": "uint256",
          "name": "",
          "type": "uint256"
        }
      ],
      "name": "votes",
      "outputs": [
        {
          "internalType": "uint256",
          "name": "votesFor",
          "type": "uint256"
        },
        {
          "internalType": "uint256",
          "name": "votesAgainst",
          "type": "uint256"
        },
        {
          "internalType": "uint256",
          "name": "deadline",
          "type": "uint256"
        },
        {
          "internalType": "bool",
          "name": "executed",
          "type": "bool"
        }
      ],
      "stateMutability": "view",
      "type": "function"
    },
    {
      "inputs": [],
      "name": "withdraw",
      "outputs": [],
      "stateMutability": "nonpayable",
      "type": "function"
    }
  ],
  "bytecode": "0x6080806040523461007e5733156100685760008054336001600160a01b03198216811783556040519290916001600160a01b0316907f8be0079c531659141344cd1fd0a4f28419497f9722a3daafe3b4186f6b6457e09080a3600180556117bf90816100848239f35b631e4fbdf760e01b815260006004820152602490fd5b600080fdfe608060409080825260048036101561001657600080fd5b600091823560e01c908163017501521461130f5750806308dbbb03146112eb57806315373e3d14611109578063189a5a1714611055578063208f2a311461101357806327c6f43e14610c2d5780633772060614610c0a5780633ccfd60b14610b4e5780633defb96214610af65780635c019d2e1461098d5780635dca14f1146107cb5780635df813301461077b5780636b51e9191461064c5780636da49b831461062d5780636f4a2cd014610527578063715018a6146104ca57806375340815146104ab578063817b1cd21461048c5780638da5cb5b14610464578063b1610d7e14610446578063b18ada6714610428578063bafb35811461039f578063c5167d50146102ef578063c6384071146102d0578063ee8a7c15146102b4578063f2fde38b14610226578063f3f43703146101e75763f98a4eca1461015857600080fd5b346101e35760203660031901126101e3578035908183526008602052838320908082015442106101a057509061019860ff600561019d940154161561162d565b611671565b80f35b606490602086519162461bcd60e51b8352820152601760248201527f566f74696e6720706572696f64206e6f7420656e6465640000000000000000006044820152fd5b5080fd5b5082903461022257602036600319011261022257356001600160a01b0381169081900361022257828291602094526009845220549051908152f35b8280fd5b508234610222576020366003190112610222576001600160a01b038235818116939192908490036102b05761025961156b565b831561029a57505082546001600160a01b0319811683178455167f8be0079c531659141344cd1fd0a4f28419497f9722a3daafe3b4186f6b6457e08380a380f35b51631e4fbdf760e01b8152908101849052602490fd5b8480fd5b8284346101e357816003193601126101e3576020905160338152f35b8284346101e357816003193601126101e3576020906005549051908152f35b5091346101e357816003193601126101e357815b600a5481101561039b57610316816114a8565b9054600391821b1c6001600160a01b0316808552600660205283852091820154909160ff91909116908161036b575b5090610357929161035c575b50611597565b610303565b610365906116d0565b38610351565b60059150015462093a808101809111610388574211610357610345565b634e487b7160e01b855260118652602485fd5b8280f35b5082903461022257602036600319011261022257356001600160a01b0381169081900361022257918192815260066020522060018101549061041e60028201549360ff600384015416906103fa6006600786015495016113c2565b9181519687968752602087015215159085015260a0606085015260a0840190611468565b9060808301520390f35b8284346101e357816003193601126101e3576020905162093a808152f35b8284346101e357816003193601126101e35760209051620151808152f35b8284346101e357816003193601126101e357905490516001600160a01b039091168152602090f35b5082903461022257826003193601126102225760209250549051908152f35b8284346101e357816003193601126101e3576020906003549051908152f35b82346105245780600319360112610524576104e361156b565b80546001600160a01b03198116825581906001600160a01b03167f8be0079c531659141344cd1fd0a4f28419497f9722a3daafe3b4186f6b6457e08280a380f35b80fd5b5082826003193601126102225761053c61156b565b60039182549081156105f85750340492805b600a548110156105f45780610565610598926114a8565b905490861b1c6001600160a01b0316808452600660209081528585208088015490919060ff1661059d575b505050611597565b61054e565b60077fe34918ff1c7084970068b53fd71ad6d8b04e9f15d3886cbf006443e6cdc52ea692016105cd8a82546115bc565b9055828652600981528686206105e48a82546115bc565b90558651898152a2868080610590565b5080f35b606490602084519162461bcd60e51b8352820152600f60248201526e4e6f20616374697665206e6f64657360881b6044820152fd5b8284346101e357816003193601126101e3576020906002549051908152f35b5090346105245780600319360112610524579190600392835461068661067182611771565b9161067e8651938461138a565b808352611771565b6020958287019491601f1901368637838491600a54925b8381106106ed57505050505083519485948186019282875251809352850193925b8281106106cd57505050500390f35b83516001600160a01b0316855286955093810193928101926001016106be565b6106fc819a979698999a6114a8565b90546001600160a01b0391841b1c81168752600688528a872083015460ff16610735575b5061072a90611597565b98979694959861069d565b61073e826114a8565b905490841b1c1661074e84611597565b9389518110156107685760051b890188015261072a610720565b634e487b7160e01b885260328752602488fd5b5082903461022257602036600319011261022257816080938235815260086020522060028101549260ff600560038401549484015493015416928151948552602085015283015215156060820152f35b5091346101e3576020806003193601126102225783356001600160a01b038116928382036102b0576107fb61156b565b8385526007835260ff8186205416156109555783855260068352808520916001830192835490678ac7230489e800009485831061091257678ac7230489e7ffff1983019283116108c657908260029255600881016108598154611597565b9055018054600a8111156108d95760091981019081116108c6577f51cf713376ddb1e5f5828bb6aa39d99de812176d62c3d3550bdc4e0b5e86e1a5979899509068056bc75e2d631000009291905b55106108b7575b5051908152a280f35b6108c0906116d0565b386108ae565b634e487b7160e01b895260118a52602489fd5b508798509068056bc75e2d63100000917f51cf713376ddb1e5f5828bb6aa39d99de812176d62c3d3550bdc4e0b5e86e1a59798906108a7565b845162461bcd60e51b8152808b01889052601b60248201527f496e73756666696369656e74207374616b6520746f20736c61736800000000006044820152606490fd5b5162461bcd60e51b81528086018390526013602482015272139bd91948191bd95cc81b9bdd08195e1a5cdd606a1b6044820152606490fd5b5091346101e35761099d366114f5565b9233835260066020926007845260ff818620541680610ae3575b6109c0906115ec565b3385528184528420019184519167ffffffffffffffff8311610ad057506109e78354611350565b601f8111610a8d575b5080601f8311600114610a2b5750839482939492610a20575b50508160011b916000199060031b1c191617905580f35b015190503880610a09565b90601f198316958486528286209286905b888210610a7557505083600195969710610a5c575b505050811b01905580f35b015160001960f88460031b161c19169055388080610a51565b80600185968294968601518155019501930190610a3c565b838552818520601f840160051c810191838510610ac6575b601f0160051c01905b818110610abb57506109f0565b858155600101610aae565b9091508190610aa5565b634e487b7160e01b855260419052602484fd5b508184528085206003015460ff166109b7565b8284346101e357816003193601126101e357338252600760205260ff818320541680610b39575b610b26906115ec565b3382526006602052600542918320015580f35b5060066020528082206003015460ff16610b1d565b508234610222578260031936011261022257610b686115c9565b338352600960205280832054918215610bd257503383526009602052828181205582808080853382f115610bc757519081527f8108595eb6bad3acefa9da467d90cc2217686d5c5ac85460f8b7849c840645fc60203392a26001805580f35b51913d9150823e3d90fd5b6020606492519162461bcd60e51b835282015260136024820152724e6f7468696e6720746f20776974686472617760681b6044820152fd5b8284346101e357816003193601126101e35760209051678ac7230489e800008152f35b5091610c38366114f5565b610c406115c9565b33835260206007815260ff8385205416610fdc5768056bc75e2d631000003410610fa557815115610f6f57825167ffffffffffffffff9390610120810185811182821017610f5c578252338152828101348152828201956064875287606084018181526080850142815260a086019042825260c08701998a52610d1f60e0880193858552896101008a019680885233815260068d52209760018060a01b03809a51166bffffffffffffffffffffffff60a01b8a5416178955519c60019d8e8a0155516002890155511515600388019060ff801983541691151516179055565b518c860155519760059889860155600685019051938451908111610f4957610d478254611350565b601f8111610f03575b50888c601f8311600114610e93579060089683610e88575b5050600019600383901b1c1916908b1b1790555b51600784015551910155338652600783528186209060ff19918683825416179055600a5468010000000000000000811015610e75578087610dc09201600a556114a8565b819291549060031b9133831b921b1916179055610dde600254611597565b600255610dec3488546115bc565b8755835493610dfa85611597565b8155848752600884528287206201518042018042116108c6577ff773bca07d020a1bc1fdd45ea3db573da547dd27180143afaf075c158a8475949697989982015501908154169055519233907f4088952a7c4abd9c2939cca45f355d176f11397a90660c553110c209d212b2ad8780a33483523392a2805580f35b634e487b7160e01b885260418952602488fd5b015190503880610d68565b8c9291601f1983168583528c8320925b8d828210610ede575050978360089910610ec5575b505050811b019055610d7c565b015160001960f88460031b161c19169055388080610eb8565b9192958a9487849397999a9b9c015181550195019301908e9492989796959391610ea3565b828d52898d20601f83018c1c8101918b8410610f3f575b601f018c1c01908c908e5b838210610f3457505050610d50565b8155018c908e610f25565b9091508190610f1a565b634e487b7160e01b8c5260418d5260248cfd5b634e487b7160e01b875260418852602487fd5b8460649184519162461bcd60e51b83528201526011602482015270115b991c1bda5b9d081c995c5d5a5c9959607a1b6044820152fd5b8460649184519162461bcd60e51b83528201526012602482015271496e73756666696369656e74207374616b6560701b6044820152fd5b8460649184519162461bcd60e51b83528201526012602482015271105b1c9958591e481c9959da5cdd195c995960721b6044820152fd5b50829034610222576020366003190112610222573591600a54831015610524575061103f6020926114a8565b905491519160018060a01b039160031b1c168152f35b50919034610524576020366003190112610524576001600160a01b03908335828116908190036101e357908391815260066020522090815416916110f960018301549460028401549060ff600386015416908501546005860154916110bc600688016113c2565b93600860078901549801549680519a8b9a8b5260208b015289015215156060880152608087015260a08601526101208060c0870152850190611468565b9160e08401526101008301520390f35b5082903461022257816003193601126102225780359160243590811515908183036112e7573386526020906007825260ff8188205416806112d3575b61114e906115ec565b85875260088252808720938585015442101561129a5733885284835260ff82892054166112675784939287927fe71fcdac32df1877c1700e7bda2a03157e20993363a28fc35ac495cefc76e4d4926111b060ff600561120f9a0154161561162d565b338b52868352818b20600160ff198254161790556001870183526111e281838d209060ff801983541691151516179055565b1561125257600286016111f58154611597565b90555b519384523393a360036002820154910154906115bc565b906003549060338202918083046033149015171561123f5750606490041115611236575080f35b61019d90611671565b634e487b7160e01b855260119052602484fd5b600386016112608154611597565b90556111f8565b815162461bcd60e51b8152808701849052600d60248201526c105b1c9958591e481d9bdd1959609a1b6044820152606490fd5b815162461bcd60e51b81528087018490526013602482015272159bdd1a5b99c81c195c9a5bd908195b991959606a1b6044820152606490fd5b50600682528087206003015460ff16611145565b8580fd5b8284346101e357816003193601126101e3576020905168056bc75e2d631000008152f35b918491503461134c57602036600319011261134c57356001600160a01b0381169081900361134c5783526007602090815292205460ff1615158152f35b8380fd5b90600182811c92168015611380575b602083101461136a57565b634e487b7160e01b600052602260045260246000fd5b91607f169161135f565b90601f8019910116810190811067ffffffffffffffff8211176113ac57604052565b634e487b7160e01b600052604160045260246000fd5b90604051918260008254926113d684611350565b9081845260019485811690816000146114455750600114611402575b50506114009250038361138a565b565b9093915060005260209081600020936000915b81831061142d575050611400935082010138806113f2565b85548884018501529485019487945091830191611415565b91505061140094506020925060ff191682840152151560051b82010138806113f2565b919082519283825260005b848110611494575050826000602080949584010152601f8019910116010190565b602081830181015184830182015201611473565b600a548110156114df57600a6000527fc65a7bb8d6351c1cf70c95a316cc6a92839c986682d98bc35f958f4883f9d2a80190600090565b634e487b7160e01b600052603260045260246000fd5b60206003198201126115665767ffffffffffffffff60043581811161156657826023820112156115665780600401359182116113ac5760405192611543601f8401601f19166020018561138a565b828452602483830101116115665781600092602460209301838601378301015290565b600080fd5b6000546001600160a01b0316330361157f57565b60405163118cdaa760e01b8152336004820152602490fd5b60001981146115a65760010190565b634e487b7160e01b600052601160045260246000fd5b919082018092116115a657565b6002600154146115da576002600155565b604051633ee5aeb560e01b8152600490fd5b156115f357565b60405162461bcd60e51b81526020600482015260126024820152714e6f7420616e20616374697665206e6f646560701b6044820152606490fd5b1561163457565b60405162461bcd60e51b8152602060048201526015602482015274159bdd1948185b1c9958591e48195e1958dd5d1959605a1b6044820152606490fd5b8060005260086020527fcf40a1f621c94c9d8fd190570ee1606e7dedeb8fa422057b24f5ce1ea14111fc6020604060002060058101600160ff19825416179055600360028201549101546116c581836115bc565b5060405191118152a2565b6001600160a01b031660008181526006602052604081206003808201805460ff1916905554801561175d5760001901600355600101805483835260096020526040832080549091611720916115bc565b9055805460045490810390811161175d576004558190557fd9957750e6343405c319eb99a4ec67fa11cfd66969318cbc71aa2d45fa53a3499080a2565b634e487b7160e01b83526011600452602483fd5b67ffffffffffffffff81116113ac5760051b6020019056fea2646970667358221220bf0816a81c640cc05d28631851d1c6b41b81d422a3f350768191f5e61c83bf8e64736f6c63430008140033",
  "linkReferences": {},
  "deployedLinkReferences": {}
}