{
  "_format": "hh-sol-artifact-1",
  "contractName": "SecurityAudit",
  "sourceName": "contracts/src/SecurityAudit.sol",
  "abi": [
    {
      "inputs": [],
      "stateMutability": "nonpayable",
      "type": "constructor"
    },
    {
      "inputs": [],
      "name": "AccessControlBadConfirmation",
      "type": "error"
    },
    {
      "inputs": [
        {
          "internalType": "address",
          "name": "account",
          "type": "address"
        },
        {
          "internalType": "bytes32",
          "name": "neededRole",
          "type": "bytes32"
        }
      ],
      "name": "AccessControlUnauthorizedAccount",
      "type": "error"
    },
    {
      "inputs": [],
      "name": "EnforcedPause",
      "type": "error"
    },
    {
      "inputs": [],
      "name": "ExpectedPause",
      "type": "error"
    },
    {
      "inputs": [],
      "name": "ReentrancyGuardReentrantCall",
      "type": "error"
    },
    {
      "anonymous": false,
      "inputs": [
        {
          "indexed": true,
          "internalType": "address",
          "name": "activator",
          "type": "address"
        },
        {
          "indexed": false,
          "internalType": "string",
          "name": "reason",
          "type": "string"
        }
      ],
      "name": "EmergencyModeActivated",
      "type": "event"
    },
    {
      "anonymous": false,
      "inputs": [
        {
          "indexed": true,
          "internalType": "address",
          "name": "deactivator",
          "type": "address"
        }
      ],
      "name": "EmergencyModeDeactivated",
      "type": "event"
    },
    {
      "anonymous": false,
      "inputs": [
        {
          "indexed": false,
          "internalType": "address",
          "name": "account",
          "type": "address"
        }
      ],
      "name": "Paused",
      "type": "event"
    },
    {
      "anonymous": false,
      "inputs": [
        {
          "indexed": true,
          "internalType": "bytes32",
          "name": "role",
          "type": "bytes32"
        },
        {
          "indexed": true,
          "internalType": "bytes32",
          "name": "previousAdminRole",
          "type": "bytes32"
        },
        {
          "indexed": true,
          "internalType": "bytes32",
          "name": "newAdminRole",
          "type": "bytes32"
        }
      ],
      "name": "RoleAdminChanged",
      "type": "event"
    },
    {
      "anonymous": false,
      "inputs": [
        {
          "indexed": true,
          "internalType": "bytes32",
          "name": "role",
          "type": "bytes32"
        },
        {
          "indexed": true,
          "internalType": "address",
          "name": "account",
          "type": "address"
        },
        {
          "indexed": true,
          "internalType": "address",
          "name": "sender",
          "type": "address"
        }
      ],
      "name": "RoleGranted",
      "type": "event"
    },
    {
      "anonymous": false,
      "inputs": [
        {
          "indexed": true,
          "internalType": "bytes32",
          "name": "role",
          "type": "bytes32"
        },
        {
          "indexed": true,
          "internalType": "address",
          "name": "account",
          "type": "address"
        },
        {
          "indexed": true,
          "internalType": "address",
          "name": "sender",
          "type": "address"
        }
      ],
      "name": "RoleRevoked",
      "type": "event"
    },
    {
      "anonymous": false,
      "inputs": [
        {
          "indexed": false,
          "internalType": "string",
          "name": "alertType",
          "type": "string"
        },
        {
          "indexed": true,
          "internalType": "address",
          "name": "user",
          "type": "address"
        },
        {
          "indexed": false,
          "internalType": "uint256",
          "name": "value",
          "type": "uint256"
        }
      ],
      "name": "SecurityAlert",
      "type": "event"
    },
    {
      "anonymous": false,
      "inputs": [
        {
          "indexed": false,
          "internalType": "string",
          "name": "thresholdType",
          "type": "string"
        },
        {
          "indexed": false,
          "internalType": "uint256",
          "name": "oldValue",
          "type": "uint256"
        },
        {
          "indexed": false,
          "internalType": "uint256",
          "name": "newValue",
          "type": "uint256"
        }
      ],
      "name": "SecurityThresholdUpdated",
      "type": "event"
    },
    {
      "anonymous": false,
      "inputs": [
        {
          "indexed": false,
          "internalType": "address",
          "name": "account",
          "type": "address"
        }
      ],
      "name": "Unpaused",
      "type": "event"
    },
    {
      "anonymous": false,
      "inputs": [
        {
          "indexed": true,
          "internalType": "address",
          "name": "user",
          "type": "address"
        },
        {
          "indexed": false,
          "internalType": "string",
          "name": "reason",
          "type": "string"
        }
      ],
      "name": "UserBlacklisted",
      "type": "event"
    },
    {
      "anonymous": false,
      "inputs": [
        {
          "indexed": true,
          "internalType": "address",
          "name": "user",
          "type": "address"
        }
      ],
      "name": "UserWhitelisted",
      "type": "event"
    },
    {
      "inputs": [],
      "name": "DEFAULT_ADMIN_ROLE",
      "outputs": [
        {
          "internalType": "bytes32",
          "name": "",
          "type": "bytes32"
        }
      ],
      "stateMutability": "view",
      "type": "function"
    },
    {
      "inputs": [],
      "name": "EMERGENCY_ROLE",
      "outputs": [
        {
          "internalType": "bytes32",
          "name": "",
          "type": "bytes32"
        }
      ],
      "stateMutability": "view",
      "type": "function"
    },
    {
      "inputs": [],
      "name": "SECURITY_ADMIN_ROLE",
      "outputs": [
        {
          "internalType": "bytes32",
          "name": "",
          "type": "bytes32"
        }
      ],
      "stateMutability": "view",
      "type": "function"
    },
    {
      "inputs": [
        {
          "internalType": "string",
          "name": "reason",
          "type": "string"
        }
      ],
      "name": "activateEmergencyMode",
      "outputs": [],
      "stateMutability": "nonpayable",
      "type": "function"
    },
    {
      "inputs": [
        {
          "internalType": "address",
          "name": "user",
          "type": "address"
        },
        {
          "internalType": "string",
          "name": "reason",
          "type": "string"
        }
      ],
      "name": "blacklistUser",
      "outputs": [],
      "stateMutability": "nonpayable",
      "type": "function"
    },
    {
      "inputs": [
        {
          "internalType": "address",
          "name": "",
          "type": "address"
        }
      ],
      "name": "blacklisted",
      "outputs": [
        {
          "internalType": "bool",
          "name": "",
          "type": "bool"
        }
      ],
      "stateMutability": "view",
      "type": "function"
    },
    {
      "inputs": [
        {
          "internalType": "address",
          "name": "user",
          "type": "address"
        },
        {
          "internalType": "uint256",
          "name": "value",
          "type": "uint256"
        }
      ],
      "name": "checkTransactionSecurity",
      "outputs": [
        {
          "internalType": "bool",
          "name": "",
          "type": "bool"
        }
      ],
      "stateMutability": "nonpayable",
      "type": "function"
    },
    {
      "inputs": [],
      "name": "dailyWithdrawLimit",
      "outputs": [
        {
          "internalType": "uint256",
          "name": "",
          "type": "uint256"
        }
      ],
      "stateMutability": "view",
      "type": "function"
    },
    {
      "inputs": [
        {
          "internalType": "address",
          "name": "",
          "type": "address"
        }
      ],
      "name": "dailyWithdrawn",
      "outputs": [
        {
          "internalType": "uint256",
          "name": "",
          "type": "uint256"
        }
      ],
      "stateMutability": "view",
      "type": "function"
    },
    {
      "inputs": [],
      "name": "deactivateEmergencyMode",
      "outputs": [],
      "stateMutability": "nonpayable",
      "type": "function"
    },
    {
      "inputs": [],
      "name": "emergencyMode",
      "outputs": [
        {
          "internalType": "bool",
          "name": "",
          "type": "bool"
        }
      ],
      "stateMutability": "view",
      "type": "function"
    },
    {
      "inputs": [],
      "name": "emergencyWithdraw",
      "outputs": [],
      "stateMutability": "nonpayable",
      "type": "function"
    },
    {
      "inputs": [],
      "name": "emergencyWithdrawAddress",
      "outputs": [
        {
          "internalType": "address",
          "name": "",
          "type": "address"
        }
      ],
      "stateMutability": "view",
      "type": "function"
    },
    {
      "inputs": [
        {
          "internalType": "bytes32",
          "name": "role",
          "type": "bytes32"
        }
      ],
      "name": "getRoleAdmin",
      "outputs": [
        {
          "internalType": "bytes32",
          "name": "",
          "type": "bytes32"
        }
      ],
      "stateMutability": "view",
      "type": "function"
    },
    {
      "inputs": [
        {
          "internalType": "address",
          "name": "user",
          "type": "address"
        }
      ],
      "name": "getUserSecurityStatus",
      "outputs": [
        {
          "internalType": "bool",
          "name": "isBlacklisted",
          "type": "bool"
        },
        {
          "internalType": "uint256",
          "name": "dailyWithdrawAmount",
          "type": "uint256"
        },
        {
          "internalType": "uint256",
          "name": "transactionCountToday",
          "type": "uint256"
        },
        {
          "internalType": "uint256",
          "name": "lastAction",
          "type": "uint256"
        }
      ],
      "stateMutability": "view",
      "type": "function"
    },
    {
      "inputs": [
        {
          "internalType": "bytes32",
          "name": "role",
          "type": "bytes32"
        },
        {
          "internalType": "address",
          "name": "account",
          "type": "address"
        }
      ],
      "name": "grantRole",
      "outputs": [],
      "stateMutability": "nonpayable",
      "type": "function"
    },
    {
      "inputs": [
        {
          "internalType": "bytes32",
          "name": "role",
          "type": "bytes32"
        },
        {
          "internalType": "address",
          "name": "account",
          "type": "address"
        }
      ],
      "name": "hasRole",
      "outputs": [
        {
          "internalType": "bool",
          "name": "",
          "type": "bool"
        }
      ],
      "stateMutability": "view",
      "type": "function"
    },
    {
      "inputs": [
        {
          "internalType": "address",
          "name": "user",
          "type": "address"
        }
      ],
      "name": "isUserAllowed",
      "outputs": [
        {
          "internalType": "bool",
          "name": "",
          "type": "bool"
        }
      ],
      "stateMutability": "view",
      "type": "function"
    },
    {
      "inputs": [
        {
          "internalType": "address",
          "name": "",
          "type": "address"
        }
      ],
      "name": "lastActionTime",
      "outputs": [
        {
          "internalType": "uint256",
          "name": "",
          "type": "uint256"
        }
      ],
      "stateMutability": "view",
      "type": "function"
    },
    {
      "inputs": [],
      "name": "maxTransactionValue",
      "outputs": [
        {
          "internalType": "uint256",
          "name": "",
          "type": "uint256"
        }
      ],
      "stateMutability": "view",
      "type": "function"
    },
    {
      "inputs": [],
      "name": "pause",
      "outputs": [],
      "stateMutability": "nonpayable",
      "type": "function"
    },
    {
      "inputs": [],
      "name": "paused",
      "outputs": [
        {
          "internalType": "bool",
          "name": "",
          "type": "bool"
        }
      ],
      "stateMutability": "view",
      "type": "function"
    },
    {
      "inputs": [
        {
          "internalType": "bytes32",
          "name": "role",
          "type": "bytes32"
        },
        {
          "internalType": "address",
          "name": "callerConfirmation",
          "type": "address"
        }
      ],
      "name": "renounceRole",
      "outputs": [],
      "stateMutability": "nonpayable",
      "type": "function"
    },
    {
      "inputs": [
        {
          "internalType": "bytes32",
          "name": "role",
          "type": "bytes32"
        },
        {
          "internalType": "address",
          "name": "account",
          "type": "address"
        }
      ],
      "name": "revokeRole",
      "outputs": [],
      "stateMutability": "nonpayable",
      "type": "function"
    },
    {
      "inputs": [
        {
          "internalType": "bytes4",
          "name": "interfaceId",
          "type": "bytes4"
        }
      ],
      "name": "supportsInterface",
      "outputs": [
        {
          "internalType": "bool",
          "name": "",
          "type": "bool"
        }
      ],
      "stateMutability": "view",
      "type": "function"
    },
    {
      "inputs": [],
      "name": "suspiciousActivityThreshold",
      "outputs": [
        {
          "internalType": "uint256",
          "name": "",
          "type": "uint256"
        }
      ],
      "stateMutability": "view",
      "type": "function"
    },
    {
      "inputs": [
        {
          "internalType": "address",
          "name": "",
          "type": "address"
        }
      ],
      "name": "transactionCount",
      "outputs": [
        {
          "internalType": "uint256",
          "name": "",
          "type": "uint256"
        }
      ],
      "stateMutability": "view",
      "type": "function"
    },
    {
      "inputs": [],
      "name": "unpause",
      "outputs": [],
      "stateMutability": "nonpayable",
      "type": "function"
    },
    {
      "inputs": [
        {
          "internalType": "uint256",
          "name": "newValue",
          "type": "uint256"
        }
      ],
      "name": "updateDailyWithdrawLimit",
      "outputs": [],
      "stateMutability": "nonpayable",
      "type": "function"
    },
    {
      "inputs": [
        {
          "internalType": "uint256",
          "name": "newValue",
          "type": "uint256"
        }
      ],
      "name": "updateMaxTransactionValue",
      "outputs": [],
      "stateMutability": "nonpayable",
      "type": "function"
    },
    {
      "inputs": [
        {
          "internalType": "uint256",
          "name": "newValue",
          "type": "uint256"
        }
      ],
      "name": "updateSuspiciousActivityThreshold",
      "outputs": [],
      "stateMutability": "nonpayable",
      "type": "function"
    },
    {
      "inputs": [
        {
          "internalType": "address",
          "name": "user",
          "type": "address"
        }
      ],
      "name": "whitelistUser",
      "outputs": [],
      "stateMutability": "nonpayable",
      "type": "function"
    }
  ],
  "bytecode": "0x60806040523461008557600160025568056bc75e2d63100000600355683635c9adc5dea00000600455603260055560ff19600a5416600a556100403361008a565b5061004a33610109565b50610054336101aa565b50600a8054610100600160a81b0319163360081b610100600160a81b031617905560405161121c9081620002478239f35b600080fd5b6001600160a01b031660008181527fad3228b676f7d3cd4284a5443f17f1962b36e491b30a40b2405849e597ba5fb5602052604081205490919060ff1661010557818052816020526040822081835260205260408220600160ff198254161790553391600080516020620014638339815191528180a4600190565b5090565b6001600160a01b031660008181527faf98f812aff7afa65a38f385cbfe2372f92503364ec36993ce9a374828fff18b60205260408120549091907ff6e67e455c1170019df813a9dcb568f910c16426a5a6faffb00d325d6f118b679060ff166101a557808352826020526040832082845260205260408320600160ff1982541617905560008051602062001463833981519152339380a4600190565b505090565b6001600160a01b031660008181527f3c1b1854ab1360abbb06c8d4c6b2672d4b8cedc5eff522ab19e51d5cb8fdbd4660205260408120549091907fbf233dd2aafeb4d50879c4aa5c81e96d92f6e6945c906a58f9f2d1c1631b4b269060ff166101a557808352826020526040832082845260205260408320600160ff1982541617905560008051602062001463833981519152339380a460019056fe608060408181526004918236101561001657600080fd5b600092833560e01c91826301ffc9a714610bb957508163072861d314610b815781630905f56014610b5d578163123da59114610add57816320df435914610aa2578163248a9ca314610a7857816327f0bfd614610a405781632cbb9631146109c95781632ee72e181461099c5781632f2ff15d1461097257816336568abe1461092c5781633f4ba83a146108c25781634a4c560d146108515781634d0970c6146107bb5781635175cef51461075857816356091d89146106dd5781635c975abb146106b95781637afa85e81461067e5781638456cb591461061257816391d14854146105cc57816399b20eaf1461053457816399be3375146104fc578163a217fddf146104e1578163a52ba4e81461047a578163a948ce651461045b578163aa91be951461043c578163ace687eb1461041e578163bc8bc153146103c6578163c124a247146102f6578163d547741f146102b7578163db2e21bc146101c5575063dbac26e91461018557600080fd5b346101c15760203660031901126101c15760209160ff9082906001600160a01b036101ae610c0c565b1681526009855220541690519015158152f35b5080fd5b919050346102b357826003193601126102b3576101e0610d4c565b600a5460ff811615610278578390819081908190479060081c6001600160a01b03165af13d15610273573d61021c61021782610c79565b610c3d565b9081528460203d92013e5b15610230578280f35b906020606492519162461bcd60e51b8352820152601960248201527f456d657267656e6379207769746864726177206661696c6564000000000000006044820152fd5b610227565b815162461bcd60e51b815260208185015260156024820152744e6f7420696e20656d657267656e6379206d6f646560581b6044820152606490fd5b8280fd5b919050346102b357806003193601126102b3576102f291356102ed60016102dc610c27565b938387528660205286200154610da8565b610e4c565b5080f35b919050346102b35760203660031901126102b357813567ffffffffffffffff81116103c2576103289036908401610c95565b91610331610d4c565b60ff1990600182600a541617600a556001549060ff82166103b457507fa8bfc00a82dac609a5575e0d4bf2d4f2284be6d96c469bef935e1f8319277f4b929160019116176001557f62e78cea01bee320cd4e420270b5ea74000d11b0c9f74754ebdbfc544b05a25860208251338152a151806103ae33948261119d565b0390a280f35b835163d93c066560e01b8152fd5b8380fd5b82843461041b578160031936011261041b57506103e1610c0c565b91600280541461040d57506103ff6020926002805560243590610ee4565b906001600255519015158152f35b9051633ee5aeb560e01b8152fd5b80fd5b9050346102b357826003193601126102b35760209250549051908152f35b5050346101c157816003193601126101c1576020906003549051908152f35b5050346101c157816003193601126101c1576020906005549051908152f35b5050346101c15760203660031901126101c15760209160ff9082906001600160a01b036104a5610c0c565b168152600985522054161590816104d3575b816104c5575b519015158152f35b600a5460ff161591506104bd565b60015460ff161591506104b7565b5050346101c157816003193601126101c15751908152602090f35b5050346101c15760203660031901126101c15760209181906001600160a01b03610524610c0c565b1681526008845220549051908152f35b9050346102b357826003193601126102b35761054e610cd2565b60ff199081600a5416600a556001549060ff8216156105be575016600155513381527f5db9ee0a495bf2e6ff9c91a7834c1ba4fdd244a5e8aa4e537bd38aeae4b073aa90602090a1337fbd95437b04432c9bbcf6d10c00e0e1cdc482151ffe5da10870858d456ee9fc238280a280f35b8351638dfc202b60e01b8152fd5b9050346102b357816003193601126102b3578160209360ff926105ed610c27565b903582528186528282206001600160a01b039091168252855220549151911615158152f35b9050346102b357826003193601126102b35761062c610cd2565b6001549060ff821661067057507f62e78cea01bee320cd4e420270b5ea74000d11b0c9f74754ebdbfc544b05a25891600160209260ff19161760015551338152a180f35b825163d93c066560e01b8152fd5b5050346101c157816003193601126101c157602090517ff6e67e455c1170019df813a9dcb568f910c16426a5a6faffb00d325d6f118b678152f35b5050346101c157816003193601126101c15760209060ff6001541690519015158152f35b9050346102b35760203660031901126102b3577f180243f61b8276dd82dc334417bdca6b213cd59de8769746737b5ee09536862c9160a0913561071e610cd2565b600354918160035580519260608452600f60608501526e26a0ac2faa2920a729a0a1aa24a7a760891b60808501526020840152820152a180f35b5050346101c1576020806003193601126102b3576080926001600160a01b0361077f610c0c565b1681526009825260ff83822054169260078352808220546008845281808420549360068652205493825195151586528501528301526060820152f35b9050346102b357816003193601126102b3576107d5610c0c565b906024359167ffffffffffffffff831161084d5761081a6103ae927fcc1cf21b75158e751a071cc4770b92cde8bb2bc34f9187eedd0592b874a5566994369101610c95565b90610823610cd2565b6001600160a01b03168086526009602052848620805460ff1916600117905593519182918261119d565b8480fd5b5050346101c15760203660031901126101c1578161086d610c0c565b610875610cd2565b6001600160a01b031680825260096020908152838320805460ff1916905560089052918120557f7409cb8e690bcd1487fd4fd27dad3fa92388d201ba6f953631d6d6b26299f8498280a280f35b9050346102b357826003193601126102b3576108dc610cd2565b6001549060ff82161561091e575060ff1916600155513381527f5db9ee0a495bf2e6ff9c91a7834c1ba4fdd244a5e8aa4e537bd38aeae4b073aa90602090a180f35b8251638dfc202b60e01b8152fd5b8383346101c157806003193601126101c157610946610c27565b90336001600160a01b0383160361096357506102f2919235610e4c565b5163334bd91960e11b81528390fd5b919050346102b357806003193601126102b3576102f2913561099760016102dc610c27565b610dce565b5050346101c157816003193601126101c157600a54905160089190911c6001600160a01b03168152602090f35b919050346102b35760203660031901126102b3578160a0917f180243f61b8276dd82dc334417bdca6b213cd59de8769746737b5ee09536862c933590610a0d610cd2565b818354935580519260608452600b60608501526a111052531657d31253525560aa1b60808501526020840152820152a180f35b5050346101c15760203660031901126101c15760209181906001600160a01b03610a68610c0c565b1681526006845220549051908152f35b9050346102b35760203660031901126102b357816020936001923581528085522001549051908152f35b5050346101c157816003193601126101c157602090517fbf233dd2aafeb4d50879c4aa5c81e96d92f6e6945c906a58f9f2d1c1631b4b268152f35b9050346102b35760203660031901126102b3577f180243f61b8276dd82dc334417bdca6b213cd59de8769746737b5ee09536862c9160a09135610b1e610cd2565b600554918160055580519260608452601460608501527314d554d41250d253d554d7d512149154d213d31160621b60808501526020840152820152a180f35b5050346101c157816003193601126101c15760209060ff600a541690519015158152f35b5050346101c15760203660031901126101c15760209181906001600160a01b03610ba9610c0c565b1681526007845220549051908152f35b8491346102b35760203660031901126102b3573563ffffffff60e01b81168091036102b35760209250637965db0b60e01b8114908115610bfb575b5015158152f35b6301ffc9a760e01b14905083610bf4565b600435906001600160a01b0382168203610c2257565b600080fd5b602435906001600160a01b0382168203610c2257565b6040519190601f01601f1916820167ffffffffffffffff811183821017610c6357604052565b634e487b7160e01b600052604160045260246000fd5b67ffffffffffffffff8111610c6357601f01601f191660200190565b81601f82011215610c2257803590610caf61021783610c79565b9282845260208383010111610c2257816000926020809301838601378301015290565b3360009081527faf98f812aff7afa65a38f385cbfe2372f92503364ec36993ce9a374828fff18b60205260409020547ff6e67e455c1170019df813a9dcb568f910c16426a5a6faffb00d325d6f118b679060ff1615610d2e5750565b6044906040519063e2517d3f60e01b82523360048301526024820152fd5b3360009081527f3c1b1854ab1360abbb06c8d4c6b2672d4b8cedc5eff522ab19e51d5cb8fdbd4660205260409020547fbf233dd2aafeb4d50879c4aa5c81e96d92f6e6945c906a58f9f2d1c1631b4b269060ff1615610d2e5750565b80600052600060205260406000203360005260205260ff6040600020541615610d2e5750565b9060009180835282602052604083209160018060a01b03169182845260205260ff60408420541615600014610e4757808352826020526040832082845260205260408320600160ff198254161790557f2f8788117e7eff1d82e926ec794901d17c78024a50270940304540a733656f0d339380a4600190565b505090565b9060009180835282602052604083209160018060a01b03169182845260205260ff604084205416600014610e475780835282602052604083208284526020526040832060ff1981541690557ff6391f5c32d9c69d2a47ea670b442974b53935d1edc7fd64eb21e047a839171b339380a4600190565b91908201809211610ece57565b634e487b7160e01b600052601160045260246000fd5b6001600160a01b031660008181526009602090815260408083205490939060ff166111635760ff6001541661112a5760ff600a54166110ee5760035485116110965780835260068252620151808085852054049042041161107f575b60078252610f518585852054610ec1565b6004541061102957808352600882528383208054600019811461101557600101905580835260088252838320546005548111610fab575050906007826006610fa495945242848420555220918254610ec1565b9055600190565b60099395507f6ac6f29cb533706676e94ff2d30d8f95dd3e0c525a0e07e44c1f7762360b48946080839287519088825260138983015272535553504943494f55535f414354495649545960681b606083015286820152a28452528120805460ff1916600117905590565b634e487b7160e01b85526011600452602485fd5b927f6ac6f29cb533706676e94ff2d30d8f95dd3e0c525a0e07e44c1f7762360b48949294608092601483519380855284015273111052531657d31253525517d15610d15151115160621b6060840152820152a290565b600782528284812055600882528284812055610f40565b927f6ac6f29cb533706676e94ff2d30d8f95dd3e0c525a0e07e44c1f7762360b489492946080926016835193808552840152752424a3a42fab20a62aa2afaa2920a729a0a1aa24a7a760511b6060840152820152a290565b835162461bcd60e51b8152600481018390526015602482015274456d657267656e6379206d6f64652061637469766560581b6044820152606490fd5b835162461bcd60e51b815260048101839052601260248201527110dbdb9d1c9858dd081a5cc81c185d5cd95960721b6044820152606490fd5b835162461bcd60e51b8152600481018390526013602482015272155cd95c881a5cc8189b1858dadb1a5cdd1959606a1b6044820152606490fd5b6020808252825181830181905290939260005b8281106111d257505060409293506000838284010152601f8019910116010190565b8181018601518482016040015285016111b056fea26469706673582212207f108c8c9ff7e92b2ed34e0ce20f8ffc824246328dc37f4f829840faef05cfa664736f6c634300081400332f8788117e7eff1d82e926ec794901d17c78024a50270940304540a733656f0d",
  "linkReferences": {},
  "deployedLinkReferences": {}
}