{
  "_format": "hh-sol-artifact-1",
  "contractName": "ActorRegistry",
  "sourceName": "contracts/src/ActorRegistry.sol",
  "abi": [
    {
      "inputs": [
        {
          "internalType": "address",
          "name": "_nodeRegistry",
          "type": "address"
        }
      ],
      "stateMutability": "nonpayable",
      "type": "constructor"
    },
    {
      "inputs": [],
      "name": "AccessControlBadConfirmation",
      "type": "error"
    },
    {
      "inputs": [
        {
          "internalType": "address",
          "name": "account",
          "type": "address"
        },
        {
          "internalType": "bytes32",
          "name": "neededRole",
          "type": "bytes32"
        }
      ],
      "name": "AccessControlUnauthorizedAccount",
      "type": "error"
    },
    {
      "inputs": [],
      "name": "ReentrancyGuardReentrantCall",
      "type": "error"
    },
    {
      "anonymous": false,
      "inputs": [
        {
          "indexed": true,
          "internalType": "string",
          "name": "xUsername",
          "type": "string"
        },
        {
          "indexed": false,
          "internalType": "uint256",
          "name": "approvalCount",
          "type": "uint256"
        }
      ],
      "name": "ActorActivated",
      "type": "event"
    },
    {
      "anonymous": false,
      "inputs": [
        {
          "indexed": true,
          "internalType": "string",
          "name": "xUsername",
          "type": "string"
        },
        {
          "indexed": true,
          "internalType": "address",
          "name": "approver",
          "type": "address"
        }
      ],
      "name": "ActorApproved",
      "type": "event"
    },
    {
      "anonymous": false,
      "inputs": [
        {
          "indexed": true,
          "internalType": "string",
          "name": "xUsername",
          "type": "string"
        },
        {
          "indexed": true,
          "internalType": "address",
          "name": "proposer",
          "type": "address"
        }
      ],
      "name": "ActorDeactivated",
      "type": "event"
    },
    {
      "anonymous": false,
      "inputs": [
        {
          "indexed": true,
          "internalType": "string",
          "name": "xUsername",
          "type": "string"
        },
        {
          "indexed": true,
          "internalType": "address",
          "name": "proposer",
          "type": "address"
        },
        {
          "indexed": false,
          "internalType": "bytes32",
          "name": "proposalId",
          "type": "bytes32"
        }
      ],
      "name": "ActorProposed",
      "type": "event"
    },
    {
      "anonymous": false,
      "inputs": [
        {
          "indexed": true,
          "internalType": "string",
          "name": "xUsername",
          "type": "string"
        },
        {
          "indexed": true,
          "internalType": "address",
          "name": "updater",
          "type": "address"
        }
      ],
      "name": "ActorUpdated",
      "type": "event"
    },
    {
      "anonymous": false,
      "inputs": [
        {
          "indexed": true,
          "internalType": "bytes32",
          "name": "proposalId",
          "type": "bytes32"
        },
        {
          "indexed": false,
          "internalType": "bool",
          "name": "approved",
          "type": "bool"
        }
      ],
      "name": "ProposalExecuted",
      "type": "event"
    },
    {
      "anonymous": false,
      "inputs": [
        {
          "indexed": true,
          "internalType": "bytes32",
          "name": "proposalId",
          "type": "bytes32"
        },
        {
          "indexed": true,
          "internalType": "address",
          "name": "voter",
          "type": "address"
        },
        {
          "indexed": false,
          "internalType": "bool",
          "name": "support",
          "type": "bool"
        }
      ],
      "name": "ProposalVoteCast",
      "type": "event"
    },
    {
      "anonymous": false,
      "inputs": [
        {
          "indexed": true,
          "internalType": "bytes32",
          "name": "role",
          "type": "bytes32"
        },
        {
          "indexed": true,
          "internalType": "bytes32",
          "name": "previousAdminRole",
          "type": "bytes32"
        },
        {
          "indexed": true,
          "internalType": "bytes32",
          "name": "newAdminRole",
          "type": "bytes32"
        }
      ],
      "name": "RoleAdminChanged",
      "type": "event"
    },
    {
      "anonymous": false,
      "inputs": [
        {
          "indexed": true,
          "internalType": "bytes32",
          "name": "role",
          "type": "bytes32"
        },
        {
          "indexed": true,
          "internalType": "address",
          "name": "account",
          "type": "address"
        },
        {
          "indexed": true,
          "internalType": "address",
          "name": "sender",
          "type": "address"
        }
      ],
      "name": "RoleGranted",
      "type": "event"
    },
    {
      "anonymous": false,
      "inputs": [
        {
          "indexed": true,
          "internalType": "bytes32",
          "name": "role",
          "type": "bytes32"
        },
        {
          "indexed": true,
          "internalType": "address",
          "name": "account",
          "type": "address"
        },
        {
          "indexed": true,
          "internalType": "address",
          "name": "sender",
          "type": "address"
        }
      ],
      "name": "RoleRevoked",
      "type": "event"
    },
    {
      "inputs": [],
      "name": "ADMIN_ROLE",
      "outputs": [
        {
          "internalType": "bytes32",
          "name": "",
          "type": "bytes32"
        }
      ],
      "stateMutability": "view",
      "type": "function"
    },
    {
      "inputs": [],
      "name": "APPROVAL_THRESHOLD",
      "outputs": [
        {
          "internalType": "uint256",
          "name": "",
          "type": "uint256"
        }
      ],
      "stateMutability": "view",
      "type": "function"
    },
    {
      "inputs": [],
      "name": "DEFAULT_ADMIN_ROLE",
      "outputs": [
        {
          "internalType": "bytes32",
          "name": "",
          "type": "bytes32"
        }
      ],
      "stateMutability": "view",
      "type": "function"
    },
    {
      "inputs": [],
      "name": "PROPOSER_ROLE",
      "outputs": [
        {
          "internalType": "bytes32",
          "name": "",
          "type": "bytes32"
        }
      ],
      "stateMutability": "view",
      "type": "function"
    },
    {
      "inputs": [],
      "name": "SYNC_COOLDOWN",
      "outputs": [
        {
          "internalType": "uint256",
          "name": "",
          "type": "uint256"
        }
      ],
      "stateMutability": "view",
      "type": "function"
    },
    {
      "inputs": [],
      "name": "VOTING_PERIOD",
      "outputs": [
        {
          "internalType": "uint256",
          "name": "",
          "type": "uint256"
        }
      ],
      "stateMutability": "view",
      "type": "function"
    },
    {
      "inputs": [
        {
          "internalType": "string",
          "name": "",
          "type": "string"
        }
      ],
      "name": "activeProposal",
      "outputs": [
        {
          "internalType": "bytes32",
          "name": "",
          "type": "bytes32"
        }
      ],
      "stateMutability": "view",
      "type": "function"
    },
    {
      "inputs": [],
      "name": "actorCount",
      "outputs": [
        {
          "internalType": "uint256",
          "name": "",
          "type": "uint256"
        }
      ],
      "stateMutability": "view",
      "type": "function"
    },
    {
      "inputs": [
        {
          "internalType": "string",
          "name": "",
          "type": "string"
        }
      ],
      "name": "actorExists",
      "outputs": [
        {
          "internalType": "bool",
          "name": "",
          "type": "bool"
        }
      ],
      "stateMutability": "view",
      "type": "function"
    },
    {
      "inputs": [
        {
          "internalType": "uint256",
          "name": "",
          "type": "uint256"
        }
      ],
      "name": "actorList",
      "outputs": [
        {
          "internalType": "string",
          "name": "",
          "type": "string"
        }
      ],
      "stateMutability": "view",
      "type": "function"
    },
    {
      "inputs": [
        {
          "internalType": "string",
          "name": "",
          "type": "string"
        }
      ],
      "name": "actors",
      "outputs": [
        {
          "internalType": "string",
          "name": "xUsername",
          "type": "string"
        },
        {
          "internalType": "string",
          "name": "displayName",
          "type": "string"
        },
        {
          "internalType": "string",
          "name": "bio",
          "type": "string"
        },
        {
          "internalType": "string",
          "name": "profileImageUrl",
          "type": "string"
        },
        {
          "internalType": "bool",
          "name": "verified",
          "type": "bool"
        },
        {
          "internalType": "uint256",
          "name": "followerCount",
          "type": "uint256"
        },
        {
          "internalType": "uint256",
          "name": "approvalCount",
          "type": "uint256"
        },
        {
          "internalType": "bool",
          "name": "active",
          "type": "bool"
        },
        {
          "internalType": "uint256",
          "name": "registrationTime",
          "type": "uint256"
        },
        {
          "internalType": "uint256",
          "name": "lastSync",
          "type": "uint256"
        },
        {
          "internalType": "address",
          "name": "proposer",
          "type": "address"
        },
        {
          "internalType": "bool",
          "name": "isTestAccount",
          "type": "bool"
        }
      ],
      "stateMutability": "view",
      "type": "function"
    },
    {
      "inputs": [
        {
          "internalType": "bytes32",
          "name": "_proposalId",
          "type": "bytes32"
        }
      ],
      "name": "executeProposal",
      "outputs": [],
      "stateMutability": "nonpayable",
      "type": "function"
    },
    {
      "inputs": [],
      "name": "getActiveActors",
      "outputs": [
        {
          "internalType": "string[]",
          "name": "",
          "type": "string[]"
        }
      ],
      "stateMutability": "view",
      "type": "function"
    },
    {
      "inputs": [
        {
          "internalType": "string",
          "name": "_xUsername",
          "type": "string"
        }
      ],
      "name": "getActor",
      "outputs": [
        {
          "internalType": "string",
          "name": "displayName",
          "type": "string"
        },
        {
          "internalType": "string",
          "name": "bio",
          "type": "string"
        },
        {
          "internalType": "bool",
          "name": "verified",
          "type": "bool"
        },
        {
          "internalType": "uint256",
          "name": "followerCount",
          "type": "uint256"
        },
        {
          "internalType": "bool",
          "name": "active",
          "type": "bool"
        },
        {
          "internalType": "uint256",
          "name": "approvalCount",
          "type": "uint256"
        },
        {
          "internalType": "uint256",
          "name": "registrationTime",
          "type": "uint256"
        },
        {
          "internalType": "bool",
          "name": "isTestAccount",
          "type": "bool"
        }
      ],
      "stateMutability": "view",
      "type": "function"
    },
    {
      "inputs": [
        {
          "internalType": "string",
          "name": "_xUsername",
          "type": "string"
        }
      ],
      "name": "getActorApprovers",
      "outputs": [
        {
          "internalType": "address[]",
          "name": "",
          "type": "address[]"
        }
      ],
      "stateMutability": "view",
      "type": "function"
    },
    {
      "inputs": [
        {
          "internalType": "bytes32",
          "name": "role",
          "type": "bytes32"
        }
      ],
      "name": "getRoleAdmin",
      "outputs": [
        {
          "internalType": "bytes32",
          "name": "",
          "type": "bytes32"
        }
      ],
      "stateMutability": "view",
      "type": "function"
    },
    {
      "inputs": [
        {
          "internalType": "address",
          "name": "account",
          "type": "address"
        }
      ],
      "name": "grantProposerRole",
      "outputs": [],
      "stateMutability": "nonpayable",
      "type": "function"
    },
    {
      "inputs": [
        {
          "internalType": "bytes32",
          "name": "role",
          "type": "bytes32"
        },
        {
          "internalType": "address",
          "name": "account",
          "type": "address"
        }
      ],
      "name": "grantRole",
      "outputs": [],
      "stateMutability": "nonpayable",
      "type": "function"
    },
    {
      "inputs": [
        {
          "internalType": "bytes32",
          "name": "role",
          "type": "bytes32"
        },
        {
          "internalType": "address",
          "name": "account",
          "type": "address"
        }
      ],
      "name": "hasRole",
      "outputs": [
        {
          "internalType": "bool",
          "name": "",
          "type": "bool"
        }
      ],
      "stateMutability": "view",
      "type": "function"
    },
    {
      "inputs": [
        {
          "internalType": "string",
          "name": "_xUsername",
          "type": "string"
        }
      ],
      "name": "isActorActive",
      "outputs": [
        {
          "internalType": "bool",
          "name": "",
          "type": "bool"
        }
      ],
      "stateMutability": "view",
      "type": "function"
    },
    {
      "inputs": [],
      "name": "nodeRegistry",
      "outputs": [
        {
          "internalType": "contract NodeRegistry",
          "name": "",
          "type": "address"
        }
      ],
      "stateMutability": "view",
      "type": "function"
    },
    {
      "inputs": [],
      "name": "proposalCount",
      "outputs": [
        {
          "internalType": "uint256",
          "name": "",
          "type": "uint256"
        }
      ],
      "stateMutability": "view",
      "type": "function"
    },
    {
      "inputs": [
        {
          "internalType": "bytes32",
          "name": "",
          "type": "bytes32"
        }
      ],
      "name": "proposals",
      "outputs": [
        {
          "internalType": "uint256",
          "name": "votesFor",
          "type": "uint256"
        },
        {
          "internalType": "uint256",
          "name": "votesAgainst",
          "type": "uint256"
        },
        {
          "internalType": "uint256",
          "name": "deadline",
          "type": "uint256"
        },
        {
          "internalType": "bool",
          "name": "executed",
          "type": "bool"
        },
        {
          "internalType": "string",
          "name": "proposalType",
          "type": "string"
        }
      ],
      "stateMutability": "view",
      "type": "function"
    },
    {
      "inputs": [
        {
          "internalType": "string",
          "name": "_xUsername",
          "type": "string"
        },
        {
          "internalType": "string",
          "name": "_displayName",
          "type": "string"
        },
        {
          "internalType": "string",
          "name": "_bio",
          "type": "string"
        },
        {
          "internalType": "string",
          "name": "_profileImageUrl",
          "type": "string"
        },
        {
          "internalType": "bool",
          "name": "_verified",
          "type": "bool"
        },
        {
          "internalType": "uint256",
          "name": "_followerCount",
          "type": "uint256"
        },
        {
          "internalType": "bool",
          "name": "_isTestAccount",
          "type": "bool"
        }
      ],
      "name": "proposeActor",
      "outputs": [
        {
          "internalType": "bytes32",
          "name": "",
          "type": "bytes32"
        }
      ],
      "stateMutability": "nonpayable",
      "type": "function"
    },
    {
      "inputs": [
        {
          "internalType": "string",
          "name": "_xUsername",
          "type": "string"
        }
      ],
      "name": "proposeDeactivation",
      "outputs": [
        {
          "internalType": "bytes32",
          "name": "",
          "type": "bytes32"
        }
      ],
      "stateMutability": "nonpayable",
      "type": "function"
    },
    {
      "inputs": [
        {
          "internalType": "bytes32",
          "name": "role",
          "type": "bytes32"
        },
        {
          "internalType": "address",
          "name": "callerConfirmation",
          "type": "address"
        }
      ],
      "name": "renounceRole",
      "outputs": [],
      "stateMutability": "nonpayable",
      "type": "function"
    },
    {
      "inputs": [
        {
          "internalType": "address",
          "name": "account",
          "type": "address"
        }
      ],
      "name": "revokeProposerRole",
      "outputs": [],
      "stateMutability": "nonpayable",
      "type": "function"
    },
    {
      "inputs": [
        {
          "internalType": "bytes32",
          "name": "role",
          "type": "bytes32"
        },
        {
          "internalType": "address",
          "name": "account",
          "type": "address"
        }
      ],
      "name": "revokeRole",
      "outputs": [],
      "stateMutability": "nonpayable",
      "type": "function"
    },
    {
      "inputs": [
        {
          "internalType": "bytes4",
          "name": "interfaceId",
          "type": "bytes4"
        }
      ],
      "name": "supportsInterface",
      "outputs": [
        {
          "internalType": "bool",
          "name": "",
          "type": "bool"
        }
      ],
      "stateMutability": "view",
      "type": "function"
    },
    {
      "inputs": [
        {
          "internalType": "string",
          "name": "_xUsername",
          "type": "string"
        },
        {
          "internalType": "string",
          "name": "_displayName",
          "type": "string"
        },
        {
          "internalType": "string",
          "name": "_bio",
          "type": "string"
        },
        {
          "internalType": "string",
          "name": "_profileImageUrl",
          "type": "string"
        },
        {
          "internalType": "bool",
          "name": "_verified",
          "type": "bool"
        },
        {
          "internalType": "uint256",
          "name": "_followerCount",
          "type": "uint256"
        }
      ],
      "name": "updateActor",
      "outputs": [],
      "stateMutability": "nonpayable",
      "type": "function"
    },
    {
      "inputs": [
        {
          "internalType": "bytes32",
          "name": "_proposalId",
          "type": "bytes32"
        },
        {
          "internalType": "bool",
          "name": "_support",
          "type": "bool"
        }
      ],
      "name": "voteOnProposal",
      "outputs": [],
      "stateMutability": "nonpayable",
      "type": "function"
    }
  ],
  "bytecode": "0x6080346200009657601f62002a0938819003918201601f19168301916001600160401b038311848410176200009b578084926020946040528339810103126200009657516001600160a01b03811690819003620000965760018055600280546001600160a01b0319169190911790556200007933620000b1565b50620000853362000131565b506040516128159081620001d48239f35b600080fd5b634e487b7160e01b600052604160045260246000fd5b6001600160a01b031660008181527fad3228b676f7d3cd4284a5443f17f1962b36e491b30a40b2405849e597ba5fb5602052604081205490919060ff166200012d57818052816020526040822081835260205260408220600160ff198254161790553391600080516020620029e98339815191528180a4600190565b5090565b6001600160a01b031660008181527f7d7ffb7a348e1c6a02869081a26547b49160dd3df72d1d75a570eb9b698292ec60205260408120549091907fa49807205ce4d355092ef5a8a18f56e8913cf4a201fbe287825b095693c217759060ff16620001ce57808352826020526040832082845260205260408320600160ff19825416179055600080516020620029e9833981519152339380a4600190565b50509056fe608060408181526004918236101561001657600080fd5b600092833560e01c91826301ffc9a714611c80575081630d44aa9914611c6357816315e30c9114611c3a5781632431bf4b146117b157816324544d3114611632578163248a9ca3146116085781632f2ff15d146115de5781632f3330591461131c57816332ed5b121461129f57816336568abe146112595781633ab342901461123d57816347b8fe5714610f615781635191697014610b51578163682ca16c14610af557816375b238fc14610aba5781637cf21f0f146109e657816389421f5e146109c75781638f61f4f51461099e57816391d1485414610958578163932e8fc6146108e4578163980ff6c614610635578163a217fddf1461061a578163a84eb7541461051b578163ab6cbf45146104b9578163b1610d7e1461049b578163d547741f14610460578163d9b5c4a514610437578163da35c66414610418578163e1375e7114610273578163fbe89890146101d0575063fe0ea3e61461017a57600080fd5b346101cc5760203660031901126101cc576101c8906101c3600161019c611cd3565b926101a5611f2c565b6000805160206127a083398151915286528560205285200154611fa6565b611fcc565b5080f35b5080fd5b9190503461026f57602036600319011261026f578135926001600160401b03841161026c575061020560209336908401611d71565b9160ff825185818651948288019561021e818489611dc7565b8201908152030190205416928361023a575b5050519015158152f35b829350846008926102579260ff9551938492839251928391611dc7565b81016003815203019020015416903880610230565b80fd5b8280fd5b82843461026c578060031936011261026c578081600754905b8181106103c7575061029d82612774565b916102aa85519384611d35565b8083526102b9601f1991612774565b01835b8181106103b657505082835b82811061032d57505050825191602080840190808552835180925280868601968360051b870101940192955b8287106103015785850386f35b90919293828061031d600193603f198a82030186528851611eba565b96019201960195929190926102f4565b60ff600861034b602061033f85611edf565b508a5192838092612545565b6003815203019020015416610369575b61036490612520565b6102c8565b906103ae6103649161038c61039361038086611edf565b508a5192838092611e24565b0382611d35565b61039d828861278b565b526103a8818761278b565b50612520565b91905061035b565b8060606020809387010152016102bc565b60ff60086103e560206103d985611edf565b50895192838092612545565b6003815203019020015416610403575b6103fe90612520565b61028c565b916104106103fe91612520565b9290506103f5565b5050346101cc57816003193601126101cc576020906009549051908152f35b5050346101cc57816003193601126101cc5760025490516001600160a01b039091168152602090f35b9190503461026f578060031936011261026f576101c891356104966001610485611cee565b938387528660205286200154611fa6565b61217e565b5050346101cc57816003193601126101cc5760209051620151808152f35b82843461026c57602036600319011261026c578235906001600160401b03821161026c5750610507602080946104f460ff9436908301611d71565b9082865194838680955193849201611dc7565b820190815203019020541690519015158152f35b9190503461026f57602036600319011261026f578135926001600160401b03841161026c575060ff8061056b60206105596105e09736908801611d71565b81865193828580945193849201611dc7565b81016003815203019020938401541691600584015482600886015416600786015490600987015492600b880154946105ee60026105cc83519b6105bd8d806105b68160018601611e24565b0390611d35565b61038c85518094819301611e24565b82519b8c9b8c6101008091528d0190611eba565b908b820360208d0152611eba565b9715159089015260608801521515608087015260a086015260c085015260a01c16151560e08301520390f35b5050346101cc57816003193601126101cc5751908152602090f35b8383346101cc5760208060031936011261026f57833591828452600582528084208581015442106108a15760058101805460ff811661086b576001918260ff198093161790558351907f8503b41ae6bc3c81c6fa6652ef11a964d3fe84420f61398c3faa65b1c9f5e77c6006926106b28161038c81878a01611e24565b8781519101206552454d4f564560d01b8888516106ce81611d04565b868152015214610714575b5050509081600360027fe511fe6d5db0bd906cf5790330cb96bfc7d86b06b565baaa537ce7a2659abbcb95940154910154109051908152a280f35b600284015490600391828601541061072d575b506106d9565b88845b61073b575b50610727565b60075481101561086657886107538961033f84611edf565b88815203019020541461076f5761076990612520565b84610730565b9293509061078f9161079661078385611edf565b50885194858092611e24565b0384611d35565b86519183516107a881858c8801611dc7565b83019081528289600894859303019020019081541690558054801561085357899a5061083f9388937fe511fe6d5db0bd906cf5790330cb96bfc7d86b06b565baaa537ce7a2659abbcb9a9b9693610832936000190190556108093391612500565b7fbdaff1cdaa1c7100467460606c57eafb1e4bdb14ccf5a5c799b533e4d284c87f8880a3611edf565b5090865193848093612545565b908152030190205585949387808080610735565b634e487b7160e01b8a5260118b5260248afd5b610735565b835162461bcd60e51b8152808901869052601060248201526f105b1c9958591e48195e1958dd5d195960821b6044820152606490fd5b815162461bcd60e51b8152808701849052601760248201527f566f74696e6720706572696f64206e6f7420656e6465640000000000000000006044820152606490fd5b9050823461026c57602036600319011261026c5781356007548110156101cc5761090d90611edf565b9290926109465783516109429085610930826109298189611e24565b0383611d35565b51918291602083526020830190611eba565b0390f35b634e487b7160e01b8252819052602490fd5b90503461026f578160031936011261026f578160209360ff92610979611cee565b903582528186528282206001600160a01b039091168252855220549151911615158152f35b5050346101cc57816003193601126101cc57602090516000805160206127a08339815191528152f35b5050346101cc57816003193601126101cc576020906008549051908152f35b9050823461026c57602091826003193601126101cc5780356001600160401b03811161026f57610a2184610559879594600694369101611d71565b8101600381520301902001908251808584549182815201908194845286842090845b818110610a9d5750505081610a59910382611d35565b83519485948186019282875251809352850193925b828110610a7d57505050500390f35b83516001600160a01b031685528695509381019392810192600101610a6e565b82546001600160a01b031684529288019260019283019201610a43565b5050346101cc57816003193601126101cc57602090517fa49807205ce4d355092ef5a8a18f56e8913cf4a201fbe287825b095693c217758152f35b82843461026c57602036600319011261026c578235906001600160401b03821161026c57506020610b2d8194610b3f93369101611d71565b81845193828580945193849201611dc7565b81016006815203019020549051908152f35b90503461026f578160031936011261026f578035602480359384151593848603610f5d57600254825162ba80a960e11b815233838201526020949189916001600160a01b039091169086818581855afa908115610f535790839291859491610f18575b50610bbe90612200565b855163189a5a1760e01b8152338682015292839182905afa908115610f0e5790610bef918a91610ee3575b506122ee565b848852600584528288209180830154421015610ead5760ff9182600585015416610e6b57338a5283865282858b205416610e39575050338852818452828820966001978860ff198254161790558783018552610c5981858b209060ff801983541691151516179055565b15610e115760028201610c6c8154612520565b90558251610c828161038c816006809701611e24565b8481519101207f9ea0cf9577cabd8688fb70d8a8c076ffb703a26054de703e8da063dc72300137845191610cb583611d04565b6210511160ea1b87600394858152015214610cec575b5050506000805160206127c0833981519152929394505b519384523393a380f35b88885b610cfa575b50610ccb565b60078054821015610e0b5787610d13886103d985611edf565b898152030190205414610d305750610d2a90612520565b88610cef565b8798995091819492610d6a610d598961033f6000805160206127c08339815191529c9896611edf565b8681520301902094339086016124b9565b8301610d768154612520565b809155610d8286611edf565b508c7f5d58ba53fdb73db8834537cd0623d3207e07f37769c3bd784c06d85353b914d1895180610db3813396612545565b0390209180a310159182610dfc575b5050610dd2575b93869582610cf4565b61038c610df0610de4610df594611edf565b50855192838092611e24565b61264c565b3884610dc9565b60080154161590503880610dc2565b50610cf4565b506000805160206127c083398151915293949550600301610e328154612520565b9055610ce2565b845162461bcd60e51b8152918201869052600d908201526c105b1c9958591e481d9bdd1959609a1b6044820152606490fd5b845162461bcd60e51b81529182018690526019908201527f50726f706f73616c20616c7265616479206578656375746564000000000000006044820152606490fd5b60136064928686519362461bcd60e51b855284015282015272159bdd1a5b99c81c195c9a5bd908195b991959606a1b6044820152fd5b610eff91503d808c833e610ef78183611d35565b810190612244565b50505050509250505038610be9565b84513d8b823e3d90fd5b809450888092503d8311610f4c575b610f318183611d35565b810103126101cc57610bbe610f4685946121f3565b90610bb4565b503d610f27565b86513d85823e3d90fd5b8680fd5b8383346101cc576020928360031936011261026f5780356001600160401b03811161123957610f939036908301611d71565b9060018060a01b0360025416835162ba80a960e11b815233838201528681602481855afa90811561122f5790869182916111eb575b5091610fd5602493612200565b855163189a5a1760e01b8152338582015292839182905afa9081156111e157906110059186916111be57506122ee565b82519061103160ff84519388818188019661102181838a611dc7565b81018681520301902054166125c7565b61105b60ff600886518981885161104981838b611dc7565b8101600381520301902001541661260a565b61108084518781865161106f818389611dc7565b81016006815203019020541561232f565b8351948686016552454d4f564560d01b968782526110c9605a8288516110aa81602684018b611dc7565b81014260268201523360601b604682015203603a810184520182611d35565b519020958682526005885285822092620151804201908142116111ab57600285611150958c956111609a99956001958e9a0155600c60068401916111166111108454611dea565b8461238b565b019055338152818652838b8083209260ff199383858254161790558285018952209182541617905501558651809381928751928391611dc7565b8101600681520301902055612500565b8151908382527f83c4ad2b7f024f600227eba39dc326d730f3d51e00e11228b85175c0d05bdd63853393a3805160018152826000805160206127c0833981519152853393a351908152f35b634e487b7160e01b845260119052602483fd5b6111d291503d8088833e610ef78183611d35565b50505050509250505087610be9565b84513d87823e3d90fd5b809250888092503d8311611228575b6112048183611d35565b8101031261122457602491610fd561121c88936121f3565b919350610fc8565b8580fd5b503d6111fa565b85513d88823e3d90fd5b8380fd5b5050346101cc57816003193601126101cc576020905160038152f35b8383346101cc57806003193601126101cc57611273611cee565b90336001600160a01b0383160361129057506101c891923561217e565b5163334bd91960e11b81528390fd5b82843461026c57602036600319011261026c576006826109429285358152600560205220600281015493600382015495820154906112f560ff600585015416936112ee83518097819301611e24565b0385611d35565b8051968796875260208701528501521515606084015260a0608084015260a0830190611eba565b9190503461026f5760c036600319011261026f576001600160401b039082358281116115da5761134f9036908501611d71565b92602435838111611224576113679036908301611d71565b92604435818111610f5d5761137f9036908401611d71565b90606435908111610f5d576113979036908401611d71565b906113a0611db8565b600254855162ba80a960e11b81523386820152919560209290918a906001600160a01b03168483602481845afa9283156115d0578293611595575b506113e7602493612200565b835163189a5a1760e01b8152338982015292839182905afa90811561158b57899291611419918c9161157757506122ee565b61144360ff8251858181875197019661143381838a611dc7565b81018b81520301902054166125c7565b61145c60ff60088b86855180925161104981838b611dc7565b600a815184818c5161146f818389611dc7565b810160038152030190200154610e10810180911161156457421061152b57926114c76114b36114ec989796946114d0948c6114d99851938492839251928391611dc7565b810160038152030190209860018a016123b5565b600288016123b5565b600386016123b5565b83019060ff801983541691151516179055565b60a4356005820155600a429101556115043391612500565b7fe0ab9519bddbc11e6367db862eca10c6561b4108db6f5a5853105d9d7674be468380a380f35b5162461bcd60e51b8152808601839052601460248201527353796e6320636f6f6c646f776e2061637469766560601b6044820152606490fd5b634e487b7160e01b8b526011875260248bfd5b610eff91503d808e833e610ef78183611d35565b82513d8c823e3d90fd5b92508483813d83116115c9575b6115ac8183611d35565b810103126101cc576113e76115c26024946121f3565b93506113db565b503d6115a2565b84513d84823e3d90fd5b8480fd5b9190503461026f578060031936011261026f576101c891356116036001610485611cee565b61206c565b90503461026f57602036600319011261026f57816020936001923581528085522001549051908152f35b82843461026c57602036600319011261026c578235906001600160401b03821161026c57506116649036908401611d71565b8151818180935160208193019161167a92611dc7565b81016003815203602001902091815191826116958186611e24565b036116a09084611d35565b805193846116b18160018401611e24565b036116bc9086611d35565b8151806116cc8160028501611e24565b036116d79082611d35565b825193846116e88160038601611e24565b036116f39086611d35565b82015460ff16936005830154600784015490600885015460ff1692600986015494600a87015496600b01549780519b8c9b8c6101808091528d0161173691611eba565b8c810360208e015261174791611eba565b908b8203908c015261175891611eba565b89810360608b015261176991611eba565b961515608089015260a088015260c0870152151560e0860152610100850152610120840152600160a01b60019003811661014084015260a01c60ff1615156101608301520390f35b9190503461026f5760e036600319011261026f576001600160401b039282358481116101cc576117e49036908501611d71565b90602494853581811161026f576117fe9036908701611d71565b94604435828111611239576118169036908301611d71565b916064359081116112395761182e9036908301611d71565b95611837611db8565b9760c43580151580910361122457600254885162ba80a960e11b8152338682015260209b916001600160a01b0316908c818681855afa908115611c305791899186938391611bee575b5061188a90612200565b8b5163189a5a1760e01b8152338982015292839182905afa908115611be4578c979695949392916118c1918a91610ee357506122ee565b895189518a89019860ff929182906118da81838e611dc7565b8101898152030190205416611bab57885115611b6957868a61194360548f8d9061190e85518281855161106f81838d611dc7565b845194859261192583850198899251928391611dc7565b83019142908301523360601b90820152036034810184520182611d35565b5190209a8b895260058d528a89209362015180420190814211611b585750938c99979387938f9a97938e8e988e9b86015560068501805461198390611dea565b61198d908261238b565b60066210511160ea1b0190555188518d9082906119ab81838f611dc7565b81016003815203019020976119c090896123b5565b60019687956119d1908a88016123b5565b6119de9060028a016123b5565b6119eb90600389016123b5565b84870190611a04919060ff801983541691151516179055565b60a43560058701554260098701819055600a870155600b860180546001600160a81b0319163360ff60a01b1981169190911760a09390931b60ff60a01b1692909217905560088601805460ff19908116909155958291611a6790600683016124b9565b60070199838b55338a52528b882082868254161790558d82820190528b88208286825416179055600201558b8a5180928b51611aa481848a611dc7565b8201908152030190209182541617905588875180809389518092611ac792611dc7565b810160068152030190205586611adc85612500565b865185815233927f83c4ad2b7f024f600227eba39dc326d730f3d51e00e11228b85175c0d05bdd6391a33390611b1185612500565b90807f5d58ba53fdb73db8834537cd0623d3207e07f37769c3bd784c06d85353b914d191a35460031115611b48575b505051908152f35b611b519161264c565b3882611b40565b634e487b7160e01b8b52601188528afd5b895162461bcd60e51b81528086018d90526018818501527f557365726e616d652063616e6e6f7420626520656d70747900000000000000006044820152606490fd5b895162461bcd60e51b81528086018d9052601481850152734163746f7220616c72656164792065786973747360601b6044820152606490fd5b8a513d8a823e3d90fd5b92505091508c81813d8311611c29575b611c088183611d35565b81010312611c2557849161188a611c1f8b936121f3565b90611880565b8880fd5b503d611bfe565b8b513d8b823e3d90fd5b5050346101cc5760203660031901126101cc576101c890611c5e600161019c611cd3565b6120e5565b5050346101cc57816003193601126101cc5760209051610e108152f35b84913461026f57602036600319011261026f573563ffffffff60e01b811680910361026f5760209250637965db0b60e01b8114908115611cc2575b5015158152f35b6301ffc9a760e01b14905083611cbb565b600435906001600160a01b0382168203611ce957565b600080fd5b602435906001600160a01b0382168203611ce957565b604081019081106001600160401b03821117611d1f57604052565b634e487b7160e01b600052604160045260246000fd5b90601f801991011681019081106001600160401b03821117611d1f57604052565b6001600160401b038111611d1f57601f01601f191660200190565b81601f82011215611ce957803590611d8882611d56565b92611d966040519485611d35565b82845260208383010111611ce957816000926020809301838601378301015290565b608435908115158203611ce957565b60005b838110611dda5750506000910152565b8181015183820152602001611dca565b90600182811c92168015611e1a575b6020831014611e0457565b634e487b7160e01b600052602260045260246000fd5b91607f1691611df9565b9060009291805491611e3583611dea565b918282526001938481169081600014611e975750600114611e57575b50505050565b90919394506000526020928360002092846000945b838610611e83575050505001019038808080611e51565b805485870183015294019385908201611e6c565b9294505050602093945060ff191683830152151560051b01019038808080611e51565b90602091611ed381518092818552858086019101611dc7565b601f01601f1916010190565b600754811015611f165760076000527fa66cc928b5edb82af9bd49922954155ab7b0942694bea4ce44661d9a8736c6880190600090565b634e487b7160e01b600052603260045260246000fd5b3360009081527f7d7ffb7a348e1c6a02869081a26547b49160dd3df72d1d75a570eb9b698292ec60205260409020547fa49807205ce4d355092ef5a8a18f56e8913cf4a201fbe287825b095693c217759060ff1615611f885750565b6044906040519063e2517d3f60e01b82523360048301526024820152fd5b80600052600060205260406000203360005260205260ff6040600020541615611f885750565b6001600160a01b031660008181527f3412d5605ac6cd444957cedb533e5dacad6378b4bc819ebe3652188a665066d560205260408120549091906000805160206127a08339815191529060ff1661206757808352826020526040832082845260205260408320600160ff198254161790557f2f8788117e7eff1d82e926ec794901d17c78024a50270940304540a733656f0d339380a4600190565b505090565b9060009180835282602052604083209160018060a01b03169182845260205260ff6040842054161560001461206757808352826020526040832082845260205260408320600160ff198254161790557f2f8788117e7eff1d82e926ec794901d17c78024a50270940304540a733656f0d339380a4600190565b6001600160a01b031660008181527f3412d5605ac6cd444957cedb533e5dacad6378b4bc819ebe3652188a665066d560205260408120549091906000805160206127a08339815191529060ff16156120675780835282602052604083208284526020526040832060ff1981541690557ff6391f5c32d9c69d2a47ea670b442974b53935d1edc7fd64eb21e047a839171b339380a4600190565b9060009180835282602052604083209160018060a01b03169182845260205260ff6040842054166000146120675780835282602052604083208284526020526040832060ff1981541690557ff6391f5c32d9c69d2a47ea670b442974b53935d1edc7fd64eb21e047a839171b339380a4600190565b51908115158203611ce957565b1561220757565b60405162461bcd60e51b81526020600482015260156024820152744e6f7420612072656769737465726564206e6f646560581b6044820152606490fd5b9061012082820312611ce95781516001600160a01b0381168103611ce9579260208301519260408101519261227b606083016121f3565b9260808301519260a08101519260c08201516001600160401b038111611ce957820181601f82011215611ce95780516122b381611d56565b926122c16040519485611d35565b81845260208284010111611ce9576122df9160208085019101611dc7565b9161010060e083015192015190565b156122f557565b60405162461bcd60e51b81526020600482015260126024820152714e6f6465206973206e6f742061637469766560701b6044820152606490fd5b1561233657565b60405162461bcd60e51b81526020600482015260166024820152754163746976652070726f706f73616c2065786973747360501b6044820152606490fd5b81811061237f575050565b60008155600101612374565b90601f8111612398575050565b6123b391600052601f6020600020910160051c810190612374565b565b91909182516001600160401b038111611d1f576123d28254611dea565b601f811161247c575b50602080601f831160011461241857508192939460009261240d575b50508160011b916000199060031b1c1916179055565b0151905038806123f7565b90601f198316958460005282600020926000905b8882106124645750508360019596971061244b575b505050811b019055565b015160001960f88460031b161c19169055388080612441565b8060018596829496860151815501950193019061242c565b6124a990836000526020600020601f840160051c810191602085106124af575b601f0160051c0190612374565b386123db565b909150819061249c565b805490600160401b821015611d1f5760018201808255821015611f16576000526020600020019060018060a01b03166bffffffffffffffffffffffff60a01b825416179055565b61251890602060405192828480945193849201611dc7565b810103902090565b600019811461252f5760010190565b634e487b7160e01b600052601160045260246000fd5b60009291815461255481611dea565b926001918083169081156125ac57506001146125705750505050565b90919293945060005260209081600020906000915b85831061259b5750505050019038808080611e51565b805485840152918301918101612585565b60ff1916845250505081151590910201915038808080611e51565b156125ce57565b60405162461bcd60e51b81526020600482015260146024820152731058dd1bdc88191bd95cc81b9bdd08195e1a5cdd60621b6044820152606490fd5b1561261157565b60405162461bcd60e51b81526020600482015260136024820152724163746f72206973206e6f742061637469766560681b6044820152606490fd5b604051815191602091828181840195612666818389611dc7565b81016003815203019020600881019360ff199460018682541617905561268d600854612520565b600855600754600160401b811015611d1f578060016126af9201600755611edf565b95909561275e5760077f48c7b81dabe0b8da67afa8a1ebc01baca706532b20780eebdd5ad967c33ffce693600061273988809661274c966127118b7fe511fe6d5db0bd906cf5790330cb96bfc7d86b06b565baaa537ce7a2659abbcb9e6123b5565b8d85526005835260016005604087200191825416179055604051809381928c51928391611dc7565b8101600681520301902055015493612500565b92604051908152a260405160018152a2565b634e487b7160e01b600052600060045260246000fd5b6001600160401b038111611d1f5760051b60200190565b8051821015611f165760209160051b01019056feb09aa5aeb3702cfd50b6b62bc4532604938f21248a27a1d5ca736082b6819cc1ad63a7b40426694fca689345a58692c303c64a39b0e18669212688f061ec6555a2646970667358221220814834aaf51625c8b2dccc29f2458ebc868c05a4ddd1f139b5e2ae4b081af92c64736f6c634300081400332f8788117e7eff1d82e926ec794901d17c78024a50270940304540a733656f0d",
  "linkReferences": {},
  "deployedLinkReferences": {}
}