{
  "_format": "hh-sol-artifact-1",
  "contractName": "MockRewardPool",
  "sourceName": "contracts/src/MockContracts.sol",
  "abi": [
    {
      "inputs": [],
      "name": "deposit",
      "outputs": [],
      "stateMutability": "payable",
      "type": "function"
    }
  ],
  "bytecode": "0x608080604052346013576067908160198239f35b600080fdfe6004361015600c57600080fd5b6000803560e01c63d0e30db014602157600080fd5b80600319360112602e5780f35b80fdfea2646970667358221220899e651c65acba1b9abb48ced40b575d2df505468e0e3e84f9a40d1b407c29ca64736f6c63430008140033",
  "linkReferences": {},
  "deployedLinkReferences": {}
}