{
  "_format": "hh-sol-artifact-1",
  "contractName": "MockPredictionMarket",
  "sourceName": "contracts/src/MockContracts.sol",
  "abi": [
    {
      "inputs": [
        {
          "internalType": "uint256",
          "name": "",
          "type": "uint256"
        }
      ],
      "name": "getMarketSubmissions",
      "outputs": [
        {
          "internalType": "uint256[]",
          "name": "",
          "type": "uint256[]"
        }
      ],
      "stateMutability": "pure",
      "type": "function"
    },
    {
      "inputs": [
        {
          "internalType": "uint256",
          "name": "",
          "type": "uint256"
        }
      ],
      "name": "markets",
      "outputs": [
        {
          "internalType": "address",
          "name": "creator",
          "type": "address"
        },
        {
          "internalType": "address",
          "name": "actor",
          "type": "address"
        },
        {
          "internalType": "uint256",
          "name": "startTime",
          "type": "uint256"
        },
        {
          "internalType": "uint256",
          "name": "endTime",
          "type": "uint256"
        },
        {
          "internalType": "bool",
          "name": "resolved",
          "type": "bool"
        },
        {
          "internalType": "uint256",
          "name": "winningSubmissionId",
          "type": "uint256"
        },
        {
          "internalType": "uint256",
          "name": "totalVolume",
          "type": "uint256"
        },
        {
          "internalType": "uint256",
          "name": "submissionCount",
          "type": "uint256"
        },
        {
          "internalType": "uint256",
          "name": "betCount",
          "type": "uint256"
        },
        {
          "internalType": "uint256",
          "name": "platformFeePercentage",
          "type": "uint256"
        },
        {
          "internalType": "uint256",
          "name": "platformFeeCollected",
          "type": "uint256"
        }
      ],
      "stateMutability": "view",
      "type": "function"
    },
    {
      "inputs": [
        {
          "internalType": "uint256",
          "name": "marketId",
          "type": "uint256"
        },
        {
          "components": [
            {
              "internalType": "address",
              "name": "creator",
              "type": "address"
            },
            {
              "internalType": "address",
              "name": "actor",
              "type": "address"
            },
            {
              "internalType": "uint256",
              "name": "startTime",
              "type": "uint256"
            },
            {
              "internalType": "uint256",
              "name": "endTime",
              "type": "uint256"
            },
            {
              "internalType": "bool",
              "name": "resolved",
              "type": "bool"
            },
            {
              "internalType": "uint256",
              "name": "winningSubmissionId",
              "type": "uint256"
            },
            {
              "internalType": "uint256",
              "name": "totalVolume",
              "type": "uint256"
            },
            {
              "internalType": "uint256",
              "name": "submissionCount",
              "type": "uint256"
            },
            {
              "internalType": "uint256",
              "name": "betCount",
              "type": "uint256"
            },
            {
              "internalType": "uint256",
              "name": "platformFeePercentage",
              "type": "uint256"
            },
            {
              "internalType": "uint256",
              "name": "platformFeeCollected",
              "type": "uint256"
            }
          ],
          "internalType": "struct MockPredictionMarket.Market",
          "name": "market",
          "type": "tuple"
        }
      ],
      "name": "setMarket",
      "outputs": [],
      "stateMutability": "nonpayable",
      "type": "function"
    },
    {
      "inputs": [
        {
          "internalType": "uint256",
          "name": "",
          "type": "uint256"
        }
      ],
      "name": "submissions",
      "outputs": [
        {
          "internalType": "uint256",
          "name": "marketId",
          "type": "uint256"
        },
        {
          "internalType": "address",
          "name": "creator",
          "type": "address"
        },
        {
          "internalType": "string",
          "name": "predictedText",
          "type": "string"
        },
        {
          "internalType": "uint256",
          "name": "stake",
          "type": "uint256"
        },
        {
          "internalType": "uint256",
          "name": "totalBets",
          "type": "uint256"
        },
        {
          "internalType": "uint256",
          "name": "levenshteinDistance",
          "type": "uint256"
        },
        {
          "internalType": "bool",
          "name": "isWinner",
          "type": "bool"
        },
        {
          "internalType": "string",
          "name": "screenshotIpfsHash",
          "type": "string"
        },
        {
          "internalType": "bytes32",
          "name": "screenshotBase64Hash",
          "type": "bytes32"
        }
      ],
      "stateMutability": "pure",
      "type": "function"
    }
  ],
  "bytecode": "0x608080604052346100165761046e908161001c8239f35b600080fdfe6080604081815260048036101561001557600080fd5b600092833560e01c9081633c399fce1461025757508063905d99fc1461017a578063ad73349e146100f75763b1283e771461004f57600080fd5b346100f35760203660031901126100f357816101609382358152806020522060018060a01b039283825416936001830154169260028301549060ff60038501549185015416600585015490600686015492600787015494600888015496600a60098a01549901549981519b8c5260208c01528a015260608901521515608088015260a087015260c086015260e0850152610100840152610120830152610140820152f35b8280fd5b505034610176576020366003190112610176576101126103c2565b9180835261016b6101216103c2565b828152610145845195869585875285602088015261012080918801528601906103f8565b908360608601528360808601528360a08601528360c086015284820360e08601526103f8565b906101008301520390f35b5080fd5b50913461025457602080600319360112610176578251906080820182811067ffffffffffffffff8211176102415784526003825280820192606036853782511561022e57600195868552835187101561021b5760028685015283516002101561021b5750600360608401528451828152925183830181905283860194879390925b8281106102085785870386f35b83518752958101959281019284016101fb565b634e487b7160e01b825260329052602490fd5b634e487b7160e01b815260328652602490fd5b634e487b7160e01b845260418652602484fd5b80fd5b929050346103be576101803660031901126103be57610160806023193601126103a757830183811067ffffffffffffffff8211176103ab5781528391906001600160a01b0360243581811681036103a757855260443581811681036103a7576020860190815282860160643581526060870194608435865260a4359081151582036103a35788966080880192835260a088019360c435855260c089019560e435875260e08a0197610104358952806101008c019a610124358c526101208d019c8d610144359052610140019d8e6101643590528735815280602052209d5116908d6bffffffffffffffffffffffff60a01b9283825416178155600101925116908254161790555160028b01555160038a015588019051151560ff198254169060ff161790555160058701555160068601555160078501555160088401555160098301555190600a015580f35b8780fd5b8480fd5b634e487b7160e01b855260418352602485fd5b8380fd5b604051906020820182811067ffffffffffffffff8211176103e257604052565b634e487b7160e01b600052604160045260246000fd5b919082519283825260005b848110610424575050826000602080949584010152601f8019910116010190565b60208183018101518483018201520161040356fea2646970667358221220ebd048bd03a9e4c66526b220575ddf6b9b2cf25e2de8dfa641580e17f9c6b9f064736f6c63430008140033",
  "linkReferences": {},
  "deployedLinkReferences": {}
}