{
  "_format": "hh-sol-artifact-1",
  "contractName": "PayoutManager",
  "sourceName": "contracts/src/PayoutManager.sol",
  "abi": [
    {
      "inputs": [
        {
          "internalType": "address payable",
          "name": "_predictionMarket",
          "type": "address"
        },
        {
          "internalType": "address",
          "name": "_oracle",
          "type": "address"
        }
      ],
      "stateMutability": "nonpayable",
      "type": "constructor"
    },
    {
      "inputs": [
        {
          "internalType": "address",
          "name": "owner",
          "type": "address"
        }
      ],
      "name": "OwnableInvalidOwner",
      "type": "error"
    },
    {
      "inputs": [
        {
          "internalType": "address",
          "name": "account",
          "type": "address"
        }
      ],
      "name": "OwnableUnauthorizedAccount",
      "type": "error"
    },
    {
      "inputs": [],
      "name": "ReentrancyGuardReentrantCall",
      "type": "error"
    },
    {
      "anonymous": false,
      "inputs": [
        {
          "indexed": true,
          "internalType": "address",
          "name": "recipient",
          "type": "address"
        },
        {
          "indexed": false,
          "internalType": "uint256",
          "name": "amount",
          "type": "uint256"
        }
      ],
      "name": "EmergencyWithdrawal",
      "type": "event"
    },
    {
      "anonymous": false,
      "inputs": [
        {
          "indexed": true,
          "internalType": "address",
          "name": "previousOwner",
          "type": "address"
        },
        {
          "indexed": true,
          "internalType": "address",
          "name": "newOwner",
          "type": "address"
        }
      ],
      "name": "OwnershipTransferred",
      "type": "event"
    },
    {
      "anonymous": false,
      "inputs": [
        {
          "indexed": true,
          "internalType": "uint256",
          "name": "marketId",
          "type": "uint256"
        },
        {
          "indexed": false,
          "internalType": "uint256",
          "name": "totalPool",
          "type": "uint256"
        },
        {
          "indexed": false,
          "internalType": "uint256",
          "name": "winnerPool",
          "type": "uint256"
        }
      ],
      "name": "PayoutCalculated",
      "type": "event"
    },
    {
      "anonymous": false,
      "inputs": [
        {
          "indexed": true,
          "internalType": "address",
          "name": "recipient",
          "type": "address"
        },
        {
          "indexed": false,
          "internalType": "uint256",
          "name": "amount",
          "type": "uint256"
        },
        {
          "indexed": false,
          "internalType": "uint256",
          "name": "marketId",
          "type": "uint256"
        }
      ],
      "name": "PayoutClaimed",
      "type": "event"
    },
    {
      "anonymous": false,
      "inputs": [
        {
          "indexed": true,
          "internalType": "address",
          "name": "recipient",
          "type": "address"
        },
        {
          "indexed": false,
          "internalType": "uint256",
          "name": "amount",
          "type": "uint256"
        }
      ],
      "name": "PlatformFeeWithdrawn",
      "type": "event"
    },
    {
      "inputs": [
        {
          "internalType": "uint256",
          "name": "_marketId",
          "type": "uint256"
        }
      ],
      "name": "calculatePayouts",
      "outputs": [],
      "stateMutability": "nonpayable",
      "type": "function"
    },
    {
      "inputs": [],
      "name": "claimAllPayouts",
      "outputs": [],
      "stateMutability": "nonpayable",
      "type": "function"
    },
    {
      "inputs": [
        {
          "internalType": "uint256",
          "name": "_marketId",
          "type": "uint256"
        }
      ],
      "name": "claimPayout",
      "outputs": [],
      "stateMutability": "nonpayable",
      "type": "function"
    },
    {
      "inputs": [],
      "name": "emergencyWithdraw",
      "outputs": [],
      "stateMutability": "nonpayable",
      "type": "function"
    },
    {
      "inputs": [
        {
          "internalType": "address",
          "name": "_user",
          "type": "address"
        },
        {
          "internalType": "uint256",
          "name": "_marketId",
          "type": "uint256"
        }
      ],
      "name": "getUserMarketPayout",
      "outputs": [
        {
          "internalType": "uint256",
          "name": "",
          "type": "uint256"
        }
      ],
      "stateMutability": "view",
      "type": "function"
    },
    {
      "inputs": [
        {
          "internalType": "address",
          "name": "_user",
          "type": "address"
        }
      ],
      "name": "getUserUnclaimedPayouts",
      "outputs": [
        {
          "internalType": "uint256",
          "name": "",
          "type": "uint256"
        }
      ],
      "stateMutability": "view",
      "type": "function"
    },
    {
      "inputs": [
        {
          "internalType": "uint256",
          "name": "",
          "type": "uint256"
        }
      ],
      "name": "marketPayouts",
      "outputs": [
        {
          "internalType": "uint256",
          "name": "totalPool",
          "type": "uint256"
        },
        {
          "internalType": "uint256",
          "name": "winnerPool",
          "type": "uint256"
        },
        {
          "internalType": "uint256",
          "name": "platformFees",
          "type": "uint256"
        },
        {
          "internalType": "uint256",
          "name": "totalPayouts",
          "type": "uint256"
        },
        {
          "internalType": "bool",
          "name": "processed",
          "type": "bool"
        }
      ],
      "stateMutability": "view",
      "type": "function"
    },
    {
      "inputs": [],
      "name": "oracle",
      "outputs": [
        {
          "internalType": "contract ClockchainOracle",
          "name": "",
          "type": "address"
        }
      ],
      "stateMutability": "view",
      "type": "function"
    },
    {
      "inputs": [],
      "name": "owner",
      "outputs": [
        {
          "internalType": "address",
          "name": "",
          "type": "address"
        }
      ],
      "stateMutability": "view",
      "type": "function"
    },
    {
      "inputs": [],
      "name": "payoutCount",
      "outputs": [
        {
          "internalType": "uint256",
          "name": "",
          "type": "uint256"
        }
      ],
      "stateMutability": "view",
      "type": "function"
    },
    {
      "inputs": [
        {
          "internalType": "uint256",
          "name": "",
          "type": "uint256"
        }
      ],
      "name": "payouts",
      "outputs": [
        {
          "internalType": "address",
          "name": "recipient",
          "type": "address"
        },
        {
          "internalType": "uint256",
          "name": "amount",
          "type": "uint256"
        },
        {
          "internalType": "uint256",
          "name": "marketId",
          "type": "uint256"
        },
        {
          "internalType": "uint256",
          "name": "submissionId",
          "type": "uint256"
        },
        {
          "internalType": "bool",
          "name": "claimed",
          "type": "bool"
        },
        {
          "internalType": "uint256",
          "name": "timestamp",
          "type": "uint256"
        }
      ],
      "stateMutability": "view",
      "type": "function"
    },
    {
      "inputs": [],
      "name": "platformFeesCollected",
      "outputs": [
        {
          "internalType": "uint256",
          "name": "",
          "type": "uint256"
        }
      ],
      "stateMutability": "view",
      "type": "function"
    },
    {
      "inputs": [],
      "name": "predictionMarket",
      "outputs": [
        {
          "internalType": "contract PredictionMarket",
          "name": "",
          "type": "address"
        }
      ],
      "stateMutability": "view",
      "type": "function"
    },
    {
      "inputs": [],
      "name": "renounceOwnership",
      "outputs": [],
      "stateMutability": "nonpayable",
      "type": "function"
    },
    {
      "inputs": [],
      "name": "totalDistributed",
      "outputs": [
        {
          "internalType": "uint256",
          "name": "",
          "type": "uint256"
        }
      ],
      "stateMutability": "view",
      "type": "function"
    },
    {
      "inputs": [
        {
          "internalType": "address",
          "name": "newOwner",
          "type": "address"
        }
      ],
      "name": "transferOwnership",
      "outputs": [],
      "stateMutability": "nonpayable",
      "type": "function"
    },
    {
      "inputs": [
        {
          "internalType": "address",
          "name": "",
          "type": "address"
        },
        {
          "internalType": "uint256",
          "name": "",
          "type": "uint256"
        }
      ],
      "name": "userPayouts",
      "outputs": [
        {
          "internalType": "uint256",
          "name": "",
          "type": "uint256"
        }
      ],
      "stateMutability": "view",
      "type": "function"
    },
    {
      "inputs": [
        {
          "internalType": "address",
          "name": "",
          "type": "address"
        }
      ],
      "name": "userTotalWinnings",
      "outputs": [
        {
          "internalType": "uint256",
          "name": "",
          "type": "uint256"
        }
      ],
      "stateMutability": "view",
      "type": "function"
    },
    {
      "inputs": [],
      "name": "withdrawPlatformFees",
      "outputs": [],
      "stateMutability": "nonpayable",
      "type": "function"
    },
    {
      "stateMutability": "payable",
      "type": "receive"
    }
  ],
  "bytecode": "0x6080346100e857601f6115fe38819003918201601f19168301916001600160401b038311848410176100ed5780849260409485528339810103126100e85780516001600160a01b0391828216918290036100e85760200151908282168092036100e857600160005533156100cf57600180546001600160a01b0319808216339081179093556040519590939291167f8be0079c531659141344cd1fd0a4f28419497f9722a3daafe3b4186f6b6457e0600080a381600254161760025560035416176003556114fa90816101048239f35b604051631e4fbdf760e01b815260006004820152602490fd5b600080fd5b634e487b7160e01b600052604160045260246000fdfe608080604052600436101561001d575b50361561001b57600080fd5b005b60003560e01c908163088574421461116c57508063239e820814610fc157806329652e8614610f515780633d08f85c14610f065780635783180914610ee85780636249f88f14610e8b578063715018a614610e2e5780637dc0d1d014610e055780638a69614e14610c545780638da5cb5b14610c2b578063b36ffca614610c0d578063c5e6013614610b1b578063ce08c0d114610ac3578063d0b7830b14610a16578063db2e21bc1461096f578063def114b614610946578063e5a4e941146101a7578063efca2eed146101895763f2fde38b146100fb573861000f565b34610184576020366003190112610184576101146111a2565b61011c6111e6565b6001600160a01b0390811690811561016b57600154826001600160601b0360a01b821617600155167f8be0079c531659141344cd1fd0a4f28419497f9722a3daafe3b4186f6b6457e0600080a3005b604051631e4fbdf760e01b815260006004820152602490fd5b600080fd5b34610184576000366003190112610184576020600554604051908152f35b346101845760203660031901126101845760025460405163b1283e7760e01b80825260048035908301526001600160a01b039092169190600081602481865afa90811561032257600091610920575b50156108e5576004356000526008602052604060002091600483015460ff81166108a0576040519283526004356004840152600083602481855afa80156103225760009060009460009161086b575b50604051632417667f60e21b8152600480359082015295600087602481885afa968715610322576000976107a9575b506000938492835b895185101561032e5761028f858b611398565b5190604051916356b99a4f60e11b835260048301526000826024818c5afa918215610322576000926102f4575b50866102c8878d611398565b51036102df57506102d99094611389565b9361027c565b94966102d9916102ee91611427565b96611389565b6103129192503d806000833e61030a818361122e565b8101906113ac565b505050509350505050908b6102bc565b6040513d6000823e3d90fd5b8387878585808e038e811161079357610363926001918755878288015582600288015560ff1916176004860155600654611427565b600655836103a9575b826001815491015460405191825260208201527fae5e75dfca51b0e8dff8f3244f8f5b11586dfafb4ca34d5f5961f7b92eb9609a604060043592a2005b60043560005260086020526040600020916004602060018060a01b03600254166040519283809263cf09449760e01b82525afa90811561032257600091610761575b5060005b8181106105985750506002546040516356b99a4f60e11b815260048101849052949590600090869060249082906001600160a01b03165afa91821561032257600095600093610552575b50926104618361045b61053f946104566003986105489a98611434565b611447565b90611427565b9560018060a01b031680600052600584016020526040600020610485888254611427565b90556004549161049483611389565b6004556005604051916104a683611212565b83835261052960208401918b8352604085019060043582526060860190815260808601916000835260a087019442865289600052600760205260406000209760018060a01b039051166001600160601b0360a01b895416178855516001880155516002870155518a860155511515600485019060ff801983541691151516179055565b5191015560005260096020526040600020611467565b01918254611427565b905580828061036c565b61045696506105489593506003949161045b61053f9461057f610461943d806000833e61030a818361122e565b50505050509c9250509a97995050945050919450610439565b600254604051631157807d60e11b8152600481018390529190608090839060249082906001600160a01b03165afa8015610322576000908660008092610715575b6105eb9550146105f0575b5050611389565b6103ef565b6106058161045b8c6104568a61070c96611434565b9160018060a01b038116600052600589016020526040600020610629848254611427565b905561070260045461063a81611389565b6004556040519261064a84611212565b60018060a01b038116845285602085015260043560408501528a60608501526000608085015260a08401428152826000526007602052600560406000209160018060a01b038751166001600160601b0360a01b84541617835560208701516001840155604087015160028401556106e260806060890151986003998a87015501511515600485019060ff801983541691151516179055565b519101556001600160a01b03166000908152600960205260409020611467565b8801918254611427565b905588806105e4565b505050506080823d608011610759575b816107326080938361122e565b8101031261018457816107476105eb936112c1565b866040602084015193015191926105d9565b3d9150610725565b90506020813d60201161078b575b8161077c6020938361122e565b810103126101845751866103eb565b3d915061076f565b634e487b7160e01b600052601160045260246000fd5b9096503d806000833e6107bc818361122e565b8101906020818303126101845780519167ffffffffffffffff928381116101845781601f8285010112156101845780830151938411610855578360051b6040519461080a602083018761122e565b855260208501926020828487010101116101845783820160200192915b602082828701010184106108415750505050509587610274565b602080809486518152019401939250610827565b634e487b7160e01b600052604160045260246000fd5b91505061088c9193503d806000833e610884818361122e565b8101906112e2565b9b9950505050945092505050909386610245565b60405162461bcd60e51b815260206004820152601a60248201527f5061796f75747320616c72656164792063616c63756c617465640000000000006044820152606490fd5b60405162461bcd60e51b815260206004820152601360248201527213585c9ad95d081b9bdd081c995cdbdb1d9959606a1b6044820152606490fd5b61093591503d806000833e610884818361122e565b5050505050509350505050836101f6565b34610184576000366003190112610184576002546040516001600160a01b039091168152602090f35b34610184576000366003190112610184576109886111e6565b4780156109da5760018060a01b03600080808085856001541682f1156103225760207f23d6711a1d031134a36921253c75aa59e967d38e369ac625992824315e204f20916001541692604051908152a2005b60405162461bcd60e51b81526020600482015260146024820152734e6f2066756e647320746f20776974686472617760601b6044820152606490fd5b3461018457600036600319011261018457610a2f6111e6565b6006548015610a8857600060065560018060a01b03600080808085856001541682f1156103225760207fd116803f8b8538a601b6096e8d1196e3ce3ef43dec6dbbe4cd4e5c69dd171d8b916001541692604051908152a2005b60405162461bcd60e51b81526020600482015260136024820152724e6f206665657320746f20776974686472617760681b6044820152606490fd5b3461018457604036600319011261018457610adc6111a2565b6001600160a01b031660009081526009602052604090208054602435919082101561018457602091610b0d916111b8565b90546040519160031b1c8152f35b3461018457602080600319360112610184576001600160a01b0380610b3e6111a2565b168060005260098352604060002091604051808486829654938481520190600052866000209260005b88828210610bf757505050610b7e9250038461122e565b60009060005b8451811015610bed57610b978186611398565b5160005260078652604060002060ff6004820154161580610be1575b610bc7575b50610bc290611389565b610b84565b610bc291936001610bda92015490611427565b9290610bb8565b50848382541614610bb3565b8583604051908152f35b8554845260019586019589955093019201610b67565b34610184576000366003190112610184576020600654604051908152f35b34610184576000366003190112610184576001546040516001600160a01b039091168152602090f35b346101845760208060031936011261018457600435610c716114a1565b806000526008825260406000209160ff60048401541615610dc85760068301923360005283825260ff60406000205416610d91576005013360005280825260406000205415610d56573360005281526040600020549281526040600020600160ff19825416179055600a81526040600020610ced848254611427565b9055610cfb83600554611427565b6005558260008115610d4d575b600080809381933390f115610322576040519283528201527f0408e6e0b73daf4c873106e95fd067260fbff8bf9d1b499cad563d4480d45bac60403392a26001600055005b506108fc610d08565b60405162461bcd60e51b81526004810183905260136024820152724e6f207061796f757420617661696c61626c6560681b6044820152606490fd5b60405162461bcd60e51b815260048101839052600f60248201526e105b1c9958591e4818db185a5b5959608a1b6044820152606490fd5b6064906040519062461bcd60e51b82526004820152601660248201527514185e5bdd5d1cc81b9bdd0818d85b18dd5b185d195960521b6044820152fd5b34610184576000366003190112610184576003546040516001600160a01b039091168152602090f35b3461018457600036600319011261018457610e476111e6565b600180546001600160a01b031981169091556000906001600160a01b03167f8be0079c531659141344cd1fd0a4f28419497f9722a3daafe3b4186f6b6457e08280a3005b3461018457602036600319011261018457600435600052600860205260a06040600020805490600181015490600281015460ff60046003840154930154169260405194855260208501526040840152606083015215156080820152f35b34610184576000366003190112610184576020600454604051908152f35b3461018457604036600319011261018457610f1f6111a2565b602435600052600860205260056040600020019060018060a01b03166000526020526020604060002054604051908152f35b3461018457602036600319011261018457600435600052600760205260c0604060002060018060a01b03815416906001810154906002810154600382015490600560ff600485015416930154936040519586526020860152604085015260608401521515608083015260a0820152f35b3461018457600036600319011261018457610fda6114a1565b33600052602060098152604060002090604051808383829554938481520190600052836000209260005b858282106111565750505061101b9250038361122e565b6000805b83518210156110d8576110328285611398565b51600052600783526040600020916004830180549060ff821615806110c5575b61106a575b5050611064919250611389565b9061101f565b61108a61106494926002926001809260ff19161790558601548093611427565b940154604051918252858201527f0408e6e0b73daf4c873106e95fd067260fbff8bf9d1b499cad563d4480d45bac60403392a2829186611057565b5084546001600160a01b03163314611052565b82811561111b576000808093600a829433845252604082206110fb828254611427565b905561110981600554611427565b6005553382f115610322576001600055005b6064906040519062461bcd60e51b8252600482015260146024820152734e6f20756e636c61696d6564207061796f75747360601b6044820152fd5b8554845260019586019588955093019201611004565b34610184576020366003190112610184576020906001600160a01b036111906111a2565b16600052600a82526040600020548152f35b600435906001600160a01b038216820361018457565b80548210156111d05760005260206000200190600090565b634e487b7160e01b600052603260045260246000fd5b6001546001600160a01b031633036111fa57565b60405163118cdaa760e01b8152336004820152602490fd5b60c0810190811067ffffffffffffffff82111761085557604052565b90601f8019910116810190811067ffffffffffffffff82111761085557604052565b919080601f840112156101845782519067ffffffffffffffff82116108555760405191602091611289601f8301601f191684018561122e565b8184528282870101116101845760005b8181106112ae57508260009394955001015290565b8581018301518482018401528201611299565b51906001600160a01b038216820361018457565b5190811515820361018457565b90610160828203126101845781519067ffffffffffffffff91828111610184578161130e918501611250565b9361131b602085016112c1565b93604081015193606082015193611334608084016112d5565b9360a08401519360c08101519360e08201518181116101845784611359918401611250565b9361010083015191821161018457611372918301611250565b9161014061138361012084016112d5565b92015190565b60001981146107935760010190565b80518210156111d05760209160051b010190565b919061012083820312610184578251926113c8602082016112c1565b9260408201519267ffffffffffffffff9384811161018457816113ec918501611250565b9360608401519360808101519360a08201519361140b60c084016112d5565b9360e08401519081116101845761010091611383918501611250565b9190820180921161079357565b8181029291811591840414171561079357565b8115611451570490565b634e487b7160e01b600052601260045260246000fd5b80546801000000000000000081101561085557611489916001820181556111b8565b819291549060031b91821b91600019901b1916179055565b6002600054146114b2576002600055565b604051633ee5aeb560e01b8152600490fdfea2646970667358221220a698cfcbfadac1cb98df43f9b05fbfbd7fc86be47b332e40cad1779beb4cf8db64736f6c63430008140033",
  "linkReferences": {},
  "deployedLinkReferences": {}
}