{
  "_format": "hh-sol-artifact-1",
  "contractName": "ClockchainOracle",
  "sourceName": "contracts/src/ClockchainOracle.sol",
  "abi": [
    {
      "inputs": [
        {
          "internalType": "address payable",
          "name": "_predictionMarket",
          "type": "address"
        }
      ],
      "stateMutability": "nonpayable",
      "type": "constructor"
    },
    {
      "inputs": [],
      "name": "AccessControlBadConfirmation",
      "type": "error"
    },
    {
      "inputs": [
        {
          "internalType": "address",
          "name": "account",
          "type": "address"
        },
        {
          "internalType": "bytes32",
          "name": "neededRole",
          "type": "bytes32"
        }
      ],
      "name": "AccessControlUnauthorizedAccount",
      "type": "error"
    },
    {
      "inputs": [],
      "name": "ReentrancyGuardReentrantCall",
      "type": "error"
    },
    {
      "anonymous": false,
      "inputs": [
        {
          "indexed": true,
          "internalType": "uint256",
          "name": "marketId",
          "type": "uint256"
        },
        {
          "indexed": false,
          "internalType": "uint256",
          "name": "winningSubmissionId",
          "type": "uint256"
        }
      ],
      "name": "MarketResolved",
      "type": "event"
    },
    {
      "anonymous": false,
      "inputs": [
        {
          "indexed": true,
          "internalType": "uint256",
          "name": "submissionId",
          "type": "uint256"
        },
        {
          "indexed": true,
          "internalType": "uint256",
          "name": "marketId",
          "type": "uint256"
        },
        {
          "indexed": true,
          "internalType": "address",
          "name": "oracle",
          "type": "address"
        }
      ],
      "name": "OracleSubmissionCreated",
      "type": "event"
    },
    {
      "anonymous": false,
      "inputs": [
        {
          "indexed": true,
          "internalType": "uint256",
          "name": "submissionId",
          "type": "uint256"
        },
        {
          "indexed": true,
          "internalType": "address",
          "name": "voter",
          "type": "address"
        },
        {
          "indexed": false,
          "internalType": "bool",
          "name": "support",
          "type": "bool"
        }
      ],
      "name": "OracleVoteCast",
      "type": "event"
    },
    {
      "anonymous": false,
      "inputs": [
        {
          "indexed": true,
          "internalType": "bytes32",
          "name": "role",
          "type": "bytes32"
        },
        {
          "indexed": true,
          "internalType": "bytes32",
          "name": "previousAdminRole",
          "type": "bytes32"
        },
        {
          "indexed": true,
          "internalType": "bytes32",
          "name": "newAdminRole",
          "type": "bytes32"
        }
      ],
      "name": "RoleAdminChanged",
      "type": "event"
    },
    {
      "anonymous": false,
      "inputs": [
        {
          "indexed": true,
          "internalType": "bytes32",
          "name": "role",
          "type": "bytes32"
        },
        {
          "indexed": true,
          "internalType": "address",
          "name": "account",
          "type": "address"
        },
        {
          "indexed": true,
          "internalType": "address",
          "name": "sender",
          "type": "address"
        }
      ],
      "name": "RoleGranted",
      "type": "event"
    },
    {
      "anonymous": false,
      "inputs": [
        {
          "indexed": true,
          "internalType": "bytes32",
          "name": "role",
          "type": "bytes32"
        },
        {
          "indexed": true,
          "internalType": "address",
          "name": "account",
          "type": "address"
        },
        {
          "indexed": true,
          "internalType": "address",
          "name": "sender",
          "type": "address"
        }
      ],
      "name": "RoleRevoked",
      "type": "event"
    },
    {
      "anonymous": false,
      "inputs": [
        {
          "indexed": true,
          "internalType": "uint256",
          "name": "submissionId",
          "type": "uint256"
        },
        {
          "indexed": false,
          "internalType": "bytes32",
          "name": "screenshotHash",
          "type": "bytes32"
        }
      ],
      "name": "ScreenshotStored",
      "type": "event"
    },
    {
      "inputs": [],
      "name": "ADMIN_ROLE",
      "outputs": [
        {
          "internalType": "bytes32",
          "name": "",
          "type": "bytes32"
        }
      ],
      "stateMutability": "view",
      "type": "function"
    },
    {
      "inputs": [],
      "name": "DEFAULT_ADMIN_ROLE",
      "outputs": [
        {
          "internalType": "bytes32",
          "name": "",
          "type": "bytes32"
        }
      ],
      "stateMutability": "view",
      "type": "function"
    },
    {
      "inputs": [],
      "name": "ORACLE_ROLE",
      "outputs": [
        {
          "internalType": "bytes32",
          "name": "",
          "type": "bytes32"
        }
      ],
      "stateMutability": "view",
      "type": "function"
    },
    {
      "inputs": [
        {
          "internalType": "address",
          "name": "_oracle",
          "type": "address"
        }
      ],
      "name": "addOracle",
      "outputs": [],
      "stateMutability": "nonpayable",
      "type": "function"
    },
    {
      "inputs": [
        {
          "internalType": "string",
          "name": "_s1",
          "type": "string"
        },
        {
          "internalType": "string",
          "name": "_s2",
          "type": "string"
        }
      ],
      "name": "calculateLevenshteinDistance",
      "outputs": [
        {
          "internalType": "uint256",
          "name": "",
          "type": "uint256"
        }
      ],
      "stateMutability": "pure",
      "type": "function"
    },
    {
      "inputs": [],
      "name": "consensusThreshold",
      "outputs": [
        {
          "internalType": "uint256",
          "name": "",
          "type": "uint256"
        }
      ],
      "stateMutability": "view",
      "type": "function"
    },
    {
      "inputs": [
        {
          "internalType": "uint256",
          "name": "_marketId",
          "type": "uint256"
        }
      ],
      "name": "getMarketOracleSubmissions",
      "outputs": [
        {
          "internalType": "uint256[]",
          "name": "",
          "type": "uint256[]"
        }
      ],
      "stateMutability": "view",
      "type": "function"
    },
    {
      "inputs": [
        {
          "internalType": "bytes32",
          "name": "role",
          "type": "bytes32"
        }
      ],
      "name": "getRoleAdmin",
      "outputs": [
        {
          "internalType": "bytes32",
          "name": "",
          "type": "bytes32"
        }
      ],
      "stateMutability": "view",
      "type": "function"
    },
    {
      "inputs": [
        {
          "internalType": "bytes32",
          "name": "role",
          "type": "bytes32"
        },
        {
          "internalType": "address",
          "name": "account",
          "type": "address"
        }
      ],
      "name": "grantRole",
      "outputs": [],
      "stateMutability": "nonpayable",
      "type": "function"
    },
    {
      "inputs": [
        {
          "internalType": "bytes32",
          "name": "role",
          "type": "bytes32"
        },
        {
          "internalType": "address",
          "name": "account",
          "type": "address"
        }
      ],
      "name": "hasRole",
      "outputs": [
        {
          "internalType": "bool",
          "name": "",
          "type": "bool"
        }
      ],
      "stateMutability": "view",
      "type": "function"
    },
    {
      "inputs": [
        {
          "internalType": "uint256",
          "name": "",
          "type": "uint256"
        },
        {
          "internalType": "uint256",
          "name": "",
          "type": "uint256"
        }
      ],
      "name": "marketOracleSubmissions",
      "outputs": [
        {
          "internalType": "uint256",
          "name": "",
          "type": "uint256"
        }
      ],
      "stateMutability": "view",
      "type": "function"
    },
    {
      "inputs": [
        {
          "internalType": "uint256",
          "name": "",
          "type": "uint256"
        }
      ],
      "name": "marketResolutions",
      "outputs": [
        {
          "internalType": "uint256",
          "name": "marketId",
          "type": "uint256"
        },
        {
          "internalType": "uint256",
          "name": "winningSubmissionId",
          "type": "uint256"
        },
        {
          "internalType": "bool",
          "name": "resolved",
          "type": "bool"
        },
        {
          "internalType": "uint256",
          "name": "timestamp",
          "type": "uint256"
        }
      ],
      "stateMutability": "view",
      "type": "function"
    },
    {
      "inputs": [],
      "name": "minimumOracles",
      "outputs": [
        {
          "internalType": "uint256",
          "name": "",
          "type": "uint256"
        }
      ],
      "stateMutability": "view",
      "type": "function"
    },
    {
      "inputs": [
        {
          "internalType": "address",
          "name": "",
          "type": "address"
        }
      ],
      "name": "oracleReputation",
      "outputs": [
        {
          "internalType": "uint256",
          "name": "",
          "type": "uint256"
        }
      ],
      "stateMutability": "view",
      "type": "function"
    },
    {
      "inputs": [
        {
          "internalType": "uint256",
          "name": "",
          "type": "uint256"
        }
      ],
      "name": "oracleSubmissions",
      "outputs": [
        {
          "internalType": "uint256",
          "name": "marketId",
          "type": "uint256"
        },
        {
          "internalType": "address",
          "name": "oracle",
          "type": "address"
        },
        {
          "internalType": "string",
          "name": "actualText",
          "type": "string"
        },
        {
          "internalType": "string",
          "name": "tweetId",
          "type": "string"
        },
        {
          "internalType": "string",
          "name": "screenshotBase64",
          "type": "string"
        },
        {
          "internalType": "uint256",
          "name": "timestamp",
          "type": "uint256"
        },
        {
          "internalType": "uint256",
          "name": "votesFor",
          "type": "uint256"
        },
        {
          "internalType": "uint256",
          "name": "votesAgainst",
          "type": "uint256"
        },
        {
          "internalType": "bool",
          "name": "verified",
          "type": "bool"
        }
      ],
      "stateMutability": "view",
      "type": "function"
    },
    {
      "inputs": [],
      "name": "predictionMarket",
      "outputs": [
        {
          "internalType": "contract PredictionMarket",
          "name": "",
          "type": "address"
        }
      ],
      "stateMutability": "view",
      "type": "function"
    },
    {
      "inputs": [
        {
          "internalType": "address",
          "name": "_oracle",
          "type": "address"
        }
      ],
      "name": "removeOracle",
      "outputs": [],
      "stateMutability": "nonpayable",
      "type": "function"
    },
    {
      "inputs": [
        {
          "internalType": "bytes32",
          "name": "role",
          "type": "bytes32"
        },
        {
          "internalType": "address",
          "name": "callerConfirmation",
          "type": "address"
        }
      ],
      "name": "renounceRole",
      "outputs": [],
      "stateMutability": "nonpayable",
      "type": "function"
    },
    {
      "inputs": [
        {
          "internalType": "bytes32",
          "name": "role",
          "type": "bytes32"
        },
        {
          "internalType": "address",
          "name": "account",
          "type": "address"
        }
      ],
      "name": "revokeRole",
      "outputs": [],
      "stateMutability": "nonpayable",
      "type": "function"
    },
    {
      "inputs": [],
      "name": "submissionCount",
      "outputs": [
        {
          "internalType": "uint256",
          "name": "",
          "type": "uint256"
        }
      ],
      "stateMutability": "view",
      "type": "function"
    },
    {
      "inputs": [],
      "name": "submissionWindow",
      "outputs": [
        {
          "internalType": "uint256",
          "name": "",
          "type": "uint256"
        }
      ],
      "stateMutability": "view",
      "type": "function"
    },
    {
      "inputs": [
        {
          "internalType": "uint256",
          "name": "_marketId",
          "type": "uint256"
        },
        {
          "internalType": "string",
          "name": "_actualText",
          "type": "string"
        },
        {
          "internalType": "string",
          "name": "_tweetId",
          "type": "string"
        },
        {
          "internalType": "string",
          "name": "_screenshotBase64",
          "type": "string"
        }
      ],
      "name": "submitOracleData",
      "outputs": [
        {
          "internalType": "uint256",
          "name": "",
          "type": "uint256"
        }
      ],
      "stateMutability": "nonpayable",
      "type": "function"
    },
    {
      "inputs": [
        {
          "internalType": "bytes4",
          "name": "interfaceId",
          "type": "bytes4"
        }
      ],
      "name": "supportsInterface",
      "outputs": [
        {
          "internalType": "bool",
          "name": "",
          "type": "bool"
        }
      ],
      "stateMutability": "view",
      "type": "function"
    },
    {
      "inputs": [
        {
          "internalType": "uint256",
          "name": "_minimumOracles",
          "type": "uint256"
        },
        {
          "internalType": "uint256",
          "name": "_consensusThreshold",
          "type": "uint256"
        },
        {
          "internalType": "uint256",
          "name": "_submissionWindow",
          "type": "uint256"
        }
      ],
      "name": "updateConsensusParameters",
      "outputs": [],
      "stateMutability": "nonpayable",
      "type": "function"
    },
    {
      "inputs": [
        {
          "internalType": "uint256",
          "name": "_submissionId",
          "type": "uint256"
        },
        {
          "internalType": "bool",
          "name": "_support",
          "type": "bool"
        }
      ],
      "name": "voteOnSubmission",
      "outputs": [],
      "stateMutability": "nonpayable",
      "type": "function"
    }
  ],
  "bytecode": "0x608034620000a657601f62001e8138819003918201601f19168301916001600160401b03831184841017620000ab57808492602094604052833981010312620000a657516001600160a01b03811690819003620000a6576001805560036004556042600555611c20600655600280546001600160a01b0319169190911790556200008933620000c1565b50620000953362000141565b50604051611c7d9081620001e48239f35b600080fd5b634e487b7160e01b600052604160045260246000fd5b6001600160a01b031660008181527fad3228b676f7d3cd4284a5443f17f1962b36e491b30a40b2405849e597ba5fb5602052604081205490919060ff166200013d57818052816020526040822081835260205260408220600160ff19825416179055339160008051602062001e618339815191528180a4600190565b5090565b6001600160a01b031660008181527f7d7ffb7a348e1c6a02869081a26547b49160dd3df72d1d75a570eb9b698292ec60205260408120549091907fa49807205ce4d355092ef5a8a18f56e8913cf4a201fbe287825b095693c217759060ff16620001de57808352826020526040832082845260205260408320600160ff1982541617905560008051602062001e61833981519152339380a4600190565b50509056fe608080604052600436101561001357600080fd5b60003560e01c90816301ffc9a7146114445750806307e2cea51461141b578063248a9ca3146113ec5780632f2ff15d146113ad57806336568abe146113665780634249d3ba14610e025780635402656814610dbb5780635c8de39e14610d9d57806360d10f38146106be5780636ec02be9146106a05780637160552a146105ce57806374bfa42f1461059457806375b238fc1461055957806383907ce81461050657806391d14854146104b9578063a217fddf1461049d578063a8ecc0bd1461043d578063b613505014610397578063d547741f14610358578063def114b61461032f578063df5dd1a514610272578063df6091a314610213578063e621dbc7146101f5578063f9b0b5b9146101d75763fdc85fc41461013257600080fd5b346101d25760203660031901126101d2576101d061014e6114ad565b3360009081527f7d7ffb7a348e1c6a02869081a26547b49160dd3df72d1d75a570eb9b698292ec60205260409020546101899060ff16611be2565b600080516020611c2883398151915260009081526020527fa629f6981c2f6895a67dc766e8e03ff72d04a413d0d8773a3ca56e9e474032c2546101cb9061169e565b6117fb565b005b600080fd5b346101d25760003660031901126101d2576020600554604051908152f35b346101d25760003660031901126101d2576020600654604051908152f35b346101d25760403660031901126101d25767ffffffffffffffff6004358181116101d25761024590369060040161152f565b906024359081116101d25760209161026461026a92369060040161152f565b90611a5d565b604051908152f35b346101d25760203660031901126101d25761028b6114ad565b3360009081527f7d7ffb7a348e1c6a02869081a26547b49160dd3df72d1d75a570eb9b698292ec60205260409020546102c69060ff16611be2565b600080516020611c2883398151915260009081526020527fa629f6981c2f6895a67dc766e8e03ff72d04a413d0d8773a3ca56e9e474032c2546103089061169e565b610311816116e2565b506001600160a01b03166000908152600a6020526040902060649055005b346101d25760003660031901126101d2576002546040516001600160a01b039091168152602090f35b346101d25760403660031901126101d2576101d0600435610377611497565b9080600052600060205261039260016040600020015461169e565b611894565b346101d2576020806003193601126101d25760043560005260098152604060002060405190818382549182815201908192600052846000209060005b868282106104295786866103e9828803836114f1565b604051928392818401908285525180915260408401929160005b82811061041257505050500390f35b835185528695509381019392810192600101610403565b8354855290930192600192830192016103d3565b346101d25760603660031901126101d2573360009081527f7d7ffb7a348e1c6a02869081a26547b49160dd3df72d1d75a570eb9b698292ec60205260409020546104899060ff16611be2565b600480359055602435600555604435600655005b346101d25760003660031901126101d257602060405160008152f35b346101d25760403660031901126101d2576104d2611497565b600435600052600060205260406000209060018060a01b0316600052602052602060ff604060002054166040519015158152f35b346101d25760203660031901126101d257600435600052600860205260806040600020805490600181015490600460ff600383015416910154916040519384526020840152151560408301526060820152f35b346101d25760003660031901126101d25760206040517fa49807205ce4d355092ef5a8a18f56e8913cf4a201fbe287825b095693c217758152f35b346101d25760203660031901126101d2576001600160a01b036105b56114ad565b16600052600a6020526020604060002054604051908152f35b346101d25760203660031901126101d2576004356000908152600760205260409020805460018201546001600160a01b03169161060d600282016115b0565b610619600383016115b0565b91610626600482016115b0565b9261068460058301549461067660068501549361066860ff6008600789015498015416976040519b8c9b8c5260208c01526101208060408d01528b0190611679565b9089820360608b0152611679565b908782036080890152611679565b9360a086015260c085015260e084015215156101008301520390f35b346101d25760003660031901126101d2576020600354604051908152f35b346101d25760803660031901126101d25767ffffffffffffffff602460043581358381116101d2576106f490369060040161152f565b916044358481116101d25761070d90369060040161152f565b936064358181116101d25761072690369060040161152f565b91600080516020611c2883398151915260005260209560008752604060002033600052875261075c60ff60406000205416611909565b60025460405163b1283e7760e01b815260048101879052906000908290859082906001600160a01b03165afa908115610d915760008091600093610cf2575b50804210610cae576006546107af916119bb565b4211610c6a57610c265715610bd7576003928354966107cd886119c8565b85558760005260078952604060002091878355600193848401336bffffffffffffffffffffffff60a01b825416179055600284018351838111610b2457808d6108168454611576565b96601f97888111610ba9575b5081888411600114610b445750600092610b39575b5050600019828b1b1c191690871b1790555b805184880191838211610b24578c82916108638554611576565b878111610af6575b5081878411600114610a915750600092610a86575b5050600019828a1b1c191690861b1790555b60048301918751918211610a715781906108ac8454611576565b8c828211610a38575b50508b9082116001146109d7576000916109cc575b5060001982881b1c191690841b1790555b426005820155816006820155600060078201556009600882019160ff199283815416905533600052018852816040600020918254161790558460005260098752604060002090815492600160401b8410156109b8575092610966837fc30d3ad6f05aaa235b41df783d8544179bea684ea7c954db901ca7f62f01253396938a968a99960181556114c3565b81929154911b9087821b91600019901b1916179055604051913390867fda485f99b3f07e05497aef9217a3b8dc611a4263fddb349f6a31976203280d09600080a48281519101208152a2604051908152f35b634e487b7160e01b60009081526041600452fd5b90508701518b6108ca565b60008481528c81208794509190601f198416908e5b8c838310610a22575050508311610a0a575b5050811b0190556108db565b890151600019838a1b60f8161c191690558b806109fe565b840151855589969094019392830192018e6109ec565b610a61918660005283826000209181870160051c8301938710610a68575b0160051c01906119d7565b8c8c6108b5565b92508192610a56565b85634e487b7160e01b60005260416004526000fd5b015190508d80610880565b9190899450601f1984168660005283600020936000905b828210610add5750508411610ac5575b505050811b019055610892565b0151600019838c1b60f8161c191690558d8080610ab8565b8484015186558c97909501949384019390810190610aa8565b610b1e9086600052836000208980870160051c820192868810610a68570160051c01906119d7565b8f61086b565b87634e487b7160e01b60005260416004526000fd5b015190508e80610837565b91908a9450601f1984168660005283600020936000905b828210610b905750508411610b78575b505050811b019055610849565b0151600019838d1b60f8161c191690558e8080610b6b565b8484015186558d97909501949384019390810190610b5b565b610bd19086600052836000208a80870160051c820192868810610a68570160051c01906119d7565b38610822565b60405162461bcd60e51b8152600481018890526022818401527f4d61726b657420726571756972657320582e636f6d207665726966696361746960448201526137b760f11b6064820152608490fd5b60405162461bcd60e51b8152600481018990526017818501527f4d61726b657420616c7265616479207265736f6c7665640000000000000000006044820152606490fd5b60405162461bcd60e51b8152600481018a9052601f818601527f4f7261636c65207375626d697373696f6e2077696e646f7720636c6f736564006044820152606490fd5b60405162461bcd60e51b8152600481018b90526018818701527f4d61726b657420686173206e6f7420656e6465642079657400000000000000006044820152606490fd5b925050503d806000833e610d0681836114f1565b810190610160818303126101d25780518581116101d25782610d29918301611955565b50610d3589820161199a565b50606081015190610d48608082016119ae565b9260e08201518781116101d25781610d61918401611955565b50610100820151918783116101d257610d8261012092610d89948301611955565b50016119ae565b91908a61079b565b6040513d6000823e3d90fd5b346101d25760003660031901126101d2576020600454604051908152f35b346101d25760403660031901126101d2576024356004356000526009602052604060002080548210156101d257602091610df4916114c3565b90546040519160031b1c8152f35b346101d25760403660031901126101d257600435602435801515908181036101d2573360009081527fa629f6981c2f6895a67dc766e8e03ff72d04a413d0d8773a3ca56e9e474032c16020526040902054610e5f9060ff16611909565b8260005260076020526040600020916009830191336000528260205260ff6040600020541661133157600884019260ff8454166112ec57336000526020526040600020600160ff198254161790556000146112d75760068301610ec281546119c8565b90555b604051908152837fb763457308821bd5ae18e4bfa8a065b9d24fa270bbf3d42c64ff2a18ad5889d160203393a36006820154610f056007840154826119bb565b906004548210159182611297575b5050610f1b57005b805460ff19166001179055546000918252600760205260408083206002549151632417667f60e21b815260048101849052939092916001600160a01b03169084602481845afa938415610d9157600094611203575b5060009260001992845b865181101561107657610f8d8188611a38565b51604051906356b99a4f60e11b82526004820152600081602481885afa8015610d9157600090610ffa575b610fc99150610264600286016115b0565b858110610fe0575b50610fdb906119c8565b610f7a565b9095509350610fdb610ff28688611a38565b519590610fd1565b503d806000833e61100b81836114f1565b8101610120828203126101d2576110246020830161199a565b5060408201519167ffffffffffffffff928381116101d25782611048918301611955565b9161105560c083016119ae565b5060e08201519384116101d257610fc9936110709201611955565b50610fb8565b509392509350506040516020810167ffffffffffffffff90828110828211176111ed57604052600082526040519160a08301838110838211176111ed57604052848352602083019184835260408401918252606084019160018352608085019342855287600052600860205260406000209551865551600186015560028501905180519283116111ed57600160401b83116111ed5760209082548484558085106111d0575b500190600052602060002060005b8381106111bc57505050509160047f6dfc24f0f2fb42e49fb4fa3ffa8abb148cab908a1fb8335b3f128a08b2594af19492602094600384019051151560ff8019835416911617905551910155604051908152a26001808060a01b0391015416600052600a6020526040600020805490600a82018092116111a65755005b634e487b7160e01b600052601160045260246000fd5b600190602084519401938184015501611129565b6111e79084600052858460002091820191016119d7565b8a61111b565b634e487b7160e01b600052604160045260246000fd5b9093503d806000833e61121681836114f1565b8101906020818303126101d25780519067ffffffffffffffff82116101d257019080601f830112156101d257815161124d816119ee565b9261125b60405194856114f1565b81845260208085019260051b8201019283116101d257602001905b828210611287575050509284610f70565b8151815260209182019101611276565b9091506064820291808304606414901517156111a65780156112c157600554910410158480610f13565b634e487b7160e01b600052601260045260246000fd5b600783016112e581546119c8565b9055610ec5565b60405162461bcd60e51b815260206004820152601b60248201527f5375626d697373696f6e20616c726561647920766572696669656400000000006044820152606490fd5b60405162461bcd60e51b815260206004820152600d60248201526c105b1c9958591e481d9bdd1959609a1b6044820152606490fd5b346101d25760403660031901126101d25761137f611497565b336001600160a01b0382160361139b576101d090600435611894565b60405163334bd91960e11b8152600490fd5b346101d25760403660031901126101d2576101d06004356113cc611497565b908060005260006020526113e760016040600020015461169e565b611782565b346101d25760203660031901126101d25760043560005260006020526020600160406000200154604051908152f35b346101d25760003660031901126101d2576020604051600080516020611c288339815191528152f35b346101d25760203660031901126101d2576004359063ffffffff60e01b82168092036101d257602091637965db0b60e01b8114908115611486575b5015158152f35b6301ffc9a760e01b1490508361147f565b602435906001600160a01b03821682036101d257565b600435906001600160a01b03821682036101d257565b80548210156114db5760005260206000200190600090565b634e487b7160e01b600052603260045260246000fd5b90601f8019910116810190811067ffffffffffffffff8211176111ed57604052565b67ffffffffffffffff81116111ed57601f01601f191660200190565b81601f820112156101d25780359061154682611513565b9261155460405194856114f1565b828452602083830101116101d257816000926020809301838601378301015290565b90600182811c921680156115a6575b602083101461159057565b634e487b7160e01b600052602260045260246000fd5b91607f1691611585565b90604051918260008254926115c484611576565b90818452600194858116908160001461163357506001146115f0575b50506115ee925003836114f1565b565b9093915060005260209081600020936000915b81831061161b5750506115ee935082010138806115e0565b85548884018501529485019487945091830191611603565b9150506115ee94506020925060ff191682840152151560051b82010138806115e0565b60005b8381106116695750506000910152565b8181015183820152602001611659565b9060209161169281518092818552858086019101611656565b601f01601f1916010190565b80600052600060205260406000203360005260205260ff60406000205416156116c45750565b6044906040519063e2517d3f60e01b82523360048301526024820152fd5b6001600160a01b031660008181527fa629f6981c2f6895a67dc766e8e03ff72d04a413d0d8773a3ca56e9e474032c16020526040812054909190600080516020611c288339815191529060ff1661177d57808352826020526040832082845260205260408320600160ff198254161790557f2f8788117e7eff1d82e926ec794901d17c78024a50270940304540a733656f0d339380a4600190565b505090565b9060009180835282602052604083209160018060a01b03169182845260205260ff6040842054161560001461177d57808352826020526040832082845260205260408320600160ff198254161790557f2f8788117e7eff1d82e926ec794901d17c78024a50270940304540a733656f0d339380a4600190565b6001600160a01b031660008181527fa629f6981c2f6895a67dc766e8e03ff72d04a413d0d8773a3ca56e9e474032c16020526040812054909190600080516020611c288339815191529060ff161561177d5780835282602052604083208284526020526040832060ff1981541690557ff6391f5c32d9c69d2a47ea670b442974b53935d1edc7fd64eb21e047a839171b339380a4600190565b9060009180835282602052604083209160018060a01b03169182845260205260ff60408420541660001461177d5780835282602052604083208284526020526040832060ff1981541690557ff6391f5c32d9c69d2a47ea670b442974b53935d1edc7fd64eb21e047a839171b339380a4600190565b1561191057565b60405162461bcd60e51b815260206004820152601760248201527f43616c6c6572206973206e6f7420616e206f7261636c650000000000000000006044820152606490fd5b81601f820112156101d257805161196b81611513565b9261197960405194856114f1565b818452602082840101116101d2576119979160208085019101611656565b90565b51906001600160a01b03821682036101d257565b519081151582036101d257565b919082018092116111a657565b60001981146111a65760010190565b8181106119e2575050565b600081556001016119d7565b67ffffffffffffffff81116111ed5760051b60200190565b90611a10826119ee565b611a1d60405191826114f1565b8281528092611a2e601f19916119ee565b0190602036910137565b80518210156114db5760209160051b010190565b9081518110156114db570160200190565b91909180518351918115611bdb578215611bd5576001808401958685116111a657611a93611a8d88959498611a06565b94611a06565b9660005b86811115611bba575082975b84891115611abf575050505050611abb929350611a38565b5190565b8095949551156114db57886020820152835b87811115611aec5750611ae490986119c8565b979493611aa3565b6000198a810191908b83116111a6576001600160f81b0319928390611b119087611a4c565b5116908201928284116111a657611b288488611a4c565b511603611bb45760005b611b3c8385611a38565b51928784018094116111a657611b52838a611a38565b51908882018092116111a657611b8060ff611ba096611b8694808210600014611bac5750945b16918b611a38565b516119bb565b80821015611ba557505b611b9a8285611a38565b526119c8565b611ad1565b9050611b90565b905094611b78565b85611b32565b8080611b9a611bcc93899c9899611a38565b97949397611a97565b50925050565b5090925050565b15611be957565b60405162461bcd60e51b815260206004820152601660248201527521b0b63632b91034b9903737ba1030b71030b236b4b760511b6044820152606490fdfe68e79a7bf1e0bc45d0a330c573bc367f9cf464fd326078812f301165fbda4ef1a26469706673582212206f29cfb549da95997e68e406ab625c8d690b1460d015e6124d3a0bc619dbcbc464736f6c634300081400332f8788117e7eff1d82e926ec794901d17c78024a50270940304540a733656f0d",
  "linkReferences": {},
  "deployedLinkReferences": {}
}