{
  "_format": "hh-sol-artifact-1",
  "contractName": "BittensorRewardPool",
  "sourceName": "contracts/src/BittensorRewardPool.sol",
  "abi": [
    {
      "inputs": [],
      "stateMutability": "nonpayable",
      "type": "constructor"
    },
    {
      "inputs": [
        {
          "internalType": "address",
          "name": "owner",
          "type": "address"
        }
      ],
      "name": "OwnableInvalidOwner",
      "type": "error"
    },
    {
      "inputs": [
        {
          "internalType": "address",
          "name": "account",
          "type": "address"
        }
      ],
      "name": "OwnableUnauthorizedAccount",
      "type": "error"
    },
    {
      "inputs": [],
      "name": "ReentrancyGuardReentrantCall",
      "type": "error"
    },
    {
      "anonymous": false,
      "inputs": [
        {
          "indexed": true,
          "internalType": "address",
          "name": "agent",
          "type": "address"
        },
        {
          "indexed": false,
          "internalType": "string",
          "name": "hotkey",
          "type": "string"
        },
        {
          "indexed": false,
          "internalType": "uint256",
          "name": "subnet",
          "type": "uint256"
        }
      ],
      "name": "AIAgentRegistered",
      "type": "event"
    },
    {
      "anonymous": false,
      "inputs": [
        {
          "indexed": true,
          "internalType": "address",
          "name": "agent",
          "type": "address"
        },
        {
          "indexed": false,
          "internalType": "uint256",
          "name": "taoStaked",
          "type": "uint256"
        }
      ],
      "name": "AIAgentVerified",
      "type": "event"
    },
    {
      "anonymous": false,
      "inputs": [
        {
          "indexed": false,
          "internalType": "uint256",
          "name": "epochNumber",
          "type": "uint256"
        },
        {
          "indexed": false,
          "internalType": "uint256",
          "name": "totalDistributed",
          "type": "uint256"
        }
      ],
      "name": "EpochCompleted",
      "type": "event"
    },
    {
      "anonymous": false,
      "inputs": [
        {
          "indexed": true,
          "internalType": "address",
          "name": "previousOwner",
          "type": "address"
        },
        {
          "indexed": true,
          "internalType": "address",
          "name": "newOwner",
          "type": "address"
        }
      ],
      "name": "OwnershipTransferred",
      "type": "event"
    },
    {
      "anonymous": false,
      "inputs": [
        {
          "indexed": true,
          "internalType": "address",
          "name": "agent",
          "type": "address"
        },
        {
          "indexed": false,
          "internalType": "uint256",
          "name": "marketId",
          "type": "uint256"
        },
        {
          "indexed": false,
          "internalType": "bool",
          "name": "wasCorrect",
          "type": "bool"
        }
      ],
      "name": "PredictionRecorded",
      "type": "event"
    },
    {
      "anonymous": false,
      "inputs": [
        {
          "indexed": true,
          "internalType": "address",
          "name": "agent",
          "type": "address"
        },
        {
          "indexed": false,
          "internalType": "uint256",
          "name": "amount",
          "type": "uint256"
        },
        {
          "indexed": false,
          "internalType": "uint256",
          "name": "epoch",
          "type": "uint256"
        }
      ],
      "name": "RewardDistributed",
      "type": "event"
    },
    {
      "anonymous": false,
      "inputs": [
        {
          "indexed": true,
          "internalType": "address",
          "name": "agent",
          "type": "address"
        },
        {
          "indexed": false,
          "internalType": "uint256",
          "name": "amount",
          "type": "uint256"
        }
      ],
      "name": "RewardsClaimed",
      "type": "event"
    },
    {
      "anonymous": false,
      "inputs": [
        {
          "indexed": true,
          "internalType": "address",
          "name": "agent",
          "type": "address"
        },
        {
          "indexed": false,
          "internalType": "uint256",
          "name": "bonus",
          "type": "uint256"
        }
      ],
      "name": "TransparencyBonusUpdated",
      "type": "event"
    },
    {
      "inputs": [],
      "name": "MAX_TRANSPARENCY_BONUS",
      "outputs": [
        {
          "internalType": "uint256",
          "name": "",
          "type": "uint256"
        }
      ],
      "stateMutability": "view",
      "type": "function"
    },
    {
      "inputs": [],
      "name": "MIN_TAO_STAKE",
      "outputs": [
        {
          "internalType": "uint256",
          "name": "",
          "type": "uint256"
        }
      ],
      "stateMutability": "view",
      "type": "function"
    },
    {
      "inputs": [],
      "name": "PERFORMANCE_WEIGHT",
      "outputs": [
        {
          "internalType": "uint256",
          "name": "",
          "type": "uint256"
        }
      ],
      "stateMutability": "view",
      "type": "function"
    },
    {
      "inputs": [],
      "name": "TAO_STAKE_WEIGHT",
      "outputs": [
        {
          "internalType": "uint256",
          "name": "",
          "type": "uint256"
        }
      ],
      "stateMutability": "view",
      "type": "function"
    },
    {
      "inputs": [],
      "name": "TRANSPARENCY_WEIGHT",
      "outputs": [
        {
          "internalType": "uint256",
          "name": "",
          "type": "uint256"
        }
      ],
      "stateMutability": "view",
      "type": "function"
    },
    {
      "inputs": [],
      "name": "YUMA_SCORE_WEIGHT",
      "outputs": [
        {
          "internalType": "uint256",
          "name": "",
          "type": "uint256"
        }
      ],
      "stateMutability": "view",
      "type": "function"
    },
    {
      "inputs": [
        {
          "internalType": "address",
          "name": "",
          "type": "address"
        },
        {
          "internalType": "uint256",
          "name": "",
          "type": "uint256"
        }
      ],
      "name": "agentPerformance",
      "outputs": [
        {
          "internalType": "uint256",
          "name": "marketId",
          "type": "uint256"
        },
        {
          "internalType": "uint256",
          "name": "submissionId",
          "type": "uint256"
        },
        {
          "internalType": "bool",
          "name": "wasCorrect",
          "type": "bool"
        },
        {
          "internalType": "uint256",
          "name": "levenshteinDistance",
          "type": "uint256"
        },
        {
          "internalType": "uint256",
          "name": "rewardEarned",
          "type": "uint256"
        },
        {
          "internalType": "uint256",
          "name": "timestamp",
          "type": "uint256"
        }
      ],
      "stateMutability": "view",
      "type": "function"
    },
    {
      "inputs": [
        {
          "internalType": "address",
          "name": "",
          "type": "address"
        }
      ],
      "name": "aiAgents",
      "outputs": [
        {
          "internalType": "address",
          "name": "walletAddress",
          "type": "address"
        },
        {
          "internalType": "string",
          "name": "hotkey",
          "type": "string"
        },
        {
          "internalType": "string",
          "name": "coldkey",
          "type": "string"
        },
        {
          "internalType": "uint256",
          "name": "subnet",
          "type": "uint256"
        },
        {
          "internalType": "uint256",
          "name": "taoStaked",
          "type": "uint256"
        },
        {
          "internalType": "uint256",
          "name": "yumaScore",
          "type": "uint256"
        },
        {
          "internalType": "uint256",
          "name": "totalPredictions",
          "type": "uint256"
        },
        {
          "internalType": "uint256",
          "name": "successfulPredictions",
          "type": "uint256"
        },
        {
          "internalType": "uint256",
          "name": "transparencyBonus",
          "type": "uint256"
        },
        {
          "internalType": "uint256",
          "name": "totalRewards",
          "type": "uint256"
        },
        {
          "internalType": "uint256",
          "name": "unclaimedRewards",
          "type": "uint256"
        },
        {
          "internalType": "bool",
          "name": "isRegistered",
          "type": "bool"
        },
        {
          "internalType": "bool",
          "name": "isVerified",
          "type": "bool"
        }
      ],
      "stateMutability": "view",
      "type": "function"
    },
    {
      "inputs": [],
      "name": "claimRewards",
      "outputs": [],
      "stateMutability": "nonpayable",
      "type": "function"
    },
    {
      "inputs": [],
      "name": "deposit",
      "outputs": [],
      "stateMutability": "payable",
      "type": "function"
    },
    {
      "inputs": [],
      "name": "distributeEpochRewards",
      "outputs": [],
      "stateMutability": "nonpayable",
      "type": "function"
    },
    {
      "inputs": [],
      "name": "emergencyWithdraw",
      "outputs": [],
      "stateMutability": "nonpayable",
      "type": "function"
    },
    {
      "inputs": [],
      "name": "epochDuration",
      "outputs": [
        {
          "internalType": "uint256",
          "name": "",
          "type": "uint256"
        }
      ],
      "stateMutability": "view",
      "type": "function"
    },
    {
      "inputs": [],
      "name": "epochNumber",
      "outputs": [
        {
          "internalType": "uint256",
          "name": "",
          "type": "uint256"
        }
      ],
      "stateMutability": "view",
      "type": "function"
    },
    {
      "inputs": [
        {
          "internalType": "address",
          "name": "_agent",
          "type": "address"
        }
      ],
      "name": "getAgentStats",
      "outputs": [
        {
          "internalType": "uint256",
          "name": "totalPredictions",
          "type": "uint256"
        },
        {
          "internalType": "uint256",
          "name": "successfulPredictions",
          "type": "uint256"
        },
        {
          "internalType": "uint256",
          "name": "successRate",
          "type": "uint256"
        },
        {
          "internalType": "uint256",
          "name": "totalRewards",
          "type": "uint256"
        },
        {
          "internalType": "uint256",
          "name": "unclaimedRewards",
          "type": "uint256"
        },
        {
          "internalType": "uint256",
          "name": "currentScore",
          "type": "uint256"
        }
      ],
      "stateMutability": "view",
      "type": "function"
    },
    {
      "inputs": [
        {
          "internalType": "string",
          "name": "",
          "type": "string"
        }
      ],
      "name": "hotkeyToAddress",
      "outputs": [
        {
          "internalType": "address",
          "name": "",
          "type": "address"
        }
      ],
      "stateMutability": "view",
      "type": "function"
    },
    {
      "inputs": [],
      "name": "lastEpochTime",
      "outputs": [
        {
          "internalType": "uint256",
          "name": "",
          "type": "uint256"
        }
      ],
      "stateMutability": "view",
      "type": "function"
    },
    {
      "inputs": [],
      "name": "owner",
      "outputs": [
        {
          "internalType": "address",
          "name": "",
          "type": "address"
        }
      ],
      "stateMutability": "view",
      "type": "function"
    },
    {
      "inputs": [
        {
          "internalType": "address",
          "name": "_agent",
          "type": "address"
        },
        {
          "internalType": "uint256",
          "name": "_marketId",
          "type": "uint256"
        },
        {
          "internalType": "uint256",
          "name": "_submissionId",
          "type": "uint256"
        },
        {
          "internalType": "bool",
          "name": "_wasCorrect",
          "type": "bool"
        },
        {
          "internalType": "uint256",
          "name": "_levenshteinDistance",
          "type": "uint256"
        }
      ],
      "name": "recordPrediction",
      "outputs": [],
      "stateMutability": "nonpayable",
      "type": "function"
    },
    {
      "inputs": [
        {
          "internalType": "string",
          "name": "_hotkey",
          "type": "string"
        },
        {
          "internalType": "string",
          "name": "_coldkey",
          "type": "string"
        },
        {
          "internalType": "uint256",
          "name": "_subnet",
          "type": "uint256"
        }
      ],
      "name": "registerAIAgent",
      "outputs": [],
      "stateMutability": "nonpayable",
      "type": "function"
    },
    {
      "inputs": [
        {
          "internalType": "uint256",
          "name": "",
          "type": "uint256"
        }
      ],
      "name": "registeredAgents",
      "outputs": [
        {
          "internalType": "address",
          "name": "",
          "type": "address"
        }
      ],
      "stateMutability": "view",
      "type": "function"
    },
    {
      "inputs": [],
      "name": "renounceOwnership",
      "outputs": [],
      "stateMutability": "nonpayable",
      "type": "function"
    },
    {
      "inputs": [
        {
          "internalType": "uint256",
          "name": "",
          "type": "uint256"
        }
      ],
      "name": "subnetRewardMultipliers",
      "outputs": [
        {
          "internalType": "uint256",
          "name": "",
          "type": "uint256"
        }
      ],
      "stateMutability": "view",
      "type": "function"
    },
    {
      "inputs": [],
      "name": "totalDistributed",
      "outputs": [
        {
          "internalType": "uint256",
          "name": "",
          "type": "uint256"
        }
      ],
      "stateMutability": "view",
      "type": "function"
    },
    {
      "inputs": [],
      "name": "totalPoolBalance",
      "outputs": [
        {
          "internalType": "uint256",
          "name": "",
          "type": "uint256"
        }
      ],
      "stateMutability": "view",
      "type": "function"
    },
    {
      "inputs": [
        {
          "internalType": "address",
          "name": "newOwner",
          "type": "address"
        }
      ],
      "name": "transferOwnership",
      "outputs": [],
      "stateMutability": "nonpayable",
      "type": "function"
    },
    {
      "inputs": [
        {
          "internalType": "uint256",
          "name": "_duration",
          "type": "uint256"
        }
      ],
      "name": "updateEpochDuration",
      "outputs": [],
      "stateMutability": "nonpayable",
      "type": "function"
    },
    {
      "inputs": [
        {
          "internalType": "uint256",
          "name": "_subnet",
          "type": "uint256"
        },
        {
          "internalType": "uint256",
          "name": "_multiplier",
          "type": "uint256"
        }
      ],
      "name": "updateSubnetMultiplier",
      "outputs": [],
      "stateMutability": "nonpayable",
      "type": "function"
    },
    {
      "inputs": [
        {
          "internalType": "address",
          "name": "_agent",
          "type": "address"
        },
        {
          "internalType": "bool",
          "name": "_openSourced",
          "type": "bool"
        },
        {
          "internalType": "bool",
          "name": "_architecturePublished",
          "type": "bool"
        },
        {
          "internalType": "bool",
          "name": "_reasoningExplained",
          "type": "bool"
        },
        {
          "internalType": "bool",
          "name": "_dataSourcesRevealed",
          "type": "bool"
        }
      ],
      "name": "updateTransparencyBonus",
      "outputs": [],
      "stateMutability": "nonpayable",
      "type": "function"
    },
    {
      "inputs": [
        {
          "internalType": "address",
          "name": "_agent",
          "type": "address"
        },
        {
          "internalType": "uint256",
          "name": "_taoStaked",
          "type": "uint256"
        },
        {
          "internalType": "uint256",
          "name": "_yumaScore",
          "type": "uint256"
        }
      ],
      "name": "verifyAgent",
      "outputs": [],
      "stateMutability": "nonpayable",
      "type": "function"
    },
    {
      "stateMutability": "payable",
      "type": "receive"
    }
  ],
  "bytecode": "0x6080604090808252346100be5733156100a8575060008054336001600160a01b031982168117835583519360829390929091906001600160a01b03167f8be0079c531659141344cd1fd0a4f28419497f9722a3daafe3b4186f6b6457e08380a36001805562015180600a554260095560016008556001815260056020526064828220556002815260788282205560088152609682822055601281522055611ca790816100c48239f35b631e4fbdf760e01b815260006004820152602490fd5b600080fdfe6080604052600436101561002a575b361561001957600080fd5b61002534600654611928565b600655005b60003560e01c8062af450a1461120b57806310a3aa59146111ef5780631b85c87a146110235780632a5d2cd014610fac5780632c88554214610f90578063372500ab14610ec85780633b53d87a14610e9c5780634e2fa52914610e805780634ff0876a14610e625780635026d63e14610e4457806361b1d93114610e205780636c5f60fc14610d90578063715018a614610d3757806377bad62e14610c4057806389c614b814610c225780638da5cb5b14610bf95780639270c14c14610aa2578063a33ddd15146109fe578063a7bd211c146109bc578063b5695b381461086b578063c1c7d04f1461050d578063cdaa95e7146104f1578063d0e30db01461049b578063d773cdaa14610432578063d8f9723a14610303578063db2e21bc1461025e578063e0c2dd3914610242578063efca2eed14610224578063f2fde38b1461019b5763f4145a830361000e5734610196576000366003190112610196576020600854604051908152f35b600080fd5b34610196576020366003190112610196576101b46116cc565b6101bc611882565b6001600160a01b0390811690811561020b57600054826001600160601b0360a01b821617600055167f8be0079c531659141344cd1fd0a4f28419497f9722a3daafe3b4186f6b6457e0600080a3005b604051631e4fbdf760e01b815260006004820152602490fd5b34610196576000366003190112610196576020600754604051908152f35b3461019657600036600319011261019657602060405160288152f35b3461019657600036600319011261019657610277611882565b600080600b545b8083106102bf5761028f82476119a3565b8061029657005b600080546102bd928291829182916001600160a01b03165af16102b7611c03565b50611c33565b005b906102f66102fc916102d08561184b565b60018060a01b0391549060031b1c166000526002602052600a6040600020015490611928565b92611935565b919061027e565b346101965760603660031901126101965761031c6116cc565b6001600160a01b03166000818152600260205260409020600b0154602435906044359061034b9060ff166118eb565b68056bc75e2d6310000082106103f457606481116103ba577f511bf23703f5bf3448ee9dd5fd981f4acaeeca1b822346ba9f11aac763f7505091600b602092856000526002845260406000209083600483015560058201550161010061ff0019825416179055604051908152a2005b60405162461bcd60e51b8152602060048201526012602482015271496e76616c69642059756d612073636f726560701b6044820152606490fd5b60405162461bcd60e51b8152602060048201526016602482015275496e73756666696369656e742054414f207374616b6560501b6044820152606490fd5b346101965760203660031901126101965760043567ffffffffffffffff8111610196576104656020913690600401611685565b816104796040519283815193849201611803565b600490820190815281900382019020546040516001600160a01b039091168152f35b60003660031901126101965734156104b95761002534600654611928565b60405162461bcd60e51b815260206004820152601060248201526f09aeae6e840c8cae0dee6d2e8408aa8960831b6044820152606490fd5b3461019657600036600319011261019657602060405160148152f35b34610196576000366003190112610196576105266119b0565b610535600954600a5490611928565b421061083157600a6006540480156107ec57600090600b5461055681611964565b906105646040519283611647565b808252601f1961057382611964565b0136602084013760005b81811061077b575050826105fc575b50505061059a600854611935565b806008554260095560001981019081116105e65760407f67285f572f81b94b0b6f6b725355d7baa0f40769ee0fc01c6b23599cb3f28fc79160075482519182526020820152a160018055005b634e487b7160e01b600052601160045260246000fd5b60009260005b600b5481101561075157610616818461197c565b5161062a575b61062590611935565b610602565b6106338161184b565b905460039190911b1c6001600160a01b03166106628361065d610656858861197c565b5188611990565b611944565b95816000526002602052600860406000200154806106fe575b50907f53118bff2fb56701752f5bf54053d24fb83cec92f9f6ce664b90c38a2991caa460406106e8896106259695856000526002602052600a84600020016106c4838254611928565b9055856000526002602052600984600020016106e1838254611928565b9055611928565b9860085482519182526020820152a2905061061c565b60649793929197908101938482116105e6576106e87f53118bff2fb56701752f5bf54053d24fb83cec92f9f6ce664b90c38a2991caa49261074461062597604094611990565b049993949550505061067b565b505050506107709061076581600754611928565b6007556006546119a3565b60065580808061058c565b6107848161184b565b905460039190911b1c6001600160a01b03166000818152600260205260409020600b015460081c60ff166107c2575b506107bd90611935565b61057d565b6107bd91956107d36107e5926119d3565b90816107df898861197c565b52611928565b94906107b3565b60405162461bcd60e51b815260206004820152601860248201527f4e6f207265776172647320746f206469737472696275746500000000000000006044820152606490fd5b60405162461bcd60e51b815260206004820152601260248201527145706f6368206e6f7420636f6d706c65746560701b6044820152606490fd5b34610196576020366003190112610196576108846116cc565b60018060a01b03908181166000526002602052604060002091604051906108aa8261162a565b83541681526108bb6001840161175d565b60208201526108cc6002840161175d565b60408201526003830154606082015260048301546080820152600583015460a082015260068301549160c082019383855260078101549460e08401948686526008830154610100860152600983015494610120810195865261018060ff600b600a8701549661014085019788520154818116151561016085015260081c16151591015215156000146109ad576064860295808704606414901517156105e65761098b61097c60c097835190611944565b915b51955194519251936119d3565b93604051958652602086015260408501526060840152608083015260a0820152f35b60c0955061098b60009161097e565b3461019657602036600319011261019657600435600b54811015610196576109e560209161184b565b905460405160039290921b1c6001600160a01b03168152f35b3461019657604036600319011261019657602435600435610a1d611882565b80151580610a97575b610a2f906118ae565b603282101580610a8c575b15610a52576000526005602052604060002055600080f35b60405162461bcd60e51b815260206004820152601260248201527124b73b30b634b21036bab63a34b83634b2b960711b6044820152606490fd5b5060c8821115610a3a565b506032811115610a26565b346101965760a036600319011261019657610abb6116cc565b60243580151581036101965760443591821515830361019657610adc6116e2565b6084359182151583036101965760018060a01b031693846000526002602052610b0f60ff600b60406000200154166118eb565b600093610bf0575b610bde575b610bcc575b610baa575b603c8111610b6d5760207f65890276b704fde08138c223de04b7ed477c7c5dfc124bca173916295aa8f43791836000526002825280600860406000200155604051908152a2005b60405162461bcd60e51b8152602060048201526015602482015274426f6e75732065786365656473206d6178696d756d60581b6044820152606490fd5b600a810180911115610b2657634e487b7160e01b600052601160045260246000fd5b90600f81018091116105e65790610b21565b91600f81018091116105e65791610b1c565b60149350610b17565b34610196576000366003190112610196576000546040516001600160a01b039091168152602090f35b34610196576000366003190112610196576020600954604051908152f35b34610196576020366003190112610196576001600160a01b0380610c626116cc565b166000526002602052604060002090815416610c806001830161175d565b9160ff610c8f6002830161175d565b600383015492600481015460058201546006830154600784015490600885015492600986015494610cf0600b600a89015498015498610ce26040519e8f9e8f9081526101a0908160208201520190611826565b8d810360408f015290611826565b9960608c015260808b015260a08a015260c089015260e0880152610100870152610120860152610140850152818116151561016085015260081c1615156101808301520390f35b3461019657600036600319011261019657610d50611882565b600080546001600160a01b0319811682556001600160a01b03167f8be0079c531659141344cd1fd0a4f28419497f9722a3daafe3b4186f6b6457e08280a3005b3461019657604036600319011261019657610da96116cc565b6001600160a01b03166000908152600360205260409020805460243591908210156101965760c091610dda916116f1565b5080549060018101549060ff60028201541660038201549060056004840154930154936040519586526020860152151560408501526060840152608083015260a0820152f35b3461019657600036600319011261019657602060405168056bc75e2d631000008152f35b34610196576000366003190112610196576020600654604051908152f35b34610196576000366003190112610196576020600a54604051908152f35b34610196576000366003190112610196576020604051603c8152f35b346101965760203660031901126101965760043560005260056020526020604060002054604051908152f35b3461019657600036600319011261019657610ee16119b0565b336000526002602052600a6040600020610f0160ff600b830154166118eb565b018054908115610f555760009055610f23600080808085335af16102b7611c03565b6040519081527ffc30cddea38e2bf4d6ea7d3f9ed3b6ad7f176419f4963bd81318067a4aee73fe60203392a260018055005b60405162461bcd60e51b81526020600482015260136024820152724e6f207265776172647320746f20636c61696d60681b6044820152606490fd5b34610196576000366003190112610196576020604051600a8152f35b3461019657602036600319011261019657600435610fc8611882565b610e1081101580611016575b15610fde57600a55005b60405162461bcd60e51b815260206004820152601060248201526f24b73b30b634b210323ab930ba34b7b760811b6044820152606490fd5b5062278d00811115610fd4565b346101965760a03660031901126101965761103c6116cc565b602435906110486116e2565b9060018060a01b031691826000526020906002825260ff600b6040600020015460081c16156111b55783600052600282526040600020836006820161108d8154611935565b90556111a0575b5060405160c0810181811067ffffffffffffffff82111761118a57604052818152828101926044358452604082019415159182865260608101906084358252608081016000815260a0820190428252896000526003855260406000208054600160401b81101561118a5761110d916001820181556116f1565b949094611174577fc483ff57aa071bd9b1f3dbd4864bbdc47e5e4e1632d8858bdd78b6d65d245f5a99604099600595518755516001870155600286019051151560ff80198354169116179055516003850155516004840155519101558351928352820152a2005b634e487b7160e01b600052600060045260246000fd5b634e487b7160e01b600052604160045260246000fd5b6007016111ad8154611935565b905584611094565b60405162461bcd60e51b81526004810183905260126024820152711059d95b9d081b9bdd081d995c9a599a595960721b6044820152606490fd5b34610196576000366003190112610196576020604051601e8152f35b346101965760603660031901126101965760043567ffffffffffffffff81116101965761123c903690600401611685565b60243567ffffffffffffffff81116101965761125c903690600401611685565b33600052600260205260ff600b60406000200154166115f0578151156115ba576044351515806115ad575b611290906118ae565b336000526002602052604060002090336001600160601b0360a01b835416178255825167ffffffffffffffff811161118a576112cf6001840154611723565b601f8111611566575b50806020601f82116001146114f9576000916114ee575b508160011b916000199060031b1c19161760018301555b80519067ffffffffffffffff821161118a576113256002840154611723565b601f81116114a3575b50602090601f831160011461143257600b93929160009183611427575b50508160011b916000199060031b1c19161760028201555b604435600382015501600160ff19825416179055604051602081835161138c8183858801611803565b81016004815203019020336001600160601b0360a01b825416179055600b54600160401b81101561118a578060016113c79201600b5561184b565b81549060031b9033821b9160018060a01b03901b19161790557f333e76ba1c6bc36ce3dd2d9d2536c33df97758f5ad80cf9d5bad8798cdd25f4361141660405192604084526040840190611826565b9160443560208201528033930390a2005b01519050858061134b565b90601f198316916002850160005260206000209260005b81811061148b5750916001939185600b97969410611472575b505050811b016002820155611363565b015160001960f88460031b161c19169055858080611462565b92936020600181928786015181550195019301611449565b600284016000526020600020601f840160051c810191602085106114e4575b601f0160051c01905b8181106114d8575061132e565b600081556001016114cb565b90915081906114c2565b9050840151856112ef565b91506001840160005260206000206000925b601f198316841061154e576001935082601f19811610611535575b5050811b016001830155611306565b86015160001960f88460031b161c191690558580611526565b8681015182556020938401936001909201910161150b565b600184016000526020600020601f830160051c8101602084106115a6575b601f830160051c8201811061159a5750506112d8565b60008155600101611584565b5080611584565b5060326044351115611287565b60405162461bcd60e51b815260206004820152600e60248201526d496e76616c696420686f746b657960901b6044820152606490fd5b60405162461bcd60e51b8152602060048201526012602482015271105b1c9958591e481c9959da5cdd195c995960721b6044820152606490fd5b6101a0810190811067ffffffffffffffff82111761118a57604052565b90601f8019910116810190811067ffffffffffffffff82111761118a57604052565b67ffffffffffffffff811161118a57601f01601f191660200190565b81601f820112156101965780359061169c82611669565b926116aa6040519485611647565b8284526020838301011161019657816000926020809301838601378301015290565b600435906001600160a01b038216820361019657565b60643590811515820361019657565b805482101561170d576000526006602060002091020190600090565b634e487b7160e01b600052603260045260246000fd5b90600182811c92168015611753575b602083101461173d57565b634e487b7160e01b600052602260045260246000fd5b91607f1691611732565b906040519182600082549261177184611723565b9081845260019485811690816000146117e0575060011461179d575b505061179b92500383611647565b565b9093915060005260209081600020936000915b8183106117c857505061179b9350820101388061178d565b855488840185015294850194879450918301916117b0565b91505061179b94506020925060ff191682840152151560051b820101388061178d565b60005b8381106118165750506000910152565b8181015183820152602001611806565b9060209161183f81518092818552858086019101611803565b601f01601f1916010190565b600b5481101561170d57600b6000527f0175b7a638427703f0dbe7bb9bbf987a2551717b34e79f33b5b1008d1fa01db90190600090565b6000546001600160a01b0316330361189657565b60405163118cdaa760e01b8152336004820152602490fd5b156118b557565b60405162461bcd60e51b815260206004820152600e60248201526d125b9d985b1a59081cdd589b995d60921b6044820152606490fd5b156118f257565b60405162461bcd60e51b815260206004820152600e60248201526d139bdd081c9959da5cdd195c995960921b6044820152606490fd5b919082018092116105e657565b60001981146105e65760010190565b811561194e570490565b634e487b7160e01b600052601260045260246000fd5b67ffffffffffffffff811161118a5760051b60200190565b805182101561170d5760209160051b010190565b818102929181159184041417156105e657565b919082039182116105e657565b6002600154146119c1576002600155565b604051633ee5aeb560e01b8152600490fd5b6001600160a01b039081166000908152600260205260408082209051929091906119fc8461162a565b8254168352611a0d6001830161175d565b6020840152611a1e6002830161175d565b6040840152600382015491606084019283526004808201549160808601928352600581015460a0870190815260068201549660c08101978089526007840154918260e082015261018060ff600b60088801549761010085019889526009810154610120860152600a8101546101408601520154818116151561016085015260081c16151591015215611bf857606497888202918083048a1490151715611be55751611ac891611944565b935169021e19e0c9bab24000009081811115611bcd57505086905b51915187810290808204891490151715611bba57603c900493602881029080820460281490151715611bba57601e820291808304601e1490151715611bba5790611b2c91611928565b601482029180830460141490151715611ba75790611b4991611928565b90600a830292808404600a1490151715611b9457509184611b70604093611b889695611928565b049251815260056020522054908115611b8c57611990565b0490565b839150611990565b634e487b7160e01b845260119052602483fd5b634e487b7160e01b855260118352602485fd5b634e487b7160e01b865260118452602486fd5b888102908082048a1490151715611be5570490611ae3565b634e487b7160e01b875260118552602487fd5b505050505091505090565b3d15611c2e573d90611c1482611669565b91611c226040519384611647565b82523d6000602084013e565b606090565b15611c3a57565b60405162461bcd60e51b815260206004820152600f60248201526e151c985b9cd9995c8819985a5b1959608a1b6044820152606490fdfea26469706673582212202217f0b281cf667dfd8b75018964bb18361d9679f09a70901421eae56acbcb8864736f6c63430008140033",
  "linkReferences": {},
  "deployedLinkReferences": {}
}